:1000000026C040C077C113C13DC096C03BC03AC0B6
:100010007DC438C037C036C035C034C033C00000DE
:10002000000037000000000038000000000036002B
:10003000020202020202020202020102040810206D
:10004000200410080102000000000000000011243C
:100050001FBECFE5D2E0DEBFCDBF11E0A0E6B0E02D
:10006000E0E1FFE002C005900D92A030B107D9F7A2
:1000700011E0A0E0B1E001C01D92A93AB107E1F79B
:1000800045D644C7BDCFA0E0B0E0E8E4F0E00FC73C
:10009000EC01A880B980CA80DB80A114B104C1043E
:1000A000D10441F484E2A82E89EDB82E8BE5C82E48
:1000B00087E0D82EC601B5012DE133EF41E050E0D5
:1000C000B1D627EA31E440E050E093D67B018C01C1
:1000D000C601B5012DE133EF41E050E0A3D6CA01DE
:1000E000B9012CEE34EF4FEF5FEF83D66E0D7F1D1D
:1000F000801F911F97FF04C061507040804090485E
:10010000688379838A839B839B01AC015F77B90104
:10011000CA01CDB7DEB7EAE0E6C6B5DF089580E6EE
:1001200090E0B1DF08956093600070936100809368
:1001300062009093630008951F920F920FB60F9282
:1001400011248F939F93AF93BF938091020190915D
:100150000301A0910401B09105010196A11DB11DFB
:100160008093020190930301A0930401B0930501D1
:10017000BF91AF919F918F910F900FBE0F901F90E5
:10018000189583EA8ABD81E083BF10BE1FBC82E060
:100190008CBD8AEF8EBD789489B7826089BF15BA0D
:1001A000AB9A8BB780628BBF089580911C01882326
:1001B00099F080910101882319F010921C01089593
:1001C00080916400882389F081E080931C01109263
:1001D000640080930101089581E080931C011092D6
:1001E00064008093010110921D01089580911C010B
:1001F000882399F080916400882319F010921C01E3
:10020000089580910101882389F081E080931C0189
:100210008093640010920101089581E080931C0195
:10022000809364001092010110921D0108951F92A5
:100230000F920FB60F9211240F900FBE0F901F90C8
:100240001895EF92FF920F931F9333E0880F991F39
:100250003A95E1F764E178E0681B790BCB01880FF0
:10026000892F881F990B8F5F40E050E0E82FF0E066
:1002700091E0E92EF12C012D112DCF01042E02C0A9
:10028000959587950A94E2F780FF0EC020B7D801B4
:10029000C701042E04C0880F991FAA1FBB1F0A9410
:1002A000D2F7282B20BF0EC020B7D801C701042EDB
:1002B00004C0880F991FAA1FBB1F0A94D2F780950C
:1002C000822380BF4F5F5F4F44305105B1F6862FC8
:1002D0008F7780588EBD1F910F91FF90EF900895FA
:1002E00017B8379A329A319A309A339A8FB7806812
:1002F0008FBF08951F920F920FB60F9211246F9225
:100300007F928F929F92AF92BF92CF92DF92EF92A5
:10031000FF920F931F932F933F934F935F936F938E
:100320007F938F939F93AF93BF93CF93DF93EF937D
:10033000FF93B39B9CC180911A01882319F08150CF
:1003400080931A0180911A01882309F090C1E090EE
:100350000201F09003010091040110910501E6E013
:10036000EE0CFF1C001F111FEA95D1F722B730E0F9
:100370003595279535952795442737FD4095542F7A
:100380002E293F29402B512B809106019091070186
:10039000A0910801B0910901281B390B4A0B5B0B96
:1003A00082B790E09595879595958795AA2797FDB3
:1003B000A095BA2F8E299F29A02BB12B80930601DF
:1003C00090930701A0930801B093090180910A015D
:1003D00090910B01A0910C01B0910D0180930E0141
:1003E00090930F01A0931001B093110120930A0183
:1003F00030930B0140930C0150930D0114E056957E
:100400004795379527951A95D1F720931201309388
:10041000130140931401509315018FE080931A014A
:10042000109117010091160168E470E0FB01EE0FD6
:10043000FF1FEB59FF4FC081D181CE01A0E0B0E09A
:1004400082179307A407B50700F1FB01EE0FFF1F0A
:10045000E959FF4F80819181FE01E81BF90BCF0123
:10046000969587958C0F9D1FA0E0B0E082179307AB
:10047000A407B50728F4062F60E070E011E005C07E
:10048000062F0F5F60E070E010E0615070401616BC
:10049000170664F21093170100931601C02FD0E0E5
:1004A000FE01EE0FFF1FEB59FF4FE080F180C70107
:1004B000A0E0B0E0281739074A075B0719F02E19AA
:1004C0003F0904C0C701821B930B9C01390188249A
:1004D000992400D000D0CC0FDD1FC959DF4F88818F
:1004E0009981E81AF90A00E010E08091F70090E0A5
:1004F000A0E0B0E0EDB7FEB781839283A383B4831D
:10050000C401B30120E030E040E050E0AA24BB2465
:10051000650108D40F900F900F900F9097FF03C0C4
:1005200060E070E063C0E0911601F0E000D000D020
:10053000EE0FFF1FDF01A959BF4FEB59FF4FE080BE
:10054000F1808D919C91E81AF90A00E010E0809109
:10055000F70090E0A0E0B0E0EDB7FEB781839283B2
:10056000A383B483C401B30120E030E040E050E055
:10057000AA24BB246501D6D3E091F7002E2F30E0EA
:1005800040E050E00F900F900F900F902617370724
:10059000480759071CF46E2F70E028C0E09116013F
:1005A000F0E000D000D0EE0FFF1FDF01A959BF4FD0
:1005B000EB59FF4FE080F1808D919C91E81AF90A88
:1005C00000E010E0EDB7FEB721833283438354830C
:1005D000C401B30120E030E040E050E0AA24BB2495
:1005E0006501A0D30F900F900F900F908091F800AD
:1005F0008823A9F166307105A0F18091170120913F
:1006000019018823A1F0822F90E0861B910997FFA2
:100610000AC08091F700280F261B209319018091B2
:1006200016018F5F15C0261B209319011AC0822F57
:1006300090E0860F911D8F3F910569F064F08091E5
:10064000F700281B260F2093190180911601815075
:100650008093160106C0620F6093190102C01092C8
:1006600019018091180188BD8091190189BDFF9100
:10067000EF91DF91CF91BF91AF919F918F917F913A
:100680006F915F914F913F912F911F910F91FF902B
:10069000EF90DF90CF90BF90AF909F908F907F9022
:1006A0006F900F900FBE0F901F9018959F92AF9272
:1006B000BF92CF92DF92EF92FF920F931F938091A0
:1006C000F800882321F460E0ADD219BC03C080E0BB
:1006D00061E0A8D286B390E024E0969587952A95AC
:1006E000E1F799249394982280FD86C08091A70118
:1006F000882309F481C080911B01882379F18091BE
:100700000101E82FF0E0DF01A25EBE4F8C91409125
:100710001D01882339F44F3360F010921D0180E4ED
:100720008C930DC0242F30E090E0019728173907F3
:1007300024F44F5F40931D0102C010921D0180916F
:100740001D0106E0EE0FFF1F0A95E1F7E80FF11D0E
:10075000E05EFE4F8091160180832AC080911C01CB
:10076000882309F449C040911D0180910101A82FFF
:10077000B0E0242F30E0FD01E25EFE4F808190E08A
:1007800001972817390724F44F5F40931D0102C0D9
:1007900010921D0180911D0116E0AA0FBB1F1A9532
:1007A000E1F7A80FB11DA05EBE4F6C916F3F21F421
:1007B00080E88093180120C000D000D070E080E075
:1007C00090E0EDB7FEB7118212821382148220E00E
:1007D00030E040E050E0F9E4EF2EF12C012D112D36
:1007E000EFEFAE2EB12CC12CD12C9CD2609318010E
:1007F0000F900F900F900F9080911C01882349F467
:1008000080E88093180182E060E04BD282E060E0F3
:100810000CC080916400882319F082E060E002C07F
:1008200082E061E03ED282E061E0FCD19092A701DB
:100830008091180188BD1F910F91FF90EF90DF907C
:10084000CF90BF90AF909F9008950F931F9308EAA9
:1008500011E0C80162E870E04091F800D7D1C8010A
:1008600063E870E040910101D1D1C80164E870E013
:1008700040911C01CBD1C80165E870E04091640053
:10088000C5D11F910F910895FF920F931F93CF939E
:10089000DF93182FF62E8823F9F088EA91E061E8BB
:1008A00070E04F2DB3D1012F10E036E0000F111F83
:1008B0003A95E1F7005E1E4FC0E4D0E008C088EA38
:1008C00091E0BE01F80141918F01A0D121969E01D6
:1008D00020542F15A0F314C088EA91E060E870E07E
:1008E0004F2D94D1C0E0D0E009C0FE01E05EFE4F84
:1008F00088EA91E0BE01408189D12196CF15A8F305
:10090000DF91CF911F910F91FF9008951F920F9249
:100910000FB60F9211241F932F933F934F935F9322
:100920006F937F938F939F93AF93BF93CF93DF93F7
:10093000EF93FF9334B125B1922F80E0232F30E065
:10094000282B392B8091A3019091A4019093A601AB
:100950008093A5014091A1015091A2015093A4015F
:100960004093A3013093A2012093A101845D9340A1
:10097000D0F183E0243D3807B0F5445D534098F54D
:1009800083E02C30380710F431DC05C063E02037F9
:10099000360718F40ADC59DF26C083E02D38380703
:1009A00038F48091F80091E089278093F800F3CF24
:1009B000225C3340C0F481E080931B0180931C01D2
:1009C00010921D01A0910101B0E0FD0146E0EE0F83
:1009D000FF1F4A95E1F7E05EFE4F8091160180838C
:1009E000A25EBE4F1C928091A3019091A401845DF0
:1009F000934008F05AC08091A1019091A201845DBA
:100A0000934008F452C080911B01882309F447C029
:100A100010921B0181E080931C0110910101A12F14
:100A2000B0E0FD01E25EFE4F8081882389F55091A0
:100A30001D015083533061F15C3051F1583141F167
:100A4000652F70E0EF01E82FF0E0E750FF4F4081A5
:100A50005417D8F43197E081242F30E0261B370B50
:100A600037FF03C0309521953F4F8E2F90E0861BB6
:100A7000970B97FF03C0909581959F4F821793071F
:100A800014F4E88301C0488384E68F5F8730D8F28E
:100A9000A25EBE4F812F6C91F7DE10921D018091F6
:100AA000A001882311F01092A00187B1807787B947
:100AB00087B187B9369AFF91EF91DF91CF91BF91BE
:100AC000AF919F918F917F916F915F914F913F91E6
:100AD0002F911F910F900FBE0F901F9018950F939D
:100AE0001F93CF93DF9388EA91E061E870E087D0AD
:100AF00080931F0188EA91E060E870E080D08093E5
:100B00001E0188EA91E062E870E079D01092F80066
:100B1000882319F081E08093F80088EA91E063E887
:100B200070E06DD010920101882319F081E080936C
:100B3000010188EA91E064E870E061D010921C0144
:100B4000882319F081E080931C0188EA91E065E830
:100B500070E055D010926400882319F081E08093F2
:100B6000640000E211E0C0E0D0E088EA91E0BE015C
:100B700046D0F8018083C05CDF4F88EA91E0BE0177
:100B80003ED0005C1F4FF8018083EF970F53104059
:100B9000C034D10551F7DF91CF911F910F91089586
:100BA0009EDF85E061E07DD084E060E03BD084E0C2
:100BB00061E077D0E6DA6FEF70E080E090E0F9D0A6
:100BC0006093000180E061E02DD081E061E02AD0F7
:100BD00082E060E027D083E060E024D084E060E041
:100BE00021D084E060E05DD07BDB87B1807787B97E
:100BF00087B187B9369A8CE291E023DB0895E199B9
:100C0000FECF7FBB6EBBE09A8DB30895E199FECF16
:100C10001CBA7FBB6EBB4DBB0FB6F894E29AE19A4B
:100C20000FBE0895CF93DF93482F50E0CA01865C32
:100C30009F4FFC013491405D5F4FFA0184918823FE
:100C400069F190E0880F991FFC01E25EFF4FA591CA
:100C5000B491FC01EC5DFF4FC591D491662351F432
:100C60002FB7F8948C91932F909589238C9388813A
:100C700089230BC0623061F42FB7F8948C91932FC5
:100C8000909589238C938881832B88832FBF06C0FE
:100C90009FB7F8948C91832B8C939FBFDF91CF915A
:100CA0000895482F50E0CA018C5B9F4FFC012491AE
:100CB000CA01865C9F4FFC019491405D5F4FFA0131
:100CC0003491332309F1222359F0213019F02230D5
:100CD00039F403C08AB58F7702C08AB58F7D8ABD8B
:100CE000E32FF0E0EE0FFF1FEC5DFF4FA591B491F5
:100CF0002FB7F894662321F48C919095892302C034
:100D00008C91892B8C932FBF08950895CF93DF93F7
:100D1000E7DAFBDF45DFC0E0D0E0C8DC2097E9F38D
:100D20006FD9FBCF2F923F924F925F926F927F923B
:100D30008F929F92AF92BF92CF92DF92EF92FF92EB
:100D40000F931F93DF93CF93CDB7DEB73B014C01D9
:100D500019012A016D897E898F89988D6A197B090D
:100D60008C099D09621A730A840A950AA4019301E9
:100D700040D0E218F30804091509A801970152D0E0
:100D80002A0D3B1D4C1D5D1DB901CA01CF91DF919C
:100D90001F910F91FF90EF90DF90CF90BF90AF9099
:100DA0009F908F907F906F905F904F903F902F908B
:100DB0000895EF92FF920F931F937B018C016115B1
:100DC00071058105910529F420E030E040E050E014
:100DD00009C0A5D9A801970125D0AC01CB01DA0142
:100DE0009C01AD01B901CA011F910F91FF90EF90D5
:100DF0000895FF27EE27BB27AA2760FF04C0A20F94
:100E0000B31FE41FF51F220F331F441F551F969574
:100E100087957795679589F70097760771F7CF01E2
:100E2000BD01089597FB092E05260ED057FD04D06D
:100E300014D00AD0001C38F4509540953095219577
:100E40003F4F4F4F5F4F0895F6F7909580957095FF
:100E500061957F4F8F4F9F4F0895A1E21A2EAA1BD5
:100E6000BB1BFD010DC0AA1FBB1FEE1FFF1FA2175A
:100E7000B307E407F50720F0A21BB30BE40BF50B57
:100E8000661F771F881F991F1A9469F760957095E0
:100E9000809590959B01AC01BD01CF0108952F92E3
:100EA0003F924F925F926F927F928F929F92AF92FA
:100EB000BF92CF92DF92EF92FF920F931F93CF9347
:100EC000DF93CDB7DEB7CA1BDB0B0FB6F894DEBFDE
:100ED0000FBECDBF09942A88398848885F846E8404
:100EE0007D848C849B84AA84B984C884DF80EE804E
:100EF000FD800C811B81AA81B981CE0FD11D0FB657
:100F0000F894DEBF0FBECDBFED010895F894FFCF7A
:100F100001000000012993E78A1A83BF7BCD743F4B
:100F20006E0F683862B45C80579752F44D944973E1
:100F3000458D41E03D663A1F3707341C315A2EC0BB
:100F40002B4C29FA26CA24BA22C720F01E331D9042
:100F50001B041A8E182D17E015A6147D1365125D5B
:100F6000116310780F9A0EC80D020D470C970BF005
:100F70000A530ABF093309AE083208BC074D07E41B
:100F80000681062306CB0578052905DF0499045759
:100F9000041904DE03A603720340031203E602BC35
:100FA00002950270024D02640102040810203040D4
:00000001FF
