:020000040000FA
:200000007CC000000C9443310C946A319EC000009CC000000C946B2E98C000000C948E2EAE
:2000200094C0000092C0000090C000008EC000008CC000000C94342A88C0000086C00000A4
:200040000C94373282C000000C94BC320C94EE327CC000007AC0000078C0000076C0000023
:2000600074C0000072C000003F065B4F666D7D077F6F777C585E79713D74041E703855542F
:200080005C7367506D781C0C6A49725B004049521018080C044440602021010302400410B3
:2000A000080000000800020100000304070000000000000000010204081020408001020419
:2000C00008102001020408102004040404040404040202020202020303030303030000006B
:2000E00000250028002B0000000000240027002A0000761FD02E1C33973311241FBECFEF97
:20010000D8E0DEBFCDBF12E0A0E0B1E0E2EDF9E602C005900D92A03BB107D9F728E0A0EB61
:20012000B2E001C01D92A631B207E1F710E0CAEFD0E004C02297FE010E946434C23FD1076D
:20014000C9F70E942A300C94E7345ACFCF93DF93FC0121A130E070E017C043A154A1C90192
:200160000197DA01A80FB91FAC91EA01C20FD31FA88345A156A1DA01A80FB91FAC91EA01F8
:20018000C20FD31FA8839C016217730734F3DF91CF9108950F93FC0101A774A363A356A3F0
:2001A00045A330A727A3178E12A2108281E080A311A2128A0F9108951F93CF93DF93FC0138
:2001C00040E01EC0742F7F5F672F50E015C023A134A1D901A40FB51F1C91862F90E0280F02
:2001E000391FE9012881211730F42C93A3A1B4A1A80FB91F1C936F5F81A1681740F3472F0A
:2002000081A14817F8F2DF91CF911F9108951F93CF93DF93FC0140E01EC0742F7F5F672FBE
:2002200050E015C027A130A5D901A40FB51F1C91862F90E0280F391FE9012881211730F46B
:200240002C93A7A1B0A5A80FB91F1C936F5F82A1681740F3472F82A14817F8F2DF91CF91AF
:200260001F910895FC0160A30895FC01678F0895FC0181A10895FC0120E030E011C0A3A126
:20028000B4A1A20FB31F1C92A5A1B6A1A20FB31F1C92A7A1B0A5A20FB31F1C922F5F3F4F20
:2002A00081A590E02817390754F311A20895CF93DF93FC01C0A120E030E0DFEF4C2F50E0D7
:2002C0000CC0DC01A20FB31F5396DC93BA01621B730B768B658B2F5F3F4F32962C1788F351
:2002E000DF91CF91C8CF611123C050E017C0FC0163A174A1FB01E20FF31FE081DB01A40F36
:20030000B51FEC93FC0165A176A1FB01E20FF31FE081DB01A40FB51FEC93A9019A012F5F5B
:200320003F4FFC0161A170E04617570704F30895613011F4642F0ACF0895CF93DF93FC0121
:20034000611115C050E00BC027A130A5D901A80FB91F6C91D901A40FB51F6C93AC01CA0180
:20036000019622A130E04217530774F312C0613081F482A190E050E009C0A7A1B0A5A80F41
:20038000B91FED01219728812C93019748175907A4F3DF91CF910895DC0192964C9150E00A
:2003A00020E030E00EC0DC019796ED91FC919897E20FF31F7081761302C0822F08952F5F00
:2003C0003F4F241735077CF38FEF0895CF93DF93EC018AA1882359F0CE01DEDF8F3F39F02B
:2003E000482F60E0CE01A9DF8AA181508AA381E02AA198A1291708F480E0DF91CF91089558
:20040000DC0191964C9150E020E030E00EC0DC019396ED91FC919497E20FF31F7081761334
:2004200002C0822F08952F5F3F4F241735077CF38FEF0895CF93DF93EC01E2DFEDA1FEA1E0
:20044000E80FF11D8081DF91CF910895D9DF91E08F3F09F490E0892F089567FD11C0262FE6
:20046000269526952695FC01E20FF11D818190E0677002C0959587956A95E2F78170089598
:2004800080E00895262F269526952695FC01E20FF11D862F877041E050E060E070E004C08C
:2004A000440F551F661F771F8A95D2F78181842B81830895262F269526952695FC01E20FAC
:2004C000F11D862F877041E050E060E070E004C0440F551F661F771F8A95D2F7409581811C
:2004E0004823418308951F93CF93DF93EC01162F6DDF2AA130E008C0DF01A80FB91F4C913D
:20050000E20FF31F40839C01C9010197EFA1F8A58F3F4FEF940781F78AA199A5891710F4BD
:200520008F5F8AA31083DF91CF911F9108950F931F93CF93DF93EC01162F89A1813071F456
:2005400007C0EFA1F8A5E80FF11D10828F5F01C080E099A58917A8F31AA21A8A612FCE01C9
:20056000C2DF8F8D823009F06EC078A189A1781798F06FEF80E090E01FC0DE01A80FB91F10
:20058000EBA1FCA1E20FF31F53965C914081541301C0682F019605C080E090E06FEF272FF9
:2005A00030E0871750F3E6CFFE01E80FF91F2389211301C0682F01968717B0F36F3F01F5D3
:2005C000FE01DE0180E00CC057962D913C915897462F50E02417350708F4622F8F5F12966B
:2005E0008713F2CF80E00AC0262F30E04789508D4217530709F4682F8F5F32968713F4CF0A
:20060000671778F4862F90E0FC01EE0FFF1FEC0FFD1F2FEF30E0308F278BFE01E80FF91FEF
:20062000138B20E00CC0822F90E0FE01E80FF91F3389EFA1F8A5E80FF91F30832F5F88A1BF
:20064000281788F3DDC0CE01B7DDCE01E0DD28A1FE01DE0180E005C056961C921E92559752
:200660008F5F12968213F8CF8F8D813009F070C039A131111AC04AA1421770F4C1C0BA01B8
:20068000681B790BEFA1F8A5E60FF71F3081FE01E80FF91F328B03C080E090E050E0019645
:2006A000382F3150321758F3ABC03217A0F440E08FEF90E020C08A01081B190BABA1BCA10D
:2006C000A00FB11F3C91DE01A80FB91F52963C93768B658B06C080E090E0432F50E06FEF22
:2006E00070E001963296382F3150321720F388C0968B858B4F5F32964313FACF80E090E029
:20070000432F50E00CC0BA01681B790BEBA1FCA1E60FF71F6081FE01E80FF91F628B019602
:20072000682F6150631778F3432F50E08AA190E0841B950BEFA1F8A5E80FF91F319780810B
:20074000FE01E40FF51F838B3F5F3213EDCF58C0811156C039A1311114C08AA1821760F41E
:200760004FC0EFA1F8A5E80FF91F3081FE01E80FF91F338B019602C080E090E0821788F374
:200780003FC0321790F440E08FEF90E019C0ABA1BCA1A80FB91F3C91DE01A80FB91F53964A
:2007A0003C93568B458B019604C080E090E04FEF50E03296821758F323C0968B858B4F5FB2
:2007C00032964313FACF80E090E00AC0EBA1FCA1E80FF91F4081FE01E80FF91F438B01962C
:2007E0008317A0F3832F90E0EFA1F8A5E80FF91F4081FE01E80FF91F438B3F5F3213F2CF2D
:20080000DF91CF911F910F910895FC0150A1252F30E040E00CC08789908D2817390728F019
:20082000009719F00197908F878B4F5F32964513F2CF0895CF93DF93EC018F8D813049F05C
:2008400068F0823009F08DC028A180E090E03FEF6DC078A180E090E02FEF0DC028A180E057
:2008600090E03FEF39C0FE01E80FF91F3389361301C0282F01968717B0F3271710F089A176
:2008800020C069A180E090E0262F30E00CC0A901481B590BEBA1FCA1E40FF51F4081FE010C
:2008A000E80FF91F428B0196482F4150461778F3E6CFFE01E80FF11DE80FF11D108E178AF8
:2008C0008F5F8717B0F34DC0FE01E80FF91F4389461301C0382F01968217B0F3321710F065
:2008E00089A119C039A180E090E00AC0EBA1FCA1E80FF91F4081FE01E80FF91F438B019615
:200900008317A0F3EDCFFE01E80FF11DE80FF11D108E178A8F5F8217B0F323C0FE01E80FA3
:20092000F91F4389461301C0382F01968217B0F33217B8F489A1821758F0EBA1FCA1E20F65
:20094000F11D31978081FE01E30FF11D838B09C0FE01E30FF11DE30FF11D278B108ECE01CC
:2009600054DF89A1811101C01882DF91CF9108951F93CF93DF93EC01162F89A1882359F0EA
:20098000CE013EDD8F3F39F0482F60E0CE01ABDC89A1815089A3612FCE014CDF81E029A18D
:2009A00098A1291708F480E0DF91CF911F910895EF92FF921F93CF93DF931F92CDB7DEB7E3
:2009C0007C01162F4983D4DF612FC70173DD60E0C701BCDBD70191968C91919799969C91EF
:2009E00099974981891718F48F5F91968C93D7019396ED91FC91949710839596ED91FC911D
:200A000096974083612FC7010F90DF91CF911F91FF90EF908CCDFC012189211133CDA8CFB8
:200A2000EF92FF920F931F93CF93DF93EC01F9A019C00F2D10E001501109EBA1FCA1E00F6E
:200A4000F11FE0806E2DCE0108DD882351F06E2DCE018EDFEBA1FCA1E00FF11F6081CE013C
:200A600029DDFA94F110E5CFDF91CF911F910F91FF90EF900895CF93DF93EC01662319F00F
:200A800081E0898B02C0CCDF198ADF91CF910895FC01E60FF11DE60FF11D81E02789308D93
:200AA0002F3F310509F080E00895FC0122A130A1862F90E050E0840F951F231758F4632F57
:200AC00070E0615071090E9408348E0F9F1FFC0183890895622F70E0615071090E940834D2
:200AE00007A0F0A5E02DE80FF91F80810895860F911DFC018389089508958091750391E080
:200B00008927809375030895089508950895089508950C94CB340C94D3340F930EE121EE06
:200B200034E04FEF54E06DE175E08FEC93E032DB0AE027E834E045EA54E063EC74E08DEF02
:200B400093E028DB21E934E04FEA54E06DEC74E08BE294E01FDB2BE934E049EB54E067ED28
:200B600074E089E594E016DB82E797E090937403809373031092BE021092BD021092C00224
:200B80001092BF021092C2021092C1021092C4021092C3021092C6021092C5021092C80219
:200BA0001092C7021092CA021092C9021092CC021092CB021092CE021092CD021092D002B9
:200BC0001092CF021092D2021092D1021092D4021092D3021092D6021092D5021092D80259
:200BE0001092D7021092DA021092D9021092DC021092DB021092DE021092DD021092E002F9
:200C00001092DF021092E2021092E1020F910895DC01ED91FC910190F081E02D0994DC0198
:200C2000ED91FC910190F081E02D0994FF920F931F93CF93DF93F82E8CE0F89E8001112466
:200C4000C0E0D0E004541D4FC8018C0F9D1F61DF482F6C2F8BE395E00E943D242196CC3075
:200C6000D10591F76F2D8BEB92E0DF91CF911F910F91FF9050CF0F931F93CF93DF93082F65
:200C80008CE0089FE0011124C454DD4F10E0612F8BE395E00E944324682FCE013CDF1F5F7C
:200CA00021961C30A1F7602F8BEB92E0DF91CF911F910F9130CFAF92BF92CF92DF92EF921E
:200CC000FF920F931F93CF93DF938BE3C82E85E0D82E98E5E92E92E0F92E20C05601A00E7A
:200CE000B11E81EDA80EB11CF5016081CE0113DFF5016181CE0101960EDF0E5F1F4F2296DE
:200D00000831110559F7F8E1EF0EF11C88E1C80ED11CE8EBEE16E2E0FE0621F0E70100E0AF
:200D200010E0DCCFDF91CF911F910F91FF90EF90DF90CF90BF90AF900895AF92BF92CF92FE
:200D4000DF92EF92FF920F931F93CF93DF931F92CDB7DEB738E5A32E32E0B32E22C0C80192
:200D6000D8DE682FC80101966983D3DE69810E94A530F601EE0DFF1DEF52FF4F9183808314
:200D80000E5F1F4F82E0E80EF11CE8E1EE16F10431F7F8E1AF0EB11C88EBA81682E0B80675
:200DA00051F08501E12CF12C23EEC22E22E0D22ECA0CDB1CD4CF0F90DF91CF911F910F9110
:200DC000FF90EF90DF90CF90BF90AF900895DF92EF92FF920F931F93CF93DF9348E5E42E22
:200DE00042E0F42E17C06881D9802296C80193DE6D2DC80101968FDE0E5F1F4F81E0C23609
:200E0000D80789F788E1E80EF11C88EBE81682E0F80621F0CAE4D1E08701E5CFDF91CF91BA
:200E20001F910F91FF90EF90DF9087CF6F927F928F929F92AF92BF92CF92DF92EF92FF92B5
:200E40000F931F93CF93DF93C091910382E3C89FE00111247E015CE9852E53E0952E64EAE8
:200E6000A62E63E0B62E7CEAC72E73E0D72E8401E0E47E2E602E6818C7014BDEF601803128
:200E800010F4808301C06082C701089642DEF50187FD02C0808301C07082C701409639DE7B
:200EA000F80187FD02C0808301C07082FFEFEF1AFF0A0F5F1F4F73948FEFA81AB80AEFEF7A
:200EC000CE1ADE0AF8E47F12D5CFCE01489621DE823118F48093930302C010929303CE0154
:200EE000499617DE863018F48093C90302C01092C903CE014A960DDE833008F401C082E0E1
:200F000080939203CE014B9604DE803108F401C08CE08093C3038BEB92E0FBDD843118F463
:200F20008093860302C010928603809186037EDEDF91CF911F910F91FF90EF90DF90CF9036
:200F4000BF90AF909F908F907F906F90F6CECF92DF92EF92FF920F931F93CF93DF93FCEAF1
:200F6000CF2EF3E0DF2EA4EAEA2EA3E0FA2E0CE913E0C0E0D0E0F60161916F01809191030D
:200F80009E0142E3849F200D311D1124C901C3DDF70161917F01809191039E0142E3849F5A
:200FA000200D311D1124C9010896B5DDF80161918F01809191039E0142E3849F200D311D05
:200FC0001124C9014096A7DD2196C830D10599F680919103E2E38E9FC00111246091930390
:200FE000489699DD80919103F2E38F9FC00111246091C90349968FDD8091910322E3829F2C
:20100000C0011124609192034A9685DD8091910332E3839FC00111246091C3034B967BDD50
:201020006091910387EE93E0DF91CF911F910F91FF90EF90DF90CF906ECDFF920F931F9327
:20104000CF93DF9388EE93E064DD893659F489EE93E05FDD893531F48AEE93E05ADD863D98
:2010600009F44EC010E002E010939103CCEAD3E0A4EAB3E0ECE9F3E080E08993982F905CFB
:201080009D9391938F5F8830C1F7109293031092C903009392035BDF1F5F1A3029F710920C
:2010A0009103C4DE69E688EE93E035DD69E589EE93E031DD66ED8AEE93E02DDD02E611E049
:2010C000F12C15C0F801EC0FFD1F40816C2F8BE395E00E943D242196CC30D10599F78F2DF7
:2010E000CADDF394045F1F4F85E0F81619F0C0E0D0E0E8CFDF91CF911F910F91FF9067CE8A
:2011000087EE93E006DD80939103DF91CF911F910F91FF908BCE0F931F93CF9380919303F8
:2011200080FF04C081E08093900302C0109290036091B7037091B8038091B9039091BA035C
:20114000E091C903F0E0E256FE4FC08120917C03222391F02C2F30E040E050E00E941B341A
:201160002C2F2695022F10E020E030E0C1E0601771078207930708F0C0E08091900388238E
:2011800031F04C2F63E08BE395E00E9433216C2F8BE395E0CF911F910F910C940D21BBCF11
:2011A0001092B7031092B8031092B9031092BA0364E08BE395E00E94582180919003882328
:2011C00029F065E08BE395E00E94582110927C03A2CF1092B7031092B8031092B903109268
:2011E000BA0364E08BE395E00E94582180919003882329F065E08BE395E00E94582181E0E4
:2012000080937C0388CF8091B7039091B803A091B903B091BA030196A11DB11D8093B70363
:201220009093B803A093B903B093BA0374CF8F929F92AF92BF92EF92FF920F931F93CF93F2
:20124000DF93082FB62E862F6CE00E94E8338CE0089FA0011124465F5E4F20E030E080E098
:2012600010E0FA01E20FF31F6081611181E02F5F3F4F2C303105A9F74CE0409F9001419F02
:20128000300D1124F901E90FF11DE65FFE4F9081911140C08823F1F140E0CB2DD0E0ECE076
:2012A000F0E001C04F5FCE01840F911DBF010E940834820F931F865F9E4FDC018C91882387
:2012C00089F38B2D845FA12C882E912CECE0F0E08CE0809F7001819FF00C112401C0A394D6
:2012E0002A2D30E0C401821B930BBF010E9408348E0D9F1D865F9E4FDC018C91882379F3AF
:20130000A41638F4C21BD30B1C161D0614F4BA1801C0B40E8B2DDF91CF911F910F91FF9013
:20132000EF90BF90AF909F908F900895DF92EF92FF920F931F93CF93DF938091B503882396
:20134000B1F0C0E04091B6036C2F8BE395E00E94F2276C2F8FEC93E09BDB482F6C2F8BE30A
:2013600095E00E943321CF5FC43061F722C38091930380FF04C091E09093900302C010922E
:2013800090038695843009F423C158F4813009F45EC098F0823009F494C0833009F009C3EF
:2013A000C1C0863009F4B8C108F451C1873009F440C2883009F0FDC288C28091E10310E01D
:2013C000C4E0D0E08823B1F037C0612F8FEC93E08EDB482F612F8BE395E00E94F227612F5A
:2013E0008FEC93E055DB482F612F8BE395E00E9433211F5F212F30E080919003AE01481B5B
:201400005109241735070CF3D4C24091E103612F8FEC93E04ADB482F612F8BE395E00E9482
:20142000F227612F8FEC93E033DB482F612F8BE395E00E9433211F5F212F30E080919003A5
:20144000AE01481B510924173507FCF2B2C260E08FEC93E04CDB482F60E08BE395E00E94B6
:20146000F22760E08FEC93E013DB482F60E08BE395E00E94332110E0C3E0D0E017C0612FFD
:201480008DEF93E034DB012F0F5F482F602F8BE395E00E94F227612F8DEF93E0F9DA482F43
:2014A000602F8BE395E00E943321102F212F30E080919003AE01481B510924173507FCF2B0
:2014C00078C260E08FEC93E012DB482F60E08BE395E00E94F22760E08FEC93E0D9DA482F0A
:2014E00060E08BE395E00E94332160E08FEC93E0CFDA41E0482763E08BE395E00E94332150
:2015000060E08FEC93E0F3DA682F8FEC93E00E941A02882309F44DC290E2899FA001112466
:2015200061E051C060E08FEC93E0E1DA482F60E08BE395E00E94F22760E08FEC93E0A8DA6B
:20154000482F60E08BE395E00E94332160E08FEC93E0CDDA682F8FEC93E00E941A02882338
:2015600049F020E2829FA001112461E08BE395E00E94302260E08DEF93E0B9DA482F62E0A6
:201580008BE395E00E94F22760E08DEF93E080DA482F62E08BE395E00E94332180919003EE
:2015A000811107C260E08DEF93E0A1DA682F8DEF93E00E941A02882309F4FBC130E2839F4A
:2015C000A001112463E08BE395E00E943022F1C160E08FEC93E08BDA482F60E08BE395E03C
:2015E0000E94F22760E08FEC93E052DA482F60E08BE395E00E94332160E08DEF93E077DAC6
:20160000482F61E08BE395E00E94F22760E08DEF93E03EDA482F61E08BE395E00E9433219C
:2016200060E08BE294E063DA482F62E08BE395E00E94F22760E08BE294E02ADA482F62E017
:201640008BE395E00E943321809190039CC16091A4038FEC93E00E942602482F60E08BE33B
:2016600095E00E9433216091A5038FEC93E00E942602482F61E08BE395E00E94332160912C
:20168000A6038FEC93E00E942602482F62E08BE395E00E9433216091A8038FEC93E00E942B
:2016A0002602482F60E08BE395E00E9438226091A9038FEC93E00E942602482F61E08BE3F1
:2016C00095E00E9438226091AA038FEC93E00E942602482F62E08BE395E00E94382280919A
:2016E0009003811166C16091A7038FEC93E00E942602482F63E08BE395E00E9433216091C7
:20170000AB038FEC93E00E942602482F63E08BE395E00E9438224DC16091A4038FEC93E036
:201720000E942602482F60E08BE395E00E9433216091A5038FEC93E00E942602482F61E046
:201740008BE395E00E9433216091A6038FEC93E00E942602482F62E08BE395E00E943321CC
:201760006091A4038FEC93E00E941A02882349F090E2899FA001112460E08BE395E00E940C
:2017800030226091A5038FEC93E00E941A02882349F020E2829FA001112461E08BE395E0B1
:2017A0000E9430226091A6038FEC93E00E941A02882349F030E2839FA001112462E08BE351
:2017C00095E00E943022809190038111F2C06091A7038FEC93E00E942602482F63E08BE33D
:2017E00095E00E9433216091A7038FEC93E00E941A02882309F4DDC090E2899FA001112482
:20180000E1CECC56DC4F41E08881803408F440E06F2D8BE395E00E9433214C8120E2429FAD
:20182000A00111246F2D8BE395E00E943022F39403C0F12C04E010E0CF2DD0E080919003D4
:20184000A801481B5109C417D507DCF2B2C0FE01EC55FE4FD0806D2D8BE395E00E94992373
:20186000FE01EA58FC4F9081981721F0DE01A358BC4FEC9280836D2D8BE395E00E949923CA
:20188000682F8F2DD4DCFE01EF57FC4F9081891731F080836F2D8BE395E00E9458218BE3D8
:2018A00095E00E94AD2180937E03FE01E358FC4F8081882341F0CF57DC4F48816F2D8BE329
:2018C00095E00E94F227F39405C0F12C04E010E0EE24E394CF2DD0E0809190039801281BE6
:2018E0003109C217D3070CF4B2CF80917D03811114C060E08FEC93E0FAD8482F60E08BE35E
:2019000095E00E94F22760E08FEC93E0C1D8482F60E08BE395E00E94332180917E0381111C
:2019200014C060E08DEF93E0E2D8482F61E08BE395E00E94F22760E08DEF93E0A9D8482F6D
:2019400061E08BE395E00E94332180917F03811114C060E08BE294E0CAD8482F62E08BE38A
:2019600095E00E94F22760E08BE294E091D8482F62E08BE395E00E943321809190038111E5
:2019800018C080918003811114C060E089E594E0AED8482F63E08BE395E00E94F22760E035
:2019A00089E594E075D8482F63E08BE395E00E943321DF91CF911F910F91FF90EF90DF90C8
:2019C000AACBCF92DF92EF92FF920F931F93CF93DF93F82EE62ED42E80E4681739F080912D
:2019E00093038E50823008F062C035C0C42FD0E046E0D595C7954A95E1F701E0209709F4D7
:201A000000E010E03EE2C32E1CC0212F30E0F901E455FC4F8081F81611F0811111C0C29E58
:201A2000C001C39E900D1124602F81539C4F23D88BE395E00E94AD21811102C02097A9F171
:201A40001F5FE0919303E695F0E0E855FE4F80811817D8F2C4CF80918B03882359F020915B
:201A60008F0330E0F901E456FC4FE082F901E455FC4FF0820CEA13E0C0E0D0E0F8018191AF
:201A80008F018F1511F081110BC0FE01E456FC4F80818E1105C0FE01EC56FC4FD08246DCCB
:201AA0002196C830D10551F702C040DCC9CFDF91CF911F910F91FF90EF90DF90CF9008954A
:201AC0000F931F93CF93DF93D82F162F60E08BE395E00E940221C0E00EE21FC02C2F30E0D0
:201AE000F901E455FC4F9081D91711F0911114C0029FC001039F900D1124612F81539C4FCB
:201B00000E940B05909193039450923028F462E08BE395E00E945821CF5FE0919303E695AA
:201B2000F0E0E855FE4F8081C817C0F28BE395E00E94AD21811105C0DF91CF911F910F91EF
:201B4000F5CBDF91CF911F910F9108951F93CF93DF93EB0110E0AE01612F8BE395E00E94E2
:201B6000A6201F5F1430B9F78BE395E00E94AD21811104C0DF91CF911F91D8CBDF91CF9191
:201B80001F91089590919303292F2450223010F461E006C09650923038F4682F660F6F5F6A
:201BA0008BE395E00C94582108957F928F929F92AF92BF92CF92DF92EF92FF920F931F935F
:201BC000CF93DF93982E862ED42E6093B60380918B03811172C0862F6CE00E94E833E92ED1
:201BE000F12C712C5EE2C52E6CE0B62EAA24A39441C0072D10E0F801E455FC4F8081981672
:201C000011F0811136C0C09EE001C19ED00D1124C153DC4FCE010E9438018823B1F0B09E08
:201C2000F001B19EF00D1124EE0DFF1DE65FFE4FA0824D2D682DCE010E94D80460E0CE01FC
:201C40000E947705881115C012C08CE0789EF0011124E65FFE4F20E030E0DF01A20FB31F79
:201C60001C922F5F3F4F2C303105B9F7D8CF872D89DF7394E0919303E695F0E0E855FE4FB2
:201C80008081781608F4B5CF61E08BE395E00E9402218BE395E00E94AD2181113FC0DF91F8
:201CA000CF911F910F91FF90EF90DF90CF90BF90AF909F908F907F9039CB809193038A3048
:201CC00038F4E0918F03F0E0E455FC4F908226C08E3018F480918F0318C080518230F0F4DD
:201CE00080918F03843089F49092AC036093A4039092AD036093A5039092AE036093A603C9
:201D00009092AF036093A70309C090E0FC01E455FC4F9082FC01EC55FC4F8082DF91CF912B
:201D20001F910F91FF90EF90DF90CF90BF90AF909F908F907F900895EF92FF920F931F9389
:201D4000CF93DF9310925D0710925C0710925F0710925E0710926107109260071092630776
:201D60001092620760E070E08BE395E00E944022F12C7EE2E72E21C00F2D10E0E09EE001E3
:201D8000E19ED00D1124C153DC4FCE010E945701809193038695F80194E0899FE00DF11D58
:201DA0001124EF54FE4F6081CE010E94320160919203CE010E943501F394E0919303E695A3
:201DC000F0E0E855FE4F8081F816B0F2AFDA10928F03809193038051823018F484E080938E
:201DE0008F03DF91CF911F910F91FF90EF900895809178058823A1F08BE395E00E94012016
:201E00008BE395E00E9486258BE395E00E9484228BE395E00E945F268BE395E00C9453295E
:201E20000895CF93DF93CCE0D0E0E2DF2197E9F762E08BE395E00E941F26882309F45EC0AA
:201E400063E08BE395E00E941F26882309F456C0C4E0D0E069E68BE395E00E948420C8DF44
:201E60002FEF87E893E1215080409040E1F700C0000060E28BE395E00E948420B9DF2FEFA7
:201E800081EE94E0215080409040E1F700C00000219701F762E08BE395E00E941F2688235F
:201EA00069F163E08BE395E00E941F26882331F18BE395E00E94B0296FE68BE395E00E94B6
:201EC000842096DF2FEF87E893E1215080409040E1F700C000006BE68BE395E00E948420D5
:201EE00087DF2FEF87E893E1215080409040E1F700C00000DF91CF910C945B06DF91CF9141
:201F00000895DF92EF92FF920F931F93CF93DF93FBE3EF2EF5E0FF2ED12C60E02FC0F80157
:201F2000308121810E5F1F4F832F922FF701EC0FFD1FEF5CFE4F20813181AC01421B530B9E
:201F40001416150624F44333510534F40CC0281B390B233331053CF041E06D2D8BE395E087
:201F60000E94832161E02296C031D105C1F6D394FEE1EF0EF11C84E0D81629F005ED11E006
:201F8000C0E0D0E0CCCF662339F065E68BE395E00E9484202DDFF9CFDF91CF911F910F913C
:201FA000FF90EF90DF9008950F931F93CF93DF9326E042E15AE760E070E08091730390913D
:201FC00074030E94C92F1092E6021092E5021092E4021092ED021092EC021092EB02109203
:201FE000EA02109272031092EF021092EE021092F0021092F1028091E302817082608160E6
:202000008093E30285ED9DE09093C0028093BF0280E69DE09093BE028093BD0281EE9CE09D
:202020009093C4028093C30286EA9DE09093CA028093C90284E895E09093C2028093C10287
:2020400085E895E09093C8028093C70286E895E09093C6028093C50283E099E09093D60256
:202060008093D50289EE98E09093D8028093D70280ED98E09093DC028093DB028FEC98E0D5
:202080009093DA028093D90287E895E09093D4028093D30288E895E09093CC028093CB02D8
:2020A0004DE755E06CE775E08BE395E00E94302587E08093C905C0E06C2F8BE395E00E942D
:2020C0000227CF5FC430C1F71CDFABDE0E941D08C4E68EDE8FE99FE00197F1F700C0000065
:2020E000C150B9F7C4EAD1E006E713E069918BE395E00E949923F80181938F01F1E0C83A35
:20210000DF07A1F7DF91CF911F910F9115CE0F931F938091BA029091BB0201969093BB02C8
:202120008093BA02A0E0B0E04091BD035091BE036091BF037091C0038C019D01041B150BAC
:20214000260B370B0530110521053105A8F08093BD039093BE03A093BF03B093C00380910A
:20216000C1038F5F8093C103811106C08091BC0391E089278093BC038BE395E00E944B29C2
:202180000091CA031091CB032091CC033091CD03601B710B820B930B653171058105910517
:2021A00058F18BE395E00E944B296093CA037093CB038093CC039093CD038BE395E00E94F2
:2021C0004B296093C5037093C6038093C7039093C8038091CE0391E089278093CE03809141
:2021E000BB038F5F8093BB036FEF70E080E090E00E9436306093B4038BE395E00E944B2939
:202200000091C5031091C6032091C7033091C803601B710B820B930B6230710581059105AE
:2022200020F481E08093C40302C01092C4038BE395E00E944B290091C5031091C6032091B7
:20224000C7033091C803601B710B820B930B683071058105910520F481E08093BC0202C0D4
:202260001092BC028091B503882309F444C0809185038823D1F08091B6031CE0612F0E948C
:20228000E833E92FF0E0ED50FE4F60818BE395E00E9484208091B603612F0E94E833E92F78
:2022A000F0E0E150FE4F608121C08091C403882311F060E211C08091CE03882361F0809188
:2022C00086036AE00E94E833692F70E08BE395E00E949D2005C069E78BE395E00E94842006
:2022E00061E0809186038A3008F460E08BE395E00E94022134C380918D03882309F4FEC067
:2023000080918E038230C1F130F4882359F0813009F0B8C01CC0833009F442C0843009F042
:20232000B1C07BC08091C403882311F060E2A6C061E08BE395E00E941F26882331F0E0917D
:20234000C903F0E0E55FFD4F27C064E697C08091C4038111EBCF61E08BE395E00E941F269A
:20236000882341F06091910370E08BE395E00E949D2088C062E682C08091C4038111D6CF89
:2023800061E08BE395E00E941F26882339F0E0919203F0E0EF5EFD4F608170C060E76EC069
:2023A0008091C403882311F060E233C061E08BE395E00E941F26882359F1E091C303E370DA
:2023C000F0E0EC5EFD4F60818BE395E00E94842010E040E0612F8BE395E00E9483211F5F46
:2023E0001430B9F710E007C041E0612F8BE395E00E9483211F5F8091C30390E0959587954D
:2024000095958795212F30E0821793076CF705C064E78BE395E00E9484208091C4038111DD
:2024200085CF61E08BE395E00E941F26882329F161E38BE395E00E94842010E040E0612F6B
:202440008BE395E00E9483211F5F1430B9F710E007C041E0612F8BE395E00E9483211F5FD2
:202460008091C30390E09595879595958795212F30E0821793076CF705C066E68BE395E09F
:202480000E94842010E040E0612F8BE395E00E9483211F5F1430B9F78091C403882359F0EF
:2024A00010E041E0612F8BE395E00E9483211F5F1430B9F754C280918E03833009F04FC26B
:2024C00061E08BE395E00E941F26811109C047C241E0612F8BE395E00E9483211F5F01C074
:2024E00010E08091C30390E09595879595958795212F30E0821793075CF731C280918C03A0
:20250000882309F4CAC08091CE03882341F0E0919303E695F0E0E65EFD4F608101C060E205
:202520008BE395E00E9484206091930361708BE395E00E94022110E040E0612F8BE395E0EF
:202540000E9483211F5F1430B9F7109193031695143009F44CC048F41130F1F090F0123074
:2025600089F1133009F089C035C0163009F44AC008F442C0173009F45AC0183009F07DC040
:202580006BC010E041E0612F8BE395E00E9483211F5F1430B9F771C041E061E08BE395E05E
:2025A0000E94832141E062E08BE395E00E94832141E063E08BE395E00E9483214091CE031A
:2025C000412702C04091CE0360E08BE395E00E94832153C04091CE0360E08BE395E00E944C
:2025E00083214091CE0381E0482762E0EECF6091BB03637041E0E9CF6091BB036370409118
:20260000C403E3CF10E081E02091C2039091B403921708F080E04091C4034823612F8BE3A0
:2026200095E00E9483211F5F143069F726C010E081E02091C2039091C103921708F080E02A
:202640004091BC034827612F8BE395E00E9483211F5F143069F711C010E041E09091C203D8
:202660008091B403891708F040E0612F8BE395E00E9483211F5F143081F78091930380FFC1
:202680006EC18091C1038F7341E009F040E063E08BE395E00E94832162C180918B03882321
:2026A00009F401C18091C403882311F060E22FC0809193038A3008F460C160E08BE395E005
:2026C0000E941F26811159C150C1E0918F033AC09111ECCFE0918F033BC08091BB0363E0EC
:2026E0000E94E833E0918F03F0E0E456FC4F913039F4608170E08BE395E00E949D2061C043
:202700008081911101C056C0843680F261E38BE395E00E94842055C080518230D8F561E000
:202720008BE395E00E941F268823B1F0E0918F03E43009F4E0E08091BB0363E00E94E833E0
:20274000913021F4F0E0E455FC4FD3CF9111AECFF0E0E455FC4F2DC08091B6031CE0612FF7
:202760000E94E833E92FF0E0ED50FE4F60818BE395E00E9484208091B603612F0E94E83309
:20278000E92FF0E0E150FE4F60818BE395E00E94022117C08091BB0363E00E94E833E09133
:2027A0008F03F0E0EC55FC4F913009F4A2CF911106C080816AE00E94E833682F9BCF80818A
:2027C000A3CF90918F03943008F4E0C08091930380518230D0F004E010E0602F6450809162
:2027E0008F0390E00817190729F041E08091C203873E08F440E08BE395E00E9483210F5F10
:202800001F4F0830110549F7AAC0943009F0BEC061E08BE395E00E941F26882309F4B6C0EE
:2028200010E041E0612F8BE395E00E9483211F5F1430B9F794C061E08BE395E00E941F26FD
:20284000882311F010E021C060E08BE395E00E941F268111F7CF10E00CE08091B603602F64
:202860000E94E833E0918F030E9FF0011124E90FF11DE65FFE4F4081612F8BE395E00E9457
:2028800083211F5F143049F76AC041E080918F03181340E0612F8BE395E00E9483211F5F22
:2028A000143099F75CC0E0919303E695F0E0E65EFD4F60818BE395E00E94842060919303B5
:2028C00061708BE395E00E94022180919303869510E08530B1F581E02091C2039091C103B6
:2028E000921708F080E04091BC034827612F8BE395E00E9483211F5F143069F710E0612F7D
:202900008BE395E00E942721811109C0612F8BE395E00E941821882321F08FEF03C080E0E4
:2029200001C086EE41E09091C203891708F040E0612F8BE395E00E9483211F5F1430F9F639
:202940000EC0612F8BE395E00E942721482F612F8BE395E00E9483211F5F143091F78091C1
:20296000C203885F8093C20318C080919303982F9E50923008F0D0CEB0CE8091BB0363E0B7
:202980000E94E833913009F0A3CE9FCE809193038051823008F056CF4ECF1F910F91089591
:2029A0000F931F93CF938091B503882309F4CBC080918503882309F47AC08091B70281118E
:2029C00007C061E08BE395E00E944626811130C461E08BE395E00E941F2662E0882331F15E
:2029E0008BE395E00E942B26882369F081E08093B7028091B6038F3720F48F5F8093B60372
:202A000002C01092B60363E08BE395E00E942B26882309F460C381E08093B7028091B603BE
:202A2000882311F0815045C48FE743C48BE395E00E942B268823C9F08091B6031CE0612F03
:202A40000E94E833692F8BE395E00E944324482F4E5F8091B603612F0E94E833692F8BE3F4
:202A600095E00E943D240E94960963E08BE395E00E942B26882309F42EC38091B6031CE025
:202A8000612F0E94E833692F8BE395E00E944324482F42508091B603612F0E94E833692FAD
:202AA0008BE395E00E943D240E94960914C361E08BE395E00E941F26882339F060E08BE38B
:202AC00095E00E942B268111BAC38091B702811107C061E08BE395E00E9446268111B5C320
:202AE00062E08BE395E00E942B26882391F0809186030E943B06809186038F5F843118F4CC
:202B00008093860302C010928603809186030E94160663E08BE395E00E942B26882309F413
:202B2000DAC2809186030E943B0680918603811102C083E101C08150809386038091860362
:202B40000E941606C8C280918D03882309F405C161E08BE395E00E944626882329F0809117
:202B6000B702882309F47BC361E08BE395E00E941F26882309F4CFC010918E03113099F177
:202B800038F0123009F460C0133009F0A4C299C063E08BE395E00E942B26882399F0809155
:202BA000C903811104C085E08093C90306C0815066E00E94E8339093C9030E94A70781E075
:202BC0008093B70262E08BE395E00E942B26882309F481C28091C9038F5F66E00E94E83358
:202BE0009093C90392C063E08BE395E00E942B268823A9F00E94A70780919103811104C0EC
:202C000089E08093910308C081506AE00E94E833909391030E94160781E08093B70262E01F
:202C20008BE395E00E942B26882309F454C20E94A707809191038F5F6AE00E94E8339093F3
:202C400091030E94160763C063E08BE395E00E942B26882329F180919203811103C0109382
:202C6000920306C0815063E00E94E8339093920300E010E0CEE2C09FC001C19F900D11249E
:202C80006091920381539C4F0E9435010F5F1F4F0430110581F70E94A70781E08093B702FC
:202CA00062E08BE395E00E942B26882309F413C2809192038F5F63E00E94E8339093920333
:202CC00024C063E08BE395E00E942B26882379F08091C303811102C08FE002C081508F70B7
:202CE0008093C3030E94A70781E08093B70262E08BE395E00E942B26882309F4ECC1809100
:202D0000C3038F5F8F708093C3030E94A70781E08093B702E0C162E08BE395E00E942B26F1
:202D2000882321F080918E038F5F11C063E08BE395E00E942B26882309F4CDC180918E0385
:202D4000811104C084E080938E03C5C1815065E00E94E83390938E03BEC180918C0388233E
:202D6000F1F161E08BE395E00E942B26882321F00E94A70710928C0362E08BE395E00E9456
:202D80002B26882381F080919303811104C081E18093930306C0815062E10E94E833909304
:202DA00093030E949C0E63E08BE395E00E942B26882351F0809193038F5F62E10E94E83397
:202DC000909393030E949C0E8091930380FF04C081E0809390037FC1109290037CC180913A
:202DE0008B03882309F47AC180919303805161E0823008F0D0C08BE395E00E9446268823D3
:202E000029F08091B702882309F42CC261E08BE395E00E941F26882309F498C060E08BE380
:202E200095E00E941F268823E9F162E08BE395E00E942B268823E1F081E08093B7028091DF
:202E40008F03E0919303811109C0E695F0E0ED5DFD4F8081815080938F030AC08150E69510
:202E6000F0E0ED5DFD4F60810E94E83390938F0363E08BE395E00E942B26882309F466C0B2
:202E800080918F038F5FE0919303E695F0E0ED5DFD4F60810E94E83390938F0381E08093F2
:202EA000B70254C080918F0362E0843051F58BE395E00E942B26811108C063E08BE395E010
:202EC0000E942B2681110FC041C081E08093B702ECEAF3E080818F5F8F70819383E0E03B47
:202EE000F807C1F7EACF81E08093B702ECEAF3E0808181508F70819383E0E03BF807C1F772
:202F000025C08BE395E00E942B26882361F081E08093B702E0918F03F0E0E455FC4F808175
:202F20008F5F8F70808363E08BE395E00E942B26882361F081E08093B702E0918F03F0E08C
:202F4000E455FC4F808181508F70808360E08BE395E00E944626882329F08091B7028823AF
:202F600009F488C162E08BE395E00E942B26882329F08091B702882309F490C163E08BE3BB
:202F800095E00E942B26882309F4A5C08091B7028111A1C08AC18BE395E00E944626882318
:202FA00029F08091B702882309F486C161E08BE395E00E941F2662E0882309F462C08BE3BA
:202FC00095E00E942B26882331F081E08093B70201E010E002C000E010E063E08BE395E007
:202FE0000E942B26882329F081E08093B7020FEF1FEF60E08BE395E00E941F268823C9F073
:203000000115110509F467C0809193038A3008F407C08E3008F404C08E50823008F05BC01B
:20302000E0918F03F0E0E455FC4F8081800F8F7026C00115110509F44EC0809193038A302C
:2030400058F4E0918F03F0E0E455FC4F8081800F8131A8F080E113C08E3030F4E0918F03DA
:20306000F0E0EC55FC4F08C08E508230A0F5E0918F03F0E0E456FC4F8081800F8F77808316
:203080002AC08BE395E00E942B268823C1F08091B702811114C017C1E695F0E0ED5DFD4F2B
:2030A0008081815080938F030AC08150E695F0E0ED5DFD4F60810E94E83390938F0363E087
:2030C0008BE395E00E942B26882329F08091B702882309F400C110E001E09AC061E08BE349
:2030E00095E00E941F26882339F060E08BE395E00E942B268111FEC062E08BE395E00E9473
:203100002B26811108C061E08BE395E00E942B268823E1F008C061E08BE395E00E941F269E
:203120008111EEC0F0CF62E08BE395E00E941F268111E6C00BC084E080938F0360E08BE3CA
:2031400095E00E94022181E08093B70263E08BE395E00E942B26811108C061E08BE395E071
:203160000E942B26882381F008C061E08BE395E00E941F268111D0C0F0CF63E08BE395E066
:203180000E941F268111C8C061E08BE395E00E944626882309F49FCF8BE395E00E944B29ED
:2031A00000918703109188032091890330918A03601B710B820B930B6430710581059105F5
:2031C000B0F08BE395E00E944B2900918703109188032091890330918A03601B710B820B00
:2031E000930B6E3171058105910508F49FC08BE395E00E944B29609387037093880380938E
:20320000890390938A0360E08BE395E0FBD763CF612F8BE395E00E941F26811100E01F5F01
:203220001430B1F7002309F485C01092B70282C010928503809186030E943B06C9CB81E004
:20324000809385038093B70240CC1092B503809186030E943B0681E08093B70241CC109248
:203260008D0382CC0E94A70710928B0384E080938F03CCCDE0918F038091B6032CE0622FE4
:203280000E94E8332E9FF0011124E90FF11DE65FFE4F808191E08927808364CE8091B603C5
:2032A0008F5F8F778093B60369CE8091B60381508F778093B6030FCF0E94A70710928B034C
:2032C00010928F0373CE80918F03E0919303882309F4E2CEEACE80918F038F5FE091930327
:2032E000E695F0E0ED5DFD4F60810E94E83390938F03F1CE81E08093B5038093B702FCCE19
:2033000081E080938B0310928F03809193038051823008F013CF0FCF11E010938C0360E032
:203320008BE395E06FD71093B7022ECF81E080938D035DCFCF911F910F910895CF93DF93BA
:203340001F92CDB7DEB78BE395E00E94B2219091B902911106C0882321F089830E949609FE
:2033600089818093B9020F90DF91CF9108958091B5029091B602892B51F01092B6021092D7
:20338000B50260E070E08BE395E00C9440220895CF9360E08BE395E00E94DD21C1E08C32E0
:2033A000914008F0C0E08091B80281111AC0CC23C1F080E090E03EE2389FF001399FF00D40
:2033C0001124E153FC4F22892F5F228B01968430910591F78BE395E0C0D7811102C00E947A
:2033E0009609C093B802CF910895CF93C0E064E78BE395E089D661E08BE395E003D78BE329
:2034000095E0FFD540E06C2F8BE395E07CD76C2F8BE395E00E94862C882329F041E06C2F20
:203420008BE395E070D740E06C2F8BE395E00E94F227CF5FC430D9F68BE395E08ED781113E
:2034400003C0CF910C949609CF9108950F931F93CF93DF9361E08BE395E00E941F26811148
:2034600079C080918B03811175C057C08BE395E00E944B296093B0027093B1028093B2027B
:203480009093B30260E08BE395E00E944626882309F460C08091B402882309F447C08BE377
:2034A00095E00E944B290091B0021091B1022091B2023091B302601B710B820B930B643653
:2034C000710581059105B8F131C040E0612F8BE395E019D78991612F882369F08BE395E0AC
:2034E0000E949B2D882331F041E0612F8BE395E00AD705C0612F8BE395E00E94862C1F5F17
:20350000143019F78BE395E028D7811123C0DF91CF911F910F910C94960960E08BE395E07E
:203520000E942B26882309F4ADCFA0CF5EDF81E08093B4020FC064E78BE395E0E5D560E0A7
:203540008BE395E05FD68BE395E05BD5C4E6D7E010E0BBCFDF91CF911F910F91089561E067
:203560008BE395E00E9499232091C303322F337019F0313011F50BC06CE070E00E940834DA
:203580003CE0369FC001379F900D112416C06CE070E00E9408343CE0639FB001112441E05C
:2035A00050E0079714F440E050E037E0349FC001359F900D1124860F971F40917A0350911A
:2035C0007B038417950771F190937B0380937A0310925D0710925C0710925F0710925E0789
:2035E0001092610710926007109263071092620730E0359527953595279540E007C0EE0FA1
:20360000FF1FE45AF84F918380834F5FE42FF0E02E173F07A4F78BE395E09FD6811102C08D
:203620000C9496090895B4DE9ADF88DEA0CEDC01D2968C91D297813F09F4ACC0E0F4803B4C
:2036400009F453C048F4803991F1803A09F46AC0803809F0CCC027C0803D09F473C020F4DD
:20366000803C09F0C4C073C0803E09F443C0803F09F0BDC079C08A3F21F160F4833F09F4C4
:20368000A1C008F48CC0863F09F4A5C0883F09F0AEC012C08C3FF9F0C8F08E3F09F18F3F59
:2036A00009F0A5C09DC0ED91FC9111973FC01296ED91FC9113973AC05896ED91FC9159975D
:2036C00093C05A96ED91FC915B978EC05C96ED91FC915D9789C05E96ED91FC915F9784C0E9
:2036E0009096ED91FC9191977FC01696ED91FC9117971CC01C96ED91FC911D97309709F4BC
:2037000076C0D4966C91D4976F7720E8629FB0011124D3968C91D3978F77682B7052D1961A
:203720008C9109941496ED91FC911597309709F45EC0D4964C91D497D3966C91D397D196A3
:203740008C9109941A96ED91FC911B9704C01896ED91FC911997309709F449C0D3966C91E2
:20376000D397D1968C9109941E96ED91FC911F973097E9F1D4967C91D49760E0D3968C9100
:20378000D397682B6138710510F060E870E0CD01C59609945096ED91FC91519717C0529627
:2037A000ED91FC915397309711F1D4968C91D4978F7720E8829FC0011124D3962C912F7768
:2037C000822B09945496ED91FC915597309779F0D3968C9109945696ED91FC91579704C0C2
:2037E0009296ED91FC919397309709F009940895982F803881F0803971F0803B61F0803AA2
:2038000051F0803D41F081E0903E21F0903C21F080E00895089581E0089587FF0CC0843FAF
:2038200051F0853F41F0893F31F08D3F21F0803F18F4807F089580E008951F93CF93DF93A2
:20384000EC01162F6D3F38F46A3F38F4663F29F0683F81F402C06E3F68F0FE01EA54FF4F5D
:2038600080819181DC01ED91FC910190F081E02D612F0995163F09F418A6DF91CF911F9180
:203880000895EF92FF920F931F93CF93DF93EC01162FE22E0150003110F467FD02C018A6A5
:2038A00041C0613EB0F57FE7F72EF422602F612B88A5861769F068A7FE01EA54FF4F808149
:2038C0009181DC01ED91FC910190F081E02D0995CA54DF4F88819981DC01ED91FC91019059
:2038E000F081E02D6F2D0995103CE1F0103DD1F088819981DC01ED91FC916E2D6F770190C8
:20390000F081E02DDF91CF911F910F91FF90EF900994663F38F0DF91CF911F910F91FF90E2
:20392000EF908BCFDF91CF911F910F91FF90EF900895AF92BF92CF92DF92EF92FF920F93CB
:203940001F93CF93DF931F92CDB7DEB75C01DC0196968C91969780FFF9C08E7F09F4F6C06F
:20396000D2966C91D297862F8058813650F5D1960C91D19799968C9121E0081711F0811185
:2039800020E0F50186A1869590E08230910539F08330910569F0019709F0D8C00BC0222333
:2039A00009F4D4C0F50124A943A9C5016ADFCEC02111CCC0D501D4962C91D497D3964C91BE
:2039C000F4CF663FD9F078F4613F09F496C020F4603F09F0BBC01FC0623F09F45FC0633FF2
:2039E00009F0B4C03EC06D3F30F46A3F38F4683F09F0ACC003C06E3F08F4A8C0C5010F9072
:203A0000DF91CF911F910F91FF90EF90DF90CF90BF90AF9012CF85010B5C1F4FF50194A9AD
:203A200080E023A9822B8138910510F080E890E06C01C00ED11E7501F6EBEF0EF11C0DC02E
:203A4000D7018D919C91F80161918F01DC01ED91FC910190F081E02D09950C151D0581F778
:203A600073C0D501D396FC9085010A541F4FF80180819181DC01ED91FC910190F081E02DF3
:203A800063EF09956F2D6F7770E0F801808191810E940F06D50198961C9258C0F50104A934
:203AA000F0E80F9F80011124D501D3968C91082B7501B6EBEB0EF11CF70180819181DC0136
:203AC000ED91FC910190F081E02D62EF0995B8016F777727F701808191810E940806B8012C
:203AE000660F672F661F770B71956F777727D7018D919C910E94080627C0D501D3968C9114
:203B00008770B0E18B9FC0011124F50124A92F70282B85010A541F4FD8018D919C91DC01F5
:203B2000ED91FC910190F081E02D61EF29830995F80180819181DC01ED91FC910190F081DB
:203B4000E02D2981622F0995F50110A60F90DF91CF911F910F91FF90EF90DF90CF90BF90E9
:203B6000AF900895EF92FF920F931F93CF93DF931F92CDB7DEB71091E602113108F090C151
:203B80008091730390917403DC01ED91FC910084F185E02D0995892B09F482C180917303FE
:203BA00090917403DC01ED91FC910284F385E02D09957C01282F8091EC029091ED02009762
:203BC00009F0A3C0E092E7020091E402802F25DE0FDE882361F0E7FC0AC00093E702E09281
:203BE000E80281E090E09093ED028093EC020091E702802F12DE813F09F440C0C8F4803BAA
:203C000009F43FC040F48039E1F1803AD1F1803809F0D9C036C0803D89F120F4803C09F02D
:203C2000D2C02CC0803E69F1803F09F0CCC030C0883F81F038F4833F09F118F1863F09F0D3
:203C4000C2C008C08A3F08F4BEC08D3F18F08E3F08F4B9C08093EF021092EE021092F00297
:203C60001092F10281E0809372031092ED021092EC021092EB021092EA022FC122E030E086
:203C800002C023E030E03093EB022093EA020AC020E830E03093EB022093EA021092E40247
:203CA0008093F2022091EC023091ED024091EA025091EB02BA016150710926173707F0F0E2
:203CC0008093EF02802F8F708F5F8093EE028091E8028093F0024330510529F48091E9025F
:203CE0008093F10202C01092F1021092ED021092EC021092EB021092EA022AC02F5F3F4F23
:203D00003093ED022093EC02CBC0E7FE43C0FF24BDEFEB16F1046CF4EAEFEE16F10484F46E
:203D2000F7EFEF16F104C1F038EFE316F10491F507C0AEEFEA1AF108B2E0EB16F10450F529
:203D40002093EF021092F0021092F1021092EE0281E080937203C1C02091F202203F99F508
:203D6000FC01E354FD4F37EF35AB01962093EF028093F0029093F1021092EE0281E0809361
:203D800072031092ED021092EC021092EB021092EA0263C03091E702FC01E354FD4F303FB4
:203DA00011F425AB01C022A7E090EA02F090EB029701215031098217930708F451C0909137
:203DC000E702903F59F41092ED021092EC021092EB021092EA021092E40262C0892F998322
:203DE0001CDD082F8093EF0203DD9981882331F0892F8F708F5F8093EE0202C01092EE02CD
:203E00008091E8028093F002E3E0EE16F10429F48091E9028093F10202C01092F1021092CE
:203E2000ED021092EC021092EB021092EA0281E080937203003B71F038F4003959F0003A79
:203E400049F0003851F406C0003D21F0003E11F0003C19F49093E40240C01092E4023DC082
:203E600001969093ED028093EC021AC08091F1028823C1F18091EF02882371F080588136C0
:203E800040F48091E6029091EE02981711F0811103C08DEB92E0CBDB612F8DEB92E049DDAF
:203EA0000E9487100E94D014D1DA0E94F80E809193038051823048F40F90DF91CF911F916B
:203EC0000F91FF90EF900C9496090F90DF91CF911F910F91FF90EF90A6CB8091EF028039FC
:203EE00049F6C4CF80E88093EF02C4CF0C948D050895089581E00895CF93DF939C01E62F01
:203F0000F0E0EE0FFF1FDC01AE0FBF1FAF53BF4F4D935C93DC01A056BF4F4C91840F911D60
:203F2000840F911DEC01C754DF4FDC01AF53BF4F888199814D915C91841B950B97FF03C097
:203F400091958195910945E0880F991F4A95E1F7D901A058BF4F6D917C910E94F433CB01E0
:203F600055E0969587955A95E1F7E20FF31FE753FF4F892B11F4605E7F4F71836083DF91E7
:203F8000CF910895299A29980895882311F0289A08952898089580E480937C00EAE7F0E007
:203FA00080E880838081876080830895ECE7F0E09081907790839081982B908321E030E048
:203FC000082E01C0220F0A94EAF720937E000895EAE7F0E0808180648083089580917A00BB
:203FE000829581700895809178002091790090E0922B08958EBD00000DB407FEFDCF8EB57F
:204000000895FC01E155FF4F20813197808120FD02C0886001C0877F8083808121FD02C0A6
:20402000806101C08F7E8083808122FD02C0806401C08F7B8083808123FD02C0806201C0B4
:204040008F7D8083808124FD02C0816001C08E7F8083808125FD02C0846001C08B7F808324
:20406000808126FD02C0826001C08D7F8083808127FD02C0806801C08F7780830895AF9231
:20408000BF92CF92DF92EF92FF920F931F93CF93DF93A0E0B0E09B0128593F4F7901EC01A1
:2040A000C155DF4F41E050E060E070E0F701859194910A2E02C0969587950A94E2F75A0195
:2040C0006B010A2E04C0AA0CBB1CCC1CDD1C0A94D2F79601850180FF04C088818A2988837C
:2040E00004C000958881082308831196A730B105E9F6DF91CF911F910F91FF90EF90DF90F8
:20410000CF90BF90AF900895603219F464E270E013C0262F332727FD3095613424F4B9010E
:204120006053710909C0613624F4B9016753710903C0B90167557109A2CF9C01CB016AE015
:2041400070E00E940834BC01C90199CF4F925F926F927F92AF92BF92CF92DF92EF92FF92E8
:204160000F931F93CF93DF939C012A01EC01C60FD11DC60FD11D8EAD9FAD6CE070E00E9417
:20418000F433F901E257FF4F2081269FA001279F500D1124AA24BB24A41AB50ACC24B7FC4B
:2041A000C094DC2CB201882777FD8095982F2A01662457FC6094762C7F926F925F924F926F
:2041C000E12C10E2F12E00E010E020E030EE4FEF5FEF0E946030CE57DF4F798368830F903C
:2041E0000F900F900F90DF91CF911F910F91FF90EF90DF90CF90BF90AF907F906F905F905B
:204200004F900895FC01E155FF4F8081662311F0806801C08F7780830895FC01E355FF4F44
:204220008081662311F0846001C08B7F80830895860F911D860F911DFC01EF53FF4F81E030
:2042400020813181213D374008F480E008958E559F4FFC01808190E002C0959587956A95F7
:20426000E2F781700895262FFC01EE55FF4F442379F041E050E060E070E004C0440F551FB8
:20428000661F771F2A95D2F78081842B8083089541E050E060E070E004C0440F551F661F3A
:2042A000771F2A95D2F740958081482340830895262FFC01E60FF11DE658FF4F35E0308396
:2042C000643088F4FC01EE55FF4F41E050E060E070E004C0440F551F661F771F2A95D2F731
:2042E0008081842B07C0643039F4FC01E355FF4F8081816080830895653021F448EB5BE069
:2043000063E0FACD0895FC01E455FF4F70E0DB01AA57BD4F442381F041E050E060E070E080
:204320000C9004C0440F551F661F771F0A94D2F78081842B8083089541E050E060E070E0A3
:204340000C9004C0440F551F661F771F0A94D2F74095808148234083089589B186FB8827A9
:2043600080F90895FC01E954FF4F81E0208131812E35314008F080E00895613079F048F0F0
:20438000623099F06330B9F489B185FB882780F90FC089B182FB882780F90AC089B1869513
:2043A0008695869586278170089589B18295817091E08927089580E00895860F911D860FB7
:2043C000911DFC01EF54FF4F80819181089570E0FB013B96A3E0EE0FFF1FAA95E1F7E80F28
:2043E000F91FB3E0660F771FBA95E1F7680F791FDB01AA5ABF4F808191812D913C91820FB4
:20440000931FFB01E65AFF4F20813181820F931F329620813181820F931F969587959695FA
:204420008795089510926D00FC016683613051F028F0623059F0633069F0089580916D0002
:2044400084600BC080916D00886007C080916D00806103C080916D00806280936D000895E1
:20446000643028F4411520E1520708F445CD0895442319F048EB5BE002C044E650E0F0CF78
:20448000CF93DF93FC01DC01A058BF4F11967C936E9390968C919F01280F311D280F311DC4
:2044A000E901C754DF4FD901AF53BF4F288139818D919C91281B390B37FF03C03195219535
:2044C0003109C90135E0880F991F3A95E1F70E94F433CB0145E0969587954A95E1F79B0179
:2044E000205E3F4F44E0DF01A753BF4F009719F06D937C9302C02D933C93415032964111F9
:20450000F2CFDF91CF910895CF92DF92EF92FF920F931F93CF93DF93EC017C0140EAE40EDB
:20452000F11CD701DC908D2D90E0880F991FAE01480F591FFA01E754FF4F2081318138968E
:204540004081518124173507F1F1B901641B750B77FF03C071956195710942175307B0F4B0
:20456000DE01A80FB91FFD01E753FF4F0190F081E02D05E0F695E7950A95E1F7A754BF4FCC
:20458000E617F707C8F42E1B3F0B1BC024173507D0F4DE01A80FB91FFD01E753FF4F019036
:2045A000F081E02D15E0F695E7951A95E1F7A754BF4FE617F70718F04D935C9304C02E0F1E
:2045C0003F1F2D933C938C0F9D1FFC01E754FF4F00811181D0FE03C080E090E802C080E073
:2045E00090E01F701061082B192B8CB5837F8CBD812F00DD802FFEDCF7012081FE01E20FA9
:20460000F11DE658FF4F8081AE014E555F4F6A018823A1F081508083811110C081E090E051
:20462000A0E0B0E004C0880F991FAA1FBB1F2A95D2F78095DA019C9189238C93FE01E2580B
:20464000FF4F80818E0103551F4F882341F081508083811104C0F80180818E7F8083FE01A7
:20466000E158FF4F8081882349F081508083811105C044E650E063E0CE013EDCD7012C9188
:20468000E22FF0E0D6018C9190E002C0959587952A95E2F79E0124553F4FE657FD4F80FF87
:2046A00011C081E090E0A0E0B0E0008004C0880F991FAA1FBB1F0A94D2F7F9014081482B7D
:2046C000408311C041E050E060E070E0008004C0440F551F661F771F0A94D2F74095D90129
:2046E0008C9148234C93CF55DF4F88818F5F843010F4888301C01882E881F0E0E658FD4F29
:204700008081F7018083823030F0D8018C918D7F88608C9305C0F8018081877F8260808318
:20472000DF91CF911F910F91FF90EF90DF90CF900895EF92FF920F931F93CF93DF93EC01B9
:20474000162F45DE9C01412F50E0FE0168E1169FE00DF11D1124EF52FF4F8081918182174C
:20476000930748F4880F991FDC01A21BB30B9D01FF24F39401C0F12CE12C8CE0849FB00149
:20478000859F700D11240E2D10E0AB01400F511FCA01880F991F8C0F9D1FFC01EF52FF4FB0
:2047A0000190F081E02DE217F30710F4E394EBCF4F5F5F4F440F551F4C0F5D1F4F525F4F79
:2047C000DA018D919C918217930780F7AF01481B590BCA0166E070E00E94F433E12C7727BD
:2047E000AE2DB0E06A9FA0016B9F500D7A9F500D1124CF01841B950B2817390710F4E39489
:20480000EFCFE901CE1BDF0BCE01841B950B181619062CF0CF01821B930B840F951FAD01A6
:2048200040955095649FD001659FB00D749FB00D1124AE014A0F5B1F141615062CF0E21B44
:20484000F30BEA1BFB0B01C0FA01E817F9070CF4E39426E0209FC001219F900D11248E0D6A
:20486000911DFF2019F0919581959109DF91CF911F910F91FF90EF900895E62FF0E0E65C9A
:20488000FE4F40830895E62FF0E0E65CFE4F808108951F93CF93DF93E62FF0E09F01220F1D
:2048A000331F280F391FD901AA5BBF4F2D913C911197240F351F2D933C93EC012EE1629FE4
:2048C000C00DD11D112420E030E011E0DE01A20FB31FA555BE4F6D917C911197640F751FC4
:2048E0006115710519F06D937C9301C010E02E5F3F4F2C31310551F7E80FF91FE75DFD4F6E
:2049000081E08083812FDF91CF911F910895CF92DF92FF920F931F93CF93DF93FC01148248
:20492000128281E085831382DB01CA010197A109B10985359F4EA105B10508F069C0C6E573
:20494000DFEE8BEA97E7F280CF2C8E010F2C02C0169507950A94E2F720E030E04017510721
:204960006207730718F0F394F282EDCF8C010F2C02C0169507950A94E2F720E030E04017E6
:2049800051076207730778F3F480CF2DD0E0CE01880F991F845D9D4FDC018D919C910C2C06
:2049A00002C0969587950A94E2F78C0120E030E0401751076207730718F0F394F482E4CF90
:2049C000CC0FDD1FC25DDD4F0990D881C02D0C2C02C0D695C7950A94E2F78E0120E030E0FF
:2049E000401751076207730740F39C012C1B3D0B369527958C01021B130B20E030E0401710
:204A000051076207730730F4F394F482158202C080E001C081E0DF91CF911F910F91FF90B0
:204A2000DF90CF9008959C01562F842F6CE00E94E833E92FF0E0EE0FFF1FE45DFD4F250F69
:204A4000311DD901A157BF4F9C91980F6081718102C0769567959A95E2F780E090E0089543
:204A6000CF93DF93EC01F894209A219A229A29982A9856985E9852985A9A53985B9A5498A7
:204A80005C9A55985D9A389840983998419857985F9AFC01E855FF4F718360833296518307
:204AA00040831092B000E0E7F0E080818260808387E08093B1009FEF9093B3001092B20081
:204AC000E8E6F0E01082808184608083EDE6F0E010829E831082EFE6F0E0108280818160BD
:204AE00080831092800082E08093810078940E94A63351DAFE01E156FF4F108283E056DA40
:204B000067DA81E08DAFDF91CF9108958F929F92AF92BF92CF92DF92EF92FF920F931F932E
:204B2000CF93DF938C017C0185E9E80EF11CD7012D913C916801B7E9CB0ED11CF601318349
:204B40002083E801C35DDD4F4F9912C081E090E0A0E0B0E0088004C0880F991FAA1FBB1FA4
:204B60000A94D2F7822B932BD7018D939C9313C041E050E060E070E0088004C0440F551F75
:204B8000661F771F0A94D2F74095509542235323F701518340834801F8EA8F0E911CD40125
:204BA0008D919C91892B31F488818F5F843008F5888320C0A12CB12CF70120813181D60172
:204BC0008D919C91822793270A2C02C0969587950A94E2F780FF05C0D401ED91FC918A2D96
:204BE0000995BFEFAB1ABB0AE3E0AE16B10421F7DBCF1882D801A355BF4F8C91806FE881F3
:204C0000F0E0EE57FD4F41E050E060E070E0008004C0440F551F661F771F0A94D2F74095F0
:204C200084238C93DF91CF911F910F91FF90EF90DF90CF90BF90AF909F908F9008958B5658
:204C40009F4FFC018081918102C0969587956A95E2F781700895FC01EB56FF4F2081318108
:204C6000062E02C0369527950A94E2F720FF0CC032968081918102C0969587956A95E2F799
:204C800021E082278170089580E00895FC01EB56FF4F20813181062E02C0369527950A94E5
:204CA000E2F720FD0AC032968081918102C0969587956A95E2F78170089580E00895EF926C
:204CC000FF920F931F93CF93DF938C01FC01E455FF4FE080C7E0D0E0F12CC7010C2E02C072
:204CE000959587950A94E2F781704FD94BD92197A0F7F801E355FF4FE080C7E0D0E0F12C18
:204D0000C7010C2E02C0959587950A94E2F781703CD938D92197A0F7F801E255FF4F0081AD
:204D2000C7E0D0E010E0C8010C2E02C0959587950A94E2F7817029D925D92197A0F72A9AA6
:204D40002A98DF91CF911F910F91FF90EF900895EF92FF920F931F93CF93DF937C0164307B
:204D6000C8F5411580E15807A8F59701260F311D260F311DF901EF53FF4F5183408360FDA7
:204D800003C080E090E002C080E090E88A011061082B192BE701C355DF4F8881623018F0A2
:204DA0008D7F886002C0877F82608883C70187DF8CB5837F8CBD812F1DD9802F1BD988813E
:204DC0008A608883C701DF91CF911F910F91FF90EF9075CFDF91CF911F910F91FF90EF9076
:204DE00008951F93CF93DF93EC0110E040E050E0612FCE01ADDF1F5F1430C1F7DF91CF912E
:204E00001F9108955F926F927F928F929F92AF92BF92CF92DF92EF92FF920F931F93CF93C4
:204E2000DF938C01962E81E0F80185AFC801D9DF36E4C32E32E0D32EE92DF0E0E8012EE1A4
:204E4000929EC00DD11D1124CF5CDE4F44E6A42E42E0B42E59E0752E812CEA58FD4F5080F3
:204E600066246394F601E190F1906F01F982E882F501419151915F01652DC80169DF4881FD
:204E80005981692DC80164DF8FE19EE40197F1F700C0000093E099122CC0319930C08624F6
:204EA000482D63E0C8012FDA8881998101968115E0E19E0718F49983888302C01982188288
:204EC0004881598163E0C80143DFE7CF8624482D692DC80118DA8881998101968115F0E1BA
:204EE0009F0750F49983888348815981692DC8012FDF309BEBCF03C019821882F5CF888147
:204F000099818E159F0541F08E199F098536910518F0692DC80176DF8881998101978993CC
:204F200099937A9409F09ECFB8012EE1929E600D711D112480E090E020E030E0AB01480FC6
:204F4000591FDA01AD5CBE4FFA01EF5CFE4F4D915C910190F081E02D4E1B5F0B240F351F21
:204F600002968031910551F7D90123E0B695A7952A95E1F780E090E0AB01480F591FFA01C9
:204F8000ED5BFE4FEA01CF5BDE4F288139812A0F3B1F3183208302968C30910569F7E801BA
:204FA000F12C40E06F2DC801AED9FE01EF5CFE4F408151816F2DC801CBDEF3946E9684E0A1
:204FC000F812EFCFDF91CF911F910F91FF90EF90DF90CF90BF90AF909F908F907F906F9023
:204FE0005F9008952F924F925F927F928F929F92AF92BF92CF92DF92EF92FF920F931F9365
:20500000CF93DF93EC01762EC62ED12C9C012C0D3D1DF901E157FF4F8081E656FE4FA080E0
:20502000AA20C1F05CE0589F500D1124451710F4445FFCCFF901E25BFF4F6081852F90E0D8
:20504000860F911D642F70E06817790714F04C50F9CF451BC601880F991F8C0F9D1FFC01F9
:20506000EF5DFD4F0190F081E02DE40FF11DF7FD06C0E038F1052CF0EFE7F0E002C0E0E07C
:20508000F0E04E2F8E2F66E00E94E833B92ED901A657BF4FEC93AA2009F472C09FE09C9D07
:2050A00090019D9D300D1124280F311DC901880F991F8C0F9D1FFC01E755FE4F40805180A7
:2050C000C9010196880F991F8C0F9D1FFC01E755FE4F808191818419950966E070E00E94BD
:2050E000F4339B01F601EF5BFF4FEE0FFF1FEC0FFD1F80809180840C951CB69EC001B79E70
:20510000900D1124880E991EAA24BB24A61AB70ACC24B7FCC094DC2C842F6CE00E94E83387
:20512000E92FF0E0E65CFE4F2080622D70E080E090E089011F921F921F932F93E12CF12C1F
:205140008701EA9420E030E0A901BAD70F900F900F900F90A401460F571F672DCE01DF913F
:20516000CF911F910F91FF90EF90DF90CF90BF90AF909F908F907F905F904F902F90E8CD76
:20518000D901AD55BF4F9C919923E9F0CC0CDD1CCC0EDD1ED601DE968D919C91DF976CE065
:2051A00070E00E94F4339B01E69F4001E79F900CF69F900C1124F601EA5BFF4F808191814F
:2051C000880E991E2CC09FE09C9D90019D9D300D1124280F311DC901880F991F8C0F9D1FAC
:2051E000FC01EF5CFE4F0190F081E02DC9010196880F991F8C0F9D1FDC01AF5CBE4F8D91F1
:205200009C918E1B9F0B66E070E00E94F4339B01B69E4001B79E900C11248E0E9F1EAA2431
:20522000BB24A21AB30ACC24B7FCC094DC2C842F6CE00E94E833E92FF0E0E65CFE4F208044
:20524000622D70E080E090E089011F921F921F932F93E12CF12C8701EA9420E030E0A90155
:205260002FD70F900F900F900F90A401460F571F672DCE01DF91CF911F910F91FF90EF90AB
:20528000DF90CF90BF90AF909F908F907F905F904F902F90E5C88D569F4FFC01608171817A
:2052A00080E090E00895EF92FF920F931F93CF93DF938C010E94EE1F882309F44AC0E80170
:2052C000C156DF4FE880F12C0E94F31F9701220F331F200F311FF901EF54FF4F9183808314
:2052E0003881832F90E0F801E80FF91FEA58FF4F20812F5F20832370FC01EE0FFF1FEE0FC1
:20530000FF1FE20FF11DBB96EE0FFF1FE00FF11F880F991F800F911FDC01AF54BF4F8D916B
:205320009C919183808381E0830F843010F4888301C01882E881F0E0E258FD4F80810E94B6
:20534000D61FDF91CF911F910F91FF90EF900C94E81FDF91CF911F910F91FF90EF900895B8
:205360003F924F925F926F927F928F929F92AF92BF92CF92DF92EF92FF920F931F93CF93FA
:20538000DF938C01EC012C0188E1480E511C780191EBE90EF11C6801E3EBCE0ED11C580176
:2053A000F5EBAF0EB11C480187EB880E911C612C712C312CFE01E60DF71DEF5CFE4F40819F
:2053C0005181632DC801C4DC33949EE1690E711CE4E03E12EFCF8FE39CE90197F1F700C0AF
:2053E00000008FE0782EC8015EDFEFE9FFE03197F1F700C000007A94B1F7F70180819181AA
:20540000FE01EF52FF4F91838083F60180819181FE01E751FF4F91838083F5018081918138
:20542000FE01EF5FFE4F91838083F40180819181FE01E75EFE4F918380832296C415D505A0
:2054400009F0B5CFDF91CF911F910F91FF90EF90DF90CF90BF90AF909F908F907F906F90E9
:205460005F904F903F9008951F920F920FB60F9211248F93EF93FF93E7E7F5E080818F5F3D
:205480008083FF91EF918F910F900FBE0F901F901895CF93DF93EC016091840080918500A6
:2054A00054D6BC0180E090E02CAD822BDF91CF910895CF92DF92EF92FF92CF93DF93EC019D
:2054C00081E08DAF1B8ACE01E4DF6B017C0120E08B8981111EC021111CC0CE01DADF6C1970
:2054E0007D098E099F0921E0613A76488140910578F7EDCF211120C0CE01CBDF6C197D0975
:205500008E099F0921E0613075438C40910508F420E08B89877071F70FC0211121C0CE0180
:20552000B8DF6C197D098E099F0921E0613075438C40910508F420E08B898770813069F7C6
:205540000FC0211111C0CE01A4DF6C197D098E099F0921E0613075438C40910508F420E035
:205560008B898770823069F781E08227DF91CF91FF90EF90DF90CF900895CF93DF93EC01FA
:205580000E941222CE0195DF10926D009FEF9E83882329F06C897D898E899F8903C060E033
:2055A00070E0CB01DF91CF9108952F923F924F925F926F927F928F929F92AF92BF92CF92A7
:2055C000DF92EF92FF920F931F93CF93DF9300D000D000D0CDB7DEB79E838D83062F6901C7
:2055E0007A0181E0AD81BE81DD968C93DD97BA01A901CD018CD9202F30E0F901EE0FFF1F50
:205600004D815E81E40FF51FDA0112968C9190E0240F351FD901A157BF4F2C91821B91096B
:205620004CE0489F9001499F300D1124AD81BE8114968C91280F311D86AD97AD6CE070E0A0
:205640000E94F433269FA001279F500D369F500D1124EA5BFF4F80819181480F591F5A833F
:205660004983602F8D819E8173DB8FE99FE00197F1F700C00000602F8D819E817EDF4B01B8
:205680005C01C701B60128E730E040E050E00E941B34C90125E6622E712C10E0212C312C32
:2056A0008C149D04AE04BF0439F0B501A4014C195D096E097F0903C040E050E0BA01A0E098
:2056C000B0E084179507A607B707B0F58C149D04AE04BF0440F094E0290E311C11110AC029
:2056E000739411E007C0A4E02A1A3108112311F0739410E06A9409F471C0B8E0B715E0F05E
:2057000049815A81420D531D602F8D819E8120DBEFE9FFE03197F1F700C00000602F8D81AA
:205720009E812BDF4B015C0128E730E040E050E00E941B34C901B4CFC701B60128E532E04C
:2057400040E050E00E941B3429013A0135E620E0662477248C149D04AE04BF0439F0D501AE
:20576000C4018C199D09AE09BF0903C080E090E0DC01481659066A067B0658F58C149D04EE
:20578000AE04BF0440F0FFEF2F1A3F0A11110AC02F5F11E007C041E0241A3108112311F0E5
:2057A0002F5F10E03150D1F0293098F449815A81420D531D602F8D819E812B833C83C8DA15
:2057C000602F8D819E81D9DE4B015C013C812B81C1CF89819A81820D931D02C080E090E0BE
:2057E00026960FB6F894DEBF0FBECDBFDF91CF911F910F91FF90EF90DF90CF90BF90AF901C
:205800009F908F907F906F905F904F903F902F9008951F93CF93DF93EC01162FFC01E60F89
:20582000F11DE25BFF4F8081841750F0CE01FBD89B01AC01612FCE01DF91CF911F91B5CEA6
:2058400080E090E0DF91CF911F910895AF92BF92DF92EF92FF920F931F93CF93DF9300D04E
:20586000CDB7DEB78C01D62EE62EF12C8EE1689F50011124D801AA0DBB1DA755BE4FF701E8
:20588000B396EE0FFF1FE00FF11F808191818D939C93E9E5AE1AEEEFBE0AA00EB11E76E035
:2058A00051E0472F6D2DC80159837A83B2DF59817A81009771F4513079F0F50182819381AC
:2058C000009751F0880F991F20813181821B930B01C0F501958384835F5F7A5FF2E0AF0E17
:2058E000B11C5F30F1F60E0D1F1DF801E75DFD4F81E080830F900F90DF91CF911F910F91C3
:20590000FF90EF90DF90BF90AF9008956F927F928F929F92AF92BF92CF92DF92EF92FF9205
:205920000F931F93CF93DF93EC01762EE62EF12CFC012EE1629FE00DF11D1124EB5CFE4FAC
:205940004081518105DA8FE99FE00197F1F700C00000672DCE0111DE4B015C018E01070D00
:20596000111D070D111D2EE12E9DC0012F9D900D11248C0F9D1FFC01E75CFE4FDC01AB5CB6
:20598000BE4F208131818D919C91281B390BD801DF963C932E93DE97B501A401CE010E94B6
:2059A0008724F801EA5BFF4F6F018823B1F16624639481149104A104B10409F4612C2A81B9
:2059C000CE018E0D9F1DFC01E157FF4F2083FD973CE0239F202D112420838EE18E9DF00159
:2059E0008F9DF00D1124EC0FFD1FEB5CFE4FD801DE968D919C91DF976CE070E0F5D64C815C
:205A0000469F9001479F300D112480819181821B930BF6019183808301C0612CA5019401D3
:205A20005695479537952795672DCE01BEDD0097A9F04EE14E9D90014F9D300D11242C0FA5
:205A40003D1FF901EB5CFE4F20813181821B930BD801DF969C938E93DE9701C0612CF80174
:205A600086AD97ADC2978F39974010F0612C19C06620E1F3FE01EE0DFF1DE157FF4F26E550
:205A80003FEE008002C0369527950A94E2F740E050E0672DCE0189DD009741F3D6018D93BE
:205AA0009C93F601808191810197803D974098F5662089F1FE01EE0DFF1DE25BFF4F8CE3E4
:205AC0008083D801DE960D911C91DF97C8016CE070E08AD68081869F9001879F300D1124A1
:205AE000200F311F2F3F3F4018F48F5F8083F2CF81508083672DCE01DF91CF911F910F9125
:205B0000FF90EF90DF90CF90BF90AF909F908F907F906F909BCE80E0DF91CF911F910F91D6
:205B2000FF90EF90DF90CF90BF90AF909F908F907F906F900895FF920F931F93CF93DF9349
:205B4000EC01F62E862F90E09E01280F391FF901E75DFD4F40814423D1F0880F991F8C0F84
:205B60009D1FFC01EF53FF4F00811181F901E657FF4F4081CE014DDE009781F0AC01401B79
:205B8000510B6F2DCE010E94492481E008C0CE01DF91CF911F910F91FF90B8CE80E0DF9132
:205BA000CF911F910F91FF9008950F931F93CF93CFB7F8946091840080918500C6D2A0E01E
:205BC000B0E020917705A22B8093460590934705A0934805B0934905609141058BE395E043
:205BE0000E94BD21811105C0CFBFCF911F910F91089540914605509147056091480570916B
:205C0000490580914A0590914B05A0914C05B0914D0584179507A607B70708F053C08A0118
:205C20009B01081B190B2A0B3B0BD901C80100934205109343052093440530934505E09124
:205C40004E05EF5FE0934E05E77014E0E19FF0011124E95AFA4F80839183A283B38310924C
:205C60005305109254051092550510925605E7E5F5E000E010E0980181919191A191B19126
:205C8000800F911FA21FB31F25E0E737F20719F08C019D01F1CF8093530590935405A09308
:205CA0005505B093560513E0B695A795979587951A95D1F780934F0590935005A09351054B
:205CC000B093520540934A0550934B0560934C0570934D0589CF1F920F920FB60F921124F7
:205CE0002F933F934F935F936F937F938F939F93AF93BF93EF93FF9358DFFF91EF91BF9195
:205D0000AF919F918F917F916F915F914F913F912F910F900FBE0F901F9018951F920F92CA
:205D20000FB60F9211242F933F934F935F936F937F938F939F93AF93BF93EF93FF9380913F
:205D4000CE059091CF0501969093CF058093CE0580917805811113C08BE395E00E9401206E
:205D60008BE395E00E9486258BE395E00E9484228BE395E00E945F268BE395E094DAFF91DD
:205D8000EF91BF91AF919F918F917F916F915F914F913F912F910F900FBE0F901F901895CC
:205DA00082E992E090933C0580933B050895FC01218D828D30E0205C3F4F281B31092F73BF
:205DC0003327C9010895FC01918D828D981731F0828DE80FF11D258D30E002C02FEF3FEF24
:205DE000C9010895FC01918D828D981761F0828DDF01A80FB11D5D962C91828D8F5F8F73EF
:205E0000828F30E002C02FEF3FEFC9010895FC01538D448D852F90E0242F30E0281B390B30
:205E2000541718F0215C3F4F02C021503109C901089583E193E3892B41F080E090E0892BCD
:205E400021F0F1D381110C9400000895FC01848DDF01A80FB11DA35ABF4F2C91848D90E0E2
:205E600001968F739927848FA689B7892C93A089B1898C9180648C93938D848D981306C063
:205E80000288F389E02D80818F7D80830895EF92FF921F93CF93DF931F92CDB7DEB77C0163
:205EA00081E0D70158968C9358975B969C915B975C968C915C9798132CC05096ED91FC9113
:205EC0005197808185FD2AC024C00FB607FC0CC0D7015096ED91FC915197808185FF04C0FB
:205EE000C7016983B3DF6981F701848D181769F3838DE80FF11DE35AFF4F6083D7015B9692
:205F00001C935B975296ED91FC9153978081806211C0F701138D1F5F1F73E6CFD70156962E
:205F2000ED91FC91579760835096ED91FC91519780818064808381E090E00F90DF91CF9184
:205F40001F91FF90EF900895CF93DF93EC01888D811107C01BC0808185FD0EC004C0CE01F8
:205F600075DFEA89FB89808185FD0CC0A889B9898C9186FF07C00AC0A889B9898C9185FFCD
:205F8000F2CFEDCF0FB607FEE6CFEDCFDF91CF910895BF92CF92DF92EF92FF92CF93DF93D3
:205FA000EC016A017B01B22EE889F98982E08083411581EE58076105710599F060E079E0B3
:205FC0008DE390E0A701960136D421503109410951095695479537952795211580E1380724
:205FE00090F0E889F989108260E874E88EE190E0A701960120D421503109410951095695AC
:20600000479537952795EC85FD853083EE85FF852083188EEC89FD89B082EA89FB89808111
:2060200080618083EA89FB89808188608083EA89FB89808180688083EA89FB8980818F7DB2
:206040008083DF91CF91FF90EF90DF90CF90BF900895089556D2FDDF0E94D40FC9E1DFE214
:206060000E94B21D2097E1F3E4DEFACF0F931F93CF93DF9300D000D0CDB7DEB79B01AC016F
:20608000611571058105910569F069833A834B835C8375D429813A814B815C81EED38B01A5
:2060A0009C0103C000E010E09801B801C9010F900F900F900F90DF91CF911F910F9108955B
:2060C0004F925F926F927F92AF92BF92CF92DF92EF92FF920F931F93CF93DF93CDB7DEB725
:2060E00029013A01621B730B840B950B29893A894B895C892A193B094C095D09298B3A8B28
:206100004B8B5C8B9B01AC0169897A898B899C8950D3E418F50806091709A8019701ADD33F
:206120002A0D3B1D4C1D5D1DB901CA01DF91CF911F910F91FF90EF90DF90CF90BF90AF90DE
:206140007F906F905F904F900895382F20E0262BC9010895833069F028F48130A1F082308B
:2061600011F514C08730B1F08830C1F08430D9F404C0809180008F7703C0809180008F7D48
:2061800080938000089584B58F7702C084B58F7D84BD08958091B0008F7703C08091B00060
:2061A0008F7D8093B0000895CF93DF9390E0FC01EB54FF4F4491FC01E753FF4F849188238B
:2061C00041F190E0880F991FFC01E951FF4F25913491D90183529F4FFC0185919491C82F02
:2061E000D92F9FB7F8948C91611106C0409584238C938881842308C0623041F4242F20957E
:2062000082238C938881842B888302C0842B8C939FBFDF91CF9108950F931F93CF93DF9374
:206220001F92CDB7DEB7282F30E0F901EF55FF4F8491F901EB54FF4F1491F901E753FF4FDE
:2062400004910023C9F0882319F0698383DF6981E02FF0E0EE0FFF1FE352FF4F8591949129
:20626000DC019FB7F8948C91611103C01095812301C0812B8C939FBF0F90DF91CF911F91BB
:206280000F91089508951F920F920FB60F9211242F933F934F935F936F937F938F939F9367
:2062A000AF93BF93EF93FF93E0914601F09147010995FF91EF91BF91AF919F918F917F9117
:2062C0006F915F914F913F912F910F900FBE0F901F9018951F920F920FB60F9211242F9348
:2062E0003F934F935F936F937F938F939F93AF93BF93EF93FF93E0914801F09149010995C5
:20630000FF91EF91BF91AF919F918F917F916F915F914F913F912F910F900FBE0F901F9063
:206320001895CF92DF92EF92FF920F931F93CF93DF938C017B016A01C0E0D0E00EC0D7013A
:206340006D917D01D801ED91FC910190F081E02DC8010995892B21F02196CC15DD0579F7B8
:20636000CE01DF91CF911F910F91FF90EF90DF90CF900895DC01ED91FC910190F081E02DBE
:20638000642F09946115710581F0DB010D900020E9F7AD0141505109461B570BDC01ED9140
:2063A000FC910280F381E02D099480E090E00895DC01ED91FC910190F081E02D09948F928E
:2063C0009F92AF92BF92DF92EF92FF920F931F93CF93DF93CDB7DEB7A1970FB6F894DEBF10
:2063E0000FBECDBF7C01F42FD52ECB0119A2223008F42AE08E010F5D1F4F822E912CA12C1F
:20640000B12C6F2F7D2DA501940115D2E62FF22FD32ECA0101501109EA3014F4E05D01C0A8
:20642000E95CD801EC93232B242B252B51F7B801C701A8DFA1960FB6F894DEBF0FBECDBF04
:20644000DF91CF911F910F91FF90EF90DF90BF90AF909F908F9008952115310509F48ACF64
:20646000AECF9A01462F50E060E070E0F5CF1F920F920FB60F9211242F933F938F939F9336
:20648000AF93BF938091690790916A07A0916B07B0916C0730917107232F2D5F2D3720F46F
:2064A0000196A11DB11D05C0232F2A570296A11DB11D209371078093690790936A07A09388
:2064C0006B07B0936C0780916D0790916E07A0916F07B09170070196A11DB11D80936D0770
:2064E00090936E07A0936F07B0937007BF91AF919F918F913F912F910F900FBE0F901F9077
:206500001895789484B5826084BD84B5816084BD85B5826085BD85B5816085BDEEE6F0E0AC
:20652000808181608083E1E8F0E01082808182608083808181608083E0E8F0E08081816006
:206540008083E1EBF0E0808184608083E0EBF0E0808181608083EAE7F0E0808184608083AB
:206560008081826080838081816080838081806880831092C10008951F920F920FB60F92AC
:2065800011242F938F939F93EF93FF93E0918207F09183078081E0918807F091890782FD06
:2065A00012C0908180918B078F5F8F7320918C07821751F0E0918B07F0E0EE58F84F958FC3
:2065C00080938B0701C08081FF91EF919F918F912F910F900FBE0F901F9018951F920F927B
:2065E0000FB60F9211242F933F934F935F936F937F938F939F93AF93BF93EF93FF9382E71F
:2066000097E024DCFF91EF91BF91AF919F918F917F916F915F914F913F912F910F900FBE37
:206620000F901F90189582E797E0C1DB21E0892B09F420E0822F08951092750710927407A8
:2066400088EE93E0A0E0B0E08093760790937707A0937807B09379078CE992E09093730717
:206660008093720785EC90E090937F0780937E0784EC90E0909381078093800780EC90E06B
:20668000909383078093820781EC90E0909385078093840782EC90E0909387078093860758
:2066A00086EC90E0909389078093880710928B0710928C0710928D0710928E070895AF92EF
:2066C000BF92CF92DF92EF92FF920F931F93CF93DF936C017B01C0E0D0E000E010E0F6015D
:2066E000EC0FFD1F4AE050E06281C701BADE5C016EE2C7015DDE8A0D9B1D080F191F2196E1
:20670000C330D10561F74AE050E0F6016581C701A8DE080F191FC801DF91CF911F910F919B
:20672000FF90EF90DF90CF90BF90AF9008958EEA92E09093100880930F08109211081092A6
:20674000120810921308109214080895CF93CFB7F89480911508811124C0E3EDF0E084913A
:20676000EFEBF0E02491E82FF0E0EE0FFF1FE951FF4F85919491DC018C91822319F461E008
:206780008AE04ADD61E08AE00FDD8CB580618CBD8CB580648CBD61E08DE006DD61E08BE0BB
:2067A00003DD809115088F5F80931508CFBFCF910895DB018F939F937BD0BF91AF91A29FD6
:2067C000800D911DA39F900DB29F900D11240895991B79E004C0991F961708F0961B881F59
:2067E0007A95C9F780950895AA1BBB1B51E107C0AA1FBB1FA617B70710F0A61BB70B881F3C
:20680000991F5A95A9F780959095BC01CD01089597FB072E16F4009406D077FD08D0E4DF85
:2068200007FC05D03EF4909581959F4F0895709561957F4F0895A1E21A2EAA1BBB1BFD01BE
:206840000DC0AA1FBB1FEE1FFF1FA217B307E407F50720F0A21BB30BE40BF50B661F771FAE
:20686000881F991F1A9469F760957095809590959B01AC01BD01CF010895052E97FB16F434
:20688000009406D057FD0CD0D6DF07FC09D07EF490958095709561957F4F8F4F9F4F0895EF
:2068A00050954095309521953F4F4F4F5F4F08950FD0A59F900DB49F900DA49F800D911DFE
:2068C00011240895EE0FFF1F0590F491E02D0994A29FB001B39FC001A39F01D0B29F700D21
:2068E000811D1124911D08958F929F92AF92BF92CF92DF92EF92FF92CF93DF93EC01688108
:2069000079818A819B81611571058105910521F464E279ED8BE597E02DE133EF41E050E025
