:1000000060C0000079C0000077C0000075C000002B
:1000100073C0000071C000006FC000006DC0000020
:100020006BC0000069C0000067C0000065C0000030
:1000300063C0000061C000005FC000005DC0000040
:1000400050C1000059C0000057C0000055C000005A
:1000500053C0000051C000004FC000004DC0000060
:100060004BC0000049C00000000000070002010072
:100070000003040600000000000000000102040864
:100080001020408001020408102001020408102002
:10009000040404040404040402020202020203032E
:1000A00003030303000000002300260029000000D2
:1000B0000000250028002B0000000000240027007D
:1000C0002A0011241FBECFEFD8E0DEBFCDBF11E064
:1000D000A0E0B1E0EAEDF5E002C005900D92AA3093
:1000E000B107D9F721E0AAE0B1E001C01D92AF321B
:1000F000B207E1F7F2D06DC283CFDF92EF92FF92A9
:100100000F931F93CF93DF93C1E0D1E005E011E09F
:1001100082E2E82E81E0F82E62E08991C4D1F801F4
:10012000D1908F0161E08D2DBED160E08D2DF3D196
:10013000F70111927F01F1E0C530DF0769F7DF9128
:10014000CF911F910F91FF90EF90DF9008958F92C4
:100150009F92AF92BF92CF92DF92EF92FF920F9356
:100160001F93CF93DF9380E053D195958795959515
:1001700087950097E9F040910A0150910B01609139
:100180000C0170910D01452B462B472B89F41092E1
:10019000220121E020930E011092230120930F01F0
:1001A0001092240120931001109225012093110137
:1001B000A0E0B0E080930A0190930B01A0930C01A2
:1001C000B0930D01892B8A2B8B2BA1F4C1E0D1E0D8
:1001D00005E011E08991D5D1F80121918F0161E00D
:1001E000892B09F060E0822F96D1F1E0C530DF075E
:1001F00089F766C021E0822E21E0922E32E2A32E02
:1002000031E0B32E02E111E07801C0E0D0E0DD245E
:10021000D394F40181914F01B4D1CC24C394892BA0
:1002200011F0C12C14C0F5018081811110C0A3D040
:10023000F7016083718382839383FE01EB5FFE4F3E
:1002400061E0808168D1FE01E25FFE4FD082F5015E
:10025000C1925F012196F4E0EF0EF11CC430D1058C
:10026000C1F6CEE0D1E095E0E92E91E0F92E88814B
:100270008823E1F080D0F80180809180A280B38053
:10028000681979098A099B0980900A0190900B01ED
:10029000A0900C01B0900D0186169706A806B9062D
:1002A00028F460E0F701808136D118822196FFEFB3
:1002B000EF1AFF0A0C5F1F4F81E0C231D807B9F671
:1002C000DF91CF911F910F91FF90EF90DF90CF9032
:1002D000BF90AF909F908F9008955FD00EDF37DF73
:1002E000FECF1F920F920FB60F9211242F933F93C0
:1002F0008F939F93AF93BF93809126019091270195
:10030000A0912801B091290130912E01232F2D5F5A
:100310002D3720F40196A11DB11D05C0232F2A57AA
:100320000296A11DB11D20932E018093260190936A
:100330002701A0932801B093290180912A0190916F
:100340002B01A0912C01B0912D010196A11DB11D91
:1003500080932A0190932B01A0932C01B0932D013F
:10036000BF91AF919F918F913F912F910F900FBEB1
:100370000F901F9018950F931F938FB7F8940091CB
:1003800026011091270120912801309129018FBF6A
:10039000B801C9011F910F910895789484B58260C6
:1003A00084BD84B5816084BD85B5826085BD85B519
:1003B000816085BDEEE6F0E0808181608083E1E8C8
:1003C000F0E0108280818260808380818160808300
:1003D000E0E8F0E0808181608083E1EBF0E0808103
:1003E00084608083E0EBF0E0808181608083EAE7D5
:1003F000F0E080818460808380818260808380815E
:10040000816080838081806880831092C10008951C
:100410008E3008F08E5087702091000140E4249FB8
:1004200090011124822B80937C0080917A0080645B
:1004300080937A0080917A0086FDFCCF209178002D
:1004400030917900932F80E0AC01422B9A01C901D1
:100450000895833069F028F48130A1F0823011F5DD
:1004600014C08630B1F08730C1F08430D9F404C0B4
:10047000809180008F7703C0809180008F7D809372
:100480008000089584B58F7702C084B58F7D84BDC8
:1004900008958091B0008F7703C08091B0008F7D68
:1004A0008093B0000895CF93DF9390E0FC01E4586F
:1004B000FF4F4491FC01E057FF4F8491882341F1A5
:1004C00090E0880F991FFC01E854FF4F259134916B
:1004D000D90182559F4FFC0185919491C82FD92F46
:1004E0009FB7F8948C91611106C0409584238C933A
:1004F0008881842308C0623041F4242F2095822310
:100500008C938881842B888302C0842B8C939FBF1B
:10051000DF91CF9108950F931F93CF93DF931F9295
:10052000CDB7DEB7282F30E0F901E859FF4F8491AD
:10053000F901E458FF4F1491F901E057FF4F04917E
:100540000023C9F0882319F0698383DF6981E02FD4
:10055000F0E0EE0FFF1FE255FF4F85919491DC0113
:100560009FB7F8948C91611103C01095812301C04D
:10057000812B8C939FBF0F90DF91CF911F910F9193
:100580000895CF93DF93282F30E0F901E859FF4F0A
:100590008491F901E458FF4FD491F901E057FF4FDE
:1005A000C491CC2381F0811154DFEC2FF0E0EE0FE9
:1005B000FF1FEC55FF4F85919491DC018C918D23A9
:1005C00021E030E011F420E030E0C901DF91CF916B
:0A05D0000895F89400C0F894FFCFDE
:0A05DA000108090A0B0407060500DA
:00000001FF
