:100000000C94240C0C944C0C0C944C0C0C944C0C38
:100010000C944C0C0C944C0C0C944C0C0C948631A1
:100020000C944C0C0C944C0C0C944C0C0C944C0CF0
:100030000C944C0C0C944C0C0C9457340C944C0CAD
:100040000C94B7350C944C0C0C947A370C94C8373C
:100050000C944C0C0C94C1300C944C0C0C944C0C27
:100060000C940E350C944C0CB4000000FF00000002
:100070000000C800FF03FF00FF000700FF00FF00B3
:10008000000608100A07FFFFFDF7EDF304FA0EDA89
:10009000B1A99FA5A29EA4AAA2A6978BA4C6D8E5A3
:1000A000E8F700000C151C202A333E48463A2A1F68
:1000B0001205FDF8F2EBE6DED8D0CDC2BCC9D7E41C
:1000C000EEF7010B0F141B222931393E484E4F49E0
:1000D0003D2E1F0F03F8F1ECE4DCD4CFC9C4BFBD43
:1000E000B4B0BED0E0EDF6010B111821292F363B3C
:1000F00040454B5358574F4132221305F9EEE5DF87
:10010000D8D1CBC6C1BDB9B6B3B2ADAFC0D3E3F0A1
:10011000FA0610171F272E343B4144484D51545ABC
:100120005D5A53473A2A1B0BFDF1E7DED8D1CBC409
:10013000BFBBB8B5B2AFADACACADACB4C7DAEAF7E3
:10014000020E171E262E353B42474A4E5155585B2C
:100150005C5D5F5F5A51453829190AFDF2E7DDD42D
:10016000CDC7C1BDB8B3AEABA9A8A7A6A5A5A5A785
:10017000ABACB5C8DBEBF7020D161D252C343B42AA
:10018000464A4E5256595C5D5D5D5E5E605F5A51F7
:10019000463A2E211305F7EBE0D7CEC5BEB8B2AE76
:1001A000A9A6A29F9C9B9B9B9C9D9FA1A3A6AAAE38
:1001B000B2B6C1D5E7F6020B151C232A31383F45EC
:1001C0004A4F53575B5F6264656566666666656342
:1001D00062605A52493D32261A0E02F6EADFD4CA4C
:1001E000C2B9B2ABA5A09B989592908E8D8D8F9041
:1001F0009396999CA0A4A8ACB0B5BABFC5D4E6F7B5
:10020000040E1720272D343A41494F55595E626636
:10021000696C6D6E6F6F6F6E6D6B69676563626041
:100220005C5750483F362B21170D03F8EDE2D7CD30
:10023000C4BBB3ABA39D97928F8C89878685858538
:100240008586888A8C8F9296999C9FA2A5A8ACB02F
:10025000B4B8BDC2CDDFF0FF0B151F282F363E45C9
:100260004D545B61676C7175797B7C7D7D7D7D7D97
:100270007B79777472706D6B686663615E59534CFD
:10028000443B32291F150C02F8EEE4DACFC5BCB3AB
:10029000AAA39B958F8B87848281808080828385AF
:1002A000878A8C8E9194979A9DA1A4A7ABAEB1B486
:1002B000B7BABDC0C4C7CCD1D6DFECFA08131D2530
:1002C0002C33383E444A50565A5F63686C6F7273E1
:1002D00074757575757473727170706F6E6C6B690F
:1002E000676664625F5C5956524D47403830292139
:1002F00019100800F8F0E8E0D8D0C8C0B9B2ABA433
:100300009F9994908D8A888785858585858687883D
:10031000898B8C8F90929395989A9D9FA2A5A7AA5E
:10032000ACAFB1B4B6B8BBBDC0C4C9CED6E0EDFA6F
:1003300006111A232A31373E454B51575C61666BD3
:100340006F7376787A7C7D7E7E7E7D7C7C7B7A790D
:10035000777675747371706E6C6A6765625F5B57F0
:10036000534F4A453F39322B241D150E06FFF8F036
:10037000E9E2DBD3CCC5BEB8B1ABA59F9994908C14
:100380008885838280808080808182848587898B34
:100390008D8F91939596999B9EA0A3A6A9ACAFB281
:1003A000B5B7BBBEC1C4C7CBCED3D8DEE5EEF8032C
:1003B0000E171F272E343A3F454A5054595D616548
:1003C000686B6E70727475767777777676757574FC
:1003D0007372716F6E6D6C6A696664615E5B5753B0
:1003E000504C47433F3B36312C27221C17110B053D
:1003F00000FAF5EFEAE4DFDAD5D0CBC6C1BCB8B37A
:10040000AFAAA6A29E9B9896949291908F8F8F8F61
:1004100090909193949597999B9D9FA1A4A6A7A92D
:10042000ACAEB1B3B6B9BCBFC1C4C7C9CCCFD2D5CD
:10043000D8DBDFE3E8EDF4FB040E171F272E343979
:100440003F44494D5156595D606366696B6C6E6FF0
:1004500070717171717170706F6E6D6C6B6A6867BD
:10046000656462605E5C5A5753504C4844403C3867
:1004700034302C28241F1B17120D0904FFFAF5F045
:10048000ECE7E2DEDAD5D1CDC9C5C1BEBAB6B3AFAD
:10049000ACA8A6A3A09E9C9A999796969595969699
:1004A0009798999A9C9E9FA1A3A5A7AAACAEB0B21B
:1004B000B4B6B9BCBFC1C4C7CACDCFD2D5D8DBDDB5
:1004C000E0E4E7EAEEF2F7FD040B131B232A3137D1
:1004D0003C41464A4E5255595C5F61646667696AA1
:1004E0006A6B6B6B6B6B6B6A6A6968676564636187
:1004F0005F5E5C5A575553504E4B4744403C38342E
:10050000302C2824201C1814110D090501FDF9F5C3
:10051000F1EDE9E6E2DEDBD7D4D1CECAC7C4C1BE75
:10052000BCB9B6B3B1AEACAAA8A6A5A3A2A1A09F20
:100530009F9F9FA0A0A1A2A4A5A7A9AAACAEB1B35A
:10054000B5B7B9BCBEBFC2C4C7CACCCFD2D5D7DA43
:10055000DDDFE2E5E8EAEDF0F3F7FAFE03090F1656
:100560001C232A30353B4044484C505356595B5E5F
:10057000606163646565666666656564646362613F
:100580005F5E5C5A585654524F4D4A4744423F3C76
:100590003835312D2925211D1A16130F0C09060394
:1005A00000FDFAF7F4F0EDEAE7E4E1DEDBD9D6D3BB
:1005B000D1CECCC9C7C5C2C0BEBBB9B7B5B4B2B144
:1005C000B0AEADACABABAAAAAAAAABACADAEAFB164
:1005D000B2B4B5B7B9BBBDBFC1C3C6C8C9CBCDCF17
:1005E000D2D4D7DADCDFE1E4E6E9EBEEF0F3F5F8BC
:1005F000FBFE02060A0F141A20252B30353A3E4224
:1006000046494D50525557595B5C5D5E5F5F5F5F79
:100610005F5E5E5D5C5B5A58565553504E4C494682
:1006200043413E3B3835322F2C2825211D1A171304
:10063000100D0A070402FFFDFBF8F6F3F1EEECE9FA
:10064000E7E4E2E0DDDBD9D7D4D2D0CECCCAC8C74C
:10065000C5C3C1BFBEBCBBBAB9B8B7B6B6B5B5B4F1
:10066000B4B5B5B6B7B7B9BABBBDBEC0C2C4C5C7CD
:10067000C9CBCDCFD1D2D4D6D8DADDDFE2E4E6E9FA
:10068000EBEDEFF2F4F6F8FBFD0003060A0E12178D
:100690001B20252A2E32363A3E4144474A4C4E50C2
:1006A00052545556565757575757565555545251F9
:1006B0004F4D4B494644413E3B393633302D2A2875
:1006C00025221E1B1815120F0C0A07050200FEFC3E
:1006D000FAF8F6F4F2F0EEECEAE8E6E4E1E0DEDC6B
:1006E000DAD8D6D4D3D1CFCECCCAC9C7C6C5C4C236
:1006F000C2C1C0BFBFBEBEBDBDBDBEBEBFC0C1C208
:10070000C3C4C6C7C9CACCCDCFD1D3D4D6D7D9DA02
:10071000DCDFE1E3E5E7E9EBEEEFF1F4F5F8FAFC15
:10072000FE000205080B0E12161A1E2226292D3075
:1007300034373A3D3F42444648494A4B4C4D4D4E72
:100740004E4E4D4D4C4B4A4947464442403D3B3846
:100750003633302E2B282624211F1C191614110E77
:100760000C0A07050301FFFEFCFAF9F7F5F4F2F0B5
:10077000EEECEAE9E7E5E3E1E0DEDDDBD9D8D6D56A
:10078000D3D2D1CFCECDCCCBCAC9C8C8C7C6C6C6B6
:10079000C5C5C5C6C6C7C8C8C9CBCCCDCED0D1D3B8
:1007A000D4D6D8D9DBDDDEDFE1E3E5E7E9EBEDEF39
:1007B000F0F2F4F6F7F9FBFCFEFF01030507090B65
:1007C0000E111316181B1D1F2123252728292B2C3A
:1007D0002D2D2E2F2F2F2F2F2F2E2E2D2D2C2B2A40
:1007E000292827252422201F1D1C1A18171514122A
:1007F00011100E0D0B0A0907060504030201000083
:10080000FFFEFEFDFCFCFBFBFAF9F9F8F7F7F6F644
:10081000F6F5F5F4F4F4F3F3F3F3F3F2F2F2F2F2A3
:10082000F2F2F2F2F2F2F3F3F3F3F4F4F4F5F5F595
:10083000F6F6F7F7F8F8F9F9F9FAFAFBFBFBFCFC26
:10084000FCFDFDFDFEFEFEFEFFFFFFFFFFFFFFFFC5
:10085000FFFF0000FFFF0001FFFC0100FD0AFBF9A4
:1008600003F50705F7E00E53461EECCCBBB0AFB165
:10087000B3BFCADED9CEE004294962677171767CC4
:100880007666482C12F9DECBBCB2B1B1BBC2C9D579
:10089000DEE5F4F4FBFAFA07FFFF020B1521313B0A
:1008A0003E423F423B38332A29211B171A08FCEAF3
:1008B000D4C5B0A59E9A949AA1A5B0BCC8D1DAE3DC
:1008C000ECF6FCFF0C0F131E1C171421212D323ADD
:1008D0003E42433D3C332E291B16170D080206F7F6
:1008E000F1E8DFD4C9C9C7C4BEC4BEC3C6CED4D91B
:1008F000E5EEF8FD070C141518151619171A19143A
:1009000011160D05FF0C08030F10151B27252A2EA5
:10091000282625211E1C10100E020E010505FCFEC6
:10092000FD00EDF5F0DCD4D6CDCBC4BFC0BFC6C34F
:10093000C2D1D0D6E0E1ECF1FAFC0108110A080EB0
:100940001214151915181E1D1918171923262525F7
:1009500024272530271F1A1B1D160F020406110617
:100960000004FEF1ECEEE8E3E0DCDEE9DEDBD7DDFF
:10097000E6E2DEECEAEBF1F0FFF702000501090B1D
:10098000010CFE0607000100FF03FFFE090A010A31
:100990000E1B1A1D181A2F25221D1A222615211B7F
:1009A0000C141810130F0C06F807F6F6E5E5DAC973
:1009B000D9D1C2C3C6C7D5C2BCC0BEC8DFDADFE763
:1009C000EAF8F0F2FA05000311FE1317101B1A20C3
:1009D0001E2616311E1C292D2B1E382F25282C0DC6
:1009E000311B0F17051708120D0C02FD02F8F1EF6D
:1009F000EAE9EEDAD4DFE5E7D9D5E1EADAD5DAE8F3
:100A0000F5F3EFE30102F9F1FF05F4FEFD02EBFD62
:100A1000FCFEF8ECFF0107050A0B0E1827161B1A3F
:100A200016352523180F281820190D1E1E0C0E1917
:100A30000D08F8F9F3F4F7E7F1E4DAD8DCE1CACC11
:100A4000DDDBD4DADAE0D4E8E2EAE6ECFCE909FD41
:100A5000E7F50FF712FF0E0B0B1D121A0A220D1FDE
:100A6000112010213011102D2204240323080B190A
:100A700005141D100A07FE07FAF8E504F0EEE7E892
:100A8000F9F0ECE7E8F3EFE1FAEFEDF101F0F9F15D
:100A900001FEEE02FBFC03F6EBF6F20DFBF7DEF6D1
:100AA000050108F91307141313180F0D16140E1D62
:100AB0000912160A1D0D04FF121707050C02F20990
:100AC000F8EEECE5E7F0EBE2EDDDE7EBEDF8ECE27C
:100AD000DBF3F5E7ECF4F005FEE5FCFBF70C0A05AB
:100AE00005170CF424051012000B010A18150C252B
:100AF0000A131510050E1013010010FE161803FC42
:100B00000E07FFFDFAF0F500FDE5FD03ECF5FFEE45
:100B1000EAFDF6F3F1F7F7F5EAF0FBFBF40902FA68
:100B2000F5F901F9FDF4F6F80EF301F50D0CFB0CE7
:100B3000F6171B0C1118150D08170A1907020A0ED3
:100B40000D07070C0009FCFE0AE7F8EAF5E1F2EEF2
:100B5000E8F5E8E4ECFBF6EEE7ECFBF9FEF3F4F77E
:100B6000F90DF5F8F70D03FD1213F40717F7FE0B57
:100B700006080B07190BFF02051710011D0C0405D1
:100B80000F0A0310020C0911050600F307FEF6FC1C
:100B9000F203F2EEFCE105F8F3FAE604F6F9FAF9ED
:100BA000FDF609F9FAF3F101FFF201F5F40CF1FC9D
:100BB000FCFC0606F40407FF0B0B0AFFFB112401E3
:100BC000F81407001E04041AFF0B0C050C0207FEA4
:100BD000FCFF01F7EEEEF2F5F2F0F4F5E8F7F2EDD6
:100BE000FFF7EBF5FDF304F8EEF8F30EF405090159
:100BF0000CFCFC0808FA0BFD020908F906051006B2
:100C0000F50D0B0DFB0F070E0202080418FD010580
:100C1000020B0C0BED01FDFA08F40CF8F5F8F0FBF3
:100C200005F9FBEF00FDF7FBEF01FA0BF70100FE02
:100C3000F4F903FBEEF301F6FFF300F201FDFB060E
:100C4000F70506FF07070504050C04040D09050B4D
:100C50000808080708FF010806FE0205FAFBF6FD72
:100C6000FFFAF4FBFEF8F8F9FEF9FDFBFEFFFDFAD2
:100C7000FD00FFFE0000FFFEFF00FE00FF00FF0082
:100C8000FF00000004FFF112FCFA0FF706F003006A
:100C9000FF00FD1000FCEE0DF9FB04030A020FF942
:100CA0002107F612E502FD10FBE1FBEF08EAFAF876
:100CB000F509F701F7F6FD061B06FFF3E906F41048
:100CC000051809080EF705EC0AE7FBF404F5EF0830
:100CD000F70BEE17F70E00090B0410EA0DF90CF6EE
:100CE00004E6EE03F90EEF03FF12FB0B0E0007F113
:100CF00008F9FBFBFEF9EEFDFC04FCFE0B0C040105
:100D000003F8F3FE0207000B0601FDFF0901FFFADD
:100D1000FFFD0BF4FEF6FC020404FD0CFA04E904EA
:100D200008FC07FAFEFFFCF5F6F606FBFB03FF03E3
:100D300009FF0200000CFD04FDFEFA0C00020FFF8B
:100D400006F706FCFFFDF0FFFCFCFEF9F9080401C4
:100D50000802FB00F801050600F501F40008FAFDA1
:100D6000FDF9FF03FB05FC0410F908040107FAF480
:100D7000F9070101FD00010201F7FB07FDFAFDF98A
:100D800004FE0807000B01FBFDF5F705FDFDFCFD6A
:100D900005020AFAFD08F9F8FE03FF050201030245
:100DA0000801FDFEF9FD01FDFF0201FAFC00FB0157
:100DB0000101010202F90106FEFD0702FFF7FA0335
:100DC000FE01FFFFF90109FFFD0306FB04FDFF0320
:100DD000F3FD0205FB02F80301FC02FA08F7010526
:100DE000FBF9FF04FFFD0400FDFFFF04FFFF030408
:100DF0000101F90406FEFCFC0002FEFD03F902FEFF
:100E0000FFFE0200FBFAF903FE05FA0402FE07FFEB
:100E1000FE0100FB02FD03000204FB010203FD03CF
:100E2000FDFE03FCFFFE01FCFAFF04FDFDFEFB01DD
:100E3000FD06FE00020100FE01F705FB0404FE06AC
:100E4000FF00FC0402FFFF01FDFEFFF901FFFA01B4
:100E5000FDFD02FB03FEFD03FFFE01010000000299
:100E6000FE010500FE03FE00FE00FFF900FFFFFB90
:100E700002000200FE01FD00FEFCFF0301FFFDFE7B
:100E8000FFFF01FE010302020000FE03FBFD02FF63
:100E9000FDFD0501FFFF000100FDFE0001FF000256
:100EA000FEFFFE03FDFE01FEFFFF0301FEFEFFFF4E
:100EB000FF00FF000100000403FEFFFE000000FE33
:100EC000FB00000001FDFEFFFEFD00FEFE01FE0036
:100ED0000001FF000102FEFF0000020101FF02FF0E
:100EE00000FF01FE00FFFD01FE00FEFF0000FFFF0E
:100EF0000000FFFF00000000FF0000F912EFF118F2
:100F000011E7EC030C21F7F3EF060012CA17339632
:100F10003A6DCB97E1116A2AE0E6D0051B01C9EED4
:100F20004850DC9CD3FA203EF5EE1FF6CFE625357F
:100F3000E0CAFE033531E2EB13E6C1E9314302FEBC
:100F40000FEEFEDAAE03410FF8112F10D4DAE3EC06
:100F50001909E7363EE7CFE71207E301081834F135
:100F6000C90A0DD3E3113124FA00F7FE01BBCE33D9
:100F700027FC0D1C16F5DAD5EB1020EA034607D541
:100F8000E2F30E00F6030A310EC8EB19EDD7031990
:100F9000301AF1EAF40CEAC00B320206101408EF22
:100FA000D0DC092302E92826E6E6ECF61001F80673
:100FB0002124DFCF0A03E6FF09162C08E4ED02FE28
:100FC000D3E82C15000B03080AE3D3F51817F20633
:100FD00025FDE9F2E90415F6FA182600CFEC08F42D
:100FE000FC0C032120EAE4FE04EDDD0D20060A02DC
:100FF000F910FFD4E80F1803F9120EF2F2EDF11810
:1010000009EE0B1F10E7DDF9FEFD0C010C2600E1D7
:10101000F603F8E9F617130A06F00113E8DC0412E8
:101020000B00FF0D02F5F1E8081DF6FA1610F9E5C0
:10103000EBFC020904FE1A17EBE900FCF4F40314BC
:10104000110AF5F00F01DEF70E0C06FC0107FFF2A6
:10105000EAF71D0BF1080E00F7ECF1010706FB0E95
:101060001EFDE5F7FFF8FBFA06140FFDEEFE0CED92
:10107000ED0A0B0A03F70005FCF0EF0C16FBFE0C63
:1010800000FCF7EBFB0B06FDFF170FEDF2FCF60083
:1010900000FB0D1404F3F507FDEC000B090AFBF24D
:1010A0000206F7F1FE1208FC0602FAFEF1F0090B47
:1010B000FFFC0813FDF0F9F7FC06FB00140BF7F337
:1010C000FE04F7F806060A05F2F809FDF3FA080D22
:1010D000020102FBFFFBECFF0F03FD010B07F7F61C
:1010E000F8F90602F90A11FDF4FA0000FAFF040704
:1010F0000BFBF00403F6F8020B0701FEFDFF00F105
:10110000F30B0B0000030500F8F8F90306F8000FD5
:1011100006F6F9FC0001FDFF040904F3FA06FAF8EB
:10112000FF050906FEFAFD02FAF1010C03000200B8
:1011300003FEF6F8FF08FFF90809FBFAFBFB0302C0
:10114000FE010506FBF60300F9FD01040902FBFBA5
:10115000FFFFFAFB04040001FFFF01FDFBFF020299
:10116000FDFF0200FEFFFE0001FFFF000000FFFF89
:1011700000FFFFDCE6550BE0FC05F4FD08FD04056F
:10118000FA05FD0006F6FBFE060804F5FBFEFE016F
:101190000803FC04F7FF03FDFEFF0400FEFFFF0150
:1011A000FFFC00000200FF00FDFF0101FFFFFDFC4E
:1011B000FF02030300FEFAFBFE020304FE00FD0231
:1011C000FF01FF01FE00FEFFFEFE3CC1BB0C104212
:1011D0002E0FE4D7EE1303EA0B14EEFD17FCECFA26
:1011E000F1FA0AF810110105F5F3010D07F8F5FC05
:1011F000FE00040302FE00FCF7F904060300F803F6
:1012000003FE03FEFD02000200FEFAF8FEFF0003EB
:1012100001FCFBFEFE05050200FEF9F8000705FED5
:10122000F6F6FE06090605FBFAF007D1D54D40FBA0
:10123000CAF510E90C1FF0F9100CFAD1DD0F1D1BD7
:10124000180DF3E4EBF70B101506F7E7F50A08069F
:10125000FEFEFA0904F4F6FF0202030605FDFAF0A9
:10126000FC070C07F8F1F306030C01FEFCFE02017B
:10127000FBFBF9F2FA040D0A0CFC00EE05BFE335A6
:101280001B09230BD608FF10E3DCEF211C0A08EC36
:10129000FF070DF0F4FE0D1010D9CCFB182E18002E
:1012A000E8F112F8F3EF010507100B06F6F4E5FC80
:1012B0001417FDF6F707F4E5FB1E1500EBE805FE35
:1012C000230DE1F40EEFE70F15FD000B0701E4EC31
:1012D00019FBFF040005FA10FFF6F302F904FBE422
:1012E00000140617FFD9EEFA121A0EFA0AF8F5FDE5
:1012F000E4F3111B10F9E9E91119F903FEF3FEF704
:101300000403ECF815150D00F703F1F1EAFD0819D7
:101310002002E7DAEBFE090A110C12FEF6F50302D1
:10132000F3F907F4E91606030E04F8E4F3060909D5
:101330000AF3F00606131208F9F5E5E40110130F9D
:101340000DFDE4D9F50F131510F8F4F1FCF8EFFCDE
:1013500010120E07FFEFE706FD110A01FCF9F5FA7E
:101360000AF4FF0C0D0704E8E50204040E0CFCEC83
:10137000F3071307F4F000FF040F080FFFF3F60163
:10138000FD02FAFAFD02100905EDEDFD0AFAFC0571
:1013900001090D08F3E9EBFF0C090801090CFCFA3F
:1013A000F0F4010A0F03F9F2E8F713090204060149
:1013B000ECEE02110AFEFBFC0B070A05F5FAFB0432
:1013C000FBF7040C070005F7EAEEEFF60712161319
:1013D0000BF7F3F6F7FC01010405FD01F8040BFE21
:1013E000FBFDFAF2F7070A090900FF01FAF4020F00
:1013F0000DFDF5F1F0FF0F0E0D0BF7E6E1FA0F1002
:101400000801FCF70506FBFBF7F4FD030C161607B5
:10141000FBEEEFFAFC050809FDFEFBF6F5FA0609FE
:101420000A0400FAF6FB0303FFF7F1F80710140CA7
:10143000FEF1ECF800030C0400FFF8FD0706FA05C6
:101440000700FAF8FB000803F8F2F2F4F800090EBE
:10145000141507F8F6F3FB0701000603FFF9F9FB83
:1014600005080405FCF1EEFB060B0CFCF3FF050080
:101470000102FC02070602FDFBFCF8FC040704FB6A
:10148000FDFD010601FE00FBFD00FE03FCFC030266
:10149000070602FBFFFDF4EEEEFB0C111109F4F15F
:1014A000FB0407080701F7FE0202040100FDF8F63D
:1014B000FAFC050D08FFFDF6FB02FDFFFF01070624
:1014C000FDFBFD0203020301FDF8FAFFFFFBFB0237
:1014D000090D08FEF7F5F6F9F9FE080F0F07FEF7FC
:1014E000F6FD00FFFE010301FEFCFEFE020300FD0F
:1014F000FC020503FEFAFD0202010202FFFDFBFAF7
:10150000FE00FFFAFB02060705FFF9F8FD010203E2
:10151000020100000000FFFDFE0000010000FFFED0
:10152000FDFEFF01000000FFFFFF00FFFFFF0000C6
:1015300000FFFFFFFFFFFF0000000006F818D218B1
:101540004EBF88B70E507F73532905DFC0A8999608
:101550009AADBED800100D121F354759636B6A66ED
:101560005A4A351E08EEDED3C4B3A59B9796999FC1
:10157000A8B4C1D3DDF50C0E101B30485D6C757737
:10158000736B5D4C38240CF8EDDCC8B6AAA29F9FA3
:10159000A2A8B1BCCCD7E5010B0A0F20364C5D6880
:1015A0006D6B65594B38250FF9EDDECBB9ABA39FB9
:1015B0009EA1A6AFB9C7D7E1FA0C0D101B30465952
:1015C000666E6E6A6052412E1A02F3E6D4C0B1A76D
:1015D000A1A0A1A6ADB7C2D2DCEF070C0C14263B2C
:1015E000505F686C6962564633210AF7EBDAC7B67A
:1015F000AAA3A1A2A6ABB5C0CFDBE8010D0C101EBB
:10160000334859646A6964594B392712FDF0E2CFB7
:10161000BCAFA7A3A2A5AAB3BDCAD8E2F80A0C0E14
:10162000192D4153606768645A4D3D2A1701F2E64F
:10163000D5C2B3AAA5A4A7ACB3BDC9D8E2F4090E1C
:101640000E1525394B596265625B4F412F1D08F518
:10165000EADBC9B8ADA7A5A6ABB1BBC5D4DFED0425
:101660000D0D111F3144545E63625D5345352310E7
:10167000FBEEE2D1C0B2AAA7A7AAB0B8C2CFDCE8FD
:10168000FD0B0C0F192A3D4D5960615D55493928F4
:101690001602F2E7D8C7B8AEA9A8AAAFB6C0CBD990
:1016A000E3F6080B0C14243647555D5F5D574C3E3E
:1016B0002D1C09F6EADECEBEB2ABA9AAAEB5BEC8F5
:1016C000D6E0F0030A0B101E2F414F595D5D574EB7
:1016D00041322110FEEFE4D6C5B7AEAAA9ACB2BA2A
:1016E000C4D0DCE9FC07090E192A3C4B565D5E5B51
:1016F000534739281704F3E7DBCBBCB1ABA9ABB038
:10170000B7C0CCD8E3F603070A1423354551595C1A
:101710005A544A3D2D1C0BF9EBE1D3C3B6AFABAC29
:10172000B0B6BFC9D5E0F00005080F1C2C3B464EF3
:1017300051514C44382B1D0EFFF2E9DFD3C8C1BE16
:10174000BEC0C5CCD4DDE5F0FC020509111C273074
:10175000373A3A38322B22180D03F9F2ECE4DCD692
:10176000D3D2D4D7DBE0E6ECF3FB00020409101778
:101770001D21242423201C16100A04FEF9F5F1ED86
:10178000E9E7E6E7E8EBEEF1F4F8FCFF0001030619
:10179000090C0E0F0F0F0D0C0907040200FEFCFBD5
:1017A000FAFAF9F9FAFAFBFCFDFEFEFFFF000080F1
:1017B000C0408080C0408080C0408080C040800C9D
:1017C0000D080B110E130706020503040F1012007B
:1017D00001020403050607010000020000030004E3
:1017E000000500000000240027002A00000000007F
:1017F000250028002B0000000000230026002900FF
:1018000004040404040404040202020202020303A6
:1018100003030303010204081020408001020408AE
:10182000102001020408102000000007000201003F
:1018300000030406000000000000000062101826EB
:101840000331E63134391D2611241FBECFEFD8E015
:10185000DEBFCDBF11E0A0E0B1E0EEECF9E702C0E1
:1018600005900D92A634B107D9F717E0A6E4B1E0D0
:1018700001C01D92AD3CB107E1F718E1C6E4D8E123
:1018800004C02297FE010E949F3CCC33D107C9F7C8
:101890000E948A390C94DA3C0C940000A0E0B0E07D
:1018A000E4E5FCE00C94AB3CEC01A880B980CA8074
:1018B000DB80A114B104C104D10441F484E2A82E58
:1018C00089EDB82E8BE5C82E87E0D82EC601B5016C
:1018D0002DE133EF41E050E00E94823C27EA31E401
:1018E00040E050E00E940E3C7B018C01C601B50136
:1018F0002DE133EF41E050E00E94823CCA01B90182
:101900002CEE34EF4FEF5FEF0E940E3C6E0D7F1D0B
:10191000801F911F97FF04C0615070408040904825
:10192000688379838A839B839B01AC015F77B901CC
:10193000CA01CDB7DEB7EAE00C94C73C0E944E0C5A
:10194000089580E091E00E944E0C0895609300019C
:10195000709301018093020190930301089560E068
:1019600070E020C0F901E05FFE4F8081480F511DFB
:101970002F5F3F4F26173707ACF3FB01EA5AFD4FA5
:10198000CA0123E0959587952A95E1F78083FB01AD
:10199000E45AFD4F4770507040836F5F7F4F663051
:1019A000710529F040E050E020E030E0E3CF0895F9
:1019B0008F929F92AF92BF92CF92DF92EF92FF925F
:1019C0000F931F93CF93DF9370E0FB01E05FFE4F17
:1019D0009081892E9924C0E0D0E050E020E030E0F2
:1019E000BCE5AB2EB2E0BB2EA60EB71EA6E5CA2EF6
:1019F000A2E0DA2EC60ED71E90E0BC01660F771F5C
:101A0000680F791F660F771F6D597D4F41E0E42EF7
:101A1000F12C012D112D40C0F5014081C901840F29
:101A2000911D8031910524F04051420F52E007C0D2
:101A3000089724F04850420F51E001C0420FF601D0
:101A40008081FB01E50FF11DE80FF11D808190E021
:101A500002C0959587954A95E2F780FF0DC0D801A1
:101A6000C701022E04C0880F991FAA1FBB1F0A942A
:101A7000D2F7C82BD92B0EC0D801C701022E04C043
:101A8000880F991FAA1FBB1F0A94D2F780959095C3
:101A9000C823D9232F5F3F4F281539050CF4BCCF3D
:101AA000CE01DF91CF911F910F91FF90EF90DF90CA
:101AB000CF90BF90AF909F908F9008956F927F923C
:101AC0008F929F92AF92BF92CF92DF92EF92FF924E
:101AD0000F931F93CF93DF933A0170E0FB01E05F18
:101AE000FE4F9081892E992430E040E050E0FCE5E3
:101AF000AF2EF2E0BF2EA60EB71E90E0E6E5CE2E8A
:101B0000E2E0DE2EC60ED71EEC01CC0FDD1FC80FA3
:101B1000D91FCC0FDD1F11E0E12EF12C012D112D6D
:101B20004CC0F5012081CA01820F911D80319105C1
:101B300024F02051240F32E007C0089724F02850E9
:101B4000240F31E001C0240FC301042E02C095957B
:101B500087950A94E2F7632F70E080FF16C0F601C4
:101B60008081FB01E80FF11DEC0FFD1FED59FD4FCA
:101B7000D801C70104C0880F991FAA1FBB1F2A954F
:101B8000D2F72081282B208316C0F6018081FB012B
:101B9000E80FF11DEC0FFD1FED59FD4FD801C701F6
:101BA00004C0880F991FAA1FBB1F2A95D2F78095E2
:101BB0002081822380834F5F5F4F481559050CF4C5
:101BC000B0CFDF91CF911F910F91FF90EF90DF90F9
:101BD000CF90BF90AF909F908F907F906F9008951F
:101BE000DF92EF92FF920F931F9396E0699FB001EF
:101BF00011249B0103E0359527950A95E1F7D22E34
:101C0000667070E020E030E090E0AC01440F551FBA
:101C1000480F591FB3E0440F551FBA95E1F7A1E0F3
:101C2000EA2EF12C012D112DFA01ED0DF11DE957D0
:101C3000FD4F808190E0062E02C0959587950A940D
:101C4000E2F780FF0CC0D801C701022E04C0880F44
:101C5000991FAA1FBB1F0A94D2F7782B0CC0D8017A
:101C6000C701022E04C0880F991FAA1FBB1F0A9428
:101C7000D2F7809578236F5F683011F4D39460E0D9
:101C80002F5F3F4F2630310579F6872F1F910F9137
:101C9000FF90EF90DF900895DF92EF92FF920F9305
:101CA0001F93CF93DF9396E0699FB00111249B01AE
:101CB00053E0359527955A95E1F7D22E362F367099
:101CC00060E070E0C42FD0E090E0AC01440F551FFD
:101CD000480F591F93E0440F551F9A95E1F781E093
:101CE000E82EF12C012D112DCE01062E02C0959566
:101CF00087950A94E2F7ED2DF0E080FF12C0E40F23
:101D0000F51FE957FD4FD801C701032E04C0880F06
:101D1000991FAA1FBB1F0A94D2F72081282B20836A
:101D200012C0E40FF51FE957FD4FD801C701032E7C
:101D300004C0880F991FAA1FBB1F0A94D2F7809571
:101D40002081822380833F5F383011F4D39430E0C8
:101D50006F5F7F4F6630710539F6DF91CF911F912C
:101D60000F91FF90EF90DF9008950F931F93CF9303
:101D7000DF93809148038F5F8093480381508330C5
:101D800010F010924803809148038823B1F5CEE506
:101D9000D1E060E070E003E210E08881882339F14F
:101DA000FB01E05CFC4F8081882309F1609FF0011A
:101DB000619FF00D709FF00D1124E85BFE4F2285AE
:101DC00033854485558586819781A085B185820FAD
:101DD000931FA41FB51F82839383A483B58382813D
:101DE0009381A481B58182879387A487B5876F5F2C
:101DF0007F4FA3966530710581F6DF91CF911F91DA
:101E00000F91089508950895BF92CF92DF92EF92B7
:101E1000FF920F931F93CF93DF93B82E10E000E053
:101E2000C0E0D0E081E0C82ED12CE12CF12C3BC0E9
:101E30001F5F173010F00F5F10E0E02FF0E0EA595D
:101E4000FC4F828190E0012E02C0959587950A94FF
:101E5000E2F780FF0DC0D701C601022E04C0880F33
:101E6000991FAA1FBB1F0A94D2F7482B592B0EC0EB
:101E7000D701C601022E04C0880F991FAA1FBB1FDD
:101E80000A94D2F780959095482359232F5F3F4FAE
:101E9000261737076CF28B2D6C2F0E945E0D219652
:101EA000C630D10559F0FE01E05FFE4F8081682FFA
:101EB00070E040E050E020E030E0EACFDF91CF91E9
:101EC0001F910F91FF90EF90DF90CF90BF900895FA
:101ED0000F931F93CF93DF93C82FD0E0CE01837071
:101EE0009070892B09F05DC00FB7F8946091F701ED
:101EF0007091F80188E06030780708F48EC010E037
:101F000020E080E090E004C0660F771F881F991FD3
:101F10002A95D2F722E330E040E050E00E940E3CE8
:101F20003EE096958795779567953A95D1F720E1AC
:101F300030E0211B310904C0660F771F881F991FED
:101F40002A95D2F7609305027093060280930702E8
:101F5000909308020FBF2FB7F89480910E029091D2
:101F60000F02A0911002B09111028093F901909399
:101F7000FA01A093FB01B093FC012FBF8091F901FE
:101F80009091FA01A091FB01B091FC0180930102B4
:101F900090930202A0930302B093040281E0809325
:101FA0000D02CF70D070CD2B09F03DC00FB7F89463
:101FB0006091F7017091F80188E06030780780F156
:101FC00010E020E080E090E004C0660F771F881FDB
:101FD000991F2A95D2F724E630E040E050E00E94B5
:101FE0000E3C2EE096958795779567952A95D1F7C3
:101FF00020E130E0211B310904C0660F771F881FE4
:10200000991F2A95D2F76093050270930602809378
:102010000702909308020FBF06C018E028E071CFB6
:1020200018E028E0CFCFDF91CF911F910F91089555
:10203000EF92FF920F931F93F82EE62E042F122F8C
:102040000E94F00D282F112371F081E090E0A0E0B4
:10205000B0E004C0880F991FAA1FBB1F0A95D2F7D2
:10206000422F482B0EC081E090E0A0E0B0E004C019
:10207000880F991FAA1FBB1F0A95D2F7482F4095BA
:1020800042238F2D6E2D0E944C0E1F910F91FF90B9
:10209000EF900895FF920F931F93F82E00E00CC06D
:1020A0008F2D602F412F20E00E9418101F5F1630E7
:1020B000B9F70F5F003211F010E0F2CF1F910F91CE
:1020C000FF900895ECE5F1E01082B39682E0EE32E5
:1020D000F807D1F78AE192E06DE370E00E94932A5D
:1020E00088E392E00E94B32C08951F93182F8091EB
:1020F0003003882339F0812F90E083709070892B12
:1021000019F50AC080913E03212F30E0882371F039
:1021100023703070232B21F488E392E061E00FC03C
:10212000609117036E5F88E392E015C023703070F2
:10213000232B51F4609117036E5F88E392E00E94B5
:10214000012D112329F009C088E392E060E003C06B
:1021500088E392E067E00E94012D1F9108950F939C
:102160001F93CF93DF93C0E0D0E0082F10E0809161
:102170001C03882389F0C330D105F4F0CE018350CD
:10218000682FA8010C2E02C0559547950A94E2F7D6
:10219000417088E392E00EC0C330D1056CF4A80111
:1021A0000C2E02C0559547950A94E2F7417088E3DA
:1021B00092E06C2F0E944A2D2196C630D105B9F6C7
:1021C000DF91CF911F910F9108950F931F9385E792
:1021D00093E00E94382A809148038F5F80934803E0
:1021E000813428F01092480380E00E94680F88E351
:1021F00092E063E00E94742D882339F488E392E032
:1022000065E00E94742D8823A1F080911703482F68
:1022100050E0423051051CF040E050E002C04F5FFA
:102220005F4F4093170385E793E06DE021E00E9444
:102230003D2A88E392E064E00E94742D882339F4FB
:1022400088E392E066E00E94742D8823A1F08091DB
:102250001703482F50E04115510519F442E050E0B2
:1022600002C0415050404093170385E793E06DE072
:1022700021E00E943D2A609117036F5F88E392E09E
:102280000E94012D10E001E088E392E0612F0E949E
:10229000742D882339F088E392E0612F0E94882D05
:1022A0000093740388E392E0612F0E94B62D482FBB
:1022B00088E392E0612F0E944A2D88E392E0612F2B
:1022C0000E94CD2C8823B9F088E392E0612F0E9410
:1022D000ED2C612F665FAC0173E0559547957A95BB
:1022E000E1F785E793E021E00E943D2A88E392E050
:1022F00067E00E94012D1F5F133031F68091740357
:10230000882369F088E392E00E94C02D482F85E77A
:1023100093E06EE021E00E943D2A109274031F9129
:102320000F910895882309F445C0282F2095237024
:1023300086958695813051F0813028F08230E9F021
:102340008330C1F51FC060FD07C013C0862F90E029
:1023500083709070892B69F0622F70E080E090E0CC
:102360000E94CF3A611571058105910511F491E044
:1023700001C090E010923F031EC0862F90E087704E
:10238000907004C0862F90E08F709070892B69F058
:10239000622F70E080E090E00E94CF3A61157105F5
:1023A0008105910511F491E001C090E081E08093F6
:1023B0003F0301C090E0892F089585E793E068EF1F
:1023C00070E00E943C2808958AE192E00E948C2BE4
:1023D00081E080932F0308953F924F925F926F9216
:1023E0007F928F929F92AF92BF92CF92DF92EF92A5
:1023F000FF920F931F93CF93DF930E94D131AB01D4
:10240000BC018AE192E00E94292B8FEF8093220386
:102410009AE5C92E91E0D92E662477244301AA2497
:10242000BB2483E2482E512CD60114968C9114972C
:10243000882309F4B3C0F501E35EFC4F30801296A7
:102440008C9112971996ED90FD900D911C911C970F
:10245000882381F5A49CE001A59CD00DB49CD00DEF
:102460001124C85BDE4F8A819B81AC81BD818E15B2
:102470009F05A007B107D0F48A819B81AC81BD8103
:102480009D0144275527D601ED91FC91E20FF31FE2
:10249000E4912A813B814C815D818E859F85A8894D
:1024A000B989820F931FA41FB51F54C0E6011C8277
:1024B000E0E054C0A49CF001A59CF00DB49CF00D8C
:1024C0001124E85BFE4F82819381A481B581E816D7
:1024D000F9060A071B07A8F482819381A481B581BC
:1024E000E6012D813E814F815885820F931FA41FE5
:1024F000B51F8E199F09A00BB10B82839383A48310
:10250000B583A49CB001A59C700DB49C700D1124E2
:10251000685B7E4FFB0182819381A481B581CD01EF
:10252000AA27BB27E601E881F981E80FF91FE491AA
:10253000DB0112962D913D914D915C9115971E9660
:102540008D919D910D90BC91A02D820F931FA41F82
:10255000B51FEB018A839B83AC83BD832E2F33276A
:1025600027FD3095F501ED5DFC4F808190E0282737
:102570003927832D90E0FC012E9FC0012F9F900DE5
:102580003E9F900D1124892F990F990BAA2797FD33
:10259000A095BA2F680E791E8A1E9B1E0894A11C56
:1025A000B11C43E250E0C40ED51E56E0A516B1049E
:1025B00009F03ACFA4019301E4E0220F331F441F36
:1025C000551FEA95D1F7C901DF91CF911F910F9166
:1025D000FF90EF90DF90CF90BF90AF909F908F9043
:1025E0007F906F905F904F903F9008950F931F934F
:1025F000CF93DF93082F8A3010F460E013C088E394
:1026000092E060E041E00E944A2D88E392E061E0C0
:1026100041E00E944A2D88E392E062E041E00E949E
:102620004A2D61E0015087EF9FEF689F102D112424
:10263000100FC0E0D0E088E392E0612F40E00E94FC
:102640004A2D88E392E00E94DE2F66E970E080E088
:1026500090E00E94FF3588E392E0612F41E00E9404
:102660004A2D88E392E00E94DE2F66E970E080E068
:1026700090E00E94FF352196C330D105E1F6DF914D
:10268000CF911F910F910895FF920F931F93F82EF2
:1026900005E713E0C80160E00E94492AF092470173
:1026A0008F2D0E94F612C80167E27CE10E94B424DB
:1026B000C80162E07FE00E94AE24C80161ED7EE1C6
:1026C0000E94BA24C80163E07FE00E94C024C801D0
:1026D00068E374E10E94C624C80164EE71E10E94BF
:1026E000CC24C80160E374E10E94D224C8016BE2EB
:1026F00074E10E94D824C80164E274E10E94DE24DF
:10270000C80161E070E00E9409261F910F91FF90BF
:1027100008950F931F9308E312E0C80160E041E0C1
:102720000E944A2DC8010E94DE2F66E970E080E019
:1027300090E00E94FF35C80162E041E00E944A2D0E
:10274000C8010E94DE2F66E970E080E090E00E9400
:10275000FF35C80161E041E00E944A2DC8010E9496
:10276000DE2F66E970E080E090E00E94FF35C8014E
:1027700063E00E94012DC8010E94DE2F66E970E02F
:1027800080E090E00E94FF35C80167E00E94012DC3
:10279000C8010E94DE2F66E970E080E090E00E94B0
:1027A000FF35C80160E00E94012DC80160E040E0F3
:1027B0000E944A2DC80161E040E00E944A2DC801F4
:1027C00062E040E00E944A2DC8010E94DE2F1F9166
:1027D0000F9108950F931F93082F10E088E392E064
:1027E000612F0E94012D68EC70E080E090E00E9473
:1027F000FF3588E392E00E94DE2F1F5F183071F7EB
:1028000068EC70E080E090E00E94FF3588E392E0A1
:1028100060E00E94012D88E392E060E0402F0E947A
:102820004A2D88E392E061E0402F0E944A2D88E320
:1028300092E062E0402F0E944A2D88E392E00E94DD
:10284000DE2F1F910F910895109230038AE192E0DC
:102850000E94792C08958AE192E00E947F2C0895CD
:102860008AE192E00E946F2C81E080932F0308950B
:10287000CF93DF93EC0189818D3709F040C08A81C5
:10288000882349F4109247018A818F5F8A8385E704
:1028900093E070E030C0813009F588E392E067E0B2
:1028A0000E94012D88E392E00E94DE2F21E030E0BB
:1028B000F901EB59FC4FDE01A20FB31F8C9180830D
:1028C0002F5F3F4F2F30310599F7809118030E94F9
:1028D000040F88E392E00E94D72C11C08A3079F46B
:1028E00081E08093460185E793E00E94112685E709
:1028F00093E060E170E0AE0120E00E94D728DF9114
:10290000CF910895BF92CF92DF92EF92FF920F93F3
:102910001F93CF93DF9310923D0380913003882360
:1029200009F4D8C088E392E060E00E94C32C8823B9
:1029300089F188E392E060E00E94ED2C8C010C5E4E
:102940001F4F159507951595079588E392E060E070
:102950000E94F72CEC016496D595C795D595C7953F
:102960008AE192E00E94B82B0C171D073CF0081773
:10297000190704F18C179D07ECF006C0801791072A
:10298000CCF0C817D907B4F088E392E060E00E9469
:10299000DC2C10C088E392E060E00E94ED2CBC01CA
:1029A0006C5E7F4F75956795759567958AE192E0A6
:1029B0000E94A32B88E392E061E00E94C32C88234D
:1029C000A1F188E392E061E00E94ED2C8C010F5FA1
:1029D0001F4F95E0159507959A95E1F788E392E0EA
:1029E00061E00E94F72CEC01219685E0D595C79512
:1029F0008A95E1F78AE192E00E94952C90E00C170D
:102A00001D073CF0081719070CF18C179D07F4F00F
:102A100006C080179107D4F0C817D907BCF088E327
:102A200092E061E00E94DC2C11C088E392E061E05A
:102A30000E94ED2CBC016F5F7F4F15E07595679587
:102A40001A95E1F78AE192E00E94922C88E392E0E5
:102A500062E00E94C32C882371F188E392E062E077
:102A60000E94ED2C8C01159507951595079588E327
:102A700092E062E00E94F72CEC01D595C795D595C0
:102A8000C7958AE192E00E94222B90E00C171D0767
:102A90004CF0081719070CF48BC18C179D070CF428
:102AA00087C1CAC0801791070CF482C1C817D90723
:102AB0000CF47EC1C1C088E392E062E00E94ED2C7C
:102AC000BC0175956795759567958AE192E00E94BE
:102AD0001F2B6EC180913E03882309F462C18AE1F5
:102AE00092E00E947C2C882309F45BC1809117033B
:102AF000882309F050C088E392E060E00E94C32C74
:102B0000882369F088E392E060E00E94CD2C88235E
:102B100079F088E392E060E00E94DC2C09C088E351
:102B200092E060E00E94ED2C90933803809337038D
:102B300088E392E061E00E94C32C882369F088E377
:102B400092E061E00E94CD2C882389F088E392E036
:102B500061E00E94DC2C0BC088E392E061E00E94FF
:102B6000ED2C95958795959587958093390388E306
:102B700092E062E00E94C32C882309F055C088E3EC
:102B800092E062E00E94ED2C95958795959587954A
:102B900080933A030DC1813009F00AC188E392E0C5
:102BA00060E00E94C32C882369F088E392E060E033
:102BB0000E94CD2C882391F088E392E060E00E948F
:102BC000DC2C0CC088E392E060E00E94ED2C66E013
:102BD000959587956A95E1F780933D0388E392E0A8
:102BE00061E00E94C32C882369F088E392E061E0F1
:102BF0000E94CD2C882389F088E392E061E00E9456
:102C0000DC2C0BC088E392E061E00E94ED2C9595EE
:102C100087959595879580933B0388E392E062E0E2
:102C20000E94C32C882371F088E392E062E00E9446
:102C3000CD2C882309F4BCC088E392E062E00E94B6
:102C4000DC2CB6C088E392E062E00E94ED2C959502
:102C500087959595879580933C03AAC0809117032B
:102C60008B9DC0011124EF2CE80E88E392E06F2DBC
:102C70000E94C32C10911803882309F466C0809128
:102C80001903811709F087C088E392E06F2D0E9435
:102C9000ED2CAC01CE2DD0E0FE01E05FFE4F808137
:102CA000282F30E08B3050F4C601821B930B8A0131
:102CB00002C0159507958A95E2F708C02A50304062
:102CC0008A0102C0000F111F2A95E2F788E392E003
:102CD0006F2D0E94F72CAC01C05FDE4F8881282F3A
:102CE00030E08B3050F4C601821B930BEA0102C026
:102CF000D595C7958A95E2F708C02A503040EA0179
:102D000002C0CC0FDD1F2A95E2F7809118036E2DCB
:102D10000E94D80C0C171D073CF008171907DCF1AE
:102D20008C179D07C4F106C080179107A4F1C8173E
:102D3000D9078CF188E392E06F2D0E94DC2C88E3A8
:102D400092E067E00E94012D26C088E392E06F2D9B
:102D50000E94ED2C9C01EE2DF0E0E05FFE4F8081A3
:102D6000482F50E08B3050F4C601841B950BA9010D
:102D700002C0559547958A95E2F709C04A505040E0
:102D8000C90102C0880F991F4A95E2F7AC01812F53
:102D90006E2D0E945E0DF39493E0F91609F05ECF5C
:102DA00007C0FF2433E0B32E2AE0C22ED12C56CF29
:102DB000DF91CF911F910F91FF90EF90DF90CF9017
:102DC000BF9008952F923F924F925F926F927F92A1
:102DD0008F929F92AF92BF92CF92DF92EF92FF922B
:102DE0000F931F93DF93CF9300D000D000D0CDB7C7
:102DF000DEB7882E28E431E03E832D8383E293E022
:102E00009C838B8359E2452E53E0552EEDE1F3E090
:102E1000FA83E98340E4242E43E0342E66247724A9
:102E2000ED81FE818689882309F49FC1882029F0DD
:102E3000F1E08F1609F099C15FC180913E038823AC
:102E400009F4B2C18AE192E00E947C2C882309F443
:102E5000ABC188E392E060E00E94C32C882309F0B4
:102E600042C0DFB6F894ED81FE816081718180E01F
:102E700090E00E941D3B7B018C01609137037091B3
:102E800038036F5F7F4F882777FD8095982F0E94CA
:102E90001F3B20E030E040E85DE30E94AB3B9B013C
:102EA000AC01C801B7010E94AB3B20E030E040E834
:102EB00058E30E94AB3B20E030E040E857E40E943A
:102EC000AB3B0E94F13A23E230E0629EF001639E48
:102ED000F00D729EF00D1124E85BFE4F6687778738
:102EE000808B918BDFBE88E392E061E00E94C32C6F
:102EF000882359F580913903282F30E021153105B9
:102F000019F4F101108203C081E0F101808380E0B7
:102F100091E0821B930B880F991F880F991FAA2796
:102F200097FDA095BA2FDC019927882723E230E08E
:102F3000629EF001639EF00D729EF00D1124E85B1D
:102F4000FE4F86839783A087B18788E392E062E093
:102F50000E94C32C882309F008C100D000D06091E2
:102F60003A0370E080E090E0ED81FE8120813181C4
:102F700040E050E0EDB7FEB72183328343835483B2
:102F80009BC0F201808160E00E94D80C7C019FB65A
:102F9000F894ED81FE816081718180E090E00E9473
:102FA0001D3B5B016C010894E11CF11C0027F7FC40
:102FB0000095102FC801B7010E941F3B20E030E0B0
:102FC00040E85DE30E94AB3B9B01AC01C601B5014B
:102FD0000E94AB3B20E030E040E858E30E94AB3B6E
:102FE00020E030E040E857E40E94AB3B0E94F13A19
:102FF00023E230E0629EF001639EF00D729EF00DC0
:103000001124E85BFE4F66877787808B918B9FBE8C
:1030100088E392E061E00E94C32C882361F5F2010D
:10302000808161E00E94D80C9C01009719F4F101A5
:10303000108203C081E0F101808380E091E0821B77
:10304000930B880F991F880F991FAA2797FDA095AA
:10305000BA2FDC019927882723E230E0629EF00135
:10306000639EF00D729EF00D1124E85BFE4F868387
:103070009783A087B18788E392E062E00E94C32C27
:10308000882309F072C0F201808162E00E94D80CAE
:1030900000D000D0AA2797FDA095BA2FED81FE8120
:1030A0002081318140E050E0EDB7FEB721833283CB
:1030B00043835483BC01CD0120E030E040E050E088
:1030C000FFEFEF2EF12C012D112DE0E1AE2EB12CF2
:1030D000C12CD12C0E94863A80E090E0CB0177276A
:1030E0006627ED81FE81638F748F858F968F0F9099
:1030F0000F900F900F9039C080913E03882309F400
:103100005CC08AE192E00E947C2C882309F455C0BF
:1031100088E392E062E00E94C32C882329F4809126
:103120003C03E981FA81808388E392E061E00E94B8
:10313000C32C8823D1F480913B0314C0F201808119
:1031400065E00E94D80CE981FA81808388E392E0EF
:1031500061E00E94C32C882341F4F201808164E085
:103160000E94D80CEB81FC8180830894611C711C47
:103170002D813E812D5D3F4F3E832D838B819C8130
:1031800001969C838B830894411C511CE981FA8130
:103190003196FA83E9830894211C311CF5E06F16FF
:1031A000710409F03DCE11C088E392E060E00E9416
:1031B000C32C882309F02CCFE4CE88E392E062E0B0
:1031C0000E94C32C882311F6B9CF26960FB6F89427
:1031D000DEBF0FBECDBFCF91DF911F910F91FF904A
:1031E000EF90DF90CF90BF90AF909F908F907F90A7
:1031F0006F905F904F903F902F9008950F931F9383
:10320000CF93DF9328E1829F8001112409571D4F3E
:1032100090E00196EC01CC0FDD1FC80FD91F63E0D1
:10322000CC0FDD1F6A95E1F7C957DD4F84E690E0CA
:103230000E946931F80181938F01EC17FD07B1F706
:10324000DF91CF911F910F9108950F931F93CF930B
:10325000DF93082FC4E7D0E010E0FE018591949140
:103260000E946931AC01802F612F0E945E0D88E3BE
:1032700092E00E94D72C22961F5F163071F786E0ED
:1032800090E00E946931AC01802F63E00E945E0DE6
:1032900082E390E00E946931AC0148535F4F802F78
:1032A00065E00E945E0DDF91CF911F910F9108950F
:1032B0005F926F927F928F929F92AF92BF92CF92C6
:1032C000DF92EF92FF920F931F93CF93DF93682EBD
:1032D000562E25E0821711F0482F01C042E0C42F7E
:1032E000D0E0FE01E75DFC4F608210913D038AE172
:1032F00092E00E949B2C682F812F0E9492118823BC
:1033000009F4E9C080913F03882309F474C086E082
:1033100090E00E946931482F50E0440F551FFA0198
:10332000E65DFE4F8081918123E230E0C29FF00193
:10333000C39FF00DD29FF00D1124E85BFE4F4C5F50
:103340005E4FDA012D913C91338B228B91838083E8
:10335000178A108E118E128EA0E0B0E0DC01992742
:103360008827838F948FA58FB68F80E094E00E948A
:1033700069317C017FB6F89483E290E0C89F4001F8
:10338000C99F900CD89F900C1124E8E4F1E08E0EB8
:103390009F1ED4016D917C9180E090E00E941D3BC6
:1033A0005B016C010027F7FC0095102FC801B701E5
:1033B0000E941F3B20E030E040E85DE30E94AB3B11
:1033C0009B01AC01C601B5010E94AB3B20E030E09F
:1033D00040E858E30E94AB3B20E030E040E857E48F
:1033E0000E94AB3B0E94F13AF40166877787808B9D
:1033F000918B7FBE91C18FEF90E00E946931019661
:10340000AA2797FDA095BA2FDC019927882723E2E8
:1034100030E0C29F4001C39F900CD29F900C1124BA
:1034200028E431E0820E931EF40186839783A087FF
:10343000B1878FEF90E00E94693100D000D0AA27B9
:1034400097FDA095BA2FF4012081318140E050E032
:10345000EDB7FEB72183328343835483BC01CD0192
:1034600020E030E040E050E0FFEFEF2EF12C012DA6
:10347000112DE0E1AE2EB12CC12CD12C0E94863A48
:1034800080E090E0CB0177276627D4015B966D93AF
:103490007D938D939C935E970F900F900F900F905C
:1034A0008FEF90E00E946931FE01E35EFC4F252D15
:1034B00030E0AC01429FC001439F900D529F900DA0
:1034C0001124880F892F881F990B80838FEF90E03C
:1034D0000E9469311DC1862D63E00E94D80C00D086
:1034E00000D0AA2797FDA095BA2F26E030E040E053
:1034F00050E0EDB7FEB72183328343835483BC0190
:10350000CD0120E030E040E050E0E8E0EE2EF12C8C
:10351000012D112DAA24BB2465010E94863AE62FB5
:10352000F0E0EE0FFF1FDF01A65DBE4F8D919C9175
:1035300023E230E0C29FA001C39F500DD29F500DE7
:103540001124485B5E4FEC5FFE4F20813181DA0130
:1035500053963C932E9352978D939C93FA01178A1E
:10356000108E118E128EA0E0B0E0DC019927882722
:10357000838F948FA58FB68F0F900F900F900F9021
:10358000862D60E00E94D80C7C017FB6F89483E21F
:1035900090E0C89F4001C99F900CD89F900C1124C7
:1035A00028E431E0820E931ED4016D917C9180E07D
:1035B00090E00E941D3B5B016C010894E11CF11C32
:1035C0000027F7FC0095102FC801B7010E941F3B90
:1035D00020E030E040E85DE30E94AB3B9B01AC01A2
:1035E000C601B5010E94AB3B20E030E040E858E363
:1035F0000E94AB3B20E030E040E857E40E94AB3B48
:103600000E94F13AF40166877787808B918B7FBEA9
:10361000862D61E00E94D80C9C01FE01E05CFC4F0D
:10362000009711F4108202C081E0808380E091E075
:10363000821B930B880F991F880F991FAA2797FD4C
:10364000A095BA2FDC019927882723E230E0C29F9A
:103650004001C39F900CD29F900C112428E431E0CC
:10366000820E931EF40186839783A087B187862DEF
:1036700062E00E94D80C00D000D0AA2797FDA09548
:10368000BA2FF4012081318140E050E0EDB7FEB760
:103690002183328343835483BC01CD0120E030E099
:1036A00040E050E0FFEFEF2EF12C012D112DE0E175
:1036B000AE2EB12CC12CD12C0E94863A80E090E035
:1036C000CB0177276627D4015B966D937D938D930D
:1036D0009C935E970F900F900F900F90862D65E052
:1036E0000E94D80CFE01E35EFC4F252D30E0AC01BA
:1036F000429FC001439F900D529F900D1124880F4F
:10370000892F881F990B8083862D64E00E94D80C36
:10371000FE01ED5DFC4F80832FB7F89483E290E0CB
:10372000C89FF001C99FF00DD89FF00D1124E85BF0
:10373000FE4F8789908DA18DB28D82839383A48360
:10374000B5832FBF82819381A481B58182879387BE
:10375000A487B58781E0868BDF91CF911F910F9170
:10376000FF90EF90DF90CF90BF90AF909F908F90A1
:103770007F906F905F900895FF920F931F93CF9368
:10378000DF93F82EC5E0D0E0082F10E0C8010C2E22
:1037900002C0959587950A94E2F780FF04C08C2FAC
:1037A0006FE70E94581921978FEFCF3FD80771F725
:1037B000F0923503DF91CF911F910F91FF90089503
:1037C0001F93182F0E94751080911A03882319F0F7
:1037D000812F0E94680F80913403612F0E94F00DA9
:1037E000182F0E94BC1B812F0E94AF101F910895BB
:1037F00080912F03882339F023C08AE192E00E9450
:103800008C2B0E94DD118AE192E00E94982B882384
:10381000A1F716C08AE192E00E949E2C80913203AB
:10382000882341F08AE192E0609133030E94982C52
:10383000109232038AE192E00E949B2C0E94E01BCE
:103840008AE192E00E94A72C882321F708950F9324
:103850001F93162F909147018917E9F44423D9F05B
:10386000862F66E00E942D3C092F892F642F0E942D
:10387000581980911C03882311F4033050F4812FD0
:1038800063E00E942D3C692F88E392E041E00E94B2
:103890004A2D009365031F910F910895DF92EF92D7
:1038A000FF920F931F93CF93DF9380911B03882385
:1038B00009F080C1C0E0D0E053E0E52E43E0D42E13
:1038C00080913E03882309F4A2C18AE192E00E941C
:1038D0007C2C882309F49BC180911703882381F5F0
:1038E0008091340390E0C817D90721F00397C817D7
:1038F000D90729F488E392E06C2F41E004C088E303
:1039000092E06C2F40E00E944A2D1C2F88E392E049
:103910006C2F0E94742D882311F0C0933403809182
:103920003103882309F440C188E392E0612F0E94AB
:10393000742D882309F438C1812F0E944A1034C1A4
:10394000813009F031C188E392E06C2F0E946A2D2A
:10395000882309F429C18AE192E00E94A02B8330D8
:1039600078F480911C0390E0880F991F880F991FAD
:103970008C0F9D1F880F991F880F991F8093330309
:1039800081E08093320310C188E392E06C2F41E024
:103990000E944A2D8AE192E00E947C2C882369F4DF
:1039A00088E392E06F2D0E946A2D882331F488E32A
:1039B00092E06F2D40E00E944A2D80914A038823B7
:1039C00031F088E392E06F2D41E00E944A2D8AE1B8
:1039D00092E00E947C2C882309F450C0809131032E
:1039E000882309F44BC0109136038AE192E00E94CB
:1039F000A02B181709F442C088E392E06F2D0E94B3
:103A00006A2D8823D9F18AE192E00E94A02B8330AD
:103A100018F18AE192E00E949B2C082F8AE192E043
:103A20000E94952C10E090E001970817190759F4AF
:103A300080911C038D9DC00111244F2D480F809152
:103A4000340360E018C0109134038AE192E00E94D0
:103A50009B2C682F6F5F07C0109134038AE192E0BE
:103A60000E949B2C682F80911C038D9DC001112406
:103A70004F2D480F812F20E00E94181080913003B5
:103A8000882309F459C088E392E06F2D0E94742DB9
:103A9000882309F489C08AE192E00E94A02B833038
:103AA00018F18AE192E00E949B2C082F8AE192E0B3
:103AB0000E94952C10E090E001970817190759F41F
:103AC00080911C038D9DC00111244F2D480F8091C2
:103AD000340360E018C0109134038AE192E00E9440
:103AE0009B2C682F6F5F07C0109134038AE192E02E
:103AF0000E949B2C682F80911C038D9DC001112476
:103B00004F2D480F812F21E00E94181080911C0337
:103B1000882359F4F09218038F2D6FE70E945819EB
:103B200010924703109246033FC0E09218038E2D77
:103B30006FE70E94581938C088E392E06F2D0E9409
:103B4000742D8823A9F080911C03882359F4F092E6
:103B500018038F2D6FE70E94581910924703109297
:103B6000460306C0E09218038E2D6FE70E94581995
:103B70009091180380911903981721F088E392E03F
:103B80000E94D72C809118038093190310E0809134
:103B90004A03882331F088E392E0612F41E00E94DC
:103BA0004A2D1F5F133099F72196E39486E0E816BB
:103BB00009F086CE88E392E065E00E946A2D8823B2
:103BC00081F100E010E088E392E0602F40E00E9485
:103BD0004A2D80911C0320913403882339F030E072
:103BE000C80103962817390761F405C0822F90E0B9
:103BF0008017910731F488E392E0602F41E00E9442
:103C00004A2D0F5F1F4F03301105E9F60AC0FC2E45
:103C100088E392E06C2F0E946A2D882309F4BACEC3
:103C2000B3CEDF91CF911F910F91FF90EF90DF9076
:103C3000089588E392E064E00E947E2D882381F05D
:103C400080911B03882361F490E0809117038823FF
:103C500009F491E09093170388E392E00E94D72C37
:103C600088E392E063E00E946A2D80931C0388E35E
:103C700092E066E00E946A2D80933103089589EAFC
:103C800094E06FEF73E00E94802A0895AF92BF9294
:103C9000CF92DF92EF92FF920F931F93CF93DF9318
:103CA0008093620290EA899F500111246501EE24FD
:103CB000FF2420C0B8016C0D7D1D89EA94E00E94AC
:103CC000802A89930F5F1F4F0630110599F70894DA
:103CD000E11CF11C86E090E0C80ED91E96E0E916C2
:103CE000F10441F4A4E2CA2ED12CCA0CDB1CEE2450
:103CF000FF2424C0E701CC0FDD1FCE0DDF1DCC0F4C
:103D0000DD1FCD59DD4F00E010E0D4CFB8016C0DC0
:103D10007D1D89EA94E00E94802A89930F5F1F4FDE
:103D20000831110599F70894E11CF11C88E190E035
:103D3000C80ED91E95E0E916F10479F0E701CC0F21
:103D4000DD1FCE0DDF1D63E0CC0FDD1F6A95E1F7AF
:103D5000C957DD4F00E010E0D9CFB50164567F4F61
:103D600089EA94E00E94802A682F8AE192E070E05C
:103D70000E94A32BB50163567F4F89EA94E00E940D
:103D8000802A682F8AE192E00E941F2BDF91CF9159
:103D90001F910F91FF90EF90DF90CF90BF90AF9069
:103DA0000895AF92BF92CF92DF92EF92FF920F935E
:103DB0001F93162F042F90914701891709F0BAC05D
:103DC000662351F500D000D0642F70E080E090E0D1
:103DD00026E030E040E050E0EDB7FEB721833283CB
:103DE0004383548320E030E040E050E0E0E8EE2EF2
:103DF000F12C012D112DAA24BB2465010E94863AC5
:103E0000862F0F900F900F900F900E94461E88E310
:103E100092E00E94D72C8EC06F3729F48091650301
:103E20000E94251987C0262F23502432C0F5822FE7
:103E300066E00E942D3CA82F80936503822F0E948C
:103E40002D3C192F242F30E0E92FF0E0E05FFE4FEA
:103E50008081482F50E0883058F487E090E0841B40
:103E6000950BA90102C0559547958A95E2F709C0BF
:103E700047505040C90102C0880F991F4A95E2F788
:103E8000AC018A2F612F0E945E0D88E392E00E94B0
:103E9000D72C812F63E00E942D3C0E94E2161C3635
:103EA00029F500D000D0602F70E080E090E026E09F
:103EB00030E040E050E0EDB7FEB72183328343832A
:103EC000548320E030E040E050E000E8E02EF12CA8
:103ED000012D112DAA24BB2465010E94863A60930E
:103EE00034030F900F900F900F9024C01D3659F49B
:103EF000602F70E06C5E7F4F660F771F8AE192E063
:103F00000E94A32B17C01E3669F4602F70E06F5F0C
:103F10007F4F75956795759567958AE192E00E9448
:103F2000922C08C01F3631F4000F8AE192E0602F16
:103F30000E941F2B1F910F91FF90EF90DF90CF9069
:103F4000BF90AF900895482F89EA94E06FEF73E037
:103F50000E94872A089588E392E060E00E946A2D1B
:103F6000882309F445C088E392E061E00E946A2D4D
:103F70008823F1F188E392E062E00E946A2D8823B1
:103F8000B9F181E0089588E392E063E00E946A2D30
:103F900099E0899FC00111248F5F11C088E392E0EE
:103FA00061E00E946A2D882371F088E392E063E06B
:103FB0000E946A2D99E0899FC00111248E5F0E94A2
:103FC000A31F80E0089588E392E062E00E946A2DDA
:103FD000882369F088E392E063E00E946A2D99E00B
:103FE000899FC00111248D5F0E94A31F80E0089566
:103FF00088E392E060E00E946A2D882379F2C3CFC3
:10400000AF92BF92CF92DF92EF92FF920F931F93E6
:10401000CF93DF9390EA899F600111245601EE242B
:10402000FF2420C0B8016A0D7B1D89EA94E0499104
:104030000E94872A0F5F1F4F0630110599F70894D9
:10404000E11CF11C86E090E0A80EB91E96E0E9168E
:10405000F10441F404E2A02EB12CAC0CBD1CEE2402
:10406000FF2424C0E701CC0FDD1FCE0DDF1DCC0FD8
:10407000DD1FCD59DD4F00E010E0D4CFB8016A0D4F
:104080007B1D89EA94E049910E94872A0F5F1F4FA8
:104090000831110599F70894E11CF11C88E190E0C2
:1040A000A80EB91E95E0E916F10479F0E701CC0FEE
:1040B000DD1FCE0DDF1DF3E0CC0FDD1FFA95E1F71C
:1040C000C957DD4F00E010E0D9CF8AE192E00E94AD
:1040D000B82B482F8CE990E0C80ED91E89EA94E0ED
:1040E000B6010E94872A8AE192E00E94222B482F83
:1040F0000894C11CD11C89EA94E0B6010E94872A69
:10410000DF91CF911F910F91FF90EF90DF90CF90B3
:10411000BF90AF900895FF920F931F938091490332
:10412000882379F080914B0390914C0301969093F2
:104130004C0380934B03893791051CF081E08093F9
:104140004A0310E083E0F82E01E088E392E063E0A8
:104150000E946A2D8823B1F088E392E064E00E9417
:104160006A2D882379F088E392E0612F0E94742DF4
:10417000882341F00093490310924C0310924B03A3
:1041800000931B0388E392E063E00E946A2D88237A
:1041900029F188E392E064E00E946A2D8823F1F01F
:1041A00088E392E0612F0E947E2D8823B9F08091F0
:1041B0004A03882331F0809162020E9400208F2DF3
:1041C00005C0809162020E940020812F0E94461E3D
:1041D00088E392E00E94D72C00931B0388E392E0CF
:1041E00064E00E946A2D882379F088E392E0612FD1
:1041F0000E94742D882341F00093490310924C03D0
:1042000010924B0300931B0388E392E064E00E944A
:104210006A2D8823A1F088E392E0612F0E947E2D11
:10422000882369F080914A03882311F08F2D01C003
:10423000812F0E94461E88E392E00E94D72C809135
:104240004A03882331F088E392E0612F41E00E9425
:104250004A2D8AE192E00E947C2C882331F588E384
:1042600092E066E00E946A2D8823F9F088E392E0EC
:10427000612F0E94742D8823C1F080911C0323E0DC
:10428000829FC0011124810F809318030E94251979
:10429000809118036FE70E94581900931B0388E36D
:1042A00092E0612F41E00E944A2D88E392E065E0B0
:1042B0000E946A2D8823B1F088E392E0612F0E946A
:1042C000742D882379F080911C0323E0829FC00124
:1042D0001124810F8093340300931B03853011F464
:1042E0000E94FE181F5FF394133009F02ECF88E36D
:1042F00092E064E00E946A2D882369F188E392E0ED
:1043000066E00E94742D882331F18AE192E00E94D8
:10431000832C81E080931B038AE192E00E947C2C35
:10432000882309F4F3C080912F03882309F0EEC09D
:1043300085E793E06AEF70E00E943C2808C085E7BB
:1043400093E06CEF70E00E943C281092300388E309
:1043500092E00E94D72C88E392E066E00E946A2DEA
:104360008823B1F088E392E064E00E94742D8823F2
:1043700079F088E392E00E94D72C90E0809130039E
:10438000882309F491E09093300381E080931B032C
:1043900080913003882311F010923E0388E392E06D
:1043A00065E00E946A2D882309F4B6C088E392E094
:1043B00063E00E946A2D882309F4AEC088E392E08E
:1043C00066E00E94742D882309F4A6C090913403FE
:1043D00088E1989FD0011124A957BD4FEDE4F3E087
:1043E0008D91819383E0E536F807D1F71CC088E30F
:1043F00092E066E00E94742D882309F495C08091B4
:1044000034030E944A100FC088E392E066E00E94E5
:10441000742D882359F090E080911A03882309F4C1
:1044200091E090931A0381E080931B0388E392E06C
:1044300065E00E946A2D882309F47FC088E392E03A
:1044400063E00E946A2D882309F477C088E392E034
:1044500064E00E94742D882309F46FC0ADE4B3E0DA
:104460009091340388E1989FF0011124E957FD4FA2
:104470008D91819383E0A536B807D1F727C088E3F3
:1044800092E064E00E94742D882309F45EC090E0FD
:1044900080913E03882309F491E090933E0381E0EC
:1044A00080931B0388E392E00E94D72C12C088E31C
:1044B00092E064E00E94742D882359F00E94D1316B
:1044C000AB01BC018AE192E00E94BC2B81E08093A9
:1044D0001B0380911B03882309F440C000E010E017
:1044E00088E392E0612F0E946A2D080F1F5F17304A
:1044F000B9F7002399F510921B031092490310920B
:104500004C0310924B0310924A0328C080912F0352
:10451000882309F01CCF13CF88E392E065E00E9466
:104520006A2D882309F063CF88E392E063E00E945C
:104530006A2D882309F47ACF67CF88E392E065E09B
:104540000E946A2D882309F09ACF88E392E063E005
:104550000E946A2D882309F4BCCFA9CF1F910F9127
:10456000FF90089580914601882319F00E94E5107C
:1045700008958AE192E00E94A02B809336030E9466
:10458000F81B8AE192E00E947C2C882339F4609128
:1045900017036E5F88E392E00E94012D0E94191EAE
:1045A0000E948B200E944E1C0E948214809117034F
:1045B0000E94E2160E94B50E0895CF92DF92EF920C
:1045C000FF920F931F93CF93DF93CC248C2D0E94E7
:1045D000461E56E1E52E51E0F52EDD2420C0C33005
:1045E000D10531F4F70140818D2D63E050E005C025
:1045F000F801459154918D2D6C2F0E945E0D2196EE
:104600000E5F1F4FC630D10551F70894E11CF11C15
:10461000D394F6E0DF1619F420E030E00FC008E68E
:1046200010E0C0E0D0E0DBCF119201968831910517
:10463000D9F72F5F3F4F2630310579F0F901EE0FA2
:10464000FF1FE20FF31F93E0EE0FFF1F9A95E1F7B4
:10465000E957FD4F80E090E0E7CF8AE192E068E71C
:1046600070E00E94A32B8AE192E060E00E941F2B81
:104670008C2D0E940020C39486E0C81609F0A6CFB6
:10468000DF91CF911F910F91FF90EF90DF90CF902E
:10469000089588E392E00E94DE2F88E392E00E9472
:1046A000DE2F0E94AB1F882359F081E00E94EA139D
:1046B0000E94DD2280E00E94EA1381E00E94A31F95
:1046C00008950E94AF0C0E94492388E392E00E9463
:1046D000632E882331F00E94DD2288E392E00E945D
:1046E000442E88E392E060E00E94EC2F80E00E947C
:1046F000461E08950E94EA32089506C085E793E0B9
:10470000609147010E94082A85E793E06091470184
:104710000E94082A882391F704C085E793E00E944D
:10472000382A85E793E00E94382A8823B1F785E785
:1047300093E00E94382A85E793E00E94382A85E7B3
:1047400093E00E94382A85E793E00E94382A85E7A3
:1047500093E00E94382A88E392E00E94DE2F0E94B4
:10476000B22206C085E793E0609147010E94082AC3
:1047700085E793E0609147010E94082A882391F71A
:1047800004C085E793E00E94382A85E793E00E9401
:10479000382A8823B1F785E793E00E94382A85E715
:1047A00093E00E94382A85E793E00E94382A85E743
:1047B00093E00E94382A85E793E00E94382A089502
:1047C000AF92BF92CF92DF92EF92FF920F931F931F
:1047D000CF93DF9388E392E061E00E94B72C88E3F7
:1047E00092E060E00E94EC2F0E9489130E946123F6
:1047F0000E943F1E0E94441380E890E00E94F43122
:1048000004E011E06AE271E0C8E4D1E040E050E089
:10481000A3E2AA2EB12CC12CD12CF5E0EF2EF12C65
:10482000FB0181919191BF01F801219131918F019B
:104830003B8B2A8B998388831F8A188E198E1A8E38
:10484000A0E0B0E0DC01992788278B8F9C8FAD8F8B
:10485000BE8F4A9DF0014B9DF00D5A9DF00D112425
:10486000E85BFE4FC682D782E086F1864F5F5F4FDE
:10487000A39646305105A1F680910601909107015B
:1048800090930A02809309028FE294E09093F801DA
:104890008093F70110920E0210920F0210921002F4
:1048A0001092110280E090E0AFE2B4E08093120237
:1048B00090931302A0931402B093150288E392E040
:1048C0000E94DE2F88E392E00E94DE2F8AE192E0D0
:1048D00060E20E94922C8AE192E00E94252B88E3FC
:1048E00092E00E94D72C80E00E94461E88E392E06E
:1048F0006FE00E94C02CDF91CF911F910F91FF902C
:10490000EF90DF90CF90BF90AF900895FC01E35FF0
:10491000FE4F1192119211921192119211921192D5
:10492000119211921192119211921192119211926F
:10493000119211921192119211921192119211925F
:10494000119211921192119211921192119211924F
:10495000119211921192118210820895FC01E35F6D
:10496000FE4F718360830895FC01E15FFE4F718308
:1049700060830895FC01ED5EFE4F718360830895AE
:10498000FC01EB5EFE4F718360830895FC01E55EE0
:10499000FE4F718360830895FC01EB5DFE4F7183D0
:1049A00060830895FC01E95DFE4F71836083089583
:1049B000FC01E75DFE4F718360830895FC01E55DB6
:1049C000FE4F718360830895CF93DF93EC01C85746
:1049D000DF4F88819981C858D040813F910509F403
:1049E000D9C0823F91054CF5803B910509F467C021
:1049F000813B91056CF48039910509F44AC0803AF5
:104A0000910509F483C08038910509F0FFC03AC0D0
:104A1000803D910509F492C0813D91052CF4803CC4
:104A2000910509F0F3C091C0803E910509F44EC094
:104A3000803F910509F0EAC09CC08A3F910599F139
:104A40008B3F91058CF4833F910509F4C8C0833FE7
:104A500091050CF4A6C0863F910509F4CDC0883FAE
:104A6000910509F0D3C01CC08C3F910511F18C3F1A
:104A70009105E4F08E3F9105F9F08F3F910509F023
:104A8000C5C0BDC0C35FDE4F28813981CD50D14044
:104A900043C0C15FDE4F28813981CF50D1403CC037
:104AA000CB5DDE4FAEC0C95DDE4FABC0C75DDE4F34
:104AB000A8C0C55DDE4FA5C0C35DDE4FA2C0CD5E00
:104AC000DE4F28813981C351D14026C0C75EDE4FF9
:104AD000E881F981C951D140309709F497C0C55791
:104AE000DF4F688170E06F7770707695762F66275C
:104AF000779567958A9190E08F779070682B792BE6
:104B00006050704223978881099580C0CF5EDE4F48
:104B100028813981C151D1402115310509F476C070
:104B2000FE01E657FF4FDE01A557BF4FC957DF4FC4
:104B3000888160814C91F901099568C0C95EDE4F9A
:104B400028813981C751D14006C0CB5EDE4F288114
:104B50003981C551D1402115310509F457C0FE01F5
:104B6000E657FF4FC957DF4F88816081F9010995EA
:104B70004DC0C55EDE4FE881F981CB51D140309701
:104B800009F444C0CE0184579F4FC657DF4F688158
:104B900009953CC0C35EDE4FE881F981CD51D1401B
:104BA00024C0C15EDE4F48815981CF51D1404115AB
:104BB000510561F1C557DF4F888190E08F77907084
:104BC0009695982F882797958795FE01229130E03A
:104BD0002F773070822B932BFA01099517C0CF5D88
:104BE000DE4FE881F981C152D140309779F0C65744
:104BF000DF4F888109950AC0CD5DDE4F02C0C15DDF
:104C0000DE4FE881F981309709F00995DF91CF9166
:104C10000895FC01EF5CFE4F81E081937183608316
:104C20000895FC01EF5CFE4F1192118210820895ED
:104C300085E793E00E948624089508956F927F92FD
:104C40008F929F92AF92BF92CF92DF92EF92FF929C
:104C50000F931F93CF93DF93EC018C010B571F4FE2
:104C6000E3E8EE2EF12CE80EF91E72E0672E712CAF
:104C700063E0862E912C50E8A52EB12C41E0C42E85
:104C8000D12C8BEA97E00E948A38181619060CF08E
:104C9000E3C18038910529F48BEA97E00E94E4385B
:104CA000DBC18BEA97E00E94BB38D801ED91FC9103
:104CB000309709F0DAC08B83998197FF0FC0943F3A
:104CC00069F0953F59F0993F49F09D3F39F0292F00
:104CD00030E0903F28F4207F307002C020E030E0C8
:104CE000203B3105B1F0213B310554F42039310529
:104CF00081F0203A310569F02038310589F409C086
:104D0000203D310531F0203E310519F0203C3105C0
:104D100039F487FD05C09B838C83F801D182C08262
:104D20002B8127FF0FC0243F69F0253F59F0293F11
:104D300049F02D3F39F0822F90E0203F28F4807F0A
:104D4000907002C080E090E0813F910509F46EC050
:104D5000823F91054CF5803B910509F46BC0813B86
:104D600091056CF48039910509F464C0803A91058D
:104D700009F460C08038910509F065C05BC0803DD2
:104D8000910509F453C0813D91052CF4803C9105B7
:104D900009F059C04BC0803E910509F44BC0803FDB
:104DA000910509F050C04AC0883F9105C1F0893F84
:104DB00091055CF4833F9105C9F1833F9105D4F1DE
:104DC000863F910509F03FC00AC08A3F9105DCF19A
:104DD0008D3F910524F08E5F90400297A0F527FF4C
:104DE0000FC0243F69F0253F59F0293F49F02D3F7E
:104DF00039F0822F90E0203F28F4807F907002C02D
:104E000080E090E0C857DF4F998388831A922396F9
:104E100019921882CF57DF4F81E08883C758D0405E
:104E200019821882FE011292129217C1D7016D9257
:104E30007C9213C0F701918280820FC0D701AD929E
:104E4000BC9219820AC0CB57DF4F19821882C5580D
:104E5000D040F701118210829DC0D8018D919C91A4
:104E6000119701968D939C930CCF87FF69C08D3F5E
:104E700040F48A3F48F4873FB9F0883F09F060C0AA
:104E800003C08E3F08F45CC0FE01E857FF4F8083EB
:104E90001182C657DF4F1992188224971882CB5778
:104EA000DF4F81E08883D9C08B8187FF6BC0843F4F
:104EB00009F468C0853F09F465C0893F09F462C000
:104EC0008D3F09F45FC0282F30E0803F20F4C901F6
:104ED000807F907001C0C901803F910509F052C0E8
:104EE00090E0FE01E90FF11D8381E457FF4F8083BD
:104EF0009F5F9038B1F7C857DF4F80EF90E09983FC
:104F00008883C858D040FE01EB57FF4F80818F5FE8
:104F1000C657DF4F888321968081918101969883BF
:104F200024971882CB57DF4F81E08883118210824B
:104F3000C958D04019821882C358D04019828DC0F8
:104F4000EC0FFD1F8383F80120813181D7018D9102
:104F50009C9101972817390708F478C02B8127FF07
:104F600024C0243F11F1253F01F1293FF1F02D3FED
:104F700099F0822F90E0203F10F4807F9070803F66
:104F8000910551F4CB57DF4F198218821A921A9269
:104F9000C358D040198260C02D3F39F0822F90E075
:104FA000203F28F4807F907002C080E090E0C857D6
:104FB000DF4F99838883C858D0408B818F708F5F73
:104FC000C957DF4F8883C758D0408C81C657DF4F01
:104FD0008883279788819981C358D040FE01E5577F
:104FE000FF4F039719F48D81808301C01082CB5746
:104FF000DF4F198218821A921A92C757DF4F81E049
:105000008883C458D04088819981C858D040803B5B
:105010009105B1F0813B910554F48039910581F0FF
:10502000803A910569F08038910569F409C0803DA6
:10503000910531F0803E910519F0803C910519F4FD
:105040008B81898301C0198281E007C02F5F3F4FA8
:10505000F8013183208315CE80E0DF91CF911F913D
:105060000F91FF90EF90DF90CF90BF90AF909F9007
:105070008F907F906F9008950F931F93CF93DF933E
:105080008C01EB016D3F710554F46A3F710564F4C6
:10509000663F710549F0683F710559F405C0CB01C1
:1050A0008E5F9040029728F48BEA97E06C2F0E9465
:1050B000F438C63FD10511F4F8011082DF91CF9189
:1050C0001F910F910895CF92DF92EF92FF920F936D
:1050D0001F938C01E62EFBEACF2EF7E0DF2EC601F0
:1050E00063EF0E94F438FF248FE7E822FF24C60113
:1050F0006E2D0E94F438F80110821F910F91FF90DD
:10510000EF90DF90CF900895CF92DF92EF92FF92D1
:105110000F931F936C018B01BBEAEB2EB7E0FB2EC4
:10512000C70162EF0E94F438B8016F777070C70151
:105130000E94F438000F012F001F110B11950F77FB
:105140001070C701602F0E94F438F60110821F9181
:105150000F91FF90EF90DF90CF900895DF92EF9244
:10516000FF920F931F938C01D62E8BEAE82E87E0D7
:10517000F82EC70161EF0E94F438C7016D2D0E941F
:10518000F438F80110821F910F91FF90EF90DF909B
:10519000089570E06770707024E0660F771F2A959D
:1051A000E1F74F70462B642F0E94AE280895CF92EE
:1051B000DF92EF92FF920F931F93CF93DF936C01D7
:1051C0007B018A01222319F0C0E0D0E023C08BEAE2
:1051D00097E060EF0E94F438C0E0D0E009C0F80129
:1051E000EC0FFD1F8BEA97E060810E94F438219656
:1051F000CE15DF05A4F38BEA97E067EF0E94F43841
:105200000CC0F801EC0FFD1F8BEA97E060810E9453
:10521000F4382196CE15DF05A4F3F6011082DF9154
:10522000CF911F910F91FF90EF90DF90CF90089555
:10523000FF920F931F93CF93DF93FC01EB01142F89
:10524000F22E0150003118F46038710514F4108208
:105250002BC0613E7105FCF4602F6F706C2B808158
:10526000861729F060838BEA97E00E94F4381F7755
:105270008BEA97E0612F0E94F438C03CD105A1F081
:10528000C03DD10589F08FE7F8228BEA97E06F2DBA
:105290000E94F43809C0663F710534F06F3F710514
:1052A00009F014F40E943C28DF91CF911F910F91D7
:1052B000FF9008950F93DC01AF5CBE4F8C91A1531A
:1052C000B140882309F4A2C0AE5CBE4F2D913C9141
:1052D0001197A253B1402115310509F497C0A85781
:1052E000BF4F6D917C911197A858B040CB01805869
:1052F00090408136910558F5A957BF4F0C91A7589A
:10530000B04012969C911297091719F080E09923EA
:1053100009F481E02230310541F02330310549F0B4
:105320002130310509F072C007C0882309F46EC02E
:1053300003C0882309F06AC0FD01E557FF4FCD0186
:10534000A657BF4F4C9120810E9418295FC0663F2D
:10535000710531F1673F7105A4F4613F710509F4EE
:105360004BC0623F71052CF4603F710509F04EC0DF
:105370001BC0623F710569F1633F710509F046C0CA
:1053800021C06D3F71053CF46A3F71054CF4683FE4
:105390007105E1F505C0CB018E5F90400297B0F535
:1053A000CD010E943C2832C0A657BF4F6C91AA582D
:1053B000B040CD0170E0A457BF4FAD0121E00E9485
:1053C000D72824C0CD01A657BF4F6C910E946328F7
:1053D0001DC0A557BF4F6C9170E07695762F66275C
:1053E000779567958E91AA58B04090E0682B792BFD
:1053F000CD010E9484280AC0FD01E557FF4FCD0171
:10540000A657BF4F6C9140810E94C9280F91089503
:105410001F93CF93DF93EC01162F6131D8F40E94D4
:105420001E268823B9F0C857DF4F88819981C85854
:10543000D040009779F0805890408136910578F4FB
:105440009A81C957DF4F8881C758D040891739F0F2
:10545000992329F080E0DF91CF911F910895CE012B
:10546000612F0E945A29CE010E94E42481E0F3CFEB
:10547000FC0162810E94082A08950F93362F542F51
:10548000022F60EB70E0432F252F0E9418290F9107
:105490000895FF920F931F938C01F62E8BEA97E0ED
:1054A00042E15AE760E070E00E940338F8011082A0
:1054B000F28211820B571F4FF80111821082129253
:1054C00012928F0107571F4FF801108204581040A5
:1054D000F8011182108212928F010D5F1F4FF801A7
:1054E00011928F01108209551F4F81E090E0F80161
:1054F0009183808381E082931F910F91FF900895A3
:10550000F999FECF72BD61BDF89A80B50895F999F9
:10551000FECF1FBA72BD61BD40BD0FB6F894FA9AB6
:10552000F99A0FBE0895FC017183608386E0858738
:1055300080E1868788E790E0938382830895EF92E5
:10554000FF920F931F93E42FF0E0EF70F070E1559E
:10555000F84EE4912E2F30E020583040FC01808539
:1055600090E0AC01249FC001259F900D349F900DC9
:10557000112460E470E00E944D3C9B01442737FDFC
:105580004095542FE480F580068117812E153F0544
:10559000400751073CF0A80197012451304040409A
:1055A000504014C088279927DC018E199F09A00B51
:1055B000B10B82179307A407B50744F024E130E04C
:1055C00040E050E02E193F09400B510B2E0D3F1DBE
:1055D000401F511FB901CA011F910F91FF90EF9019
:1055E00008950F931F938C01DC016D917C9188EEDF
:1055F00093E00E944D3C882777FD8095982F20E608
:105600003AEE40E050E00E940E3CD8011296ED9137
:10561000FC9113979F01220F331F2E0F3F1F43E072
:10562000220F331F4A95E1F7442737FD4095542F49
:105630000E94823CCA01B9011F910F910895FC019B
:1056400060870895FC018085089521E0FC01248F86
:105650000895AF92BF92CF92DF92EF92FF920F9395
:105660001F93CF93DF93EC015A016B018C8D88233C
:1056700031F1CE016A8549850E949F2A7B0100276E
:10568000F7FC0095102F0BC08C858F5F8C872E0D3B
:105690003F1D401F511F288F398F4A8F5B8F288DE8
:1056A000398D4A8D5B8DD601C501821B930BA40BEE
:1056B000B50B8E159F05A007B10734F722C08C816A
:1056C0009D817C010027F7FC0095102F0BC08C8575
:1056D0008F5F8C872E0D3F1D401F511F288F398FE4
:1056E0004A8F5B8F288D398D4A8D5B8DD601C50120
:1056F000821B930BA40BB50B8E159F05A007B1075A
:1057000034F7DF91CF911F910F91FF90EF90DF90D1
:10571000CF90BF90AF900895FC0182858F5F828704
:105720009585891720F0128683858F5F838708957A
:10573000FC018485882319F08150848781E00895D5
:10574000FC0182850895CF93DF93EC017B836A830C
:10575000672B21F481E090E09B838A83CE010E9435
:10576000F12A6C837D838E839F83DF91CF9108958F
:10577000FC018281938108952F923F924F925F9214
:105780006F927F928F929F92AF92BF92CF92DF9251
:10579000EF92FF920F931F93CF93DF93EC011A01C7
:1057A0002B018C899D89AE89BF897A018B01E81A0A
:1057B000F90A0A0B1B0B6881798188EE93E00E943D
:1057C0004D3C80ED97E09C01629FC001639F900D6E
:1057D000729F900D1124AA2797FDA095BA2FE81665
:1057E000F9060A071B0754F02C8A3D8A4E8A5F8A05
:1057F0001F86188A198A1A8A1B8A5EC06C817D816D
:105800008E819F81E2E0660F771F881F991FEA95BE
:10581000D1F72D8530E040E050E00E940E3CE616C6
:10582000F7060807190764F41C8681E08B879985C1
:10583000892F8370890F8987288E398E4A8E5B8ED7
:10584000A888B988CA88DB888C899D89AE89BF8978
:10585000A81AB90ACA0ADB0AA20CB31CC41CD51CBC
:10586000A88AB98ACA8ADB8AEF84E394EF866881C2
:10587000798188EE93E00E944D3C882777FD8095E2
:10588000982F20E63AEE40E050E00E940E3C3B01AB
:105890004C01FF2400E010E0C601B501A80197010A
:1058A0000E94823CC401B3010E94823C3B832A8354
:1058B0002C8A3D8A4E8A5F8ADF91CF911F910F918A
:1058C000FF90EF90DF90CF90BF90AF909F908F9020
:1058D0007F906F905F904F903F902F900895FC01C4
:1058E00081E0858F8FEF8187858581508287138640
:1058F0000895FC01158E0895FC01858D089521E021
:10590000FC01258F0895FC01858D882311F0158EEB
:10591000089581E0858F8FEF81878585815082870B
:1059200013860895FC0166870895FC018685089515
:10593000FC0161870895FC0181850895FC01818542
:105940008F5F81879685891708F011860895FC017D
:10595000858D882309F413868385882319F0815067
:10596000838781E0089522E0FC0121830895FC01F2
:10597000662311F4158E0895613009F4658F08953A
:10598000FC0161830895FC01868590E002C0959535
:1059900087956A95E2F781700895FC01878590E00C
:1059A00002C0959587956A95E2F781700895FC018C
:1059B0008685876086870895FC0181E090E0A0E0FD
:1059C000B0E004C0880F991FAA1FBB1F6A95D2F7C9
:1059D00080952685282326870895E62FF0E03896BF
:1059E000EE0FFF1FE80FF91F808191810895E62FC8
:1059F000F0E03B96EE0FFF1FE80FF91F80819181C9
:105A00000895EF92FF920F931F93CF93DF93EC01D2
:105A1000E62FF0E0E153F84E8591949123E030E0D9
:105A2000682F70E041E0E42EF12C012D112D235060
:105A30003040CB01022E02C0959587950A94E2F77B
:105A40002D5F3F4F4D8580FF0CC0D801C701022E4E
:105A500004C0880F991FAA1FBB1F0A94D2F7482BB6
:105A60000CC0D801C701022E04C0880F991FAA1FBD
:105A7000BB1F0A94D2F7809548234D872F5F3F4F75
:105A800026303105A1F6DF91CF911F910F91FF9044
:105A9000EF900895FC012585442369F081E090E0B2
:105AA000A0E0B0E004C0880F991FAA1FBB1F6A9531
:105AB000D2F7282B0DC081E090E0A0E0B0E004C058
:105AC000880F991FAA1FBB1F6A95D2F780952823BC
:105AD00025870895FC018381948102C0959587955F
