:100000000C94FE0A0C94260B0C94260B0C94260BD5
:100010000C94260B0C94260B0C94260B0C9460303D
:100020000C94260B0C94260B0C94260B0C94260B8C
:100030000C94260B0C94260B0C9431330C94260B49
:100040000C9491340C94260B0C9454360C94A236D8
:100050000C94260B0C949B2F0C94260B0C94260BC3
:100060000C94E8330C94260BB4000000FF00000051
:100070000000C800FF03FF00FF000700FF00FF00B3
:10008000D28D99959B9B9FA1A4A7A9AAADAFB1B30F
:10009000B5B8B8BBBCBFC0C2C3C5C7C8CACBCDCE3C
:1000A000D0D1D3D4D5D6D7D8DADBDCDCDEDFE0E1C3
:1000B000E2E3E3E4E5E6E7E8E8E9EAEDEFEDEDEEBB
:1000C000EEEFEEF4F9FAF9FAFAFCFBFBFBFCFCFCB0
:1000D000FCFDFDFDFEFDFFFE00FD01FD03FC07F341
:1000E00029766B6F676863635E5F5A5A54584D5D3B
:1000F00026D5E1DAE1DDE2E0E3E2E4E5E5E7E7E8A1
:10010000E8EAEBECEBEDECEEEEF0F0F0F0F2F2F210
:10011000F3F4F4F4F5F5F6F6F7F7F8F8F8F9F9F979
:10012000FAFAFBFCFBFCFBFDFCFEFDFDFDFEFDFF0A
:10013000FEFFFEFFFFFF000001FF02FE04FD08F3CB
:100140002D7F767A74776F6C69676561605C5C5847
:10015000575453504F4C4B49474643443E4337490D
:1001600011BFCBC5CAC9CCCDCED1D1D2D3D5D5D86C
:10017000D8DADADCDCDEDEE0E0E1E2E3E4E5E6E684
:10018000E7E8E9EAEAEBEBEDECEFEEEEEFF0F0F1A9
:10019000F1F2F2F2F4F3F5F4F7F3F8F3FAF3FFE91E
:1001A000237B6E736A6D666761635C5E565B4E614E
:1001B00025CBD7CFD8D3D9D6DBD8DEDAE1DAE6D271
:1001C0000D695B62595C545750534D4F474E46542E
:1001D0001BC4D1CAD1CED3D1D4D4D6D7D8D9DADCA6
:1001E000DCDEDDE0E0E2E1E4E2E6E5E6E6E8E7E9E0
:1001F000E9EBEAEBECECEEEDF0EDF2EDF4EDF9E32A
:100200001D766A6E666762615E5D5A575553524F3E
:100210004E4B4947464443413F3D3C3A39383634DA
:10022000333332302E2D2C2B2A2929262624242222
:100230002221201F1E1E1C1D1A1B181B151C0F25FA
:10024000E88C9898A6A5A9AAACB0B1B3B4B7B7BBCF
:10025000BBBFBEC1C2C4C6CCCCC8CDC9D1CAD7C32E
:10026000FD554A504A4B464742443F403A3F344688
:100270000DB1BEB7BFBCC1C1C3C4C6C8C8CBCBCE0D
:10028000CDD1D1D3D2D6D5D8D7DBDADBDBDDDDDFFC
:10029000DFE1E1E2E4E3E6E4E8E4EAE5EDE5F2DB10
:1002A00017766A6F666862635D5F585A52584A5E95
:1002B00021BFCCC4CCC8CECCD0CED4D0D7D1DDC811
:1002C00004685B61585A555552514F4B4B47474351
:1002D0004440403D3D3A3938363532342E34283B9F
:1002E00008ABB1ADB4B3B5B8B8BDBCBFBEC2C2C532
:1002F000C5C9C8CBCBCDCECFD1D0D5D2D8D2DFCA0D
:100300000463585C555652514E4D4C474744444047
:10031000403D3D3A3A3737343431322F2F2D2C2A95
:1003200029292827242522241F241D211922142AA3
:10033000EE8C98929B999F9EA4A2A9A6AEA9B6A264
:10034000DF473A41383D3639333731332C3327399B
:1003500003A7B4ACB6B1B8B6BCB9C0BCC4BECAB7CA
:10036000EE4D42473F423C3F39413C3A32372C3F09
:1003700007A8B5AEB5B4B8B8BBBCBDC0C0C3C3C791
:10038000C6C9C9CDCDCECFD0D2D3D6D2D9D3DFCA6C
:100390000465585E57585453504D4D4949464541A0
:1003A000413F403C3B383836353433302F2E2C2BF0
:1003B0002A2A2727252523232120201F1E1D1C1B19
:1003C0001A1A1B18181617151515151212111110D7
:1003D00010100E0E0D0E0B0E0A0D080D060E021655
:1003E000E28A979097969C9CA1A1A7A3ABA6B3A1E4
:1003F000D7332D38292B2729242722251F251A2CCE
:10040000F89AA6A0A9A8ABACAEB1B3B4B6B8B9BCC3
:10041000BCBFC0C2C2C5C6C8C8CBCBCDCED0D0D25F
:10042000D3D4D5D7D7D9D8DBDADDDCDEDEE1DFE225
:10043000E1E3E3E5E6DE4B70636860625A5D575ABC
:1004400054524F4E4C4A48464544433E3E3B3B384F
:100450003836343232302E2E2B2C282B252A2030C1
:1004600000A9B5B0B4B4B7B9BABEBEBFC0C3C3C6A5
:10047000C5C9C8CBCBCECDD1D0D2D2D8DED8D6D874
:10048000D9D9DBDBDFDFDFDEE1E0E5DEE6DFEBD77E
:100490000A655A5E58585454504F4B4C464B3F4F88
:1004A0001DBFCBC5C9C8CBCCCCD0D0D1D1D4D3D62D
:1004B000D5D8D7D9DADBDCDCDFDCE2DEE5DDEAD576
:1004C0000A6860645B5C57575354504E494D435023
:1004D00025D2DAD5DAD8DBDBDCDDDEE0DFE2E1E213
:1004E000E2E4E5E7E4E6E6E7E8E9ECE7ECE7F1DF9C
:1004F0000C6056595553514F4D494A454642433E6B
:100500003F3B3E3A3A42373430342E2F293024359F
:1005100005B0B8B4BAB8BCBDC0BEC3C1C7C3CDBCBA
:10052000EB443D41393B38373535342F302D2E2AB9
:100530002B2928262624232320211D211A21152793
:10054000F69EA7ACC1BEC3C2C6C7CAC6CCC8D1C47A
:10055000EA362C322C2E2A2C2729252722271E2B3F
:1005600004B8C4BEC2C0C4C4C7C8CCC7CDC9D2C4F5
:10057000EC3A303530312E2E2C2A2A2828262623F4
:10058000232124221E1F1C1E1A1E191A141C1D278B
:10059000F7A9B0AEB2B2B6B6B9B9BDBBC1BDC6B9A6
:1005A000E2322A302D2D2829262827222221211F18
:1005B0001F1E1D1B1C1919181816171515141412B7
:1005C000111214100F0F0E0E0D0E0E0A0B0A0A094F
:1005D0000909070807070608050604060207FF0CB5
:1005E000EBADB6B1B4B5B8B9BBBDC0BDC2BFC7BC39
:1005F000DD20191D1A1A18191715161415131411C0
:10060000121114100F0F0E0E0C100D0C080D051208
:10061000F1AFB4B2B6B6B9C7C5BDBFBFC2C3C4C7D8
:10062000C7C8C8CCCFCFCDD0CFD4D4D3D4D6D6D7CB
:10063000D8DAD9DADCDCDEDEE0DDE2DFE4DFE8D9DF
:10064000FD4541403B3B393836373630302E2E2B76
:100650002B2A28272625232421211F201C2019216D
:1006600008D9E0DADCDCDEDEDFE1E3DFE2E0E6DD74
:10067000F5282225222220211E1E1C1D191C171EB2
:1006800006D4DBD6D7D8D9DBDADEDEDCDDDFDFE08F
:10069000E0E2E1E2E3E3E4E5E6E4E8E5E9E5EDE014
:1006A000073D2A2E2D2B2628242824221F221C24F5
:1006B0000BD6D9D6DBD9DCDBDDDBDFDDE0DEE5DB4D
:1006C000F42926251F1F1B1B17181511100E0D0AC4
:1006D00009080705050303020200000000D8BCB8A2
:1006E0003E76636D5F675A6BDCA9B8A63372DEACE9
:1006F000BAB2C3BB3C77EDB7426D5D6DE7B6C4B22D
:1007000039685A615665E1A52E66DFA42D67DDAC18
:10071000BBA83261555852534F504855D294205A75
:10072000D09FACA6B0ABB5A52C5F51584C5DD4A3FF
:10073000B0AAB5A6296ADAACB8A92D6EDDAFBBAAFE
:1007400032675569DFA12F605163DB9C2A65DA9A15
:100750002B5A4F5ED79428554D50494B4451CC8964
:100760001C4C3F51C692A19AA69521564659CF8E50
:100770001E5BD2A7B3A32560DCA027554A4F465382
:10078000D79B224D43493F4ECC99AA961C4E3F52CF
:10079000CD9BAA991E5BD2981F5BD3971F5AD49604
:1007A0002250464A444541413D3E3A3B3543C18B88
:1007B0009C94A09BA3A0A8A5AEA12164D5A8B0AE8F
:1007C000B3B3B7B6BCB0326B556DE0B0BAB7BDBA13
:1007D000C1B43779EAAF3677E9B7C2BBC6B43C706B
:1007E00062685E635868E0AABAA72E70E0AFBBB338
:1007F000BEAE3676F1B738695A6DEAB8C7B434661A
:10080000585F5363E4A62A65E2A72F67E0AEBEA94E
:100810002E5D525650524B4D4654D5951C58D2A180
:10082000AFA8B1ACB7A6285C4D56495BD7A5B2AB13
:10083000B5A72668DDADBAA9296CE0B0BDAB2D63C4
:100840005265E2A22A5D4D60DD9C2561DD9C265744
:100850004A5BDC952352494C4749404ED08A18499F
:100860003C4FCA94A39BA8971C534256D290195A46
:10087000D09BB1A7205EE0A32554474D4452DA999E
:100880001D4B40463C4CD19DAE9A194C3C50D29EDB
:10089000AE9D1A5DDB9A1A57D99B1B57D9991E4CEE
:1008A000434641423E3E3B3B36393240C590A097DD
:1008B000A29FA8A3ABA8B0A21D62D8AAB3B1B5B538
:1008C000BAB8BEB22C665069E3B2BCB8BEBCC3B500
:1008D0003075EEB03072EBB8C5BEC8B5366B5D632F
:1008E000595E5364E3ACBCA9286CE3B0BDB6C1AF9C
:1008F0002F71F1BA33655567F0BDCBB73061535AEC
:100900004F5EE8AA2560E7AA2460E5B2C2AD295887
:100910004D524C4D4749424FDC9B1754DDABB3ACB5
:10092000B5B0BBAA225848514457DBA8B6AFB9AA04
:100930002062E0B1BFAD2366E5B4C0AE285E4C6076
:10094000E6A52458485BE1A01F5CE19F2152455574
:10095000DF9A204D444742433E4BD48E1345374ADD
:10096000CF99A8A0AC9B174F3D52D6951456D49F53
:10097000AF9D1A5AE5AA204E444A3E4DE0A01946C2
:100980003C423748D7A3B5A11447374BD7A5B5A2EA
:100990001453DEA11652DDA01853DE9F1A473E41C4
:1009A0003C3D393A353C39352E3DCB96A69EA9A51E
:1009B000ACA9B0AEB7A8175ADEB1B7B5BABABEBCCB
:1009C000C3B6255F4962E7B7C0BDC3C0C7B9296CCC
:1009D000F0B52B6AEDBCC8C0CDBA2F63555C525739
:1009E0004C5DE6B1C0AD2265E6B5C1BAC4B42869B4
:1009F000EEB02B5E4D60F5C4D4C12A594C53485714
:100A0000EFB32059ECB31F59EABACAB52351464A8D
:100A1000444742433B48E2A3144EDDAEBBB4BDB8ED
:100A2000C2B21D4F40493D4FE1B1BDB6C1B11E62DA
:100A3000E7B7C3B41F5DE8B9C8B621544457EAAC60
:100A40001F4F4052E6A81954E5A71B4A3D4DE4A1AB
:100A500018463E403A3D3642DC990E3E3143D5A120
:100A6000B0A8B4A31147364ADB9D0F4DDAA7B8A34F
:100A70001350E8B91B463B403945E8AF153E353ABF
:100A8000313FE1B2C2B0113E3041E1B4C1B01048D3
:100A9000E4B01146E5B01145E7AF133C34363233CC
:100AA0002F2F2C2D292B2531D7ABB8B2BAB7BDBD0E
:100AB000C2BEC5BC1048E6C4CFC9CAC8CCCBD1C6DB
:100AC0001A48364AEEC8D0CDD2CFD5CA1B4FF6C78A
:100AD0001B4DF4CFD8D2DACB20473B40393D3441CF
:100AE000EFC7D3C51445EFCBD3CFD7CB1848F5C745
:100AF000193E3440FBDBE5D81B3B30352D37F7D0B2
:100B00001337F6D11237F5D6E0D314302A2C282922
:100B10002627242BEFCA0A2CEED2D8D4DAD7DDD37D
:100B20000F2C2329212BF0D4DBD7DDD50C30F3D9C2
:100B3000E0D70E31F4DAE2D8102C222CF6D40E27AE
:100B4000212EF6D30A29F3D30B241D24F3D10A2036
:100B50001C1D1B1B191FEFCE051D151EEDD4DBD769
:100B6000DED5051F1620F0D40421F0D9E0D80621E7
:100B7000F3D7081D171A161BF8E1071814161218D8
:100B8000F5E2E8E105171118F5E3E9E30419F7E2E6
:100B90000519F8E30518F7E30615111210110F10E7
:100BA0000E0F0D0E0B10F2E3E7E5E8E7EAE9EBEADA
:100BB000ECE90417F8EBEEEDEFEFEFEFF1EE0715D0
:100BC0001016FAEFF1F0F2F1F3F00A18FDEF071644
:100BD000FCF1F4F2F5F1071310110E100D11FBF0FA
:100BE000F4F00411FBF2F4F3F5F20511FDF1050E3A
:100BF0000B0EFEF8FAF7050C0B0B090BFEF6030BB8
:100C0000FEF6030BFEF7FAF70309070807070606C7
:100C10000507FDF60107FDF8F9F9FAF9FAF90106F9
:100C200005050406FDFAFBFAFBFA0105FEFBFCFBD9
:100C30000105FFFCFCFB01040304FFFC01030203AC
:100C4000FFFC0002FFFD00020101FFFD00010101A8
:100C500000000000FFFE00000000FFFF0EC686A09F
:100C6000B4B1A0C2D1AEB6C8BFC5DADCD1C3BCDB5B
:100C7000E2D3CAEADBDBE2E8EEDCF9D9E6E5D2E86A
:100C8000E8EAF2F2E8E6DEE9F4F4F5F7EDEEF7F281
:100C9000F9F9EFF2EBF308F3FDEED9FBFEEFEEF717
:100CA000F8F7FCFBFCFB0300F700ED0BF7EC08F496
:100CB000F4FFFFF701F8FD0607FD07FFFFFEF3074E
:100CC00003020702060201FA000BFB02FE050D08F3
:100CD000FDFCF50D12F8F8EAEF0B06F410FBF7FF38
:100CE0000704FB1305080BFC0B10FFFAF3FA140FB3
:100CF000001201F5120A08070F130C0DF9010F1469
:100D000002F2070C090B090DFF0B01FE1004060689
:100D10000D0D0B0504040C0E100A0BFF0E0BFF0D3E
:100D2000FA0A12070808040D0510090C0A0716FF35
:100D300006FA040A090B0702FD08FB030B06110C57
:100D4000110C0102FF0A0005010B170A0BF1E91053
:100D500004E8FC0C010110110205FB091BEFF8016E
:100D6000F70A03070FFD0BFE0810FD0B060913150C
:100D70000C051310160F130DF2160AFA01081213C0
:100D80000A1506FF0C091008FFFB0D0A13FF0312DA
:100D9000090506110D1202F1140EFBFC02040907ED
:100DA00011150218E6FB09F7F904110C040B09ED03
:100DB00019030CFEFD0B050AF7030D1002100702C4
:100DC0000B03010F071407FD0B0204F8FF0C0C0DB9
:100DD000FB1107080CEB06020FFC13060202F208D7
:100DE000FF0904FFFB10070E0810FF0F04090D0B8D
:100DF0000E07170A15FD1C041603F80E021005183D
:100E0000070AF5FB1900FD0C07070C07110C10026F
:100E10000C10000BF815050407EC021607F3030588
:100E200005080612070E080312FA13F1F70606FE6C
:100E3000F713FB0306130316030A10EB0EEEF5FF80
:100E400006080E11F5F60001050CFF0AF502110C5B
:100E50000B0E0908FC08090808061C0820EDC4DE72
:100E6000FAEDD90712E2F003F4FD161705EFE813C7
:100E70001802F61F070A0E18190628FB0F08F10CB6
:100E80000A0C16130703F806121112130508110AAB
:100E900013120708FC09220412FAE30F10FBFB06E9
:100EA00006050A090906130C020BF31BFCF314FADE
:100EB000FB0806FE0AFD04100F0311040602F40FDE
:100EC00008080D070B0505FB0311FB05000A130BB2
:100ED000FEFBF31318F6F6E3EB1007F115F8F4FE3A
:100EE0000903FA17050B0CF80C13FDF5ECF61814B2
:100EF000011801F2170D060714170E0FF60011184E
:100F000000EC090D090D0A0EFC0CFDFC1103060591
:100F10000D0E0C0302020D0F10090CFF1009FB0C43
:100F2000F40A12040707000B010F060C070416FB56
:100F300004F30108070803FCF704F4FF0803110990
:100F40001009FCFCFA08FB01FC09180608E7DD0F94
:100F5000FFDBF50AFCFC0F0FFC01F4061DE4F1FBBE
:100F6000EE08FE040DF509F7050EF6080107141941
:100F70000D0616121B11160DED1A09F7FF081412B3
:100F8000071703FD0B0A1006FBF80D0814FB0312EC
:100F9000060204110C13FCEB150BF5F7FE00070419
:100FA0001113FF18DFFB04F1F202100A000903E637
:100FB0001BFD0BF6F9070105F0FE0B0DFE0E02FE00
:100FC00008FDFD0D021401F707FDFFF0FB0A0908FB
:100FD000F510010606E102FD0DF413FFFEFAEB0425
:100FE000F905FFF8F50D030B050DF80EFE060C10C4
:100FF000100B1B0E18FE21031CFFFB0E0412061B18
:10100000060BF0FD1BFDFC0D03050C06120C11FE7A
:101010000D0DFE09F517000403E6021602EE0102AB
:1010200003060411030D03020EF612E6F60707F796
:10103000F610F6000411FF16FB0B08E50CE3F1FABD
:1010400003030D0BEDF0FBFB0206FA05EC010E08A5
:10105000070A0403F6060306010518051EDBB7D7C9
:10106000F5E0D1080AD5EDFCECF91611FFE1E51A1F
:101070001902FB2506100E1E170A29F81502F20D9B
:10108000090D17120500F6071210121102091008B7
:10109000130C0105F80C1E0012EFE2100AF6F8041A
:1010A00002020706050312050004F01CEFF610F318
:1010B000F80600FA06F7071209FF0EFD03F9F20D14
:1010C0000205070206FFFFF50309F501FA070D0502
:1010D000F8F4ED140EEFEDD9E90EFAEE10ECF0F89D
:1010E00006F8F813FD0803F20B0BF4EDE4F3191204
:1010F000051BFCF91A0C08081615100CF40412163E
:10110000FAEF0A0A09080A0AFB0AF8FE0C000303B0
:101110000A0906FFFE00080A0B0505F80C00FB058E
:10112000F20709FF0300FF05FD09000900030BF8A2
:10113000FFF300010302FFF8F8FFF3FE01000706CA
:101140000D01FAF9FA02F9FEFA040A0000EAEB07C7
:10115000F9E9FA02FAFB0503FAFDF50308ECF8F9E0
:10116000F501FB0001FA01F80101F901FD00070B8F
:10117000040409070A060802FB0901FD000206042F
:101180000206FFFF02020300FEFE020103FD01034F
:1011900000FF00020103FDFC0300FDFEFFFF00FF56
:1011A0000201FF01FAFFFFFEFE000000FF00FFFE4C
:1011B00001FF00FFFFFFFFFFFFFF0014D2CBB8C10C
:1011C00013C3F713DAEABC2521F4D4950615AFDD75
:1011D000D9CFFA000FE013EB360612DCBF20DFDABE
:1011E000EC2FF134D9FEF4D00CD91A284016BDAB3F
:1011F000D1ECA2DD1FBBCD0FDACB471EDDEFC01A4D
:101200000EDF3C08FDFC4125FDC3CA4CE7CFFED9EB
:10121000FE0B27000D1318460628B41211E6E32A28
:101220001C1B2AD42ACC0EF406314928BFB8D3FBA4
:10123000A2E926C4D21AE1D05327E5F3C71E1AE06B
:10124000490A0CE704631C13B10235C2F6EFE5113D
:101250001A27F62B024D1E26F1CB38EEEAFA46008D
:101260004BE60C03DB1BE42A3956E9B6BAF8D1A8E1
:1012700026F9B60010BD165DF4F4DAE241E31C3C39
:10128000FD0BD74D4816EEA82518C80AD705113012
:1012900006121C1D530931B01917E9E2332221311E
:1012A000D52FCD0EFAFF3F4452EFA8D6F89EE42B7F
:1012B000C0D120DECD592DE1F5C2211CDE4F0B0D32
:1012C000E40568250CBBCC55F4C5F6DB16192DF3E7
:1012D0002E02542326F2C13FEAEBF54EFD53E20DF8
:1012E00003D71DE02F3A5E23C8960016AEBABCADF8
:1012F000EE631FAAD4991809FF2AB6BBF2634F5EAA
:101300002C961315C4A70C19EF41921146770302CE
:101310001CE7438D0D4862406F02F12C99D2960272
:101320004A6813B9AAF6358F1411E2760DDF7DF9FC
:10133000001BD57CFFE6623B6B01E0690CA8ABD6D5
:1013400073F8ED2F800F03E6535B0BD5681195EC16
:1013500053278015F20104F017D3643E54464652D9
:101360001096B19CB893F62499C698F363269CD145
:101370008B180AFC2DADB5ED6C54672D8E0F1ABA83
:10138000A20523D97F14B1E07FFD041BE545830A44
:101390004F69487503EC328ECF8C014E7115B2A1A6
:1013A000F33A84111FA9E07FF80F12F22BCB7F00D4
:1013B000E76C447604DB6F12A1A9D17FFAED34808B
:1013C0001006E35F6B0CD95F562188E937801CEE6D
:1013D0000402F218D36B4858504B5C118FAA94B298
:1013E00088F72498B5A7A7DF7F1B07050606050821
:1013F0000309030A01090109020A02080207030698
:10140000040504050404050405020503050305039A
:10141000050406030403040304050403040403048D
:101420000304030403040304030203030303030389
:101430000304050303030303030403030303030378
:101440000303030303030303030403020608030364
:101450000302020304030302030402020202020263
:10146000030202020202020202030202020202025A
:101470000203040202020202020302020202020248
:10148000020202020202020202000202020202023E
:101490000203040202020202020302020202020228
:1014A000020202020202020202030301020202011C
:1014B0000202040202020202020302020202020209
:1014C0000202010201020202010302010202020100
:1014D00002020302010408030203010101020102E6
:1014E00001020102010201020103020102010201E3
:1014F00001010302010102010203010102010101D4
:1015000002020102010101020103020101010201C3
:1015100001020301010102010203010102010101B3
:1015200002010102010101020102010101020101A6
:101530000102030201010201020301010201010192
:101540000201010102010201010002010101010188
:101550000102030200020103000400030003010A68
:1015600003013080C0408080C0408080C0408080C7
:10157000C040800C0D080B110E1307060205030472
:101580000F1012000102040305060701000002000B
:1015900000030004000500000000240027002A00CA
:1015A00000000000250028002B00000000002300A0
:1015B00026002900040404040404040402020202B4
:1015C0000202030303030303010204081020408006
:1015D0000102040810200102040810200000000786
:1015E00000020100000304060000000000000000EB
:1015F0003C0FF224DD2FC0300E38F72411241FBE1B
:10160000CFEFD8E0DEBFCDBF11E0A0E0B1E0E2E86F
:10161000F7E702C005900D92A234B107D9F717E0A1
:10162000A2E4B1E001C01D92A93CB107E1F715E1C8
:10163000CAEFD5E104C02297FE010E94793BC03F6A
:10164000D107C9F70E9464380C94B43B0C94000095
:10165000A0E0B0E0EEE2FBE00C94853BEC01A8805A
:10166000B980CA80DB80A114B104C104D10441F463
:1016700084E2A82E89EDB82E8BE5C82E87E0D82EFF
:10168000C601B5012DE133EF41E050E00E945C3B23
:1016900027EA31E440E050E00E94E83A7B018C0107
:1016A000C601B5012DE133EF41E050E00E945C3B03
:1016B000CA01B9012CEE34EF4FEF5FEF0E94E83A18
:1016C0006E0D7F1D801F911F97FF04C061507040F9
:1016D00080409048688379838A839B839B01AC0117
:1016E0005F77B901CA01CDB7DEB7EAE00C94A13B40
:1016F0000E94280B089580E091E00E94280B089535
:1017000060930001709301018093020190930301A3
:10171000089560E070E020C0F901E25FFE4F808133
:10172000480F511D2F5F3F4F26173707ACF3FB01C2
:10173000EE5AFD4FCA0123E0959587952A95E1F76A
:101740008083FB01E85AFD4F4770507040836F5F04
:101750007F4F6630710529F040E050E020E030E036
:10176000E3CF08958F929F92AF92BF92CF92DF9274
:10177000EF92FF920F931F93CF93DF9370E0FB01E3
:10178000E25FFE4F9081892E9924C0E0D0E050E0C6
:1017900020E030E0B8E5AB2EB2E0BB2EA60EB71EBF
:1017A000A2E5CA2EA2E0DA2EC60ED71E90E0BC013A
:1017B000660F771F680F791F660F771F615A7D4F7D
:1017C00041E0E42EF12C012D112D40C0F5014081A6
:1017D000C901840F911D8031910524F04051420FC1
:1017E00052E007C0089724F04850420F51E001C072
:1017F000420FF6018081FB01E50FF11DE80FF11D9D
:10180000808190E002C0959587954A95E2F780FF28
:101810000DC0D801C701022E04C0880F991FAA1F4E
:10182000BB1F0A94D2F7C82BD92B0EC0D801C70111
:10183000022E04C0880F991FAA1FBB1F0A94D2F75B
:1018400080959095C823D9232F5F3F4F28153905E0
:101850000CF4BCCFCE01DF91CF911F910F91FF907F
:10186000EF90DF90CF90BF90AF909F908F900895B2
:101870006F927F928F929F92AF92BF92CF92DF92A0
:10188000EF92FF920F931F93CF93DF933A0170E093
:10189000FB01E25FFE4F9081892E992430E040E009
:1018A00050E0F8E5AF2EF2E0BF2EA60EB71E90E096
:1018B000E2E5CE2EE2E0DE2EC60ED71EEC01CC0F06
:1018C000DD1FC80FD91FCC0FDD1F11E0E12EF12C59
:1018D000012D112D4CC0F5012081CA01820F911DEF
:1018E0008031910524F02051240F32E007C0089781
:1018F00024F02850240F31E001C0240FC301042E2E
:1019000002C0959587950A94E2F7632F70E080FFF7
:1019100016C0F6018081FB01E80FF11DEC0FFD1FE1
:10192000E15AFD4FD801C70104C0880F991FAA1FB3
:10193000BB1F2A95D2F72081282B208316C0F601E1
:101940008081FB01E80FF11DEC0FFD1FE15AFD4FF7
:10195000D801C70104C0880F991FAA1FBB1F2A9571
:10196000D2F780952081822380834F5F5F4F481597
:1019700059050CF4B0CFDF91CF911F910F91FF90DB
:10198000EF90DF90CF90BF90AF909F908F907F901F
:101990006F900895DF92EF92FF920F931F9396E05E
:1019A000699FB00111249B0103E0359527950A95A5
:1019B000E1F7D22E667070E020E030E090E0AC01FC
:1019C000440F551F480F591FB3E0440F551FBA95D8
:1019D000E1F7A1E0EA2EF12C012D112DFA01ED0D18
:1019E000F11DED57FD4F808190E0062E02C09595C8
:1019F00087950A94E2F780FF0CC0D801C701022E38
:101A000004C0880F991FAA1FBB1F0A94D2F7782B16
:101A10000CC0D801C701022E04C0880F991FAA1F4D
:101A2000BB1F0A94D2F7809578236F5F683011F45A
:101A3000D39460E02F5F3F4F2630310579F6872F32
:101A40001F910F91FF90EF90DF900895DF92EF923A
:101A5000FF920F931F93CF93DF9396E0699FB0019E
:101A600011249B0153E0359527955A95E1F7D22E25
:101A7000362F367060E070E0C42FD0E090E0AC010B
:101A8000440F551F480F591F93E0440F551F9A9557
:101A9000E1F781E0E82EF12C012D112DCE01062E6B
:101AA00002C0959587950A94E2F7ED2DF0E080FF4E
:101AB00012C0E40FF51FED57FD4FD801C701032EEB
:101AC00004C0880F991FAA1FBB1F0A94D2F7208158
:101AD000282B208312C0E40FF51FED57FD4FD801CE
:101AE000C701032E04C0880F991FAA1FBB1F0A94A9
:101AF000D2F780952081822380833F5F383011F4B4
:101B0000D39430E06F5F7F4F6630710539F6DF9117
:101B1000CF911F910F91FF90EF90DF9008950F9359
:101B20001F93CF93DF93809144038F5F809344038F
:101B30008150833010F01092440380914403882335
:101B4000B1F5CAE5D1E060E070E003E210E0888121
:101B5000882339F1FB01E45CFC4F8081882309F183
:101B6000609FF001619FF00D709FF00D1124EC5B00
:101B7000FE4F228533854485558586819781A085D2
:101B8000B185820F931FA41FB51F82839383A48303
:101B9000B58382819381A481B58182879387A4874D
:101BA000B5876F5F7F4FA3966530710581F6DF9132
:101BB000CF911F910F91089508950895BF92CF92EC
:101BC000DF92EF92FF920F931F93CF93DF93B82E84
:101BD00010E000E0C0E0D0E081E0C82ED12CE12C84
:101BE000F12C3BC01F5F173010F00F5F10E0E02FAB
:101BF000F0E0EE59FC4F828190E0012E02C09595F5
:101C000087950A94E2F780FF0DC0D701C601022E26
:101C100004C0880F991FAA1FBB1F0A94D2F7482B34
:101C2000592B0EC0D701C601022E04C0880F991F80
:101C3000AA1FBB1F0A94D2F7809590954823592379
:101C40002F5F3F4F261737076CF28B2D6C2F0E94AA
:101C5000380C2196C630D10559F0FE01E25FFE4FE7
:101C60008081682F70E040E050E020E030E0EACF73
:101C7000DF91CF911F910F91FF90EF90DF90CF9068
:101C8000BF9008950F931F93CF93DF93C82FD0E099
:101C9000CE0183709070892B09F05DC00FB7F89466
:101CA0006091F3017091F40188E06030780708F4E6
:101CB0008EC010E020E080E090E004C0660F771F47
:101CC000881F991F2A95D2F722E330E040E050E0C8
:101CD0000E94E83A3EE096958795779567953A9504
:101CE000D1F720E130E0211B310904C0660F771FD6
:101CF000881F991F2A95D2F7609301027093020200
:101D000080930302909304020FBF2FB7F894809141
:101D10000A0290910B02A0910C02B0910D028093E7
:101D2000F5019093F601A093F701B093F8012FBF4E
:101D30008091F5019091F601A091F701B091F80121
:101D40008093FD019093FE01A093FF01B0930002E8
:101D500081E080930902CF70D070CD2B09F03DC097
:101D60000FB7F8946091F3017091F40188E060304E
:101D7000780780F110E020E080E090E004C0660F7A
:101D8000771F881F991F2A95D2F724E630E040E09C
:101D900050E00E94E83A2EE09695879577956795F2
:101DA0002A95D1F720E130E0211B310904C0660FEC
:101DB000771F881F991F2A95D2F7609301027093AD
:101DC000020280930302909304020FBF06C018E042
:101DD00028E071CF18E028E0CFCFDF91CF911F919D
:101DE0000F910895EF92FF920F931F93F82EE62E16
:101DF000042F122F0E94CA0C282F112371F081E0AA
:101E000090E0A0E0B0E004C0880F991FAA1FBB1F9C
:101E10000A95D2F7422F482B0EC081E090E0A0E057
:101E2000B0E004C0880F991FAA1FBB1F0A95D2F704
:101E3000482F409542238F2D6E2D0E94260D1F9115
:101E40000F91FF90EF900895FF920F931F93F82E3C
:101E500000E00CC08F2D602F412F20E00E94F20E79
:101E60001F5F1630B9F70F5F003211F010E0F2CFAC
:101E70001F910F91FF900895E8E5F1E01082B3966D
:101E800082E0EA32F807D1F786E192E06DE370E094
:101E90000E946D2984E392E00E948D2B08951F9388
:101EA000182F80912C03882339F0812F90E08370C4
:101EB0009070892B19F50AC080913A03212F30E0E8
:101EC000882371F023703070232B21F484E392E097
:101ED00061E00FC0609113036E5F84E392E015C070
:101EE00023703070232B51F4609113036E5F84E3F1
:101EF00092E00E94DB2B112329F009C084E392E0D9
:101F000060E003C084E392E067E00E94DB2B1F9156
:101F100008950F931F93CF93DF93C0E0D0E0082F75
:101F200010E080911803882389F0C330D105F4F0C4
:101F3000CE018350682FA8010C2E02C055954795FD
:101F40000A94E2F7417084E392E00EC0C330D105F9
:101F50006CF4A8010C2E02C0559547950A94E2F73F
:101F6000417084E392E06C2F0E94242C2196C630AD
:101F7000D105B9F6DF91CF911F910F9108950F937D
:101F80001F9381E793E00E941229809144038F5FA1
:101F900080934403813428F01092440380E00E942F
:101FA000420E84E392E063E00E944E2C882339F4D1
:101FB00084E392E065E00E944E2C8823A1F080919A
:101FC0001303482F50E0423051051CF040E050E030
:101FD00002C04F5F5F4F4093130381E793E06DE0D2
:101FE00021E00E94172984E392E064E00E944E2CD5
:101FF000882339F484E392E066E00E944E2C882323
:10200000A1F080911303482F50E04115510519F4B8
:1020100042E050E002C0415050404093130381E73A
:1020200093E06DE021E00E941729609113036F5F38
:1020300084E392E00E94DB2B10E001E084E392E075
:10204000612F0E944E2C882339F084E392E0612FA7
:102050000E94622C0093700384E392E0612F0E943F
:10206000902C482F84E392E0612F0E94242C84E37B
:1020700092E0612F0E94A72B8823B9F084E392E0BD
:10208000612F0E94C72B612F665FAC0173E05595ED
:1020900047957A95E1F781E793E021E00E941729BF
:1020A00084E392E067E00E94DB2B1F5F133031F680
:1020B00080917003882369F084E392E00E949A2C57
:1020C000482F81E793E06EE021E00E9417291092EB
:1020D00070031F910F910895882309F445C0282F9C
:1020E0002095237086958695813051F0813028F0B7
:1020F0008230E9F08330C1F51FC060FD07C013C016
:10210000862F90E083709070892B69F0622F70E0C9
:1021100080E090E00E94A939611571058105910563
:1021200011F491E001C090E010923B031EC0862F95
:1021300090E08770907004C0862F90E08F70907050
:10214000892B69F0622F70E080E090E00E94A9394D
:10215000611571058105910511F491E001C090E0D0
:1021600081E080933B0301C090E0892F089581E7CF
:1021700093E068EF70E00E941627089586E192E0F0
:102180000E94662A81E080932B0308953F924F922C
:102190005F926F927F928F929F92AF92BF92CF92F7
:1021A000DF92EF92FF920F931F93CF93DF930E94E2
:1021B000AB30AB01BC0186E192E00E94032A8FEFB5
:1021C00080931E0396E5C92E91E0D92E66247724CC
:1021D0004301AA24BB2483E2482E512CD601149635
:1021E0008C911497882309F4B3C0F501E75EFC4F86
:1021F000308012968C9112971996ED90FD900D916A
:102200001C911C97882381F5A49CE001A59CD00D0E
:10221000B49CD00D1124CC5BDE4F8A819B81AC81B4
:10222000BD818E159F05A007B107D0F48A819B81DF
:10223000AC81BD819D0144275527D601ED91FC91CC
:10224000E20FF31FE4912A813B814C815D818E85F1
:102250009F85A889B989820F931FA41FB51F54C0F9
:10226000E6011C82E0E054C0A49CF001A59CF00DA6
:10227000B49CF00D1124EC5BFE4F82819381A4810C
:10228000B581E816F9060A071B07A8F48281938135
:10229000A481B581E6012D813E814F815885820F51
:1022A000931FA41FB51F8E199F09A00BB10B82832A
:1022B0009383A483B583A49CB001A59C700DB49CAA
:1022C000700D11246C5B7E4FFB0182819381A48190
:1022D000B581CD01AA27BB27E601E881F981E80F86
:1022E000F91FE491DB0112962D913D914D915C9186
:1022F00015971E968D919D910D90BC91A02D820FEA
:10230000931FA41FB51FEB018A839B83AC83BD83FE
:102310002E2F332727FD3095F501E15EFC4F80819C
:1023200090E028273927832D90E0FC012E9FC001E3
:102330002F9F900D3E9F900D1124892F990F990B7F
:10234000AA2797FDA095BA2F680E791E8A1E9B1E9C
:102350000894A11CB11C43E250E0C40ED51E56E007
:10236000A516B10409F03ACFA4019301E4E0220FCD
:10237000331F441F551FEA95D1F7C901DF91CF9153
:102380001F910F91FF90EF90DF90CF90BF90AF9093
:102390009F908F907F906F905F904F903F900895A7
:1023A0000F931F93CF93DF93082F8A3010F460E0D0
:1023B00013C084E392E060E041E00E94242C84E3B7
:1023C00092E061E041E00E94242C84E392E062E02C
:1023D00041E00E94242C61E0015087EF9FEF689F4D
:1023E000102D1124100FC0E0D0E084E392E0612FA3
:1023F00040E00E94242C84E392E00E94B82E66E91B
:1024000070E080E090E00E94D93484E392E0612F94
:1024100041E00E94242C84E392E00E94B82E66E9F9
:1024200070E080E090E00E94D9342196C330D1055D
:10243000E1F6DF91CF911F910F910895FF920F93D5
:102440001F93F82E01E713E0C80160E00E942329E2
:10245000F09243018F2D0E94D011C80161E07BE111
:102460000E948E23C8016CED7DE00E948823C80184
:102470006BEA7DE10E949423C8016DED7DE00E942E
:102480009A23C80162E173E10E94A023C8016EEBA8
:1024900070E10E94A623C8016AE073E10E94AC23A8
:1024A000C80165E073E10E94B223C8016EEF72E1DA
:1024B0000E94B823C80161E070E00E94E3241F91EC
:1024C0000F91FF9008950F931F9304E312E0C8014A
:1024D00060E041E00E94242CC8010E94B82E66E909
:1024E00070E080E090E00E94D934C80162E041E0F1
:1024F0000E94242CC8010E94B82E66E970E080E09A
:1025000090E00E94D934C80161E041E00E94242C8F
:10251000C8010E94B82E66E970E080E090E00E9459
:10252000D934C80163E00E94DB2BC8010E94B82E99
:1025300066E970E080E090E00E94D934C80167E06D
:102540000E94DB2BC8010E94B82E66E970E080E093
:1025500090E00E94D934C80160E00E94DB2BC801E2
:1025600060E040E00E94242CC80161E040E00E944D
:10257000242CC80162E040E00E94242CC8010E9483
:10258000B82E1F910F9108950F931F93082F10E0FD
:1025900084E392E0612F0E94DB2B68EC70E080E026
:1025A00090E00E94D93484E392E00E94B82E1F5F2D
:1025B000183071F768EC70E080E090E00E94D93448
:1025C00084E392E060E00E94DB2B84E392E060E031
:1025D000402F0E94242C84E392E061E0402F0E946F
:1025E000242C84E392E062E0402F0E94242C84E3B8
:1025F00092E00E94B82E1F910F91089510922C0323
:1026000086E192E00E94532B089586E192E00E94B9
:10261000592B089586E192E00E94492B81E0809336
:102620002B030895CF93DF93EC0189818D3709F057
:1026300040C08A81882349F4109243018A818F5FC8
:102640008A8381E793E070E030C0813009F584E34C
:1026500092E067E00E94DB2B84E392E00E94B82EB8
:1026600021E030E0F901EF59FC4FDE01A20FB31F6A
:102670008C9180832F5F3F4F2F30310599F78091E8
:1026800014030E94DE0D84E392E00E94B12B11C07E
:102690008A3079F481E08093420181E793E00E94DF
:1026A000EB2481E793E060E170E0AE0120E00E945E
:1026B000B127DF91CF910895BF92CF92DF92EF9231
:1026C000FF920F931F93CF93DF9310923903809162
:1026D0002C03882309F4D8C084E392E060E00E94D0
:1026E0009D2B882389F184E392E060E00E94C72B50
:1026F0008C010C5E1F4F159507951595079584E382
:1027000092E060E00E94D12BEC016496D595C795CC
:10271000D595C79586E192E00E94922A0C171D0775
:102720003CF00817190704F18C179D07ECF006C060
:1027300080179107CCF0C817D907B4F084E392E072
:1027400060E00E94B62B10C084E392E060E00E943B
:10275000C72BBC016C5E7F4F759567957595679526
:1027600086E192E00E947D2A84E392E061E00E948B
:102770009D2B8823A1F184E392E061E00E94C72BA6
:102780008C010F5F1F4F95E0159507959A95E1F71E
:1027900084E392E061E00E94D12BEC01219685E078
:1027A000D595C7958A95E1F786E192E00E946F2B57
:1027B00090E00C171D073CF0081719070CF18C1757
:1027C0009D07F4F006C080179107D4F0C817D90709
:1027D000BCF084E392E061E00E94B62B11C084E378
:1027E00092E061E00E94C72BBC016F5F7F4F15E054
:1027F000759567951A95E1F786E192E00E946C2B3A
:1028000084E392E062E00E949D2B882371F184E3CF
:1028100092E062E00E94C72B8C01159507951595F3
:10282000079584E392E062E00E94D12BEC01D595FC
:10283000C795D595C79586E192E00E94FC2990E066
:102840000C171D074CF0081719070CF48BC18C17D7
:102850009D070CF487C1CAC0801791070CF482C190
:10286000C817D9070CF47EC1C1C084E392E062E0CE
:102870000E94C72BBC01759567957595679586E194
:1028800092E00E94F9296EC180913A03882309F4ED
:1028900062C186E192E00E94562B882309F45BC155
:1028A00080911303882309F050C084E392E060E034
:1028B0000E949D2B882369F084E392E060E00E94EF
:1028C000A72B882379F084E392E060E00E94B62B86
:1028D00009C084E392E060E00E94C72B9093340328
:1028E0008093330384E392E061E00E949D2B882370
:1028F00069F084E392E061E00E94A72B882389F0CD
:1029000084E392E061E00E94B62B0BC084E392E086
:1029100061E00E94C72B9595879595958795809343
:10292000350384E392E062E00E949D2B882309F046
:1029300055C084E392E062E00E94C72B959587958D
:1029400095958795809336030DC1813009F00AC1B2
:1029500084E392E060E00E949D2B882369F084E389
:1029600092E060E00E94A72B882391F084E392E03C
:1029700060E00E94B62B0CC084E392E060E00E940D
:10298000C72B66E0959587956A95E1F780933903A3
:1029900084E392E061E00E949D2B882369F084E348
:1029A00092E061E00E94A72B882389F084E392E003
:1029B00061E00E94B62B0BC084E392E061E00E94CC
:1029C000C72B95958795959587958093370384E3D5
:1029D00092E062E00E949D2B882371F084E392E0F4
:1029E00062E00E94A72B882309F4BCC084E392E034
:1029F00062E00E94B62BB6C084E392E062E00E94DF
:102A0000C72B959587959595879580933803AAC090
:102A1000809113038B9DC0011124EF2CE80E84E3F9
:102A200092E06F2D0E949D2B10911403882309F4CE
:102A300066C080911503811709F087C084E392E096
:102A40006F2D0E94C72BAC01CE2DD0E0FE01E25FBE
:102A5000FE4F8081282F30E08B3050F4C601821B5E
:102A6000930B8A0102C0159507958A95E2F708C075
:102A70002A5030408A0102C0000F111F2A95E2F748
:102A800084E392E06F2D0E94D12BAC01C25FDE4F38
:102A90008881282F30E08B3050F4C601821B930BC5
:102AA000EA0102C0D595C7958A95E2F708C02A5079
:102AB0003040EA0102C0CC0FDD1F2A95E2F7809179
:102AC00014036E2D0E94B20B0C171D073CF0081763
:102AD0001907DCF18C179D07C4F106C08017910718
:102AE000A4F1C817D9078CF184E392E06F2D0E94FE
:102AF000B62B84E392E067E00E94DB2B26C084E3E0
:102B000092E06F2D0E94C72B9C01EE2DF0E0E25F5A
:102B1000FE4F8081482F50E08B3050F4C601841B5B
:102B2000950BA90102C0559547958A95E2F709C012
:102B30004A505040C90102C0880F991F4A95E2F7D8
:102B4000AC01812F6E2D0E94380CF39493E0F9169E
:102B500009F05ECF07C0FF2433E0B32E2AE0C22E77
:102B6000D12C56CFDF91CF911F910F91FF90EF9015
:102B7000DF90CF90BF9008952F923F924F925F9237
:102B80006F927F928F929F92AF92BF92CF92DF927D
:102B9000EF92FF920F931F93DF93CF9300D000D05B
:102BA00000D0CDB7DEB7882E24E431E03E832D83FC
:102BB0008FE193E09C838B8355E2452E53E0552EA5
:102BC000E9E1F3E0FA83E9834CE3242E43E0342E79
:102BD00066247724ED81FE818689882309F49FC1CC
:102BE000882029F0F1E08F1609F099C15FC180912A
:102BF0003A03882309F4B2C186E192E00E94562B81
:102C0000882309F4ABC184E392E060E00E949D2B2D
:102C1000882309F042C0DFB6F894ED81FE8160811F
:102C2000718180E090E00E94F7397B018C01609116
:102C30003303709134036F5F7F4F882777FD809552
:102C4000982F0E94F93920E030E040E85DE30E94CF
:102C5000853A9B01AC01C801B7010E94853A20E08A
:102C600030E040E858E30E94853A20E030E040E858
:102C700057E40E94853A0E94CB3923E230E0629EFD
:102C8000F001639EF00D729EF00D1124EC5BFE4F7F
:102C900066877787808B918BDFBE84E392E061E06B
:102CA0000E949D2B882359F580913503282F30E011
:102CB0002115310519F4F101108203C081E0F10101
:102CC000808380E091E0821B930B880F991F880F0F
:102CD000991FAA2797FDA095BA2FDC01992788276D
:102CE00023E230E0629EF001639EF00D729EF00DD3
:102CF0001124EC5BFE4F86839783A087B18784E322
:102D000092E062E00E949D2B882309F008C100D068
:102D100000D06091360370E080E090E0ED81FE81AC
:102D20002081318140E050E0EDB7FEB7218332834E
:102D3000438354839BC0F201808160E00E94B20B08
:102D40007C019FB6F894ED81FE816081718180E005
:102D500090E00E94F7395B016C010894E11CF11CC2
:102D60000027F7FC0095102FC801B7010E94F93920
:102D700020E030E040E85DE30E94853A9B01AC0131
:102D8000C601B5010E94853A20E030E040E858E3F2
:102D90000E94853A20E030E040E857E40E94853AFE
:102DA0000E94CB3923E230E0629EF001639EF00D79
:102DB000729EF00D1124EC5BFE4F66877787808B47
:102DC000918B9FBE84E392E061E00E949D2B88235B
:102DD00061F5F201808161E00E94B20B9C010097D5
:102DE00019F4F101108203C081E0F101808380E0D9
:102DF00091E0821B930B880F991F880F991FAA27B8
:102E000097FDA095BA2FDC019927882723E230E0AF
:102E1000629EF001639EF00D729EF00D1124EC5B3A
:102E2000FE4F86839783A087B18784E392E062E0B8
:102E30000E949D2B882309F072C0F201808162E01C
:102E40000E94B20B00D000D0AA2797FDA095BA2F00
:102E5000ED81FE812081318140E050E0EDB7FEB789
:102E60002183328343835483BC01CD0120E030E0D1
:102E700040E050E0FFEFEF2EF12C012D112DE0E1AD
:102E8000AE2EB12CC12CD12C0E94603980E090E094
:102E9000CB0177276627ED81FE81638F748F858F45
:102EA000968F0F900F900F900F9039C080913A033A
:102EB000882309F45CC086E192E00E94562B8823A7
:102EC00009F455C084E392E062E00E949D2B8823C0
:102ED00029F480913803E981FA81808384E392E0C8
:102EE00061E00E949D2B8823D1F48091370314C0A8
:102EF000F201808165E00E94B20BE981FA81808352
:102F000084E392E061E00E949D2B882341F4F2016A
:102F1000808164E00E94B20BEB81FC818083089485
:102F2000611C711C2D813E812D5D3F4F3E832D83A1
:102F30008B819C8101969C838B830894411C511C3E
:102F4000E981FA813196FA83E9830894211C311CC6
:102F5000F5E06F16710409F03DCE11C084E392E0F4
:102F600060E00E949D2B882309F02CCFE4CE84E3FF
:102F700092E062E00E949D2B882311F6B9CF26963D
:102F80000FB6F894DEBF0FBECDBFCF91DF911F917A
:102F90000F91FF90EF90DF90CF90BF90AF909F90F8
:102FA0008F907F906F905F904F903F902F900895FB
:102FB0000F931F93CF93DF9328E1829F8001112409
:102FC0000D571D4F90E00196EC01CC0FDD1FC80F8F
:102FD000D91F63E0CC0FDD1F6A95E1F7CD57DD4FB8
:102FE00084E690E00E944330F80181938F01EC1752
:102FF000FD07B1F7DF91CF911F910F9108950F93C6
:103000001F93CF93DF93082FC4E7D0E010E0FE01B9
:10301000859194910E944330AC01802F612F0E94D2
:10302000380C84E392E00E94B12B22961F5F163089
:1030300071F785E090E00E944330AC01802F63E09F
:103040000E94380C82E390E00E944330AC01485368
:103050005F4F802F65E00E94380CDF91CF911F9168
:103060000F9108955F926F927F928F929F92AF928D
:10307000BF92CF92DF92EF92FF920F931F93CF9365
:10308000DF93682E562E25E0821711F0482F01C0DD
:1030900042E0C42FD0E0FE01EB5DFC4F6082109156
:1030A000390386E192E00E94752B682F812F0E94E0
:1030B0006C10882309F4E9C080913B03882309F44C
:1030C00074C085E090E00E944330482F50E0440FE8
:1030D000551FFA01E85DFE4F8081918123E230E0C7
:1030E000C29FF001C39FF00DD29FF00D1124EC5B45
:1030F000FE4F4C5F5E4FDA012D913C91338B228B5A
:1031000091838083178A108E118E128EA0E0B0E01A
:10311000DC0199278827838F948FA58FB68F80E055
:1031200094E00E9443307C017FB6F89483E290E003
:10313000C89F4001C99F900CD89F900C1124E4E4D3
:10314000F1E08E0E9F1ED4016D917C9180E090E0A5
:103150000E94F7395B016C010027F7FC0095102FE6
:10316000C801B7010E94F93920E030E040E85DE392
:103170000E94853A9B01AC01C601B5010E94853AC7
:1031800020E030E040E858E30E94853A20E030E05B
:1031900040E857E40E94853A0E94CB39F4016687E3
:1031A0007787808B918B7FBE91C18FEF90E00E94DB
:1031B00043300196AA2797FDA095BA2FDC019927E5
:1031C000882723E230E0C29F4001C39F900CD29F2A
:1031D000900C112424E431E0820E931EF4018683C6
:1031E0009783A087B1878FEF90E00E94433000D093
:1031F00000D0AA2797FDA095BA2FF4012081318134
:1032000040E050E0EDB7FEB721833283438354831F
:10321000BC01CD0120E030E040E050E0FFEFEF2EB8
:10322000F12C012D112DE0E1AE2EB12CC12CD12CB1
:103230000E94603980E090E0CB0177276627D401B7
:103240005B966D937D938D939C935E970F900F90FB
:103250000F900F908FEF90E00E944330FE01E75EE9
:10326000FC4F252D30E0AC01429FC001439F900DE3
:10327000529F900D1124880F892F881F990B8083EE
:103280008FEF90E00E9443301DC1862D63E00E94C5
:10329000B20B00D000D0AA2797FDA095BA2F25E049
:1032A00030E040E050E0EDB7FEB721833283438346
:1032B0005483BC01CD0120E030E040E050E0E8E084
:1032C000EE2EF12C012D112DAA24BB2465010E94A4
:1032D0006039E62FF0E0EE0FFF1FDF01A85DBE4F63
:1032E0008D919C9123E230E0C29FA001C39F500DBD
:1032F000D29F500D11244C5B5E4FEC5FFE4F20813E
:103300003181DA0153963C932E9352978D939C937F
:10331000FA01178A108E118E128EA0E0B0E0DC0147
:1033200099278827838F948FA58FB68F0F900F9042
:103330000F900F90862D60E00E94B20B7C017FB64B
:10334000F89483E290E0C89F4001C99F900CD89FF9
:10335000900C112424E431E0820E931ED4016D916F
:103360007C9180E090E00E94F7395B016C01089449
:10337000E11CF11C0027F7FC0095102FC801B701D4
:103380000E94F93920E030E040E85DE30E94853A90
:103390009B01AC01C601B5010E94853A20E030E0F6
:1033A00040E858E30E94853A20E030E040E857E4E6
:1033B0000E94853A0E94CB39F40166877787808B1B
:1033C000918B7FBE862D61E00E94B20B9C01FE01B5
:1033D000E45CFC4F009711F4108202C081E080830E
:1033E00080E091E0821B930B880F991F880F991F33
:1033F000AA2797FDA095BA2FDC019927882723E2F9
:1034000030E0C29F4001C39F900CD29F900C1124CA
:1034100024E431E0820E931EF40186839783A08713
:10342000B187862D62E00E94B20B00D000D0AA279F
:1034300097FDA095BA2FF4012081318140E050E042
:10344000EDB7FEB72183328343835483BC01CD01A2
:1034500020E030E040E050E0FFEFEF2EF12C012DB6
:10346000112DE0E1AE2EB12CC12CD12C0E9460397F
:1034700080E090E0CB0177276627D4015B966D93BF
:103480007D938D939C935E970F900F900F900F906C
:10349000862D65E00E94B20BFE01E75EFC4F252DF4
:1034A00030E0AC01429FC001439F900D529F900DB0
:1034B0001124880F892F881F990B8083862D64E043
:1034C0000E94B20BFE01E15EFC4F80832FB7F8949F
:1034D00083E290E0C89FF001C99FF00DD89FF00DE6
:1034E0001124EC5BFE4F8789908DA18DB28D828374
:1034F0009383A483B5832FBF82819381A481B581F7
:1035000082879387A487B58781E0868BDF91CF91EF
:103510001F910F91FF90EF90DF90CF90BF90AF90F1
:103520009F908F907F906F905F900895FF920F9380
:103530001F93CF93DF93F82EC5E0D0E0082F10E063
:10354000C8010C2E02C0959587950A94E2F780FF7A
:1035500004C08C2F6FE70E94321821978FEFCF3F66
:10356000D80771F7F0923103DF91CF911F910F913E
:10357000FF9008951F93182F0E944F0F80911603FC
:10358000882319F0812F0E94420E80913003612F11
:103590000E94CA0C182F0E94961A812F0E94890F30
:1035A0001F91089580912B03882339F023C086E171
:1035B00092E00E94662A0E94B71086E192E00E9483
:1035C000722A8823A1F716C086E192E00E94782B28
:1035D00080912E03882341F086E192E060912F03D1
:1035E0000E94722B10922E0386E192E00E94752BAE
:1035F0000E94BA1A86E192E00E94812B882321F76B
:1036000008950F931F93162F909143018917E9F4A2
:103610004423D9F0862F66E00E94073B092F892FAB
:10362000642F0E94321880911803882311F403300C
:1036300050F4812F63E00E94073B692F84E392E0FE
:1036400041E00E94242C009361031F910F91089583
:10365000DF92EF92FF920F931F93CF93DF938091AE
:103660001703882309F080C1C0E0D0E053E0E52EC5
:1036700043E0D42E80913A03882309F4A2C186E165
:1036800092E00E94562B882309F49BC1809113037A
:10369000882381F58091300390E0C817D90721F085
:1036A0000397C817D90729F484E392E06C2F41E00F
:1036B00004C084E392E06C2F40E00E94242C1C2F75
:1036C00084E392E06C2F0E944E2C882311F0C0936B
:1036D000300380912D03882309F440C184E392E0F4
:1036E000612F0E944E2C882309F438C1812F0E943B
:1036F000240F34C1813009F031C184E392E06C2F92
:103700000E94442C882309F429C186E192E00E949A
:103710007A2A833078F48091180390E0880F991FFB
:10372000880F991F8C0F9D1F880F991F880F991F55
:1037300080932F0381E080932E0310C184E392E0F5
:103740006C2F41E00E94242C86E192E00E94562BCF
:10375000882369F484E392E06F2D0E94442C88232F
:1037600031F484E392E06F2D40E00E94242C80919C
:103770004603882331F084E392E06F2D41E00E94FC
:10378000242C86E192E00E94562B882309F450C035
:1037900080912D03882309F44BC01091320386E1F8
:1037A00092E00E947A2A181709F442C084E392E05A
:1037B0006F2D0E94442C8823D9F186E192E00E946B
:1037C0007A2A833018F186E192E00E94752B082F47
:1037D00086E192E00E946F2B10E090E001970817BD
:1037E000190759F4809118038D9DC00111244F2DA4
:1037F000480F8091300360E018C01091300386E1DB
:1038000092E00E94752B682F6F5F07C01091300304
:1038100086E192E00E94752B682F809118038D9DA0
:10382000C00111244F2D480F812F20E00E94F20E7D
:1038300080912C03882309F459C084E392E06F2D12
:103840000E944E2C882309F489C086E192E00E94F0
:103850007A2A833018F186E192E00E94752B082FB6
:1038600086E192E00E946F2B10E090E0019708172C
:10387000190759F4809118038D9DC00111244F2D13
:10388000480F8091300360E018C01091300386E14A
:1038900092E00E94752B682F6F5F07C01091300374
:1038A00086E192E00E94752B682F809118038D9D10
:1038B000C00111244F2D480F812F21E00E94F20EEC
:1038C00080911803882359F4F09214038F2D6FE729
:1038D0000E94321810924303109242033FC0E092BC
:1038E00014038E2D6FE70E94321838C084E392E0F3
:1038F0006F2D0E944E2C8823A9F0809118038823F5
:1039000059F4F09214038F2D6FE70E943218109231
:1039100043031092420306C0E09214038E2D6FE71A
:103920000E9432189091140380911503981721F08A
:1039300084E392E00E94B12B8091140380931503DD
:1039400010E080914603882331F084E392E0612FF8
:1039500041E00E94242C1F5F133099F72196E394D5
:1039600086E0E81609F086CE84E392E065E00E94E6
:10397000442C882381F100E010E084E392E0602F82
:1039800040E00E94242C809118032091300388236A
:1039900039F030E0C80103962817390761F405C0F3
:1039A000822F90E08017910731F484E392E0602F3A
:1039B00041E00E94242C0F5F1F4F03301105E9F6F0
:1039C0000AC0FC2E84E392E06C2F0E94442C8823D2
:1039D00009F4BACEB3CEDF91CF911F910F91FF9032
:1039E000EF90DF90089584E392E064E00E94582C09
:1039F000882381F080911703882361F490E08091FF
:103A00001303882309F491E09093130384E392E075
:103A10000E94B12B84E392E063E00E94442C8093E7
:103A2000180384E392E066E00E94442C80932D0307
:103A3000089585EA94E06FEF73E00E945A29089593
:103A4000AF92BF92CF92DF92EF92FF920F931F93AC
:103A5000CF93DF9380935E0290EA899F50011124F7
:103A60006501EE24FF2420C0B8016C0D7D1D85EAA0
:103A700094E00E945A2989930F5F1F4F0630110569
:103A800099F70894E11CF11C86E090E0C80ED91E5D
:103A900096E0E916F10441F4A4E2CA2ED12CCA0C36
:103AA000DB1CEE24FF2424C0E701CC0FDD1FCE0D6C
:103AB000DF1DCC0FDD1FC15ADD4F00E010E0D4CF79
:103AC000B8016C0D7D1D85EA94E00E945A29899306
:103AD0000F5F1F4F0831110599F70894E11CF11C85
:103AE00088E190E0C80ED91E95E0E916F10479F05E
:103AF000E701CC0FDD1FCE0DDF1D63E0CC0FDD1F16
:103B00006A95E1F7CD57DD4F00E010E0D9CFB50160
:103B100064567F4F85EA94E00E945A29682F86E117
:103B200092E070E00E947D2AB50163567F4F85EADE
:103B300094E00E945A29682F86E192E00E94F929B8
:103B4000DF91CF911F910F91FF90EF90DF90CF9079
:103B5000BF90AF900895AF92BF92CF92DF92EF9255
:103B6000FF920F931F93162F042F909143018917F3
:103B700009F0BAC0662351F500D000D0642F70E080
:103B800080E090E026E030E040E050E0EDB7FEB7A6
:103B9000218332834383548320E030E040E050E0CF
:103BA000E0E8EE2EF12C012D112DAA24BB24650195
:103BB0000E946039862F0F900F900F900F900E94F7
:103BC000201D84E392E00E94B12B8EC06F3729F450
:103BD000809161030E94FF1787C0262F2350243253
:103BE000C0F5822F66E00E94073BA82F80936103F7
:103BF000822F0E94073B192F242F30E0E92FF0E09D
:103C0000E25FFE4F8081482F50E0883058F487E013
:103C100090E0841B950BA90102C0559547958A95A4
:103C2000E2F709C047505040C90102C0880F991FF0
:103C30004A95E2F7AC018A2F612F0E94380C84E389
:103C400092E00E94B12B812F63E00E94073B0E940B
:103C5000BC151C3629F500D000D0602F70E080E044
:103C600090E026E030E040E050E0EDB7FEB7218381
:103C700032834383548320E030E040E050E000E8AA
:103C8000E02EF12C012D112DAA24BB2465010E94E8
:103C90006039609330030F900F900F900F9024C005
:103CA0001D3659F4602F70E06C5E7F4F660F771FF2
:103CB00086E192E00E947D2A17C01E3669F4602FCB
:103CC00070E06F5F7F4F759567957595679586E195
:103CD00092E00E946C2B08C01F3631F4000F86E181
:103CE00092E0602F0E94F9291F910F91FF90EF90B1
:103CF000DF90CF90BF90AF900895482F85EA94E071
:103D00006FEF73E00E946129089584E392E060E020
:103D10000E94442C882309F445C084E392E061E0CA
:103D20000E94442C8823F1F184E392E062E00E9437
:103D3000442C8823B9F181E0089584E392E063E0A4
:103D40000E94442C99E0899FC00111248F5F11C00B
:103D500084E392E061E00E94442C882371F084E3C4
:103D600092E063E00E94442C99E0899FC0011124F5
:103D70008E5F0E947D1E80E0089584E392E062E001
:103D80000E94442C882369F084E392E063E00E945F
:103D9000442C99E0899FC00111248D5F0E947D1EF3
:103DA00080E0089584E392E060E00E94442C882340
:103DB00079F2C3CFAF92BF92CF92DF92EF92FF9290
:103DC0000F931F93CF93DF9390EA899F6001112493
:103DD0005601EE24FF2420C0B8016A0D7B1D85EA40
:103DE00094E049910E9461290F5F1F4F0630110531
:103DF00099F70894E11CF11C86E090E0A80EB91E2A
:103E000096E0E916F10441F404E2A02EB12CAC0CCA
:103E1000BD1CEE24FF2424C0E701CC0FDD1FCE0D16
:103E2000DF1DCC0FDD1FC15ADD4F00E010E0D4CF05
:103E3000B8016A0D7B1D85EA94E049910E946129D1
:103E40000F5F1F4F0831110599F70894E11CF11C11
:103E500088E190E0A80EB91E95E0E916F10479F02A
:103E6000E701CC0FDD1FCE0DDF1DF3E0CC0FDD1F12
:103E7000FA95E1F7CD57DD4F00E010E0D9CF86E1AC
:103E800092E00E94922A482F8CE990E0C80ED91E39
:103E900085EA94E0B6010E94612986E192E00E94E1
:103EA000FC29482F0894C11CD11C85EA94E0B60176
:103EB0000E946129DF91CF911F910F91FF90EF90A8
:103EC000DF90CF90BF90AF900895FF920F931F9314
:103ED00080914503882379F08091470390914803AE
:103EE00001969093480380934703893791051CF00E
:103EF00081E08093460310E083E0F82E01E084E344
:103F000092E063E00E94442C8823B1F084E392E0C5
:103F100064E00E94442C882379F084E392E0612FCE
:103F20000E944E2C882341F00093450310924803D1
:103F3000109247030093170384E392E063E00E942A
:103F4000442C882329F184E392E064E00E94442C0D
:103F50008823F1F084E392E0612F0E94582C88239B
:103F6000B9F080914603882331F080915E020E946F
:103F7000DA1E8F2D05C080915E020E94DA1E812F0D
:103F80000E94201D84E392E00E94B12B009317034E
:103F900084E392E064E00E94442C882379F084E377
:103FA00092E0612F0E944E2C882341F0009345033C
:103FB00010924803109247030093170384E392E0A2
:103FC00064E00E94442C8823A1F084E392E0612FF6
:103FD0000E94582C882369F080914603882311F0B1
:103FE0008F2D01C0812F0E94201D84E392E00E944A
:103FF000B12B80914603882331F084E392E0612F56
:1040000041E00E94242C86E192E00E94562B8823F6
:1040100031F584E392E066E00E94442C8823F9F0B5
:1040200084E392E0612F0E944E2C8823C1F080919E
:10403000180323E0829FC0011124810F8093140391
:104040000E94FF17809114036FE70E9432180093BB
:10405000170384E392E0612F41E00E94242C84E363
:1040600092E065E00E94442C8823B1F084E392E062
:10407000612F0E944E2C882379F08091180323E051
:10408000829FC0011124810F809330030093170396
:10409000853011F40E94D8171F5FF394133009F094
:1040A0002ECF84E392E064E00E94442C882369F1DF
:1040B00084E392E066E00E944E2C882331F186E191
:1040C00092E00E945D2B81E08093170386E192E0ED
:1040D0000E94562B882309F4F3C080912B03882378
:1040E00009F0EEC081E793E06AEF70E00E941627C6
:1040F00008C081E793E06CEF70E00E9416271092F1
:104100002C0384E392E00E94B12B84E392E066E00A
:104110000E94442C8823B1F084E392E064E00E9482
:104120004E2C882379F084E392E00E94B12B90E03A
:1041300080912C03882309F491E090932C0381E073
:104140008093170380912C03882311F010923A0377
:1041500084E392E065E00E94442C882309F4B6C011
:1041600084E392E063E00E94442C882309F4AEC00B
:1041700084E392E066E00E944E2C882309F4A6C0F6
:104180009091300388E1989FD0011124AD57BD4F25
:10419000E9E4F3E08D91819383E0E136F807D1F70C
:1041A0001CC084E392E066E00E944E2C882309F450
:1041B00095C0809130030E94240F0FC084E392E0E9
:1041C00066E00E944E2C882359F090E080911603FF
:1041D000882309F491E09093160381E080931703FC
:1041E00084E392E065E00E94442C882309F47FC0B8
:1041F00084E392E063E00E94442C882309F477C0B2
:1042000084E392E064E00E944E2C882309F46FC09E
:10421000A9E4B3E09091300388E1989FF001112464
:10422000ED57FD4F8D91819383E0A136B807D1F70B
:1042300027C084E392E064E00E944E2C882309F4B6
:104240005EC090E080913A03882309F491E0909356
:104250003A0381E08093170384E392E00E94B12B3C
:1042600012C084E392E064E00E944E2C882359F04F
:104270000E94AB30AB01BC0186E192E00E94962A1D
:1042800081E08093170380911703882309F440C0CD
:1042900000E010E084E392E0612F0E94442C080FBC
:1042A0001F5F1730B9F7002399F51092170310928A
:1042B000450310924803109247031092460328C00A
:1042C00080912B03882309F01CCF13CF84E392E065
:1042D00065E00E94442C882309F063CF84E392E0D8
:1042E00063E00E94442C882309F47ACF67CF84E3EB
:1042F00092E065E00E94442C882309F09ACF84E381
:1043000092E063E00E94442C882309F4BCCFA9CF3B
:104310001F910F91FF90089580914201882319F019
:104320000E94BF0F089586E192E00E947A2A80934E
:1043300032030E94D21A86E192E00E94562B882313
:1043400039F4609113036E5F84E392E00E94DB2BEB
:104350000E94F31C0E94651F0E94281B0E945C1390
:10436000809113030E94BC150E948F0D0895CF9277
:10437000DF92EF92FF920F931F93CF93DF93CC24A2
:104380008C2D0E94201D54E1E52E51E0F52EDD24F8
:1043900020C0C330D10531F4F70140818D2D63E099
:1043A00050E005C0F801459154918D2D6C2F0E946D
:1043B000380C21960E5F1F4FC630D10551F7089477
:1043C000E11CF11CD394F6E0DF1619F420E030E094
:1043D0000FC008E610E0C0E0D0E0DBCF11920196FC
:1043E00088319105D9F72F5F3F4F2630310579F09D
:1043F000F901EE0FFF1FE20FF31F93E0EE0FFF1F17
:104400009A95E1F7ED57FD4F80E090E0E7CF86E128
:1044100092E068E770E00E947D2A86E192E060E029
:104420000E94F9298C2D0E94DA1EC39486E0C816DA
:1044300009F0A6CFDF91CF911F910F91FF90EF90E0
:10444000DF90CF90089584E392E00E94B82E84E339
:1044500092E00E94B82E0E94851E882359F081E0C8
:104460000E94C4120E94B72180E00E94C41281E021
:104470000E947D1E08950E94890B0E94232284E3DE
:1044800092E00E943D2D882331F00E94B72184E301
:1044900092E00E941E2D84E392E060E00E94C62E0E
:1044A00080E00E94201D08950E94C431089506C036
:1044B00081E793E0609143010E94E22881E793E065
:1044C000609143010E94E228882391F704C081E7AC
:1044D00093E00E94122981E793E00E941229882329
:1044E000B1F781E793E00E94122981E793E00E94EF
:1044F000122981E793E00E94122981E793E00E944C
:10450000122981E793E00E94122984E392E00E943D
:10451000B82E0E948C2106C081E793E06091430190
:104520000E94E22881E793E0609143010E94E22823
:10453000882391F704C081E793E00E94122981E764
:1045400093E00E9412298823B1F781E793E00E944B
:10455000122981E793E00E94122981E793E00E94EB
:10456000122981E793E00E94122981E793E00E94DB
:1045700012290895AF92BF92CF92DF92EF92FF92ED
:104580000F931F93CF93DF9384E392E061E00E9447
:10459000912B84E392E060E00E94C62E0E94631299
:1045A0000E943B220E94191D0E941E1280E890E08A
:1045B0000E94CE3004E011E068E271E0C4E4D1E092
:1045C00040E050E0A3E2AA2EB12CC12CD12CF5E0A2
:1045D000EF2EF12CFB0181919191BF01F801219106
:1045E00031918F013B8B2A8B998388831F8A188E88
:1045F000198E1A8EA0E0B0E0DC01992788278B8FF6
:104600009C8FAD8FBE8F4A9DF0014B9DF00D5A9D42
:10461000F00D1124EC5BFE4FC682D782E086F18656
:104620004F5F5F4FA39646305105A1F6809106017A
:104630009091070190930602809305028FE795E021
:104640009093F4018093F30110920A0210920B02EE
:1046500010920C0210920D0280E090E0AFE7B5E0FE
:1046600080930E0290930F02A0931002B093110258
:1046700084E392E00E94B82E84E392E00E94B82E78
:1046800086E192E060E20E946C2B86E192E00E945B
:10469000FF2984E392E00E94B12B80E00E94201D5C
:1046A00084E392E06FE00E949A2BDF91CF911F91FB
:1046B0000F91FF90EF90DF90CF90BF90AF90089553
:1046C000FC01E35FFE4F119211921192119211922F
:1046D00011921192119211921192119211921192C2
:1046E00011921192119211921192119211921192B2
:1046F00011921192119211921192119211921192A2
:1047000011921192119211921192118210820895B8
:10471000FC01E35FFE4F718360830895FC01E15F5C
:10472000FE4F718360830895FC01ED5EFE4F71833F
:1047300060830895FC01EB5EFE4F718360830895F2
:10474000FC01E55EFE4F718360830895FC01EB5D23
:10475000FE4F718360830895FC01E95DFE4F718314
:1047600060830895FC01E75DFE4F718360830895C7
:10477000FC01E55DFE4F718360830895CF93DF9365
:10478000EC01C857DF4F88819981C858D040813FDC
:10479000910509F4D9C0823F91054CF5803B910504
:1047A00009F467C0813B91056CF48039910509F4E7
:1047B0004AC0803A910509F483C08038910509F018
:1047C000FFC03AC0803D910509F492C0813D91053A
:1047D0002CF4803C910509F0F3C091C0803E910516
:1047E00009F44EC0803F910509F0EAC09CC08A3FA1
:1047F000910599F18B3F91058CF4833F910509F464
:10480000C8C0833F91050CF4A6C0863F910509F40A
:10481000CDC0883F910509F0D3C01CC08C3F9105E5
:1048200011F18C3F9105E4F08E3F9105F9F08F3F37
:10483000910509F0C5C0BDC0C35FDE4F2881398135
:10484000CD50D14043C0C15FDE4F28813981CF5068
:10485000D1403CC0CB5DDE4FAEC0C95DDE4FABC0CA
:10486000C75DDE4FA8C0C55DDE4FA5C0C35DDE4F8E
:10487000A2C0CD5EDE4F28813981C351D14026C010
:10488000C75EDE4FE881F981C951D140309709F404
:1048900097C0C557DF4F688170E06F77707076956D
:1048A000762F6627779567958A9190E08F7790703D
:1048B000682B792B6050704223978881099580C0BE
:1048C000CF5EDE4F28813981C151D140211531059C
:1048D00009F476C0FE01E657FF4FDE01A557BF4F32
:1048E000C957DF4F888160814C91F901099568C0F3
:1048F000C95EDE4F28813981C751D14006C0CB5EE9
:10490000DE4F28813981C551D1402115310509F487
:1049100057C0FE01E657FF4FC957DF4F88816081BE
:10492000F90109954DC0C55EDE4FE881F981CB5193
:10493000D140309709F444C0CE0184579F4FC657E9
:10494000DF4F688109953CC0C35EDE4FE881F98185
:10495000CD51D14024C0C15EDE4F48815981CF5135
:10496000D1404115510561F1C557DF4F888190E075
:104970008F7790709695982F882797958795FE0149
:10498000229130E02F773070822B932BFA0109951A
:1049900017C0CF5DDE4FE881F981C152D140309719
:1049A00079F0C657DF4F888109950AC0CD5DDE4F8B
:1049B00002C0C15DDE4FE881F981309709F00995A9
:1049C000DF91CF910895FC01EF5CFE4F81E0819370
:1049D000718360830895FC01EF5CFE4F1192118298
:1049E0001082089581E793E00E946023089508955E
:1049F0006F927F928F929F92AF92BF92CF92DF92EF
:104A0000EF92FF920F931F93CF93DF93EC018C01F2
:104A10000B571F4FE3E8EE2EF12CE80EF91E72E063
:104A2000672E712C63E0862E912C50E8A52EB12CB8
:104A300041E0C42ED12C87EA97E00E946437181613
:104A400019060CF0E3C18038910529F487EA97E054
:104A50000E94BE37DBC187EA97E00E949537D801F4
:104A6000ED91FC91309709F0DAC08B83998197FF23
:104A70000FC0943F69F0953F59F0993F49F09D3F31
:104A800039F0292F30E0903F28F4207F307002C0A9
:104A900020E030E0203B3105B1F0213B310554F4FA
:104AA0002039310581F0203A310569F0203831058F
:104AB00089F409C0203D310531F0203E310519F05F
:104AC000203C310539F487FD05C09B838C83F801B8
:104AD000D182C0822B8127FF0FC0243F69F0253F80
:104AE00059F0293F49F02D3F39F0822F90E0203FC7
:104AF00028F4807F907002C080E090E0813F9105B3
:104B000009F46EC0823F91054CF5803B910509F494
:104B10006BC0813B91056CF48039910509F464C048
:104B2000803A910509F460C08038910509F065C0AC
:104B30005BC0803D910509F453C0813D91052CF483
:104B4000803C910509F059C04BC0803E910509F4A5
:104B50004BC0803F910509F050C04AC0883F910585
:104B6000C1F0893F91055CF4833F9105C9F1833F12
:104B70009105D4F1863F910509F03FC00AC08A3FF4
:104B80009105DCF18D3F910524F08E5F90400297F6
:104B9000A0F527FF0FC0243F69F0253F59F0293FBA
:104BA00049F02D3F39F0822F90E0203F28F4807F9C
:104BB000907002C080E090E0C857DF4F99838883EF
:104BC0001A92239619921882CF57DF4F81E088837B
:104BD000C758D04019821882FE011292129217C152
:104BE000D7016D927C9213C0F701918280820FC031
:104BF000D701AD92BC9219820AC0CB57DF4F198200
:104C00001882C558D040F701118210829DC0D8018A
:104C10008D919C91119701968D939C930CCF87FF5A
:104C200069C08D3F40F48A3F48F4873FB9F0883F20
:104C300009F060C003C08E3F08F45CC0FE01E85775
:104C4000FF4F80831182C657DF4F19921882249735
:104C50001882CB57DF4F81E08883D9C08B8187FFD3
:104C60006BC0843F09F468C0853F09F465C0893F83
:104C700009F462C08D3F09F45FC0282F30E0803F07
:104C800020F4C901807F907001C0C901803F910567
:104C900009F052C090E0FE01E90FF11D8381E45755
:104CA000FF4F80839F5F9038B1F7C857DF4F80EF89
:104CB00090E099838883C858D040FE01EB57FF4F9E
:104CC00080818F5FC657DF4F8883219680819181D5
:104CD0000196988324971882CB57DF4F81E0888311
:104CE00011821082C958D04019821882C358D0400E
:104CF00019828DC0EC0FFD1F8383F8012081318163
:104D0000D7018D919C9101972817390708F478C035
:104D10002B8127FF24C0243F11F1253F01F1293FBA
:104D2000F1F02D3F99F0822F90E0203F10F4807F2A
:104D30009070803F910551F4CB57DF4F1982188254
:104D40001A921A92C358D040198260C02D3F39F090
:104D5000822F90E0203F28F4807F907002C080E096
:104D600090E0C857DF4F99838883C858D0408B8123
:104D70008F708F5FC957DF4F8883C758D0408C81B1
:104D8000C657DF4F8883279788819981C358D040C1
:104D9000FE01E557FF4F039719F48D81808301C011
:104DA0001082CB57DF4F198218821A921A92C75776
:104DB000DF4F81E08883C458D04088819981C858EA
:104DC000D040803B9105B1F0813B910554F480398E
:104DD000910581F0803A910569F08038910569F478
:104DE00009C0803D910531F0803E910519F0803C6D
:104DF000910519F48B81898301C0198281E007C074
:104E00002F5F3F4FF8013183208315CE80E0DF9183
:104E1000CF911F910F91FF90EF90DF90CF90BF90B7
:104E2000AF909F908F907F906F9008950F931F93F6
:104E3000CF93DF938C01EB016D3F710554F46A3F12
:104E4000710564F4663F710549F0683F710559F4D6
:104E500005C0CB018E5F9040029728F487EA97E067
:104E60006C2F0E94CE37C63FD10511F4F801108295
:104E7000DF91CF911F910F910895CF92DF92EF9222
:104E8000FF920F931F938C01E62EF7EACF2EF7E0E7
:104E9000DF2EC60163EF0E94CE37FF248FE7E822A2
:104EA000FF24C6016E2D0E94CE37F80110821F919B
:104EB0000F91FF90EF90DF90CF900895CF92DF9207
:104EC000EF92FF920F931F936C018B01B7EAEB2EC9
:104ED000B7E0FB2EC70162EF0E94CE37B8016F77B3
:104EE0007070C7010E94CE37000F012F001F110BF9
:104EF00011950F771070C701602F0E94CE37F60111
:104F000010821F910F91FF90EF90DF90CF90089546
:104F1000DF92EF92FF920F931F938C01D62E87EAB8
:104F2000E82E87E0F82EC70161EF0E94CE37C70157
:104F30006D2D0E94CE37F80110821F910F91FF90C6
:104F4000EF90DF90089570E06770707024E0660F56
:104F5000771F2A95E1F74F70462B642F0E94882710
:104F60000895CF92DF92EF92FF920F931F93CF930A
:104F7000DF936C017B018A01222319F0C0E0D0E0AD
:104F800023C087EA97E060EF0E94CE37C0E0D0E010
:104F900009C0F801EC0FFD1F87EA97E060810E94CD
:104FA000CE372196CE15DF05A4F387EA97E067EFA9
:104FB0000E94CE370CC0F801EC0FFD1F87EA97E086
:104FC00060810E94CE372196CE15DF05A4F3F6014D
:104FD0001082DF91CF911F910F91FF90EF90DF90A2
:104FE000CF900895FF920F931F93CF93DF93FC010F
:104FF000EB01142FF22E0150003118F460387105C6
:1050000014F410822BC0613E7105FCF4602F6F70A8
:105010006C2B8081861729F0608387EA97E00E94D5
:10502000CE371F7787EA97E0612F0E94CE37C03CCA
:10503000D105A1F0C03DD10589F08FE7F82287EABC
:1050400097E06F2D0E94CE3709C0663F710534F09E
:105050006F3F710509F014F40E941627DF91CF917C
:105060001F910F91FF9008950F93DC01AF5CBE4F2D
:105070008C91A153B140882309F4A2C0AE5CBE4F0D
:105080002D913C911197A253B1402115310509F49E
:1050900097C0A857BF4F6D917C911197A858B04009
:1050A000CB01805890408136910558F5A957BF4FE4
:1050B0000C91A758B04012969C911297091719F0BD
:1050C00080E0992309F481E02230310541F023305A
:1050D000310549F02130310509F072C007C088233D
:1050E00009F46EC003C0882309F06AC0FD01E557CA
:1050F000FF4FCD01A657BF4F4C9120810E94F22750
:105100005FC0663F710531F1673F7105A4F4613FEF
:10511000710509F44BC0623F71052CF4603F7105C5
:1051200009F04EC01BC0623F710569F1633F710514
:1051300009F046C021C06D3F71053CF46A3F71051E
:105140004CF4683F7105E1F505C0CB018E5F9040DE
:105150000297B0F5CD010E94162732C0A657BF4F67
:105160006C91AA58B040CD0170E0A457BF4FAD017B
:1051700021E00E94B12724C0CD01A657BF4F6C91FA
:105180000E943D271DC0A557BF4F6C9170E07695DA
:10519000762F6627779567958E91AA58B04090E054
:1051A000682B792BCD010E945E270AC0FD01E557CF
:1051B000FF4FCD01A657BF4F6C9140810E94A3279E
:1051C0000F9108951F93CF93DF93EC01162F613158
:1051D000D8F40E94F8248823B9F0C857DF4F88819B
:1051E0009981C858D040009779F080589040813616
:1051F000910578F49A81C957DF4F8881C758D0400C
:10520000891739F0992329F080E0DF91CF911F9120
:105210000895CE01612F0E943428CE010E94BE2342
:1052200081E0F3CFFC0162810E94E22808950F9390
:10523000362F542F022F60EB70E0432F252F0E9452
:10524000F2270F910895FF920F931F938C01F62E72
:1052500087EA97E042E15AE760E070E00E94DD36BD
:10526000F8011082F28211820B571F4FF801118250
:105270001082129212928F0107571F4FF80110826D
:1052800004581040F8011182108212928F010D5FB4
:105290001F4FF80111928F01108209551F4F81E0B5
:1052A00090E0F8019183808381E082931F910F91B8
:1052B000FF900895F999FECF72BD61BDF89A80B54F
:1052C0000895F999FECF1FBA72BD61BD40BD0FB6FA
:1052D000F894FA9AF99A0FBE0895FC0171836083DD
:1052E00086E0858780E1868788E790E093838283E4
:1052F0000895EF92FF920F931F93E42FF0E0EF7069
:10530000F070ED59FA4EE4912E2F30E020583040E5
:10531000FC01808590E0AC01249FC001259F900D89
:10532000349F900D112460E470E00E94273B9B01A4
:10533000442737FD4095542FE480F580068117817E
:105340002E153F05400751073CF0A8019701245155
:1053500030404040504014C088279927DC018E1906
:105360009F09A00BB10B82179307A407B50744F060
:1053700024E130E040E050E02E193F09400B510B92
:105380002E0D3F1D401F511FB901CA011F910F91E2
:10539000FF90EF9008950F931F938C01DC016D91A6
:1053A0007C9188EE93E00E94273B882777FD8095CB
:1053B000982F20E63AEE40E050E00E94E83AD8010B
:1053C0001296ED91FC9113979F01220F331F2E0F20
:1053D0003F1F43E0220F331F4A95E1F7442737FD73
:1053E0004095542F0E945C3BCA01B9011F910F9157
:1053F0000895FC0160870895FC018085089521E0EF
:10540000FC01248F0895AF92BF92CF92DF92EF926A
:10541000FF920F931F93CF93DF93EC015A016B011F
:105420008C8D882331F1CE016A8549850E947929C6
:105430007B010027F7FC0095102F0BC08C858F5F38
:105440008C872E0D3F1D401F511F288F398F4A8F8B
:105450005B8F288D398D4A8D5B8DD601C501821BEE
:10546000930BA40BB50B8E159F05A007B10734F75E
:1054700022C08C819D817C010027F7FC0095102FB4
:105480000BC08C858F5F8C872E0D3F1D401F511FD9
:10549000288F398F4A8F5B8F288D398D4A8D5B8D90
:1054A000D601C501821B930BA40BB50B8E159F056E
:1054B000A007B10734F7DF91CF911F910F91FF90B3
:1054C000EF90DF90CF90BF90AF900895FC01828560
:1054D0008F5F82879585891720F0128683858F5F7D
:1054E00083870895FC018485882319F0815084877F
:1054F00081E00895FC0182850895CF93DF93EC014C
:105500007B836A83672B21F481E090E09B838A830D
:10551000CE010E94CB296C837D838E839F83DF9194
:10552000CF910895FC018281938108952F923F923B
:105530004F925F926F927F928F929F92AF92BF92A3
:10554000CF92DF92EF92FF920F931F93CF93DF934F
:10555000EC011A012B018C899D89AE89BF897A01E2
:105560008B01E81AF90A0A0B1B0B6881798188EE16
:1055700093E00E94273B80ED97E09C01629FC00171
:10558000639F900D729F900D1124AA2797FDA095FF
:10559000BA2FE816F9060A071B0754F02C8A3D8A31
:1055A0004E8A5F8A1F86188A198A1A8A1B8A5EC0E9
:1055B0006C817D818E819F81E2E0660F771F881F5D
:1055C000991FEA95D1F72D8530E040E050E00E9428
:1055D000E83AE616F7060807190764F41C8681E026
:1055E0008B879985892F8370890F8987288E398EBB
:1055F0004A8E5B8EA888B988CA88DB888C899D8989
:10560000AE89BF89A81AB90ACA0ADB0AA20CB31C60
:10561000C41CD51CA88AB98ACA8ADB8AEF84E394A1
:10562000EF866881798188EE93E00E94273B882786
:1056300077FD8095982F20E63AEE40E050E00E94FA
:10564000E83A3B014C01FF2400E010E0C601B5013F
:10565000A80197010E945C3BC401B3010E945C3B1E
:105660003B832A832C8A3D8A4E8A5F8ADF91CF91C1
:105670001F910F91FF90EF90DF90CF90BF90AF9070
:105680009F908F907F906F905F904F903F902F9062
:105690000895FC0181E0858F8FEF8187858581509A
:1056A000828713860895FC01158E0895FC01858D6F
:1056B000089521E0FC01258F0895FC01858D882344
:1056C00011F0158E089581E0858F8FEF8187858594
:1056D0008150828713860895FC0166870895FC0136
:1056E00086850895FC0161870895FC0181850895F0
:1056F000FC0181858F5F81879685891708F0118667
:105700000895FC01858D882309F4138683858823F9
:1057100019F08150838781E0089522E0FC01218304
:105720000895FC01662311F4158E0895613009F483
:10573000658F0895FC0161830895FC01868590E0E2
:1057400002C0959587956A95E2F781700895FC01EE
:10575000878590E002C0959587956A95E2F78170FC
:105760000895FC018685876086870895FC0181E0A5
:1057700090E0A0E0B0E004C0880F991FAA1FBB1FF3
:105780006A95D2F780952685282326870895E62FE7
:10579000F0E03896EE0FFF1FE80FF91F808191812E
:1057A0000895E62FF0E03B96EE0FFF1FE80FF91F7C
:1057B000808191810895EF92FF920F931F93CF9371
:1057C000DF93EC01E62FF0E0ED57FA4E85919491CE
:1057D00023E030E0682F70E041E0E42EF12C012D51
:1057E000112D23503040CB01022E02C09595879594
:1057F0000A94E2F72D5F3F4F4D8580FF0CC0D80122
:10580000C701022E04C0880F991FAA1FBB1F0A944C
:10581000D2F7482B0CC0D801C701022E04C0880F54
:10582000991FAA1FBB1F0A94D2F7809548234D8762
:105830002F5F3F4F26303105A1F6DF91CF911F91A9
:105840000F91FF90EF900895FC012585442369F0A6
:1058500081E090E0A0E0B0E004C0880F991FAA1F8B
:10586000BB1F6A95D2F7282B0DC081E090E0A0E025
:10587000B0E004C0880F991FAA1FBB1F6A95D2F71A
:105880008095282325870895FC018381948102C097
:10589000959587956A95E2F781700895FC01818559
:1058A000928502C0959587956A95E2F78170089573
:1058B000FC018385948502C0959587956A95E2F7EA
:1058C00081700895FC0127813085C901062E02C030
:1058D000959587950A94E2F780FD10C081E090E0ED
:1058E000A0E0B0E004C0880F991FAA1FBB1F6A95F3
:1058F000D2F7282B392B30872783089581E090E059
:10590000A0E0B0E004C0880F991FAA1FBB1F6A95D2
:10591000D2F780959095822393239087878308956B
:10592000FC018781908502C0959587956A95E2F77D
:1059300081700895EF92FF920F931F93FC0167818E
:10594000708540E020E030E0E1E0EE2EF12C012D0A
:10595000112DCB01022E02C0959587950A94E2F78E
:1059600080FF0CC0D801C701022E04C0880F991F08
:10597000AA1FBB1F0A94D2F7482B0CC0D801C7013D
:10598000022E04C0880F991FAA1FBB1F0A94D2F7CA
:10599000809548232F5F3F4F23303105D1F6842F68
:1059A0001F910F91FF90EF900895FF920F931F9317
:1059B000CF93DF938C01FC0180818823E9F0C0E064
:1059C000D0E0FF24F394FE01E658FA4E85919491BD
:1059D000F801258530E00C2E02C0359527950A94F4
:1059E000E2F7217030706F2D62270E94AC3521964E
:1059F000C330D10541F71CC0C0E0D0E0FF24F394D0
:105A0000FE01E658FA4E85919491F801258530E023
:105A10000C2E02C0359527950A94E2F7217030705C
:105A20006F2D62270E94AC352196C630D10541F713
:105A3000DF91CF911F910F91FF900895CF93DF9346
:105A4000C0E0D0E08DE061E00E94AC3562E370E040
:105A500080E090E00E94D9348DE060E00E94AC3597
:105A600062E370E080E090E00E94D9342196C83073
:105A7000D10541F7DF91CF910895CF93DF9382E075
:105A800062E00E946D358DE061E00E946D3582E03C
:105A90000E940036892B11F080E01BC0C0E0D0E0EE
:105AA0008DE061E00E94AC3562E370E080E090E060
:105AB0000E94D9348DE060E00E94AC3562E370E072
:105AC00080E090E00E94D9342196C830D10541F79A
:105AD00081E0DF91CF9108956E3040F0862F0E94D3
