:100000000C94230C0C944B0C0C944B0C0C944B0C3C
:100010000C944B0C0C944B0C0C944B0C0C94233107
:100020000C944B0C0C944B0C0C944B0C0C944B0CF4
:100030000C944B0C0C944B0C0C94F4330C944B0C14
:100040000C9454350C944B0C0C9417370C94653766
:100050000C944B0C0C945E300C944B0C0C944B0C8D
:100060000C94AB340C944B0CB4000000FF00000067
:100070000000C800FF03FF00FF000700FF00FF00B3
:10008000000608100A07FFFFFDF7EDF304FA0EDA89
:10009000B1A99FA5A29EA4AAA2A6978BA4C6D8E5A3
:1000A000E8F700000C151C202A333E48463A2A1F68
:1000B0001205FDF8F2EBE6DED8D0CDC2BCC9D7E41C
:1000C000EEF7010B0F141B222931393E484E4F49E0
:1000D0003D2E1F0F03F8F1ECE4DCD4CFC9C4BFBD43
:1000E000B4B0BED0E0EDF6010B111821292F363B3C
:1000F00040454B5358574F4132221305F9EEE5DF87
:10010000D8D1CBC6C1BDB9B6B3B2ADAFC0D3E3F0A1
:10011000FA0610171F272E343B4144484D51545ABC
:100120005D5A53473A2A1B0BFDF1E7DED8D1CBC409
:10013000BFBBB8B5B2AFADACACADACB4C7DAEAF7E3
:10014000020E171E262E353B42474A4E5155585B2C
:100150005C5D5F5F5A51453829190AFDF2E7DDD42D
:10016000CDC7C1BDB8B3AEABA9A8A7A6A5A5A5A785
:10017000ABACB5C8DBEBF7020D161D252C343B42AA
:10018000464A4E5256595C5D5D5D5E5E605F5A51F7
:10019000463A2E211305F7EBE0D7CEC5BEB8B2AE76
:1001A000A9A6A29F9C9B9B9B9C9D9FA1A3A6AAAE38
:1001B000B2B6C1D5E7F6020B151C232A31383F45EC
:1001C0004A4F53575B5F6264656566666666656342
:1001D00062605A52493D32261A0E02F6EADFD4CA4C
:1001E000C2B9B2ABA5A09B989592908E8D8D8F9041
:1001F0009396999CA0A4A8ACB0B5BABFC5D4E6F7B5
:10020000040E1720272D343A41494F55595E626636
:10021000696C6D6E6F6F6F6E6D6B69676563626041
:100220005C5750483F362B21170D03F8EDE2D7CD30
:10023000C4BBB3ABA39D97928F8C89878685858538
:100240008586888A8C8F9296999C9FA2A5A8ACB02F
:10025000B4B8BDC2CDDFF0FF0B151F282F363E45C9
:100260004D545B61676C7175797B7C7D7D7D7D7D97
:100270007B79777472706D6B686663615E59534CFD
:10028000443B32291F150C02F8EEE4DACFC5BCB3AB
:10029000AAA39B958F8B87848281808080828385AF
:1002A000878A8C8E9194979A9DA1A4A7ABAEB1B486
:1002B000B7BABDC0C4C7CCD1D6DFECFA08131D2530
:1002C0002C33383E444A50565A5F63686C6F7273E1
:1002D00074757575757473727170706F6E6C6B690F
:1002E000676664625F5C5956524D47403830292139
:1002F00019100800F8F0E8E0D8D0C8C0B9B2ABA433
:100300009F9994908D8A888785858585858687883D
:10031000898B8C8F90929395989A9D9FA2A5A7AA5E
:10032000ACAFB1B4B6B8BBBDC0C4C9CED6E0EDFA6F
:1003300006111A232A31373E454B51575C61666BD3
:100340006F7376787A7C7D7E7E7E7D7C7C7B7A790D
:10035000777675747371706E6C6A6765625F5B57F0
:10036000534F4A453F39322B241D150E06FFF8F036
:10037000E9E2DBD3CCC5BEB8B1ABA59F9994908C14
:100380008885838280808080808182848587898B34
:100390008D8F91939596999B9EA0A3A6A9ACAFB281
:1003A000B5B7BBBEC1C4C7CBCED3D8DEE5EEF8032C
:1003B0000E171F272E343A3F454A5054595D616548
:1003C000686B6E70727475767777777676757574FC
:1003D0007372716F6E6D6C6A696664615E5B5753B0
:1003E000504C47433F3B36312C27221C17110B053D
:1003F00000FAF5EFEAE4DFDAD5D0CBC6C1BCB8B37A
:10040000AFAAA6A29E9B9896949291908F8F8F8F61
:1004100090909193949597999B9D9FA1A4A6A7A92D
:10042000ACAEB1B3B6B9BCBFC1C4C7C9CCCFD2D5CD
:10043000D8DBDFE3E8EDF4FB040E171F272E343979
:100440003F44494D5156595D606366696B6C6E6FF0
:1004500070717171717170706F6E6D6C6B6A6867BD
:10046000656462605E5C5A5753504C4844403C3867
:1004700034302C28241F1B17120D0904FFFAF5F045
:10048000ECE7E2DEDAD5D1CDC9C5C1BEBAB6B3AFAD
:10049000ACA8A6A3A09E9C9A999796969595969699
:1004A0009798999A9C9E9FA1A3A5A7AAACAEB0B21B
:1004B000B4B6B9BCBFC1C4C7CACDCFD2D5D8DBDDB5
:1004C000E0E4E7EAEEF2F7FD040B131B232A3137D1
:1004D0003C41464A4E5255595C5F61646667696AA1
:1004E0006A6B6B6B6B6B6B6A6A6968676564636187
:1004F0005F5E5C5A575553504E4B4744403C38342E
:10050000302C2824201C1814110D090501FDF9F5C3
:10051000F1EDE9E6E2DEDBD7D4D1CECAC7C4C1BE75
:10052000BCB9B6B3B1AEACAAA8A6A5A3A2A1A09F20
:100530009F9F9FA0A0A1A2A4A5A7A9AAACAEB1B35A
:10054000B5B7B9BCBEBFC2C4C7CACCCFD2D5D7DA43
:10055000DDDFE2E5E8EAEDF0F3F7FAFE03090F1656
:100560001C232A30353B4044484C505356595B5E5F
:10057000606163646565666666656564646362613F
:100580005F5E5C5A585654524F4D4A4744423F3C76
:100590003835312D2925211D1A16130F0C09060394
:1005A00000FDFAF7F4F0EDEAE7E4E1DEDBD9D6D3BB
:1005B000D1CECCC9C7C5C2C0BEBBB9B7B5B4B2B144
:1005C000B0AEADACABABAAAAAAAAABACADAEAFB164
:1005D000B2B4B5B7B9BBBDBFC1C3C6C8C9CBCDCF17
:1005E000D2D4D7DADCDFE1E4E6E9EBEEF0F3F5F8BC
:1005F000FBFE02060A0F141A20252B30353A3E4224
:1006000046494D50525557595B5C5D5E5F5F5F5F79
:100610005F5E5E5D5C5B5A58565553504E4C494682
:1006200043413E3B3835322F2C2825211D1A171304
:10063000100D0A070402FFFDFBF8F6F3F1EEECE9FA
:10064000E7E4E2E0DDDBD9D7D4D2D0CECCCAC8C74C
:10065000C5C3C1BFBEBCBBBAB9B8B7B6B6B5B5B4F1
:10066000B4B5B5B6B7B7B9BABBBDBEC0C2C4C5C7CD
:10067000C9CBCDCFD1D2D4D6D8DADDDFE2E4E6E9FA
:10068000EBEDEFF2F4F6F8FBFD0003060A0E12178D
:100690001B20252A2E32363A3E4144474A4C4E50C2
:1006A00052545556565757575757565555545251F9
:1006B0004F4D4B494644413E3B393633302D2A2875
:1006C00025221E1B1815120F0C0A07050200FEFC3E
:1006D000FAF8F6F4F2F0EEECEAE8E6E4E1E0DEDC6B
:1006E000DAD8D6D4D3D1CFCECCCAC9C7C6C5C4C236
:1006F000C2C1C0BFBFBEBEBDBDBDBEBEBFC0C1C208
:10070000C3C4C6C7C9CACCCDCFD1D3D4D6D7D9DA02
:10071000DCDFE1E3E5E7E9EBEEEFF1F4F5F8FAFC15
:10072000FE000205080B0E12161A1E2226292D3075
:1007300034373A3D3F42444648494A4B4C4D4D4E72
:100740004E4E4D4D4C4B4A4947464442403D3B3846
:100750003633302E2B282624211F1C191614110E77
:100760000C0A07050301FFFEFCFAF9F7F5F4F2F0B5
:10077000EEECEAE9E7E5E3E1E0DEDDDBD9D8D6D56A
:10078000D3D2D1CFCECDCCCBCAC9C8C8C7C6C6C6B6
:10079000C5C5C5C6C6C7C8C8C9CBCCCDCED0D1D3B8
:1007A000D4D6D8D9DBDDDEDFE1E3E5E7E9EBEDEF39
:1007B000F0F2F4F6F7F9FBFCFEFF01030507090B65
:1007C0000E111316181B1D1F2123252728292B2C3A
:1007D0002D2D2E2F2F2F2F2F2F2E2E2D2D2C2B2A40
:1007E000292827252422201F1D1C1A18171514122A
:1007F00011100E0D0B0A0907060504030201000083
:10080000FFFEFEFDFCFCFBFBFAF9F9F8F7F7F6F644
:10081000F6F5F5F4F4F4F3F3F3F3F3F2F2F2F2F2A3
:10082000F2F2F2F2F2F2F3F3F3F3F4F4F4F5F5F595
:10083000F6F6F7F7F8F8F9F9F9FAFAFBFBFBFCFC26
:10084000FCFDFDFDFEFEFEFEFFFFFFFFFFFFFFFFC5
:10085000FFFF0000FFFF0001FFFC0100FD0AFBF9A4
:1008600003F50705F7E00E53461EECCCBBB0AFB165
:10087000B3BFCADED9CEE004294962677171767CC4
:100880007666482C12F9DECBBCB2B1B1BBC2C9D579
:10089000DEE5F4F4FBFAFA07FFFF020B1521313B0A
:1008A0003E423F423B38332A29211B171A08FCEAF3
:1008B000D4C5B0A59E9A949AA1A5B0BCC8D1DAE3DC
:1008C000ECF6FCFF0C0F131E1C171421212D323ADD
:1008D0003E42433D3C332E291B16170D080206F7F6
:1008E000F1E8DFD4C9C9C7C4BEC4BEC3C6CED4D91B
:1008F000E5EEF8FD070C141518151619171A19143A
:1009000011160D05FF0C08030F10151B27252A2EA5
:10091000282625211E1C10100E020E010505FCFEC6
:10092000FD00EDF5F0DCD4D6CDCBC4BFC0BFC6C34F
:10093000C2D1D0D6E0E1ECF1FAFC0108110A080EB0
:100940001214151915181E1D1918171923262525F7
:1009500024272530271F1A1B1D160F020406110617
:100960000004FEF1ECEEE8E3E0DCDEE9DEDBD7DDFF
:10097000E6E2DEECEAEBF1F0FFF702000501090B1D
:10098000010CFE0607000100FF03FFFE090A010A31
:100990000E1B1A1D181A2F25221D1A222615211B7F
:1009A0000C141810130F0C06F807F6F6E5E5DAC973
:1009B000D9D1C2C3C6C7D5C2BCC0BEC8DFDADFE763
:1009C000EAF8F0F2FA05000311FE1317101B1A20C3
:1009D0001E2616311E1C292D2B1E382F25282C0DC6
:1009E000311B0F17051708120D0C02FD02F8F1EF6D
:1009F000EAE9EEDAD4DFE5E7D9D5E1EADAD5DAE8F3
:100A0000F5F3EFE30102F9F1FF05F4FEFD02EBFD62
:100A1000FCFEF8ECFF0107050A0B0E1827161B1A3F
:100A200016352523180F281820190D1E1E0C0E1917
:100A30000D08F8F9F3F4F7E7F1E4DAD8DCE1CACC11
:100A4000DDDBD4DADAE0D4E8E2EAE6ECFCE909FD41
:100A5000E7F50FF712FF0E0B0B1D121A0A220D1FDE
:100A6000112010213011102D2204240323080B190A
:100A700005141D100A07FE07FAF8E504F0EEE7E892
:100A8000F9F0ECE7E8F3EFE1FAEFEDF101F0F9F15D
:100A900001FEEE02FBFC03F6EBF6F20DFBF7DEF6D1
:100AA000050108F91307141313180F0D16140E1D62
:100AB0000912160A1D0D04FF121707050C02F20990
:100AC000F8EEECE5E7F0EBE2EDDDE7EBEDF8ECE27C
:100AD000DBF3F5E7ECF4F005FEE5FCFBF70C0A05AB
:100AE00005170CF424051012000B010A18150C252B
:100AF0000A131510050E1013010010FE161803FC42
:100B00000E07FFFDFAF0F500FDE5FD03ECF5FFEE45
:100B1000EAFDF6F3F1F7F7F5EAF0FBFBF40902FA68
:100B2000F5F901F9FDF4F6F80EF301F50D0CFB0CE7
:100B3000F6171B0C1118150D08170A1907020A0ED3
:100B40000D07070C0009FCFE0AE7F8EAF5E1F2EEF2
:100B5000E8F5E8E4ECFBF6EEE7ECFBF9FEF3F4F77E
:100B6000F90DF5F8F70D03FD1213F40717F7FE0B57
:100B700006080B07190BFF02051710011D0C0405D1
:100B80000F0A0310020C0911050600F307FEF6FC1C
:100B9000F203F2EEFCE105F8F3FAE604F6F9FAF9ED
:100BA000FDF609F9FAF3F101FFF201F5F40CF1FC9D
:100BB000FCFC0606F40407FF0B0B0AFFFB112401E3
:100BC000F81407001E04041AFF0B0C050C0207FEA4
:100BD000FCFF01F7EEEEF2F5F2F0F4F5E8F7F2EDD6
:100BE000FFF7EBF5FDF304F8EEF8F30EF405090159
:100BF0000CFCFC0808FA0BFD020908F906051006B2
:100C0000F50D0B0DFB0F070E0202080418FD010580
:100C1000020B0C0BED01FDFA08F40CF8F5F8F0FBF3
:100C200005F9FBEF00FDF7FBEF01FA0BF70100FE02
:100C3000F4F903FBEEF301F6FFF300F201FDFB060E
:100C4000F70506FF07070504050C04040D09050B4D
:100C50000808080708FF010806FE0205FAFBF6FD72
:100C6000FFFAF4FBFEF8F8F9FEF9FDFBFEFFFDFAD2
:100C7000FD00FFFE0000FFFEFF00FE00FF00FF0082
:100C8000FF00000004FFF112FCFA0FF706F003006A
:100C9000FF00FD1000FCEE0DF9FB04030A020FF942
:100CA0002107F612E502FD10FBE1FBEF08EAFAF876
:100CB000F509F701F7F6FD061B06FFF3E906F41048
:100CC000051809080EF705EC0AE7FBF404F5EF0830
:100CD000F70BEE17F70E00090B0410EA0DF90CF6EE
:100CE00004E6EE03F90EEF03FF12FB0B0E0007F113
:100CF00008F9FBFBFEF9EEFDFC04FCFE0B0C040105
:100D000003F8F3FE0207000B0601FDFF0901FFFADD
:100D1000FFFD0BF4FEF6FC020404FD0CFA04E904EA
:100D200008FC07FAFEFFFCF5F6F606FBFB03FF03E3
:100D300009FF0200000CFD04FDFEFA0C00020FFF8B
:100D400006F706FCFFFDF0FFFCFCFEF9F9080401C4
:100D50000802FB00F801050600F501F40008FAFDA1
:100D6000FDF9FF03FB05FC0410F908040107FAF480
:100D7000F9070101FD00010201F7FB07FDFAFDF98A
:100D800004FE0807000B01FBFDF5F705FDFDFCFD6A
:100D900005020AFAFD08F9F8FE03FF050201030245
:100DA0000801FDFEF9FD01FDFF0201FAFC00FB0157
:100DB0000101010202F90106FEFD0702FFF7FA0335
:100DC000FE01FFFFF90109FFFD0306FB04FDFF0320
:100DD000F3FD0205FB02F80301FC02FA08F7010526
:100DE000FBF9FF04FFFD0400FDFFFF04FFFF030408
:100DF0000101F90406FEFCFC0002FEFD03F902FEFF
:100E0000FFFE0200FBFAF903FE05FA0402FE07FFEB
:100E1000FE0100FB02FD03000204FB010203FD03CF
:100E2000FDFE03FCFFFE01FCFAFF04FDFDFEFB01DD
:100E3000FD06FE00020100FE01F705FB0404FE06AC
:100E4000FF00FC0402FFFF01FDFEFFF901FFFA01B4
:100E5000FDFD02FB03FEFD03FFFE01010000000299
:100E6000FE010500FE03FE00FE00FFF900FFFFFB90
:100E700002000200FE01FD00FEFCFF0301FFFDFE7B
:100E8000FFFF01FE010302020000FE03FBFD02FF63
:100E9000FDFD0501FFFF000100FDFE0001FF000256
:100EA000FEFFFE03FDFE01FEFFFF0301FEFEFFFF4E
:100EB000FF00FF000100000403FEFFFE000000FE33
:100EC000FB00000001FDFEFFFEFD00FEFE01FE0036
:100ED0000001FF000102FEFF0000020101FF02FF0E
:100EE00000FF01FE00FFFD01FE00FEFF0000FFFF0E
:100EF0000000FFFF00000000FF0000F912EFF118F2
:100F000011E7EC030C21F7F3EF060012CA17339632
:100F10003A6DCB97E1116A2AE0E6D0051B01C9EED4
:100F20004850DC9CD3FA203EF5EE1FF6CFE625357F
:100F3000E0CAFE033531E2EB13E6C1E9314302FEBC
:100F40000FEEFEDAAE03410FF8112F10D4DAE3EC06
:100F50001909E7363EE7CFE71207E301081834F135
:100F6000C90A0DD3E3113124FA00F7FE01BBCE33D9
:100F700027FC0D1C16F5DAD5EB1020EA034607D541
:100F8000E2F30E00F6030A310EC8EB19EDD7031990
:100F9000301AF1EAF40CEAC00B320206101408EF22
:100FA000D0DC092302E92826E6E6ECF61001F80673
:100FB0002124DFCF0A03E6FF09162C08E4ED02FE28
:100FC000D3E82C15000B03080AE3D3F51817F20633
:100FD00025FDE9F2E90415F6FA182600CFEC08F42D
:100FE000FC0C032120EAE4FE04EDDD0D20060A02DC
:100FF000F910FFD4E80F1803F9120EF2F2EDF11810
:1010000009EE0B1F10E7DDF9FEFD0C010C2600E1D7
:10101000F603F8E9F617130A06F00113E8DC0412E8
:101020000B00FF0D02F5F1E8081DF6FA1610F9E5C0
:10103000EBFC020904FE1A17EBE900FCF4F40314BC
:10104000110AF5F00F01DEF70E0C06FC0107FFF2A6
:10105000EAF71D0BF1080E00F7ECF1010706FB0E95
:101060001EFDE5F7FFF8FBFA06140FFDEEFE0CED92
:10107000ED0A0B0A03F70005FCF0EF0C16FBFE0C63
:1010800000FCF7EBFB0B06FDFF170FEDF2FCF60083
:1010900000FB0D1404F3F507FDEC000B090AFBF24D
:1010A0000206F7F1FE1208FC0602FAFEF1F0090B47
:1010B000FFFC0813FDF0F9F7FC06FB00140BF7F337
:1010C000FE04F7F806060A05F2F809FDF3FA080D22
:1010D000020102FBFFFBECFF0F03FD010B07F7F61C
:1010E000F8F90602F90A11FDF4FA0000FAFF040704
:1010F0000BFBF00403F6F8020B0701FEFDFF00F105
:10110000F30B0B0000030500F8F8F90306F8000FD5
:1011100006F6F9FC0001FDFF040904F3FA06FAF8EB
:10112000FF050906FEFAFD02FAF1010C03000200B8
:1011300003FEF6F8FF08FFF90809FBFAFBFB0302C0
:10114000FE010506FBF60300F9FD01040902FBFBA5
:10115000FFFFFAFB04040001FFFF01FDFBFF020299
:10116000FDFF0200FEFFFE0001FFFF000000FFFF89
:1011700000FFFFDCE6550BE0FC05F4FD08FD04056F
:10118000FA05FD0006F6FBFE060804F5FBFEFE016F
:101190000803FC04F7FF03FDFEFF0400FEFFFF0150
:1011A000FFFC00000200FF00FDFF0101FFFFFDFC4E
:1011B000FF02030300FEFAFBFE020304FE00FD0231
:1011C000FF01FF01FE00FEFFFEFE3CC1BB0C104212
:1011D0002E0FE4D7EE1303EA0B14EEFD17FCECFA26
:1011E000F1FA0AF810110105F5F3010D07F8F5FC05
:1011F000FE00040302FE00FCF7F904060300F803F6
:1012000003FE03FEFD02000200FEFAF8FEFF0003EB
:1012100001FCFBFEFE05050200FEF9F8000705FED5
:10122000F6F6FE06090605FBFAF007D1D54D40FBA0
:10123000CAF510E90C1FF0F9100CFAD1DD0F1D1BD7
:10124000180DF3E4EBF70B101506F7E7F50A08069F
:10125000FEFEFA0904F4F6FF0202030605FDFAF0A9
:10126000FC070C07F8F1F306030C01FEFCFE02017B
:10127000FBFBF9F2FA040D0A0CFC00EE05BFE335A6
:101280001B09230BD608FF10E3DCEF211C0A08EC36
:10129000FF070DF0F4FE0D1010D9CCFB182E18002E
:1012A000E8F112F8F3EF010507100B06F6F4E5FC80
:1012B0001417FDF6F707F4E5FB1E1500EBE805FE35
:1012C000230DE1F40EEFE70F15FD000B0701E4EC31
:1012D00019FBFF040005FA10FFF6F302F904FBE422
:1012E00000140617FFD9EEFA121A0EFA0AF8F5FDE5
:1012F000E4F3111B10F9E9E91119F903FEF3FEF704
:101300000403ECF815150D00F703F1F1EAFD0819D7
:101310002002E7DAEBFE090A110C12FEF6F50302D1
:10132000F3F907F4E91606030E04F8E4F3060909D5
:101330000AF3F00606131208F9F5E5E40110130F9D
:101340000DFDE4D9F50F131510F8F4F1FCF8EFFCDE
:1013500010120E07FFEFE706FD110A01FCF9F5FA7E
:101360000AF4FF0C0D0704E8E50204040E0CFCEC83
:10137000F3071307F4F000FF040F080FFFF3F60163
:10138000FD02FAFAFD02100905EDEDFD0AFAFC0571
:1013900001090D08F3E9EBFF0C090801090CFCFA3F
:1013A000F0F4010A0F03F9F2E8F713090204060149
:1013B000ECEE02110AFEFBFC0B070A05F5FAFB0432
:1013C000FBF7040C070005F7EAEEEFF60712161319
:1013D0000BF7F3F6F7FC01010405FD01F8040BFE21
:1013E000FBFDFAF2F7070A090900FF01FAF4020F00
:1013F0000DFDF5F1F0FF0F0E0D0BF7E6E1FA0F1002
:101400000801FCF70506FBFBF7F4FD030C161607B5
:10141000FBEEEFFAFC050809FDFEFBF6F5FA0609FE
:101420000A0400FAF6FB0303FFF7F1F80710140CA7
:10143000FEF1ECF800030C0400FFF8FD0706FA05C6
:101440000700FAF8FB000803F8F2F2F4F800090EBE
:10145000141507F8F6F3FB0701000603FFF9F9FB83
:1014600005080405FCF1EEFB060B0CFCF3FF050080
:101470000102FC02070602FDFBFCF8FC040704FB6A
:10148000FDFD010601FE00FBFD00FE03FCFC030266
:10149000070602FBFFFDF4EEEEFB0C111109F4F15F
:1014A000FB0407080701F7FE0202040100FDF8F63D
:1014B000FAFC050D08FFFDF6FB02FDFFFF01070624
:1014C000FDFBFD0203020301FDF8FAFFFFFBFB0237
:1014D000090D08FEF7F5F6F9F9FE080F0F07FEF7FC
:1014E000F6FD00FFFE010301FEFCFEFE020300FD0F
:1014F000FC020503FEFAFD0202010202FFFDFBFAF7
:10150000FE00FFFAFB02060705FFF9F8FD010203E2
:10151000020100000000FFFDFE0000010000FFFED0
:10152000FDFEFF01000000FFFFFF00FFFFFF0000C6
:1015300000FFFFFFFFFFFF0000000006F818D218B1
:101540004EBF88B70E507F73532905DFC0A8999608
:101550009AADBED800100D121F354759636B6A66ED
:101560005A4A351E08EEDED3C4B3A59B9796999FC1
:10157000A8B4C1D3DDF50C0E101B30485D6C757737
:10158000736B5D4C38240CF8EDDCC8B6AAA29F9FA3
:10159000A2A8B1BCCCD7E5010B0A0F20364C5D6880
:1015A0006D6B65594B38250FF9EDDECBB9ABA39FB9
:1015B0009EA1A6AFB9C7D7E1FA0C0D101B30465952
:1015C000666E6E6A6052412E1A02F3E6D4C0B1A76D
:1015D000A1A0A1A6ADB7C2D2DCEF070C0C14263B2C
:1015E000505F686C6962564633210AF7EBDAC7B67A
:1015F000AAA3A1A2A6ABB5C0CFDBE8010D0C101EBB
:10160000334859646A6964594B392712FDF0E2CFB7
:10161000BCAFA7A3A2A5AAB3BDCAD8E2F80A0C0E14
:10162000192D4153606768645A4D3D2A1701F2E64F
:10163000D5C2B3AAA5A4A7ACB3BDC9D8E2F4090E1C
:101640000E1525394B596265625B4F412F1D08F518
:10165000EADBC9B8ADA7A5A6ABB1BBC5D4DFED0425
:101660000D0D111F3144545E63625D5345352310E7
:10167000FBEEE2D1C0B2AAA7A7AAB0B8C2CFDCE8FD
:10168000FD0B0C0F192A3D4D5960615D55493928F4
:101690001602F2E7D8C7B8AEA9A8AAAFB6C0CBD990
:1016A000E3F6080B0C14243647555D5F5D574C3E3E
:1016B0002D1C09F6EADECEBEB2ABA9AAAEB5BEC8F5
:1016C000D6E0F0030A0B101E2F414F595D5D574EB7
:1016D00041322110FEEFE4D6C5B7AEAAA9ACB2BA2A
:1016E000C4D0DCE9FC07090E192A3C4B565D5E5B51
:1016F000534739281704F3E7DBCBBCB1ABA9ABB038
:10170000B7C0CCD8E3F603070A1423354551595C1A
:101710005A544A3D2D1C0BF9EBE1D3C3B6AFABAC29
:10172000B0B6BFC9D5E0F00005080F1C2C3B464EF3
:1017300051514C44382B1D0EFFF2E9DFD3C8C1BE16
:10174000BEC0C5CCD4DDE5F0FC020509111C273074
:10175000373A3A38322B22180D03F9F2ECE4DCD692
:10176000D3D2D4D7DBE0E6ECF3FB00020409101778
:101770001D21242423201C16100A04FEF9F5F1ED86
:10178000E9E7E6E7E8EBEEF1F4F8FCFF0001030619
:10179000090C0E0F0F0F0D0C0907040200FEFCFBD5
:1017A000FAFAF9F9FAFAFBFCFDFEFEFFFF000080F1
:1017B000C0408080C0408080C0408080C040800C9D
:1017C0000D080B110E130706020503040F1012007B
:1017D00001020403050607010000020000030004E3
:1017E000000500000000240027002A00000000007F
:1017F000250028002B0000000000230026002900FF
:1018000004040404040404040202020202020303A6
:1018100003030303010204081020408001020408AE
:10182000102001020408102000000007000201003F
:10183000000304060000000000000000E015A030D6
:101840008331D138D91511241FBECFEFD8E0DEBFC8
:10185000CDBF11E0A0E0B1E0E8E0F9E702C00590FB
:101860000D92A634B107D9F717E0A6E4B1E001C0A4
:101870001D92A035B107E1F718E1C4E4D8E104C036
:101880002297FE010E943C3CCC33D107C9F70E944D
:1018900027390C94773C0C940000A0E0B0E0E3E51D
:1018A000FCE00C94483CEC01A880B980CA80DB8045
:1018B000A114B104C104D10441F484E2A82E89ED3D
:1018C000B82E8BE5C82E87E0D82EC601B5012DE1D4
:1018D00033EF41E050E00E941F3C27EA31E440E052
:1018E00050E00E94AB3B7B018C01C601B5012DE1AC
:1018F00033EF41E050E00E941F3CCA01B9012CEED9
:1019000034EF4FEF5FEF0E94AB3B6E0D7F1D801FEA
:10191000911F97FF04C061507040804090486883D9
:1019200079838A839B839B01AC015F77B901CA01EC
:10193000CDB7DEB7EAE00C94643C0E944D0C0895EC
:1019400080E091E00E944D0C089560930001709337
:1019500001018093020190930301089560E070E01B
:1019600020C0F901E05FFE4F8081480F511D2F5FBD
:101970003F4F26173707ACF3FB01E35FFC4FCA016B
:1019800023E0959587952A95E1F78083FB01ED5E2D
:10199000FC4F4770507040836F5F7F4F663071051A
:1019A00029F040E050E020E030E0E3CF08958F924E
:1019B0009F92AF92BF92CF92DF92EF92FF920F93DE
:1019C0001F93CF93DF9370E0FB01E05FFE4F9081A8
:1019D000892E9924C0E0D0E050E020E030E0B3E16F
:1019E000AB2EB3E0BB2EA60EB71EADE0CA2EA3E011
:1019F000DA2EC60ED71E90E0BC01660F771F680F67
:101A0000791F660F771F665E7C4F41E0E42EF12C54
:101A1000012D112D40C0F5014081C901840F911D98
:101A20008031910524F04051420F52E007C00897E1
:101A300024F04850420F51E001C0420FF60180816E
:101A4000FB01E50FF11DE80FF11D808190E002C060
:101A5000959587954A95E2F780FF0DC0D801C7019B
:101A6000022E04C0880F991FAA1FBB1F0A94D2F729
:101A7000C82BD92B0EC0D801C701022E04C0880F75
:101A8000991FAA1FBB1F0A94D2F780959095C8236F
:101A9000D9232F5F3F4F281539050CF4BCCFCE0159
:101AA000DF91CF911F910F91FF90EF90DF90CF903A
:101AB000BF90AF909F908F9008956F927F928F927A
:101AC0009F92AF92BF92CF92DF92EF92FF920F93CD
:101AD0001F93CF93DF933A0170E0FB01E05FFE4F6D
:101AE0009081892E992430E040E050E0F3E1AF2E60
:101AF000F3E0BF2EA60EB71E90E0EDE0CE2EE3E0A1
:101B0000DE2EC60ED71EEC01CC0FDD1FC80FD91F6D
:101B1000CC0FDD1F11E0E12EF12C012D112D4CC059
:101B2000F5012081CA01820F911D8031910524F0B9
:101B30002051240F32E007C0089724F02850240FCA
:101B400031E001C0240FC301042E02C09595879592
:101B50000A94E2F7632F70E080FF16C0F6018081DF
:101B6000FB01E80FF11DEC0FFD1FE65EFC4FD801F5
:101B7000C70104C0880F991FAA1FBB1F2A95D2F75F
:101B80002081282B208316C0F6018081FB01E80FFD
:101B9000F11DEC0FFD1FE65EFC4FD801C70104C02C
:101BA000880F991FAA1FBB1F2A95D2F78095208105
:101BB000822380834F5F5F4F481559050CF4B0CFE7
:101BC000DF91CF911F910F91FF90EF90DF90CF9019
:101BD000BF90AF909F908F907F906F900895DF920D
:101BE000EF92FF920F931F9396E0699FB00111242B
:101BF0009B0103E0359527950A95E1F7D22E667093
:101C000070E020E030E090E0AC01440F551F480F39
:101C1000591FB3E0440F551FBA95E1F7A1E0EA2E32
:101C2000F12C012D112DFA01ED0DF11DE25CFC4F9F
:101C3000808190E0062E02C0959587950A94E2F780
:101C400080FF0CC0D801C701022E04C0880F991F65
:101C5000AA1FBB1F0A94D2F7782B0CC0D801C7016A
:101C6000022E04C0880F991FAA1FBB1F0A94D2F727
:101C7000809578236F5F683011F4D39460E02F5F14
:101C80003F4F2630310579F6872F1F910F91FF9036
:101C9000EF90DF900895DF92EF92FF920F931F93E2
:101CA000CF93DF9396E0699FB00111249B0153E02D
:101CB000359527955A95E1F7D22E362F367060E08C
:101CC00070E0C42FD0E090E0AC01440F551F480FE6
:101CD000591F93E0440F551F9A95E1F781E0E82ED4
:101CE000F12C012D112DCE01062E02C09595879560
:101CF0000A94E2F7ED2DF0E080FF12C0E40FF51F2B
:101D0000E25CFC4FD801C701032E04C0880F991F65
:101D1000AA1FBB1F0A94D2F72081282B208312C050
:101D2000E40FF51FE25CFC4FD801C701032E04C08D
:101D3000880F991FAA1FBB1F0A94D2F78095208194
:101D4000822380833F5F383011F4D39430E06F5F9B
:101D50007F4F6630710539F6DF91CF911F910F915A
:101D6000FF90EF90DF9008950F931F93CF93DF9331
:101D70008091FF038F5F8093FF038150833010F0C9
:101D80001092FF038091FF038823B1F5C5E1D2E0F3
:101D900060E070E003E210E08881882339F1FB0104
:101DA000E950FC4F8081882309F1609FF001619F19
:101DB000F00D709FF00D1124E150FE4F2285338508
:101DC0004485558586819781A085B185820F931FB3
:101DD000A41FB51F82839383A483B58382819381DB
:101DE000A481B58182879387A487B5876F5F7F4F72
:101DF000A3966530710581F6DF91CF911F910F9108
:101E0000089508950895BF92CF92DF92EF92FF92C6
:101E10000F931F93CF93DF93B82E10E000E0C0E044
:101E2000D0E081E0C82ED12CE12CF12C3BC01F5F0B
:101E3000173010F00F5F10E0E02FF0E0E35EFB4F93
:101E4000828190E0012E02C0959587950A94E2F771
:101E500080FF0DC0D701C601022E04C0880F991F54
:101E6000AA1FBB1F0A94D2F7482B592B0EC0D701CB
:101E7000C601022E04C0880F991FAA1FBB1F0A9417
:101E8000D2F780959095482359232F5F3F4F26170F
:101E900037076CF28B2D6C2F0E945D0D2196C6309A
:101EA000D10559F0FE01E05FFE4F8081682F70E0A0
:101EB00040E050E020E030E0EACFDF91CF911F9189
:101EC0000F91FF90EF90DF90CF90BF9008950F9308
:101ED0001F93CF93DF93C82FD0E0CE018370907013
:101EE000892B09F05DC00FB7F8946091AE02709134
:101EF000AF0288E06030780708F48EC010E020E080
:101F000080E090E004C0660F771F881F991F2A9514
:101F1000D2F722E330E040E050E00E94AB3B3EE0ED
:101F200096958795779567953A95D1F720E130E0BA
:101F3000211B310904C0660F771F881F991F2A953E
:101F4000D2F76093BC027093BD028093BE0290935F
:101F5000BF020FBF2FB7F8948091C5029091C602BF
:101F6000A091C702B091C8028093B0029093B102D1
:101F7000A093B202B093B3022FBF8091B0029091B0
:101F8000B102A091B202B091B3028093B8029093D3
:101F9000B902A093BA02B093BB0281E08093C4025D
:101FA000CF70D070CD2B09F03DC00FB7F894609181
:101FB000AE027091AF0288E06030780780F110E0E7
:101FC00020E080E090E004C0660F771F881F991F13
:101FD0002A95D2F724E630E040E050E00E94AB3B87
:101FE0002EE096958795779567952A95D1F720E10C
:101FF00030E0211B310904C0660F771F881F991F2D
:102000002A95D2F76093BC027093BD028093BE0202
:102010009093BF020FBF06C018E028E071CF18E010
:1020200028E0CFCFDF91CF911F910F910895EF92CC
:10203000FF920F931F93F82EE62E042F122F0E946B
:10204000EF0D282F112371F081E090E0A0E0B0E0C7
:1020500004C0880F991FAA1FBB1F0A95D2F7422FF1
:10206000482B0EC081E090E0A0E0B0E004C0880FF3
:10207000991FAA1FBB1F0A95D2F7482F40954223EC
:102080008F2D6E2D0E944B0E1F910F91FF90EF90A0
:102090000895FF920F931F93F82E00E00CC08F2D30
:1020A000602F412F20E00E9417101F5F1630B9F7F4
:1020B0000F5F003211F010E0F2CF1F910F91FF90EF
:1020C00008950F931F93CF93DF938C01EB016D3F26
:1020D000710554F46A3F710564F4663F710549F077
:1020E000683F7105A9F405C0CB018E5F904002974F
:1020F00078F40B541F4FD801ED91FC91055B104013
:10210000A081B1812D913C91CF016C2FF9010995EE
:10211000C63FD10511F4F80116A2DF91CF911F91AE
:102120000F91089586E491E068EF70E00E946110DD
:1021300008958F929F92AF92BF92CF92DF92FF92BB
:102140000F931F93CF93DF93EC014B015A01F22EB3
:1021500081E0F82671F0CB54DF4FE881F981C55B4F
:10216000D040A081B1812D913C91CF0160EFF90168
:10217000099500E010E045EBC42ED12CCC0EDD1EFD
:1021800012C0F601A081B181ED91FC9111979501EA
:10219000200F311F0190F081E02DCD01D9016C910C
:1021A00009950F5F1F4F0815190558F3FF2071F0AF
:1021B000CB54DF4FE881F981C55BD040A081B1816C
:1021C0002D913C91CF0167EFF90109951EA2DF9196
:1021D000CF911F910F91FF90DF90CF90BF90AF9064
:1021E0009F908F9008950F931F93CF93DF93EC01EF
:1021F0008C010B541F4FD801ED91FC91A081B1814E
:1022000014962D913C911597CF01F9010995892BD1
:1022100009F4CAC1D801ED91FC91A081B181169653
:102220002D913C911797CF01F9010995482F2DA5C4
:102230003EA52115310509F0FBC088A72DA127FF78
:10224000B9C1243F09F4B6C1253F09F4B3C1293F00
:1022500009F4B0C12D3F09F4ADC1822F90E0203FB9
:1022600028F4807F90708038910591F08039910535
:1022700079F0803B910561F0803A910549F0803D0D
:10228000910531F0803E910519F0803C910541F4B3
:1022900047FD06C028A749A781E090E09EA78DA72B
:1022A00028A527FF0FC0243F69F0253F59F0293F9B
:1022B00049F02D3F39F0822F90E0203F28F4807FB5
:1022C000907002C080E090E0813F910509F46CC0FD
:1022D000823F91054CF5803B910509F468C0813B34
:1022E00091056CF48039910509F461C0803A91053B
:1022F00009F45DC08038910509F0E5C058C0803D03
:10230000910509F451C0813D91052CF4803C910563
:1023100009F0D9C049C0803E910509F448C0803F0A
:10232000910509F0D0C048C0883F9105D1F0893FA0
:1023300091055CF4833F9105B9F1833F9105BCF1B0
:10234000863F910509F0BFC00CC08A3F91050CF48F
:10235000BAC08D3F91052CF08E5F9040029708F037
:10236000B2C027FF0FC0243F69F0253F59F0293F35
:1023700049F02D3F39F0822F90E0203F28F4807FF4
:10238000907002C080E090E099AB88AB1FA61AAABB
:102390001BAACC54DF4F81E08883C45BD0401EA6CB
:1023A0001DA61CA61BA601C182E090E002C083E02E
:1023B00090E09CA78BA707C080E890E09CA78BA724
:1023C0001DA280EF8CAB2DA53EA58BA59CA50197EA
:1023D0002817390708F4E4C088A587FF12C0843F96
:1023E00081F0853F71F0893F61F08D3F51F0282FDA
:1023F00030E0803F20F4C901807F907004C0C901A3
:1024000002C080E090E099AB88AB88A58F708F5FA9
:102410008FA789A58AAB8BA59CA5039719F48AA5DC
:102420008BAB01C01BAA1EA61DA61CA61BA612C014
:1024300087FF34C08D3F38F48A3F38F4873F79F006
:10244000883F61F502C08E3F48F148AB19AA1AAA2D
:102450001BAA1FA6CC54DF4F81E08883A6C08CA99D
:10246000803F89F5FE01E20FF31F44AB2F5F3F4F22
:102470003EA72DA780EF90E099AB88AB2AAB8EA545
:102480008BAB1FA6CC54DF4F81E08883C45BD04068
:102490001EA61DA61CA61BA61DA287C088A5FE0100
:1024A000E20FF31F803F11F444AB01C040A72DA5FC
:1024B0003EA58BA59CA501972817390708F470C085
:1024C00088A5803F31F41EA61DA61CA61BA61DA232
:1024D0006BC087FF12C0843F81F0853F71F0893F58
:1024E00061F08D3F51F0282F30E0803F20F4C9018A
:1024F000807F907004C0C90102C080E090E099AB79
:1025000088AB8038910599F08039910581F0803B46
:10251000910569F0803A910551F0803D910539F0BF
:10252000803E910521F0803C910509F046C088A5C8
:102530008F708F5F8FA789A58AAB8BA59CA503970A
:1025400019F48AA58BAB01C01BAA1EA61DA61CA64A
:102550001BA6CC54DF4F81E08883C45BD04088A9A0
:1025600099A9803B9105B1F0813B910554F48039E4
:10257000910581F0803A910569F08038910569F400
:1025800009C0803D910531F0803E910519F0803CF5
:10259000910519F488A58DA301C01DA281E005C095
:1025A0002F5F3F4F3EA72DA780E0DF91CF911F9176
:1025B0000F91089580E090E059CE1FA6BCCFFC019A
:1025C00080A991A9813F910509F4BCC0823F910582
:1025D0004CF5803B910509F464C0813B91056CF496
:1025E0008039910509F446C0803A910509F477C015
:1025F0008038910509F0D6C03AC0803D910509F4B4
:102600007AC0813D91052CF4803C910509F0CAC047
:1026100075C0803E910509F447C0803F910509F0DF
:10262000C1C077C08A3F910561F18B3F91058CF461
:10263000833F910509F4A0C0833F91050CF485C048
:10264000863F910509F4A1C0883F910509F0AAC011
:1026500014C08C3F9105E9F08C3F9105B4F08E3F9A
:102660009105D9F08F3F910509F09CC095C020815C
:10267000318137C02281338134C0008CF18DE02D4F
:1026800087C0028CF38DE02D83C0048CF58DE02D86
:102690007FC0068CF78DE02D7BC000A0F1A1E02D5E
:1026A00077C0268137811DC02485358521153105E8
:1026B00009F478C063A970E06F7770707695762F13
:1026C00066277795679582A990E08F779070682B41
:1026D000792B6050704287A5F901099508952481EE
:1026E00035812115310509F45DC087A562A943A98B
:1026F000F901099508952285338502C02085318529
:102700002115310509F44EC087A562A9F901099583
:102710000895468557854115510509F443C093A98D
:1027200080E022A9622F70E09F012C5C3F4F682B54
:10273000792B6138710510F060E870E0C901FA0189
:10274000099508952089318919C042895389411515
:10275000510541F183A990E08F7790709695982F5D
:1027600088279795879522A930E02F773070822BA4
:10277000932BFA010995089524893589211531058E
:1027800089F082A9F901099508950688F789E02D55
:10279000309741F00995089502A0F3A1E02D3097FC
:1027A00009F009950895DF92EF92FF920F931F931E
:1027B000CF93DF93EC017B01142FD22E0150003117
:1027C00018F46038710514F41EA243C0613E71050F
:1027D000B4F5602F6F706E298EA1861771F06EA30D
:1027E000CB54DF4FE881F981C55BD040A081B18136
:1027F0002D913C91CF01F9010995CB54DF4FE88130
:10280000F981A081B1811F772D913C91CF01612F7A
:10281000F901099580ECE816F104D9F080EDE8168D
:10282000F104B9F0E881F981A081B1818FE7D82264
:102830002D913C91CF016D2DF90109950AC0663F9C
:1028400071053CF06F3F710509F01CF4CE010E9448
:102850006110DF91CF911F910F91FF90EF90DF906A
:102860000895EF92FF920F931F93CF93DF93EC01A4
:102870008CA180FFF1C0382F369509F4EDC068A90E
:1028800079A9CB01805890408136910508F50FA5B4
:102890008FA1081719F020E0882309F421E0832F85
:1028A00090E08230910539F08330910541F0019735
:1028B00009F0D2C007C0222309F4CEC003C02223EE
:1028C00009F0CAC0CE014AA92BA90E94D313C4C0E3
:1028D000663F710549F1673F7105ACF4613F7105D1
:1028E00009F490C0623F71052CF4603F710509F056
:1028F000B3C01EC0623F710509F447C0633F710554
:1029000009F0AAC028C06D3F710544F46A3F710503
:102910005CF4683F710509F09FC006C0CB018E5F73
:102920009040029708F098C0CE010E94611094C0B8
:102930009BA980E02AA9622F70E0682B792B61386F
:10294000710510F060E870E0CE01E496AE0121E080
:102950000E94991081C00AA935EBE32EF12CEC0EF0
:10296000FD1EF701A081B181ED91FC9111970190BD
:10297000F081E02DCD0163EF0995F701A081B181D0
:10298000ED91FC91119710E035C00BA910E0169560
:10299000102F0027179507958AA990E0082B192B6F
:1029A00095EBE92EF12CEC0EFD1EF701A081B18113
:1029B000ED91FC9111970190F081E02DCD0162EF36
:1029C0000995F701A081B181ED91FC911197B801B2
:1029D0006F7770700190F081E02DCD010995F701BE
:1029E000A081B181ED91FC911197000F012F001F83
:1029F000110B11950F7710700190F081E02DCD0132
:102A0000602F28C08AA990E08770907014E0880F2A
:102A1000991F1A95E1F71BA91F70182BB5EBEB2E28
:102A2000F12CEC0EFD1EF701A081B181ED91FC911E
:102A300011970190F081E02DCD0161EF0995F7012B
:102A4000A081B181ED91FC9111970190F081E02D71
:102A5000CD01612F09951EA2DF91CF911F910F919A
:102A6000FF90EF9008950F931F93CF93DF93EC01A6
:102A7000062F613128F50E94F310882309F188A9F7
:102A800099A98039910539F48BA9882321F480E82C
:102A900090E099AB88AB88A999A9009759F0805824
:102AA00090408136910598F49FA18FA5891779F000
:102AB000992369F010E0CE01602F0E94311401C00B
:102AC00010E0812FDF91CF911F910F910895CE01DA
:102AD0000E94DF1211E0EFCFFC0167A10E943315C5
:102AE0000895019709F064C06F5F7F4F09F060C0DF
:102AF0008EE297E09093FC018093FB0110924701D6
:102B000010924601109249011092480110924B0117
:102B100010924A0110924D0110924C0110924F01F7
:102B200010924E01109251011092500110925301D7
:102B300010925201109255011092540110925701B7
:102B400010925601109259011092580110925B0197
:102B500010925A0110925D0110925C0110925F0177
:102B600010925E0110926101109260011092630157
:102B70001092620110926501109264011092670137
:102B8000109266011092690110926801E3E1F2E08F
:102B90001082B39682E0E53EF807D1F781ED92E02E
:102BA0006DE370E00E94302A8FEE92E00E94502C7C
:102BB000089580E090E06FEF7FEF0E947115089517
:102BC00081E090E06FEF7FEF0E94711508951F93F1
:102BD000182F8091E703882339F0812F90E08370CC
:102BE0009070892B19F50AC08091F503212F30E0F0
:102BF000882371F023703070232B21F48FEE92E044
:102C000061E00FC06091CE036E5F8FEE92E015C061
:102C100023703070232B51F46091CE036E5F8FEEE2
:102C200092E00E949E2C112329F009C08FEE92E0C1
:102C300060E003C08FEE92E067E00E949E2C1F913F
:102C400008950F931F93CF93DF93C0E0D0E0082F38
:102C500010E08091D303882389F0C330D105F4F0CC
:102C6000CE018350682FA8010C2E02C055954795C0
:102C70000A94E2F741708FEE92E00EC0C330D105A6
:102C80006CF4A8010C2E02C0559547950A94E2F702
:102C900041708FEE92E06C2F0E94E72C2196C63097
:102CA000D105B9F6DF91CF911F910F910895FF9251
:102CB0000F931F9386E491E00E946C158091FF03AF
:102CC0008F5F8093FF03813428F01092FF0380E030
:102CD0000E94670F8FEE92E063E00E94112D88231F
:102CE00039F48FEE92E065E00E94112D8823B1F057
:102CF0008091CE03282F30E0223031051CF020E0F7
:102D000030E002C02F5F3F4F2093CE0386E491E076
:102D100060EB70E04DE001E00E94D3138FEE92E093
:102D200064E00E94112D882339F48FEE92E066E072
:102D30000E94112D8823B1F08091CE03282F30E01E
:102D40002115310519F422E030E002C02150304055
:102D50002093CE0386E491E060EB70E04DE001E06B
:102D60000E94D3136091CE036F5F8FEE92E00E94BA
:102D70009E2C10E0FF24F3948FEE92E0612F0E94CE
:102D8000112D882339F08FEE92E0612F0E94252DBE
:102D9000F0922B048FEE92E0612F0E94532D482F6A
:102DA0008FEE92E0612F0E94E72C8FEE92E0612F70
:102DB0000E946A2C8823C9F08FEE92E0612F0E9456
:102DC0008A2C412F465F9C0153E0359527955A95F3
:102DD000E1F786E491E060EB70E001E00E94D3133C
:102DE0008FEE92E067E00E949E2C1F5F133021F669
:102DF00080912B04882379F08FEE92E00E945D2D64
:102E0000282F86E491E060EB70E04EE001E00E9444
:102E1000D31310922B041F910F91FF9008958823D4
:102E200009F445C0282F209523708695869581301A
:102E300051F0813028F08230E9F08330C1F51FC0B5
:102E400060FD07C013C0862F90E083709070892BBF
:102E500069F0622F70E080E090E00E946C3A6115AA
:102E600071058105910511F491E001C090E0109287
:102E7000F6031EC0862F90E08770907004C0862FE6
:102E800090E08F709070892B69F0622F70E080E085
:102E900090E00E946C3A611571058105910511F46D
:102EA00091E001C090E081E08093F60301C090E0E2
:102EB000892F089581ED92E00E94292B81E0809373
:102EC000E60308953F924F925F926F927F928F92A6
:102ED0009F92AF92BF92CF92DF92EF92FF920F93A9
:102EE0001F93CF93DF930E946E31AB01BC0181ED44
:102EF00092E00E94C62A8FEF8093D903B1E1CB2ED6
:102F0000B2E0DB2E662477244301AA24BB24A3E28B
:102F10004A2E512CD60114968C911497882309F4CB
:102F2000B3C0F501EC52FC4F308012968C91129791
:102F30001996ED90FD900D911C911C97882381F5B9
:102F4000A49CE001A59CD00DB49CD00D1124C150CF
:102F5000DE4F8A819B81AC81BD818E159F05A007C4
:102F6000B107D0F48A819B81AC81BD819D0144274A
:102F70005527D601ED91FC91E20FF31FE4912A81D0
:102F80003B814C815D818E859F85A889B989820F9F
:102F9000931FA41FB51F54C0E6011C82E0E054C07B
:102FA000A49CF001A59CF00DB49CF00D1124E150FF
:102FB000FE4F82819381A481B581E816F9060A0744
:102FC0001B07A8F482819381A481B581E6012D813C
:102FD0003E814F815885820F931FA41FB51F8E1904
:102FE0009F09A00BB10B82839383A483B583A49C18
:102FF000B001A59C700DB49C700D112461507E4FE2
:10300000FB0182819381A481B581CD01AA27BB27D1
:10301000E601E881F981E80FF91FE491DB011296DE
:103020002D913D914D915C9115971E968D919D919D
:103030000D90BC91A02D820F931FA41FB51FEB0113
:103040008A839B83AC83BD832E2F332727FD309546
:10305000F501E652FC4F808190E028273927832D27
:1030600090E0FC012E9FC0012F9F900D3E9F900D80
:103070001124892F990F990BAA2797FDA095BA2F94
:10308000680E791E8A1E9B1E0894A11CB11C43E287
:1030900050E0C40ED51E56E0A516B10409F03ACF93
:1030A000A401930164E0220F331F441F551F6A954A
:1030B000D1F7C901DF91CF911F910F91FF90EF9050
:1030C000DF90CF90BF90AF909F908F907F906F9048
:1030D0005F904F903F9008950F931F93CF93DF938E
:1030E000082F8A3010F460E013C08FEE92E060E0A9
:1030F00041E00E94E72C8FEE92E061E041E00E9407
:10310000E72C8FEE92E062E041E00E94E72C61E064
:10311000015087EF9FEF689F102D1124100FC0E022
:10312000D0E08FEE92E0612F40E00E94E72C8FEE1E
:1031300092E00E947B2F66E970E080E090E00E94C0
:103140009C358FEE92E0612F41E00E94E72C8FEEDC
:1031500092E00E947B2F66E970E080E090E00E94A0
:103160009C352196C330D105E1F6DF91CF911F91B7
:103170000F9108950F931F93182F8091FB01909149
:10318000FC0142E15AE760E070E00E94A037109233
:103190006D0110926C0110926B01109274011092EB
:1031A000730110927201109271011092FA01109243
:1031B00077011092760110927501109278011092A9
:1031C000790103E000936A011093FE01812F0E94B0
:1031D0006C188EEB91E2909349018093480181E055
:1031E0009FE0909347018093460188E694E2909394
:1031F0004D0180934C0182E09FE090934F018093BA
:103200004E0183ED99E190935501809354018AE535
:1032100097E190935F0180935E018BEC99E190932D
:1032200061018093600186EC99E190936301809342
:1032300062018FEB99E190936501809364010093A3
:103240006A011F910F9108950F931F930FEE12E0E3
:10325000C80160E041E00E94E72CC8010E947B2F7A
:1032600066E970E080E090E00E949C35C80162E071
:1032700041E00E94E72CC8010E947B2F66E970E0C4
:1032800080E090E00E949C35C80161E041E00E942E
:10329000E72CC8010E947B2F66E970E080E090E097
:1032A0000E949C35C80163E00E949E2CC8010E94C8
:1032B0007B2F66E970E080E090E00E949C35C801B9
:1032C00067E00E949E2CC8010E947B2F66E970E097
:1032D00080E090E00E949C35C80160E00E949E2C36
:1032E000C80160E040E00E94E72CC80161E040E0D6
:1032F0000E94E72CC80162E040E00E94E72CC80170
:103300000E947B2F1F910F9108950F931F93082FF9
:1033100010E08FEE92E0612F0E949E2C68EC70E02E
:1033200080E090E00E949C358FEE92E00E947B2F1F
:103330001F5F183071F768EC70E080E090E00E9449
:103340009C358FEE92E060E00E949E2C8FEE92E022
:1033500060E0402F0E94E72C8FEE92E061E0402F6A
:103360000E94E72C8FEE92E062E0402F0E94E72C53
:103370008FEE92E00E947B2F1F910F910895109283
:10338000E70381ED92E00E94162C089581ED92E012
:103390000E941C2C089581ED92E00E940C2C81E08B
:1033A0008093E6030895CF93DF93EC0189818D37F5
:1033B000E9F58A81882341F41092FE018A818F5FAA
:1033C0008A8386E491E02EC0813009F58FEE92E089
:1033D00067E00E949E2C8FEE92E00E947B2F21E0FE
:1033E00030E0F901E45EFB4FDE01A20FB31F8C91C8
:1033F00080832F5F3F4F2F30310599F78091CF03A6
:103400000E94030F8FEE92E00E94742C0FC08A304E
:1034100069F481E08093FD0110926A0186E491E0F5
:1034200060E170E0AE0120E00E949910DF91CF9141
:103430000895BF92CF92DF92EF92FF920F931F9366
:10344000CF93DF931092F4038091E703882309F46C
:10345000D8C08FEE92E060E00E94602C882389F152
:103460008FEE92E060E00E948A2C8C010C5E1F4F70
:1034700015950795159507958FEE92E060E00E94EF
:10348000942CEC016496D595C795D595C79581ED9B
:1034900092E00E94552B0C171D073CF008171907E6
:1034A00004F18C179D07ECF006C080179107CCF053
:1034B000C817D907B4F08FEE92E060E00E94792C33
:1034C00010C08FEE92E060E00E948A2CBC016C5E1E
:1034D0007F4F759567957595679581ED92E00E9490
:1034E000402B8FEE92E061E00E94602C8823A1F1D6
:1034F0008FEE92E061E00E948A2C8C010F5F1F4FDB
:1035000095E0159507959A95E1F78FEE92E061E0C9
:103510000E94942CEC01219685E0D595C7958A955B
:10352000E1F781ED92E00E94322C90E00C171D072C
:103530003CF0081719070CF18C179D07F4F006C032
:1035400080179107D4F0C817D907BCF08FEE92E02E
:1035500061E00E94792C11C08FEE92E061E00E9440
:103560008A2CBC016F5F7F4FB5E075956795BA9562
:10357000E1F781ED92E00E942F2C8FEE92E062E065
:103580000E94602C882371F18FEE92E062E00E942D
:103590008A2C8C0115950795159507958FEE92E06D
:1035A00062E00E94942CEC01D595C795D595C795FE
:1035B00081ED92E00E94BF2A90E00C171D074CF0AD
:1035C000081719070CF48BC18C179D070CF487C1E1
:1035D000CAC0801791070CF482C1C817D9070CF430
:1035E0007EC1C1C08FEE92E062E00E948A2CBC01D5
:1035F000759567957595679581ED92E00E94BC2A57
:103600006EC18091F503882309F462C181ED92E0D7
:103610000E94192C882309F45BC18091CE03882372
:1036200009F050C08FEE92E060E00E94602C882389
:1036300069F08FEE92E060E00E946A2C882379F0B6
:103640008FEE92E060E00E94792C09C08FEE92E04C
:1036500060E00E948A2C9093EF038093EE038FEE3C
:1036600092E061E00E94602C882369F08FEE92E086
:1036700061E00E946A2C882389F08FEE92E061E07D
:103680000E94792C0BC08FEE92E061E00E948A2CA0
:1036900095958795959587958093F0038FEE92E0A9
:1036A00062E00E94602C882309F055C08FEE92E002
:1036B00062E00E948A2C95958795959587958093D1
:1036C000F1030DC1813009F00AC18FEE92E060E094
:1036D0000E94602C882369F08FEE92E060E00E94E7
:1036E0006A2C882391F08FEE92E060E00E94792CA2
:1036F0000CC08FEE92E060E00E948A2C46E0959527
:1037000087954A95E1F78093F4038FEE92E061E0AC
:103710000E94602C882369F08FEE92E061E00E94A5
:103720006A2C882389F08FEE92E061E00E94792C68
:103730000BC08FEE92E061E00E948A2C95958795F0
:10374000959587958093F2038FEE92E062E00E9458
:10375000602C882371F08FEE92E062E00E946A2C68
:10376000882309F4BCC08FEE92E062E00E94792CBD
:10377000B6C08FEE92E062E00E948A2C9595879504
:10378000959587958093F303AAC08091CE038B9D76
:10379000C0011124EF2CE80E8FEE92E06F2D0E94F5
:1037A000602C1091CF03882309F466C08091D00368
:1037B000811709F087C08FEE92E06F2D0E948A2C4E
:1037C000AC01CE2DD0E0FE01E05FFE4F8081282FBE
:1037D00030E08B3050F4C601821B930B8A0102C08B
:1037E000159507958A95E2F708C02A5030408A015E
:1037F00002C0000F111F2A95E2F78FEE92E06F2DA5
:103800000E94942CAC01C05FDE4F8881282F30E0ED
:103810008B3050F4C601821B930BEA0102C0D59590
:10382000C7958A95E2F708C02A503040EA0102C0E5
:10383000CC0FDD1F2A95E2F78091CF036E2D0E94F9
:10384000D70C0C171D073CF008171907DCF18C1773
:103850009D07C4F106C080179107A4F1C817D907C6
:103860008CF18FEE92E06F2D0E94792C8FEE92E01A
:1038700067E00E949E2C26C08FEE92E06F2D0E9482
:103880008A2C9C01EE2DF0E0E05FFE4F8081482FF6
:1038900050E08B3050F4C601841B950BA90102C087
:1038A000559547958A95E2F709C04A505040C9019D
:1038B00002C0880F991F4A95E2F7AC01812F6E2D47
:1038C0000E945D0DF39493E0F91609F05ECF07C0F6
:1038D000FF2403E0B02E1AE0C12ED12C56CFDF9189
:1038E000CF911F910F91FF90EF90DF90CF90BF90FD
:1038F00008952F923F924F925F926F927F928F9294
:103900009F92AF92BF92CF92DF92EF92FF920F936E
:103910001F93DF93CF9300D000D000D0CDB7DEB798
:10392000882E2FEF31E03E832D838AED93E09C8338
:103930008B8350EE452E53E0552EE4EDF3E0FA83F1
:10394000E98347EF242E43E0342E66247724ED816B
:10395000FE818689882309F49FC1882029F0F1E03F
:103960008F1609F099C15FC18091F503882309F48E
:10397000B2C181ED92E00E94192C882309F4ABC1F9
:103980008FEE92E060E00E94602C882309F042C034
:10399000DFB6F894ED81FE816081718180E090E076
:1039A0000E94BA3A7B018C016091EE037091EF03A3
:1039B0006F5F7F4F882777FD8095982F0E94BC3AD4
:1039C00020E030E040E85DE30E94483B9B01AC0111
:1039D000C801B7010E94483B20E030E040E858E3CE
:1039E0000E94483B20E030E040E857E40E94483B1A
:1039F0000E948E3A23E230E0629EF001639EF00D59
:103A0000729EF00D1124E150FE4F66877787808B00
:103A1000918BDFBE8FEE92E061E00E94602C8823E4
:103A200059F58091F003282F30E02115310519F464
:103A3000F101108203C081E0F101808380E091E018
:103A4000821B930B880F991F880F991FAA2797FD38
:103A5000A095BA2FDC019927882723E230E0629EE7
:103A6000F001639EF00D729EF00D1124E150FE4FA7
:103A700086839783A087B1878FEE92E062E00E94F1
:103A8000602C882309F008C100D000D06091F103B8
:103A900070E080E090E0ED81FE812081318140E0A6
:103AA00050E0EDB7FEB721833283438354839BC03C
:103AB000F201808160E00E94D70C7C019FB6F894EF
:103AC000ED81FE816081718180E090E00E94BA3AD0
:103AD0005B016C010894E11CF11C0027F7FC0095C8
:103AE000102FC801B7010E94BC3A20E030E040E846
:103AF0005DE30E94483B9B01AC01C601B5010E94F9
:103B0000483B20E030E040E858E30E94483B20E09A
:103B100030E040E857E40E94483B0E948E3A23E29E
:103B200030E0629EF001639EF00D729EF00D112454
:103B3000E150FE4F66877787808B918B9FBE8FEE1B
:103B400092E061E00E94602C882361F5F20180819F
:103B500061E00E94D70C9C01009719F4F1011082DA
:103B600003C081E0F101808380E091E0821B930B30
:103B7000880F991F880F991FAA2797FDA095BA2F24
:103B8000DC019927882723E230E0629EF001639EE2
:103B9000F00D729EF00D1124E150FE4F8683978345
:103BA000A087B1878FEE92E062E00E94602C8823AC
:103BB00009F072C0F201808162E00E94D70C00D04F
:103BC00000D0AA2797FDA095BA2FED81FE81208114
:103BD000318140E050E0EDB7FEB72183328343836B
:103BE0005483BC01CD0120E030E040E050E0FFEF25
:103BF000EF2EF12C012D112DE0E1AE2EB12CC12CB8
:103C0000D12C0E94233A80E090E0CB0177276627F1
:103C1000ED81FE81638F748F858F968F0F900F904B
:103C20000F900F9039C08091F503882309F45CC090
:103C300081ED92E00E94192C882309F455C08FEE83
:103C400092E062E00E94602C882329F48091F303C3
:103C5000E981FA8180838FEE92E061E00E94602C1E
:103C60008823D1F48091F20314C0F201808165E0D1
:103C70000E94D70CE981FA8180838FEE92E061E0A7
:103C80000E94602C882341F4F201808164E00E944C
:103C9000D70CEB81FC8180830894611C711C2D8101
:103CA0003E812D5D3F4F3E832D838B819C8101960C
:103CB0009C838B830894411C511CE981FA813196C5
:103CC000FA83E9830894211C311CF5E06F16710416
:103CD00009F03DCE11C08FEE92E060E00E94602CB2
:103CE000882309F02CCFE4CE8FEE92E062E00E94B0
:103CF000602C882311F6B9CF26960FB6F894DEBF54
:103D00000FBECDBFCF91DF911F910F91FF90EF902C
:103D1000DF90CF90BF90AF909F908F907F906F90EB
:103D20005F904F903F902F9008950F931F93CF93E4
:103D3000DF9328E1829F80011124025C1C4F90E0F8
:103D40000196EC01CC0FDD1FC80FD91F63E0CC0F2B
:103D5000DD1F6A95E1F7C25CDC4F84E690E00E94CB
:103D60000631F80181938F01EC17FD07B1F7DF9160
:103D7000CF911F910F9108950F931F93CF93DF93CE
:103D8000082FC4E7D0E010E0FE01859194910E94D5
:103D90000631AC01802F612F0E945D0D8FEE92E005
:103DA0000E94742C22961F5F163071F786E090E017
:103DB0000E940631AC01802F63E00E945D0D82E31A
:103DC00090E00E940631AC0148535F4F802F65E0C0
:103DD0000E945D0DDF91CF911F910F9108955F9229
:103DE0006F927F928F929F92AF92BF92CF92DF920B
:103DF000EF92FF920F931F93CF93DF93682E562E6F
:103E000025E0821711F0482F01C042E0C42FD0E016
:103E1000FE01E052FC4F60821091F40381ED92E0CC
:103E20000E94382C682F812F0E940F17882309F4D5
:103E3000E9C08091F603882309F474C086E090E01D
:103E40000E940631482F50E0440F551FFA01E65DED
:103E5000FE4F8081918123E230E0C29FF001C39F39
:103E6000F00DD29FF00D1124E150FE4F4C5F5E4FDC
:103E7000DA012D913C91338B228B91838083178AB9
:103E8000108E118E128EA0E0B0E0DC0199278827F9
:103E9000838F948FA58FB68F80E094E00E940631C7
:103EA0007C017FB6F89483E290E0C89F4001C99FEF
:103EB000900CD89F900C1124EFEFF1E08E0E9F1E16
:103EC000D4016D917C9180E090E00E94BA3A5B0150
:103ED0006C010027F7FC0095102FC801B7010E9464
:103EE000BC3A20E030E040E85DE30E94483B9B01A3
:103EF000AC01C601B5010E94483B20E030E040E83B
:103F000058E30E94483B20E030E040E857E40E943C
:103F1000483B0E948E3AF40166877787808B918BAD
:103F20007FBE91C18FEF90E00E9406310196AA27D3
:103F300097FDA095BA2FDC019927882723E230E06E
:103F4000C29F4001C39F900CD29F900C11242FEF71
:103F500031E0820E931EF40186839783A087B18798
:103F60008FEF90E00E94063100D000D0AA2797FD85
:103F7000A095BA2FF4012081318140E050E0EDB7E7
:103F8000FEB72183328343835483BC01CD0120E0FB
:103F900030E040E050E0FFEFEF2EF12C012D112D2D
:103FA000E0E1AE2EB12CC12CD12C0E94233A80E04E
:103FB00090E0CB0177276627D4015B966D937D93C4
:103FC0008D939C935E970F900F900F900F908FEFB3
:103FD00090E00E940631FE01EC52FC4F252D30E0AE
:103FE000AC01429FC001439F900D529F900D112440
:103FF000880F892F881F990B80838FEF90E00E9494
:1040000006311DC1862D63E00E94D70C00D000D080
:10401000AA2797FDA095BA2F26E030E040E050E0B7
:10402000EDB7FEB72183328343835483BC01CD01B6
:1040300020E030E040E050E0E8E0EE2EF12C012DF1
:10404000112DAA24BB2465010E94233AE62FF0E03B
:10405000EE0FFF1FDF01A65DBE4F8D919C9123E205
:1040600030E0C29FA001C39F500DD29F500D11247C
:1040700041505E4FEC5FFE4F20813181DA01539653
:104080003C932E9352978D939C93FA01178A108E2E
:10409000118E128EA0E0B0E0DC0199278827838F73
:1040A000948FA58FB68F0F900F900F900F90862D45
:1040B00060E00E94D70C7C017FB6F89483E290E028
:1040C000C89F4001C99F900CD89F900C11242FEFDE
:1040D00031E0820E931ED4016D917C9180E090E0DE
:1040E0000E94BA3A5B016C010894E11CF11C0027A4
:1040F000F7FC0095102FC801B7010E94BC3A20E0E0
:1041000030E040E85DE30E94483B9B01AC01C60102
:10411000B5010E94483B20E030E040E858E30E94AF
:10412000483B20E030E040E857E40E94483B0E94D2
:104130008E3AF40166877787808B918B7FBE862DC0
:1041400061E00E94D70C9C01FE01E950FC4F0097F2
:1041500011F4108202C081E0808380E091E0821B34
:10416000930B880F991F880F991FAA2797FDA09579
:10417000BA2FDC019927882723E230E0C29F400153
:10418000C39F900CD29F900C11242FEF31E0820E30
:10419000931EF40186839783A087B187862D62E002
:1041A0000E94D70C00D000D0AA2797FDA095BA2F67
:1041B000F4012081318140E050E0EDB7FEB721836A
:1041C000328343835483BC01CD0120E030E040E0E2
:1041D00050E0FFEFEF2EF12C012D112DE0E1AE2E7E
:1041E000B12CC12CD12C0E94233A80E090E0CB016D
:1041F00077276627D4015B966D937D938D939C936F
:104200005E970F900F900F900F90862D65E00E94A3
:10421000D70CFE01EC52FC4F252D30E0AC01429F43
:10422000C001439F900D529F900D1124880F892F3C
:10423000881F990B8083862D64E00E94D70CFE01B5
:10424000E652FC4F80832FB7F89483E290E0C89F3A
:10425000F001C99FF00DD89FF00D1124E150FE4FE1
:104260008789908DA18DB28D82839383A483B5833A
:104270002FBF82819381A481B58182879387A48790
:10428000B58781E0868BDF91CF911F910F91FF90D1
:10429000EF90DF90CF90BF90AF909F908F907F90E6
:1042A0006F905F900895FF920F931F93CF93DF93CA
:1042B000F82EC5E0D0E0082F10E0C8010C2E02C097
:1042C000959587950A94E2F780FF04C08C2F6FE7DD
:1042D0000E94EF1E21978FEFCF3FD80771F7F09222
:1042E000EC03DF91CF911F910F91FF9008951F93E1
:1042F000182F0E94E7158091D103882319F0812F90
:104300000E94670F8091EB03612F0E94EF0D182F21
:104310000E945321812F0E9421161F9108958091A0
:10432000E603882339F023C081ED92E00E94292B17
:104330000E94921081ED92E00E94352B8823A1F714
:1043400016C081ED92E00E943B2C8091E903882306
:1043500041F081ED92E06091EA030E94352C1092C9
:10436000E90381ED92E00E94382C0E94772181EDD3
:1043700092E00E94442C882321F708950F931F9305
:10438000162F9091FE018917E9F44423D9F0862F66
:1043900066E00E94CA3B092F892F642F0E94EF1EFE
:1043A0008091D303882311F4033050F4812F63E00C
:1043B0000E94CA3B692F8FEE92E041E00E94E72CF9
:1043C00000931C041F910F910895DF92EF92FF92CA
:1043D0000F931F93CF93DF938091D203882309F02B
:1043E00080C1C0E0D0E053E0E52E43E0D42E8091C0
:1043F000F503882309F4A2C181ED92E00E94192CF3
:10440000882309F49BC18091CE03882381F5809194
:10441000EB0390E0C817D90721F00397C817D90715
:1044200029F48FEE92E06C2F41E004C08FEE92E011
:104430006C2F40E00E94E72C1C2F8FEE92E06C2F37
:104440000E94112D882311F0C093EB038091E803A3
:10445000882309F440C18FEE92E0612F0E94112D54
:10446000882309F438C1812F0E94491034C181305A
:1044700009F031C18FEE92E06C2F0E94072D882346
:1044800009F429C181ED92E00E943D2B833078F43C
:104490008091D30390E0880F991F880F991F8C0F8C
:1044A0009D1F880F991F880F991F8093EA0381E051
:1044B0008093E90310C18FEE92E06C2F41E00E94DF
:1044C000E72C81ED92E00E94192C882369F48FEE8D
:1044D00092E06F2D0E94072D882331F48FEE92E039
:1044E0006F2D40E00E94E72C80910104882331F079
:1044F0008FEE92E06F2D41E00E94E72C81ED92E07B
:104500000E94192C882309F450C08091E803882365
:1045100009F44BC01091ED0381ED92E00E943D2B18
:10452000181709F442C08FEE92E06F2D0E94072DFC
:104530008823D9F181ED92E00E943D2B833018F160
:1045400081ED92E00E94382C082F81ED92E00E94CC
:10455000322C10E090E001970817190759F4809168
:10456000D3038D9DC00111244F2D480F8091EB0383
:1045700060E018C01091EB0381ED92E00E94382CAE
:10458000682F6F5F07C01091EB0381ED92E00E94EE
:10459000382C682F8091D3038D9DC00111244F2D9D
:1045A000480F812F20E00E9417108091E703882395
:1045B00009F459C08FEE92E06F2D0E94112D8823CF
:1045C00009F489C081ED92E00E943D2B833018F1FF
:1045D00081ED92E00E94382C082F81ED92E00E943C
:1045E000322C10E090E001970817190759F48091D8
:1045F000D3038D9DC00111244F2D480F8091EB03F3
:1046000060E018C01091EB0381ED92E00E94382C1D
:10461000682F6F5F07C01091EB0381ED92E00E945D
:10462000382C682F8091D3038D9DC00111244F2D0C
:10463000480F812F21E00E9417108091D303882317
:1046400059F4F092CF038F2D6FE70E94EF1E109266
:10465000FE031092FD033FC0E092CF038E2D6FE763
:104660000E94EF1E38C08FEE92E06F2D0E94112D38
:104670008823A9F08091D303882359F4F092CF03C3
:104680008F2D6FE70E94EF1E1092FE031092FD0324
:1046900006C0E092CF038E2D6FE70E94EF1E90912F
:1046A000CF038091D003981721F08FEE92E00E9403
:1046B000742C8091CF038093D00310E0809101048B
:1046C000882331F08FEE92E0612F41E00E94E72CC9
:1046D0001F5F133099F72196E39486E0E81609F0FE
:1046E00086CE8FEE92E065E00E94072D882381F14F
:1046F00000E010E08FEE92E0602F40E00E94E72C97
:104700008091D3032091EB03882339F030E0C80176
:1047100003962817390761F405C0822F90E08017AF
:10472000910731F48FEE92E0602F41E00E94E72C78
:104730000F5F1F4F03301105E9F60AC0FC2E8FEE04
:1047400092E06C2F0E94072D882309F4BACEB3CED5
:10475000DF91CF911F910F91FF90EF90DF9008951F
:104760008FEE92E064E00E941B2D882381F08091FF
:10477000D203882361F490E08091CE03882309F46A
:1047800091E09093CE038FEE92E00E94742C8FEE16
:1047900092E063E00E94072D8093D3038FEE92E0B6
:1047A00066E00E94072D8093E80308958CE294E070
:1047B0006FEF73E00E941D2A0895AF92BF92CF92CF
:1047C000DF92EF92FF920F931F93CF93DF9380932B
:1047D000190390EA899F500111246501EE24FF24FA
:1047E00020C0B8016C0D7D1D8CE294E00E941D2A52
:1047F00089930F5F1F4F0630110599F70894E11C4C
:10480000F11C86E090E0C80ED91E96E0E916F1048E
:1048100041F4A4E2CA2ED12CCA0CDB1CEE24FF24E6
:1048200024C0E701CC0FDD1FCE0DDF1DCC0FDD1F37
:10483000C65EDC4F00E010E0D4CFB8016C0D7D1DEA
:104840008CE294E00E941D2A89930F5F1F4F08316C
:10485000110599F70894E11CF11C88E190E0C80E5D
:10486000D91E95E0E916F10479F0E701CC0FDD1FC0
:10487000CE0DDF1D63E0CC0FDD1F6A95E1F7C25C52
:10488000DC4F00E010E0D9CFB50164567F4F8CE2D9
:1048900094E00E941D2A682F81ED92E070E00E9452
:1048A000402BB50163567F4F8CE294E00E941D2A95
:1048B000682F81ED92E00E94BC2ADF91CF911F9179
:1048C0000F91FF90EF90DF90CF90BF90AF90089541
:1048D000AF92BF92CF92DF92EF92FF920F931F930E
:1048E000162F042F9091FE01891709F0BAC0662394
:1048F00051F500D000D0642F70E080E090E026E019
:1049000030E040E050E0EDB7FEB7218332834383CF
:10491000548320E030E040E050E0E0E8EE2EF12C5F
:10492000012D112DAA24BB2465010E94233A862F54
:104930000F900F900F900F900E94DD238FEE92E06A
:104940000E94742C8EC06F3729F480911C040E9441
:10495000BC1E87C0262F23502432C0F5822F66E06C
:104960000E94CA3BA82F80931C04822F0E94CA3B3E
:10497000192F242F30E0E92FF0E0E05FFE4F808117
:10498000482F50E0883058F487E090E0841B950B66
:10499000A90102C0559547958A95E2F709C047508D
:1049A0005040C90102C0880F991F4A95E2F7AC0137
:1049B0008A2F612F0E945D0D8FEE92E00E94742C71
:1049C000812F63E00E94CA3B0E94791C1C3629F5A6
:1049D00000D000D0602F70E080E090E026E030E072
:1049E00040E050E0EDB7FEB7218332834383548328
:1049F00020E030E040E050E000E8E02EF12C012D16
:104A0000112DAA24BB2465010E94233A6093EB0375
:104A10000F900F900F900F9024C01D3659F4602F07
:104A200070E06C5E7F4F660F771F81ED92E00E9411
:104A3000402B17C01E3669F4602F70E06F5F7F4F08
:104A4000759567957595679581ED92E00E942F2C7D
:104A500008C01F3631F4000F81ED92E0602F0E94F4
:104A6000BC2A1F910F91FF90EF90DF90CF90BF90E5
:104A7000AF900895482F8CE294E06FEF73E00E94AE
:104A8000242A08958FEE92E060E00E94072D88238B
:104A900009F445C08FEE92E061E00E94072D882363
:104AA000F1F18FEE92E062E00E94072D8823B9F1C8
:104AB00081E008958FEE92E063E00E94072D99E077
:104AC000899FC00111248F5F11C08FEE92E061E0D9
:104AD0000E94072D882371F08FEE92E063E00E9420
:104AE000072D99E0899FC00111248E5F0E943A250D
:104AF00080E008958FEE92E062E00E94072D882307
:104B000069F08FEE92E063E00E94072D99E0899FA3
:104B1000C00111248D5F0E943A2580E008958FEE38
:104B200092E060E00E94072D882379F2C3CFAF9214
:104B3000BF92CF92DF92EF92FF920F931F93CF938A
:104B4000DF9390EA899F600111245601EE24FF242F
:104B500020C0B8016A0D7B1D8CE294E049910E944F
:104B6000242A0F5F1F4F0630110599F70894E11CA6
:104B7000F11C86E090E0A80EB91E96E0E916F1045B
:104B800041F404E2A02EB12CAC0CBD1CEE24FF2499
:104B900024C0E701CC0FDD1FCE0DDF1DCC0FDD1FC4
:104BA000C65EDC4F00E010E0D4CFB8016A0D7B1D7B
:104BB0008CE294E049910E94242A0F5F1F4F083134
:104BC000110599F70894E11CF11C88E190E0A80E0A
:104BD000B91E95E0E916F10479F0E701CC0FDD1F6D
:104BE000CE0DDF1DF3E0CC0FDD1FFA95E1F7C25CBF
:104BF000DC4F00E010E0D9CF81ED92E00E94552B10
:104C0000482F8CE990E0C80ED91E8CE294E0B601E2
:104C10000E94242A81ED92E00E94BF2A482F089426
:104C2000C11CD11C8CE294E0B6010E94242ADF91C1
:104C3000CF911F910F91FF90EF90DF90CF90BF9099
:104C4000AF900895FF920F931F93809100048823E3
:104C500079F08091020490910304019690930304EB
:104C600080930204893791051CF081E08093010450
:104C700010E083E0F82E01E08FEE92E063E00E9406
:104C8000072D8823B1F08FEE92E064E00E94072D9B
:104C9000882379F08FEE92E0612F0E94112D8823F6
:104CA00041F0009300041092030410920204009358
:104CB000D2038FEE92E063E00E94072D882329F152
:104CC0008FEE92E064E00E94072D8823F1F08FEED2
:104CD00092E0612F0E941B2D8823B9F0809101047E
:104CE000882331F0809119030E9497258F2D05C0EC
:104CF000809119030E949725812F0E94DD238FEE5A
:104D000092E00E94742C0093D2038FEE92E064E054
:104D10000E94072D882379F08FEE92E0612F0E9488
:104D2000112D882341F00093000410920304109287
:104D300002040093D2038FEE92E064E00E94072DFC
:104D40008823A1F08FEE92E0612F0E941B2D882313
:104D500069F080910104882311F08F2D01C0812F0B
:104D60000E94DD238FEE92E00E94742C809101045A
:104D7000882331F08FEE92E0612F41E00E94E72C12
:104D800081ED92E00E94192C882331F58FEE92E09C
:104D900066E00E94072D8823F9F08FEE92E0612FE4
:104DA0000E94112D8823C1F08091D30323E0829FBC
:104DB000C0011124810F8093CF030E94BC1E8091FB
:104DC000CF036FE70E94EF1E0093D2038FEE92E0B5
:104DD000612F41E00E94E72C8FEE92E065E00E9497
:104DE000072D8823B1F08FEE92E0612F0E94112DE4
:104DF000882379F08091D30323E0829FC00111249E
:104E0000810F8093EB030093D203853011F40E944D
:104E1000951E1F5FF394133009F02ECF8FEE92E0B2
:104E200064E00E94072D882369F18FEE92E066E02E
:104E30000E94112D882331F181ED92E00E94202CF7
:104E400081E08093D20381ED92E00E94192C8823A7
:104E500009F4F3C08091E603882309F0EEC086E4EC
:104E600091E06AEF70E00E94611008C086E491E072
:104E70006CEF70E00E9461101092E7038FEE92E0F9
:104E80000E94742C8FEE92E066E00E94072D88232A
:104E9000B1F08FEE92E064E00E94112D882379F04A
:104EA0008FEE92E00E94742C90E08091E7038823BB
:104EB00009F491E09093E70381E08093D20380911D
:104EC000E703882311F01092F5038FEE92E065E07E
:104ED0000E94072D882309F4B6C08FEE92E063E0AC
:104EE0000E94072D882309F4AEC08FEE92E066E0A1
:104EF0000E94112D882309F4A6C09091EB0388E14C
:104F0000989FD0011124A25CBC4FE4E0F4E08D91A5
:104F1000819384E0EC31F807D1F71CC08FEE92E06A
:104F200066E00E94112D882309F495C08091EB035F
:104F30000E9449100FC08FEE92E066E00E94112D92
:104F4000882359F090E08091D103882309F491E0FF
:104F50009093D10381E08093D2038FEE92E065E0DD
:104F60000E94072D882309F47FC08FEE92E063E052
:104F70000E94072D882309F477C08FEE92E064E049
:104F80000E94112D882309F46FC0A4E0B4E0909131
:104F9000EB0388E1989FF0011124E25CFC4F8D91B6
:104FA000819384E0AC31B807D1F727C08FEE92E04F
:104FB00064E00E94112D882309F45EC090E0809186
:104FC000F503882309F491E09093F50381E0809341
:104FD000D2038FEE92E00E94742C12C08FEE92E00A
:104FE00064E00E94112D882359F00E946E31AB01BC
:104FF000BC0181ED92E00E94592B81E08093D203A5
:105000008091D203882309F440C000E010E08FEEC5
:1050100092E0612F0E94072D080F1F5F1730B9F72C
:10502000002399F51092D203109200041092030409
:10503000109202041092010428C08091E603882394
:1050400009F01CCF13CF8FEE92E065E00E94072D90
:10505000882309F063CF8FEE92E063E00E94072D72
:10506000882309F47ACF67CF8FEE92E065E00E9443
:10507000072D882309F09ACF8FEE92E063E00E941B
:10508000072D882309F4BCCFA9CF1F910F91FF9062
:1050900008958091FD01882319F00E945716089504
:1050A00081ED92E00E943D2B8093ED030E948F21C1
:1050B00081ED92E00E94192C882339F46091CE038F
:1050C0006E5F8FEE92E00E949E2C0E94B0230E94A1
:1050D00022260E94E5210E94191A8091CE030E9487
:1050E000791C0E94B40E089506C086E491E0609198
:1050F000FE010E94331586E491E06091FE010E945A
:105100003315882391F704C086E491E00E946C1562
:1051100086E491E00E946C158823B1F786E491E063
:105120000E946C1586E491E00E946C1586E491E083
:105130000E946C1586E491E00E946C1586E491E073
:105140000E946C158FEE92E00E947B2F0E944928EE
:1051500006C086E491E06091FE010E94331586E46A
:1051600091E06091FE010E943315882391F704C0FD
:1051700086E491E00E946C1586E491E00E946C1533
:105180008823B1F786E491E00E946C1586E491E0F3
:105190000E946C1586E491E00E946C1586E491E013
:1051A0000E946C1586E491E00E946C150895CF92E0
:1051B000DF92EF92FF920F931F93CF93DF93CC2454
:1051C0008C2D0E94DD2356E1E52E51E0F52EDD24E5
:1051D00020C0C330D10531F4F70140818D2D63E04B
:1051E00050E005C0F801459154918D2D6C2F0E941F
:1051F0005D0D21960E5F1F4FC630D10551F7089403
:10520000E11CF11CD394F6E0DF1619F420E030E045
:105210000FC008E610E0C0E0D0E0DBCF11920196AD
:1052200088319105D9F72F5F3F4F2630310579F04E
:10523000F901EE0FFF1FE20FF31F93E0EE0FFF1FC8
:105240009A95E1F7E25CFC4F80E090E0E7CF81EDDA
:1052500092E068E770E00E94402B81ED92E060E010
:105260000E94BC2A8C2D0E949725C39486E0C81604
:1052700009F0A6CFDF91CF911F910F91FF90EF9092
:10528000DF90CF9008958FEE92E00E947B2F8FEEFB
:1052900092E00E947B2F0E944225882359F081E0F2
:1052A0000E9485190E94D72880E00E94851981E01C
:1052B0000E943A2508950E94AE0C0E9443298FEE69
:1052C00092E00E94002E882331F00E94D7288FEEB2
:1052D00092E00E94E12D8FEE92E060E00E94892F23
:1052E00080E00E94DD2308950E9487320895AF92E6
:1052F000BF92CF92DF92EF92FF920F931F93CF93C3
:10530000DF938FEE92E061E00E94542C8FEE92E0EA
:1053100060E00E94892F0E9424190E945B290E944C
:10532000D6230E94BA1880E890E00E94913104E0F0
:1053300011E06AE271E0CFEFD1E040E050E0A3E29B
:10534000AA2EB12CC12CD12CF5E0EF2EF12CFB01B3
:1053500081919191BF01F801219131918F013B8B96
:105360002A8B998388831F8A188E198E1A8EA0E043
:10537000B0E0DC01992788278B8F9C8FAD8FBE8F83
:105380004A9DF0014B9DF00D5A9DF00D1124E15006
:10539000FE4FC682D782E086F1864F5F5F4FA396AD
:1053A00046305105A1F68091060190910701909336
:1053B000C1028093C0028FE294E09093AF02809389
:1053C000AE021092C5021092C6021092C70210924D
:1053D000C80280E090E0AFE2B4E08093C90290930D
:1053E000CA02A093CB02B093CC028FEE92E00E944F
:1053F0007B2F8FEE92E00E947B2F81ED92E060E2A6
:105400000E942F2C81ED92E00E94C22A8FEE92E042
:105410000E94742C80E00E94DD238FEE92E06FE00A
:105420000E945D2CDF91CF911F910F91FF90EF9023
:10543000DF90CF90BF90AF900895F999FECF72BDE5
:1054400061BDF89A80B50895F999FECF1FBA72BD73
:1054500061BD40BD0FB6F894FA9AF99A0FBE08954F
:10546000FC017183608386E0858780E1868788E719
:1054700090E0938382830895EF92FF920F931F939E
:10548000E42FF0E0EF70F070E155F84EE4912E2F2C
:1054900030E020583040FC01808590E0AC01249F32
:1054A000C001259F900D349F900D112460E470E0A1
:1054B0000E94EA3B9B01442737FD4095542FE4802E
:1054C000F580068117812E153F05400751073CF0F6
:1054D000A8019701245130404040504014C0882713
:1054E0009927DC018E199F09A00BB10B8217930736
:1054F000A407B50744F024E130E040E050E02E1965
:105500003F09400B510B2E0D3F1D401F511FB9018C
:10551000CA011F910F91FF90EF9008950F931F9371
:105520008C01DC016D917C9188EE93E00E94EA3B56
:10553000882777FD8095982F20E63AEE40E050E0EE
:105540000E94AB3BD8011296ED91FC9113979F01FD
:10555000220F331F2E0F3F1F43E0220F331F4A95A8
:10556000E1F7442737FD4095542F0E941F3CCA01A4
:10557000B9011F910F910895FC0160870895FC0106
:105580008085089521E0FC01248F0895AF92BF9299
:10559000CF92DF92EF92FF920F931F93CF93DF93FF
:1055A000EC015A016B018C8D882331F1CE016A85A3
:1055B00049850E943C2A7B010027F7FC0095102FAB
:1055C0000BC08C858F5F8C872E0D3F1D401F511F98
:1055D000288F398F4A8F5B8F288D398D4A8D5B8D4F
:1055E000D601C501821B930BA40BB50B8E159F052D
:1055F000A007B10734F722C08C819D817C01002770
:10560000F7FC0095102F0BC08C858F5F8C872E0DBB
:105610003F1D401F511F288F398F4A8F5B8F288D68
:10562000398D4A8D5B8DD601C501821B930BA40B6E
:10563000B50B8E159F05A007B10734F7DF91CF9109
:105640001F910F91FF90EF90DF90CF90BF90AF90A0
:105650000895FC0182858F5F82879585891720F0E8
:10566000128683858F5F83870895FC018485882354
:1056700019F08150848781E00895FC0182850895A6
:10568000CF93DF93EC017B836A83672B21F481E066
:1056900090E09B838A83CE010E948E2A6C837D8357
:1056A0008E839F83DF91CF910895FC018281938146
:1056B00008952F923F924F925F926F927F928F92B6
:1056C0009F92AF92BF92CF92DF92EF92FF920F9391
:1056D0001F93CF93DF93EC011A012B018C899D89D5
:1056E000AE89BF897A018B01E81AF90A0A0B1B0BF4
:1056F0006881798188EE93E00E94EA3B80ED97E033
:105700009C01629FC001639F900D729F900D1124B8
:10571000AA2797FDA095BA2FE816F9060A071B07D6
:1057200054F02C8A3D8A4E8A5F8A1F86188A198A0D
:105730001A8A1B8A5EC06C817D818E819F81E2E026
:10574000660F771F881F991FEA95D1F72D8530E0E6
:1057500040E050E00E94AB3BE616F7060807190749
:1057600064F41C8681E08B879985892F8370890F6B
:105770008987288E398E4A8E5B8EA888B988CA8818
:10578000DB888C899D89AE89BF89A81AB90ACA0AA3
:10579000DB0AA20CB31CC41CD51CA88AB98ACA8A0D
:1057A000DB8AEF84E394EF866881798188EE93E069
:1057B0000E94EA3B882777FD8095982F20E63AEEF5
:1057C00040E050E00E94AB3B3B014C01FF2400E075
:1057D00010E0C601B501A80197010E941F3CC40159
:1057E000B3010E941F3C3B832A832C8A3D8A4E8A48
:1057F0005F8ADF91CF911F910F91FF90EF90DF9023
:10580000CF90BF90AF909F908F907F906F905F9060
:105810004F903F902F900895FC0181E0858F8FEF8E
:10582000818785858150828713860895FC01158EB6
:105830000895FC01858D089521E0FC01258F0895D0
:10584000FC01858D882311F0158E089581E0858FE8
:105850008FEF818785858150828713860895FC01AB
:1058600066870895FC0186850895FC016187089587
:10587000FC0181850895FC0181858F5F8187968574
:10588000891708F011860895FC01858D882309F495
:1058900013868385882319F08150838781E00895DA
:1058A00022E0FC0121830895FC01662311F4158E8A
:1058B0000895613009F4658F0895FC0161830895AE
:1058C000FC01868590E002C0959587956A95E2F780
:1058D00081700895FC01878590E002C095958795B9
:1058E0006A95E2F781700895FC0186858760868756
:1058F0000895FC0181E090E0A0E0B0E004C0880FD2
:10590000991FAA1FBB1F6A95D2F780952685282369
:1059100026870895E62FF0E03896EE0FFF1FE80F78
:10592000F91F808191810895E62FF0E03B96EE0FFC
:10593000FF1FE80FF91F808191810895EF92FF9278
:105940000F931F93CF93DF93EC01E62FF0E0E15329
:10595000F84E8591949123E030E0682F70E041E0AB
:10596000E42EF12C012D112D23503040CB01022EBD
:1059700002C0959587950A94E2F72D5F3F4F4D85BC
:1059800080FF0CC0D801C701022E04C0880F991FE8
:10599000AA1FBB1F0A94D2F7482B0CC0D801C7011D
:1059A000022E04C0880F991FAA1FBB1F0A94D2F7AA
:1059B000809548234D872F5F3F4F26303105A1F654
:1059C000DF91CF911F910F91FF90EF900895FC010F
:1059D0002585442369F081E090E0A0E0B0E004C0B8
:1059E000880F991FAA1FBB1F6A95D2F7282B0DC0DD
:1059F00081E090E0A0E0B0E004C0880F991FAA1FEA
:105A0000BB1F6A95D2F78095282325870895FC014E
:105A10008381948102C0959587956A95E2F781709C
:105A20000895FC018185928502C0959587956A95B8
:105A3000E2F781700895FC018385948502C09595F5
:105A400087956A95E2F781700895FC01278130857A
:105A5000C901062E02C0959587950A94E2F780FD4C
:105A600010C081E090E0A0E0B0E004C0880F991F72
:105A7000AA1FBB1F6A95D2F7282B392B30872783A3
:105A8000089581E090E0A0E0B0E004C0880F991F85
:105A9000AA1FBB1F6A95D2F7809590958223932306
:105AA000908787830895FC018781908502C0959532
:105AB00087956A95E2F781700895EF92FF920F93B0
:105AC0001F93FC016781708540E020E030E0E1E059
:105AD000EE2EF12C012D112DCB01022E02C0959539
