:100000000C9446010C946E010C946E010C946E01DC
:100010000C946E010C946E010C946E010C946E01A4
:100020000C946E010C946E010C946E010C9460366D
:100030000C94A1310C946E010C946E010C946E0121
:100040000C94F3360C946E010C94D5380C9423392F
:100050000C946E010C9485320C946E010C946E011C
:100060000C946E010C946E016A05B90510066906C0
:10007000D6063007A307190894081A099E09380AFA
:10008000D40A710B1F0CD10CAC0D5F0E460F321051
:10009000281134123C136F149815E7164D18B31934
:1000A000301BBB1C681E5620522275247726B428AC
:1000B0000F2B8E2D72303F334A367239F63CCF40CB
:1000C0008E447B48DD4C795122567C5BE760556657
:1000D000A76C2873D6801C89F690BA99F2A244AC1A
:1000E00044AC44AC44AC44AC44AC000005000A0051
:1000F00050007F00A000DC00FF0000001900190084
:1001000064009001E803D007A00F00001E003C002F
:100110005A0073008700A000BE00DC00FF00000052
:100120008813E02E983A803E803E6842204E7869DF
:10013000007D6D0300000000000000008000000052
:10014000FE0304005200360072636172676D7365CE
:1001500000FF037F007F007F007F00FF00FF03FFA1
:10016000033F007F007F0000000100020003000643
:10017000000C0018003000480060009000C0002013
:1001800001800140020003C05D7C3C3E5E2B3D3F90
:100190002F5B5D3B2C2A225C000304050001020456
:1001A000030506073F065B4F666D7D077F6F777C13
:1001B000585E79713D74041E703855545C736750F5
:1001C0006D781C0C6A49725B004049521018080C8B
:1001D000044440602021010302646174610000E472
:1001E000CBB5A2908072665B51484039332E2924EA
:1001F000201D1A171412100E0D0B0A090807060508
:10020000040302016461746100666D74200057414B
:1002100056450052494646006461746100666D743B
:100220002000574156450052494646000000000054
:10023000240027002A0000000000250028002B00D1
:100240000000000023002600290004040404040424
:100250000404020202020202030303030303010275
:100260000408102040800102040810200102040844
:100270001020000000070002010000030406000037
:100280000000000000004604AD1D8F3A11241FBE7F
:10029000CFEFD8E0DEBFCDBF11E0A0E0B1E0E2EFEC
:1002A000F7E702C005900D92A03AB107D9F718E020
:1002B000A0EAB1E001C01D92A433B107E1F712E05A
:1002C000CCE8D2E004C02297FE010E94F33BC6387E
:1002D000D107C9F70E94E53A0C94F73B0C94000053
:1002E000FB01DC014150504030F08D9105908019A8
:1002F00019F40020B9F7881B990B0895FB01DC0164
:1003000004C08D910190801921F441505040C8F7EC
:10031000881B990B0895FB01DC0102C001900D922E
:1003200041505040D8F7089581E080934C0280916D
:1003300006019091070101969093070180930601B1
:10034000089508958F929F92AF92BF92CF92DF92BD
:10035000EF92FF920F931F93CF93DF9370E0FB0117
:10036000E65BFE4F9081892E9924C0E0D0E050E0FA
:1003700020E030E0AFE5AA2EA1E0BA2EA60EB71E0F
:10038000FAE6CF2EF1E0DF2EC60ED71E90E0BC01BC
:10039000660F771F680F791F660F771F660F771F2D
:1003A000615A7D4F91E0E92EF12C012D112D40C0B5
:1003B000F5014081C901840F911D8031910524F020
:1003C0004051420F52E007C0089724F04850420FB6
:1003D00051E001C0420FF6018081FB01E50FF11DE4
:1003E000E80FF11D808190E002C0959587954A95B0
:1003F000E2F780FF0DC0D801C701022E04C0880FAC
:10040000991FAA1FBB1F0A94D2F7C82BD92B0EC065
:10041000D801C701022E04C0880F991FAA1FBB1F55
:100420000A94D2F780959095C823D9232F5F3F4F28
:10043000281539050CF4BCCFCE01DF91CF911F9167
:100440000F91FF90EF90DF90CF90BF90AF909F9073
:100450008F9008956F927F928F929F92AF92BF92EA
:10046000CF92DF92EF92FF920F931F93CF93DF9380
:100470003A0170E0FB01E65BFE4F9081892E9924E2
:1004800030E040E050E0EFE5AE2EE1E0BE2EA60EFB
:10049000B71E90E02AE6C22E21E0D22EC60ED71E4D
:1004A000EC01CC0FDD1FC80FD91FCC0FDD1FCC0F07
:1004B000DD1FB1E0EB2EF12C012D112D4CC0F5010B
:1004C0002081CA01820F911D8031910524F02051B5
:1004D000240F32E007C0089724F02850240F31E0A1
:1004E00001C0240FC301042E02C0959587950A947C
:1004F000E2F7632F70E080FF16C0F6018081FB01F8
:10050000E80FF11DEC0FFD1FE15AFD4FD801C701A7
:1005100004C0880F991FAA1FBB1F2A95D2F72081FC
:10052000282B208316C0F6018081FB01E80FF11D06
:10053000EC0FFD1FE15AFD4FD801C70104C0880F21
:10054000991FAA1FBB1F2A95D2F78095208182236D
:1005500080834F5F5F4F481559050CF4B0CFDF9192
:10056000CF911F910F91FF90EF90DF90CF90BF90B0
:10057000AF909F908F907F906F9008950F931F93EF
:10058000CF93DF93082FC2E3D1E010E0FE01459145
:100590005491802F612F0E942A0222961F5F1B30E8
:1005A000A9F7DF91CF911F910F9108951F9310E04C
:1005B000812F0E94BE021F5F1630D1F71F91089550
:1005C000482F6091AA026623E9F1ECEAF2E030E0FC
:1005D00020E0A62FB0E007C08081841711F4922F8D
:1005E00031E02F5F31962617B9F7332311F480E0FD
:1005F0000895892F90E0FC01E455FD4F20E030E0A4
:10060000AC0104C0818181932F5F3F4FC901840FEA
:10061000951F8A179B07B4F3862F81508093AA02F7
:1006200090E0FC01E455FD4F20E030E0AC016FEFBD
:1006300003C061932F5F3F4FC901840F951F4097FF
:10064000C4F301C0089581E00895EF92FF920F93E3
:100650001F9320913B0130913C0140913D0150910D
:100660003E01D9019927882782279327A427B527F8
:100670007C018D0125E016950795F794E7942A955E
:10068000D1F7E826F9260A271B2780913F01909190
:100690004001A0914101B091420180933B019093B0
:1006A0003C01A0933D01B0933E0120914301309164
:1006B0004401409145015091460120933F01309300
:1006C00040014093410150934201282739274A278E
:1006D0005B272E253F2540275127EE0CFF1C001FCE
:1006E000111F2E253F25402751272093430130938A
:1006F00044014093450150934601B901CA011F913D
:100700000F91FF90EF900895EF92FF920F931F9338
:100710007C010E9425039B01AC010027F7FC00959A
:10072000102F40705070C801B7010E946E3B9B01B2
:10073000AC019A0144275527C9011F910F91FF90E1
:10074000EF90089568E00E94A2018093C202282FD2
:1007500030E0C9019595879595958795817080932F
:10076000F902109237011092A902809108018F3F7F
:1007700019F010922E0109C0C901E3E09595879503
:10078000EA95E1F7817080932E0180912E018823F4
:1007900011F425FF02C08FEF18C020FF04C081E0D4
:1007A0008093080102C0109208018091080124FF83
:1007B00002C0826001C08D7F809308018091080192
:1007C00021FF02C0846001C08B7F809308011092DA
:1007D000BF020895CF92DF92EF92FF920F931F9383
:1007E000CF93DF93FC016B01EA0179010097D1F10E
:1007F000B80180E090E09F0140E050E00E946E3B35
:100800004AE095958795779567954A95D1F7C617EC
:10081000D707B0F46C1B7D0B80E090E098012E1997
:100820003F0940E050E00E946E3B0C1B1D0B9801FD
:1008300040E050E00E94D63BF901EE0DFF1D12C0D2
:10084000C616D70610F4F7010DC080E090E09701BE
:1008500040E050E00E946E3B960140E050E00E9474
:10086000D63BF901CF01DF91CF911F910F91FF90FE
:10087000EF90DF90CF900895909105019093300113
:100880006AE00E94A20180933101089589E180937A
:10089000A7011092AA011092C2011092CD011092EC
:1008A000D0011092CC011092CB0181E891E090939D
:1008B000CA018093C9011092EC011092EF011092CD
:1008C000EB011092EA019093E9018093E80188E03E
:1008D00092E00E94B42E089588E092E060E071E01A
:1008E0000E94482F08950F931F93282F8091130380
:1008F00090911403A0911503B09116038093F10217
:100900009093F202A093F302B093F4028091340327
:10091000882371F08091F5029091F60201969093F0
:10092000F8028093F7021092F6021092F5022EC0A0
:10093000809108018730C9F4822F67E00E94A201EC
:100940008C0188E092E00E94E92E2091590230E06B
:10095000220F331F220F331F021B130B081B190B0F
:100960001093F8020093F70211C0822F67E00E94F3
:10097000A2012091590230E0220F331F220F331FB2
:10098000280F391F3093F8022093F7028091BE029E
:10099000882369F08091F7029091F802885E934075
:1009A00034F087EE93E09093F8028093F702209161
:1009B000F7023091F80283E0283E38073CF5809139
:1009C000F5029091F602821793072CF00A96909305
:1009D000F8028093F7026091F7027091F80288277D
:1009E00077FD8095982F209128033091290340911D
:1009F0002A0350912B030E946E3B6093F102709387
:100A0000F2028093F3029093F40214C080911303D6
:100A100090911403A0911503B09116038050924059
:100A2000A040B0408093F1029093F202A093F302B1
:100A3000B093F40280910E03882349F08091F10273
:100A40009091F202A091F302B091F40208C080915B
:100A5000ED029091EE02A091EF02B091F00280932E
:100A6000C9029093CA02A093CB02B093CC021F910B
:100A70000F91089588E092E00E94E92E20E08038EE
:100A800091050CF021E080913303882359F422234F
:100A900049F080910601909107010196909307011A
:100AA0008093060120933303089588E092E060E08C
:100AB0000E94C32F089588E092E0609131010E9466
:100AC0009D2F089587E092E00E9414348CEE91E00F
:100AD0000E94A824089583E0809307030E94620582
:100AE00008951F93182F81E0809320030E943B37C5
:100AF0006093210370932203809323039093240334
:100B000088E092E0612F0E949D2F1F9108958091AF
:100B100027038823B1F088E092E06091380140918A
:100B2000F9020E94F72E4091C20250E083E05595F1
:100B300047958A95E1F7417088E092E0609139012C
:100B400020C080915405813009F054C08091510239
:100B5000882309F04FC088E092E06091380141E0BD
:100B60000E94F72E80915405813009F049C0809190
:100B70005102813009F044C088E092E0609139016F
:100B800041E00E94F72E8091BD02823009F442C0FC
:100B9000809120038823E9F00E943B3720912103B4
:100BA000309122034091230350912403621B730B65
:100BB000840B950B615476408040904058F1109220
:100BC00020030E945B050E94550585E08093250364
:100BD0000895809154058130C9F08091C70288231F
:100BE000A9F488E092E066E270E00E94492F0E943A
:100BF0005505089588E092E06091380140E0B0CF5B
:100C000088E092E06091390140E0BBCF0E945B0533
:100C10000E94550508956F927F928F929F92AF9296
:100C2000BF92CF92DF92EF92FF920F931F93CF93D9
:100C3000DF93EC01653009F45CC0663018F466237C
:100C400041F0CFC0663009F498C0673009F0C9C0E0
:100C500094C03C01882477FC8094982C00D000D06C
:100C600084E390E0A0E0B0E0EDB7FEB7818392832B
:100C7000A383B483C401B30120E030E040E050E03E
:100C8000BFEFEB2EB3E0FB2E012D112DA8E2AA2E13
:100C9000B12CC12CD12C0E941E3B9B01AC010F90AA
:100CA0000F900F900F9088E092E0B9010E94492FB9
:100CB00020911B0130911C0140E050E0C401B301C0
:100CC0000E946E3B20E034E040E050E00E94D63BC2
:100CD0008091A2019091A3018217930708F0B6C0FA
:100CE0008091A4019091A5012817390708F0AEC0A2
:100CF000A9C000D000D0BE01882777FD8095982F2D
:100D000024E330E040E050E0EDB7FEB721833283CA
:100D10004383548320E030E040E050E0FFEFEF2ECB
:100D2000F12C012D112DE8E2AE2EB12CC12CD12CCD
:100D30000E941E3B9B01AC010F900F900F900F90F3
:100D400088E092E0B9010E94492F209709F47AC007
:100D5000CF3FD10509F476C0C457D040639708F05F
:100D600075C088E092E061E00E94C32F88E092E0C5
:100D70006EE270E00E94492F6EC000D000D0BE012C
:100D8000882777FD8095982F24E330E040E050E0FD
:100D9000EDB7FEB7218332834383548320E030E0F4
:100DA00040E050E0BFEFEB2EB3E0FB2E012D112D04
:100DB000A8E2AA2EB12CC12CD12C0E941E3B9B0173
:100DC000AC010F900F900F900F9088E092E0B90166
:100DD0000E94492FF3E0CF3FDF07A1F1CD2BB1F502
:100DE00031C000D000D0BE01882777FD8095982FB4
:100DF00024E330E040E050E0EDB7FEB721833283DA
:100E00004383548320E030E040E050E0FFE7EF2EE2
:100E1000F12C012D112DE8E2AE2EB12CC12CD12CDC
:100E20000E941E3B9B01AC010F900F900F900F9002
:100E300088E092E0B9010E94492F209719F0CF373E
:100E4000D10521F488E092E061E003C088E092E0FF
:100E500060E00E94C32FDF91CF911F910F91FF900F
:100E6000EF90DF90CF90BF90AF909F908F907F904A
:100E70006F9008955F926F927F928F929F92AF9240
:100E8000BF92CF92DF92EF92FF920F931F93CF9377
:100E9000DF936090510280912703882309F447C0B3
:100EA00010E088E092E0612F0E94BF2E8823D1F1EC
:100EB0008091FA02833021F488E092E060E003C080
:100EC00088E092E067E00E941D2F8091FA02880F6F
:100ED000810F809308018091510268E00E94A20175
:100EE000282F80910801982F80FF03C0822F8160F6
:100EF00002C0822F8E7F91FF03C0482F406102C045
:100F0000482F4F7E92FF02C0426001C04D7F477D57
:100F10008091510268E050E00E942A0280915102C3
:100F20000E94A2031F5F123009F0BBCFEEC0A09059
:100F3000FA0223E02A1510F453E0A52E809139031C
:100F40008A1509F0D6C07A2C770CCC24DD245524E0
:100F500053944AE0842E912CEC2CBC2CB70C862D9B
:100F60006B2D0E94A2018C0188E092E06C2D0E9402
:100F7000DF2EEC0188E092E06C2D0E94B52EEB2D67
:100F8000F0E0882309F454C0E65BFE4FF0808F2D1B
:100F900090E03AE03F1550F0A401481B590B042E95
:100FA00002C0D595C7950A94E2F706C00A9702C019
:100FB000CC0FDD1F8A95E2F788E092E06E2D0E944B
:100FC000ED2E9C018F2D90E05AE05F1558F0A401A2
:100FD000481B590BCA01A90102C0559547958A952E
:100FE000E2F707C00A97A90102C0440F551F8A956E
:100FF000E2F7C417D5074CF0C017D1070CF47CC03A
:10100000041715070CF478C008C00C171D070CF462
:1010100073C0401751070CF46FC088E092E06E2D4A
:101020000E94CE2E88E092E067E00E941D2F59C0FA
:10103000E65BFE4FF0804F2D50E08AE08F1548F0C0
:10104000C401841B950B02C0D595C7958A95E2F71C
:1010500007C04A50504002C0CC0FDD1F4A95E2F74E
:10106000862D6B2DAE010E942A0228E02F1578F400
:1010700098012C1B3D0B37FF03C0309521953F4F46
:1010800080912F0190E082179307ECF40EC033E0BB
:10109000159507953A95E1F7CE0123E0959587954B
:1010A0002A95E1F70817190771F0E092250350928D
:1010B00020030E943B3760932103709322038093A7
:1010C0002303909324038091250390E08C159D05C4
:1010D00041F4872D8C0D883020F4CE016B2D0E94B9
:1010E0000B060894C11CD11C32E0C316D10409F0D0
:1010F00033CFA092390309C088E092E06E2D0E94A0
:10110000BF2E882309F089CFECCFDF91CF911F91BB
:101110000F91FF90EF90DF90CF90BF90AF909F9096
:101120008F907F906F905F9008954F925F926F9233
:101130007F928F929F92AF92BF92CF92DF92EF9267
:10114000FF920F931F93CF93DF93E62F7A01BC0199
:101150008F3F910519F010F06FEF70E05524442493
:101160004A946624772443014FEFA42EB12CC12C5E
:10117000D12C80E090E04E2F50E08A0101501040C9
:10118000EA012A9630C0FC01EE0FFF1FEE0DFF1D95
:10119000A591B4916A177B0728F1FC013196EE0FF7
:1011A000FF1FEE0DFF1D2591349126173707D0F054
:1011B000422E5A2E840F951FFC013196EE0FFF1F11
:1011C000EE0DFF1D259134915901CC24DD24FC0145
:1011D000EE0FFF1FEE0DFF1D859194913C018824B9
:1011E0009924CE010196801791070CF4CCCF00D042
:1011F00000D080E090E0252D30E040E050E0E42C8D
:10120000FF2400E010E0EDB7FEB7A182B282C382F6
:10121000D482640153010E941E3B0F900F900F90E7
:101220000F90DF91CF911F910F91FF90EF90DF9082
:10123000CF90BF90AF909F908F907F906F905F9076
:101240004F9008950F931F93982F81E080934C0245
:10125000E92FF0E0EE5AFD4F608320915102943067
:1012600009F49DC0953048F49230D1F1933008F0E4
:1012700060C0913009F052C10AC0963009F4F9C03B
:10128000963008F4C8C0973009F048C140C1809139
:101290000801813091F4822F61E00E94A2018C014B
:1012A00088E092E00E94E92E95958795959587951F
:1012B000000F111F800F911F0AC0822F61E00E9452
:1012C000A201880F991F20915302820F911D880F50
:1012D000991F880F991F90936E0580936D051EC10D
:1012E000809108018230A9F4822F62E00E94A2015D
:1012F0008C0188E092E00E94E92E53E09595879555
:101300005A95E1F7800F911F9093C4028093C30216
:1013100005C1822F62E00E94A2012091540230E0B8
:1013200035952795280F391F3093C4022093C302A7
:10133000F5C0809108018330A9F4822F63E00E94F8
:10134000A2018C0188E092E00E94E92E23E09595AD
:1013500087952A95E1F7800F911F9093C60280939D
:10136000C5020FC0822F63E00E94A20120915502A6
:1013700030E035952795280F391F3093C60220930A
:10138000C5028091C5029091C6028F37910524F065
:1013900081E08093BE02C2C01092BE02BFC08091A5
:1013A00008018430A9F4822F64E00E94A2018C011C
:1013B00088E092E00E94E92EA3E095958795AA9592
:1013C000E1F7800F911F9093A8028093A7020FC0AE
:1013D000822F64E00E94A2012091560230E03595F0
:1013E0002795280F391F3093A8022093A7028091D8
:1013F000A7029091A802880F991F68E04AEE50E07A
:101400000E9495086093E5027093E6028093E702DC
:101410009093E80283C080910801853081F4822F87
:1014200065E00E94A2018C0188E092E00E94E92E12
:101430009595879595958795800F911F08C0822F68
:1014400065E00E94A20120915702820F911D6AE07F
:101450004AE051E00E94950860587E4380409040E9
:101460006093E9027093EA028093EB029093EC029E
:1014700055C080913403882309F050C08091080141
:101480008630C9F4822F66E00E94A2018C0188E0B8
:1014900092E00E94E92E080F191F8091580290E0F7
:1014A000880F991F880F991F800F911F9093F60244
:1014B0008093F50211C0822F66E00E94A201209164
:1014C000580230E0220F331F220F331F280F391F1D
:1014D0003093F6022093F5026091F5027091F602C6
:1014E000882777FD8095982F209128033091290334
:1014F00040912A0350912B030E946E3B6093ED02B2
:101500007093EE028093EF029093F00207C08091F7
:101510003403882319F4822F0E9473041F910F91C2
:1015200008952F923F924F925F926F927F928F9287
:101530009F92AF92BF92CF92DF92EF92FF920F9362
:101540001F93DF93CF93CDB7DEB728970FB6F894EC
:10155000DEBF0FBECDBF40911B0150911C014C015D
:101560004817590708F44A0180911D0190911E0106
:101570007C0100E010E019821A821B821C8239EB88
:10158000432E35E0532E612C712C20E3A22E25E74B
:10159000B22EC12CD12C22243324A40160E070E0AF
:1015A0004D835E836F837887D101AA0FBB1FFD0136
:1015B000E75FFE4F408151814815590508F0BDC0D5
:1015C00091012F5F3F4FF901EE0FFF1FE75FFE4FC5
:1015D000608171816815790508F4AFC0C401841B6E
:1015E000950B039760F4FD01E20DF31DEE0FFF1F55
:1015F000EE0FFF1FE859FF4F8591949115C0861695
:10160000970629F0C401861B970B039788F4F9010C
:10161000EE0FFF1FE20FF31FEE0FFF1FEE0FFF1F76
:10162000E859FF4F859194919C0140E050E0B7C08C
:101630005A01CC24DD2480E090E06A197B098C09F2
:101640009D0926E030E040E050E00E94B43BA90153
:1016500020E060E070E0649FC001659F900D749F82
:10166000900D1124A0E0B0E08A0D9B1DAC1DBD1DA6
:10167000ED80FE800F8118858E159F05A007B107AC
:10168000C8F46F5F7F4F649FC001659F900D749F8A
:10169000900D112461507040A0E0B0E08A0D9B1DB8
:1016A000AC1DBD1D8E159F05A007B10718F0262F94
:1016B00066E070E06F5F7F4F6630710564F230E086
:1016C0002F5F3F4F249FC001259F900D349F900DA9
:1016D0001124215030407C0100E010E0EA0CFB1C9A
:1016E0000C1D1D1DCA01A0E0B0E0B801A701481BF8
:1016F000590B6A0B7B0B49835A836B837C83C10133
:10170000880F991F820D931D880F991F280F391F6D
:10171000220F331FF901E659FF4F859194915C0127
:10172000CC24DD24F901E859FF4F859194912C01D7
:1017300066247724A5E12A2E312C0894211C311C23
:101740005AE0251631040CF42FCF00D000D0B4019C
:1017500080E090E0ADB7BEB71196AD92BD92CD924C
:10176000DC92149729813A814B815C81630152019B
:101770000E941E3BAC01CB01DA019C01AD010F9030
:101780000F900F900F902831B9E73B07B0E04B075F
:10179000B0E05B0720F028E139E740E050E0B90114
:1017A000CA0128960FB6F894DEBF0FBECDBFCF9109
:1017B000DF911F910F91FF90EF90DF90CF90BF903E
:1017C000AF909F908F907F906F905F904F903F90E1
:1017D0002F900895BF92CF92DF92EF92FF920F93D6
:1017E0001F93CF93DF93B82ED090540581E0D81685
:1017F00009F016C3C09051021092370310910801EE
:101800001F3F09F475C1133009F49BC0143038F43C
:10181000113009F44DC0123008F071C00DC0153000
:1018200009F4EBC0153008F4B7C0163009F413C141
:10183000173009F05DC145C188E092E00E94E92EB1
:10184000EC017C0180913503909136038C179D0744
:1018500011F0D0923703D0933603C09335038C2D0B
:1018600060E00E94A2016091A2017091A3014091E9
:10187000A4015091A5012091A0013091A1010091F6
:101880001B0110911C010E94EA038C0F9D1F0E94F6
:10189000910AAB01BC015093C1024093C00266277C
:1018A00057FD6095762F87E092E00E94853322C134
:1018B00088E092E00E94E92E7C01F594E794F5948B
:1018C000E79480913503909136038E159F0511F0B2
:1018D00010933703F0923603E09235038C2D61E0CC
:1018E0000E94A201880F991F8E0D9F1D880F991FBE
:1018F000880F991F90936E0580936D05FBC088E05B
:1019000092E00E94E92E7C0123E0F594E7942A9569
:10191000E1F780913503909136038E159F0511F004
:10192000D0923703F0923603E09235038C2D62E0BB
:101930000E94A2018E0D9F1D9093C4028093C3024A
:10194000D9C088E092E00E94E92E7C0193E0F594F2
:10195000E7949A95E1F780913503909136038E15BF
:101960009F0511F0D0923703F0923603E0923503D1
:101970008C2D63E00E94A2018E0D9F1D9093C602E4
:101980008093C5028F37910524F081E08093BE02D9
:10199000B1C01092BE02AEC088E092E00E94E92E73
:1019A0007C0183E0F594E7948A95E1F78091350313
:1019B000909136038E159F0511F0D0923703F09267
:1019C0003603E09235038C2D64E00E94A2018E0D57
:1019D0009F1D9093A8028093A702880F991F68E02B
:1019E0004AEE50E00E9495086093E5027093E6028B
:1019F0008093E7029093E8027DC088E092E00E9425
:101A0000E92E7C01F594E794F594E79480913503F1
:101A1000909136038E159F0511F0D0923703F09206
:101A20003603E09235038C2D65E00E94A2018E0DF5
:101A30009F1D6AE04AE051E00E94950860587E438D
:101A4000804090406093E9027093EA028093EB0239
:101A50009093EC024FC088E092E00E94E92E8C0146
:101A60007C0180913503909136038017910711F026
:101A7000D092370310933603009335038C2D66E024
:101A80000E94A201800F911F9093F6028093F502AD
:101A9000AA2797FDA095BA2F2091280330912903FA
:101AA00040912A0350912B03BC01CD010E946E3B53
:101AB0006093ED027093EE028093EF029093F00238
:101AC00019C088E092E00E94E92E9C017C0180917F
:101AD0003503909136038217930711F0D0923703A4
:101AE00030933603209335038C2D0E94730402C07B
:101AF000EE24FF2481E0B81609F488C0B81648F037
:101B000082E0B81609F4DBC083E0B81609F088C19A
:101B10003BC188E092E060E00E94B52E882309F086
:101B20004DC0809108018823C9F48C2D60E00E948B
:101B3000A2016091A2017091A3014091A401509172
:101B4000A5012091A0013091A10100911B011091EC
:101B50001C010E94EA038E0D9F1D16C08C2D60E0B3
:101B60000E94A2016091A2017091A3014091A40181
:101B70005091A5012091A0013091A10100911B017C
:101B800010911C010E94EA030E94910A7093C10205
:101B90006093C00280915002873020F0809137011D
:101BA000882361F44091C0025091C102662757FD1D
:101BB0006095762F87E092E00E94853388E092E07E
:101BC00061E00E94B52E882309F02AC180910801A6
:101BD000813049F48C2D61E00E94A201880F991F89
:101BE0008E0D9F1D0AC08C2D61E00E94A201880FFE
:101BF000991F20915302820F911D880F991F880F02
:101C0000991F90936E0580936D050AC188E092E05C
:101C100060E00E94B52E8823F1F4809108018230A3
:101C200059F48C2D62E00E94A2018E0D9F1D9093AD
:101C3000C4028093C3020FC08C2D62E00E94A201F7
:101C40002091540230E035952795280F391F3093A5
:101C5000C4022093C30288E092E061E00E94B52EA6
:101C6000882309F0DDC080910801833059F48C2D60
:101C700063E00E94A201E80EF91EF092C602E09213
:101C8000C5020FC08C2D63E00E94A2012091550275
:101C900030E035952795280F391F3093C6022093E1
:101CA000C5028091C5029091C6028F37910524F03C
:101CB00081E08093BE02B4C01092BE02B1C088E041
:101CC00092E060E00E94B52E882389F5809108019A
:101CD000843059F48C2D64E00E94A2018E0D9F1D6A
:101CE0009093A8028093A7020FC08C2D64E00E94FD
:101CF000A2012091560230E035952795280F391F13
:101D00003093A8022093A7028091A7029091A80285
:101D1000880F991F68E04AEE50E00E949508609392
:101D2000E5027093E6028093E7029093E80288E070
:101D300092E061E00E94B52E882309F071C0809185
:101D40000801853039F48C2D65E00E94A2018E0DCA
:101D50009F1D08C08C2D65E00E94A20120915702B2
:101D6000820F911D6AE04AE051E00E949508605898
:101D70007E43804090406093E9027093EA02809332
:101D8000EB029093EC024CC088E092E060E00E948D
:101D9000B52E8823F1F5809134038823D1F5809105
:101DA0000801863059F48C2D66E00E94A201E80EED
:101DB000F91EF092F602E092F50211C08C2D66E059
:101DC0000E94A2012091580230E0220F331F220FFF
:101DD000331F280F391F3093F6022093F5026091CC
:101DE000F5027091F602882777FD8095982F209153
:101DF00028033091290340912A0350912B030E941C
:101E00006E3B6093ED027093EE028093EF0290932D
:101E1000F00280913403882319F48C2D0E947304FE
:101E2000DF91CF911F910F91FF90EF90DF90CF90B6
:101E3000BF900895EF92FF920F931F93982F1092E7
:101E400034032091FF013091000240910102509132
:101E5000020220931303309314034093150350930D
:101E60001603809137018823F1F49731E0F09A341A
:101E7000D0F4892F90E047979093F6028093F50273
:101E8000F0905102CA01B9012CE330E040E050E08B
:101E90000E94B43B209328033093290340932A03E4
:101EA00050932B0363C0A9EEEA2EE90EE091510294
:101EB000CA01B901FAE09695879577956795FA95E5
:101EC000D1F72AE22E15D8F0FE2E609328037093E6
:101ED000290380932A0390932B038E2F66E00E94A0
:101EE000A2012091580230E0220F331F220F331F2E
:101EF000280F391F3093F6022093F50239C0FE2EC9
:101F0000609328037093290380932A0390932B03F3
:101F1000809108018630C9F48E2F66E00E94A201EC
:101F20008C0188E092E00E94E92E080F191F809131
:101F3000580290E0880F991F880F991F800F911FFA
:101F40009093F6028093F50211C08E2F66E00E94F6
:101F5000A2012091580230E0220F331F220F331FBD
:101F6000280F391F3093F6022093F502EE24EA94ED
:101F70006091F5027091F602882777FD8095982F81
:101F8000209128033091290340912A0350912B037B
:101F90000E946E3B6093ED027093EE028093EF021D
:101FA0009093F0028F2D0E94A2038091080182304D
:101FB000E1F48F2D62E00E94A2018C0188E092E0A2
:101FC0000E94E92E2091540230E035952795020FAA
:101FD000131FB3E095958795BA95E1F7080F191F80
:101FE0001093C4020093C3020FC08F2D62E00E94C1
:101FF000A2012091540230E035952795280F391F12
:102000003093C4022093C302809108018330E1F42D
:102010008F2D63E00E94A2018C0188E092E00E9473
:10202000E92E2091550230E035952795020F131FB8
:10203000E3E095958795EA95E1F7080F191F10934E
:10204000C6020093C5020FC08F2D63E00E94A2015B
:102050002091550230E035952795280F391F309390
:10206000C6022093C5028091C5029091C6028F37A7
:10207000910524F081E08093BE0202C01092BE025E
:1020800081E0809353058FEFE81669F0EE2DF0E0C4
:10209000EE0FFF1FE859FF4F859194919093C10275
:1020A0008093C0023EC0809108018823F1F48F2DF7
:1020B00060E00E94A2016091A2017091A301409191
:1020C000A4015091A5012091A0013091A10100919E
:1020D0001B0110911C010E94EA038C0188E092E030
:1020E0000E94E92E800F911F16C08F2D60E00E9484
:1020F000A2016091A2017091A3014091A4015091AD
:10210000A5012091A0013091A10100911B01109126
:102110001C010E94EA030E94910A7093C10260931D
:10212000C0024091C0025091C102662757FD6095E0
:10213000762F87E092E00E948533809108018130FC
:1021400009F049C08F2D61E00E94A2018C0188E056
:1021500092E00E94E92E000F111F959587959595A5
:102160008795080F191F80915302080F111D17FF43
:1021700002C010E02DC08F2D61E00E94A2018C01F1
:1021800088E092E00E94E92E000F111F9595879537
:1021900095958795080F191F80915302080F111DFF
:1021A0000F3F110519F014F01FEF12C08F2D61E0E1
:1021B0000E94A201182F88E092E00E94E92E110FE0
:1021C0009595879595958795180F80915302180FCF
:1021D00010934D020BC08F2D61E00E94A201880F69
:1021E000909153029695980F90934D0280914D02D5
:1021F00090E0880F991F880F991F90936E05809328
:102200006D05809108018430E1F48F2D64E00E9417
:10221000A2018C0188E092E00E94E92E20915602F2
:1022200030E035952795020F131FF3E095958795BC
:10223000FA95E1F7080F191F1093A8020093A7025F
:102240000FC08F2D64E00E94A2012091560230E061
:1022500035952795280F391F3093A8022093A702A0
:102260008091A7029091A802880F991F68E04AEE1A
:1022700050E00E9495086093E5027093E602809317
:10228000E7029093E80280910801853081F48F2D58
:1022900065E00E94A2018C0188E092E00E94E92E94
:1022A0009595879595958795800F911F08C08F2DDF
:1022B00065E00E94A20120915702820F911D6AE001
:1022C0004AE051E00E94950860587E43804090406B
:1022D0006093E9027093EA028093EB029093EC0220
:1022E0008091E9029091EA02A091EB02B091EC0298
:1022F000B7FF0AC08091A7029091A802892B21F014
:1023000081E080930E0302C010920E038F2D0E9475
:1023100073040E943B3760930F0370931003809304
:102320001103909312034091C9025091CA02609127
:10233000CB027091CC0287E092E00E9451338091F1
:10234000C9029091CA02A091CB02B091CC028093B5
:10235000FB029093FC02A093FD02B093FE02109248
:1023600053051F910F91FF90EF900895EF92FF9208
:102370000F931F938091E9029091EA02A091EB02E2
:10238000B091EC022091FB023091FC024091FD02E1
:102390005091FE02280F391F4A1F5B1F2093FB023A
:1023A0003093FC024093FD025093FE02E090F10254
:1023B000F090F2020091F3021091F402B7FD3FC0D9
:1023C0002E153F054007510780F08091ED02909156
:1023D000EE02A091EF02B091F0028093FB02909385
:1023E000FC02A093FD02B093FE028091A70290919F
:1023F000A802AA2797FDA095BA2F2091FB02309141
:10240000FC024091FD025091FE02820F931FA41F17
:10241000B51F8E159F05A007B10758F18091ED02F9
:102420009091EE02A091EF02B091F0028093FB0236
:102430009093FC02A093FD02B093FE021AC02E15E9
:102440003F054007510768F48091ED029091EE023C
:10245000A091EF02B091F00282179307A407B5078D
:1024600040F0E092FB02F092FC020093FD02109318
:10247000FE0281E0809353054091FB025091FC02E3
:102480006091FD027091FE0287E092E00E9451335C
:10249000109253051F910F91FF90EF900895809136
:1024A000A7029091A802892B09F443C020916905E5
:1024B00030916A0540916B0550916C05809117032E
:1024C00090911803A0911903B0911A030097A105E8
:1024D000B10541F42093FB023093FC024093FD02CE
:1024E0005093FE020E943B3720910F03309110035E
:1024F0004091110350911203621B730B840B950BD7
:102500002091E5023091E6024091E7025091E80205
:10251000621773078407950760F00E943B3760934A
:102520000F037093100380931103909312030E9482
:10253000B611209106013091070180911B03909103
:102540001C032817390711F00E94B6118091A702C9
:102550009091A802AA2797FDA095BA2F8093170300
:1025600090931803A0931903B0931A038091060166
:102570009091070190931C0380931B030895EF92A1
:10258000FF920F931F93E0906905F0906A05009108
:102590006B0510916C058091BD0220910E03823075
:1025A00089F58091030390910403A0910503B091F4
:1025B0000603222339F08E159F05A007B10708F402
:1025C00088C006C0E816F9060A071B0708F481C090
:1025D00081E0809353054091FF0250910003609188
:1025E00001037091020387E092E00E945133109240
:1025F00053058091FF0290910003A0910103B091D7
:1026000002035CC02223D1F18091ED029091EE0291
:10261000A091EF02B091F0028E159F05A007B107BF
:10262000C8F08091F902882399F08091F10290918D
:10263000F202A091F302B091F4028093FB02909316
:10264000FC02A093FD02B093FE020E94B61102C0EC
:102650000E9462058091130390911403A0911503C9
:10266000B091160388559240A040B040E816F90694
:102670000A071B0770F10E94B6112BC08091F1026E
:102680009091F202A091F302B091F402E816F906DB
:102690000A071B07F0F08091F9028823C1F081E05E
:1026A00080935305809150020E941A0F8091C902B5
:1026B0009091CA02A091CB02B091CC028093FB0210
:1026C0009093FC02A093FD02B093FE0202C00E9410
:1026D00062051F910F91FF90EF900895809107037D
:1026E000813009F471C0813038F0823009F475C04E
:1026F000833009F0E3C0E0C080911E0390911F0376
:10270000892BB1F480910E03882339F081E090E0A9
:1027100090931F0380931E03089581E08093070325
:1027200010920D0310920C0387E092E060E0C1C0AC
:102730000E943B37209108033091090340910A031E
:1027400050910B03621B730B840B950B20911E039E
:1027500030911F03442737FD4095542F62177307AC
:102760008407950708F4AAC00E943B3760930803CA
:102770007093090380930A0390930B0380911E03C7
:1027800090911F0320910C0330910D034E971CF480
:102790002350304002C02150304030930D0320932D
:1027A0000C0380911D0390E020910C0330910D03E8
:1027B000821793070CF479C010920D0310920C034A
:1027C00081E08093070371C060911D0360930C0347
:1027D00010920D0387E092E06CC080915405813027
:1027E00009F058C08091C5029091C602892B81F4EE
:1027F00083E08093070384E290E090930D0380933D
:102800000C0387E092E064E20E9436330E94620586
:102810000E943B37209108033091090340910A033D
:1028200050910B03621B730B840B950B2091C50217
:102830003091C602442737FD4095542F6217730725
:1028400084079507D8F10E943B3760930803709383
:10285000090380930A0390930B038091C502909122
:10286000C6028F37910579F020910C0330910D034A
:102870004E971CF42D5F3F4F02C02F5F3F4F3093A8
:102880000D0320930C0380910C0390910D0384970A
:1028900064F006C084E290E090930D0380930C03F3
:1028A00083E0809307030E94620587E092E06091D5
:1028B0000C030E94363308950E94620508950E9419
:1028C0003B37609308037093090380930A03909346
:1028D0000B0380910703823031F087E092E0609132
:1028E0000C030E94363382E0809307030895EF9231
:1028F000FF921F93182F7B010E943B3760930803C0
:102900007093090380930A0390930B0385E290E090
:1029100090930D0380930C031092070387E092E0DD
:1029200065E20E943633169516958FE1811B8093E0
:102930001D03F0921F03E0921E031F91FF90EF9082
:102940000895CF93DF93AC01C62FD0E08091C802E9
:1029500090E0062E02C0959587950A94E2F780FFD5
:1029600012C0CC0FDD1FCC0FDD1FC353DD4F4881DC
:1029700059818CEE91E06DEC71E021E00E94192606
:102980008823B9F544C08CEE91E06DEC71E021E054
:102990000E9456298823D9F1FE01EE0FFF1FEE0F8A
:1029A000FF1FE353FD4F8091D8019091D901A09171
:1029B000DA01B091DB0125E0B695A795979587954B
:1029C0002A95D1F70197A109B10980839183A28348
:1029D000B38381E090E0A0E0B0E004C0880F991FCD
:1029E000AA1FBB1FCA95D2F72091C802282B20939B
:1029F000C80287E092E06CEE71E00E942F348823D9
:102A000011F081E005C08CEE91E00E94A82480E0E6
:102A1000DF91CF9108951F93182F0E94620580E3E4
:102A200091E0612F0E94A11485E0809325030E940C
:102A30005B051F91089580935002823098F4809333
:102A400051020E943C04809151020E940B1580911A
:102A500051020E941A0F6091C3027091C4028FE765
:102A60000E94771408958091E9029091EA02A09162
:102A7000EB02B091EC02B7FF04C081E080930E033B
:102A800002C010920E038091A9028823E9F082E02F
:102A900090E00E948403892BB9F48091E90290911F
:102AA000EA02A091EB02B091EC02B095A09590954E
:102AB00081959F4FAF4FBF4F8093E9029093EA02F9
:102AC000A093EB02B093EC028091AA02882341F418
:102AD00080910703823021F08091BE028823A9F102
:102AE00080915305882339F40E946E130E94BF120F
:102AF0000E944F122AC08091BE02882331F00E94AA
:102B00006E130E94BF120E944F12809151020E94C8
:102B1000A2038091F9028823B1F080910E038823EB
:102B200069F087E092E00E94143487E092E06CEE56
:102B300071E00E942F340E94B61107C080915002AC
:102B40000E941A0F02C00E9462058091AA02882387
:102B500029F1809151020E94A20380915405813095
:102B600021F4809153058823C9F08091F9028823CC
:102B7000A9F080910E03882369F087E092E00E941B
:102B8000143487E092E06CEE71E00E942F340E94D2
:102B9000B61108958091AC020E941B1508951F93F1
:102BA000182F823020F488E092E00E94C92E812FF5
:102BB0000E94E0028823C9F08091AA02882351F084
:102BC0009091AC0280915002981761F0892F0E9479
:102BD0001B1506C08091BE02882321F40E945F1459
:102BE0001092BD028091AC0200C01F9108951F9306
:102BF000182F823020F488E092E00E94C92E809144
:102C0000AA028F3021F48091BB020E94E002812F42
:102C10000E94E0029091AA029031B8F4992359F0F1
:102C2000E92FF0E0E555FD4F80818183319782E007
:102C3000EB3AF807C9F71093AC029F5F9093AA0292
:102C400081E08093AB021092BC028091AB0288239A
:102C500021F08091AC020E941B151F9108951F93D3
:102C6000CF93DF93C0E0D0E0FE01EB5AFE4F10811E
:102C700088E092E0612F0E948730882371F0C09332
:102C8000500288E092E00E94C92E80915002809309
:102C90005102809338030E94F71588E092E0612F7B
:102CA0000E949130882349F08C2F0E94CF15809389
:102CB000500288E092E00E94C92E2196C230D105D0
:102CC00099F6DF91CF911F910895EF92FF920F93A4
:102CD0001F93CF93DF93162F0E946B051A3010F4C9
:102CE000105D01C0195C1093280180E380932701D7
:102CF0008CEE91E06DEC71E046E251E022E40E943E
:102D00005629882359F1EE24FF2411C088EE91E062
:102D100069910E941E2A0F5F1F4F0C301105B1F7F9
:102D20000894E11CF11C86E0E816F10471F0E7015B
:102D3000CC0FDD1FCE0DDF1DCC0FDD1FCC0FDD1F37
:102D4000C15ADD4F00E010E0E1CF8CEE91E00E942F
:102D5000A82488E092E00E94C92E81E0DF91CF9103
:102D60001F910F91FF90EF9008950F931F93809103
:102D70004F0260914E020E94651600E817E0C801FC
:102D800069EE73E040914F020E94E736C8016AEE97
:102D900073E040914E020E94E736C80168EE73E08E
:102DA00041E00E94E7360C9400001F910F910895B6
:102DB00088E092E063E00E947D30882309F43CC003
:102DC00088E092E061E00E947D308823A9F1809143
:102DD0003003882309F50E943B3720912C03309162
:102DE0002D0340912E0350912F03621B730B840B14
:102DF000950B615D774080409040F0F081E08093DA
:102E000030030E943B3760932C0370932D03809313
:102E10002E0390932F03089588E092E063E00E94D0
:102E20007D30882349F088E092E061E00E947D30A7
:102E3000882311F00E94B51608950F931F93909167
:102E40003101892F815080933101803344F48AE528
:102E50008093310180910501809330012FC09C53F4
:102E6000963060F58AE38093310128C088E092E0D3
:102E70000E949B300E946C0480913A019091310134
:102E8000981B909331018F5F80933A0190333CF40B
:102E900010933101809105018093300105C09B534F
:102EA000963028F40093310181E080933A0188E064
:102EB00092E00E94CC2F0E94D81602C00AE31AE5C5
:102EC0008CEE91E06DEC71E040E351E021E00E9476
:102ED0005629882359F28CEE91E00E94A824609133
:102EE000510281E090E0A0E0B0E0062E04C0880F1F
:102EF000991FAA1FBB1F0A94D2F780952091C80280
:102F000028232093C80280E391E00E94A114882323
:102F100011F40E941D170E94620581E080933A011E
:102F20001F910F9108950F931F9380913101982F56
:102F30009F5F909331018953873020F481E480931F
:102F4000310133C09B358CF180E380933101809156
:102F500005018093300129C088E092E00E949B30F7
:102F60000E946C0480913A0190913101980F9093E6
:102F700031018F5F80933A01892F8A53873018F48B
:102F80001093310108C09B354CF0009331018091C2
:102F900005018093300181E080933A0188E092E05E
:102FA0000E94CC2F0E94D81602C000E311E48CEEE0
:102FB00091E06DEC71E040E351E021E00E94562980
:102FC000882351F28CEE91E00E94A8246091510276
:102FD00081E090E0A0E0B0E0062E04C0880F991FC9
:102FE000AA1FBB1F0A94D2F780952091C8022823FC
:102FF0002093C80280E391E00E94A114882311F479
:103000000E9493170E94620581E080933A011F910C
:103010000F91089580912603882309F0EDC088E080
:1030200092E061E00E948730882309F44EC088E076
:1030300092E063E00E947D30882309F046C00E9440
:1030400062050E94931740913001552747FD509526
:103050008091510269E00E942A0240913101552776
:1030600047FD5095809151026AE00E942A0290919A
:103070005102909350028091AA02882321F0892F57
:103080000E941B150FC00E945B0581E08093200306
:103090000E943B37609321037093220380932303A4
:1030A0009093240388E092E063E00E947D308823BF
:1030B00051F00E943B3760932C0370932D03809353
:1030C0002E0390932F031092300388E092E063E088
:1030D0000E948730882309F44EC088E092E061E0C6
:1030E0000E947D30882309F046C00E9462050E943C
:1030F0001D1740913001552747FD50958091510291
:1031000069E00E942A0240913101552747FD509500
:10311000809151026AE00E942A029091510290939C
:1031200050028091AA02882321F0892F0E941B154A
:103130000FC00E945B0581E0809320030E943B3713
:1031400060932103709322038093230390932403BD
:1031500088E092E061E00E947D30882351F00E9477
:103160003B3760932C0370932D0380932E03909331
:103170002F03109230030E94D81688E092E061E09D
:103180000E949130882339F488E092E063E00E9445
:103190009130882389F180913003882369F130913F
:1031A00051023093500281E090E0A0E0B0E0032EA5
:1031B00004C0880F991FAA1FBB1F0A94D2F78095DD
:1031C0002091C80228232093C8028091AA02882354
:1031D00021F0832F0E941B1508950E945B0581E05A
:1031E000809320030E943B37609321037093220356
:1031F000809323039093240308950E943B372091EA
:103200005B0230915C0240915D0250915E02621B54
:10321000730B840B950B655F714080409040F0F01C
:103220000E943B3760935B0270935C0280935D0267
:1032300090935E0280915A02833020F48F5F8093D6
:103240005A0202C010925A02E0915A02F0E0EF5D79
:10325000FE4F88E092E060810E949D2F88E092E01E
:103260000E94CC2F88E092E00E949B3088E092E0A0
:1032700060E00E947D30882311F00E94B516089509
:1032800086EA91E060E04AE00E94D11F882311F4B1
:103290000E94FD188BEA91E066EA71E041E00E942D
:1032A000F32A882359F48BEA91E066EA71E040E062
:1032B0000E94F32A882311F40E94FD188DEC91E0FE
:1032C0006BEA71E00E945F21882311F40E94FD18CF
:1032D0000895EF92FF920F931F93CF93DF93162FD2
:1032E000643238F46A3030F4105D109328011053C2
:1032F00005C013E2195C10932801175380E38093F3
:10330000270110934E0210924F020E946B05ECEAC7
:10331000F2E08FEF819392E0EC3BF907D9F710923E
:10332000AA028CEE91E06DEC71E046E251E021E002
:103330000E945629882379F40E94D60280E0612FEA
:103340000E9465168CEE91E06DEC71E046E251E072
:1033500021E00E945629EE24FF2411C08CEE91E05A
:103360000E94C52589930F5F1F4F0C301105B1F7DF
:103370000894E11CF11C86E0E816F10471F0E70105
:10338000CC0FDD1FCE0DDF1DCC0FDD1FCC0FDD1FE1
:10339000C15ADD4F00E010E0E1CF8CEE91E00E94D9
:1033A000A82488E092E00E94C92EDF91CF911F915E
:1033B0000F91FF90EF90089580E060914E020E947F
:1033C000691908950F931F93CF93DF9388E092E0DC
:1033D00060E00E947D3088E092E060E00E947D30F5
:1033E000882339F188E092E061E00E9487308823E9
:1033F00001F181E08093260360914E02633218F060
:1034000080E060E002C06F5F80E00E9469198091F7
:1034100028010E9471051092C80280E897E06AEEC8
:1034200073E040914E020E94E73688E092E00E94ED
:10343000C92E88E092E060E00E947D30882339F157
:1034400088E092E063E00E948730882301F181E008
:103450008093260360914E026150633218F080E041
:1034600064E201C080E00E946919809128010E94F5
:1034700071051092C80280E897E06AEE73E040910F
:103480004E020E94E73688E092E00E94C92E88E052
:1034900092E062E00E947D3080932703882309F444
:1034A00098C088E092E063E00E9487308823B9F0FA
:1034B00081E08093260380E060914E020E946516B1
:1034C000882311F083E701C085E60E94710580E83A
:1034D00097E06AEE73E040914E020E94E73688E082
:1034E00092E060E00E948730882341F488E092E017
:1034F00061E00E948730882309F46BC081E08093EB
:1035000026038091510268E00E94A2018093C202CA
:1035100088E092E060E00E948730882319F0C2E0E2
:10352000D0E002C0C0E0D0E088E092E061E00E941C
:103530008730882339F08091C20280628093C20272
:10354000C3E0D0E02091C202822F90E00C2E02C096
:10355000959587950A94E2F780FD10C081E090E090
:10356000A0E0B0E00C2E04C0880F991FAA1FBB1F5B
:103570000A94D2F7282B2093C20210C081E090E079
:10358000A0E0B0E00C2E04C0880F991FAA1FBB1F3B
:103590000A94D2F7809582238093C2028091C2025E
:1035A000482F50E0CA010C2E02C0959587950A94C9
:1035B000E2F780FF05C0239719F48FEF809308018D
:1035C0008091510268E00E942A02809151020E947B
:1035D000A20380912603882379F000E010E088E0C0
:1035E00092E0612F0E947D30080F1F5F1430B9F701
:1035F000002311F410922603DF91CF911F910F91B8
:1036000008959091510280913203981721F088E03B
:1036100092E00E94C92E80915102809332030E9451
:10362000E21980912E01882311F00E943A058091C1
:1036300026038823A1F488E092E060E00E949130A4
:10364000882369F088E092E00E94C92E80913103BE
:103650008F5F80933103843010F01092310380919A
:103660003103843010F0109231030E942F166091C4
:103670003103633021F488E092E067E003C06F5FBC
:1036800088E092E00E941D2FE0913103F0E0E95ABA
:10369000FE4F80818093FA020E940A188091FA02FC
:1036A0000E94EA0B0E943A070E94870508950F9333
:1036B0001F9308E012E0C8010E94C330C8010E94B5
:1036C0009B30C8010E94CC2F0E94011B0E94331521
:1036D0008AE292E00E948D1C1F910F9108951F9322
:1036E000CF93DF9388E092E00E9427310E94401937
:1036F00080E897E06AEE73E00E94E03680934E0225
:10370000C5E6D0E080E897E0BE010E94E036182FC1
:10371000BE016150704080E897E00E94E036682F5B
:10372000812F0E94673BFE01EC55FF4F9183808300
:103730002296CB37D10531F78091190190911A016A
:103740009093A1018093A0014E979093A301809341
:10375000A201CC969093A5018093A4010E94DC194C
:1037600087E880937A0088E092E00E94C33088E086
:1037700092E00E94C33088E092E00E94C33088E06B
:1037800092E00E94C92E8AE292E060E076E90E940F
:10379000381D8AE292E061EA71E00E947D1C8AE2B3
:1037A00092E065EE7BE10E94891C8AE292E062E28F
:1037B00079E00E94851C8AE292E064E971E00E944F
:1037C000811CDF91CF911F910895AF92BF92CF924C
:1037D000DF92EF92FF920F931F93CF93DF93062F09
:1037E00080914C02882309F07DC06A3008F00AE01D
:1037F00088E092E063E00E941D2FE02EE694AA2468
:10380000BB246501C0E0D0E088E092E06E2D70E05E
:103810000E94B82F88E092E00E94C33088E092E0D6
:103820000E94CC2F88E092E00E949B3088E092E0DA
:103830000E94E92EAA2797FDA095BA2FA80EB91EBF
:10384000CA1EDB1E6AE070E080E090E00E9449370B
:103850002196CA30D105C1F610E07801EE0CFF1CAC
:1038600089E091E0E80EF91EC601B5012AE030E0DA
:1038700040E050E00E94B43BF7013183208388E0B0
:1038800092E062E00E941D2F0E5C1F4F000F111F7F
:1038900080E897E0B801F70140810E94E7360F5FAA
:1038A0001F4FF701418180E897E0B8010E94E73699
:1038B00088E092E00E949B3064E670E080E090E057
:1038C0000E9449378AE292E00E94331DF70140814D
:1038D000518156954795569547958AE292E061E069
:1038E0000E942D1DDF91CF911F910F91FF90EF90BE
:1038F000DF90CF90BF90AF900895FC0173836283F7
:103900000895FC01738B628B0895FC01778B668BA5
:103910000895FC01778F668F08950F931F93CF93BF
:10392000DF93EC018EC08AE393E00E943D1D182FC7
:103930008AE393E00E94401D082F143009F11530EE
:1039400038F41230B9F01330C0F4113069F509C001
:103950001630E1F01630B8F01730D9F0183021F5F4
:103960001BC0813021F08AE393E00E94431DEA816D
:10397000FB8114C0EC81FD8111C0EE81FF810EC07E
:10398000E885F9850BC0EA85FB8508C0EC85FD85D7
:1039900005C0EE85FF8502C0E889F989309709F4F2
:1039A00050C0802F09954DC0812F8A508A3018F45D
:1039B000EA89FB8929C0812F84518A3018F4EC8967
:1039C000FD8922C0812F8E518A3018F4EE89FF893B
:1039D0001BC0812F88528A3018F4E88DF98D14C0ED
:1039E000812F82538A3018F4EA8DFB8D0DC0812F10
:1039F0008C538A3018F4EC8DFD8D06C0812F8654CF
:103A00008A3038F4EE8DFF8D3097D9F0602F09950C
:103A100018C01436B0F0E8A1F9A1309791F0212F29
:103A200030E024563040C9016AE070E00E94A13BBA
:103A3000482FC9016AE070E00E94A13B842F402F0B
:103A400009958AE393E00E94481D882309F06BCF13
:103A5000DF91CF911F910F9108956A5B8AE393E004
:103A60000E94821D08958AE393E00E94931D0895A9
:103A70008AE393E00E94981D0895FC0180810895D7
:103A8000FC0181810895FC01128210821182089547
:103A9000CF93DF93EC0182E198E00E94E539892B16
:103AA00069F18A81882379F482E198E00E94163ACC
:103AB000888391E09A83893031F48981893019F4BF
:103AC0001A82188219828A818130A9F482E198E0F1
:103AD0000E94E539892B91F082E198E00E94163A24
:103AE000982F89831A828881893031F4993021F4A2
:103AF0001882198201C003C081E001C080E0DF911B
:103B0000CF910895FF920F931F93F42E02E118E0D6
:103B1000C8010E944F3AC8016F2D0E944F3A1F9171
:103B20000F91FF90089569E049E00E94821D089579
:103B3000AB0160E070E082E198E00E945E39089598
:103B40008091C10085FDFCCF8091C00085FFF8CF3A
:103B50006093C60081E090E00895109240031092B7
:103B60003F0389E791E090933E0380933D030895DE
:103B7000FF920F931F93CF93DF938B010E943B37EC
:103B8000EB01FF24FA9409C00E943B376C1B7D0BAC
:103B90006017710710F080E008C0FEBC0DB407FE8E
:103BA000FDCF8EB58F3F81F781E0DF91CF911F91DF
:103BB0000F91FF900895FC0122812D3010F046E016
:103BC00002C0422F4695242F30E0C9019595879574
:103BD00080658CBD40FF02C080E004C080E04630BC
:103BE00009F081E08DBD808160E00E943E3808953B
:103BF000FF920F931F93DF93CF9300D000D0CDB7E8
:103C0000DEB78C01F62E29833A834B835C830E94B6
:103C1000DB1DC8016CE271E00E94B81D8F2D80642D
:103C20008EBD0DB407FEFDCFFE0131969E012350DF
:103C3000304083818EBD0DB407FEFDCF3197E21772
:103C4000F307B9F7FF2011F087E801C085E98EBDC1
:103C50000DB407FEFDCF8CE0F81631F48FEF8EBD6A
:103C60000DB407FEFDCF8EB590E02FEF2EBD0DB445
:103C700007FEFDCF8EB587FF02C09150B9F7F8015E
:103C800083830F900F900F900F90CF91DF911F9132
:103C90000F91FF900895FC01808161E00E943E3801
:103CA0008FEF8EBD0DB407FEFDCF0895CF93DF9348
:103CB000EC010E94DB1DCE0168E572E00E94B81D98
:103CC000882389F08DEF8EBD0DB407FEFDCFCE01A8
:103CD00068E572E00E94B81D882329F0CE010E9499
:103CE0004B1E81E006C082E18983CE010E944B1EFB
:103CF00080E0DF91CF910895CF93DF93EC01DA015B
:103D00006EBD0DB407FEFDCF8C918EBD1196EC916A
:103D1000119782E090E00DB407FEFDCFEEBD22E0EA
:103D20008030920731F0FD01E80FF91FE081019624
:103D3000F2CF0DB407FEFDCF8FEF8EBD0DB407FEA1
:103D4000FDCF8FEF8EBD0DB407FEFDCF8FEF8EBD83
:103D50000DB407FEFDCF8EB58B838F71853011F4C6
:103D600081E006C083E18983CE010E944B1E80E082
:103D7000DF91CF9108950F931F93CF93DF93EC01C1
:103D80008B010E94DB1DCE0168E572E00E94B81D28
:103D9000882361F0CE016CEFA8010E947C1E88236D
:103DA00029F0CE010E944B1E81E006C085E1898387
:103DB000CE010E944B1E80E0DF91CF911F910F91A9
:103DC0000895CF92DF92EF92FF920F931F93CF93BC
:103DD000DF93EC017A018B0169018C81833039F02A
:103DE00059E0EE0CFF1C001F111F5A95D1F7CE01B0
:103DF00068E1A80197010E94F81D882311F086E070
:103E000023C0CE016EEFA6010E947C1E8823E9F03C
:103E1000CE0168E572E00E94B81D882311F487E1A5
:103E200013C0CE016DE020E030E040E050E00E94A1
:103E3000F81D882341F48FEF8EBD0DB407FEFDCF32
:103E40008EB5882379F086E18983CE010E944B1ECE
:103E500080E0DF91CF911F910F91FF90EF90DF9065
:103E6000CF900895CE010E944B1E81E0F2CFBF9209
:103E7000CF92DF92EF92FF920F931F93CF93DF9336
:103E8000EC016B017A010E943B378B01BB24BA9491
:103E900009C00E943B37601B710B6D52714010F0DE
:103EA00081E10BC0BEBC0DB407FEFDCF8EB58B8388
:103EB0008F3F79F38E3F39F08FE08983CE010E94E6
:103EC0004B1E80E030C0D7011197EF28D9F08FEF5B
:103ED0008EBD20E030E09FEF0BC00DB407FEFDCF9C
:103EE0008EB59EBDF601E20FF31F80832F5F3F4F1B
:103EF0002A173B0790F30DB407FEFDCF8EB5AC0D2E
:103F0000BD1D8C931B828FEF8EBD0DB407FEFDCFC0
:103F10008EB58FEF8EBD0DB407FEFDCF8EB5CE01F1
:103F20000E944B1E81E0DF91CF911F910F91FF9076
:103F3000EF90DF90CF90BF900895CF92DF92EF92F5
:103F4000FF920F931F93CF93DF93EC017A018B01C4
:103F500069018C81833039F0B9E0EE0CFF1C001F41
:103F6000111FBA95D1F7CE0161E1A80197010E9416
:103F7000F81D882339F084E08983CE010E944B1E0E
:103F800080E006C0CE01B60140E052E00E94371F3B
:103F9000DF91CF911F910F91FF90EF90DF90CF9025
:103FA0000895BF92CF92DF92EF92FF920F931F93EB
:103FB000CF93DF93EC01B62E1C82198248830E94B6
:103FC0003B376B01888161E00E94FF37888161E0A7
:103FD0000E943E388AE061E00E943E388AE061E05B
:103FE0000E94FF378CE060E00E94FF378BE061E0C9
:103FF0000E94FF378DE061E00E94FF378BE08A83EB
:1040000082E58CBD1DBC80E09FEF9EBD0DB407FE18
:10401000FDCF8F5F8A30C9F709C00E943B376C190A
:104020007D09615D774010F081E063C0CE0160E002
:1040300020E030E040E050E00E94F81D813069F758
:104040001FEFCE0168E02AEA31E040E050E00E9434
:10405000F81D853011F481E00DC080E01EBD0DB467
:1040600007FEFDCF9EB58F5F8430C1F79B839A3AE0
:1040700031F482E08C838C81823051F40DC00E9437
:104080003B376C197D09615D7740D8F282E031C021
:10409000EE24FF2487010FC0E12CF12C012D80E4D8
:1040A000182F09C00E943B376C197D09615D77406C
:1040B00010F08AE01EC0CE0167E320E030E040E06F
:1040C00050E00E94F81DCE0169E2A80197010E940C
:1040D000F81D882339F78C81823029F5CE016AE3F7
:1040E00020E030E040E050E00E94F81D882331F0ED
:1040F00088E08983CE010E944B1E21C08FEF8EBDC8
:104100000DB407FEFDCF8EB5807C803C11F483E0BA
:104110008C8380E09FEF9EBD0DB407FEFDCF2EB5D2
:104120008F5F8330C1F7CE010E944B1E8EE08B154E
:1041300018F488E1898303C0BA8281E001C080E07D
:10414000DF91CF911F910F91FF90EF90DF90CF9073
:10415000BF9008950F931F93CF93DF93DC01EB0182
:104160008A0180E090E020E2FE01E80FF91F208341
:1041700001968B309105C1F757E040E024C0622FD3
:104180002E3219F089E891E007C05A3051F15AE017
:1041900048E018C0321729F1FC010196349133230D
:1041A000C9F75417F0F02132E0F02F37D0F4822F06
:1041B00081568A3110F4622F6052FE01E40FF11D26
:1041C00060834F5F11962C91222311F02F32B9F6A4
:1041D000F801B183A08390E08881803219F091E0EA
:1041E00001C090E0892FDF91CF911F910F91089529
:1041F000CF92DF92EF92FF920F931F93DF93CF93B3
:1042000000D000D0CDB7DEB77C01FC018789908D4E
:10421000A18DB28D89839A83AB83BC8300E010E0CB
:104220006E010894C11CD11C49815A816B817C812B
:10423000D70115968D919C91169796010E94D82CC6
:10424000882379F1D7011596ED91FC911697848119
:10425000080F111DB0E100301B0718F529813A81C4
:104260004B815C818789803131F4285F3F4F40402A
:104270005040D0F205C0285F3F4F4F4F5F40A0F243
:10428000C801A0E0B0E029E0880F991FAA1FBB1F5A
:104290002A95D1F7F701838B948BA58BB68B81E0A0
:1042A00001C080E00F900F900F900F90CF91DF91A1
:1042B0001F910F91FF90EF90DF90CF900895CF93D3
:1042C000DF93EC01FB018B818823D1F57E836D8325
:1042D00087898031C9F582E08B831F8A188E198EF9
:1042E0001A8E808D918DA0E0B0E035E0880F991F87
:1042F000AA1FBB1F3A95D1F78B8B9C8BAD8BBE8BC6
:104300000FC083E08B83828D938DA48DB58D8F8BB1
:10431000988FA98FBA8FCE010E94F820882381F050
:1043200081E089831F82188619861A861B861C865F
:104330001D861E861F86188A198A1A8A1C8201C049
:1043400080E0DF91CF9108958032D1F7DACF6F927C
:104350007F928F929F92AF92BF92CF92DF92EF9215
:10436000FF920F931F93CF93DF93EC017A018B01A0
:104370002B81222309F480C08B899C89AD89BE8959
:1043800084179507A607B70708F476C085C0E1141F
:10439000F1040105110551F41F82188619861A8649
:1043A0001B861C861D861E8681E067C02B853C858A
:1043B0004D855E85ED81FE81858590E009962150D1
:1043C00030404040504039014A01082E04C09694C4
:1043D0008794779467940A94D2F72F5F3F4F4F4F9B
:1043E0005F4F0894E108F1080109110957016801BC
:1043F00004C0D694C794B794A7948A95D2F708942A
:10440000E11CF11C011D111DA614B704C804D90438
:1044100028F0211531054105510549F48F89988D02
:10442000A98DBA8D8F839887A987BA8716C0A618D9
:10443000B708C808D90811C04F81588569857A85A1
:104440008D819E8194010E94D82C0894A108B10806
:10445000C108D108882331F40FC047E0842E912C85
:104460008C0E9D1EA114B104C104D10429F7EB8662
:10447000FC860D871E8798CF80E0DF91CF911F913A
:104480000F91FF90EF90DF90CF90BF90AF909F90F3
:104490008F907F906F900895223009F078CFE7CF0A
:1044A0006F927F928F929F92AF92BF92CF92DF9244
:1044B000EF92FF920F931F93DF93CF9300D000D022
:1044C000CDB7DEB76C014B013A01DC015796ED9098
:1044D000FD900D911C915A97E114F104010511050D
:1044E00009F463C05E010894A11CB11CF60185812A
:1044F0009681B801A70195010E94D82C882309F460
:1045000054C029813A814B815C81D801C701019651
:10451000A11DB11D281739074A075B0719F4790156
:104520008A01E4CFD6011596ED91FC911697878903
:10453000803131F4285F3F4F40405040B0F105C01A
:10454000285F3F4F4F4F5F4080F1D60157964D9106
:104550005D916D917C915A97CF010E94462AF4019A
:104560006083718382839383D60115968D919C918C
:104570001697B801A7010E94462AD6011596ED911B
:10458000FC911697248130E040E050E0215030400B
:1045900040405040260F371F481F591FF30120830A
:1045A00031834283538381E001C080E00F900F90FC
:1045B0000F900F90CF91DF911F910F91FF90EF908F
:1045C000DF90CF90BF90AF909F908F907F906F9033
:1045D0000895CF93DF93EC01462F6F857889898901
:1045E0009A890E94AF2AAC01009719F420E030E0CC
:1045F0000AC08C81282F30E065E0220F331F6A95B6
:10460000E1F7240F351FC901DF91CF9108950F9372
:104610001F93CF93DF938C01FC0183818823F1F1F9
:10462000818187FF38C0C80161E00E94E922EC0166
:104630000097A1F18881853E89F1F801838182305C
:1046400040F483899489A589B6898C8F9D8FAE8F1C
:10465000BF8FF8018789908D9B8F8A8F8789908D76
:10466000A18DB28DCD01AA27BB279D8B8C8BE091AC
:104670004103F0914203309751F0BE016A5E7F4FD3
:10468000CE0148960995888D998D9B8B8A8BF80170
:1046900081818F7781830E94662A04C081E0F801BE
:1046A000808380E0DF91CF911F910F9108956F92E9
:1046B0007F928F929F92AF92BF92CF92DF92EF92B2
:1046C000FF920F931F93DF93CF9300D000D0CDB70D
:1046D000DEB77C015A016B01DC0113968C911397B4
:1046E000813009F091C011968C9181FF8DC0A0C0DE
:1046F0000097A105B10511F481E087C0F70163843B
:10470000748485849684C701B601A5010E94A721FF
:10471000882309F479C0D70115968D919C9116973D
:10472000A114B104C104D10489F457964D915D914F
:104730006D917C915A970E94472D882309F464C09B
:10474000F701178A108E118E128E44C0D70117966A
:104750004D915D916D917C911A979E012F5F3F4F16
:104760000E94D82C882309F44FC0D7011596ED91EB
:10477000FC91169749815A816B817C8187898031B0
:1047800049F4483FBFEF5B07B0E06B07B0E07B0741
:1047900048F020C0483F8FEF58078FEF68078FE041
:1047A0007807C0F4CF010E94472D882369F1D70113
:1047B00017964D915D916D917C911A9715968D91FB
:1047C0009C9116970FEF1FEF2FEF3FE00E94682C90
:1047D0008823D1F0F701A38AB48AC58AD68A818159
:1047E00080688183C7010E940723882369F0B6018E
:1047F000A5016A147B048C049D0410F4B401A30188
:10480000C7010E94A72101C080E00F900F900F9078
:104810000F90CF91DF911F910F91FF90EF90DF905C
:10482000CF90BF90AF909F908F907F906F900895A2
:10483000F70183899489A589B68984179507A60706
:10484000B70708F055CFE0CF1F93CF93DF93EC016C
:10485000142F262F30E0F90185E0EE0FFF1F8A9517
:10486000E1F7ED5BFC4F8385817121F0842F82712C
:1048700009F064C08091430590914405A0914505DD
:10488000B09146058F87988BA98BBA8B6C83F90101
:10489000B5E0EE0FFF1FBA95E1F7ED5BFC4F248901
:1048A000358940E050E0A901332722272F8B388F2C
:1048B000498F5A8F828D938DA0E0B0E0282B392B41
:1048C0004A2B5B2B2F8B388F498F5A8F838590E033
:1048D00088719070009751F4848D958DA68DB78D59
:1048E0008B8B9C8BAD8BBE8B81E008C0409731F5E4
:1048F000CE010E94F820882309F184E08B83812F68
:104900008F7089831F82188619861A861B861C86DB
:104910001D861E8614FF18C0CE0140E050E060E006
:1049200070E00E945723882379F408C04B895C8982
:104930006D897E89CE010E94A72102C01B8280E082
:10494000DF91CF911F91089515FDF0CF81E0F8CF51
:104950000F931F938C010E940723F80113821F916C
:104960000F9108952F923F924F925F926F927F9294
:104970008F929F92AF92BF92CF92DF92EF92FF926F
:104980000F931F93DF93CF9300D0CDB7DEB74C01C9
:104990001A01DC0113968C911397882309F4B4C093
:1049A00011968C9180FFB0C0C7C015012E183F082A
:1049B0002B01F4013796FA83E98331019FC0D401BA
:1049C0001B962D913D914D915C911E979FEFA92EC5
:1049D00091E0B92EA222B3221596ED91FC91169783
:1049E00079018A0189E016950795F794E7948A95ED
:1049F000D1F7948113968C91823049F4428D538D76
:104A0000648D758D4E0D5F1D601F711F35C0D92ED1
:104A1000DA94DE20A114B10401F5DD20F1F42115B2
:104A200031054105510551F4F4018789908DA18D1F
:104A3000B28D87839087A187B2870FC0D401179664
:104A40004D915D916D917C911A97CF0129813A81A9
:104A50000E94D82C882309F457C0F401478150855F
:104A600061857285858196810E94462AAB01BC01D1
:104A70004D0D511D611D711DA114B10499F4F0E09B
:104A80006F16F2E07F0670F0809143059091440527
:104A9000A0914505B0914605481759076A077B075D
:104AA00009F067C0CB01BA0140E00E94AF2A00972D
:104AB00059F140E052E04A195B0983014615570558
:104AC00008F48A019C012A0D3B1DC201B901A8010D
:104AD0000E948B01400E511E980140E050E0F4010D
:104AE00083859485A585B685820F931FA41FB51F66
:104AF00083879487A587B687601A710A6114710449
:104B000009F05DCFA10102C04FEF5FEFCA010F9026
:104B10000F90CF91DF911F910F91FF90EF90DF9059
:104B2000CF90BF90AF909F908F907F906F905F904D
:104B30004F903F902F900895D4015396AD90BD9023
:104B4000CD90DC9056971B96ED90FD900D911C91A9
:104B50001E979A0140E050E0D601C5018E199F09C9
:104B6000A00BB10B281739074A075B0708F01DCFC8
:104B70001FCF80914C0590914D0592010E949D1F81
:104B8000882311F200E012E0A5CFDF93CF930F92BC
:104B9000CDB7DEB7BE016F5F7F4F41E050E00E94AE
:104BA000B224019719F02FEF3FEF03C08981282F1E
:104BB00030E0C9010F90CF91DF910895EF92FF92FD
:104BC0000F931F93CF93DF93EC018B81823038F1E9
:104BD000EB84FC840D851E85CE010E94C52597FDC2
:104BE0001EC08B859C85AD85BE854F96A11DB11DD0
:104BF0008B879C87AD87BE8755E016950795F79400
:104C0000E7945A95D1F72E2D30E02F70307045E0A3
:104C1000220F331F4A95E1F72D5B3C4F02C020E085
:104C200030E0C901DF91CF911F910F91FF90EF907C
:104C30000895DF92EF92FF920F931F93CF93DF932C
:104C40008C01EB017A01D22E8D819E81F801968331
:104C500085838381882329F56115710559F521C064
:104C6000A70175E0440F551F7A95E1F760E070E009
:104C7000CE010E94A7218823A1F0CE010E94DE254B
:104C8000FC01009771F08081882359F0853E49F03E
:104C90008E3239F06E2D6F70C8014D2D0E94242484
:104CA00001C080E0DF91CF911F910F91FF90EF90B5
:104CB000DF90089527FFD4CFF4CFCF93DF93EC019B
:104CC0009C01295F3F4F8D819E8141E050E060E073
:104CD00070E00E94A52D8823A1F08F89988DA98D61
:104CE000BA8D0097A105B10559F48F819885A985E2
:104CF000BA858F8B988FA98FBA8F898180688983B5
:104D000081E0DF91CF9108952F923F924F925F9271
:104D10006F927F929F92AF92BF92CF92DF92EF926B
:104D2000FF920F931F93DF93CF9300D000D0CDB7A6
:104D3000DEB76C01162F072F1A01DC0113968C9138
:104D40001397813009F046C111968C9181FF42C1C1
:104D50005DC1F60143895489658976898385948587
:104D6000A585B68584179507A607B70731F0C60154
:104D70000E94A721882309F42DC1812F902F9C0127
:104D800029013101EDC0D6011596ED91FC911697E0
:104D9000DA01C90169E0B695A795979587956A9557
:104DA000D1F794809A9498225FEFA52E51E0B52E0A
:104DB000A222B322992009F052C0A114B10409F033
:104DC0004EC0D60117964D915D916D917C911A97C9
:104DD000411551056105710571F1CF019E012F5FEC
:104DE0003F4F0E94D82C882309F4F4C029813A81CE
:104DF0004B815C81D6011596ED91FC9116978789C0
:104E0000803149F4283FBFEF3B07B0E04B07B0E0EB
:104E10005B0748F019C0283FEFEF3E07EFEF4E0762
:104E2000EFE05E0788F4D60117962D933D934D93DE
:104E30005C931A9714C0F6018789908DA18DB28D6D
:104E40000097A105B10531F4C6010E945D268823B3
:104E500031F4C0C0F60187839087A187B287D6015D
:104E600017964D915D916D917C911A9715968D9144
:104E70009C9116970E94462A7B018C01E90CF11C3B
:104E8000011D111DA114B104A9F4B0E06B16B2E02C
:104E90007B06A8F5F60123853485458556858389EB
:104EA0009489A589B689281739074A075B0710F046
:104EB00045E001C041E0C801B7010E94AF2A009758
:104EC00009F488C040E052E04A195B0983014615A5
:104ED000570508F48A019C012A0D3B1DC901B20146
:104EE000A8010E948B01A00EB11EF0E0AF16F2E007
:104EF000BF0611F50E94AC2A8823F1F46BC08091A3
:104F0000430590914405A0914505B09146058E1545
:104F10009F05A007B10711F40E94372A80914C0524
:104F200090914D05B801A70192010E94E11E8823CE
:104F300009F450C000E012E0980140E050E0F601B2
:104F400083859485A585B685820F931FA41FB51F01
:104F500083879487A587B687400E511E601A710A11
:104F6000D6011B962D913D914D915C911E97611438
:104F7000710409F008CF53968D919D910D90BC91CD
:104F8000A02D82179307A407B50748F4F601238BD9
:104F9000348B458B568B81818068818310C08091D2
:104FA000410390914203892B51F02114310439F0CF
:104FB000D60111968C911197806811968C93F60109
:104FC000818183FF05C0C6010E940723882311F059
:104FD000A10105C081E0D6018C934FEF5FEFCA01BC
:104FE0000F900F900F900F90CF91DF911F910F9125
:104FF000FF90EF90DF90CF90BF90AF909F907F9009
:105000006F905F904F903F902F90089582FDA1CEBA
:10501000B4CE9F92AF92BF92CF92DF92EF92FF9267
:105020000F931F93CF93DF938C01FC0183899489A5
:10503000A589B689805E9F4FAF41B04008F05CC043
:10504000C8010E945D26882309F456C0D80117962E
:105050004D915D916D917C911A9715968D919C91D2
:1050600016970E94462A5B016C0145E00E94AF2A18
:10507000EC01009709F442C080E092E0FE019C013F
:10508000119221503040E1F79C2EED2EFF24F39435
:1050900011C0B601A5014F0D511D611D711D8091FB
:1050A0004C0590914D05292D3E2D0E94E11E88232F
:1050B00019F1F394D8011596ED91FC91169724817E
:1050C000F21638F330E040E050E089E0220F331F61
:1050D000441F551F8A95D1F753968D919D910D9040
:1050E000BC91A02D820F931FA41FB51FF801838BC5
:1050F000948BA58BB68B02C0C0E0D0E0CE01DF91CF
:10510000CF911F910F91FF90EF90DF90CF90BF90C4
:10511000AF909F9008958F929F92AF92BF92CF923F
:10512000DF92EF92FF920F931F93CF93DF936C0167
:10513000EB01942E852EA22E8D819E81D60116968E
:105140009C938E931597CB0140E050E060E070E0B7
:105150000E94A721BB2438C0CE010E94DE25FC019D
:10516000009709F492C095E016950795F794E79497
:105170009A95D1F71E2D1F708081882311F0853EEE
:10518000C9F4BB2099F42091430530914405409126
:10519000450550914605D6011F962D933D934D939D
:1051A0005C93529714961C93BB24B39480818823FC
:1051B00059F418C0892D982DBF014BE050E00E9492
:1051C0007E01009709F46FC0EB84FC840D851E8579
:1051D0008B899C89AD89BE89E816F9060A071B07E9
:1051E00008F4BACFA6FE51C0A1FE4FC0BB2051F0BB
:1051F000F6011481C60161E00E94E922EC010097EA
:1052000061F443C08B81823009F43FC0CE010E941B
:1052100009280097D1F1EC0110E080E2DE011D9237
:105220008A95E9F7DE01292D382DC901FC018BE0B3
:1052300001900D928150E1F7E0914103F09142031A
:10524000309739F0BE01625F7F4FCE0140960995DD
:1052500008C081E298E2998B888B80E098E09F8774
:105260008E87888999899B8B8A8B998F888F8E8569
:105270009F859F8B8E8B0E94662A882331F0C60102
:10528000612F4A2D0E94242401C080E0DF91CF913C
:105290001F910F91FF90EF90DF90CF90BF90AF9054
:1052A0009F908F900895A7FEEACFEFCF2F923F9265
:1052B0004F925F926F927F928F929F92AF92BF9226
:1052C000CF92DF92EF92FF920F931F93DF93CF93D2
:1052D000CDB7DEB7C654D0400FB6F894DEBF0FBED0
:1052E000CDBF3C016B01DE01AE5BBF4F11965C93FD
:1052F0004E9325962FAF25976115710509F483C04C
:105300001F861AA6FC018381882309F07CC01C86B5
:105310001FA2FA0180818F32F1F086014CE0E42E69
:10532000F12CEC0EFD1E32E4A32EB12CAC0EBD1EF2
:105330004E010894811C911C2796FFAEEEAE279774
:1053400027E2222E312C2C0E3D1E270124C011965F
:10535000B183A08301C0FD01A081B1818C918F3206
:10536000B1F3D60113968C91139782508230A8F234
:105370008E01095D1F4F15966D917C911697C8019E
:105380000E945F21882351F63EC0342D252D8701D0
:10539000832F922F7C01F50180819181B401A501B9
:1053A0000E94AA20882329F42EC03196D501ED93BE
:1053B000FC93D501ED91FC9180818F32B1F388236C
:1053C000C9F0C701B801A40121E00E948B288823FD
:1053D000D1F00C151D0519F0C8010E94A8242796CC
:1053E000EEADFFAD2797EE16FF0679F6C101322D1F
:1053F000292FCDCFC301B801A40125962FAD259744
:105400000E948B2801C080E0CA5BDF4F0FB6F89482
:10541000DEBF0FBECDBFCF91DF911F910F91FF90E7
:10542000EF90DF90CF90BF90AF909F908F907F9044
:105430006F905F904F903F902F900895DF93CF93A0
:105440000F92CDB7DEB769830496BE016F5F7F4FC1
:1054500041E050E00E94842620E030E0019711F402
:1054600021E030E0C9010F90CF91DF9108958FEFD7
:105470009FEFAFEFBFEF8093430590934405A09358
:105480004505B09346051092470508950F931F9365
:105490008C01CB01BA016250704080409040F8010D
:1054A000248130E040E050E00E946E3B9B01AC0163
:1054B000F80186859785A089B189280F391F4A1F71
:1054C0005B1FB901CA011F910F9108958091470593
:1054D00080FF3EC0409143055091440560914505D1
:1054E0007091460580914C0590914D0523E433E081
:1054F0000E94E11E882371F18091470581FF23C03E
:10550000409148055091490560914A0570914B05BD
:105510004115510561057105B1F0809143059091E8
:105520004405A0914505B0914605480F591F6A1FD3
:105530007B1F80914C0590914D0523E433E00E9440
:10554000E11E882339F0809147058E7F80934705BF
:1055500081E0089580E008950E94662A0895DF9210
:10556000EF92FF920F931F937B018C01D42E8091B9
:10557000430590914405A0914505B09146058E15CF
:105580009F05A007B107E1F00E94662A882311F168
:10559000D2FC0CC080914C0590914D05B801A7013B
:1055A00023E433E00E949D1F8823A1F01092470559
:1055B000E0924305F092440500934505109346059B
:1055C00083E0D822809147058D298093470523E405
:1055D00033E002C020E030E0C9011F910F91FF903D
:1055E000EF90DF9008956F927F928F929F92AF928B
:1055F000BF92CF92DF92EF92FF920F931F93CF93C0
:10560000DF935C01142F70934D0560934C05DC0112
:1056100057961C9282E090E0A0E0B0E0F501808314
:105620009183A283B383109247058FEF9FEFAFEF73
:10563000BFEF8093430590934405A0934505B09335
:105640004605109248051092490510924A0510929D
:105650004B05442321F466247724430144C045309C
:1056600008F022C160E070E080E090E040E00E943D
:10567000AF2AEC01009709F417C1412F50E04150C7
:105680005040FA0174E0EE0FFF1F7A95E1F7E80F42
:10569000F91FE254FE4F8081EE5BF14090E08F777E
:1056A0009070892B09F000C1E653FE4F80819181F3
:1056B000A281B38184369105A105B10508F4F4C037
:1056C00064E0440F551F6A95E1F7C40FD51FCA5314
:1056D000DE4F688079808A809B8061147104810428
:1056E000910409F4E1C0C401B30140E00E94AF2A73
:1056F000EC01009709F4D8C08B859C8580509240BE
:1057000009F0D2C06889662309F4CEC0EE85FF8512
:10571000309709F4C9C08D85882309F4C5C0D50127
:1057200052966C93529714968C9314971D961C92D4
:1057300001E010E008C04F5FD5011D964C93415029
:10574000483008F0B1C0D5011D964C911D971496B4
:105750008C9190E09801042E02C0220F331F0A940E
:10576000E2F78217930739F78E899F89009721F016
:105770009C0140E050E004C02CA13DA14EA15FA1DE
:10578000D50115962D933D934D935C9318975296A2
:105790008C91882341F0209348053093490540932C
:1057A0004A0550934B056F01EE24FF24C60CD71C0D
:1057B000E81CF91CF501C38AD48AE58AF68A0989AE
:1057C0001A89118F008F70E080E090E0258136818A
:1057D000478150850E946E3B6C0D7D1D8E1D9F1D67
:1057E000D5015A966D937D938D939C935D9735E08B
:1057F000000F111F3A95E1F701501E4F012F11279D
:105800000695980140E050E0260F371F481F591FAA
:10581000F50126873787408B518B8B899C890097B0
:1058200021F07C0100E010E004C0E8A0F9A00AA18A
:105830001BA1C401B301621B730B840B950B6E0D8E
:105840007F1D801F911FD5011D960C901D9704C0D0
:1058500096958795779567950A94D2F7F5016187B4
:10586000728783879487653FFFE07F07F0E08F07AB
:10587000F0E09F0720F48CE057968C9315C0655F8D
:105880007F4F8040904018F480E1F5010AC08CA55C
:105890009DA5AEA5BFA5F501828F938FA48FB58F6F
:1058A00080E2878B81E001C080E0DF91CF911F9182
:1058B0000F91FF90EF90DF90CF90BF90AF909F90AF
:1058C0008F907F906F90089542600E94AF2A089554
:1058D0008F929F92AF92BF92CF92DF92EF92FF9200
:1058E0000F931F93CF93DF93EC016A017B01480173
:1058F0005901423051056105710508F44BC0898595
:105900009A85AB85BC850196A11DB11D84179507AD
:10591000A607B70708F43EC08F89803129F4252FE8
:10592000362F472F55270BC08032A1F59A01AB01C6
:1059300017E056954795379527951A95D1F78B8996
:105940009C89AD89BE89280F391F4A1F5B1FCA0178
:10595000B90141E00E94642C9C010097D9F08F8925
:10596000803149F4F601F070EE0FFF1FE20FF31FD4
:10597000918280820DC0F601EF77F070EE0FFF1F6D
:10598000EE0FFF1FE20FF31F80829182A282B3828B
:1059900081E001C080E0DF91CF911F910F91FF90D6
:1059A000EF90DF90CF90BF90AF909F908F90089531
:1059B000CF92DF92EF92FF920F931F93CF93DF93DB
:1059C000EC017A018B0169014230510561057105D5
:1059D00008F453C089859A85AB85BC850196A11DC5
:1059E000B11D84179507A607B70708F446C08F892D
:1059F000803129F45527412F302F2F2D0BC08032B5
:105A0000E1F59A01AB0167E05695479537952795E3
:105A10006A95D1F78B899C89AD89BE89280F391F7A
:105A20004A1F5B1FCA01B90140E00E94642C9C011F
:105A3000009719F18F89803159F4F701F070EE0F5A
:105A4000FF1FE20FF31F80819181A0E0B0E00EC044
:105A5000F701EF77F070EE0FFF1FEE0FFF1FE20F61
:105A6000F31F80819181A281B381BF70F601808391
:105A70009183A283B38381E001C080E0DF91CF9165
:105A80001F910F91FF90EF90DF90CF900895AF920C
:105A9000BF92CF92DF92EF92FF920F931F93DF930B
:105AA000CF9300D000D0CDB7DEB76C017A018B0167
:105AB00082E090E0A0E0B0E0F60180839183A283D1
:105AC000B3835E010894A11CB11CC601B801A701F3
:105AD00095010E94D82C882341F1C601B801A70185
