:1000000068C000008DC000008BC0000089C00000E7
:1000100087C0000085C0000083C000000C947409F4
:100020007FC000007DC000007BC0000079C00000E0
:1000300077C0000075C0000073C0000071C00000F0
:100040000C94E3276DC000006BC0000069C0000085
:1000500067C0000065C0000063C0000061C0000010
:100060005FC000005DC000007C3C3E5E2B3D3F2F2A
:100070005B5D3B2C2A225C000000000700020100AF
:100080000003040600000000000000000102040854
:1000900010204080010204081020010204081020F2
:1000A000040404040404040402020202020203031E
:1000B0000303030300000000250028002B000000BC
:1000C0000000240027002A00BE03EA09810F7D38C2
:1000D000DB0311241FBECFEFD8E0DEBFCDBF12E09F
:1000E000A0E0B1E0E8EEF9E702C005900D92AA3277
:1000F000B107D9F726E0AAE2B2E001C01D92A43808
:10010000B207E1F710E0C0EDD0E004C02297FE0195
:100110000E94D83CC83CD107C9F72BD30C94403B74
:100120006FCF860F911DFC0182810895860F911D6E
:10013000FC0182890895860F911DFC01808D089530
:10014000860F911DFC0182810895860F911DFC018F
:10015000868D0895860F911DFC01868D08959C0162
:100160002E5E3F4FC90108959C01285E3F4FC90193
:1001700008959C012E5F3F4FC90108959C01225EA6
:100180003F4FC90108959C01225E3F4FC901089568
:1001900082E108958AE1089588E1089581E1089552
:1001A00089E1089580E10895CF93DF93CDB7DEB75D
:1001B00028970FB6F894DEBF0FBECDBFBE016F5FAC
:1001C0007F4F8091C2039091C3030E94A423BE017C
:1001D0006F5F7F4F81E693E00E944F0F28960FB626
:1001E000F894DEBF0FBECDBFDF91CF91089580910F
:1001F000C8039091C9030E940E231092660381E008
:10020000809367030895CF93C62F682F81E693E00C
:100210000E94F50E6C2F81E693E0CF910C942F0F86
:1002200080E593E00E948E248BEA93E00AD384EC6D
:1002300093E00C94CC1DCF93DF93C82FD42F682F5D
:100240008AE893E00E94A50AE091C203F091C303FB
:10025000208130E00C2E02C0359527950A94E2F7F4
:10026000DD2339F020FF02C020E001C02AE041E098
:1002700004C020FF08C022E040E06C2F8AEC93E02D
:10028000DF91CF91B9C6DF91CF910895E091C2037C
:10029000F091C30327853089232B61F460914E03CD
:1002A00070914F030E94441DE091A903F091AA03AD
:1002B000938382830895CF93DF93E091C203F091FB
:1002C000C303878590890197C9F48091C10388236E
:1002D000A9F0E091A903F091AA030190F081E02D2B
:1002E000C081D1818AEC93E0BBD6BC018091A90387
:1002F0009091AA03FE01DF91CF910994DF91CF91F4
:1003000008958091C103882339F18091C8039091A9
:10031000C9030E94E22280916703882319F010929A
:1003200067030CC08091660390E0019660916403BE
:10033000709165030E947D3C8093660384E993E09D
:100340000E94442680916603837031F42AE041E0E4
:1003500066E08AEC93E050C60895CF93DF93E09176
:10036000C203F091C30387859089892B09F040C0AF
:100370008091540382303CF180915703909158034F
:100380006091590370915A030E947D3CCB019927DB
:10039000E091A903F091AA039383828360914E03B5
:1003A00070914F030E94551DE091C203F091C30369
:1003B000238534852817390731F09487838703888C
:1003C000F489E02D0995E091A903F091AA03019029
:1003D000F081E02DC081D1818AEC93E041D6BC014F
:1003E0008091A9039091AA03FE01DF91CF91099416
:1003F000DF91CF910895282F90E081E0332727FDEA
:10040000309502C0880F9F5F492F50E04217530775
:10041000CCF30895E091C203F091C303278530899E
:100420002130310531F4E7DFE091A903F091AA030F
:10043000858708950F931F93CF93DF93892BD1F472
:1004400089E090E00E94DE27EC010E948F1C81E889
:1004500091E09E838D8360914E0370914F03E091F4
:10046000C203F091C303838594850E94441D9B833E
:100470008A8321C082E190E00E94DE27EC010E9485
:10048000301D00914E0310914F03E091C203F09193
:10049000C30387819085AFDFE881F9810480F5810E
:1004A000E02D980141E050E0682FCE01099581E8E8
:1004B00091E09E838D83CE01DF91CF911F910F91AB
:1004C0000895CF93DF93EC018091C8039091C90305
:1004D0000E940E231092660381E08093670380914F
:1004E000A9039091AA03009711F00E94E027CE0182
:1004F000A1DF9093AA038093A90381E0CD2B09F09B
:1005000080E08093EF03DF91CF910895EF92FF9207
:100510000F931F93CF93DF93CDB7DEB728970FB616
:10052000F894DEBF0FBECDBF8AEC93E0D4D6909393
:100530004F0380934E0326E048E653E06AEC73E0F5
:100540008AE893E066D78DE190E00E94DE278C0177
:100550000E9442231093C3030093C20383E091E0FF
:10056000F801948383838AE092E09287818786E40E
:1005700091E09687858781E692E0928B818B84ED6E
:1005800090E0948B838B8AE292E09093C7038093F0
:10059000C6036FE084EC93E00E940C1F84EC93E0B0
:1005A0000E948B1FBE016F5F7F4F8091C2039091AD
:1005B000C3030E94A423AE014F5F5F4F6AE272E063
:1005C00081E693E00E94900EBE016F5F7F4F81E64F
:1005D00093E00E943B0FBE016F5F7F4F8091C2038B
:1005E0009091C3030E94C423E091C203F091C3031E
:1005F000628181E693E00E942F0FE091C203F091A7
:10060000C3038785908916DF9093AA038093A9037B
:10061000E091C203F091C30321E087859089892B83
:1006200009F020E02093EF0388E190E00E94DE27AC
:100630007C014091C2035091C3030BE111E024E619
:1006400033E064EC73E00E947821F092C903E092F9
:10065000C8030091A9031091AA032091C20330910D
:10066000C30344EC53E0B70184E993E00E945C25A6
:1006700088E693E09093FB038093FA038AEC93E07F
:1006800090930704809306048091C8039091C90356
:10069000909305048093040484E993E09093030409
:1006A0008093020484EC93E090930104809300040F
:1006B0008091C2039091C3039093FF038093FE0344
:1006C0008AE893E09093FD038093FC0384E693E033
:1006D0009093F7038093F60380E593E09093F503FE
:1006E0008093F40381E693E09093F9038093F803F9
:1006F0008BEA93E042D18DEA91E09093600380937E
:100700005F0327EF30E04BE551E060E070E08AECFA
:1007100093E0CED428960FB6F894DEBF0FBECDBFBF
:10072000DF91CF911F910F91FF90EF900895CF939C
:10073000DF938AEC93E094D4EC018091A90390912B
:10074000AA03DC01ED91FC910280F381E02DBE0152
:10075000099584E993E00E9444268BEA93E0A5D2B0
:10076000BE018091C8039091C903DF91CF910C9491
:1007700028230E943F28CADEDADFFECF84EC93E014
:100780000E945A208BEA93E077D084E993E00E949C
:1007900042258AE893E02FD688E693E00DD084E6E0
:1007A00093E00E94DF2681E693E00E941D0E80E523
:1007B00093E00C94282534CDFC0189E191E09183EC
:1007C000808384E082838CE0838384E184838CE172
:1007D000858385E086838DE0878385E180878DE151
:1007E000818786E082878EE0838786E184878EE139
:1007F000858787E086878FE0878787E1808B8FE119
:10080000818B81E1828B80E1838B82E1848B8AE121
:10081000858B88E1868B89E1878B81E0808F118EC3
:1008200082E0828F89E0838F88E0848F8AE0858FE1
:1008300083E0868F8BE0878F83E180A38BE181A3A8
:10084000089529E431E0FC0131832083089529E4EF
:1008500031E0FC01318320830C94E027AB01A091AF
:100860000604B0910704ED91FC9111970190F0817D
:10087000E02D682FCD010994CF93DF93EC012FE396
:1008800031E0FC0121933193CF010E94E8261E86BE
:100890001D861F86188A198A1A8A1C8A1B8A1D8A35
:1008A000DF91CF910895EF92FF920F93CF93DF9353
:1008B000EC018DE190E00E94DE277C010E949813FC
:1008C000E091FE03F091FF0308892D8946E06281E3
:1008D000C7010E942614FE86ED861C8A1B8ADF91C2
:1008E000CF910F91FF90EF9008950F931F93CF93A7
:1008F000DF93EC0181E090E09C8B8B8B85E190E0B5
:100900000E94DE278C010E94C80F48896D89C801AA
:100910000E9416111E870D87DF91CF911F910F91B5
:100920000895FC01A585B68514968C911497858B46
:1009300013968C911397808B109741F0ED91FC9159
:1009400011970280F381E02DCD0109940895CF9392
:10095000C0E08091FA039091FB03DC01ED91FC91E2
:100960000190F081E02D6C2F099560E070E076DF5A
:10097000CF5FC03271F7CF910895CF92DF92EF929F
:10098000FF920F93CF93DF93EC01E1DFCE018BDF7A
:1009900081E08E8B8091FA039091FB03DC01ED9155
:1009A000FC910484F585E02D09956E01B2E0CB0E33
:1009B000D11CAC014F5F5F4F60910604709107043A
:1009C000EE24E394F12C01E023E0C6010E94F62618
:1009D0004E8961E0C601DF91CF910F91FF90EF90BA
:1009E000DF90CF900C941427CF93C0E08091FA034E
:1009F0009091FB03DC01ED91FC91C03128F406805D
:100A0000F781E02D6C2F05C06C2F60510084F185BB
:100A1000E02D099560E070E021DFCF5FC43131F750
:100A2000CF9108950F931F93CF93DF93EC0182E052
:100A300090E09C8B8B8BCE01D7DF8CE090E00E9406
:100A4000DE278C01AFD71E870D878091FC03909124
:100A5000FD03DF91CF911F910F91CCC5EF92FF92D3
:100A60000F931F93CF93DF9300D0CDB7DEB77C01F8
:100A700083E090E0F701948B838BC7014A836983FD
:100A8000B3DF69814A81611105C0442341F084E0EC
:100A900090E002C085E090E0F701948B838B83E1C6
:100AA00090E00E94DE278C01E4D5C801F6D5F7015D
:100AB000168705870F900F90DF91CF911F910F91AF
:100AC000FF90EF9008950F931F93CF93DF93EC0166
:100AD0008C010E5F1F4F40E062E0C8010E941427A6
:100AE0008A89811120C060E0C8010E94032781111A
:100AF00027C019C0ED91FC9111970280F381E02D80
:100B0000CD0109958A89882341F041E060E0CE015A
:100B1000DF91CF911F910F91A1CFCE01DF91CF91A6
:100B20001F910F91C0CEAD85BE8513968C91139702
:100B30008D8B12968C911297888B1097D9F6E2CFF5
:100B4000DF91CF911F910F9108950F931F93CF9332
:100B5000DF93EC01662319F087E090E002C086E0A5
:100B600090E09C8B8B8BCE013FDF83E290E00E9474
:100B7000DE278C010E94051848896D89C8010E94F2
:100B80001F181E870D87DF91CF911F910F91089538
:100B90000F931F93CF93DF93EC018C010E5F1F4FD8
:100BA00061E0C8010E940327ED85FE85848F62E025
:100BB000C8010E940327882341F0CE01B2DECE0196
:100BC000DF91CF911F910F912DCF60E0C8010E945E
:100BD0000327882341F0CE01A4DECE01DF91CF911F
:100BE0001F910F9182CE8A89882351F0CE0199DE20
:100BF00040E060E0CE01DF91CF911F910F912ECFA9
:100C00008989882349F0CE018CDE60E0CE01DF9136
:100C1000CF911F910F9199CFDF91CF911F910F919C
:100C200008950F931F93CF93DF93EC018C010E5F18
:100C30001F4F40E060E0C8010E94142762E0C80135
:100C40000E9403279989911105C09A89911102C0C8
:100C5000811126C08D859E85009739F0DC01ED91CC
:100C6000FC910280F381E02D09958989882339F070
:100C700061E0CE01DF91CF911F910F9166CF8A89FC
:100C8000882341F040E061E0CE01DF91CF911F91D8
:100C90000F91E4CECE01DF91CF911F910F9103CE42
:100CA000DF91CF911F910F910895EF92FF920F93D3
:100CB0001F93CF93DF93EC01E0910604F0910704BA
:100CC0000280F381E02D028113818091FA039091DB
:100CD000FB03DC01ED91FC91048CF58DE02D099571
:100CE0002091060430910704682FC9010296F8018B
:100CF0000995898BE0910604F09107040280F38145
:100D0000E02D028113818091FA039091FB03DC01B5
:100D1000ED91FC91068CF78DE02D0995209106044C
:100D200030910704682FC9010296F80109958A8B52
:100D30008989882319F00FEF10E002C000E010E06D
:100D40008091FA039091FB03DC01ED91FC91048CFE
:100D5000F58DE02D0995B80181DD8A89882319F088
:100D60000FEF10E002C000E010E08091FA039091D4
:100D7000FB03DC01ED91FC91068CF78DE02D0995CC
:100D8000B8016CDD8E010E5F1F4F61E0C8010E944B
:100D90000327E82EC8010E945E2761E0C8010E9477
:100DA0000327F82E2B893C89265031092230310542
:100DB000E8F0EE2079F081110DC0E091F603F0919A
:100DC000F703128281E083838091040490910504EB
:100DD0000E940E23FE8AEF1449F0E091FE03F09189
:100DE000FF0387859089892B09F497C08B899C899B
:100DF0008630910554F483309105A4F48130910537
:100E000059F06CF4892B29F05CC008970CF059C09C
:100E100027C0CE01BDDE55C0CE0155DE52C0CE0189
:100E200000DF4FC08A8981114CC08D859E85009757
:100E300039F0DC01ED91FC910280F381E02D099500
:100E40008B899C898530910519F4CE01EBDD39C081
:100E5000049719F4CE0149DD34C0CE0124DD31C040
:100E60008989811123C08D859E85009739F0DC0129
:100E7000ED91FC910280F381E02D09954E8961E0AE
:100E8000C8010E9414278B899C89079741F441E08F
:100E900062E0C8010E941427CE01C4DD07C040E013
:100EA00062E0C8010E941427CE01FDDCE091FE0340
:100EB000F091FF0387859089892B19F403E010E0F6
:100EC00002C000E010E08D859E85009739F0DC01BE
:100ED000ED91FC910480F581E02D0995E091F603F8
:100EE000F091F70382818F7029F48E89882311F0A5
:100EF0000FEF10E08091FA039091FB03DC01ED917C
:100F0000FC910688F789E02D0995B801DF91CF9112
:100F10001F910F91FF90EF90A1CC809106049091CA
:100F20000704DC01ED91FC910480F581E02D24E1C2
:100F300041E067E009955ACF80E00895089508954B
:100F400080E0089508950895089581E00895E62FBA
:100F5000E695E695E695677021E030E0722F01C0D6
:100F6000770F6A95EAF7672F71E04F3F510509F057
:100F700070E09A012D7FAE2FB0E0A80FB91F21308D
:100F8000310511F0772339F0262F20951F963C91DB
:100F90001F97232304C01F962C911F97262B1F9663
:100FA0002C93F0E0E80FF91F4230510511F0772340
:100FB00029F0609583896823638B08958389862B44
:100FC000838B0895262F269526952695820F911DB1
:100FD000FC01838D90E0677002C0959587956A95B6
:100FE000E2F781700895DC01ED91FC910284F385B4
:100FF000E02D099590E00895FC0170E0DC01A60F5A
:10100000B71F15962C93222319F0411103C00895A0
:10101000442391F0DB01A050BF4F41E050E060E07D
:1010200070E00C9004C0440F551F661F771F0A9490
:10103000D2F78481842B12C0DB01A050BF4F41E066
:1010400050E060E070E00C9004C0440F551F661F34
:10105000771F0A94D2F7409584818423848308956E
:10106000FC01858596850895289A289808958823F7
:1010700011F0459A0895459808950F931F93CF93C3
:10108000DF93C0E0D0E0082F10E0C8010C2E02C0B2
:10109000959587950A94E2F78170E9DFE5DF21965F
:1010A000C830D10591F7DF91CF911F910F9108952D
:1010B000FC01F8943D9A209A219A289829983B9807
:1010C0005498529857983C9A559A539A569A439ADC
:1010D0005C9A5A9A5F9A44985D985B985E983898A3
:1010E000409870A3678F52A341A334A323A382E047
:1010F0008093B000E0E7F0E080818260808387E049
:101100008093B10081E18093B3001092B200789493
:10111000509A58980895CF93DF93EC018091F00393
:10112000811103C0CE010F9602C0CE0143962998CB
:101130002091F103FC01E20FF11D80819EDF8C8183
:101140009CDF299A8091F103813041F028F08230B0
:1011500039F0833041F406C0449A05C05D9A03C05B
:101160005B9A01C05E9A8091F10390E001968370D2
:1011700099278093F103892B41F48091F00390E04B
:101180000196817099278093F003DF91CF910895A4
:101190009F92AF92BF92CF92DF92EF92FF920F9306
:1011A0001F93CF93DF93EC0144985D985B985E9812
:1011B00087E0A82EB12C01E010E0C12CD12C7601E3
:1011C000C39429989A2CC8010A2C01C0880F0A944C
:1011D000EAF7809552DF8C8150DF299A2B8DD70159
:1011E000C6010A2C04C0880F991FAA1FBB1F0A94AE
:1011F000D2F7339902C0822B02C0809582238B8F55
:101200002C8DD701C601092C04C0880F991FAA1F75
:10121000BB1F0A94D2F74C9902C0822B02C0809562
:1012200082238C8F2D8DD701C601092C04C0880F15
:10123000991FAA1FBB1F0A94D2F74A9902C0822B9A
:1012400002C0809582238D8F8E8DB701A60104C0C8
:10125000440F551F661F771F9A94D2F74F9902C00B
:10126000482B02C0409548234E8F81E0A81AB10850
:1012700008F0A7CFDF91CF911F910F91FF90EF90D2
:10128000DF90CF90BF90AF909F900895CF93FC01D7
:1012900085A1882341F0519A848181FF02C0599A27
:1012A00018C0599816C083A194A1892B91F0519828
:1012B000599A89B181FBCC27C0F981FF08C0809180
:1012C000F203811104C003A0F4A1E02D0995C0939D
:1012D000F203CF9108956091B30089E09DE370E03F
:1012E0000E947D3CCB0108951F920F920FB60F9282
:1012F00011242F933F934F935F936F937F938F931B
:101300009F93AF93BF93CF93DF93EF93FF9380911E
:10131000D7039091D80301969093D8038093D70375
:101320002091CE03EFECF3E0C0E0D1E081E090E06B
:10133000A0E0B0E03081332381F0313061F4AC01C2
:10134000BD01088004C0440F551F661F771F0A9413
:10135000D2F740952423315030833196219633E0E3
:10136000E73DF30739F72093CE038AEC93E010DFD3
:101370008AEC93E0D0DE8091CE0380FF02C0589AC1
:1013800001C058988AEC93E081DFE091EB03F09183
:10139000EC03309761F086B1C82FC17080FF05C0A3
:1013A0008091F303811101C00995C093F303FF916C
:1013B000EF91DF91CF91BF91AF919F918F917F91ED
:1013C0006F915F914F913F912F910F900FBE0F90B2
:1013D0001F90189583E591E09093CB038093CA0307
:1013E00081E791E09093CD038093CC030895029719
:1013F000FACD0297E7CDFC0111821082138212828E
:101400008AE08483168215821086178281E08187A4
:101410000895FC017183608353834283248308957C
:10142000CF92DF92EF92FF920F931F93CF93DF93B0
:10143000EC01C62E6987D12C29C0CC2069F08F81A0
:1014400098850D2C02C0959587950A94E2F780FF48
:1014500003C00FEF10E002C000E010E0E881F98166
:101460000190F081E02DE080F1808A819B81DC0198
:10147000ED91FC910480F581E02D6D2D0995A80179
:10148000682F88819981F7010995D3948C81D816AA
:10149000A0F2DF91CF911F910F91FF90EF90DF901D
:1014A000CF900895EF92FF920F931F93CF93DF9306
:1014B000EC012D813E8181E090E0062E02C0880F74
:1014C000991F0A94E2F7442319F0822B932B04C04E
:1014D00080959095822393239E838D83898588238D
:1014E00069F18F819885062E02C0959587950A949B
:1014F000E2F780FD23C0E881F9810190F081E02DC1
:10150000E080F180442319F003E010E002C000E025
:1015100010E08A819B81DC01ED91FC910480F581D2
:10152000E02D0995A801682F88819981F701DF9145
:10153000CF911F910F91FF90EF900994DF91CF9180
:101540001F910F91FF90EF900895EF92FF920F93EC
:101550001F93CF93DF93EC012F81388581E090E0DA
:10156000062E02C0880F991F0A94E2F7442319F04F
:10157000822B932B04C08095909582239323988788
:101580008F838985882379F18D819E81062E02C003
:10159000959587950A94E2F780FF03C003E010E079
:1015A00002C000E010E0442311F00FEF10E0E881EA
:1015B000F9810190F081E02DE080F1808A819B81AA
:1015C000DC01ED91FC910480F581E02D0995A801E5
:1015D000682F88819981F701DF91CF911F910F9139
:1015E000FF90EF900994DF91CF911F910F91FF90A1
:1015F000EF9008951F93CF93DF93EC0110E005C0A7
:1016000040E0612FCE014EDF1F5F8C811817C0F3C1
:10161000DF91CF911F910895CF93DF93EC0189E77C
:1016200091E0998388838D859E85009739F0DC0150
:10163000ED91FC910280F381E02D09958F859889C9
:10164000009739F0DC01ED91FC910280F381E02DEF
:10165000099589E491E099838883DF91CF9108957A
:10166000CF93DF93EC01D8DFCE01DF91CF910C94C3
:10167000E027CF93DF93EC0129E731E0FC012193D0
:101680003193CF010E94E8261E861D86188A1F8688
:10169000198A1A8ADF91CF910895CF92DF92EF9243
:1016A000FF920F931F93CF93DF93EC01E091FE0322
:1016B000F091FF038281898B82958F708A8B809154
:1016C000FA039091FB03DC01ED91FC910684F78510
:1016D000E02D09956E01B2E0CB0ED11C609106049D
:1016E00070910704EE24E394F12C00E026E0AC01B5
:1016F000C6010E94F6268091FA039091FB03DC015B
:10170000ED91FC910088F189E02D09957C018CE038
:1017100090E00E94DE278C0160910604709107041E
:1017200020E1A7010E94A91D1E870D87D801ED9118
:10173000FC9169896F700480F581E02DC8010995DD
:101740008091FA039091FB03DC01ED91FC910288FA
:10175000F389E02D09957C018CE090E00E94DE2762
:101760008C01609106047091070424E0A7010E9497
:10177000A91D188B0F87D801ED91FC910480F5818C
:10178000E02D6A89C8010995C0E0D0E0E091FE0330
:10179000F091FF03418150E00C2E02C05595479512
:1017A0000A94E2F7142F1170412F6C2F8091FC03E3
:1017B0009091FD0377DE412F6C2FC6010E94142704
:1017C0002196C630D10511F7DF91CF911F910F916E
:1017D000FF90EF90DF90CF9008950F931F93CF93DA
:1017E000DF931F92CDB7DEB78C01DC011F968D9180
:1017F0009C9150970E943124BE016F5F7F4FF8018A
:10180000878590890E946A24882321F1D801529605
:101810009C91898189132CC01DC0F801858596850E
:10182000DC01ED91FC910680F781E02D099589811D
:10183000F801828B6189962F92959F7098131FC033
:1018400085859685DC01ED91FC916F700480F581B2
:10185000E02D0CC0F80187859089DC01ED91FC91A9
:101860000480F581E02DD80152966C91099507C04E
:10187000F801818982958F708913D9CFCECF0F90CF
:10188000DF91CF911F910F910895BF92CF92DF9278
:10189000EF92FF920F931F93CF93DF9300D0CDB7BA
:1018A000DEB78C019ADFF801858596850E94312488
:1018B0007801F2E0EF0EF11CC7010E945E27198249
:1018C000BE016F5F7F4FF801858596850E946A246F
:1018D000F80192896981F0E19F9F600D112469836D
:1018E000882371F0F8018189681751F08091FE0317
:1018F0009091FF030E947B238981F801818B39C07D
:1019000000E010E0CC24C394D12CB02E602FC7018E
:101910000E940327E091FE03F091FF039181292F9C
:1019200030E0002E02C0359527950A94E2F7217029
:101930008217D1F09601002E01C0220F0A94EAF717
:10194000882311F0292B02C02095292321830388A5
:10195000F489E02D8A8309958A81482F6B2D809127
:10196000FC039091FD039EDD0F5F1F4F06301105B4
:1019700061F60F900F90DF91CF911F910F91FF9023
:10198000EF90DF90CF90BF90089529E431E0FC0103
:1019900031832083089529E431E0FC0131832083E1
:1019A0000C94E027FC0183E891E09183808314820A
:1019B00081E08583178216828287838708959F92AC
:1019C000AF92BF92CF92DF92EF92FF920F931F934D
:1019D000CF93DF93D62E942E5901F801611109C0DF
:1019E0008081811103C0D9011D921C9281E0808306
:1019F00001C01082E70100E010E0EE24E394F12C36
:101A000023C0C701002E02C0880F991F0A94E2F775
:101A1000F5012081318182239323892B21F4CC206D
:101A2000B9F0D41215C04FEF50E06991A0910604AF
:101A3000B0910704ED91FC9111970190F081E02D98
:101A4000CD0109950F5F1F4F402F0915D0F203C03C
:101A500040E050E0EACFDF91CF911F910F91FF90CE
:101A6000EF90DF90CF90BF90AF909F900895CF926E
:101A7000DF92EF92FF920F931F93CF93DF93EC01CE
:101A8000E091F603F091F703D2808091FA039091F0
:101A9000FB03DC01ED91FC910288F389E02D0995AF
:101AA0008E01055F1F4F9E01285F3F4F6D2D6370B4
:101AB000C12C7C0144E0CE0182DF8091FA03909139
:101AC000FB03DC01ED91FC910088F189E02D099583
:101AD0008E01065F1F4F9E012A5F3F4F6D2D70E004
:101AE00076956795769567956F707727CC24C39424
:101AF0007C0140E1CE0163DFDF91CF911F910F9117
:101B0000FF90EF90DF90CF9008956F927F928F9229
:101B10009F92AF92BF92CF92DF92EF92FF920F937C
:101B20001F93CF93DF93EC0100E010E0E12CF12C48
:101B3000AA24A394B12C6501002E02C0CC0CDD1C9C
:101B40000A94E2F76A807B806C207D20E091060495
:101B5000F09107040280F381E02D828093808091D0
:101B6000FA039091FB03DC01ED91FC910480F58177
:101B7000E02D602F09952091060430910704682F0D
:101B8000C9010296F4010995672809F053C088231A
:101B9000A9F1602F80910204909103040E94A42671
:101BA0009C0136952795369527952F703327A501EB
:101BB00002C0440F551F2A95E2F72E813F81242B46
:101BC000352B3F832E8383709927950102C0220F06
:101BD000331F8A95E2F7C90128853985282B392BCF
:101BE0003987288708C0602F8091020490910304F0
:101BF0000E94882603C0EC28FD2804C0C094D0941D
:101C0000EC20FD200F5F1F4F0630110509F093CF28
:101C1000FB82EA82CE01DF91CF911F910F91FF905D
:101C2000EF90DF90CF90BF90AF909F908F907F907C
:101C30006F901DCF8111DFCFD6CF08954F925F9265
:101C40006F927F928F929F92AF92BF92CF92DF92CC
:101C5000EF92FF920F931F93CF93DF93EC01280134
:101C6000390157016A017B0110E04C185D086E08CC
:101C70007F0888248394912CA114B104F9F0812F5A
:101C800082958F70F501E80FF11DE80FF11D812F8E
:101C90008F70940102C0220F331F8A95E2F7C901A9
:101CA0002081318182239323892B41F41F5F32E00D
:101CB000D30EE11CF11C1034F9F621C0B701A601C6
:101CC0008CE094E00E94832A69817A8142E251E0AB
:101CD0008CE094E00E947829B301A2014C0D5D1DB7
:101CE0006E1D7F1D8CE094E00E94832A69817A81B9
:101CF00042E251E088E094E00E949930D7CFDF9132
:101D0000CF911F910F91FF90EF90DF90CF90BF90F8
:101D1000AF909F908F907F906F905F904F900895BD
:101D2000CF92DF92EF92FF920F931F93CF93DF93A7
:101D30006C01EB017A01FC017283618342E06AE08D
:101D400086E294E00E945C3043E068E071E08CE061
:101D500094E00E94D92E811134C08CE094E00E945E
:101D6000122C43E668E071E08CE094E00E94D92EEA
:101D700081110CC08CE094E00E94122C43E068E0DA
:101D800071E08CE094E00E94D92E1BC000E810E0C6
:101D900042E251E0BE0188E094E00E94993048E0C0
:101DA00050E0B70188E094E00E94993046ED50E0A1
:101DB000BE0188E094E00E9499300150110941F77A
:101DC000D9CFE12CF12C00E010E0980140E050E880
:101DD00060E070E0C60132DFDF91CF911F910F917B
:101DE000FF90EF90DF90CF900895CF93DF93EC01B9
:101DF000562F550F40E0662757FD6095762F8CE0F3
:101E000094E00E94832A69817A8142E251E088E06D
:101E100094E0DF91CF910C949930EF92FF920F9361
:101E20001F93CF93DF93EC017901962F990F80E0F8
:101E3000480F591F60E070E08CE094E00E94832A14
:101E400069817A816E0D7F1DA8018CE094E0DF919D
:101E5000CF911F910F91FF90EF900C9478290F93E1
:101E60001F9302E211E020E030E040E050E0D5DFD7
:101E70001F910F910895CF93DF93EB0142E251E060
:101E800060E070E08CE094E00E94832A48E050E03B
:101E9000BE018CE094E0DF91CF910C947829CF9330
:101EA000DF93EB0142E251E060E070E08CE094E00F
:101EB0000E94832A48E050E0BE0188E094E00E943E
:101EC000993042E251E860E070E08CE094E00E94DA
:101ED000832A48E050E0BE0188E094E00E949930F7
:101EE00042E253E060E070E08CE094E00E94832ADC
:101EF00048E050E0BE018CE094E0DF91CF910C947B
:101F0000782989E18093270410922A0410923D04D5
:101F1000109244041092460410920C0410920E0485
:101F200010920B0410920A048BE092E09093090443
:101F3000809308040895CF93DF93EC018DE891E03E
:101F4000998388838E819F81009739F0DC01ED9120
:101F5000FC910280F381E02D099588859985009791
:101F600039F0DC01ED91FC910280F381E02D0995BF
:101F700089E491E099838883DF91CF910895CF938D
:101F8000DF93EC01D8DFCE01DF91CF910C94E027F5
:101F9000FC018DE891E09183808312821382158287
:101FA00014821782168211861086CF010A960C942D
:101FB000E8266130710551F06230710519F0672B28
:101FC00041F003C023E030E006C0089520E030E097
:101FD00002C02FEF30E0C90108959F92AF92BF92E7
:101FE000CF92DF92EF92FF920F931F93CF93DF93E5
:101FF000CDB7DEB7A3970FB6F894DEBF0FBECDBF47
:102000008C018091000490910104DC01ED91FC9120
:102010000680F781E02D9E012F5D3F4FD80112967B
:102020004C91129713966C910995809100049091B0
:102030000104DC01ED91FC91D80112966C9162953E
:10204000607F0484F585E02DAE014F5F5F4F0995F9
:10205000CC24C394D12CCC0EDD1E912C5801BAE0B7
:10206000AB0EB11C892D869586958695E9A1FAA1BE
:10207000E80FF11D208130E0892D877002C0359571
:1020800027958A95E2F720FF04C0EE24EA94F12C0C
:1020900002C0E12CF12CBE016D5D7F4FF8018085FF
:1020A00091850E946A24811106C0D6016D917C91B0
:1020B000C8017FDF7C018091FA039091FB03DC0172
:1020C000ED91FC910680F781E02D692D0995B7010E
:1020D0000E942E0441E0BFEFEB16F10409F040E04E
:1020E000692DC5010E9414279394E2E0CE0ED11C05
:1020F000F0E19F12B7CFA3960FB6F894DEBF0FBEE4
:10210000CDBFDF91CF911F910F91FF90EF90DF90A6
:10211000CF90BF90AF909F900895AF92BF92CF9213
:10212000DF92EF92FF920F931F93CF93DF9300D034
:1021300000D01F92CDB7DEB78C011D82BE016B5F50
:102140007F4FDC0118968D919C9119970E946A240B
:10215000B82E8091000490910104DC01ED91FC9176
:10216000BB2049F00684F785E02DAE014F5F5F4F3D
:102170006D81099507C00088F189E02DBE016F5F70
:102180007F4F0995EE24E394F12CEC0EFD1EA12C5B
:10219000F8018281A81641F0D7018C91882341F083
:1021A00033E0C32ED12C06C0CC24CA94D12C02C05B
:1021B000C12CD12C8091FA039091FB03DC01ED91AD
:1021C000FC910084F185E02D6A2D0995B6010E94ED
:1021D0002E04A394BFEFEB1AFB0AE4E0AE12D8CFB3
:1021E000F12CEE24E394EB248D81F81611F04E2DA2
:1021F00001C041E06F2D8091FC039091FD0352D905
:10220000F394F6E0FF12F0CFC801E7DE0F900F90D5
:102210000F900F900F90DF91CF911F910F91FF9032
:10222000EF90DF90CF90BF90AF900895CF92DF9264
:10223000EF92FF920F931F93CF93DF93EC01F62E53
:102240006B834A838091FA039091FB03DC01ED914B
:10225000FC910288F389E02D09956C018AE090E0F9
:102260000E94DE278C01E0910604F091070430976C
:1022700021F0BF016E5F7F4F02C060E070E024E09C
:10228000A601C8010E9422241F830E838091FA03B5
:102290009091FB03DC01ED91FC910684F785E02D24
:1022A00009956C018AE090E00E94DE278C01E091A4
:1022B0000604F0910704309721F0BF016E5F7F4F55
:1022C00002C060E070E026E0A601C8010E9422245E
:1022D00019870887D801ED91FC910480F581E02DE4
:1022E0006F2DC80109958091FA039091FB03DC01E1
:1022F000ED91FC910088F189E02D0995609106042B
:1023000070910704EE24E394F12C00E020E1AC018D
:10231000CE010A960E94F626CE01DF91CF911F9141
:102320000F91FF90EF90DF90CF90F7CE1F93CF9358
:10233000DF93EC01162F8091000490910104DC01E1
:10234000ED91FC91442391F00288F389E02D462F12
:102350006B810995412F4F5F6B81809104049091AF
:102360000504DF91CF911F910C94E3220488F58935
:10237000E02D0995612F6F5F809104049091050411
:10238000DF91CF911F910C94FB222F923F924F929D
:102390005F926F927F928F929F92AF92BF92CF92F5
:1023A000DF92EF92FF920F931F93CF93DF93CDB7FE
:1023B000DEB72F970FB6F894DEBF0FBECDBF4C012E
:1023C0001C86BE01645F7F4FDC0118968D919C9145
:1023D00019970E946A24182FF401868197810E9420
:1023E0003124D40118968D919C9119970E94312423
:1023F0002401BAE04B0E511CC2010E945E27BE01AF
:10240000645F7F4FF401808591850E946A24382E95
:10241000811309C0882309F1D40113969C918C85FE
:10242000981303C01AC0882311F08C8502C0F401F0
:102430008381D40113968C93139712961C92129752
:1024400016968D919C911797DC01ED91FC9104807B
:10245000F581E02D60E0099518C1E0910604F09146
:1024600007040280F381E02D028113818091FA0339
:102470009091FB03DC01ED91FC91048CF58DE02D36
:1024800009952091060430910704682FC90102962E
:10249000F80109958E87882309F43FC0F12CE0915B
:1024A0000604F09107040280F381E02D028113817C
:1024B0008091FA039091FB03DC01ED91FC91008483
:1024C000F185E02D6F2D09952091060430910704C8
:1024D000682FC9010296F8010995882351F06F2DE4
:1024E0006295607F615F432DC40120DFC40115DE6A
:1024F00004C0F394F4E0FF12D2CFD40116968D916C
:102500009C911797DC01ED91FC910480F581E02D01
:10251000D40112966C91099511C01B86BE01655FAE
:102520007F4FF401868197810E946A24882331F0CD
:102530008B85D40112969C919813A4C0612C712CA8
:102540006D8601E010E0062C02C0000F111F0A94F6
:10255000E2F7F4018481958180239123222423943E
:10256000892B09F4212CE0910604F09107040280E4
:10257000F381E02DE080F1808091FA039091FB03DC
:10258000DC01ED91FC910680F781E02D6D850995C8
:102590002091060430910704682FC9010296F701C3
:1025A000099541E0D40114962D913C911597892B02
:1025B00059F440E0C80180959095822393231596A5
:1025C0009C938E93149705C0022B132BF401158353
:1025D0000483D40112968C91421509F44AC05D859A
:1025E000B0E18B9F500D1124EE85EE23E1F1212CFB
:1025F000D40113968C91281611F031102FC06091E0
:10260000000470910104DB01ED91FC910190F081D7
:10261000E02D252F422DCE0101965F8709956D850E
:10262000C2010E9403278983A0910004B091010494
:10263000ED91FC9111970480F581E02DA82EBA80D0
:10264000CB80DC80ED80FE800F81188529853A855E
:102650005F85452F622DCD0109955F852394B6E0F6
:102660002B12C6CF04C0432D652FC4015FDEC40109
:1026700054DDEFEF6E1A7E0AF0E16F16710409F077
:102680005FCF05C0D40112968C93C40146DD2F960E
:102690000FB6F894DEBF0FBECDBFDF91CF911F9173
:1026A0000F91FF90EF90DF90CF90BF90AF909F90F1
:1026B0008F907F906F905F904F903F902F900895F4
:1026C000CF93DF93EC0187E991E099838883898533
:1026D0009A85009739F0DC01ED91FC910280F3813D
:1026E000E02D09958B859C85009739F0DC01ED91F3
:1026F000FC910280F381E02D0995888D998D0097DA
:1027000039F0DC01ED91FC910280F381E02D099517
:1027100089E491E099838883DF91CF910895CF93E5
:10272000DF93EC01CDDFCE01DF91CF910C94E02758
:10273000CF93DF93EC0187E991E0998388831A8234
:102740001B821C8282E090E09E838D8318861F820C
:102750001A8619861C861B86CE010D960E94E826D5
:10276000198E188E1A8E8AE08B8F81E08C8FDF9104
:10277000CF9108950F931F93CF93DF9300D0CDB7E0
:10278000DEB78C018091000490910104DC01ED9191
:10279000FC910680F781E02D9E012F5F3F4FD8010D
:1027A00013964C91139714966C910995E981FA81CF
:1027B000738160E08281682B60957095F801708765
:1027C0006783808D918D0E94EC350F900F90DF9183
:1027D000CF911F910F910895FF920F931F93CF9365
:1027E000DF93EC01F12C8B81F81203C00FEF10E0A6
:1027F00002C000E010E08091FA039091FB03DC013D
:10280000ED91FC910084F185E02D6F2D0995B801C3
:102810000E942E04F394B4E0FB12E5CF10E00CC04C
:1028200041E08C81181340E0612F8091FC0390916E
:10283000FD030E94520A1F5F8B8D181788F3CE018B
:10284000DF91CF911F910F91FF9094CFEF92FF9264
:102850000F931F93CF93DF93EC016A830B834B8F0E
:102860002C838091FA039091FB03DC01ED91FC91A4
:102870000288F389E02D09957C018AE090E00E94AE
:10288000DE278C01609106047091070461157105C3
:1028900019F06E5F7F4F02C060E070E024E0A70196
:1028A000C8010E9422241A870987D801ED91FC9162
:1028B0000480F581E02D6B81C80109958091FA03B0
:1028C0009091FB03DC01ED91FC910288F389E02DEE
:1028D00009956091060470910704EE24E394F12CAD
:1028E00000E024E0AC01CE010D960E94F626809116
:1028F000FA039091FB03DC01ED91FC910684F785CE
:10290000E02D09957C018AE090E00E94DE278C0191
:102910002B8D60910604709107046115710519F003
:102920006E5F7F4F02C060E070E0A701C8010E94A7
:1029300022241C870B8789E190E00E94DE278C010E
:102940000E94AE35198F088F4091FA035091FB0316
:102950006091060470910704C8010E94C935CE0138
:10296000DF91CF911F910F91FF90EF9035CFFC0138
:10297000A0910404B09105048481A80FB11D16969E
:102980006C9166956695362F32953F702381808DC8
:10299000918D321305C0248D222311F06F7001C078
:1029A0006FEF0C9465362F923F924F925F926F9229
:1029B0007F928F929F92AF92BF92CF92DF92EF92CF
:1029C000FF920F931F93CF93DF93CDB7DEB72E9770
:1029D0000FB6F894DEBF0FBECDBF4C011C86BE0102
:1029E000645F7F4FDC011B968D919C911C970E9428
:1029F0006A24F82EF401838594850E943124D40141
:102A000058968D919C915997DC01ED91FC91048031
:102A1000F581E02D0995E0910604F091070402800C
:102A2000F381E02D028113818091FA039091FB03E1
:102A3000DC01ED91FC91028CF38DE02D0995209144
:102A4000060430910704682FC9010296F801099520
:102A5000D4015896ED91FC915997882389F091E023
:102A6000978B25892F3F81F013968C91880F880FC3
:102A7000820FE0910404F0910504908B818BFDC1DD
:102A8000178A00E010E002C00FEF10E08091FA0317
:102A90009091FB03DC01ED91FC91028CF38DE02D14
:102AA0000995B8010E942E04E0910404F0910504F8
:102AB000108A1C86F4011481BE01645F7F4F8385F8
:102AC00094850E946A248823F9F09C85D401149689
:102AD0002C9114972917C1F014969C931497139670
:102AE0001C92C40179DE8091040490910504FC01DC
:102AF0002785222309F43CC242E050E0D401149619
:102B00006C910E94CC2134C2F81204C0F40184817B
:102B1000811749F08091040490910504DC011F960F
:102B20002C91211101C2D4015896ED91FC91599735
:102B300085898F3F19F0282E91E002C0212C90E06A
:102B4000D4015A968C915A97981709F4B4C0811100
:102B500092C081E05A968C93168A6091000470911D
:102B60000104DB01ED91FC91D40113968C91222D8F
:102B7000B0E18B9F200D11240190F081E02DD40154
:102B800014964C91CE01019609953E01B3E06B0E6F
:102B9000711C7301B12C312C2401EDE04E0E511C3F
:102BA000D7018D919D917D0141E0039709F440E0AB
:102BB000311005C0442341F03324339402C0442330
:102BC00019F00FEF10E002C000E010E08091FA036E
:102BD0009091FB03DC01ED91FC910084F185E02DE7
:102BE0006B2D4E870995B8010E942E044E856B2DE2
:102BF000C2010E941427B394B4E0BB12D1CF3110AC
:102C00005AC010E0112309F497C1E091FE03F0913E
:102C1000FF03208130E0F401048002C03595279540
:102C20000A94E2F720FD88C11F5FF2E06F0E711C6D
:102C3000143041F78091000490910104DC01ED9182
:102C4000FC91D40113962C91422DB0E12B9F400DA5
:102C500011240480F581E02DA980BA80CB80DC802E
:102C6000ED80FE800F81188529853A85D401149660
:102C70006C91099520C0F401128EF12CD4011396A9
:102C80008C91F81203C00FEF10E002C000E010E0DA
:102C90008091FA039091FB03DC01ED91FC9100849B
:102CA000F185E02D6F2D0995B8010E942E04F39453
:102CB000B4E0FB12E3CFF401828D882309F497C0BE
:102CC0002401FDE04F0E511CC2010E945E2760915D
:102CD000000470910104DB01ED91FC91D401139685
:102CE0008C91222DB0E18B9F200D11240190F08159
:102CF000E02DD40114964C91CE01019609953E0128
:102D0000B3E06B0E711C50E01D8633243394F30145
:102D100080819181039709F4312C652FC2015E8770
:102D20000E9403275E85381609F44CC0D4015896DA
:102D3000ED91FC915997B1E0B68B311004C0F401CC
:102D40008581968102C083E090E0D3018D939C93AE
:102D5000311003C00FEF10E002C000E010E08091DE
:102D6000FA039091FB03DC01ED91FC910084F18565
:102D7000E02D652F5E870995B8010E942E04809191
:102D8000000490910104DC01ED91FC91D4011396B3
:102D90002C91422DB0E12B9F400D11240480F58130
:102DA000E02DA980BA80CB80DC80ED80FE800F8191
:102DB000188529853A85D40114966C910995B1E05E
:102DC0003B265E85ED85E11101C03D865F5FF2E047
:102DD0006F0E711C543009F098CF3D8531110CC035
:102DE000D4015896ED91FC915997168A05C0F401CB
:102DF000818592850E9431241B86BE01655F7F4FCD
:102E0000D40119968D919C911A970E946A24882367
:102E100039F08B85F40193819817E1F0838317C013
:102E2000E0910404F0910504D40114968C91149758
:102E3000E80FF11D868182958695869583708B8734
:102E400013969C911397981729F013968C93C401AD
:102E5000C3DC8EC0F401808D918D0E944F361C0121
:102E6000D40158968D919C9159970E945A362C0105
:102E70002114310429F4009719F4C40178DD78C0D5
:102E8000612C712C562D81E090E0062C02C0880F39
:102E9000991F0A94E2F79C0122213321BB24B394A9
:102EA000232B09F4B12C84219521892B11F4BB200B
:102EB00091F1F4018381F0E18F9F500D1124609115
:102EC000000470910104DB01ED91FC910190F0810F
:102ED000E02D252FD40114964C91CE0101965E87EA
:102EE0000995BA828091000490910104DC01ED9172
:102EF000FC910480F581E02DA980CB80DC80ED8001
:102F0000FE800F81188529853A855E85452FD4017D
:102F100014966C910995BFEF6B1A7B0AE0E16E166F
:102F2000710409F0AFCFA9CF42E050E0D40114966C
:102F30006C910E94CC21F7CDF40185819681D3015B
:102F40008D939C938091FA039091FB03DC01ED91AA
:102F5000FC910084F185E02D612F09956FEF70E001
:102F60000E942E0441E0612FC2010E9414275CCE12
:102F70002E960FB6F894DEBF0FBECDBFDF91CF9176
:102F80001F910F91FF90EF90DF90CF90BF90AF9087
:102F90009F908F907F906F905F904F903F902F9079
:102FA0000895CF93DF93EC0181EA91E099838883C0
:102FB0008A819B81009739F0DC01ED91FC910280C0
:102FC000F381E02D09958C819D81009739F0DC011A
:102FD000ED91FC910280F381E02D099561E08091F3
:102FE000FC039091FD030E94100A89E491E099830B
:102FF0008883DF91CF910895CF93DF93EC01D1DFE8
:10300000CE01DF91CF910C94E027CF93DF93EC01B9
:1030100081EA91E0998388831B821A821D821C8237
:10302000CE0106960E94E8261B8A1A8A1C8A1D8AEF
:103030001E8ACE014896DF91CF910C94E8268F929C
:103040009F92AF92BF92CF92DF92EF92FF920F9337
:10305000CF93DF931F92CDB7DEB74C01D62E60E041
:103060008091FC039091FD0349830E94100AD401D2
:103070005496DC925497498155964C938091FA036B
:103080009091FB03DC01ED91FC910288F389E02D26
:1030900009955C018CE090E00E94DE276C01609154
:1030A00006047091070424E0A50153D5F401D382EE
:1030B000C2828091FA039091FB03DC01ED91FC91B7
:1030C0000088F189E02D09955C018CE090E00E9478
:1030D000DE276C01609106047091070424E0A501CD
:1030E00038D5F401D582C4828091FA039091FB0314
:1030F000DC01ED91FC910684F785E02D09956401D2
:10310000B6E0CB0ED11C6091060470910704EE244A
:10311000E394F12C01E026E0AC01C6010E94F62602
:103120008091FA039091FB03DC01ED91FC91048402
:10313000F585E02D09955401B8E1AB0EB11CAC0149
:103140004E5F5F4F609106047091070421E0C50156
:103150000E94F626E091FE03F091FF0341E087858F
:103160009089892B09F040E060E0C5010E94142796
:10317000F40182819381DC01ED91FC91A091FE0329
:10318000B091FF030480F581E02D15966C910995AF
:10319000F40184819581DC01ED91FC91A091FE0305
:1031A000B091FF030480F581E02D17966C9109958D
:1031B000A12CB12CE091FE03F091FF03408150E07F
:1031C0000A2C02C0559547950A94E2F741706A2D82
:1031D000C6010E941427BFEFAB1ABB0AE6E0AE1689
:1031E000B10441F70F90DF91CF910F91FF90EF90D5
:1031F000DF90CF90BF90AF909F908F900895CF9227
:10320000DF92EF92FF920F931F93CF93DF93809102
:103210006104882309F43FC080E3689FE001112422
:10322000ACE02A9FC00DD11D1124B0E34B9F60017B
:1032300011248CE0089FC00CD11C11246091600403
:10324000E091FE03F091FF038281681751F087013E
:103250009601AE018091F8039091F9030E940D0F41
:103260001AC08091000490910104DC01ED91FC9161
:103270000284F385E02D0995C80FD91FFC01EC0DE0
:10328000FD1D20E030E004C0899181932F5F3F4F06
:103290002E153F05C9F7DF91CF911F910F91FF9038
:1032A000EF90DF90CF9008954F925F926F927F9250
:1032B0008F929F92AF92BF92CF92DF92EF92FF9246
:1032C0000F931F93CF93DF9300D01F92CDB7DEB73C
:1032D0006C01DC0156969C9156979923A9F157965B
:1032E0008C9157978F5F57968C935797843618F029
:1032F000915056969C9364E60E94713CF601978B20
:10330000892F90E0C1968336910518F400E010E013
:1033100002C00FEF10E08091FA039091FB03DC01F3
:10332000ED91FC91008CF18DE02D0995A0910604A2
:10333000B0910704ED91FC9111970190F081E02D7F
:10334000A801682FCD0109954601B6E08B0E911CAE
:10335000C4010E945E27F601828193810E9431247C
:10336000D60114968D919C9115970E943124860167
:10337000085E1F4FC8010E945E27E091FE03F09196
:10338000FF03FF24F39427853089232B09F0F12CC8
:1033900060E0C8010E9403278F15C1F08F2D90E0D7
:1033A000E090FE03F090FF03F7012785308928178E
:1033B000390761F0908B87870188F289E02D0995A4
:1033C000D7015396ED91FC91549709951A82BE014D
:1033D0006E5F7F4FF601828193810E946A24A091E3
:1033E000FE03B091FF03882399F08A8190E015963F
:1033F0002D913C91169728173907B9F016969C9392
:103400008E9315975396ED91FC91549709950DC0A5
:10341000F60182819381FC0120813181F9012481AF
:10342000358115966C91F90109951982BE016F5F7E
:103430007F4FD60114968D919C9115970E946A2416
:10344000E090FE03F090FF038823A9F0898190E0CB
:10345000F7012781308528173907D1F090878783B6
:103460000184F285E02D0995D7015396ED91FC91E9
:10347000549709950DC0F60184819581DC01ED9189
:10348000FC910480F581E02DD70117966C91099588
:10349000E12CF12C01E010E0E091FE03F091FF033C
:1034A000A080B12C0E2C02C0B594A7940A94E2F728
:1034B000B1E0AB22BB246E2DC4010E94032790E033
:1034C000A816B90651F1E091FE03F091FF03408187
:1034D000242F30E00E2C02C0359527950A94E2F790
:1034E0002170332728173907C1F08130910541F445
:1034F0000E2C01C0880F0A94EAF7842B808309C040
:1035000098010E2C01C0220F0A94EAF7209524237B
:1035100020830388F489E02D0995EFEFEE1AFE0A67
:10352000F6E0EF16F10409F0B7CF63E0A62EB12C58
:1035300066246394712CE2E05E2E442443942A2D89
:1035400043010A2C02C0880C991C0A94E2F7D601A8
:1035500052960D911C915397082119218091FA03DD
:103560009091FB03DC01ED91FC91233031F4008C50
:10357000F18DE02DAB82099506C00680F781E02D24
:103580006A2DAB8209952B81A0910604B0910704A6
:103590001296ED91FC9113970280F381E02D682F34
:1035A000CD0102962B8309952B81012B09F029C1AE
:1035B000882309F430C1E090FE03F090FF03F70187
:1035C00083859485293009F49FC080F4263009F45E
:1035D00069C030F4243009F4ADC02530C9F47EC090
:1035E000273009F450C0283099F485C02C3009F4F4
:1035F000C2C030F42A3009F494C02B3049F439C0E9
:103600002E3009F4D3C008F4C5C02F3009F4E6C049
:10361000D70112966C918091F8039091F9030E9462
:10362000F50EE090FE03F090FF03B5E1EB0EF11C08
:1036300000E010E820E030E040E050E0BA01809186
:10364000F8039091F9030E941E0EE091FE03F091A1
:10365000FF0362818091F8039091F9030E942F0F7C
:103660008091FE039091FF030E945A23F601568A2F
:10367000CAC0009709F4C7C005979487838705845B
:10368000F685E02D07C00596F701948783870584AA
:10369000F685E02D0995D7015396ED91FC9154974D
:1036A0000995B1C0E091F403F091F5030190F08128
:1036B000E02D008111818091060490910704DC01C6
:1036C000ED91FC910280F381E02D0995BC01809180
:1036D000F4039091F503F801099595C082818093D8
:1036E0006004F601848980935F04858980935E0479
:1036F0004092610488C050E3E52EF12C00E020E008
:10370000D60154964C9108C04CE0E42EF12CF60101
:10371000058920915E04448960915F04C6016FDDD4
:1037200072C032E2E32EFF24F39400E020E040E098
:1037300060E0F4CFF5E1EF0EF11C00E010E098013D
:1037400040E050E860E070E08091F8039091F90368
:103750000E941E0EE091FE03F091FF0362818091B2
:10376000F8039091F9030E942F0F8091FE0390912E
:10377000FF03A0D748C08091000490910104DC01B0
:10378000ED91FC910688F789E02DD60154966C9155
:10379000099539C08091000490910104DC01ED91FC
:1037A000FC91008CF18DE02D09952DC080910004D5
:1037B00090910104DC01ED91FC910288F389E02DE8
:1037C0004FE0D60154966C91099540E1F601648969
:1037D0008091040490910504F6D615C080910004F0
:1037E00090910104DC01ED91FC910488F589E02DB4
:1037F0006FE0099560E18091040490910504FBD687
:1038000002C0882341F0F601828993898829992989
:10381000938B828B0DC080949094D60152968D919B
:103820009C9153978821992153969C938E935297FC
:10383000BFEFAB1ABB0AE0E1AE16B10409F07FCED0
:103840000F900F900F90DF91CF911F910F91FF90EC
:10385000EF90DF90CF90BF90AF909F908F907F9030
:103860006F905F904F9008950F931F93CF93DF93C6
:10387000EC019B01EA81FB818F8198858B01081BFC
:10388000190BCF0163E070E00E947D3C061717071B
:1038900018F438872F8307C0CF0180959095820F49
:1038A000931F98878F83E881F9810280F381E02D4F
:1038B000B901CE01DF91CF911F910F9109940F9320
:1038C0001F93CF93DF93EC018B018F8198859B0130
:1038D000281B390BC9016A817B816217730760F469
:1038E0000E947D3C9801281B390B38872F83ED817E
:1038F000FE81309709F009958F819885081B190B77
:103900008A819B819695879521E08017910708F021
:1039100020E02C83DF91CF911F910F910895CF93D9
:10392000DF93EC010E94CF368BEA91E09983888384
:1039300018861F82DF91CF910895FC016587408B27
:103940004CE3429FC001439F900D112468E770E053
:103950000E947D3C738362830895CF93DF93EC01D3
:103960002E858F85280F2F878D8581508E87898999
:10397000882339F08F819885AB01481B590B5B83F5
:103980004A8378876F837A8769872F5F2F87E881DB
:10399000F9810280F381E02DCE01099581E0898BC8
:1039A000DF91CF910895DF92EF92FF920F931F93D3
:1039B000CF93DF93EC018B014E85442329F12A81BB
:1039C0003B81DD84ED2CF12C89859A85FB01E81B78
:1039D000F90BC901B7010E947D3C6E177F07A0F467
:1039E0008F858F5F8F87D41AD29EC001D39E900D92
:1039F0001124B7010E947D3C8F819885680F791F43
:103A00007A87698741504E878F858823A1F08B85FF
:103A10009C859801281B390B888990E082179307B1
:103A200050F4ED81FE81309709F009951C870B87D2
:103A30008F8581508F878B859C85081B190B888902
:103A4000869590E021E08017910708F020E02C8314
:103A5000DF91CF911F910F91FF90EF90DF9008952C
:103A6000CF93DF93EC010E94CF3683EB91E09983F3
:103A700088831A86198682E08D871E861F86188A9B
:103A8000198ADF91CF9108959C014CE3469FC001B4
:103A9000479F900D1124B9010E947D3C84E07695EA
:103AA00067958A95E1F7CB0108959C014CE3469F09
:103AB000C001479F900D1124B9010E947D3C94E004
:103AC000769567959A95E1F7CB0108952BEE31E055
:103AD000FC01318320830895CF93DF93EC01898526
:103AE000882399F0AA85BB85ED91FC9111972F81D0
:103AF0008C819D81820F911D2081318140E050E0B9
:103B0000FC016081CD01F90109951986DF91CF9102
:103B10000895CF93DF93EC0174D6AA85BB85ED9110
:103B2000FC9111978F810C80DD81C02DC80FD11DB4
:103B30000190F081E02D4FEF50E06881CD01DF91E1
:103B4000CF9109942BEE31E0FC01318320830C945A
:103B5000E0270F931F93CF93DF93EC018B01611547
:103B6000710519F06E5F7F4F02C060E070E0CE011A
:103B700069D68DEB91E0998388831B870A87DF9153
:103B8000CF911F910F910895FC0173836283089573
:103B9000FC0182819381089529EC31E0FC0131839D
:103BA0002083089550E3659FB0011124ECE04E9FFF
:103BB000600D711D1124FC0182819381860F971F76
:103BC000F9019183808308954F925F926F927F9263
:103BD0008F929F92AF92BF92CF92DF92EF92FF921D
:103BE0000F931F93CF93DF93CDB7DEB72A970FB60E
:103BF000F894DEBF0FBECDBF7C01562E8A01912CFA
:103C000082E0C82ED12CAA24A394B12C2BC0D701BA
:103C1000ED91FC910190F081E02D242D482DB7010C
:103C2000CE01019609958981882311F0739401C012
:103C300063948394B6E08B12EACF711004C0F8014C
:103C4000B182A08209C0611004C0D8011D921C92EB
:103C500003C0F801D182C08293940E5F1F4FF0E140
:103C60009F1631F0812C612C712C492C450CCFCF43
:103C70002A960FB6F894DEBF0FBECDBFDF91CF916D
:103C80001F910F91FF90EF90DF90CF90BF90AF907A
:103C90009F908F907F906F905F904F900895FC0160
:103CA00022813381FA0180E090E040E3649F200D9F
:103CB000311D1124D901A80FB91F4C91411107C022
:103CC00041E011965C91511103C040E001C041E018
:103CD00041930C968033910569F708950F931F93D4
:103CE000CF93DF93FB01138212821182108220E0B6
:103CF00030E022C0D8016C9161110FC0EC01AA81A3
:103D0000BB81A40FB51F6C91611107C061E01196D2
:103D1000AC91A11103C060E001C061E0D8016D93D6
:103D20008D017F5F445F5F4F743021F7205D3F4F0F
:103D30002032B1E03B0721F08F01A90170E0DACF1A
:103D4000DF91CF911F910F9108952F923F924F9243
:103D50005F926F927F928F929F92AF92BF92CF921B
:103D6000DF92EF92FF920F931F93CF93DF93CDB724
:103D7000DEB72A970FB6F894DEBF0FBECDBF3C0169
:103D8000362E812C912C442E512C282CD301ED91D0
:103D9000FC910190F081E02D282D432DB301CE013F
:103DA00001960995AA24A394481459040CF4A12C53
:103DB000A982D301ED91FC910480F581E02DBA80B8
:103DC000CB80DC80ED80FE800F81188529853A85C7
:103DD000422D632DC3010995BFEF8B1A9B0A80E426
:103DE0008816910491F62A960FB6F894DEBF0FBE9E
:103DF000CDBFDF91CF911F910F91FF90EF90DF909A
:103E0000CF90BF90AF909F908F907F906F905F907A
:103E10004F903F902F9008950F931F93CF93DF9370
:103E2000EC01062F10E0E881F9810288F389E02D8A
:103E3000402F612FCE0109951F5F1630A1F7DF914A
:103E4000CF911F910F9108953F924F925F926F9281
:103E50007F928F929F92AF92BF92CF92DF92EF921A
:103E6000FF920F931F93CF93DF93CDB7DEB72A97BF
:103E70000FB6F894DEBF0FBECDBF3C01562E312CDD
:103E80004424439423E0822E912CD301ED91FC91A4
:103E90000190F081E02D232D452DB301CE01019637
:103EA00009954A82C82C9C828B82E82C9E828D8246
:103EB000082D98868F82282D9A868986D301ED91C8
:103EC000FC910480F581E02DA980BB24B394DC80B3
:103ED000FE8018853A85432D652DC30109953394DD
:103EE000B0E43B12D2CF2A960FB6F894DEBF0FBED5
:103EF000CDBFDF91CF911F910F91FF90EF90DF9099
:103F0000CF90BF90AF909F908F907F906F905F9079
:103F10004F903F9008951F93CF93DF93EC0110E0F3
:103F2000E881F9810688F789E02D612FCE01099596
:103F30001F5F1630A9F7DF91CF911F91089529ECEB
:103F400031E0FC01318320830C94E0277F928F9233
:103F50009F92AF92BF92CF92DF92EF92FF920F9318
:103F60001F93CF93DF93CDB7DEB72A970FB6F894A0
:103F7000DEBF0FBECDBF8C01962E7A015901DC0148
:103F8000ED91FC910190F081E02DDA012C91462F0A
:103F9000BC01CE01019609958AE0FE013196D5015A
:103FA00001900D928A95E1F7F501808181115CC045
:103FB000D7017C90372D32953F70B0E39B9EA001D6
:103FC0001124FA018CE0389FE00DF11D1124D80175
:103FD00012966D917C911397E60FF71F918180E007
:103FE0002081820F911DA0E001C03B2F2A2F270DB9
:103FF000EFE38E2E8222B82DB295BF70B31779F001
:10400000FA018CE0B89FE00DF11D1124E60FF71FB7
:10401000D180C12C8081F601E80FF11DCF012F70F6
:10402000FC0102C0F695E7952A95E2F7E0FF17C07C
:10403000D801ED91FC910190F081E02D282D492DC2
:10404000B801CE01019609958AE0FE013196D501AD
:1040500001900D928A95E1F7F701808205C0AF5F6C
:10406000A03419F680E001C081E02A960FB6F894DA
:10407000DEBF0FBECDBFDF91CF911F910F91FF909B
:10408000EF90DF90CF90BF90AF909F908F907F90F8
:104090000895FC01208181E090E0062E01C0880F88
:1040A0000A94EAF7442311F0822B02C08095822300
:1040B0008083089529EC31E0FC0131832083089549
:1040C000EF92FF920F931F93CF93DF93DC01842F26
:1040D00082958F7090E3699FB0011124CCE08C9F92
:1040E000600D711D112443FBEE27E0F9F0E0E60FAF
:1040F000F71F12968D919C9113978E0F9F1FE801C9
:1041000099838883329612968D919C9113978E0F86
:104110009F1FF901918380834F7050E0559547951B
:10412000460F571F4C5F5F4F12968D919C911397CE
:10413000840F951FE70199838883DF91CF911F91A9
:104140000F91FF90EF900895AF92BF92CF92DF92C0
:10415000EF92FF920F931F93CF93DF93CDB7DEB70C
:1041600061970FB6F894DEBF0FBECDBF542FAF825C
:10417000B886C986DA86EB86FC860D871E872F8770
:10418000388BA7E0DA2ED422EE24E394F12CEC0E47
:10419000FD1E8E010D5F1F4F9E012B5F3F4F598B00
:1041A0008FDF4F816D2D8B819C8173DF48856D2D55
:1041B0008D819E816EDF5989EE24E394E522EE0C19
:1041C000EE0C8E01075F1F4FF12CF8018191919148
:1041D0008F0141E0029709F040E06F2D6E0D89815B
:1041E0009A8157DFF394F4E0FF12EFCF81E06196FC
:1041F0000FB6F894DEBF0FBECDBFDF91CF911F91F8
:104200000F91FF90EF90DF90CF90BF90AF90089507
:10421000BF92CF92DF92EF92FF920F931F93CF93B3
:10422000DF93CDB7DEB72F970FB6F894DEBF0FBE82
:10423000CDBF6C01CB01642F522F17E0B12EB222FB
:104240000DE0E02EF12CEC0EFD1E8E01055F1F4FE0
:104250009E01275F3F4F452F5F8732DF5F8551709B
:10426000550F550FAD85BE85FE01319630E06C913E
:1042700070E0832F850F02C0759567958A95E2F7E8
:1042800060FF03C082E090E002C083E090E0819391
:1042900091933F5F343059F7E985FA85408150E0CA
:1042A0000B2C02C0559547950A94E2F74170EB85B7
:1042B000FC85608170E002C075956795BA94E2F75D
:1042C00061709E012F5F3F4FC6010E94ED36C6010F
:1042D0002F960FB6F894DEBF0FBECDBFDF91CF9102
:1042E0001F910F91FF90EF90DF90CF90BF900895B6
:1042F0000F931F93FC017183608353834283358343
:10430000248381E08787108A86E0818B138B028B60
:1043100016821782108611861286138614861586D9
:1043200016861F910F9108950F931F93CF93DF93DC
:10433000FC01862F262F269526952695962F977079
:10434000C1E0D0E0092E02C0CC0FDD1F0A94E2F7D5
:104350008F01020F111DD8011C962C9130E02C23E7
:104360003D2302C0359527959A95E2F72130310516
:1043700071F40288F389E02D309721F040E063E08A
:1043800070E00995C095F8018485C823C487DF9142
:10439000CF911F910F910895EF92FF920F931F936A
:1043A000CF93DF93EC01F62E8A01BEDF8F85EA8979
:1043B000FB89EF2CE694E694E6948823B9F041E07B
:1043C000B8018F2D0995FE01EE0DF11D8F2D87701F
:1043D00021E030E001C0220F8A95EAF78485822B24
:1043E00084878C899D899F8B8E8B13C0309721F099
:1043F00041E0B8018F2D0995CE0DD11D8F2D87700D
:1044000021E030E001C0220F8A95EAF78C85822BEB
:104410008C87DF91CF911F910F91FF90EF900895BE
:104420006F927F928F929F92AF92BF92CF92DF92C4
:10443000EF92FF920F931F93CF93DF93CDB7DEB729
:1044400066970FB6F894DEBF0FBECDBF8C01E12C8E
:10445000F12C8AE0A82EBE2CCE0101960E94DA36FD
:104460008E2C6801CE0CDF1CD60116969C90F801AC
:104470008785811101C09394892D8370F801A081F3
:10448000B1818823C1F0ED91FC911197292D2695DA
:1044900026950190F081E02D4B2DBD01CE010C96AB
:1044A0000995FE013C96DE0111968A2D01900D9230
:1044B0008A95E1F71FC0F80180898823E9F0ED9122
:1044C000FC91119760807180F80121894B2DBD010D
:1044D000CE010C96F3010995FE013C96DE01119682
:1044E0008A2D01900D928A95E1F7D80151969C9002
:1044F000990C990C21E016C0969496949B86ED91A8
:10450000FC9111970280F381E02D9E012F5F3F4FB8
:10451000AE01455F5F4F6B2DCD010995282F9B8420
:10452000990C990C6B2DC8012E8BFEDE2E8922234F
:10453000D1F0D8011296ED91FC911397818190E012
:1045400002C0959587958A94E2F780FF0AC08A8118
:10455000811107C08981811112C003C06B2DC80170
:104560001BDFF6019682FFEFEF1AFF0A86E0E816DE
:10457000F10409F070CFD8011F961C920EC0892D4E
:104580008370FE013196E80FF11DE80FF11D4281A5
:1045900053814330510511F7E4CF66960FB6F89476
:1045A000DEBF0FBECDBFDF91CF911F910F91FF9066
:1045B000EF90DF90CF90BF90AF909F908F907F90C3
:1045C0006F9008952DCFCF93DF93FC01E60FF11D7F
:1045D00026812370EC01AC81BD8112968C91869569
:1045E0008695642F0E94713C990F990F290F26839D
:1045F000DF91CF9108950F931F93CF93DF93EC0139
:10460000062F10E0402F612FCE01DDDF1F5F163037
:10461000C9F7DF91CF911F910F9108950F931F93C9
:10462000CF93DF938C01C0E0D0E06C2FC8017CDE1B
:10463000F801EC0FFD1F16822196C630D105A9F7AF
:1046400081E0F8018787DF91CF911F910F91089545
:104650000F931F93CF93DF93EC018B018F858823FA
:1046600051F08E899F899B01281B390B253131051B
:1046700010F0CE01D3DF1D8B0C8BDF91CF911F91FA
:104680000F910895FC0110828FEF818312821482B2
:1046900013821682158283E090E0908787831286CA
:1046A000118688E790E094878387108A1786128A9C
:1046B000118A0895FC01168A158A108E178A128EA7
:1046C000118E148E138E8281982F92959F70E90F10
:1046D000F11DE90FF11D282F2F7081E090E002C03D
:1046E000880F991F2A95E2F725893689822B932B0B
:1046F000968B858B0895CF93DF93EC018A81861783
:1047000001F16A83962F92959F70FE01E90FF11DCA
:10471000E90FF11D962F9F7021E030E002C0220FBB
:10472000331F9A95E2F745895689242B352B368B12
:10473000258BEB81FC810995EB89FC89DF91CF9179
:104740000994DF91CF910895FC01DB0180818C9366
:10475000818111968C931197828112968C93129776
:10476000858113968C931397878114968C93149755
:10477000878515968C931597838516968C93169737
:10478000848517968C930895FC01DB018C918083BE
:1047900011968C911197818312968C911297828336
:1047A00013968C9113978583168214968C91149787
:1047B0008783108615968C9115978787108A169691
:1047C0002C91169730E03487238717969C9180E0D0
:1047D000820F931F94878387CF016CCFFC012581C3
:1047E00090E081E002C0880F9F5F9217E0F3089588
:1047F0002BEE31E0FC01318320830895FC0111860A
:1048000008950F931F93CF93DF931F92CDB7DEB719
:104810008C01DC01ED91FC910680F781E02D69832C
:1048200009956981F801678381E081870F90DF91A5
:10483000CF911F910F9108952BEE31E0FC01318350
:104840002083BEC3FC018BEE91E091838083738350
:10485000628355834483268317828FEF8087118676
:1048600008951F93CF93DF93EC0110E02AC08A8153
:104870009B81DC01ED91FC91AC81BD81A10FB11D4B
:104880000280F381E02D6C9109958823C9F0888519
:104890008117E1F08985E881F981882319F08F81FA
:1048A000811739F00480F581E02D612FCE01099543
:1048B00005C00680F781E02DCE010995188706C056
:1048C0001F5F8E81181798F28FEF8887DF91CF9145
:1048D0001F910895FC012185222329F08781FB0186
:1048E000808381E0089580E00895FC01618712864D
:1048F0000895FC0187819085618572850E947D3CC9
:10490000CB010895FC01708B6787089521E0FC01BD
:10491000848182300CF420E0822F089527EF31E06B
:10492000FC01318320830895FC01748763875687D7
:10493000458708956F927F928F929F92BF92CF92F8
:10494000DF92EF92FF920F931F93CF93DF93EC01CF
:104950008B01BC808FEFB81659F18D809E808B85BE
:104960009C85880D991D8617970710F11B1434F547
:104970006F807884B301680D791D601B710B80E036
:1049800090E00E94583B6B017C01B30180E090E015
:104990000E94583B20E030E040E05FE30E940E3C84
:1049A0009B01AC01C701B6010E940A3C181634F401
:1049B0001E830D8318861F821C8224C0F801E8190B
:1049C000F909FB83EA832F8138854B2D552747FD55
:1049D0005095DA010E94C63C6E0F7F1F811D911D0C
:1049E0009A012F5F3F4F442737FD4095542F0E9477
:1049F000A43C38872F8383E08B1514F0B394BC82DA
:104A00001E830D83EF85F889309771F0DF91CF9188
:104A10001F910F91FF90EF90DF90CF90BF909F90EC
:104A20008F907F906F900994DF91CF911F910F919C
:104A3000FF90EF90DF90CF90BF909F908F907F90EE
:104A40006F90089527EF31E0FC0131832083B8C2D5
:104A5000FC0187EF91E0918380838FEF848316823E
:104A600015821086178280E190E09287818784EC1E
:104A700099E0948783878CEB92E096878587108AEC
:104A800017860895FC01118210821382128215820A
:104A900014821782168281E0808780E090E0DF0137
:104AA000A80FB91F19961C9219971F961C92019670
:104AB00086309105A1F708950F931F93FC01718330
:104AC00060835383428335832483178306831F9136
:104AD0000F9108950F931F93CF93DF93EC01E8811B
:104AE000F981E60FF11D1681012F069506958C813F
:104AF0009D8174DE1370212F30E094E0099F200D1A
:104B0000311D1124220F331FEE81FF819481482F24
:104B100050E0992311F0CA0102C080E090E0820FBA
:104B2000931FBA01660F771F0E94913C649F802DEE
:104B30001124DF91CF911F910F9108952F923F92F1
:104B40004F925F926F927F928F929F92AF92BF929D
:104B5000CF92DF92EF92FF920F931F93CF93DF9349
:104B6000CDB7DEB72E970FB6F894DEBF0FBECDBF20
:104B70002C01362E242EDC0114968D919C911597D4
:104B8000FC01208130E0062E02C0359527950A945D
:104B9000E2F720FF03C022DE8B8702C0F1E0FB8733
:104BA000812C912C822D90E09D878C8763E0662E6E
:104BB000712C4CC02C853D85280D391D35952795C8
:104BC00035952795120D1370D20112966D917C9137
:104BD0001397DB01ED91FC910190F081E02D432DC5
:104BE000CE0101962E8709958A815E85882341F042
:104BF0007C826B827E826D8278866F827A866986FD
:104C0000FE013196E10FF11DE10FF11D82E090E010
:104C100093838283D20112968D919C911397DC012C
:104C2000ED91FC910480F581E02D1A82A980B12CD0
:104C3000CB80DC80ED80FE800F81188529853A8548
:104C4000452F632D0995BFEF8B1A9B0A182DEB8515
:104C50008E1608F4AFCF2E960FB6F894DEBF0FBEB7
:104C6000CDBFDF91CF911F910F91FF90EF90DF901B
:104C7000CF90BF90AF909F908F907F906F905F90FC
:104C80004F903F902F900895CF92DF92EF92FF9236
:104C90000F931F93CF93DF938C01C0E0D0E0CC2E15
:104CA000D8011496ED91FC911597808190E00C2E1F
:104CB00002C0959587950A94E2F780FF1CC07801A1
:104CC000EC0EFD1EF70181858823A9F06C2FC80129
:104CD00001DFD82ED7011F964C91841729F06C2F35
:104CE000C8012CDFF701D78642E050E06C2DD801D7
:104CF0008D919C9151DB2196C630D10581F6DF91D3
:104D0000CF911F910F91FF90EF90DF90CF9008957A
:104D10001F93CF93DF93EC01162FFC01E60FF11DDB
:104D20008185882369F011864785CE0107DF42E03F
:104D300050E0612F88819981DF91CF911F912CCB19
:104D4000DF91CF911F910895DF92EF92FF920F9321
:104D50001F93CF93DF93EC01D62E062F10E07C013A
:104D6000E00EF11E81E0F7018187CE01B3DEF7018D
:104D70008787EC81FD81208130E00D2C02C03595C4
:104D800027950A94E2F720FD04C06D2DCE01C0DF07
:104D900004C0482F6D2DCE01D1DE42E050E06D2DD4
:104DA00088819981F9DAC00FD11F8F8590E0DF915A
:104DB000CF911F910F91FF90EF90DF900895FC012C
:104DC00080E091E091838083128281E08383089563
:104DD000FC011182108213821282148216821582C3
:104DE0001086178281E0818712860895EF920F93D3
:104DF000FC0171836083538342832483E1860287AD
:104E00000F91EF90089521E030E002C0220F331F90
:104E10006A95E2F7FC01878190852823392381E098
:104E2000232B09F480E00895CF93DF93DC011796DC
:104E3000ED91FC911897442379F081E090E0062EE3
:104E400002C0880F991F0A94E2F78E2B9F2B1896A9
:104E50009C938E93179710C021E030E0062E02C07D
:104E6000220F331F0A94E2F7209530952E233F231B
:104E700018963C932E9317971A968C911A9788231D
:104E8000D1F0CD91DC911197E881F9810190F08109
:104E9000E02D442319F04FEF50E002C040E050E015
:104EA00012960D90BC91A02DA60FB11D6C91CE0154
:104EB000DF91CF910994DF91CF910895EF92FF9206
:104EC0000F931F93CF93DF93EC01F12C01E010E0DF
:104ED0006AC088819981DC011296ED91FC9113974B
:104EE000AA81BB81AF0DB11D0190F081E02D6C91C5
:104EF00002960995EE24E394019709F0E12C898547
:104F0000813081F4C8010F2C02C0880F991F0A94C8
:104F1000E2F72D813E8182239323892B91F5E110C5
:104F20001EC031C081112DC0C8010F2C02C0880FD6
:104F3000991F0A94E2F72D813E8182239323892BC6
:104F400001F1EE2061F098010F2C02C0220F331FF7
:104F50000A94E2F78D819E81822B932B21C0C80198
:104F60000F2C02C0880F991F0A94E2F72F81388511
:104F70008223932341E0892B09F040E06F2DCE017D
:104F800053DFE110E0CF98010F2C02C0220F331F36
:104F90000A94E2F7209530958D819E818223932398
:104FA0009E838D83F3948C81F81608F492CFDF9161
:104FB000CF911F910F91FF90EF9008950C940E37B1
:104FC0000C94A93708951F920F920FB60F921124D7
:104FD0002F933F938F939F93AF93BF9380916204DE
:104FE00090916304A0916404B091650430916A04C7
:104FF000232F2D5F2D3720F40196A11DB11D05C073
:10500000232F2A570296A11DB11D20936A04809375
:10501000620490936304A0936404B0936504809148
:10502000660490916704A0916804B09169040196A8
:10503000A11DB11D8093660490936704A09368043A
:10504000B0936904BF91AF919F918F913F912F9140
:105050000F900FBE0F901F9018950F931F938FB74F
:10506000F8940091620410916304209164043091DB
:1050700065048FBFB801C9011F910F9108957894FD
:1050800084B5826084BD84B5816084BD85B582604D
:1050900085BD85B5816085BDEEE6F0E080818160EB
:1050A0008083E1E8F0E010828081826080838081EB
:1050B00081608083E0E8F0E0808181608083E1EBC3
:1050C000F0E0808184608083E0EBF0E080818160AB
:1050D0008083EAE7F0E08081846080838081826061
:1050E000808380818160808380818068808310924A
:1050F000C1000895CF93DF93EC019C012A5F3F4FDD
:1051000041E050E060E070E08C819D810E943C3283
:105110008823A1F04E895F89688D798D452B462BB8
:10512000472B71F44E815F81688579854E8B5F8B4B
:10513000688F798F89818068898302C080E001C08F
:1051400081E0DF91CF910895BF92CF92DF92EF92ED
:10515000FF920F931F93CF93DF938C01FC01828901
:105160009389A489B589803E9F4FAF41B10508F06E
:1051700019C0C801BFDF8823A9F0D80116964D9148
:105180005D916D917C91199714968D919C911597D5
:105190000E9435316B017C0145E00E94E230EC0158
:1051A000009719F4C0E0D0E03AC080E092E0FE0140
:1051B0009C01119221503040E1F7BB24B39410C000
:1051C000B701A6014B0D511D611D711D9E018091FE
:1051D0006F04909170040E94543A882319F3B39499
:1051E000D8011496ED91FC9115978481B81640F37F
:1051F00090E0A0E0B0E029E0880F991FAA1FBB1F34
:105200002A95D1F7F8014289538964897589480F35
:10521000591F6A1F7B1F428B538B648B758BCE018A
:10522000DF91CF911F910F91FF90EF90DF90CF9082
:10523000BF900895CF93DF93EC01462F6E857F8555
:1052400088899989BFD7009749F02B81AC0160E22A
:10525000269F400D511D11249A0102C020E030E02C
:10526000C901DF91CF910895CF93DF93FB012BE02C
:1052700030E231932150E9F7DC0130E0C7E01DC096
:10528000CA3059F138E0CAE018C0E21731F1FC0128
:105290000196E491E111F9CFC317F8F02132E8F05B
:1052A0002F37D8F4FB01E30FF11D822F81568A318D
:1052B00010F4D22FD052D0833F5FCD012D91211118
:1052C00009C0FA018083918381E0FB0190819032D3
:1052D00061F403C02F3219F4F4CF80E006C0D22F5E
:1052E0002E3271F288E690E0D2CFDF91CF9108950F
:1052F0002F923F924F925F926F927F928F929F92E6
:10530000AF92BF92CF92DF92EF92FF920F931F93D3
:10531000CF93DF93EC01FB016A018A81811103C005
:105320002FEF3FEFC5C0898180FFFACF8EC06A01A1
:10533000C81AD90A76018F011E0126E0220E311CFF
:105340007EC04A855B856C857D85DB01CA019170D5
:10535000AA27BB275C018C819D81FC0154803A0106
:105360004B01A9E09694879477946794AA95D1F716
:105370002A81223049F4658976898789908D660D66
:10538000771D881D991D28C05A945620A114B10478
:10539000C1F4511016C0452B462B472B49F48E897A
:1053A0009F89A88DB98D8E839F83A887B98709C0EF
:1053B0004E815F8168857985910173D7882309F4CF
:1053C000AFCF4E815F81688579858C819D814DD776
:1053D000650D711D811D911DA114B10409F04DC011
:1053E000E114F2E0FF0608F448C0409072045090C7
:1053F00073046090740470907504641575058605D7
:10540000970509F049C039C0A80EB91EA201B5011F
:10541000C8010E944F3B03C0412C32E0532E040DC3
:10542000151D8A859B85AC85BD85840D951DA11DA7
:10543000B11D8A879B87AC87BD87E418F508E11406
:10544000F10409F07ECF960133C04A895B896C89EB
:105450007D898A859B85AC85BD854601A12CB12CB3
:105460008A019B01081B190B2A0B3B0B8016910626
:10547000A206B30608F05BCF5DCF20E032E02A1928
:105480003B0927012E153F0508F4290140E09AD673
:10549000009709F0B9CF44CF9801AB01BC018091CE
:1054A0006F04909170040E9452398111B5CF38CFAA
:1054B000C901DF91CF911F910F91FF90EF90DF9085
:1054C000CF90BF90AF909F908F907F906F905F90A4
:1054D0004F903F902F900895CF93DF931F92CDB7B9
:1054E000DEB741E050E0BE016F5F7F4F01DF019703
:1054F00019F4298130E002C02FEF3FEFC9010F906E
:10550000DF91CF9108958F929F92AF92BF92CF92E9
:10551000DF92EF92FF920F931F93CF93DF93EC01F3
:105520004A015B012A81222309F474C08A899B897C
:10553000AC89BD8984179507A607B70708F46AC028
:105540006BC081149104A104B10449F41E821F822E
:10555000188619861A861B861C861D8659C04A85A0
:105560005B856C857D85EC81FD81218530E0275F41
:105570003F4FDB01CA010197A109B109022E04C006
:10558000B695A795979587950A94D2F7CC24CA9497
:10559000DC2C7601C80CD91CEA1CFB1C04C0F69458
:1055A000E794D794C7942A95D2F7C816D906EA0685
:1055B000FB0620F0452B462B472B49F48E899F890B
:1055C000A88DB98D8E839F83A887B98715C0C81A07
:1055D000D90AEA0AFB0A10C04E815F816885798585
:1055E00098018C819D815DD691E0C91AD108E108AE
:1055F000F108811104C014C08E010A5F1F4FC1144D
:10560000D104E104F10441F78A869B86AC86BD860D
:1056100081E006C080E004C0223009F092CFF4CFD0
:10562000DF91CF911F910F91FF90EF90DF90CF907E
:10563000BF90AF909F908F900895EF92FF920F933D
:105640001F93CF93DF9300D000D0CDB7DEB78C018E
:10565000FC0186899789A08DB18D89839A83AB835C
:10566000BC83E12CF12C49815A816B817C819E01A4
:105670002F5F3F4FD80114968D919C91159711D6AD
:10568000882389F1D8011496ED91FC9115978481B6
:10569000E80EF11CE114B0E1FB0628F589819A813E
:1056A000AB81BC812289203131F4883F9F4FA10515
:1056B000B10530F4D8CF883F9F4FAF4FBF4098F22D
:1056C000A70160E070E099E0440F551F661F771F47
:1056D0009A95D1F7D80152964D935D936D937C9333
:1056E000559781E001C080E00F900F900F900F90D0
:1056F000DF91CF911F910F91FF90EF900895CF937D
:10570000DF93EC01FB018A81882311F080E03DC02A
:105710007D836C8382898031F9F421C083E08A83A0
:10572000458956896789708D4E8B5F8B688F798F1D
:10573000CE0183DF882351F381E089831E821F829B
:10574000188619861A861B861C861D861E861F864D
:10575000188A198A1B8219C08032C1F6DFCF82E015
:105760008A831E8A1F8A188E198E4389548960E0A5
:1057700070E025E0440F551F661F771F2A95D1F76B
:105780004A8B5B8B6C8B7D8BD7CFDF91CF9108954C
:105790000F931F93CF93DF93EC018A818823D1F17C
:1057A000898187FF32C061E0CE0144DD8C01009722
:1057B00089F1FC018081853E69F18A81823040F463
:1057C0004A895B896C897D89448F558F668F778F75
:1057D0004E895F89688D798DF801538F428F758B63
:1057E000648BE0916B04F0916C04309759F0B80130
:1057F0006A5E7F4FC80148960995F801808D918DAA
:10580000938B828B89818F778983DF91CF911F91D1
:105810000F9191C481E0888380E0DF91CF911F9147
:105820000F910895CF93DF93EC01B2DF1A82DF91DD
:10583000CF9108954F925F926F927F92AF92BF92F5
:10584000CF92DF92EF92FF920F931F93CF93DF934C
:1058500000D000D0CDB7DEB75C016A017B01FC014E
:105860008281813009F07CC0818181FF79C07AC05A
:10587000892B8A2B8B2B09F471C0F5014284538448
:1058800064847584B701A601C5013DDE811101C0A4
:1058900067C0F50184819581C114D104E104F1044C
:1058A00071F446895789608D718DF5D6882309F486
:1058B00057C0F501168A178A108E118E37C0F50170
:1058C00046815781608571859E012F5F3F4FE9D4E6
:1058D000882309F445C049815A816B817C81F50197
:1058E00084819581FC012289203139F4483FFFEF02
:1058F0005F0761057105D0F407C0483F2FEF5207DD
:1059000062072FE0720790F4C6D6882349F1F501AB
:1059100046815781608571850FEF1FEF2FEF3FE0C4
:105920008481958137D5811101C01AC0F501C28AE1
:10593000D38AE48AF58A818180688183C50128DF62
:10594000882371F0B701A6014C145D046E047F0436
:1059500010F4B301A201C501D6DD10C081E00EC074
:1059600080E00CC0F50182899389A489B5898417E8
:105970009507A607B70708F07BCFF2CF0F900F90DF
:105980000F900F90DF91CF911F910F91FF90EF90AB
:10599000DF90CF90BF90AF907F906F905F904F90CF
:1059A0000895FF920F931F93CF93DF93EC01F42E92
:1059B00080E2689FF0011124EA58FB4F83858171D2
:1059C00021F0842F827109F055C08091720490916A
:1059D0007304A0917404B09175048E879F87A88B7F
:1059E000B98B6B830489158920E030E09801112779
:1059F0000027828D938DA0E0B0E0082B192B2A2B75
:105A00003B2B0E8B1F8B288F398F8385887151F428
:105A1000848D958DA68DB78D8A8B9B8BAC8BBD8B22
:105A200081E007C0803131F5CE0107DE882311F116
:105A300084E08A838F2D8F7089831E821F8218864F
:105A400019861A861B861C861D86F4FE16C040E049
:105A500050E0BA01CE01EEDE81110FC00BC04A89C1
:105A60005B896C897D89CE01DF91CF911F910F9168
:105A7000FF9049CD1A8280E003C0F5FCF0CF81E0B1
:105A8000DF91CF911F910F91FF9008955F926F92D8
:105A90007F928F929F92AF92BF92CF92DF92EF92BE
:105AA000FF920F931F93CF93DF937C01EB016A0169
:105AB000722E8C819D81F7019583848340E050E0B4
:105AC000BA01CE0120DD612C45C0CE0105DD97FD78
:105AD000AEC00A851B852C853D8501501E4F2F4F7A
