:1000000086C00000ABC00000A9C00000A7C000006F
:10001000A5C00000A3C00000A1C000000C94830C88
:100020009DC000009BC0000099C0000097C0000068
:1000300095C0000093C0000091C000008FC0000078
:100040000C94E52A8BC0000089C0000087C0000026
:1000500085C0000083C0000081C000007FC0000098
:100060007DC000007BC00000270914092A092D0962
:10007000300930093009330933093309C80AB80A8D
:10008000CA0ABA0ABC0ABE0AC10AC40A811F531F9F
:10009000371F281F621F6B1F781F1A1FA21FB11F57
:1000A000BD1FD51F7C3C3E5E2B3D3F2F5B5D3B2C37
:1000B0002A225C0000000007000201000003040681
:1000C0000000000000000000010204081020408031
:1000D0000102040810200102040810200404040492
:1000E00004040404020202020202030303030303E2
:1000F00000000000250028002B0000000000240064
:1001000027002A00DC01540DFA1446393D0411245D
:100110001FBECFEFD8E0DEBFCDBF12E0A0E0B1E060
:10012000E6E6FBE702C005900D92A632B107D9F7CB
:1001300026E0A6E2B2E001C01D92AE39B207E1F7B7
:1001400010E0C6E8D0E004C02197FE010E947C3D8B
:10015000C238D107C9F78CD30C94F63B51CF860F28
:10016000911DFC0186810895860F911DFC018689F1
:100170000895860F911DFC01848D0895860F911DB1
:10018000FC0186810895860F911DFC0182810895EE
:10019000469608954C9608950696089502960895F9
:1001A00082E108958AE1089588E1089581E1089542
:1001B00089E1089580E108958091CA039091CB036D
:1001C0000E940726E1E6F3E0128281E083838091BA
:1001D000A5039091A603DC01ED91FC910480F581CB
:1001E000E02D0994CF93C62F682F8EE593E00E94EF
:1001F0006A146C2F8EE593E0CF910C94A814CF93E2
:10020000DF93CDB7DEB72B970FB6F894DEBF0FBEE6
:10021000CDBFBE016F5F7F4F8091C4039091C50336
:100220000E94A526BE016F5F7F4F8EE593E00E947E
:10023000C814E091C403F091C503618181ED93E09E
:100240000E94070CE091C403F091C503658D81ED18
:1002500093E00E944F0AE091C403F091C5038181AD
:1002600080938C0380918F03882321F087E893E0AB
:100270000E942A10E091C403F091C503868D8093FB
:100280004A032B960FB6F894DEBF0FBECDBFDF91A9
:10029000CF910895E091C403F091C503278530897B
:1002A000232B61F460914803709149030E946221FD
:1002B000E091A503F091A60393838283089540E023
:1002C00091E0282F880F330B642F70E062177307BB
:1002D0001CF4990F4F5FF8CF892F0895E091C40364
:1002E000F091C503278530892130310531F4E7DFEE
:1002F000E091A503F091A60385870895CF93DF933E
:10030000892BD1F48EE090E00E94E02AEC014AE4CF
:1003100053E06AEF71E00E94902060914803709171
:100320004903E091C403F091C503838594850E943D
:1003300062219B838A8317C083E190E00E94E02AB8
:10034000EC0120914803309149034AE453E06AEFFD
:1003500071E00E941C21E091C403F091C5038781E4
:100360009085ADDF8D87CE01DF91CF910895CF933A
:10037000DF93EC018091CA039091CB030E94072682
:100380001092630381E0809364038091A5039091B0
:10039000A603009711F00E94E22ACE01AFDF9093EE
:1003A000A6038093A50391E0CD2B09F090E09093F4
:1003B0000D04DF91CF91089586EC93E00E9486238F
:1003C00087EA93E0B8D280E993E00E944D2887E85D
:1003D00093E00E94151085E693E057D281E693E002
:1003E0000E94E4298EE593E00E9495138DE493E04A
:1003F0000C9433288091C103882339F18091CA037A
:100400009091CB030E94DC2580916403882319F02E
:10041000109264030CC08091630390E00196609198
:100420006103709162030E94333D8093630380E90E
:1004300093E00E944F2980916303837031F421E09F
:1004400041E066E081ED93E0CDC70895CF93DF935F
:10045000C82FD42F682F87E893E00E94B810E0914E
:10046000C403F091C503808190E00C2E02C09595E5
:1004700087950A94E2F7DD2339F080FF02C020E07F
:1004800001C021E041E004C080FF08C020E040E05E
:100490006C2F81ED93E0DF91CF91A4C7DF91CF91D5
:1004A0000895CF93DF93E091C403F091C50387854E
:1004B00090890197C9F48091C1038823A9F0E09144
:1004C000A503F091A6030190F081E02DC081D181B8
:1004D00081ED93E081D7BC018091A5039091A603A3
:1004E000FE01DF91CF910994DF91CF910895CF93D1
:1004F000DF93E091C403F091C50387859089892B30
:1005000009F040C08091510382303CF18091540346
:100510009091550360915603709157030E94333DAB
:10052000CB019927E091A503F091A60393838283E1
:1005300060914803709149030E947321E091C403C4
:10054000F091C503238534852817390731F0948746
:1005500083870388F489E02D0995E091A503F09144
:10056000A6030190F081E02DC081D18181ED93E05F
:1005700033D7BC018091A5039091A603FE01DF91C2
:10058000CF910994DF91CF910895CF93DF93E091BC
:10059000A503F091A6030190F081E02DC281D381E3
:1005A00081ED93E019D7BC018091A5039091A6033A
:1005B000FE01099580E993E00E944F29E091A5038F
:1005C000F091A6030190F081E02DC281D38181EDED
:1005D00093E002D7BC018091A5039091A603FE0190
:1005E000099587EA93E053D581ED93E0F5D6EC01C8
:1005F0008091A5039091A603DC01ED91FC9102800E
:10060000F381E02DBE010995BE018091CA0390914E
:10061000CB03DF91CF910C942426EF92FF920F939E
:100620001F93CF93DF93CDB7DEB72B970FB6F89418
:10063000DEBF0FBECDBF81E693E090934C03809365
:100640004B0310924A0381ED93E00E947A0C909341
:1006500049038093480326E045E653E061ED73E0EB
:1006600087E893E00E94231080E290E00E94E02A55
:100670008C010E943E261093C5030093C40382EFB1
:1006800090E0F801948383838EE691E092878187DE
:100690008AE491E09687858787EB91E0928B818B46
:1006A0008FEF90E0948B838B86E292E09093C90366
:1006B0008093C8036FE086EC93E00E94C42286EC2E
:1006C00093E00E944323BE016F5F7F4F8091C4037C
:1006D0009091C5030E94A526AE014F5F5F4F66E271
:1006E00072E08EE593E00E940614BE016F5F7F4FBB
:1006F0008EE593E00E94B414BE016F5F7F4F80913E
:10070000C4039091C5030E94D126E091C403F091E7
:10071000C50362818EE593E00E94A814E091C403B2
:10072000F091C50387859089E9DD9093A6038093B6
:10073000A503E091C403F091C50381E027853089CA
:10074000232B09F080E080930D04618181ED93E01B
:100750000E94070CE091C403F091C503658D81ED03
:1007600093E09DD688E190E00E94E02A7C014091D0
:10077000C4035091C50306E212E021E633E066ECC3
:1007800073E00E949224F092CB03E092CA0300919E
:10079000A5031091A6032091C4033091C50346EC34
:1007A00053E0B70180E993E00E94672885E693E073
:1007B000909315048093140481ED93E090932104A9
:1007C000809320048091CA039091CB0390931F04DF
:1007D00080931E0480E993E090931D0480931C0491
:1007E00086EC93E090931B0480931A048091C403D9
:1007F0009091C503909319048093180487E893E0BF
:10080000909317048093160481E693E0909311046B
:10081000809310048DE493E090930F0480930E0472
:100820008EE593E090931304809312046CED70E0D6
:1008300087EA93E035D187E792E090935D03809358
:100840005C032CED30E041E552E060E070E081EDCA
:1008500093E0A2D6D4DC2B960FB6F894DEBF0FBE81
:10086000CDBFDF91CF911F910F91FF90EF90089531
:100870000E943B2BD2DE89DEFECF8DE493E00E9406
:100880009B2786EC93E00C94D521FC0189E191E053
:100890009183808383E082838BE0838383E18483FD
:1008A0008BE1858384E086838CE0878384E1808785
:1008B0008CE1818785E082878DE0838785E184876D
:1008C0008DE1858786E086878EE0878786E1808B4D
:1008D0008EE1818B87E0828B8FE0838B87E1848B35
:1008E0008FE1858B81E1868B80E1878B82E1808F30
:1008F0008AE1818F89E1828F88E1838F81E0848F13
:10090000158E82E0868F89E0878F88E080A38AE059
:1009100081A3089508950C94E22AAB01A0912004CC
:10092000B0912104ED91FC9111970190F081E02D9F
:10093000682FCD010994CF93DF93EC012BE331E0D5
:10094000FC0121933193CF010E94ED291E861D8663
:100950001F86188A198A1A8A1D8A188E1F8A198E6C
:10096000DF91CF910895EF92FF920F931F93CF9352
:10097000DF937C01162F82E490E00E94E02AEC01D4
:1009800082E4DE011D928A95E9F78DE991E0998371
:10099000888381EF91E098878F839A8B898BCE0132
:1009A0004B960E94ED29CE0186960E94550EE0914D
:1009B0001804F0911904D70150960C91509759964C
:1009C0002C9146E06281CE010E94B918F701D687CA
:1009D000C587612F70E0708F678BDF91CF911F917A
:1009E0000F91FF90EF9008950F931F93CF93DF9394
:1009F0008C0182E090E0F801908F878B85E290E097
:100A00000E94E02AEC0185E2FE0111928A95E9F745
:100A100083E991E09983888381EF91E09F838E83BE
:100A2000998B888BCE014A960E94ED29F801408966
:100A3000618DCE010E948B16F801D687C587DF91A4
:100A4000CF911F910F910895FC01A585B68514964D
:100A50008C911497818F13968C911397808B10979C
:100A600041F0ED91FC9111970280F381E02DCD01D1
:100A700009940895CF93C0E08091140490911504D7
:100A8000DC01ED91FC910190F081E02D6C2F099536
:100A900060E070E042DFCF5FC03271F7CF91089520
:100AA000CF92DF92EF92FF920F93CF93DF93EC01FF
:100AB0006B01E0DF60E0CE0156DFDC8ECB8E81E0A3
:100AC0008A8F8091140490911504DC01ED91FC91C2
:100AD0000284F385E02D09956E01B2E0CB0ED11CA6
:100AE000AC014F5F5F4F6091200470912104EE24B0
:100AF000E394F12C01E024E0C6010E94FB294A8D19
:100B000061E0C601DF91CF910F91FF90EF90DF90F0
:100B1000CF900C94192ACF93C0E080911404909147
:100B20001504DC01ED91FC91C03128F40680F781B9
:100B3000E02D6C2F05C00084F185E02D60EF6C0F77
:100B4000099560E070E0E9DECF5FC43131F7CF9105
:100B500008950F931F93CF93DF938C01FC01708F47
:100B6000678BD9DF87E390E00E94E02AEC0187E3FE
:100B7000FE0111928A95E9F787EA91E099838883CB
:100B800085EC91E09B838A839F878E87CE014A966E
:100B90000E94ED29CE018C960E94ED29F801408932
:100BA000618DCE010E949F1CF801D687C5874289BE
:100BB00063E0C8010296DF91CF911F910F910C94D1
:100BC000192A0F931F93CF93DF938C01FC01708F31
:100BD000678BA1DF87E290E00E94E02AEC0187E2C8
:100BE000FE0111928A95E9F72FE731E0FE0121938A
:100BF0003193CF010E94ED2985EC91E09E878D878E
:100C00009A8F898FCE010E94EA10F801D687C58796
:100C1000DF91CF911F910F9108950F931F93CF9361
:100C2000DF93EC018C010E5F1F4F40E062E0C801D2
:100C30000E94192A8A89882329F040E063E0C801CC
:100C40000E94192A8D89882329F08A89811102C07E
:100C500011E007C060E0C8010E94082A811126C087
:100C600010E0AD85BE8513968C911397898F1296EF
:100C70008C911297888B109741F0ED91FC91119710
:100C80000280F381E02DCD010995112341F065E04B
:100C900070E0CE01DF91CF911F910F9192CF60E074
:100CA000CE01DF91CF911F910F915DCEDF91CF915A
:100CB0001F910F9108950F931F93CF93DF93EC0132
:100CC00083E090E0988F8F8BCE0125DF8CE090E061
:100CD0000E94E02A8C010E943E121E870D8780919F
:100CE000160490911704DF91CF911F910F910C94EE
:100CF000D4100F931F93CF93DF93EC018C010E5F01
:100D00001F4F61E0C8010E94082AED85FE85EF5B58
:100D1000FF4F808362E0C8010E94082A882341F0C7
:100D2000CE0192DECE01DF91CF911F910F91C3CF03
:100D300060E0C8010E94082A882341F0CE0184DEC9
:100D4000CE01DF91CF911F910F914ECE8A898823DA
:100D500029F063E0C8010E94082A01C08D89882318
:100D600051F0CE0171DE64E070E0CE01DF91CF91F1
:100D70001F910F9126CF8989882351F0CE0164DE1F
:100D800068E070E0CE01DF91CF911F910F91E1CE2D
:100D9000DF91CF911F910F9108950F931F93CF93E0
:100DA000DF93EC018A898E010E5F1F4F882329F0A3
:100DB00040E060E0C8010E94192A40E062E0C801FA
:100DC0000E94192A8A89882329F063E0C8010E94B9
:100DD000082A01C08D89811128C08D859E850097C4
:100DE00039F0DC01ED91FC910280F381E02D099551
:100DF0008A89811105C040E063E0C8010E94192A78
:100E00008F89988D8630910531F4CE01DF91CF9195
:100E10001F910F9150CF059731F4CE01DF91CF9103
:100E20001F910F91E1CD60E012C08E898823A9F057
:100E30008A89882391F08D859E85009739F0DC01A1
:100E4000ED91FC910280F381E02D099561E0CE01E6
:100E5000DF91CF911F910F9186CD89898823B1F0C1
:100E60008A89882399F08D859E85009739F0DC0169
:100E7000ED91FC910280F381E02D099567E070E02F
:100E8000CE01DF91CF911F910F9163CEDF91CF9172
:100E90001F910F9108950F931F93CF93DF93EC0150
:100EA0008C010E5F1F4F63E0C8010E94082AE09189
:100EB0001804F0911904878F898981114CC040E092
:100EC00063E0C8010E94192A8D859E85009739F03C
:100ED000DC01ED91FC910280F381E02D099561E048
:100EE00080911604909117040E94991040E060E0F0
:100EF000C8010E94192A4A8D61E0C8010E94192A7E
:100F00008F89988D8930910559F441E062E0C801DC
:100F10000E94192ACE01DF91CF911F910F91CBCE64
:100F2000079769F441E063E0C8010E94192A64E070
:100F300070E0CE01DF91CF911F910F9142CE40E042
:100F400062E0C8010E94192A60E0CE01DF91CF91D2
:100F50001F910F9108CD9C898B89992381F1811173
:100F600045C08D859E85009739F0DC01ED91FC919F
:100F70000280F381E02D0995CE01CDDD8AE190E07C
:100F80000E94E02A8C018AE1F80111928A95E9F722
:100F900085E791E0D80111969C938E9385EC91E0C2
:100FA00013969C938E9312971F969C938E931E97E5
:100FB000C8019FD71E870D8781E08B8B17C08823C0
:100FC000A9F08D859E85009739F0DC01ED91FC91AB
:100FD0000280F381E02D099540E060E0C8010E94A5
:100FE000192A6F89788DCE01B4DD1B8ADF91CF91EC
:100FF0001F910F9108950F931F93CF93DF93EC01EF
:101000008C010E5F1F4F40E060E0C8010E94192A6A
:1010100062E0C8010E94082A9D89992321F01A895B
:1010200091E0192701C010E09989911104C01111B4
:1010300002C0811127C08D859E85009739F0DC01A3
:10104000ED91FC910280F381E02D09958989882337
:1010500041F069E070E0CE01DF91CF911F910F91D7
:1010600078CD112341F066E070E0CE01DF91CF91A1
:101070001F910F91A6CD60E0CE01DF91CF911F911E
:101080000F9171CCDF91CF911F910F910895EF9245
:10109000FF920F931F93CF93DF93EC01E091200415
:1010A000F09121040280F381E02D0281138180916F
:1010B000140490911504DC01ED91FC91008CF18DEC
:1010C000E02D09952091200430912104682FC90159
:1010D0000296F8010995898BE0912004F091210492
:1010E0000280F381E02D028113818091140490919C
:1010F0001504DC01ED91FC91028CF38DE02D099536
:101100002091200430912104682FC9010296F80132
:1011100009958D8BE0912004F09121040280F381E8
:10112000E02D028113818091140490911504DC015B
:10113000ED91FC91048CF58DE02D09952091200412
:1011400030912104682FC9010296F80109958C8B12
:10115000E0912004F09121040280F381E02D0281CE
:1011600013818091140490911504DC01ED91FC91A0
:101170000688F789E02D09952091200430912104FB
:10118000682FC9010296F80109958E8BE091180429
:10119000F0911904878D8A8B8989811103C000E041
:1011A00010E002C00FEF10E080911404909115043C
:1011B000DC01ED91FC91008CF18DE02D0995B801D9
:1011C000ACDB8E010E5F1F4F61E0C8010E94082A50
:1011D000E82EC8010E94602A61E0C8010E94082A26
:1011E000F82E2F89388D285031092230310598F09A
:1011F000EE2029F0811103C0EB8DFC8D0995FA8E4C
:10120000EF1449F0E0911804F09119048785908952
:10121000892B09F460C0EF89F88DEA30F10578F583
:10122000EC5CFF4F0C947C3D61E0C8010E94082AF1
:10123000ED85FE85EF5BFF4F80838E8981111FC096
:10124000CE0102DC64E070E0CE01BBDC18C0CE0150
:1012500050DD15C0CE01E1DC12C0CE01CCDE0FC0E6
:10126000CE019BDD0CC0CE0116DEE0911804F0919A
:10127000190487859089892B11F403E001C000E0EF
:1012800010E08D859E85009739F0DC01ED91FC9191
:101290000480F581E02D0995E0911004F09111048E
:1012A00082818F7029F48A8D882311F00FEF10E06E
:1012B0008091140490911504DC01ED91FC91028859
:1012C000F389E02D0995B801DF91CF911F910F911E
:1012D000FF90EF9022CB8091200490912104DC01BB
:1012E000ED91FC910480F581E02D21E041E067E083
:1012F000099591CF80E008950895089580E00895BC
:1013000008950895089581E008950F931F93CF9352
:10131000DF93FC01EA01262F269526952695677016
:1013200081E090E08C0101C0000F6A95EAF751E07E
:10133000CF3FD10509F050E030E0BE016D7F613054
:10134000710511F0552359F0CF01820F931FDC0175
:101350005A966C915A97702F7095672308C0CF01E9
:10136000820F931FDC015A966C915A97602B5A9604
:101370006C93E20FF31F229711F0552339F0802F61
:101380008095368D982F9323968F03C0868D802B62
:10139000868FDF91CF911F910F910895262F26956B
:1013A00026952695820F911DFC0186A190E067701D
:1013B00002C0959587956A95E2F781700895029726
:1013C000EDCFDC01ED91FC910284F385E02D0995D0
:1013D00090E008950297F5CFF894FC01808D918DEF
:1013E000789408950F931F93FC015781222379F07D
:1013F00001E010E020E030E0062E04C0000F111FD5
:10140000221F331F0A94D2F7052B07830FC081E0F8
:1014100090E0A0E0B0E0062E04C0880F991FAA1F3C
:10142000BB1F0A94D2F780958523878370E04423FD
:1014300031F0E60FF71F80898F5F808B13C0DB01CF
:10144000A050BF4F41E050E060E070E00C9004C05D
:10145000440F551F661F771F0A94D2F74095868167
:10146000482346831F910F91089520E030E090E0DB
:10147000AC01022E02C0559547950A94E2F740FF51
:1014800002C0459A01C04598289A28982F5F3F4F7F
:101490002830310569F70895299A29980895FC01A3
:1014A000658308950F931F93FC0140A951A962A978
:1014B00073A9DA0199278827482759276A277B27A4
:1014C000DB01CA0125E0B695A795979587952A95E2
:1014D000D1F7482759276A277B2784A995A9A6A968
:1014E000B7A980AB91ABA2ABB3AB00AD11AD22AD50
:1014F00033AD04AB15AB26AB37AB80279127A227C2
:10150000B32784279527A627B727440F551F661FA3
:10151000771F8C019D010427152726273727C9012E
:10152000B80100AF11AF22AF33AF1F910F910895F3
:10153000CF93DF93C62FD42FB5DF9B01AC01442797
:101540005527AD2FB0E0AC1BB1090E94923D8C0F26
:10155000DF91CF910895DC011596EC914E2F50E06C
:1015600048305105A0F4FA01E25CFF4F0C947C3D39
:1015700083E008958EE0089543E004C04AE063E00C
:1015800005C04EE061E002C04EE067E0D1CF0895B3
:1015900081E0089587E00895FC018AEA90E0A0E0E8
:1015A000B0E080AB91ABA2ABB3AB85EE90E0A0E036
:1015B000B0E084AB95ABA6ABB7AB85EB90E0A0E019
:1015C000B0E080AF91AFA2AFB3AFF8943D9A209A4C
:1015D000219A289829983B985498529857983C9A61
:1015E000559A539A569A439A5C9A5A9A5F9A449893
:1015F0005D985B985E983898409873A762A755A746
:1016000044A737A726A78FEF8483158282E08093B3
:10161000B000E0E7F0E080818260808387E0809323
:10162000B10081E18093B3001092B2007894509A97
:1016300058980895CF93DF93EC018091CF038111E7
:1016400003C0CE014A9602C0CE014E962091CE0331
:10165000FC01E20FF11D808108DF9C818E818923CE
:1016600004DF1ADF8091CE03813049F030F0823000
:1016700041F0833039F45E9A05C0449A03C05D9A04
:1016800001C05B9A8091CE0390E001968370992708
:101690008093CE03892B41F48091CF0390E0019693
:1016A000817099278093CF03DF91CF910895EF92B6
:1016B000FF920F931F93CF93DF93EC0144985D98B3
:1016C0005B985E982091D00330E02F5F3F4F2770EA
:1016D00033272093D00381E090E001C0880F2A9542
:1016E000EAF78095C2DE9C818E818923BEDED4DE3E
:1016F0008AE000008150E9F78091D0039EA13399E0
:101700000FC001E010E020E030E0082E04C0000F20
:10171000111F221F331F0A94D2F7092B0EA30FC0EB
:1017200041E050E060E070E0082E04C0440F551F17
:10173000661F771F0A94D2F7409549234EA39FA1B5
:101740004C990FC001E010E020E030E0082E04C00A
:10175000000F111F221F331F0A94D2F7092B0FA36A
:101760000FC041E050E060E070E0082E04C0440F7C
:10177000551F661F771F0A94D2F7409549234FA340
:1017800098A54A990FC001E010E020E030E0082E53
:1017900004C0000F111F221F331F0A94D2F7092B18
:1017A00008A70FC041E050E060E070E0082E04C0E0
:1017B000440F551F661F771F0A94D2F7409549239F
:1017C00048A729A541E050E060E070E04F990AC0C9
:1017D00004C0440F551F661F771F8A95D2F7422B0E
:1017E00049A70EC07A018B0104C0EE0CFF1C001F3C
:1017F000111F8A95D2F7D801C7018095822389A746
:10180000DF91CF911F910F91FF90EF9008958F92EC
:101810009F92AF92BF92CF92DF92EF92FF92CF93BF
:10182000DC01E0E0F1E020E030E0862F90E0812C68
:10183000912C540183941496CC911497BC01022EE0
:1018400002C0759567950A94E2F760FF0FC07501B5
:101850006401008004C0CC0CDD1CEE1CFF1C0A944B
:10186000D2F7CC2A1496CC9214970FC0B501A401DC
:10187000008004C0440F551F661F771F0A94D2F7DB
:1018800040954C2314964C9314972F5F3F4F3196FD
:101890002630310581F6CF91FF90EF90DF90CF9009
:1018A000BF90AF909F908F900895CF93FC0184AD2F
:1018B000882341F0519A868181FF02C0599A18C04D
:1018C000599816C086A597A5892B91F05198599AD9
:1018D00089B181FBCC27C0F981FF08C08091CD037D
:1018E000811104C006A4F7A5E02D0995C093CD038E
:1018F000CF9108956091B30070E089E09DE30E946C
:10190000333DCB0108951F920F920FB60F92112411
:101910008F929F92AF92BF92CF92DF92EF92FF92FF
:101920000F931F932F933F934F935F936F937F93E7
:101930008F939F93AF93BF93CF93DF93EF93FF93D7
:101940008091E9039091EA0301969093EA038093D2
:10195000E90301EE13E0C9EDD3E080E0C82E81E099
:10196000D82EE12CF12C812C912C54018394F80178
:101970008081882341F18091D703F6019081282F3F
:1019800030E0092E02C0359527950A94E2F7B5019B
:10199000A40104C0440F551F661F771F9A95D2F704
:1019A00020FF05C0409584238093D70330C0482B87
:1019B0004093D70381ED93E0CEDD8883F8018081E9
:1019C0008150808324C08881882309F18130E9F423
:1019D0002091D80330E00E2C02C0359527950A944B
:1019E000E2F720FF12C0B501A401F601008004C097
:1019F000440F551F661F771F0A94D2F74095209118
:101A0000D703942F92239093D70381508883FFEFBD
:101A1000EF1AFF0A0F5F1F4F21968FEFC81AD80ADF
:101A2000E8E0EE16F10409F0A2CF81ED93E03FDE8D
:101A300081ED93E0FFDD8091D70380FF02C0589ACB
:101A400001C0589881ED93E030DFE091FD03F09103
:101A5000FE03309761F086B1C82FC17080FF05C0CA
:101A60008091CC03811101C00995C093CC03FF91F3
:101A7000EF91DF91CF91BF91AF919F918F917F9126
:101A80006F915F914F913F912F911F910F91FF9017
:101A9000EF90DF90CF90BF90AF909F908F900F907E
:101AA0000FBE0F901F901895E1EDF3E085E491E0F3
:101AB0009183808383E691E09383828308950895E0
:101AC0000C94E22A4F925F926F927F929F92AF9214
:101AD000BF92CF92DF92EF92FF920F931F93CF931B
:101AE000DF9300D0CDB7DEB72C01DC0116968D91C7
:101AF0009C91179719969C938E9318976201BAE060
:101B0000CB0ED11CC6010E94602A8FEFF201858B9B
:101B100000E010E0AA24A394B12C902ED2011296DA
:101B2000ED91FC9113970280F381E02DE280F38028
:101B300014968D919C911597DC01ED91FC91068096
:101B4000F781E02D602F0995F20122813381682F02
:101B5000C9010296F7010995882319F0D20155961B
:101B60000C937501002E02C0EE0CFF1C0A94E2F7E4
:101B7000F201868197818E219F2177247394892B8E
:101B800009F4712C692DC6010E94082A781609F4FF
:101B900074C08823D9F1D20157968C91882311F013
:101BA00040E03CC0D2011296ED91FC911397019058
:101BB000F081E02D6080718058968C91082E000C89
:101BC000990B0817190719F043E050E002C04FEFD6
:101BD00050E0F20184819581DC01ED91FC91068059
:101BE000F781E02D692D49835A83099549815A81EE
:101BF000682FF20182819381F3010995D201169633
:101C00008D919C911797E82AF92A33C0F2018689B1
:101C1000811103C08789882331F041E0692DC60115
:101C20000E94192A2AC0D2010280F381E02D01907E
:101C3000F081E02D6080718014968D919C911597B4
:101C4000DC01ED91FC910680F781E02D692D09956D
:101C500040E050E0682FF20182819381F301099501
:101C6000E094F094D20116968D919C911797E822FA
:101C7000F9221796FC92EE9216970F5F1F4F0031D4
:101C8000110509F04ACF0F900F90DF91CF911F916E
:101C90000F91FF90EF90DF90CF90BF90AF909F900B
:101CA0007F906F905F904F900895CF93DF93EC01FA
:101CB0008BE691E0998388831B821A821D821C82A5
:101CC0001F821E8219861886CE010A960E94ED296F
:101CD0008FEF8D8B1E8A1F8A888FDF91CF91089599
:101CE000EF92FF920F93CF93DF93EC017B836A8394
:101CF0005D834C83DA01ED91FC910684F785E02D3C
:101D0000CA0109956A817B81E12CF12C00E020E178
:101D1000AC01CE010A960E94FB29DF91CF910F9171
:101D2000FF90EF9008957F928F929F92AF92BF9213
:101D3000CF92DF92EF92FF920F931F93CF93DF9397
:101D4000EC017F836E837987688700E010E0CC2404
:101D5000C394D12C5E018AE0A80EB11C702E2E8196
:101D60003F81C601002E02C0880F991F0A94E2F736
:101D700028233923FF24F394232B09F4F12C4F2D2E
:101D8000672DC5010E94192AEA81FB810190F0812B
:101D9000E02D80809180F11003C0E12CF12C03C074
:101DA00083E0E82EF12C8C819D81DC01ED91FC918A
:101DB0000680F781E02D672D0995A701682F8A819C
:101DC0009B81F40109950F5F1F4F0031110531F61A
:101DD000DF91CF911F910F91FF90EF90DF90CF9007
:101DE000BF90AF909F908F907F900895FC012681C7
:101DF000378120953095808591858223932308959E
:101E0000FC0120853185209530958681978182233C
:101E100093230895CF92DF92EF92FF921F93CF9377
:101E2000DF93EC01988D492F092E000C550B262FBE
:101E300030E04217530709F451C0162F9F3F61F15C
:101E4000EA81FB810190F081E02DE080F18021E0CA
:101E500030E0092E02C0220F331F0A94E2F74E81B0
:101E60005F8124233523232B19F4C12CD12C03C0EB
:101E700083E0C82ED12CAC81BD81ED91FC911197EE
:101E80000680F781E02D692FCD010995A601682F05
:101E90008A819B81F7010995188F1F3FF9F0EA812C
:101EA000FB810190F081E02DE080F1808C819D81AB
:101EB000DC01ED91FC910680F781E02D612F099501
:101EC0004FEF50E0682F8A819B81F701DF91CF911E
:101ED0001F91FF90EF90DF90CF900994DF91CF9109
:101EE0001F91FF90EF90DF90CF90089508950C948C
:101EF000E22A0F931F93CF93DF93EC018091140498
:101F000090911504DC01ED91FC910088F189E02DA0
:101F100009958E010E5F1F4F60912004709121047E
:101F200028E0AC01C8010E949F2180911404909187
:101F30001504DC01ED91FC910684F785E02D0995EF
:101F40002E96AC014C5F5F4F60912004709121048C
:101F50002CE0CE010E949F21E0911804F091190419
:101F6000658DC8010E94B621E0911804F091190412
:101F7000668DCE01DF91CF911F910F910C94B62108
:101F8000EF92FF920F931F93CF93DF9300D0CDB7C3
:101F9000DEB78C017C0182E0E80EF11CC7010E94D3
:101FA0004027025F1F4FC8010E9440271A82BE01CE
:101FB0006E5F7F4FC7010E947927E0911804F0916E
:101FC0001904882351F08A81958D981751F0858FD7
:101FD0000388F489E02D099504C0658DC7010E942E
:101FE000B6211982BE016F5F7F4FC8010E94792719
:101FF000E0911804F0911904882351F08981968D9D
:10200000981751F0868F0388F489E02D099504C054
:10201000668DC8010E94B6210F900F90DF91CF917D
:102020001F910F91FF90EF900895FC011182108293
:10203000138212828AE084838FEF8583168217824F
:1020400081E080870895FC0171836083538342831C
:1020500024830895CF92DF92EF92FF921F93CF9344
:10206000DF9300D0CDB7DEB76C0110E0D601149637
:102070008C91181708F053C0212FD60117968C9118
:10208000179790E0012E02C0959587950A94E2F784
:1020900080FF0BC015968C9190E0012E02C09595A3
:1020A00087950A94E2F7817001C080E0F60196817D
:1020B0004085442389F081110CC0892F90E002C033
:1020C000959587952A95E2F780FF06C043E050E09A
:1020D00005C04FEF50E002C040E050E0D601ED9166
:1020E000FC9111970190F081E02DE080F180129633
:1020F0008D919C911397DC01ED91FC910480F58109
:10210000E02D612F49835A83099549815A81682FAF
:10211000F60180819181F70109951F5FA7CF0F908C
:102120000F90DF91CF911F91FF90EF90DF90CF90B4
:102130000895FC0160878ECFFC017681442349F02D
:1021400041E050E001C0440F6A95EAF7472B46830F
:102150000AC021E030E001C0220F6A95EAF720951D
:102160002723FC012683FC012085211173CF0895CC
:10217000FC017781442349F041E050E001C0440F65
:102180006A95EAF7472B47830AC021E030E001C097
:10219000220F6A95EAF720952723FC012783FC018B
:1021A0002085211157CF08950F931F93CF938C0152
:1021B000C0E0F8018481C81730F440E06C2FC801FA
:1021C000BBDFCF5FF6CFCF911F910F910895089598
:1021D0000C94E22ACF92DF92EF92FF920F931F931B
:1021E000CF93DF93EC01E0911804F0911904828100
:1021F0008DA382958F708EA3809114049091150405
:10220000DC01ED91FC910484F585E02D09956E01CA
:10221000B2E0CB0ED11C6091200470912104EE2419
:10222000E394F12C00E026E0AC01C6010E94FB29FA
:102230008091140490911504DC01ED91FC910684C9
:10224000F785E02D09958E01035F1F4F60912004F3
:102250007091210420E1AC01C8010E949F216DA171
:102260006F70C8010E94B6218091140490911504EA
:10227000DC01ED91FC910088F189E02D0995045F66
:102280001F4F609120047091210424E0AC01C8012B
:102290000E949F216EA1C8010E94B62100E010E0BB
:1022A000E0911804F0911904418150E0002E02C021
:1022B000559547950A94E2F7C42FC1704C2F602FB3
:1022C000809116049091170437DF4C2F602FC601C0
:1022D0000E94192A0F5F1F4F0630110509F7DF9181
:1022E000CF911F910F91FF90EF90DF90CF900895C5
:1022F000EF92FF920F931F93CF93DF931F92CDB76F
:10230000DEB78C017C0189E1E80EF11CC7010E9457
:102310004027BE016F5F7F4FC7010E947927882346
:1023200029F0F80196A18981891306C0F80166A1F8
:10233000C7010E94B62117C0F80185A182958F7050
:10234000891304C0C8010D960E9484218981F80177
:1023500086A365A1962F92959F70981304C06F7005
:10236000C8010D96E6CF0F90DF91CF911F910F918D
:10237000FF90EF900895BF92CF92DF92EF92FF927D
:102380000F931F93CF93DF9300D0CDB7DEB78C01AF
:10239000AFDF68012DE0C20ED11CC6010E944027AC
:1023A000780182E0E80EF11CC7010E94602A1982C0
:1023B000BE016F5F7F4FC6010E947927F80196A189
:1023C0006981F0E19F9F600D11246983882371F07A
:1023D000F80185A1681751F08091180490911904B3
:1023E0000E947B268981F80185A339C000E010E0B6
:1023F000CC24C394D12CB02E602FC7010E94082A90
:10240000E0911804F09119049181292F30E0002EF9
:1024100002C0359527950A94E2F721708217D1F012
:102420009601002E01C0220F0A94EAF7882311F0CA
:10243000922B02C02095922391830388F489E02D8A
:102440008A8309958A81482F6B2D8091160490917B
:10245000170472DE0F5F1F4F0630110561F60F90F3
:102460000F90DF91CF911F910F91FF90EF90DF9030
:10247000CF90BF90089508950C94E22AFC0189E85A
:1024800091E091838083148281E085831782168294
:102490008287838708958F929F92AF92BF92CF9247
:1024A000DF92EF92FF920F931F93CF93DF93D62E7D
:1024B0005901F801611109C08081811103C0D9015E
:1024C0001D921C9281E0808301C010828701E42E5E
:1024D000F12CC0E0D0E088248394912CCE15DF0548
:1024E00039F1F5018081918194010C2E02C0220FF7
:1024F000331F0A94E2F782239323892B21F4CC2003
:1025000029F0DC1203C04FEF50E002C040E050E081
:10251000D8016D918D018091200490912104DC01FE
:10252000ED91FC910190F081E02D09952196D6CF97
:10253000DF91CF911F910F91FF90EF90DF90CF909F
:10254000BF90AF909F908F900895AF92BF92CF921F
:10255000EF92FF920F931F93CF935C01E0911004D1
:10256000F0911104C2818091140490911504DC0152
:10257000ED91FC910088F189E02D09958501055FB9
:102580001F4F9501285F3F4F6C2F6370C12C7C015A
:1025900044E0C50180DF8091140490911504DC01B2
:1025A000ED91FC910684F785E02D09950150110904
:1025B00095012A5F3F4F6C2F70E076956795769571
:1025C00067956F70CC24C3947C0140E1C50163DF43
:1025D000CF911F910F91FF90EF90CF90BF90AF9050
:1025E00008956F927F928F929F92AF92BF92CF92F7
:1025F000DF92EF92FF920F931F93CF93DF938C01A3
:10260000C0E0D0E0E12CF12CAA24A394B12C650108
:102610000C2E02C0CC0CDD1C0A94E2F7D8011296F5
:102620006D907C9013976C207D20E0912004F091B8
:1026300021040280F381E02D828093808091140434
:1026400090911504DC01ED91FC910480F581E02D61
:102650006C2F09952091200430912104682FC90125
:102660000296F40109956728C9F5882309F43FC04B
:102670006C2F80911C0490911D040E94B0299C0134
:1026800036952795369527952F703327A50102C0DB
:10269000440F551F2A95E2F79A01D80116964D91DD
:1026A0005C911797242B352B17963C932E931697F6
:1026B00083709927F50102C0EE0FFF1F8A95E2F79C
:1026C000CF0118962D913C911997822B932B199637
:1026D0009C938E931897EC28FD280DC08111FBCF99
:1026E0006C2F80911C0490911D040E949529C09428
:1026F000D094EC20FD202196C630D10509F087CF7B
:10270000D8011396FC92EE921297C801DF91CF91F7
:102710001F910F91FF90EF90DF90CF90BF90AF90FF
:102720009F908F907F906F9010CF08954F925F92FF
:102730006F927F928F929F92AF92BF92CF92DF92D1
:10274000EF92FF920F931F93CF935C0147016A01B1
:102750007B01C0E0280139014C185D086E087F0834
:1027600001E010E08114910471F1F4018C2F829545
:102770008F70E80FF11DE80FF11D8C2F8F709801FD
:1027800002C0220F331F8A95E2F7C90120813181EF
:1027900082239323892BB9F4CF5F32E0D30EE11C5F
:1027A000F11CC034F9F6CF911F910F91FF90EF907B
:1027B000DF90CF90BF90AF909F908F907F906F9061
:1027C0005F904F900895B701A60186E294E00E94C1
:1027D0007F2DF5016181728142E251E086E294E051
:1027E0000E94602CB301A2014C0D5D1D6E1D7F1D6A
:1027F00086E294E00E947F2DF5016181728142E2C0
:1028000051E082E294E00E94A033C6CFCF92DF92E3
:10281000EF92FF920F931F93CF93DF936C018B0185
:102820007A01FC017283618342E06AE080E494E013
:102830000E94643343E068E071E086E294E00E9425
:10284000CF31811133C086E294E00E94092F43E624
:1028500068E071E086E294E00E94CF3181110CC003
:1028600086E294E00E94092F43E068E071E086E28E
:1028700094E00E94CF311AC0C0E8D0E042E251E0BB
:10288000B80182E294E00E94A0334BE050E0B7012F
:1028900082E294E00E94A03343ED50E0B80182E26E
:1028A00094E00E94A033219749F7DACFE12CF12C74
:1028B00000E010E0980140E050E860E070E0C60100
:1028C00035DFDF91CF911F910F91FF90EF90DF9057
:1028D000CF900895CF93DF93EC01462F50E0542F13
:1028E0004427550F052E000C660B770B86E294E00B
:1028F0000E947F2D69817A8142E251E082E294E078
:10290000DF91CF910C94A033EF92FF920F931F931E
:10291000CF93DF937C01E90170E0762F6627770F74
:10292000460F571F60E070E086E294E00E947F2D22
:10293000F701618172816C0F7D1FA80186E294E02E
:10294000DF91CF911F910F91FF90EF900C94602C2D
:102950000F931F9302E211E020E030E040E050E0EE
:10296000D3DF1F910F910895CF93DF93EB0142E2E4
:1029700051E060E070E086E294E00E947F2D4BE041
:1029800050E0BE0186E294E0DF91CF910C94602C80
:10299000CF93DF93EB0142E251E060E070E086E22A
:1029A00094E00E947F2D4BE050E0BE0182E294E073
:1029B0000E94A03342E251E860E070E086E294E0D9
:1029C0000E947F2D4BE050E0BE0182E294E00E9425
:1029D000A03342E253E060E070E086E294E00E94BF
:1029E0007F2D4BE050E0BE0186E294E0DF91CF9175
:1029F0000C94602CE0E4F4E089E181831482178A6E
:102A0000168E10A2E2E2F4E0148216821382128281
:102A10008FE092E091838083089508950C94E22AD8
:102A20006130710541F06230710539F0672B11F4A6
:102A30008FEF04C0089580E001C083E090E0089526
:102A40002F923F924F925F926F927F928F929F92BE
:102A5000AF92BF92CF92DF92EF92FF920F931F93AC
:102A6000CF93DF93CDB7DEB7A2970FB6F894DEBF52
:102A70000FBECDBF7C0180911A0490911B04DC0134
:102A8000ED91FC910280F381E02DD70113966C91BA
:102A90000995882E80911A0490911B04DC01ED9118
:102AA000FC91D70112966C916295607F0484F58544
:102AB000E02DAE014F5F5F4F0995F70142804294D0
:102AC00090EF49228E010F5F1F4FC12CD12C512C4A
:102AD000912C3701F0E16F0E711C17018AE1280E6D
:102AE000311CCAA2C601840D951D881599051CF0DC
:102AF000A12CB12C03C0AA24AA94B12CBE016F5DF5
:102B00007F4FC3010E947927811106C0D8016D91C2
:102B10007C91C70185DF5C018091140490911504BC
:102B2000DC01ED91FC910680F781E02D6AA1099509
:102B3000B5010E948D0441E0BFEFAB16B10409F06E
:102B400040E06AA1C1010E94192AEFEFCE1ADE0A05
:102B50000E5F1F4FF0E1CF16D10419F6A2960FB603
:102B6000F894DEBF0FBECDBFDF91CF911F910F91C3
:102B7000FF90EF90DF90CF90BF90AF909F908F909D
:102B80007F906F905F904F903F902F900895AF92FD
:102B9000BF92DF92EF92FF920F931F93CF93DF9339
:102BA0001F92CDB7DEB77C011982BE016F5F7F4FE8
:102BB00040960E947927D82E80911A0490911B0488
:102BC000DC01ED91FC910280F381E02D6981099592
:102BD00090E09C012150310937FF02C0215F3F4F37
:102BE00054E0359527955A95E1F7022FDD2001F144
:102BF00016E080911A0490911B04DC01ED91FC9188
:102C00000280F381E02D69810995482F50E09A01F7
:102C10002150310937FF02C0215F3F4F44E0359515
:102C200027954A95E1F7021708F4022F115009F78A
:102C300010E0F7018281181729F0011738F4A12C50
:102C4000B12C07C0AA24AA94B12C03C083E0A82EFB
:102C5000B12C8091140490911504DC01ED91FC914C
:102C60000084F185E02D612F0995B5010E948D0446
:102C70001F5F1430F1F610E081E0D8268981181723
:102C800011F04D2D01C041E0612F8091160490910B
:102C9000170452DA1F5F163089F7C701D1DE0F9093
:102CA000DF91CF911F910F91FF90EF90DF90BF9038
:102CB000AF9008950F931F93CF938C0180911A04C6
:102CC00090911B04C1E0C60FDC01ED91FC914423FF
:102CD000A1F00684F785E02D462FD80113966C915C
:102CE00009954C2FF801638180911E0490911F0477
:102CF000CF911F910F910C94DD250088F189E02D73
:102D000009956C2F80911E0490911F04CF911F9103
:102D10000F910C94F425EF92FF920F931F93CF9392
:102D2000DF93EC01F62E6B834A838091140490911B
:102D30001504DC01ED91FC910088F189E02D0995E5
:102D4000E0912004F0912104309721F0BF016E5FE3
:102D50007F4F02C060E070E024E0AC01CE01069637
:102D60000E941A278091140490911504DC01ED91C2
:102D7000FC910484F585E02D0995E0912004F09103
:102D80002104309721F0BF016E5F7F4F02C060E0E9
:102D900070E08E01005F1F4F26E0AC01C8010E9469
:102DA0001A276F2DC8010E94252780911404909145
:102DB0001504DC01ED91FC910684F785E02D099561
:102DC0006091200470912104EE24E394F12C00E042
:102DD00020E1AC01CE014A960E94FB29CE01DF9191
:102DE000CF911F910F91FF90EF90D1CE5F926F9294
:102DF0007F928F929F92AF92BF92CF92DF92EF928B
:102E0000FF920F931F93CF93DF9300D0CDB7DEB720
:102E10008C011A827C0180E1E80EF11CBE016E5F1C
:102E20007F4FC7010E947927A82E680196E0C90E3E
:102E3000D11CC6010E944027C7010E944027C8013B
:102E40004A960E94602ABE016E5F7F4FC7010E94B2
:102E50007927B82E8A1109C08823C1F0D8011396AA
:102E60009C918A81981303C011C0882311F08A8134
:102E700002C0F8018381D80113968C9313971296A0
:102E80001C9260E0C6010E942527CCC0E09120047E
:102E9000F09121040280F381E02DE280F3808091A3
:102EA000140490911504DC01ED91FC91008CF18DDE
:102EB000E02D09952091200430912104682FC9014B
:102EC0000296F70109958823B1F1F12CE0912004D5
:102ED000F09121040280F381E02D82809380809123
:102EE000140490911504DC01ED91FC910084F185AE
:102EF000E02D6F2D09952091200430912104682F39
:102F0000C9010296F4010995882351F06F2D62954D
:102F1000607F615F4B2DC801CDDEC80138DE04C083
:102F2000F394F4E0FF12D2CFD80112966C91C6014F
:102F30000E9425270EC01982BE016F5F7F4FC60118
:102F40000E947927882329F08981F80192819813BA
:102F500068C0C12CD12C88248394912CAC2C740192
:102F60000C2C02C0EE0CFF1C0A94E2F7D801149658
:102F70008D919C9115978E219F2155245394892BD7
:102F800009F4512CE0912004F09121040280F38196
:102F9000E02D608071808091140490911504DC0113
:102FA000ED91FC910680F781E02D6A2D0995209125
:102FB000200430912104682FC9010296F30109957C
:102FC00021E0D80114964D915C911597892B61F4FD
:102FD00020E0C701809590957A01E822F9221596A4
:102FE000FC92EE92149705C0E42AF52AF801F582C6
:102FF000E482D80112968C91251551F06A2DB0E12A
:103000008B9F600D11244B2DC80154DEC801BFDD1C
:10301000EFEFCE1ADE0AF0E1CF16D10409F09ECF11
:1030200003C08283C801B3DD0F900F90DF91CF9171
:103030001F910F91FF90EF90DF90CF90BF90AF90D6
:103040009F908F907F906F905F9008950F931F9344
:10305000CF93DF9300D0CDB7DEB78C0180911A04F7
:1030600090911B04DC01ED91FC910688F789E02D1D
:103070009E012F5F3F4FD80113964C9113971496E2
:103080006C910995E981FA81618170E0762F66275C
:103090008081682B60957095F80176836583C801FF
:1030A00086960E94930E0F900F90DF91CF911F9103
:1030B0000F910895EF92FF920F931F93CF938C017E
:1030C000C0E0D80113968C91C81719F0E12CF12CAF
:1030D00003C0EE24EA94F12C80911404909115041D
:1030E000DC01ED91FC910084F185E02D6C2F0995B8
:1030F000B7010E948D04CF5FC43019F7C0E078019A
:10310000B0E4EB0EF11CD7018C91C81768F441E0D4
:10311000F8018481C81340E06C2F809116049091CF
:1031200017040AD8CF5FEFCFC801CF911F910F913D
:10313000FF90EF908BCFFC01A0911E04B0911F0473
:103140008481A80FB11D16966C9166956695362FF1
:1031500032953F702381CF018696321307C0EF5B13
:10316000FF4F2081222311F06F7001C06FEF0C948C
:103170000A0FAF92BF92CF92DF92EF92FF920F931E
:103180001F93CF93DF931F92CDB7DEB75C01DC01B5
:10319000DF961C92FC01EF5BFF4F81E08083F5011D
:1031A000628303836501F0E4CF0ED11CD6014C93FA
:1031B000F50124838091140490911504DC01ED91B4
:1031C000FC910088F189E02D0995609120047091AF
:1031D00021046115710519F06E5F7F4F02C060E038
:1031E00070E024E0AC018501095F1F4FC8010E9417
:1031F0001A27F5016381C8010E94252780911404D4
:1032000090911504DC01ED91FC910088F189E02D8D
:1032100009956091200470912104EE24E394F12C2F
:1032200000E024E0AC01C5014B960E94FB29F601A9
:1032300020818091140490911504DC01ED91FC91A2
:103240000484F585E02D298309956091200470910F
:10325000210429816115710519F06E5F7F4F02C04D
:1032600060E070E0AC01C50141960E941A274091D0
:103270001404509115046091200470912104C5013B
:1032800086960E94700EC5010F90DF91CF911F911D
:103290000F91FF90EF90DF90CF90BF90AF900ACF4B
:1032A0002F923F924F925F926F927F928F929F9256
:1032B000AF92BF92CF92DF92EF92FF920F931F9344
:1032C000CF93DF93CDB7DEB72F970FB6F894DEBF5D
:1032D0000FBECDBF4C011B868C010F5E1F4FBE0180
:1032E000655F7F4FC8010E947927A82EC8010E9400
:1032F0004027340136E2630E711CC3010E94620D47
:10330000E0912004F09121040280F381E02DE2801D
:10331000F3808091140490911504DC01ED91FC91EF
:103320000688F789E02D0995209120043091210429
:10333000682FC9010296F70109958823B1F091E041
:10334000D401DD969C93DD97DB962C91DB972F3F84
:1033500089F013968C91880F880F820FE0911E04DC
:10336000F0911F04908B818BF0C1F40115AEE12C1C
:10337000F12C03C0EE24EA94F12C80911404909176
:103380001504DC01ED91FC910688F789E02D099583
:10339000B7010E948D04E0911E04F0911F04108A71
:1033A0001B86F401F480BE01655F7F4FC8010E9457
:1033B00079278823F9F09B85D40114962C911497D2
:1033C0002917C1F014969C93149713961C92C4016C
:1033D00071DE80911E0490911F04FC012785222339
:1033E00009F42AC242E050E0D40114966C910E9484
:1033F000E72422C2A81204C0F40184818F1549F089
:1034000080911E0490911F04DC011F962C912111C4
:10341000F2C1F40183AD8F3F19F08C8791E002C0B7
:103420001C8690E0D401DF968C91DF97981709F401
:10343000BAC0811198C081E0DF968C93DF97DC964B
:103440001C9260911A0470911B04DB01ED91FC91B8
:10345000D40113968C912C85B0E18B9F200D112403
:103460000190F081E02DD40114964C91CE0101968B
:1034700009957E01B2E0EB0EF11C10E000E01401B2
:10348000EBE12E0E311CD7018D919D917D0141E024
:10349000039709F440E0011104C0442341F001E026
:1034A00002C0442321F044244A94512C02C0412CF0
:1034B000512C8091140490911504DC01ED91FC9144
:1034C0000084F185E02D612F4E870995B2010E949D
:1034D0008D044E85612FC1010E94192A1F5F14308F
:1034E00091F6011160C0FE0131962F0110E092E0CB
:1034F000E92EF12C112309F486C1E0911804F09112
:103500001904808190E0D40114960C9002C0959526
:1035100087950A94E2F780FD76C11F5FB2E04B0EFB
:10352000511C143039F780911A0490911B04DC016E
:10353000ED91FC91D40113962C914C85B0E12B9F19
:10354000400D11240680F781E02DA980BA80CB8040
:10355000DC80ED80FE800F8118852985D4011496CA
:103560006C91099520C0F40117AE10E0D4011396B8
:103570008C91181719F0E12CF12C03C0EE24EA9479
:10358000F12C8091140490911504DC01ED91FC91D3
:103590000084F185E02D612F0995B7010E948D040B
:1035A0001F5F143019F7F40187AD882309F494C024
:1035B0001401FBE12F0E311CC1010E94602A6091B1
:1035C0001A0470911B04DB01ED91FC91D401139658
:1035D0008C912C85B0E18B9F200D11240190F081FE
:1035E000E02DD40114964C91CE0101960995FE016F
:1035F00031962F0150E01D8631E0D20111968D9158
:103600009C911297039709F430E0652FC1013F8721
:103610005E870E94082A3F855E85381709F44AC0F4
:1036200061E0F40164AF311103C082E090E002C0B8
:1036300083E090E0D20112969C938E9311973323EE
:1036400019F000E010E002C00FEF10E080911404C8
:1036500090911504DC01ED91FC910084F185E02D41
:10366000652F3F875E870995B8010E948D04809180
:103670001A0490911B04DC01ED91FC91D401139686
:103680002C914C85B0E12B9F400D11240680F781D1
:10369000E02DA980BA80CB80DC80ED80FE800F8198
:1036A00018852985D40114966C9109953F8581E090
:1036B00083275E853D85311101C08D875F5F62E0A4
:1036C000460E511C543009F097CF3D85311108C08A
:1036D000D401DC961C9204C0C40107960E944027C6
:1036E0001A86BE01665F7F4FC40107960E94792744
:1036F000F4019381882329F08A859817C9F0838380
:1037000014C0E0911E04F0911F04D40114968C9112
:103710001497E80FF11D86818295869586958370B2
:103720008A87981729F013968C93C401C3DC84C050
:10373000C3010E94F60E1C01C3010E94000F2C0160
:103740002114310429F4892B19F4C401F4DC74C068
:10375000612C712C362D81E090E0062C02C0880F80
:10376000991F0A94E2F7AC0142215321AA24A394A1
:10377000452B09F4A12C84219521892B11F4AA2031
:1037800089F1F4018381F0E18F9F300D1124609164
:103790001A0470911B04DB01ED91FC910190F08102
:1037A000E02D232FD40114964C91CE0101963F8732
:1037B0000995A98280911A0490911B04DC01ED9176
:1037C000FC910680F781E02DBA80CB80DC80ED8013
:1037D000FE800F81188529853F85432FD4011496DB
:1037E0006C910995BFEF6B1A7B0AE0E16E167104CC
:1037F00009F0B0CFAACF42E050E0D40114966C910A
:103800000E94E72406CEF201F282E1828091140444
:1038100090911504DC01ED91FC910084F185E02D7F
:10382000612F09956FEF70E00E948D0441E0612FD8
:10383000C1010E94192A71CE2F960FB6F894DEBFEF
:103840000FBECDBFDF91CF911F910F91FF90EF90F1
:10385000DF90CF90BF90AF909F908F907F906F90B0
:103860005F904F903F902F9008952DE931E0FC013B
:103870003183208386960C945F0DCF93DF93EC0108
:10388000F4DFCE01DF91CF910C94E22A08950C94DD
:10389000E22ACF92DF92EF92FF920F931F93CF9382
:1038A000DF93C02F80917B04882309F43FC08701F8
:1038B0008CE0289FF00111246F01A0E36A9FC00CE7
:1038C000D11C1124BCE0CB9FE001112480E3489F70
:1038D000C00DD11D112460917A04E0911804F0917B
:1038E00019048281681741F09E01A601809112049B
:1038F0009091130409D81AC080911A0490911B0466
:10390000DC01ED91FC910284F385E02D0995FC0129
:10391000EC0DFD1DC80FD91FDE01CD018C1B9D0BC9
:103920008017910718F481918D93F7CFDF91CF9194
:103930001F910F91FF90EF90DF90CF9008956F92BD
:103940007F928F929F92AF92BF92CF92DF92EF922F
:10395000FF920F93CF93DF931F92CDB7DEB73C0159
:10396000D62E60E0809116049091170449830E943E
:103970009910D3019896DC929897498199964C9327
:1039800099979A961C928091140490911504DC01E9
:10399000ED91FC910088F189E02D09954301B2E099
:1039A0008B0E911C609120047091210424E0AC01E5
:1039B000C401C5D48091140490911504DC01ED91EB
:1039C000FC910684F785E02D09955301BEE0AB0E0E
:1039D000B11C609120047091210424E0AC01C50168
:1039E000AED48091140490911504DC01ED91FC910A
:1039F0000484F585E02D09956301BAE1CB0ED11C55
:103A00006091200470912104EE24E394F12C01E0F4
:103A100026E0AC01C6010E94FB298091140490911C
:103A20001504DC01ED91FC910284F385E02D0995EC
:103A3000BCE26B0E711CAC014E5F5F4F60912004C5
:103A40007091210421E0C3010E94FB29E091180438
:103A5000F091190441E087859089892B09F040E0B5
:103A600060E0C3010E94192AE0911804F091190442
:103A70006581C4017BD4E0911804F0911904678139
:103A8000C50174D4A12CB12CE0911804F091190453
:103A9000408150E00A2C02C0559547950A94E2F700
:103AA00041706A2DC6010E94192AEFEFAE1ABE0AB4
:103AB000F6E0AF16B10441F70F90DF91CF910F916F
:103AC000FF90EF90DF90CF90BF90AF909F908F903E
:103AD0007F906F9008954F925F926F927F928F9236
:103AE0009F92AF92BF92CF92DF92EF92FF920F938D
:103AF0001F93CF93DF9300D0CDB7DEB76C01DC010D
:103B00009A969C919A979923A9F19B968C919B9751
:103B10008F5F9B968C939B97843618F091509A9662
:103B20009C9364E60E94273DF60193A7892F90E0BD
:103B3000C1968336910518F00FEF10E002C000E047
:103B400010E08091140490911504DC01ED91FC913A
:103B50000488F589E02D0995A0912004B0912104F5
:103B6000ED91FC9111970190F081E02DA801682F53
:103B7000CD0109957601BAE1EB0EF11CC7010E9457
:103B8000602A4601E2E08E0E911CC4010E9440278B
:103B90005601FEE0AF0EB11CC5010E944027360160
:103BA0002CE2620E711CC3010E94602AE09118048D
:103BB000F091190411E087859089892B09F010E0B4
:103BC00060E0C3010E94082A8117F1F0212F30E044
:103BD0000091180410911904D8011F968D919C91A1
:103BE00050978217930781F050963C932E931F971E
:103BF0005196ED91FC915297C9010995D8015396C0
:103C0000ED91FC91549709951A82BE016E5F7F4F2A
:103C1000C4010E947927E0911804F09119048823C7
:103C200071F08A8190E0258136812817390751F09B
:103C3000968385830388F489E02D099503C0658107
:103C4000C40194D31982BE016F5F7F4FC5010E94EA
:103C5000792700911804109119048823A9F089810B
:103C600090E0F801278130852817390789F090877F
:103C700087830184F285E02D0995D8015396ED9153
:103C8000FC915497099504C0F8016781C5016ED372
:103C9000A12CB12C01E010E0E0911804F09119047E
:103CA0008080912C0A2C02C0959487940A94E2F7A4
:103CB000F1E08F2299246A2DC7010E94082A282F3B
:103CC00030E08216930649F1E0911804F09119044E
:103CD0008081482F50E00A2C02C0559547950A94E0
:103CE000E2F74170552742175307B9F021303105EB
:103CF00039F40A2C01C0220F0A94EAF7282B08C0D5
:103D000098010A2C01C0220F0A94EAF72095282373
:103D100020830388F489E02D09952FEFA21AB20AB7
:103D200086E0A816B10409F0B7CF33E0A32EB12C7A
:103D300066246394712C52E0552E442443941A2D2A
:103D400043010A2C02C0880C991C0A94E2F7D601A0
:103D50009696ED90FC909797E820F92080911404B6
:103D600090911504DC01ED91FC91B3E0AB16B10428
:103D700029F40488F589E02D099505C00680F781AE
:103D8000E02D6A2D0995A0912004B091210412968E
:103D9000ED91FC9113970280F381E02D682FCD0106
:103DA00002960995EF2809F013C1882309F41AC176
:103DB000E0901804F0901904F70183859485412F51
:103DC00050E0FA013497EC30F10520F4EA5BFF4F44
:103DD0000C947C3DD70112966C91809112049091C5
:103DE00013040E946A14E0901804F0901904B5E1DD
:103DF000EB0EF11C00E010E820E030E040E050E085
:103E0000BA0180911204909113040E949613E091DC
:103E10001804F091190462818091120490911304A6
:103E20000E94A814809118049091190442D7F601B9
:103E300052A6D0C0009709F4CDC00297D7011C96B6
:103E40009C938E931B971D96ED91FC911E9707C036
:103E50000296F701948783870584F685E02D0995FE
:103E6000D7015396ED91FC9154970995B3C0E09119
:103E70000E04F0910F040190F081E02D008111817A
:103E80008091200490912104DC01ED91FC9102804D
:103E9000F381E02D0995BC0180910E0490910F04EF
:103EA000F801099597C0D70112968C9180937A04F6
:103EB000F60180A58093790481A5809378044092CF
:103EC0007B0488C020E3E22EF12C00E020E0D60144
:103ED00098964C9108C09CE0E92EF12CF60101A5C2
:103EE0002091780440A560917904C601D2DC72C0AB
:103EF00082E2E82EFF24F39400E020E040E060E05E
:103F0000F4CFF5E1EF0EF11C00E010E0980140E085
:103F100050E860E070E080911204909113040E94D8
:103F20009613E0911804F0911904628180911204B3
:103F3000909113040E94A814809118049091190480
:103F4000B8D648C080911A0490911B04DC01ED9111
:103F5000FC910288F389E02DD60198966C91099521
:103F600039C080911A0490911B04DC01ED91FC9101
:103F70000488F589E02D09952DC080911A0490914F
:103F80001B04DC01ED91FC910684F785E02D4FE0E8
:103F9000D60198966C91099540E1F60160A5809153
:103FA0001E0490911F0409D615C080911A049091A7
:103FB0001B04DC01ED91FC910088F189E02D6FE09C
:103FC000099560E180911E0490911F040DD602C0F6
:103FD000882341F0F60186A197A1882A992A97A201
:103FE00086A20DC080949094D60196968D919C9156
:103FF00097978822992297969C928E929697BFEFD8
:10400000AB1ABB0AE0E1AE16B10409F098CE0F90EE
:104010000F90DF91CF911F910F91FF90EF90DF9064
:10402000CF90BF90AF909F908F907F906F905F9058
:104030004F90089508950F931F93CF93DF93EC0152
:104040008B012A813B8189859A85FB01E81BF90B4D
:10405000C90163E070E00E94333DE617F70718F4EA
:104060001A87098706C020953095200F311F3A879F
:104070002987E881F9810280F381E02DB801CE0122
:10408000DF91CF911F910F9109940F931F93CF93BD
:10409000DF93EC018B018D85811113C081E08D8749
:1040A000ED81FE8109956A817B81660F771F660F1E
:1040B000771F8F819885E1D09C878B871A87098726
:1040C0002AC089859A852B853C85AB01481B590BF5
:1040D0002417350790F4820F931F9A8789876A8186
:1040E0007B81660F771F660F771F8F819885C5D0FC
:1040F0009C878B87ED81FE81099589859A85081BB0
:10410000190B8B859C859695879521E080179107E3
:1041100008F020E02C83DF91CF911F910F9108953B
:10412000CF93DF93EC010E94A33781EB91E0998359
:1041300088831A8619861D86DF91CF910895FC0128
:10414000128A089521E0FC01208B218B0895EF92C3
:10415000FF920F931F93CF93DF93EC018B0189891B
:104160008823B1F1198A88892D85882361F0898592
:104170009A85AB01481B590BCA01622F70E00E945F
:10418000333D7B836A831A8709873A89329FC0014E
:10419000112487709927FF24F394892B09F0F12CBF
:1041A0003F5F3A8BFF2071F0E12C8E858E1528F051
:1041B000ED81FE810995E394F8CF1E8689859A8565
:1041C0009C878B879D858E85890FF11081508E8706
:1041D0006A817B81660F771F660F771F8F819885B5
:1041E0004CD07C018E858823A1F08B859C8598011D
:1041F000281B390BE216F30660F4ED81FE81099568
:104200008E8581508E878B859C858E0D9F1D9C870A
:104210008B878B859C85081B190BF694E79481E0AE
:10422000E016F10608F080E08C83DF91CF911F91BA
:104230000F91FF90EF9008950F931F93CF93DF930B
:10424000EC0189010E94A3378BEB91E0998388836D
:104250002CE3209FC001219F900D112468E770E09E
:104260000E94333D7B836A83188A198A1F861A8AC3
:10427000DF91CF911F910F910895DC011196ED917F
:10428000FC91129732812C9176956795769567957A
:1042900032FD05C0B5E02B9F9001112404C04BEF07
:1042A0004203900111242C593F4F269FC001279FA4
:1042B000900D369F900D112464E670E00E94333D0E
:1042C000CB0108959C014CE3469FC001479F900D90
:1042D0001124B9010E94333DCB0124E096958795C6
:1042E0002A95E1F708959C014CE3469FC001479F42
:1042F000900D1124B9010E94333DCB0124E0969525
:1043000087952A95E1F70895CF93DF93EC0189858E
:10431000882389F08A859B85DC01ED91FC912F81B2
:10432000AC81BD81A20FB11D0190F081E02D40E074
:1043300050E06C9109951986DF91CF9108950F9304
:104340001F93CF93DF938C01EB01209719F06E5FE1
:104350007F4F02C060E070E0C8016CD5F801D387E0
:10436000C287DF91CF911F910F910895CF93DF9373
:10437000EC016BD58A859B85DC01ED91FC912F8149
:10438000AC81BD81A20FB11D0190F081E02D4FEFF6
:1043900050E06C91DF91CF910994FC0173836283AB
:1043A0000895FC018281938108950895AF92BF9290
:1043B000CF92DF92FF920F931F93CF93DF93CDB7EE
:1043C000DEB729970FB6F894DEBF0FBECDBF8C01C4
:1043D000F62E6A015901DC01ED91FC910280F38116
:1043E000E02D0995682F8823D9F0F60180810E947D
:1043F000273D9083D801ED91FC910190F081E02D53
:10440000292F4F2DB801CE010196099589E0FE01B3
:104410003196D50101900D928A95E1F781E001C0B6
:1044200080E029960FB6F894DEBF0FBECDBFDF91B6
:10443000CF911F910F91FF90DF90CF90BF90AF90E1
:1044400008957CE0479FA00111244E5F5F4FE0E399
:104450006E9F400D511D1124FC0182819381480FF4
:10446000591FF9015183408308958F929F92AF9213
:10447000BF92CF92DF92EF92FF920F931F93CF9351
:10448000DF936C01EA0100E082E0A82EB12C8824C1
:104490008394912C10E0E12CF12CD601ED91FC914C
:1044A0000280F381E02D612FC6010995081710F4F1
:1044B000F39401C0E3941F5F163079F7F11003C045
:1044C0009982888207C0E11003C01982188202C055
:1044D000B982A8820F5F22960031E1F6DF91CF9179
:1044E0001F910F91FF90EF90DF90CF90BF90AF9012
:1044F0009F908F900895CF92DF92EF92FF920F934B
:104500001F93CF93DF937C014F5F20E3629FB00145
:10451000112490E0CC24C394D12C092F017010E019
:10452000892F8695D801CCE08C9FA00DB11D112458
:10453000A60FB71FE701EA81FB81EA0FFB1F10827C
:10454000E0E0F0E0442381F0E7012A813B81E901CA
:10455000CA0FDB1F888196010E2E01C0220F0A941C
:10456000EAF7282B288341503196E830F10551F7BE
:104570009F5F983091F6DF91CF911F910F91FF903F
:10458000EF90DF90CF9008950F931F93CF93DF9319
:104590008C01D62FC0E0D801ED91FC910684F785FF
:1045A000E02D4D2F6C2FC8010995CF5FC63099F7CC
:1045B000DF91CF911F910F9108953F924F925F929B
:1045C0006F927F928F929F92AF92BF92CF92DF9223
:1045D000EF92FF920F931F93CF93DF93CDB7DEB788
:1045E00029970FB6F894DEBF0FBECDBF3C01462E13
:1045F000812C3324339483E0982E512CD301ED91F8
:10460000FC910190F081E02D282D442DB301CE01C5
:10461000019609953982B92C9A825B82D92C9C82A9
:104620005D82F92C9E825F82192D98865986D3016E
:10463000ED91FC910680F781E02DAA24A394C52C6E
:10464000E52C052D252D482D642DC3010995839456
:10465000B0E48B12D3CF29960FB6F894DEBF0FBE0D
:10466000CDBFDF91CF911F910F91FF90EF90DF9021
:10467000CF90BF90AF909F908F907F906F905F9002
:104680004F903F9008950F931F93CF938C01C0E0FC
:10469000D801ED91FC910288F389E02D6C2FC801BF
:1046A0000995CF5FC630A1F7CF911F910F91089563
:1046B000FC014281538190E080E0F0E36F9F400D68
:1046C000511D1124A92FA170B0E0292F2695FA01C0
:1046D0003CE0239FE00DF11D1124EA0FFB1FE08158
:1046E00020E030E0F0E0BF01022E02C07595679532
:1046F0000A94E2F76170860F2F5F3F4F2830310533
:1047000091F79F5F9830F1F608955CC721ED31E095
:10471000FC013183208308950F931F93FC01942F94
:10472000842F82958F7040E3649FB00111246E5FE7
:104730007F4FACE08A9F600D711D112493FBAA2767
:10474000A0F9B0E0AB014A0F5B1FA281B3814A0F11
:104750005B1FD9014D935C939F70492F50E0559595
:104760004795460F571F4E5F5F4F82819381840F9D
:10477000951FF801918380831F910F910895DF9217
:10478000EF92FF920F931F93CF93DF93CDB7DEB7D6
:104790002D970FB6F894DEBF0FBECDBF7C01CB01C5
:1047A000642F522F2770D22E8E01055F1F4F9E015E
:1047B000275F3F4F452F5D87AFDF5D855170852FA8
:1047C000880F880FAB85BC85FE01319690E0AF0164
:1047D0002C9130E0692F680F02C0359527956A95B6
:1047E000E2F720FD03C023E030E002C022E030E029
:1047F000219331939F5F943059F7E985FA85608161
:1048000070E002C075956795DA94E2F76170C701B0
:104810000E94BF37C7012D960FB6F894DEBF0FBEBA
:10482000CDBFDF91CF911F910F91FF90EF90DF905F
:104830000895AF92BF92CF92DF92EF92FF920F93C3
:104840001F93CF93DF93CDB7DEB72E970FB6F894B3
:10485000DEBF0FBECDBF542FAD82BE82CF82D886C1
:10486000E986FA860B871C872D87242F2770F22E66
:104870008E010F5F1F4F9E012D5F3F4F5E874CDF04
:10488000EB81FC818D8140815E85882349F021E0A8
:1048900030E001C0220FFA94EAF7242B208309C0EC
:1048A00081E090E001C0880FFA94EAF780958423B4
:1048B00080835170550F550FDE01169620E001E000
:1048C00010E06D917D91822F850FE981FA81308111
:1048D0006230710541F4B80101C0660F8A95EAF7AC
:1048E000632B60830AC0B80102C0660F771F8A95E8
:1048F000E2F7CB018095832380832F5F243009F773
:1049000081E02E960FB6F894DEBF0FBECDBFDF91CB
:10491000CF911F910F91FF90EF90DF90CF90BF90BC
:10492000AF9008950F931F93FC01718360835383AD
:1049300042833583248381E08787108A86E0818BD8
:10494000138B028B168217821086118612861386AD
:104950001486158616861F910F9108950F931F9345
:10496000CF93DF93262F269526952695462F4770C1
:10497000C1E0D0E0042E02C0CC0FDD1F0A94E2F7A4
:104980008C01020F111DD8011C962C9130E02C23B4
:104990003D2302C0359527954A95E2F72130310530
:1049A00089F4DC015296ED91FC915397309729F0F0
:1049B000862F40E063E070E00995C095F80184859A
:1049C000C823C487DF91CF911F910F910895CF9293
:1049D000DF92FF920F931F93CF93DF93EC01162F7B
:1049E0006A01BCDF8F85EA89FB89F12EF694F69483
:1049F000F694012F07708823A9F041E0B601812FBA
:104A00000995FE01EF0DF11D81E090E001C0880FD6
:104A10000A95EAF79485892B84878C899D899F8BD9
:104A20008E8B11C0309721F041E0B601812F09959E
:104A3000CF0DD11D81E090E001C0880F0A95EAF703
:104A40009C85892B8C87DF91CF911F910F91FF90CF
:104A5000DF90CF9008958F929F92BF92CF92DF9276
:104A6000EF92FF920F931F93CF93DF93CDB7DEB7F3
:104A700064970FB6F894DEBF0FBECDBF7C016C010A
:104A800086E0C80ED11C00E089E0B82ECE01019668
:104A90000E94AD37F6011081F7018785811101C0B1
:104AA0001F5FF701A081B181812F8370C1F0ED916B
:104AB000FC9111970190F081E02D212F26952695EC
:104AC000402FBD01CE010B960995FE013B96DE01FC
:104AD00011968B2D01900D928A95E1F71EC0F7017A
:104AE00080898823E1F0ED91FC911197808091807D
:104AF000F7012189402FBD01CE010B96F4010995E4
:104B0000FE013B96DE0111968B2D01900D928A9548
:104B1000E1F7F7011189110F110F21E016C0169569
:104B200016951A87ED91FC9111970480F581E02D7F
:104B30009E012F5F3F4FAE01465F5F4F602FCD015B
:104B40000995282F1A85110F110F602FC7012C8B83
:104B500005DF2C892223A9F08981811110C0FE0173
:104B60003196812F8370E80FF11DE80FF11D41810F
:104B700052814330510519F0602FC70128DFF6013B
:104B800010830F5FFFEFCF1ADF0A063009F07ECFE8
:104B9000F701178664960FB6F894DEBF0FBECDBF3F
:104BA000DF91CF911F910F91FF90EF90DF90CF9009
:104BB000BF909F908F9008954ECFDC01FC01E60FCF
:104BC000F11D9681292F237014960D90BC91A02D74
:104BD00012968C9186958695642F0E94273D990F99
:104BE000990F920F968308950F931F93CF93DF939E
:104BF0008C01D62FC0E04D2F6C2FC801DEDFCF5FB8
:104C0000C630C9F7DF91CF911F910F910895EF92B0
:104C1000FF920F931F93CF938C017C0186E0E80EE7
:104C2000F11CC0E06C2FC80199DEF70111927F01E1
:104C3000CF5FC630B9F781E0F8018787CF911F9128
:104C40000F91FF90EF9008950F931F93CF93DF93F1
:104C5000EC018B018F85882351F08E899F899B0100
:104C6000281B390B2531310510F0CE01D0DF1D8B0B
:104C70000C8BDF91CF911F910F910895FC01108251
:104C80008FEF81831282148213821682158283E051
:104C900090E0908787831286118688E790E094875A
:104CA0008387108A1786128A118A158E168E178EA0
:104CB0000895FC01168A158A108E178A128E118E9D
:104CC000148E138E8281982F92959F70E90FF11D9B
:104CD000E90FF11D8F7021E030E0A90102C0440FFF
:104CE000551F8A95E2F7CA0125893689822B932BB5
:104CF000968B858B0895CF93DF93EC019A8196175D
:104D000009F16A83862F82958F70FE01E80FF11DED
:104D1000E80FF11D862F8F7021E030E002C0220FD6
:104D2000331F8A95E2F745895689242B352B368B1C
:104D3000258BEB81FC81892F0995EB89FC89DF911B
:104D4000CF910994DF91CF910895DC01FB018C9103
:104D5000808311968C911197818312968C91129772
:104D6000828315968C911597838317968C9117974C
:104D700084831F968C911F9785831B968C911B971C
:104D800086831C968C911C9787835D968C915D978A
:104D900080875F968C915F9781875E968C918287E2
:104DA0000895FC01DB018C91808311968C91119701
:104DB000818312968C911297828313968C9113970C
:104DC00090E09683858314968C91149790E0908759
:104DD000878315968C91159790E0908B8787169610
:104DE0008C91169790E09487838717962C9117974C
:104DF00030E0322F2227820F931F948783871896E3
:104E00008C911897858F19968C9119978170878F3F
:104E10001A968C91868FCF014CCFFC01258190E0B2
:104E200081E0921718F4880F9F5FFBCF0895FC0173
:104E300011860895FC01738362835583448326831E
:104E400017828FEF8087118608950F931F93CF935A
:104E5000DF931F92CDB7DEB78C01DC01ED91FC91A1
:104E60000480F581E02D698309956981F8016783E4
:104E700081E081870F90DF91CF911F910F9108956D
:104E80001F93CF93DF93EC0110E08E81181758F534
:104E90008A819B81DC01ED91FC91AC81BD81A10FE8
:104EA000B11D0280F381E02D6C9109958823C9F032
:104EB00088858117D1F08985E881F981882319F0E7
:104EC0008F81811739F00280F381E02D612FCE01AF
:104ED000099505C00480F581E02DCE01099518875C
:104EE00004C01F5FD2CF8FEF8887DF91CF911F91D2
:104EF0000895FC018185882319F09781FB01908337
:104F0000089570E0FC01728761870895FC01878134
:104F10009085618572850E94333DCB010895FC0127
:104F2000708B6787089521E0FC01848182300CF446
:104F300020E0822F08950895FC01748763875687C7
:104F4000458708954F925F926F927F928F929F92C2
:104F5000AF92BF92DF92EF92FF920F931F93CF9386
:104F6000DF93EC018B01DC80EF84F8888FEFD8169B
:104F700059F18D809E808B859C85880D991D8617A3
:104F8000970710F1AF80B8841D1424F5B501680DA2
:104F9000791D601B710B80E090E00E940E3C2B019C
:104FA0003C01B50180E090E00E940E3C20E030E042
:104FB00040E05FE30E94C43C9B01AC01C301B2012D
:104FC0000E94C03C181634F41E830D8318861F827D
:104FD0001C8224C0F801E819F909FB83EA839501D2
:104FE0004D2D0D2C000C550BDA010E94823D6E0FE9
:104FF0007F1F811D911D9A012F5F3F4F032E000CD3
:10500000440B550B0E945A3D38872F83F3E0FD1562
:105010001CF081E08D0D8C831E830D83E114F1045F
:1050200089F0F701DF91CF911F910F91FF90EF90E1
:10503000DF90BF90AF909F908F907F906F905F9028
:105040004F900994DF91CF911F910F91FF90EF90B6
:10505000DF90BF90AF909F908F907F906F905F9008
:105060004F900895AFC2FC018BEF91E09183808354
:105070008FEF8483168215821086178280E190E07C
:105080009287818784EC99E0948783878CEB92E008
:1050900096878587108A17860895CF93DF93FC0142
:1050A0001182108213821282158214821782168254
:1050B00081E08087DF011F967596ED0126971882A3
:1050C0001D92AE17BF07C9F7DF91CF9108950F93D7
:1050D0001F93FC0171836083538342833583248350
:1050E000178306831F910F9108950F931F93CF93FA
:1050F000DF938C01DC01ED91FC911197E60FF11D1E
:10510000C681DC2FD695D69514968D919C911597D6
:1051100084DE482FC3702C2F30E0B4E0DB9F200DDD
:10512000311D1124220F331FD8011696ED91FC91E9
:105130001797848150E0882311F0CA0102C080E0F3
:1051400090E0820F931FBA01660F771F0E94473DC0
:10515000649F802D1124DF91CF911F910F910895AD
:105160002F923F924F925F926F927F928F929F9277
:10517000AF92BF92CF92DF92EF92FF920F931F9365
:10518000CF93DF93CDB7DEB72C970FB6F894DEBF81
:105190000FBECDBF2C01362E242EDC0114968D912E
:1051A0009C911597FC01208130E002C03595279530
:1051B0006A95E2F720FF03C030DE8A8702C0F1E083
:1051C000FA87822C912C33E0632E712C882D821962
:1051D000EA858E1708F04AC0C40195958795959584
:1051E00087959C878B87182D1370D20112966D912D
:1051F0007C911397DB01ED91FC910190F081E02D02
:105200002B85432DCE01019609958981882341F094
:105210007B826A827D826C827F826E8279866886DA
:10522000FE013196E10FF11DE10FF11D82E090E0EA
:1052300092838183D20112968D919C911397DC0108
:10524000ED91FC910680F781E02D1982A12CBA80A6
:10525000CB80DC80ED80FE800F81188529854B8511
:10526000632D0995BFEF8B1A9B0AB0CF2C960FB612
:10527000F894DEBF0FBECDBFDF91CF911F910F918C
:10528000FF90EF90DF90CF90BF90AF909F908F9066
:105290007F906F905F904F903F902F900895CF92A6
:1052A000DF92EF92FF920F931F93CF93DF937C01D6
:1052B0008C01015F1F4FC0E0D0E0CC2ED7011496C7
:1052C000ED91FC911597808190E00C2E02C0959590
:1052D00087950A94E2F780FF19C0F801369780811C
:1052E0008823A1F06C2FC70100DFD82EF801408180
:1052F000841729F06C2FC70133DFD801DC9242E01C
:1053000050E06C2DF7018081918161DB21960F5F68
:105310001F4FC630D10589F6DF91CF911F910F91B4
:10532000FF90EF90DF90CF9008951F93CF93DF937E
:10533000FC01E60FF11D2185222371F0162FEC01EF
:10534000118647850DDF42E050E0612F8881998109
:10535000DF91CF911F913BCBDF91CF911F910895AA
:10536000EF92FF921F93CF93DF93EC01162F7C01F6
:10537000E60EF11C81E0F7018187CE01B6DEF70170
:105380008787EC81FD81208130E0012E02C03595B8
:1053900027950A94E2F720FD04C0612FCE01C5DFF6
:1053A00004C0482F612FCE01DBDE42E050E0612FC8
:1053B000888199810CDBF701878590E0DF91CF919F
:1053C0001F91FF90EF900895FC0180E091E09183A0
:1053D0008083128281E083830895FC011182108210
:1053E000138212821482168215821086178281E03F
:1053F000818712860895EF920F93FC017183608379
:10540000538342832483E18602870F91EF900895AE
:1054100021E030E002C0220F331F6A95E2F7FC0161
:10542000878190852823392381E0232B09F480E0AC
:105430000895CF93DF93DC011796ED91FC911897B7
:10544000442361F081E090E0062E02C0880F991F8E
:105450000A94E2F79F01282B392B0CC021E030E0A1
:10546000062E02C0220F331F0A94E2F720953095D2
:105470002E233F2318963C932E9317971A968C91C0
:105480001A978823D1F08D919C911197EC01E881B6
:10549000F9810190F081E02D411103C040E050E01E
:1054A00002C04FEF50E012960D90BC91A02DA60FB8
:1054B000B11D6C91DF91CF910994DF91CF91089547
:1054C000EF92FF920F931F93CF93DF93EC0110E0C5
:1054D000EE24E394F12C8C81181708F06AC08881BF
:1054E0009981DC011296ED91FC911397AA81BB8101
:1054F000A10FB11D0190F081E02D6C9102960995EC
:1055000001E0019709F000E08985813081F48D8107
:105510009E819701012E02C0220F331F0A94E2F7E9
:1055200082239323892B91F501111EC031C0811173
:105530002DC08D819E819701012E02C0220F331F45
:105540000A94E2F782239323892B01F1002361F06F
:105550002D813E81C701012E02C0880F991F0A9438
:10556000E2F7822B932B21C08F8198859701012E22
:1055700002C0220F331F0A94E2F78223932341E0F3
:10558000892B09F040E0612FCE0153DF0111E0CFFC
:10559000C701012E02C0880F991F0A94E2F7809577
:1055A00090952D813E81822393239E838D831F5F5F
:1055B00092CFDF91CF911F910F91FF90EF900895BF
:1055C0000C94E4370C94793808951F920F920FB61B
:1055D0000F9211242F933F938F939F93AF93BF9379
:1055E00080917D0490917E04A0917F04B09180040D
:1055F00030917C0423E0230F2D3720F40196A11D68
:10560000B11D05C026E8230F0296A11DB11D2093F0
:105610007C0480937D0490937E04A0937F04B093D8
:1056200080048091810490918204A0918304B091C0
:1056300084040196A11DB11D80938104909382047E
:10564000A0938304B0938404BF91AF919F918F91F5
:105650003F912F910F900FBE0F901F9018952FB76D
:10566000F89460917D0470917E0480917F04909104
:1056700080042FBF0895789484B5826084BD84B57A
:10568000816084BD85B5826085BD85B5816085BD3D
:10569000EEE6F0E0808181608083E1E8F0E0108256
:1056A000808182608083808181608083E0E8F0E097
:1056B000808181608083E1EBF0E080818460808381
:1056C000E0EBF0E0808181608083EAE7F0E08081B8
:1056D0008460808380818260808380818160808318
:1056E0008081806880831092C1000895CF93DF93FA
:1056F000EC019C012A5F3F4F41E050E060E070E028
:105700008C819D810E943F35882399F04E895F8965
:10571000688D798D452B462B472B59F44E815F813F
:10572000688579854E8B5F8B688F798F99819068BA
:105730009983DF91CF9108958F929F92AF92BF92FC
:10574000FF920F931F93CF93DF93FC0142895389FC
:1057500064897589403E5F4F6F41710518F080E0A4
:1057600090E04BC0EC01C2DF8823C9F34E815F811A
:10577000688579858C819D810E943C344B015C0158
:1057800045E00E94EB338C01892B49F380E092E0E5
:10579000F8019C01119221503040E1F7FF24F3946D
:1057A000EC81FD814481F41688F49801B501A401CF
:1057B0004F0D511D611D711D8091890490918A04C6
:1057C0000E94113B882359F2F394EACF50E060E045
:1057D00070E089E0440F551F661F771F8A95D1F747
:1057E0008A899B89AC89BD89480F591F6A1F7B1F15
:1057F0004A8B5B8B6C8B7D8BC801DF91CF911F91A6
:105800000F91FF90BF90AF909F908F900895CF938E
:10581000DF93EC01462F6E857F8588899989DBD7D8
:10582000009739F02B8130E2239F800D911D1124C8
:1058300002C080E090E0DF91CF910895FB019B01D1
:10584000255F3F4FA0E2A193E217F307E1F7DC01E8
:1058500090E027E03A2FEB2F8D9181110AC0DA01F9
:105860003C931196EC9381E0FB019081903239F5E5
:1058700025C08F32A1F38E3219F0E4EAF0E008C0BF
:105880002A30E1F098E02AE0E5CF31963817B1F000
:1058900034913111FACF291788F03FED380F3E359A
:1058A00068F431E0390FFB01E90FF11D9FE9980F12
:1058B0009A3108F480528083932FCCCF80E00895F2
:1058C0002F923F924F925F926F927F928F929F9210
:1058D000AF92BF92CF92DF92EF92FF920F931F93FE
:1058E000CF93DF9300D000D0CDB7DEB79C838B83FE
:1058F0006B017A01FC018281811103C08FEF9FEF60
:10590000D1C0EB81FC81818180FFF8CFEB81FC81EC
:105910000289138924893589428553856485758573
:10592000C701A0E0B0E048015901841A950AA60A0F
:10593000B70A88159905AA05BB0518F07801E41A7D
:10594000F50A87018B819C8106969A838983812C35
:1059500032E0932E0115110509F46BC0EB81FC8137
:1059600042855385648575855A01F1E0BF22EB813C
:10597000FC8184819581FC0174801A012B0129E04E
:1059800056944794379427942A95D1F7EB81FC815C
:105990002281223061F4FC0185899689A789B08D26
:1059A000BC01CD01620D731D841D951D2DC07A941F
:1059B0007220A114B104D9F4711019C0EB81FC81DB
:1059C000452B462B472B49F486899789A08DB18DAD
:1059D00086839783A087B1870AC0468157816085F7
:1059E000718529813A8160D7882309F487CFEB81BB
:1059F000FC814681578160857185848195813CD782
:105A0000670D711D811D911DA114B104A1F4011533
:105A1000F2E01F0780F040908C0450908D0460905D
:105A20008E0470908F046415750586059705C1F482
:105A300002C0C70137C094012A193B093801201759
:105A4000310708F4390140E0C6D6009709F456CF73
:105A5000BC016A0D7B1DA301C6010E94053C0FC05D
:105A60009601AB01BC018091890490918A040E9447
:105A7000B63A882309F442CF612C82E0782EC60C16
:105A8000D71CEB81FC8182859385A485B585860D25
:105A9000971DA11DB11D82879387A487B58706191D
:105AA000170958CF0F900F900F900F90DF91CF9163
:105AB0001F910F91FF90EF90DF90CF90BF90AF902C
:105AC0009F908F907F906F905F904F903F902F901E
:105AD0000895CF93DF931F92CDB7DEB741E050E03A
