:1000000035C0000058C0000056C0000054C00000B9
:1000100052C0000050C000004EC000004CC00000A4
:100020004AC0000048C0000046C000005AC100009D
:1000300042C0000040C000003EC000003CC00000C4
:100040003DC4000038C0000084C20000BCC20000F3
:1000500032C0000030C000002EC000002CC00000E4
:100060002AC0000028C00000B6019D0311241FBE55
:10007000CFEFD8E0DEBFCDBF11E0A0E0B1E0EEE110
:10008000FAE002C005900D92A832B107D9F712E04C
:10009000A8E2B1E001C01D92AE31B107E1F710E076
:1000A000CCE6D0E003C02297FE01B3D4C836D10716
:1000B000D1F786D188C4A4CFEFE6F0E080818D7FB0
:1000C00080830895FC012281222381F09181DF0148
:1000D000A90FB11DA90FB11D13963C919F5F9530DB
:1000E00011F0918301C0118221502283832F90E06F
:1000F000909389008093880080916F008260809344
:100100006F000895CF92DF92EF92FF921F93CF93EB
:10011000DF93EC0116E088E4C82E88EED82EEE249A
:10012000E394F12C2B893C8940E050E0C701B601F3
:100130004CD438A32F8F3CA72BA711502296111116
:10014000F1CFDF91CF911F91FF90EF90DF90CF9093
:100150000895FF920F931F93CF93DF93FC01F090CC
:100160005F016091600170E0DC010F2D80E090E0A4
:100170001FEF9B962D913C919C97261B370B9C96CD
:100180003C932E939B971216130654F05F964D9155
:100190005C919097420F531F9C965C934E939B9754
:1001A0009B962D913C919C97412F50E02417350749
:1001B0002CF4EF01C80FD91F0D85122F412F50E0ED
:1001C0002417350729F4EF01C80FD91F2D85022BFD
:1001D000019612968630910561F600935F01212FFA
:1001E000133008F02150109360013FB7F8949281CA
:1001F000953091F08081DF01A80FB11DA80FB11DCE
:1002000013962C931196FC928F5F853011F08083AA
:1002100001C010829F5F92833FBFDF91CF911F91FA
:100220000F91FF900895CF93DF93EC0102C0CE01B0
:1002300090DF8A818530D9F7DF91CF910895EF92D1
:10024000FF920F931F93CF93DF93EC01F894DB01A0
:100250009C017A0180E090E001E010E04D915D9119
:10026000F901548B438BAE01480F591FF701B801B8
:10027000019002C0660F771F0A94E2F77F01FA012E
:10028000658701962E5F3F4F8630910539F7CE0185
:1002900039DF249A1092800088E080938100809159
:1002A000810083608093810080E090E02AB1FE01AC
:1002B000E80FF91F3585232B2AB93BB125852095F9
:1002C00023232BB901968630910581F7CE01ABDF50
:1002D0007894DF91CF911F910F91FF90EF90089547
:1002E00008951F920F920FB60F9211242F933F93F0
:1002F0004F935F936F937F938F939F93AF93BF932E
:10030000EF93FF9390912A019923E1F02091290125
:10031000E22FF0E0EE0FFF1FE55DFE4F808131819F
:100320002F5F253019F02093290102C01092290176
:10033000915090932A0190E09093890080938800D7
:1003400039B903C088E291E0B7DEFF91EF91BF9128
:10035000AF919F918F917F916F915F914F913F915D
:100360002F910F900FBE0F901F901895109228019B
:100370001092290110922A01089510926E00109295
:10038000700040E052EC61E070E08BE691E056D105
:1003900062E171E08BE691E07FD240E051E066E0FF
:1003A00071E088E291E04BDF88E291E099DF88E23A
:1003B00091E088DE81E691E027C088E291E033CFCA
:1003C000C7D2DBDFFADFFECF80E480937C00EAE770
:1003D000F0E080E880838081876080830895ECE787
:1003E000F0E09081982B908321E030E0082E01C04E
:1003F000220F0A94EAF720937E000895EAE7F0E0DE
:100400008081806480830895CF93DF93EC01DCDFEB
:10041000198680E0E4DFDF91CF91F0CFFC01848585
:100420009585FC01E05CFF4F20813181FC01EE5B92
:10043000FF4F80819181281B390B2F733327C9010E
:100440000895FC0184859585FC01E05CFF4F4081A7
:100450005181FC01EE5BFF4F208131814217530730
:1004600041F00190F081E02DE80FF91F208130E08C
:1004700002C02FEF3FEFC9010895FC0184859585E7
:10048000FC01E05CFF4F40815181FC01EE5BFF4FBE
:10049000208131814217530781F0A081B181A80FDB
:1004A000B91F8C91208131812F5F3F4F2F733327EC
:1004B00031832083282F30E002C02FEF3FEFC901A6
:1004C0000895FC0181A1882329F0A489B5898C9124
:1004D00086FFFBCF11A20895CF93DF93FC01268501
:1004E0003785D901A05CBF4F8D919C9111970196E2
:1004F0008F739927E901CE5BDF4F488159818417BB
:100500009507D9F30D90BC91A02DA20FB31F6C934A
:10051000A685B785A05CBF4F11969C938E93A68944
:10052000B7892C9181E090E0078C02C0880F991F59
:100530000A94E2F7282B2C9381E081A30488F589A3
:10054000E02D80818064808381E090E0DF91CF9115
:1005500008951F920F920FB60F9211242F933F937D
:100560004F938F939F93EF93FF938091C00082FDF1
:100570001CC04091C6008091110290911202019618
:100580008F739927209113023091140282179307D9
:1005900071F0E0911102F0911202EF52FE4F408390
:1005A000909312028093110202C08091C600FF91C5
:1005B000EF919F918F914F913F912F910F900FBE8F
:1005C0000F901F9018951F920F920FB60F92112443
:1005D0002F933F938F939F93EF93FF932091CD01A0
:1005E0003091CE018091CF019091D0012817390729
:1005F00031F48091C1008F7D8093C10014C0E091DF
:10060000CF01F091D001E357FE4F20818091CF01BF
:100610009091D00101968F7399279093D001809388
:10062000CF012093C600FF91EF919F918F913F9151
:100630002F910F900FBE0F901F901895CF92DF92C1
:10064000EF92FF92CF93DF93EC016A017B0141159A
:1006500081EE580761057105F1F0EC89FD8981E0B3
:1006600090E008A002C0880F991F0A94E2F78083E7
:1006700060E079E08DE390E0A7019601A6D12150DA
:100680003109410951095695479537952795211507
:1006900080E1380790F0EC89FD89108260E874E809
:1006A0008EE190E0A701960190D1215031094109D6
:1006B00051095695479537952795E889F9893083EB
:1006C000EA89FB89208319A2EE89FF89408181E0B4
:1006D00090E09C010C8C02C0220F331F0A94E2F7B9
:1006E000422B4083EE89FF8940819C010D8C02C022
:1006F000220F331F0A94E2F7422B4083EE89FF89D1
:1007000040819C010E8C02C0220F331F0A94E2F735
:10071000422B4083EE89FF8920810F8C02C0880F15
:10072000991F0A94E2F7809582238083DF91CF910D
:10073000FF90EF90DF90CF90089510926E0110928D
:100740006D0188EE93E0A0E0B0E080936F0190939C
:100750007001A0937101B09372018CE191E09093CC
:100760006C0180936B0181ED91E09093780180930F
:1007700077018DE891E090937A018093790185EC7F
:1007800090E090937C0180937B0184EC90E09093C7
:100790007E0180937D0180EC90E0909380018093B6
:1007A0007F0181EC90E0909382018093810182EC43
:1007B00090E0909384018093830186EC90E0909385
:1007C00086018093850184E08093870183E0809394
:1007D000880187E08093890185E080938A0181E028
:1007E00080938B010895CF92DF92EF92FF920F9347
:1007F0001F93CF93DF936C01EB017A01E60EF71E96
:1008000000E010E00BC06991D601ED91FC910190E0
:10081000F081E02DC6010995080F191FCE15DF05DF
:1008200091F7C801DF91CF911F910F91FF90EF9049
:10083000DF90CF9008956115710581F0DB010D9077
:100840000020E9F7AD0141505109461B570BDC016F
:10085000ED91FC910280F381E02D099480E090E01D
:100860000895DC01ED91FC910190F081E02D099457
:100870000F931F93CF93DF93EC016DE0F2DF8C01B8
:100880006AE0CE01EEDF9C01200F311FC901DF912C
:10089000CF911F910F9108950F931F93CF93DF93E3
:1008A000EC01C9DF8C01CE01E3DF9801280F391F6D
:1008B000C901DF91CF911F910F9108951F920F925F
:1008C0000FB60F9211242F933F938F939F93AF9363
:1008D000BF938091150290911602A0911702B091DA
:1008E000180230911D02232F2D5F2D3720F4019621
:1008F000A11DB11D05C0232F2A570296A11DB11DB0
:1009000020931D028093150290931602A093170264
:10091000B09318028091190290911A02A0911B02C3
:10092000B0911C020196A11DB11D809319029093F4
:100930001A02A0931B02B0931C02BF91AF919F912A
:100940008F913F912F910F900FBE0F901F90189590
:10095000789484B5826084BD84B5816084BD85B59A
:10096000826085BD85B5816085BDEEE6F0E0808161
:1009700081608083E1E8F0E0108280818260808382
:10098000808181608083E0E8F0E080818160808305
:10099000E1EBF0E0808184608083E0EBF0E0808137
:1009A00081608083EAE7F0E08081846080838081D9
:1009B0008260808380818160808380818068808381
:1009C0001092C1000895F89428C0A1E21A2EAA1B23
:1009D000BB1BFD010DC0AA1FBB1FEE1FFF1FA217EF
:1009E000B307E407F50720F0A21BB30BE40BF50BEC
:1009F000661F771F881F991F1A9469F76095709575
:100A0000809590959B01AC01BD01CF010895EE0F3B
:0E0A1000FF1F0590F491E02D0994F894FFCF9C
:100A1E000203040506079900B9000B014701D10135
:100A2E00FF03737461727400000000006C02F30324
:080A3E000E023D0221026102DB
:00000001FF
