:1000000069C000008EC000008CC000008AC00000E3
:1000100088C0000086C0000084C000000C947E09E7
:1000200080C000007EC000007CC000007AC00000DC
:1000300078C0000076C0000074C0000072C00000EC
:100040000C9441296EC000000C9449280C9483281C
:1000500068C0000066C0000064C0000062C000000C
:1000600060C000005EC000007C3C3E5E2B3D3F2F28
:100070005B5D3B2C2A225C000000000700020100AF
:100080000003040600000000000000000102040854
:1000900010204080010204081020010204081020F2
:1000A000040404040404040402020202020203031E
:1000B0000303030300000000250028002B000000BC
:1000C0000000240027002A00BF03ED09840FBE288A
:1000D000B339DC0311241FBECFEFD8E0DEBFCDBFA4
:1000E00012E0A0E0B1E0E4E5FCE702C005900D926B
:1000F000AA33B107D9F727E0AAE3B2E001C01D9205
:10010000AE33B207E1F710E0C2EDD0E004C02297B1
:10011000FE010E940E3EC83CD107C9F72BD30C94B8
:10012000763C6ECF860F911DFC0182810895860F6B
:10013000911DFC0182890895860F911DFC01808D1F
:100140000895860F911DFC0182810895860F911DEF
:10015000FC01868D0895860F911DFC01868D089502
:100160009C012E5E3F4FC90108959C01285E3F4FC0
:10017000C90108959C012E5F3F4FC90108959C015C
:10018000225E3F4FC90108959C01225E3F4FC90185
:10019000089582E108958AE1089588E1089581E152
:1001A000089589E1089580E10895CF93DF93CDB755
:1001B000DEB728970FB6F894DEBF0FBECDBFBE01E5
:1001C0006F5F7F4F8091D2039091D3030E9474237D
:1001D000BE016F5F7F4F81E793E00E94520F289628
:1001E0000FB6F894DEBF0FBECDBFDF91CF9108955B
:1001F0008091D8039091D9030E94DE221092760359
:1002000081E0809377030895CF93C62F682F81E70D
:1002100093E00E94F80E6C2F81E793E0CF910C944D
:10022000320F80E693E00E945E248BEB93E00AD3CA
:1002300084ED93E00C94CE1DCF93DF93C82FD42F81
:10024000682F8AE993E00E94A80AE091D203F09116
:10025000D303208130E00C2E02C0359527950A94F7
:10026000E2F7DD2339F020FF02C020E001C024E1E5
:1002700041E004C020FF08C020E040E06C2F8AED80
:1002800093E0DF91CF91B9C6DF91CF910895E091CE
:10029000D203F091D30327853089232B61F4609139
:1002A0005E0370915F030E94461DE091B903F091D7
:1002B000BA03938382830895CF93DF93E091D203AF
:1002C000F091D303878590890197C9F48091D10378
:1002D0008823A9F0E091B903F091BA030190F0816D
:1002E000E02DC081D1818AED93E0B6D6BC0180912A
:1002F000B9039091BA03FE01DF91CF910994DF9188
:10030000CF9108958091D103882339F18091D8034A
:100310009091D9030E94B22280917703882319F02B
:10032000109277030CC08091760390E00196609163
:100330007403709175030E94B33D8093760384EA41
:1003400093E00E94142680917603837031F424E1B7
:1003500041E066E08AED93E050C60895CF93DF93C5
:10036000E091D203F091D30387859089892B09F01E
:1003700040C08091640382303CF18091670390918A
:1003800068036091690370916A030E94B33DCB01D9
:100390009927E091B903F091BA0393838283609126
:1003A0005E0370915F030E94571DE091D203F091AC
:1003B000D303238534852817390731F09487838741
:1003C0000388F489E02D0995E091B903F091BA030F
:1003D0000190F081E02DC081D1818AED93E03CD67F
:1003E000BC018091B9039091BA03FE01DF91CF91D6
:1003F0000994DF91CF910895282F90E081E0332771
:1004000027FD309502C0880F9F5F492F50E04217AB
:100410005307CCF30895E091D203F091D3032785DD
:1004200030892130310531F4E7DFE091B903F091F3
:10043000BA03858708950F931F93CF93DF93892B7A
:10044000D1F489E090E00E943C29EC010E94911CCB
:1004500082E891E09E838D8360915E0370915F03DB
:10046000E091D203F091D303838594850E94461DC9
:100470009B838A8321C082E190E00E943C29EC01A9
:100480000E94321D00915E0310915F03E091D20340
:10049000F091D30387819085AFDFE881F9810480F3
:1004A000F581E02D980141E050E0682FCE010995DB
:1004B00082E891E09E838D83CE01DF91CF911F91E1
:1004C0000F910895CF93DF93EC018091D803909121
:1004D000D9030E94DE221092760381E08093770395
:1004E0008091B9039091BA03009711F00E943E29C0
:1004F000CE01A1DF9093BA038093B90381E0CD2BA5
:1005000009F080E08093FF03DF91CF910895EF928F
:10051000FF920F931F93CF93DF93CDB7DEB728974A
:100520000FB6F894DEBF0FBECDBF28EF30E04CE52C
:1005300051E060E070E08AED93E0B9D58AED93E098
:10054000D4D690935F0380935E0326E048E753E0A0
:100550006AED73E08AE993E05FD78DE190E00E9455
:100560003C298C010E9412231093D3030093D203E1
:1005700084E091E0F801948383838BE092E092879A
:10058000818787E491E09687858782E692E0928B67
:10059000818B85ED90E0948B838B8AE392E090933E
:1005A000D7038093D6036FE084ED93E00E947F1F12
:1005B00084ED93E00E94FE1FBE016F5F7F4F80912C
:1005C000D2039091D3030E947423AE014F5F5F4F1B
:1005D0006AE372E081E793E00E94930EBE016F5FD1
:1005E0007F4F81E793E00E943E0FBE016F5F7F4F18
:1005F0008091D2039091D3030E949423E091D2037F
:10060000F091D303628181E793E00E94320FE09181
:10061000D203F091D303878590890DDF9093BA03BD
:100620008093B903E091D203F091D30321E0878551
:100630009089892B09F020E02093FF0388E190E066
:100640000E943C297C014091D2035091D3030CE1DC
:1006500011E024E733E064ED73E00E944821F0925A
:10066000D903E092D8030091B9031091BA03209105
:10067000D2033091D30344ED53E0B70184EA93E011
:100680000E942C2588E793E090930B0480930A0442
:100690008AED93E090931704809316048091D80319
:1006A0009091D903909315048093140484EA93E005
:1006B000909313048093120484ED93E090931104BB
:1006C000809310048091D2039091D30390930F04F0
:1006D00080930E048AE993E090930D0480930C04B8
:1006E00084E793E0909307048093060480E693E008
:1006F000909305048093040481E793E090930904A8
:10070000809308048BEB93E039D18EEA91E09093CB
:10071000700380936F0328960FB6F894DEBF0FBE68
:10072000CDBFDF91CF911F910F91FF90EF90089572
:10073000CF93DF938AED93E08FD4EC018091B903DE
:100740009091BA03DC01ED91FC910280F381E02DE0
:10075000BE01099584EA93E00E9414268BEB93E096
:10076000A5D2BE018091D8039091D903DF91CF919A
:100770000C94F8220E949D29CADEDADFFECF84EDB8
:1007800093E00E942A208BEB93E077D084EA93E0F9
:100790000E9412258AE993E031D688E793E00DD0D4
:1007A00084E793E00E94AF2681E793E00E94200E49
:1007B00080E693E00C94F82434CDFC0181E191E0D3
:1007C0009183808384E082838CE0838384E18483CB
:1007D0008CE1858385E086838DE0878385E1808752
:1007E0008DE1818786E082878EE0838786E184873A
:1007F0008EE1858787E086878FE0878787E1808B1A
:100800008FE1818B81E1828B80E1838B82E1848B1C
:100810008AE1858B88E1868B89E1878B81E0808FF7
:10082000118E82E0828F89E0838F88E0848F8AE056
:10083000858F83E0868F8BE0878F83E180A38BE1B8
:1008400081A3089521E431E0FC01318320830895E0
:1008500021E431E0FC01318320830C943E29AB017B
:10086000A0911604B0911704ED91FC91119701909D
:10087000F081E02D682FCD010994CF93DF93EC0137
:1008800027E331E0FC0121933193CF010E94B82688
:100890001E861D861F86188A198A1A8A1C8A1B8A38
:1008A0001D8ADF91CF910895EF92FF920F93CF931E
:1008B000DF93EC018DE190E00E943C297C010E94D5
:1008C0009B13E0910E04F0910F0408892D8946E0F6
:1008D0006281C7010E942914FE86ED861C8A1B8A4C
:1008E000DF91CF910F91FF90EF9008950F931F9399
:1008F000CF93DF93EC0181E090E09C8B8B8B85E1C3
:1009000090E00E943C298C010E94CB0F48896D89A0
:10091000C8010E9419111E870D87DF91CF911F9189
:100920000F910895FC01A585B68514968C911497B6
:10093000858B13968C911397808B109741F0ED91D6
:10094000FC9111970280F381E02DCD010994089567
:10095000CF93C0E080910A0490910B04DC01ED91EB
:10096000FC910190F081E02D6C2F099560E070E022
:1009700076DFCF5FC03271F7CF910895CF92DF92CB
:10098000EF92FF920F93CF93DF93EC01E1DFCE0163
:100990008BDF81E08E8B80910A0490910B04DC0147
:1009A000ED91FC910484F585E02D09956E01B2E08E
:1009B000CB0ED11CAC014F5F5F4F6091160470915C
:1009C0001704EE24E394F12C01E023E0C6010E9419
:1009D000C6264E8961E0C601DF91CF910F91FF904D
:1009E000EF90DF90CF900C94E426CF93C0E08091FD
:1009F0000A0490910B04DC01ED91FC91C03128F4C4
:100A00000680F781E02D6C2F05C06C2F60510084AB
:100A1000F185E02D099560E070E021DFCF5FC43102
:100A200031F7CF9108950F931F93CF93DF93EC018C
:100A300082E090E09C8B8B8BCE01D7DF8CE090E046
:100A40000E943C298C01B1D71E870D8780910C0430
:100A500090910D04DF91CF911F910F91CEC5EF9230
:100A6000FF920F931F93CF93DF9300D0CDB7DEB7E4
:100A70007C0183E090E0F701948B838BC7014A836C
:100A80006983B3DF69814A81611105C0442341F064
:100A900084E090E002C085E090E0F701948B838BC6
:100AA00083E190E00E943C298C01E6D5C801F8D58D
:100AB000F701168705870F900F90DF91CF911F9157
:100AC0000F91FF90EF9008950F931F93CF93DF93B3
:100AD000EC018C010E5F1F4F40E062E0C8010E94F4
:100AE000E4268A89811120C060E0C8010E94D326D3
:100AF000811127C019C0ED91FC9111970280F381FB
:100B0000E02DCD0109958A89882341F041E060E01C
:100B1000CE01DF91CF911F910F91A1CFCE01DF9137
:100B2000CF911F910F91C0CEAD85BE8513968C914C
:100B300013978D8B12968C911297888B1097D9F6FC
:100B4000E2CFDF91CF911F910F9108950F931F93E3
:100B5000CF93DF93EC01662319F087E090E002C0A9
:100B600086E090E09C8B8B8BCE013FDF83E290E0B0
:100B70000E943C298C010E94081848896D89C8018F
:100B80000E9422181E870D87DF91CF911F910F9130
:100B900008950F931F93CF93DF93EC018C010E5FA9
:100BA0001F4F61E0C8010E94D326ED85FE85848F2A
:100BB00062E0C8010E94D326882341F0CE01B2DE54
:100BC000CE01DF91CF911F910F912DCF60E0C80131
:100BD0000E94D326882341F0CE01A4DECE01DF910E
:100BE000CF911F910F9182CE8A89882351F0CE0137
:100BF00099DE40E060E0CE01DF91CF911F910F912F
:100C00002ECF8989882349F0CE018CDE60E0CE01A9
:100C1000DF91CF911F910F9199CFDF91CF911F91CC
:100C20000F9108950F931F93CF93DF93EC018C01E5
:100C30000E5F1F4F40E060E0C8010E94E42662E0C2
:100C4000C8010E94D3269989911105C09A899111F2
:100C500002C0811126C08D859E85009739F0DC0188
:100C6000ED91FC910280F381E02D0995898988231B
:100C700039F061E0CE01DF91CF911F910F9166CFE6
:100C80008A89882341F040E061E0CE01DF91CF9175
:100C90001F910F91E4CECE01DF91CF911F910F9163
:100CA00003CEDF91CF911F910F910895EF92FF92A4
:100CB0000F931F93CF93DF93EC01E0911604F09113
:100CC00017040280F381E02D0281138180910A04D0
:100CD00090910B04DC01ED91FC91048CF58DE02DDD
:100CE00009952091160430911704682FC9010296C6
:100CF000F8010995898BE0911604F09117040280A0
:100D0000F381E02D0281138180910A0490910B04FC
:100D1000DC01ED91FC91068CF78DE02D0995209179
:100D2000160430911704682FC9010296F80109953D
:100D30008A8B8989882319F00FEF10E002C000E048
:100D400010E080910A0490910B04DC01ED91FC917C
:100D5000048CF58DE02D0995B80181DD8A89882301
:100D600019F00FEF10E002C000E010E080910A04DB
:100D700090910B04DC01ED91FC91068CF78DE02D38
:100D80000995B8016CDD8E010E5F1F4F61E0C8014F
:100D90000E94D326E82EC8010E942E2761E0C801D8
:100DA0000E94D326F82E2B893C8926503109223007
:100DB0003105E8F0EE2079F081110DC0E0910604D4
:100DC000F0910704128281E0838380911404909152
:100DD00015040E94DE22FE8AEF1449F0E0910E0411
:100DE000F0910F0487859089892B09F497C08B892E
:100DF0009C898630910554F483309105A4F48130A8
:100E0000910559F06CF4892B29F05CC008970CF01F
:100E100059C027C0CE01BDDE55C0CE0155DE52C03F
:100E2000CE0100DF4FC08A8981114CC08D859E851F
:100E3000009739F0DC01ED91FC910280F381E02D07
:100E400009958B899C898530910519F4CE01EBDDDC
:100E500039C0049719F4CE0149DD34C0CE0124DD38
:100E600031C08989811123C08D859E85009739F015
:100E7000DC01ED91FC910280F381E02D09954E8912
:100E800061E0C8010E94E4268B899C89079741F4A0
:100E900041E062E0C8010E94E426CE01C4DD07C043
:100EA00040E062E0C8010E94E426CE01FDDCE09152
:100EB0000E04F0910F0487859089892B19F403E0C3
:100EC00010E002C000E010E08D859E85009739F0AB
:100ED000DC01ED91FC910480F581E02D0995E09114
:100EE0000604F091070482818F7029F48E8988238B
:100EF00011F00FEF10E080910A0490910B04DC01D7
:100F0000ED91FC910688F789E02D0995B801DF91F4
:100F1000CF911F910F91FF90EF90A1CC809116047B
:100F200090911704DC01ED91FC910480F581E02D96
:100F300024E141E067E009955ACF80E008950895E3
:100F4000089580E0089508950895089581E0089532
:100F5000E62FE695E695E695677021E030E0722F82
:100F600001C0770F6A95EAF7672F71E04F3F51058F
:100F700009F070E09A012D7FAE2FB0E0A80FB91FE5
:100F80002130310511F0772339F0262F2095169660
:100F90003C911697232304C016962C911697262B66
:100FA00016962C93F0E0E80FF91F4230510511F02E
:100FB000772329F06095828568236287089582856A
:100FC000862B82870895262F269526952695820FB3
:100FD000911DFC01828990E0677002C0959587950C
:100FE0006A95E2F781700895DC01ED91FC9102842D
:100FF000F385E02D099590E00895CF93DF93FC01F0
:10100000A62FB0E0EC01CA0FDB1F2D8FA359BE4FF6
:10101000442379F041E050E060E070E00C9004C0BF
:10102000440F551F661F771F0A94D2F7848D842BB7
:101030000FC041E050E060E070E00C9004C0440F4D
:10104000551F661F771F0A94D2F74095848D84231D
:10105000848FDF91CF910895FC018481958108955B
:10106000289A28980895299A29980895882311F094
:10107000459A0895459808950F931F93CF93DF9352
:10108000C0E0D0E0082F10E0C8010C2E02C09595FA
:1010900087950A94E2F78170E9DFE2DF2196C83094
:1010A000D10591F7DF91CF911F910F910895FC0128
:1010B000F8943D9A209A219A289829983B98549818
:1010C000529857983C9A559A539A569A439A5C9AD2
:1010D0005A9A5F9A44985D985B985E9838984098C1
:1010E000509A5898519A59988FEF868382878783B0
:1010F00083878087848781878587778B668B518FED
:10110000408F338F228F82E08093B000E0E7F0E0E1
:1011100080818260808387E08093B1008AE1809340
:10112000B3001092B20078940895CF93DF93EC014E
:1011300080910004811103C0CE01069602C0CE0149
:101140000A9620910104FC01E20FF11D808194DFD9
:101150008C8D92DF88DF80910104813041F028F08E
:10116000823039F0833041F406C0449A05C05D9A5C
:1011700003C05B9A01C05E9A8091010490E00196E1
:101180008370992780930104892B51F48091000486
:1011900090E0019663E070E00E94C73D80930004F8
:1011A000DF91CF9108959F92AF92BF92CF92DF923D
:1011B000EF92FF920F931F93CF93DF93EC0144982C
:1011C0005D985B985E9887E0A82EB12C01E010E056
:1011D000C12CD12C7601C3949A2CC8010A2C01C0D1
:1011E000880F0A94EAF7809547DF8C8D45DF3BDF57
:1011F0002A89D701C6010A2C04C0880F991FAA1F8B
:10120000BB1F0A94D2F7339902C0822B02C080958B
:1012100082238A8B2B89D701C601092C04C0880F31
:10122000991FAA1FBB1F0A94D2F74C9902C0822BA8
:1012300002C0809582238B8B2C89D701C601092C93
:1012400004C0880F991FAA1FBB1F0A94D2F74A999E
:1012500002C0822B02C0809582238C8B8D89B701BE
:10126000A60104C0440F551F661F771F9A94D2F73A
:101270004F9902C0482B02C0409548234D8B81E016
:10128000A81AB10808F0A8CFDF91CF911F910F9154
:10129000FF90EF90DF90CF90BF90AF909F90089518
:1012A000CF93FC0185A1882341F0519A848D81FF61
:1012B00002C0599A18C0599816C0828D938D892BF7
:1012C00091F05198599A89B181FBCC27C0F981FFDF
:1012D00008C080910204811104C0028CF38DE02DBE
:1012E0000995C0930204CF9108956091B30089E0FD
:1012F0009DE370E00E94B33DCB0108951F920F92D1
:101300000FB60F9211241F932F933F934F935F9328
:101310006F937F938F939F93AF93BF93CF93DF93FD
:10132000EF93FF938091DE039091DF0301969093FA
:10133000DF038093DE03C7EFD3E010E088818823CA
:1013400091F0813069F4E091DA03F091DB030480DD
:10135000F581E02D20E040E0612F8AED93E00995D2
:1013600088818150888321961F5F183039F78AED74
:1013700093E019DF8AED93E0D8DE8091F60380FFD9
:1013800002C0589A01C058988AED93E089DFE09135
:10139000F203F091F303309761F086B1C82FC1706A
:1013A00080FF05C080910304811101C00995C0939D
:1013B0000304FF91EF91DF91CF91BF91AF919F9186
:1013C0008F917F916F915F914F913F912F911F91DD
:1013D0000F900FBE0F901F9018958BE491E09093A3
:1013E000DB038093DA0389E691E09093DD03809339
:1013F000DC0308950297F8CD0297E5CDFC01118238
:101400001082138212828AE08483168215821086EB
:10141000178281E081870895FC0171836083538383
:10142000428324830895CF92DF92EF92FF920F932D
:101430001F93CF93DF93EC01C62E6987D12C29C06F
:10144000CC2069F08F8198850D2C02C095958795E9
:101450000A94E2F780FF03C00FEF10E002C000E043
:1014600010E0E881F9810190F081E02DE080F180C9
:101470008A819B81DC01ED91FC910480F581E02D56
:101480006D2D0995A801682F88819981F70109952B
:10149000D3948C81D816A0F2DF91CF911F910F9138
:1014A000FF90EF90DF90CF900895EF92FF920F930F
:1014B0001F93CF93DF93EC012D813E8181E090E07B
:1014C000062E02C0880F991F0A94E2F7442319F0F0
:1014D000822B932B04C080959095822393239E8327
:1014E0008D838985882369F18F819885062E02C0B6
:1014F000959587950A94E2F780FD23C0E881F981EC
:101500000190F081E02DE080F180442319F003E0A8
:1015100010E002C000E010E08A819B81DC01ED91C7
:10152000FC910480F581E02D0995A801682F888140
:101530009981F701DF91CF911F910F91FF90EF906B
:101540000994DF91CF911F910F91FF90EF90089533
:10155000EF92FF920F931F93CF93DF93EC012F81B4
:10156000388581E090E0062E02C0880F991F0A940A
:10157000E2F7442319F0822B932B04C080959095B9
:101580008223932398878F838985882379F18D819E
:101590009E81062E02C0959587950A94E2F780FFFA
:1015A00003C003E010E002C000E010E0442311F0AB
:1015B0000FEF10E0E881F9810190F081E02DE080EB
:1015C000F1808A819B81DC01ED91FC910480F581A1
:1015D000E02D0995A801682F88819981F701DF9195
:1015E000CF911F910F91FF90EF900994DF91CF91D0
:1015F0001F910F91FF90EF9008951F93CF93DF936A
:10160000EC0110E005C040E0612FCE014EDF1F5F0E
:101610008C811817C0F3DF91CF911F910895CF935C
:10162000DF93EC0189E791E0998388838D859E851E
:10163000009739F0DC01ED91FC910280F381E02DFF
:1016400009958F859889009739F0DC01ED91FC911F
:101650000280F381E02D099581E491E099838883EC
:10166000DF91CF910895CF93DF93EC01D8DFCE01C6
:10167000DF91CF910C943E29CF93DF93EC0129E7C2
:1016800031E0FC0121933193CF010E94B8261E86E0
:101690001D86188A1F86198A1A8ADF91CF910895AC
:1016A000CF92DF92EF92FF920F931F93CF93DF932E
:1016B000EC01E0910E04F0910F048281898B8295F8
:1016C0008F708A8B80910A0490910B04DC01ED915C
:1016D000FC910684F785E02D09956E01B2E0CB0EF2
:1016E000D11C6091160470911704EE24E394F12C40
:1016F00000E026E0AC01C6010E94C62680910A04E3
:1017000090910B04DC01ED91FC910088F189E02DB2
:1017100009957C018CE090E00E943C298C0160914D
:1017200016047091170420E1A7010E94AB1D1E87CB
:101730000D87D801ED91FC9169896F700480F58166
:10174000E02DC801099580910A0490910B04DC01F9
:10175000ED91FC910288F389E02D09957C018CE0E4
:1017600090E00E943C298C0160911604709117044E
:1017700024E0A7010E94AB1D188B0F87D801ED91C3
:10178000FC910480F581E02D6A89C8010995C0E0CB
:10179000D0E0E0910E04F0910F04418150E00C2E56
:1017A00002C0559547950A94E2F7142F1170412F06
:1017B0006C2F80910C0490910D0477DE412F6C2FDB
:1017C000C6010E94E4262196C630D10511F7DF91AB
:1017D000CF911F910F91FF90EF90DF90CF900895E0
:1017E0000F931F93CF93DF931F92CDB7DEB78C017A
:1017F000DC011F968D919C9150970E940124BE019F
:101800006F5F7F4FF801878590890E943A24882373
:1018100021F1D80152969C91898189132CC01DC059
:10182000F80185859685DC01ED91FC910680F781B4
:10183000E02D09958981F801828B6189962F929517
:101840009F7098131FC085859685DC01ED91FC91F2
:101850006F700480F581E02D0CC0F80187859089B8
:10186000DC01ED91FC910480F581E02DD8015296C8
:101870006C91099507C0F801818982958F70891351
:10188000D9CFCECF0F90DF91CF911F910F910895B7
:10189000BF92CF92DF92EF92FF920F931F93CF935D
:1018A000DF9300D0CDB7DEB78C019ADFF8018585D4
:1018B00096850E9401247801F2E0EF0EF11CC70129
:1018C0000E942E271982BE016F5F7F4FF801858528
:1018D00096850E943A24F80192896981F0E19F9FE0
:1018E000600D11246983882371F0F80181896817DC
:1018F00051F080910E0490910F040E944B23898136
:10190000F801818B39C000E010E0CC24C394D12CC5
:10191000B02E602FC7010E94D326E0910E04F091F3
:101920000F049181292F30E0002E02C035952795B4
:101930000A94E2F721708217D1F09601002E01C0BF
:10194000220F0A94EAF7882311F0292B02C0209570
:10195000292321830388F489E02D8A8309958A81CC
:10196000482F6B2D80910C0490910D049EDD0F5F2C
:101970001F4F0630110561F60F900F90DF91CF9148
:101980001F910F91FF90EF90DF90CF90BF9008953F
:1019900021E431E0FC0131832083089521E431E02A
:1019A000FC01318320830C943E29FC0183E891E003
:1019B00091838083148281E08583178216828287D7
:1019C000838708959F92AF92BF92CF92DF92EF925A
:1019D000FF920F931F93CF93DF93D62E942E59012E
:1019E000F801611109C08081811103C0D9011D92E4
:1019F0001C9281E0808301C01082E70100E010E0CA
:101A0000EE24E394F12C23C0C701002E02C0880FFE
:101A1000991F0A94E2F7F5012081318182239323F3
:101A2000892B21F4CC20B9F0D41215C04FEF50E02F
:101A30006991A0911604B0911704ED91FC91119752
:101A40000190F081E02DCD0109950F5F1F4F402FD0
:101A50000915D0F203C040E050E0EACFDF91CF910A
:101A60001F910F91FF90EF90DF90CF90BF90AF90BC
:101A70009F900895CF92DF92EF92FF920F931F9362
:101A8000CF93DF93EC01E0910604F0910704D2803C
:101A900080910A0490910B04DC01ED91FC91028885
:101AA000F389E02D09958E01055F1F4F9E01285F88
:101AB0003F4F6D2D6370C12C7C0144E0CE0182DF6D
:101AC00080910A0490910B04DC01ED91FC91008857
:101AD000F189E02D09958E01065F1F4F9E012A5F57
:101AE0003F4F6D2D70E076956795769567956F7091
:101AF0007727CC24C3947C0140E1CE0163DFDF91E2
:101B0000CF911F910F91FF90EF90DF90CF900895AC
:101B10006F927F928F929F92AF92BF92CF92DF92FD
:101B2000EF92FF920F931F93CF93DF93EC0100E0AE
:101B300010E0E12CF12CAA24A394B12C6501002E15
:101B400002C0CC0CDD1C0A94E2F76A807B806C201A
:101B50007D20E0911604F09117040280F381E02DBE
:101B60008280938080910A0490910B04DC01ED91B6
:101B7000FC910480F581E02D602F099520911604D9
:101B800030911704682FC9010296F401099567285E
:101B900009F053C08823A9F1602F8091120490911D
:101BA00013040E9474269C01369527953695279537
:101BB0002F703327A50102C0440F551F2A95E2F765
:101BC0002E813F81242B352B3F832E8383709927D1
:101BD000950102C0220F331F8A95E2F7C9012885BB
:101BE0003985282B392B3987288708C0602F8091A9
:101BF0001204909113040E94582603C0EC28FD287B
:101C000004C0C094D094EC20FD200F5F1F4F06301D
:101C1000110509F093CFFB82EA82CE01DF91CF91CB
:101C20001F910F91FF90EF90DF90CF90BF90AF90FA
:101C30009F908F907F906F901DCF8111DFCFD6CF77
:101C400008954F925F926F927F928F929F92AF9280
:101C5000BF92CF92DF92EF92FF920F931F93CF9399
:101C6000DF93EC012801390157016A017B0110E083
:101C70004C185D086E087F0888248394912CA11469
:101C8000B104F9F0812F82958F70F501E80FF11DF5
:101C9000E80FF11D812F8F70940102C0220F331FB6
:101CA0008A95E2F7C9012081318182239323892B10
:101CB00041F41F5F32E0D30EE11CF11C1034F9F641
:101CC00021C0B701A6018CE194E00E94E12B69815B
:101CD0007A8142E251E08CE194E00E94D62AB3017D
:101CE000A2014C0D5D1D6E1D7F1D8CE194E00E94D4
:101CF000E12B69817A8142E251E088E194E00E941F
:101D0000F731D7CFDF91CF911F910F91FF90EF90D7
:101D1000DF90CF90BF90AF909F908F907F906F900B
:101D20005F904F900895CF92DF92EF92FF920F93C2
:101D30001F93CF93DF936C01EB017A01FC01728357
:101D4000618342E06AE086E394E00E94BA3143E0B6
:101D500060E071E08CE194E00E943730811134C082
:101D60008CE194E00E94702D43E660E071E08CE12C
:101D700094E00E94373081110CC08CE194E00E9405
:101D8000702D43E060E071E08CE194E00E94373018
:101D90001BC000E810E042E251E0BE0188E194E09F
:101DA0000E94F73148E050E0B70188E194E00E94DA
:101DB000F73146ED50E0BE0188E194E00E94F73132
:101DC0000150110941F7D9CFE12CF12C00E010E0CE
:101DD000980140E050E860E070E0C60132DFDF913A
:101DE000CF911F910F91FF90EF90DF90CF900895CA
:101DF000CF93DF93EC01562F550F40E0662757FD38
:101E00006095762F8CE194E00E94E12B69817A81C4
:101E100042E251E088E194E0DF91CF910C94F731F8
:101E2000EF92FF920F931F93CF93DF93EC01790111
:101E3000962F990F80E0480F591F60E070E08CE109
:101E400094E00E94E12B69817A816E0D7F1DA801CB
:101E50008CE194E0DF91CF911F910F91FF90EF9073
:101E60000C94D62A0F931F9302E211E020E030E099
:101E700040E050E0D5DF1F910F910895CF93DF939D
:101E8000EB0142E251E060E070E08CE194E00E94FE
:101E9000E12B48E050E0BE018CE194E0DF91CF916E
:101EA0000C94D62ACF93DF93EB0142E251E060E03D
:101EB00070E08CE194E00E94E12B48E050E0BE012C
:101EC00088E194E00E94F73142E251E860E070E07E
:101ED0008CE194E00E94E12B48E050E0BE0188E1F3
:101EE00094E00E94F73142E253E060E070E08CE160
:101EF00094E00E94E12B48E050E0BE018CE194E0C8
:101F0000DF91CF910C94D62A89E180933704109207
:101F10003A0410924D0410925404109256041092F8
:101F20001C0410921E0410921B0410921A048BE1E0
:101F300092E090931904809318040895CF93DF934F
:101F4000EC018DE891E0998388838E819F810097D1
:101F500039F0DC01ED91FC910280F381E02D0995CF
:101F600088859985009739F0DC01ED91FC9102801C
:101F7000F381E02D099581E491E099838883DF91D5
:101F8000CF910895CF93DF93EC01D8DFCE01DF919D
:101F9000CF910C943E29FC018DE891E091838083E0
:101FA000128213821582148217821682118610867D
:101FB000CF010A960C94B8266130710551F0623059
:101FC000710519F0672B41F003C023E030E006C033
:101FD000089520E030E002C02FEF30E0C9010895FD
:101FE0009F92AF92BF92CF92DF92EF92FF920F93A8
:101FF0001F93CF93DF93CDB7DEB7A3970FB6F894B7
:10200000DEBF0FBECDBF8C018091100490911104F2
:10201000DC01ED91FC910680F781E02D9E012F5DA2
:102020003F4FD80112964C91129713966C910995D7
:102030008091100490911104DC01ED91FC91D80184
:1020400012966C916295607F0484F585E02DAE0157
:102050004F5F5F4F0995CC24C394D12CCC0EDD1E6D
:10206000912C5801BAE0AB0EB11C892D869586954E
:102070008695E9A1FAA1E80FF11D208130E0892DB4
:10208000877002C0359527958A95E2F720FF04C036
:10209000EE24EA94F12C02C0E12CF12CBE016D5D1E
:1020A0007F4FF801808591850E943A24811106C0F6
:1020B000D6016D917C91C8017FDF7C0180910A047B
:1020C00090910B04DC01ED91FC910680F781E02DED
:1020D000692D0995B7010E942F0441E0BFEFEB166F
:1020E000F10409F040E0692DC5010E94E4269394B3
:1020F000E2E0CE0ED11CF0E19F12B7CFA3960FB64F
:10210000F894DEBF0FBECDBFDF91CF911F910F912D
:10211000FF90EF90DF90CF90BF90AF909F90089589
:10212000AF92BF92CF92DF92EF92FF920F931F93E5
:10213000CF93DF9300D000D01F92CDB7DEB78C01D4
:102140001D82BE016B5F7F4FDC0118968D919C91C3
:1021500019970E943A24B82E80911004909111048E
:10216000DC01ED91FC91BB2049F00684F785E02D60
:10217000AE014F5F5F4F6D81099507C00088F189FF
:10218000E02DBE016F5F7F4F0995EE24E394F12CA3
:10219000EC0EFD1EA12CF8018281A81641F0D7019A
:1021A0008C91882341F033E0C32ED12C06C0CC247F
:1021B000CA94D12C02C0C12CD12C80910A049091D8
:1021C0000B04DC01ED91FC910084F185E02D6A2D7A
:1021D0000995B6010E942F04A394BFEFEB1AFB0AE6
:1021E000E4E0AE12D8CFF12CEE24E394EB248D8101
:1021F000F81611F04E2D01C041E06F2D80910C04B6
:1022000090910D0452D9F394F6E0FF12F0CFC8017B
:10221000E7DE0F900F900F900F900F90DF91CF910E
:102220001F910F91FF90EF90DF90CF90BF90AF90F4
:102230000895CF92DF92EF92FF920F931F93CF9367
:10224000DF93EC01F62E6B834A8380910A04909110
:102250000B04DC01ED91FC910288F389E02D0995D6
:102260006C018AE090E00E943C298C01E091160408
:10227000F0911704309721F0BF016E5F7F4F02C0CD
:1022800060E070E024E0A601C8010E94F2231F83F1
:102290000E8380910A0490910B04DC01ED91FC9176
:1022A0000684F785E02D09956C018AE090E00E9494
:1022B0003C298C01E0911604F0911704309721F02D
:1022C000BF016E5F7F4F02C060E070E026E0A601B4
:1022D000C8010E94F22319870887D801ED91FC916B
:1022E0000480F581E02D6F2DC801099580910A04C5
:1022F00090910B04DC01ED91FC910088F189E02DB7
:1023000009956091160470911704EE24E394F12C62
:1023100000E020E1AC01CE010A960E94C626CE0163
:10232000DF91CF911F910F91FF90EF90DF90CF90B1
:10233000F7CE1F93CF93DF93EC01162F80911004FB
:1023400090911104DC01ED91FC91442391F00288FD
:10235000F389E02D462F6B810995412F4F5F6B81EB
:102360008091140490911504DF91CF911F910C94EA
:10237000B3220488F589E02D0995612F6F5F809164
:10238000140490911504DF91CF911F910C94CB22EE
:102390002F923F924F925F926F927F928F929F9275
:1023A000AF92BF92CF92DF92EF92FF920F931F9363
:1023B000CF93DF93CDB7DEB72F970FB6F894DEBF7C
:1023C0000FBECDBF4C011C86BE01645F7F4FDC0198
:1023D00018968D919C9119970E943A24182FF40118
:1023E000868197810E940124D40118968D919C9139
:1023F00019970E9401242401BAE04B0E511CC2011E
:102400000E942E27BE01645F7F4FF4018085918575
:102410000E943A24382E811309C0882309F1D4017F
:1024200013969C918C85981303C01AC0882311F0D1
:102430008C8502C0F4018381D40113968C93139789
:1024400012961C92129716968D919C911797DC010B
:10245000ED91FC910480F581E02D60E0099518C1B3
:10246000E0911604F09117040280F381E02D0281BF
:10247000138180910A0490910B04DC01ED91FC9191
:10248000048CF58DE02D09952091160430911704E8
:10249000682FC9010296F80109958E87882309F4EF
:1024A0003FC0F12CE0911604F09117040280F381F3
:1024B000E02D0281138180910A0490910B04DC01CC
:1024C000ED91FC910084F185E02D6F2D099520910F
:1024D000160430911704682FC9010296F801099576
:1024E000882351F06F2D6295607F615F432DC40199
:1024F00020DFC40115DE04C0F394F4E0FF12D2CF54
:10250000D40116968D919C911797DC01ED91FC9169
:102510000480F581E02DD40112966C91099511C0CB
:102520001B86BE01655F7F4FF401868197810E9403
:102530003A24882331F08B85D40112969C9198130C
:10254000A4C0612C712C6D8601E010E0062C02C045
:10255000000F111F0A94E2F7F40184819581802312
:10256000912322242394892B09F4212CE091160431
:10257000F09117040280F381E02DE080F1808091DA
:102580000A0490910B04DC01ED91FC910680F78127
:10259000E02D6D8509952091160430911704682F60
:1025A000C9010296F701099541E0D40114962D91D5
:1025B0003C911597892B59F440E0C801809590957E
:1025C0008223932315969C938E93149705C0022B18
:1025D000132BF40115830483D40112968C914215B8
:1025E00009F44AC05D85B0E18B9F500D1124EE8542
:1025F000EE23E1F1212CD40113968C91281611F0D1
:1026000031102FC06091100470911104DB01ED9125
:10261000FC910190F081E02D252F422DCE010196F5
:102620005F8709956D85C2010E94D3268983A09199
:102630001004B0911104ED91FC9111970480F58183
:10264000E02DA82EBA80CB80DC80ED80FE800F814B
:10265000188529853A855F85452F622DCD0109951D
:102660005F852394B6E02B12C6CF04C0432D652F9F
:10267000C4015FDEC40154DDEFEF6E1A7E0AF0E1A3
:102680006F16710409F05FCF05C0D40112968C93C8
:10269000C40146DD2F960FB6F894DEBF0FBECDBF46
:1026A000DF91CF911F910F91FF90EF90DF90CF902E
:1026B000BF90AF909F908F907F906F905F904F9062
:1026C0003F902F900895CF93DF93EC0187E991E03D
:1026D0009983888389859A85009739F0DC01ED918B
:1026E000FC910280F381E02D09958B859C850097F4
:1026F00039F0DC01ED91FC910280F381E02D099528
:10270000888D998D009739F0DC01ED91FC91028064
:10271000F381E02D099581E491E099838883DF912D
:10272000CF910895CF93DF93EC01CDDFCE01DF9100
:10273000CF910C943E29CF93DF93EC0187E991E090
:10274000998388831A821B821C8282E090E09E8398
:102750008D8318861F821A8619861C861B86CE01D9
:102760000D960E94B826198E188E1A8E8AE08B8FCD
:1027700081E08C8FDF91CF9108950F931F93CF93BA
:10278000DF9300D0CDB7DEB78C018091100490911B
:102790001104DC01ED91FC910680F781E02D9E0192
:1027A0002F5F3F4FD80113964C91139714966C915D
:1027B0000995E981FA81738160E08281682B6095D7
:1027C0007095F80170876783808D918D0E944A37DC
:1027D0000F900F90DF91CF911F910F910895FF926D
:1027E0000F931F93CF93DF93EC01F12C8B81F812A1
:1027F00003C00FEF10E002C000E010E080910A0477
:1028000090910B04DC01ED91FC910084F185E02DA9
:102810006F2D0995B8010E942F04F394B4E0FB12C8
:10282000E5CF10E00CC041E08C81181340E0612F2F
:1028300080910C0490910D040E94550A1F5F8B8DAE
:10284000181788F3CE01DF91CF911F910F91FF9060
:1028500094CFEF92FF920F931F93CF93DF93EC01EE
:102860006A830B834B8F2C8380910A0490910B0415
:10287000DC01ED91FC910288F389E02D09957C0142
:102880008AE090E00E943C298C01609116047091CE
:1028900017046115710519F06E5F7F4F02C060E08B
:1028A00070E024E0A701C8010E94F2231A8709877B
:1028B000D801ED91FC910480F581E02D6B81C80178
:1028C000099580910A0490910B04DC01ED91FC9133
:1028D0000288F389E02D0995609116047091170420
:1028E000EE24E394F12C00E024E0AC01CE010D963F
:1028F0000E94C62680910A0490910B04DC01ED91A0
:10290000FC910684F785E02D09957C018AE090E032
:102910000E943C298C012B8D609116047091170444
:102920006115710519F06E5F7F4F02C060E070E0C5
:10293000A701C8010E94F2231C870B8789E190E060
:102940000E943C298C010E940C37198F088F4091FE
:102950000A0450910B046091160470911704C80189
:102960000E942737CE01DF91CF911F910F91FF90E9
:10297000EF9035CFFC01A0911404B091150484812F
:10298000A80FB11D16966C9166956695362F3295F7
:102990003F702381808D918D321305C0248D2223B9
:1029A00011F06F7001C06FEF0C94C3372F923F92FC
:1029B0004F925F926F927F928F929F92AF92BF924F
:1029C000CF92DF92EF92FF920F931F93CF93DF93FB
:1029D000CDB7DEB72E970FB6F894DEBF0FBECDBFD2
:1029E0004C011C86BE01645F7F4FDC011B968D91FC
:1029F0009C911C970E943A24F82EF40183859485BB
:102A00000E940124D40158968D919C915997DC0124
:102A1000ED91FC910480F581E02D0995E09116047B
:102A2000F09117040280F381E02D028113818091DF
:102A30000A0490910B04DC01ED91FC91028CF38D62
:102A4000E02D09952091160430911704682FC901D3
:102A50000296F8010995D4015896ED91FC91599789
:102A6000882389F091E0978B25892F3F81F0139679
:102A70008C91880F880F820FE0911404F091150457
:102A8000908B818BFDC1178A00E010E002C00FEF30
:102A900010E080910A0490910B04DC01ED91FC910F
:102AA000028CF38DE02D0995B8010E942F04E0916E
:102AB0001404F0911504108A1C86F4011481BE01DF
:102AC000645F7F4F838594850E943A248823F9F0C0
:102AD0009C85D40114962C9114972917C1F0149653
:102AE0009C93149713961C92C40179DE8091140470
:102AF00090911504FC012785222309F43CC242E091
:102B000050E0D40114966C910E949C2134C2F812BA
:102B100004C0F4018481811749F0809114049091DC
:102B20001504DC011F962C91211101C2D401589685
:102B3000ED91FC91599785898F3F19F0282E91E0EE
:102B400002C0212C90E0D4015A968C915A97981784
:102B500009F4B4C0811192C081E05A968C93168A10
:102B60006091100470911104DB01ED91FC91D4018E
:102B700013968C91222DB0E18B9F200D1124019092
:102B8000F081E02DD40114964C91CE010196099567
:102B90003E01B3E06B0E711C7301B12C312C24018A
:102BA000EDE04E0E511CD7018D919D917D0141E0CC
:102BB000039709F440E0311005C0442341F0332469
:102BC000339402C0442319F00FEF10E002C000E07C
:102BD00010E080910A0490910B04DC01ED91FC91CE
:102BE0000084F185E02D6B2D4E870995B8010E9478
:102BF0002F044E856B2DC2010E94E426B394B4E0ED
:102C0000BB12D1CF31105AC010E0112309F497C183
:102C1000E0910E04F0910F04208130E0F401048073
:102C200002C0359527950A94E2F720FD88C11F5F01
:102C3000F2E06F0E711C143041F7809110049091F6
:102C40001104DC01ED91FC91D40113962C91422DDD
:102C5000B0E12B9F400D11240480F581E02DA98067
:102C6000BA80CB80DC80ED80FE800F8118852985BD
:102C70003A85D40114966C91099520C0F401128E06
:102C8000F12CD40113968C91F81203C00FEF10E0D1
:102C900002C000E010E080910A0490910B04DC0176
:102CA000ED91FC910084F185E02D6F2D0995B8011F
:102CB0000E942F04F394B4E0FB12E3CFF401828D61
:102CC000882309F497C02401FDE04F0E511CC20176
:102CD0000E942E276091100470911104DB01ED9188
:102CE000FC91D40113968C91222DB0E18B9F200D85
:102CF00011240190F081E02DD40114964C91CE0165
:102D0000019609953E01B3E06B0E711C50E01D86E3
:102D100033243394F30180819181039709F4312C9A
:102D2000652FC2015E870E94D3265E85381609F49E
:102D30004CC0D4015896ED91FC915997B1E0B68BF7
:102D4000311004C0F4018581968102C083E090E0D7
:102D5000D3018D939C93311003C00FEF10E002C09C
:102D600000E010E080910A0490910B04DC01ED91E9
:102D7000FC910084F185E02D652F5E870995B801EF
:102D80000E942F048091100490911104DC01ED91B8
:102D9000FC91D40113962C91422DB0E12B9F400D54
:102DA00011240480F581E02DA980BA80CB80DC80DD
:102DB000ED80FE800F81188529853A85D40114960F
:102DC0006C910995B1E03B265E85ED85E11101C06E
:102DD0003D865F5FF2E06F0E711C543009F098CFB2
:102DE0003D8531110CC0D4015896ED91FC91599755
:102DF000168A05C0F401818592850E9401241B86F4
:102E0000BE01655F7F4FD40119968D919C911A97F1
:102E10000E943A24882339F08B85F4019381981716
:102E2000E1F0838317C0E0911404F0911504D401FC
:102E300014968C911497E80FF11D868182958695E2
:102E4000869583708B8713969C911397981729F01A
:102E500013968C93C401C3DC8EC0F401808D918DD8
:102E60000E94AD371C01D40158968D919C915997C1
:102E70000E94B8372C012114310429F4009719F469
:102E8000C40178DD78C0612C712C562D81E090E072
:102E9000062C02C0880F991F0A94E2F79C01222198
:102EA0003321BB24B394232B09F4B12C8421952125
:102EB000892B11F4BB2091F1F4018381F0E18F9F04
:102EC000500D11246091100470911104DB01ED91FB
:102ED000FC910190F081E02D252FD40114964C91A6
:102EE000CE0101965E870995BA8280911004909177
:102EF0001104DC01ED91FC910480F581E02DA980A5
:102F0000CB80DC80ED80FE800F81188529853A8595
:102F10005E85452FD40114966C910995BFEF6B1A0D
:102F20007B0AE0E16E16710409F0AFCFA9CF42E051
:102F300050E0D40114966C910E949C21F7CDF401CD
:102F400085819681D3018D939C9380910A04909101
:102F50000B04DC01ED91FC910084F185E02D612FE3
:102F600009956FEF70E00E942F0441E0612FC201CC
:102F70000E94E4265CCE2E960FB6F894DEBF0FBEFC
:102F8000CDBFDF91CF911F910F91FF90EF90DF9018
:102F9000CF90BF90AF909F908F907F906F905F90F9
:102FA0004F903F902F900895CF93DF93EC0181EAEB
:102FB00091E0998388838A819B81009739F0DC01B5
:102FC000ED91FC910280F381E02D09958C819D812A
:102FD000009739F0DC01ED91FC910280F381E02D46
:102FE000099561E080910C0490910D040E94130AF0
:102FF00081E491E099838883DF91CF910895CF9305
:10300000DF93EC01D1DFCE01DF91CF910C943E290B
:10301000CF93DF93EC0181EA91E0998388831B824F
:103020001A821D821C82CE0106960E94B8261B8A37
:103030001A8A1C8A1D8A1E8ACE014896DF91CF917A
:103040000C94B8268F929F92AF92BF92CF92DF924C
:10305000EF92FF920F93CF93DF931F92CDB7DEB71E
:103060004C01D62E60E080910C0490910D044983B0
:103070000E94130AD4015496DC92549749815596C4
:103080004C9380910A0490910B04DC01ED91FC912A
:103090000288F389E02D09955C018CE090E00E94A4
:1030A0003C296C01609116047091170424E0A5017D
:1030B00052D5F401D382C28280910A0490910B040C
:1030C000DC01ED91FC910088F189E02D09955C010E
:1030D0008CE090E00E943C296C0160911604709194
:1030E000170424E0A50137D5F401D582C48280916C
:1030F0000A0490910B04DC01ED91FC910684F785A4
:10310000E02D09956401B6E0CB0ED11C6091160448
:1031100070911704EE24E394F12C01E026E0AC0159
:10312000C6010E94C62680910A0490910B04DC011E
:10313000ED91FC910484F585E02D09955401B8E1E9
:10314000AB0EB11CAC014E5F5F4F609116047091E5
:10315000170421E0C5010E94C626E0910E04F091FB
:103160000F0441E087859089892B09F040E060E0F9
:10317000C5010E94E426F40182819381DC01ED9176
:10318000FC91A0910E04B0910F040480F581E02D14
:1031900015966C910995F40184819581DC01ED917E
:1031A000FC91A0910E04B0910F040480F581E02DF4
:1031B00017966C910995A12CB12CE0910E04F09119
:1031C0000F04408150E00A2C02C0559547950A949F
:1031D000E2F741706A2DC6010E94E426BFEFAB1AE8
:1031E000BB0AE6E0AE16B10441F70F90DF91CF9134
:1031F0000F91FF90EF90DF90CF90BF90AF909F9096
:103200008F900895CF92DF92EF92FF920F931F93CA
:10321000CF93DF9380917104882309F43FC080E34A
:10322000689FE0011124ACE02A9FC00DD11D11243C
:10323000B0E34B9F600111248CE0089FC00CD11CAF
:10324000112460917004E0910E04F0910F048281CA
:10325000681751F087019601AE01809108049091A2
:1032600009040E94100F1AC080911004909111045B
:10327000DC01ED91FC910284F385E02D0995C80FE6
:10328000D91FFC01EC0DFD1D20E030E004C0899148
:1032900081932F5F3F4F2E153F05C9F7DF91CF91E7
:1032A0001F910F91FF90EF90DF90CF9008954F9274
:1032B0005F926F927F928F929F92AF92BF92CF92C6
:1032C000DF92EF92FF920F931F93CF93DF9300D083
:1032D0001F92CDB7DEB76C01DC0156969C915697D4
:1032E0009923A9F157968C9157978F5F57968C9396
:1032F0005797843618F0915056969C9364E60E9436
:10330000A73DF601978B892F90E0C19683369105F2
:1033100018F400E010E002C00FEF10E080910A0402
:1033200090910B04DC01ED91FC91008CF18DE02D6E
:103330000995A0911604B0911704ED91FC91119795
:103340000190F081E02DA801682FCD01099546017B
:10335000B6E08B0E911CC4010E942E27F6018281DB
:1033600093810E940124D60114968D919C9115970A
:103370000E9401248601085E1F4FC8010E942E276B
:10338000E0910E04F0910F04FF24F3942785308917
:10339000232B09F0F12C60E0C8010E94D3268F1581
:1033A000C1F08F2D90E0E0900E04F0900F04F70133
:1033B000278530892817390761F0908B8787018826
:1033C000F289E02D0995D7015396ED91FC91549720
:1033D00009951A82BE016E5F7F4FF601828193814B
:1033E0000E943A24A0910E04B0910F04882399F012
:1033F0008A8190E015962D913C91169728173907F0
:10340000B9F016969C938E9315975396ED91FC9177
:10341000549709950DC0F60182819381FC012081AA
:103420003181F9012481358115966C91F901099555
:103430001982BE016F5F7F4FD60114968D919C91CA
:1034400015970E943A24E0900E04F0900F04882310
:10345000A9F0898190E0F701278130852817390785
:10346000D1F0908787830184F285E02D0995D701FB
:103470005396ED91FC91549709950DC0F601848106
:103480009581DC01ED91FC910480F581E02DD7015F
:1034900017966C910995E12CF12C01E010E0E09178
:1034A0000E04F0910F04A080B12C0E2C02C0B59434
:1034B000A7940A94E2F7B1E0AB22BB246E2DC401BD
:1034C0000E94D32690E0A816B90651F1E0910E04AF
:1034D000F0910F044081242F30E00E2C02C035956E
:1034E00027950A94E2F72170332728173907C1F08E
:1034F0008130910541F40E2C01C0880F0A94EAF73F
:10350000842B808309C098010E2C01C0220F0A94DD
:10351000EAF72095242320830388F489E02D099578
:10352000EFEFEE1AFE0AF6E0EF16F10409F0B7CF5E
:1035300063E0A62EB12C66246394712CE2E05E2E2B
:10354000442443942A2D43010A2C02C0880C991C60
:103550000A94E2F7D60152960D911C9153970821D7
:10356000192180910A0490910B04DC01ED91FC91EA
:10357000233031F4008CF18DE02DAB82099506C02B
:103580000680F781E02D6A2DAB8209952B81A091F1
:103590001604B09117041296ED91FC9113970280D6
:1035A000F381E02D682FCD0102962B8309952B81A5
:1035B000012B09F028C1882309F42FC1E0900E04E3
:1035C000F0900F04F70183859485293009F49EC09B
:1035D00080F4263009F468C030F4243009F4ACC01B
:1035E0002530C9F47DC0273009F44FC0283099F444
:1035F00084C02C3009F4C1C030F42A3009F493C0DF
:103600002B3049F438C02E3009F4D2C008F4C4C0BD
:103610002F3009F4E5C0D70112966C91809108040F
:10362000909109040E94F80EE0900E04F0900F04AF
:10363000B5E1EB0EF11C00E010E820E030E040E0E6
:1036400050E0BA0180910804909109040E94210E73
:10365000E0910E04F0910F04628180910804909132
:1036600009040E94320F80910E0490910F04F2D74A
:10367000F601568ACAC0009709F4C7C0029794871A
:1036800083870584F685E02D07C00296F7019487AD
:1036900083870584F685E02D0995D7015396ED9132
:1036A000FC9154970995B1C0E0910404F091050490
:1036B0000190F081E02D008111818091160490919C
:1036C0001704DC01ED91FC910280F381E02D099556
:1036D000BC018091040490910504F801099595C0FE
:1036E000828180937004F601848980936F048589B8
:1036F00080936E044092710488C050E3E52EF12C53
:1037000000E020E0D60154964C9108C04CE0E42E35
:10371000F12CF601058920916E04448960916F04B3
:10372000C60170DD72C032E2E32EFF24F39400E0A4
:1037300020E040E060E0F4CFF5E1EF0EF11C00E0A6
:1037400010E0980140E050E860E070E080910804EB
:10375000909109040E94210EE0910E04F0910F0453
:10376000628180910804909109040E94320F809137
:103770000E0490910F046ED748C080911004909170
:103780001104DC01ED91FC910688F789E02DD6014A
:1037900054966C91099539C0809110049091110450
:1037A000DC01ED91FC91008CF18DE02D09952DC08F
:1037B0008091100490911104DC01ED91FC9102883C
:1037C000F389E02D4FE0D60154966C91099540E1C4
:1037D000F60164898091140490911504C4D615C033
:1037E0008091100490911104DC01ED91FC9104880A
:1037F000F589E02D6FE0099560E1809114049091C6
:103800001504C9D602C0882341F0F6018289938944
:1038100088299929938B828B0DC080949094D6012E
:1038200052968D919C9153978821992153969C9300
:103830008E935297BFEFAB1ABB0AE0E1AE16B1040C
:1038400009F080CE0F900F900F90DF91CF911F91D4
:103850000F91FF90EF90DF90CF90BF90AF909F902F
:103860008F907F906F905F904F9008950F931F936C
:10387000CF93DF93EC019B01EA81FB818F819885D7
:103880008B01081B190BCF0163E070E00E94B33D70
:103890000617170718F438872F8307C0CF018095C4
:1038A0009095820F931F98878F83E881F98102801A
:1038B000F381E02DB901CE01DF91CF911F910F91DE
:1038C00009940F931F93CF93DF93EC018B018F81AA
:1038D00098859B01281B390BC9016A817B8162177E
:1038E000730760F40E94B33D9801281B390B388799
:1038F0002F83ED81FE81309709F009958F8198859E
:10390000081B190B8A819B819695879521E080176A
:10391000910708F020E02C83DF91CF911F910F9148
:103920000895CF93DF93EC010E942D388BEA91E04C
:103930009983888318861F82DF91CF910895FC01B7
:103940006587408B4CE3429FC001439F900D11243B
:1039500068E770E00E94B33D738362830895CF935C
:10396000DF93EC012E858F85280F2F878D85815061
:103970008E878989882339F08F819885AB01481B10
:10398000590B5B834A8378876F837A8769872F5FB8
:103990002F87E881F9810280F381E02DCE0109951E
:1039A00081E0898BDF91CF910895DF92EF92FF92B2
:1039B0000F931F93CF93DF93EC018B014E8544232C
:1039C00029F12A813B81DD84ED2CF12C89859A85B2
:1039D000FB01E81BF90BC901B7010E94B33D6E174B
:1039E0007F07A0F48F858F5F8F87D41AD29EC00186
:1039F000D39E900D1124B7010E94B33D8F8198850D
:103A0000680F791F7A87698741504E878F85882391
:103A1000A1F08B859C859801281B390B888990E043
:103A20008217930750F4ED81FE81309709F00995D4
:103A30001C870B878F8581508F878B859C85081B02
:103A4000190B8889869590E021E08017910708F08E
:103A500020E02C83DF91CF911F910F91FF90EF9089
:103A6000DF900895CF93DF93EC010E942D3883EB14
:103A700091E0998388831A86198682E08D871E8655
:103A80001F86188A198ADF91CF9108959C014CE313
:103A9000469FC001479F900D1124B9010E94B33D7C
:103AA00084E0769567958A95E1F7CB0108959C01AE
:103AB0004CE3469FC001479F900D1124B9010E941D
:103AC000B33D94E0769567959A95E1F7CB0108951B
:103AD0002BEE31E0FC01318320830895CF93DF93F7
:103AE000EC018985882399F0AA85BB85ED91FC912D
:103AF00011972F818C819D81820F911D20813181B1
:103B000040E050E0FC016081CD01F9010995198682
:103B1000DF91CF910895CF93DF93EC0142D6AA8530
:103B2000BB85ED91FC9111978F810C80DD81C02DBB
:103B3000C80FD11D0190F081E02D4FEF50E068815A
:103B4000CD01DF91CF9109942BEE31E0FC0131835F
:103B500020830C943E290F931F93CF93DF93EC01A6
:103B60008B016115710519F06E5F7F4F02C060E037
:103B700070E0CE0137D68DEB91E0998388831B8767
:103B80000A87DF91CF911F910F910895FC017383F4
:103B900062830895FC0182819381089529EC31E0CC
:103BA000FC013183208308955F926F927F928F9200
:103BB0009F92AF92BF92CF92DF92EF92FF920F93BC
:103BC0001F93CF93DF93CDB7DEB72A970FB6F89444
:103BD000DEBF0FBECDBF7C01862E6A015901DA011E
:103BE0009C90DC01ED91FC910190F081E02D292D5C
:103BF000462FBC018E010F5F1F4FC80109958AE057
:103C0000F801D50101900D928A95E1F7702E612E91
:103C10008AE0582E1DC0F6010081202F30E02F5F72
:103C20003F4F2F73332720839216C1F0F701A081F5
:103C3000B181ED91FC91482DB701872D962D099505
:103C4000E72DF62DD501852D01900D928A95E1F78E
:103C5000D5018C918823F9F281E001C080E02A9699
:103C60000FB6F894DEBF0FBECDBFDF91CF911F918D
:103C70000F91FF90EF90DF90CF90BF90AF909F900B
:103C80008F907F906F905F90089550E3659FB00193
:103C90001124ECE04E9F600D711D1124FC01828106
:103CA0009381860F971FF9019183808308954F9226
:103CB0005F926F927F928F929F92AF92BF92CF92BC
:103CC000DF92EF92FF920F931F93CF93DF93CDB7C5
:103CD000DEB72A970FB6F894DEBF0FBECDBF7C01CA
:103CE000562E8A01912C92E0C92ED12CAA24A3949D
:103CF000B12C2BC0D701ED91FC910190F081E02D0A
:103D0000242D482DB701CE0101960995898188237C
:103D100011F0739401C063948394B6E08B12EACFE0
:103D2000711004C0F801B182A08209C0611004C002
:103D3000D8011D921C9203C0F801D182C0829394D5
:103D40000E5F1F4FF0E19F1631F0812C612C712C1A
:103D5000492C450CCFCF2A960FB6F894DEBF0FBE84
:103D6000CDBFDF91CF911F910F91FF90EF90DF902A
:103D7000CF90BF90AF909F908F907F906F905F900B
:103D80004F900895FC0122813381FA0180E090E098
:103D900040E3649F200D311D1124D901A80FB91FE4
:103DA0004C91411107C041E011965C91511103C043
:103DB00040E001C041E041930C968033910569F7E2
:103DC00008950F931F93CF93DF93FB011382128209
:103DD0001182108220E030E022C0D8016C91611184
:103DE0000FC0EC01AA81BB81A40FB51F6C916111BA
:103DF00007C061E01196AC91A11103C060E001C061
:103E000061E0D8016D938D017F5F445F5F4F743037
:103E100021F7205D3F4F2032B1E03B0721F08F01B9
:103E2000A90170E0DACFDF91CF911F910F91089532
:103E30002F923F924F925F926F927F928F929F92BA
:103E4000AF92BF92CF92DF92EF92FF920F931F93A8
:103E5000CF93DF93CDB7DEB72A970FB6F894DEBFC6
:103E60000FBECDBF3C01362E812C912C442E512CFF
:103E7000282CD301ED91FC910190F081E02D282DAB
:103E8000432DB301CE0101960995AA24A3944814A9
:103E900059040CF4A12CA982D301ED91FC9104806A
:103EA000F581E02DBA80CB80DC80ED80FE800F8133
:103EB000188529853A85422D632DC3010995BFEFE9
:103EC0008B1A9B0A80E48816910491F62A960FB605
:103ED000F894DEBF0FBECDBFDF91CF911F910F9140
:103EE000FF90EF90DF90CF90BF90AF909F908F901A
:103EF0007F906F905F904F903F902F9008950F9319
:103F00001F93CF93DF93EC01062F10E0E881F98136
:103F10000288F389E02D402F612FCE0109951F5FA4
:103F20001630A1F7DF91CF911F910F9108953F9225
:103F30004F925F926F927F928F929F92AF92BF92B9
:103F4000CF92DF92EF92FF920F931F93CF93DF9365
:103F5000CDB7DEB72A970FB6F894DEBF0FBECDBF40
:103F60003C01562E312C4424439433E0832E912C73
:103F7000D301ED91FC910190F081E02D232D452D91
:103F8000B301CE01019609954A82C82C9C828B828E
:103F9000E82C9E828D82082D98868F82282D9A8605
:103FA0008986D301ED91FC910480F581E02DA980F3
:103FB000BB24B394DC80FE8018853A85432D652DA3
:103FC000C30109953394B0E43B12D2CF2A960FB6C1
:103FD000F894DEBF0FBECDBFDF91CF911F910F913F
:103FE000FF90EF90DF90CF90BF90AF909F908F9019
:103FF0007F906F905F904F903F9008951F93CF9365
:10400000DF93EC0110E0E881F9810688F789E02D63
:10401000612FCE0109951F5F1630A9F7DF91CF916F
:104020001F91089529EC31E0FC01318320830C9429
:104030003E29FC01208181E090E0062E01C0880F1E
:104040000A94EAF7442311F0822B02C08095822360
:104050008083089529EC31E0FC01318320830895A9
:10406000EF92FF920F931F93CF93DF93DC01842F86
:1040700082958F7090E3699FB0011124CCE08C9FF2
:10408000600D711D112443FBEE27E0F9F0E0E60F0F
:10409000F71F12968D919C9113978E0F9F1FE80129
:1040A00099838883329612968D919C9113978E0FE7
:1040B0009F1FF901918380834F7050E0559547957C
:1040C000460F571F4C5F5F4F12968D919C9113972F
:1040D000840F951FE70199838883DF91CF911F910A
:1040E0000F91FF90EF900895AF92BF92CF92DF9221
:1040F000EF92FF920F931F93CF93DF93CDB7DEB76D
:1041000061970FB6F894DEBF0FBECDBF542FAF82BC
:10411000B886C986DA86EB86FC860D871E872F87D0
:10412000388BF7E0DF2ED422EE24E394F12CEC0E52
:10413000FD1E8E010D5F1F4F9E012B5F3F4F598B60
:104140008FDF4F816D2D8B819C8173DF48856D2DB5
:104150008D819E816EDF5989EE24E394E522EE0C79
:10416000EE0C8E01075F1F4FF12CF80181919191A8
:104170008F0141E0029709F040E06F2D6E0D8981BB
:104180009A8157DFF394F4E0FF12EFCF81E061965C
:104190000FB6F894DEBF0FBECDBFDF91CF911F9158
:1041A0000F91FF90EF90DF90CF90BF90AF90089568
:1041B000BF92CF92DF92EF92FF920F931F93CF9314
:1041C000DF93CDB7DEB72F970FB6F894DEBF0FBEE3
:1041D000CDBF6C01CB01642F522FB7E0BB2EB222B2
:1041E0001DE0E12EF12CEC0EFD1E8E01055F1F4F30
:1041F0009E01275F3F4F452F5F8732DF5F855170FC
:10420000550F550FAD85BE85FE01319630E06C919E
:1042100070E0832F850F02C0759567958A95E2F748
:1042200060FF03C082E090E002C083E090E08193F1
:1042300091933F5F343059F7E985FA85408150E02A
:104240000B2C02C0559547950A94E2F74170EB8517
:10425000FC85608170E002C075956795BA94E2F7BD
:1042600061709E012F5F3F4FC6010E944B38C6010F
:104270002F960FB6F894DEBF0FBECDBFDF91CF9162
:104280001F910F91FF90EF90DF90CF90BF90089516
:104290000F931F93FC0171836083538342833583A3
:1042A000248381E08787108A86E0818B138B028BC1
:1042B000168217821086118612861386148615863A
:1042C00016861F910F9108950F931F93CF93DF933D
:1042D000FC01862F262F269526952695962F9770DA
:1042E000C1E0D0E0092E02C0CC0FDD1F0A94E2F736
:1042F0008F01020F111DD8011C962C9130E02C2348
:104300003D2302C0359527959A95E2F72130310576
:1043100071F40288F389E02D309721F040E063E0EA
:1043200070E00995C095F8018485C823C487DF91A2
:10433000CF911F910F910895EF92FF920F931F93CA
:10434000CF93DF93EC01F62E8A01BEDF8F85EA89D9
:10435000FB89EF2CE694E694E6948823B9F041E0DB
:10436000B8018F2D0995FE01EE0DF11D8F2D87707F
:1043700021E030E001C0220F8A95EAF78485822B84
:1043800084878C899D899F8B8E8B13C0309721F0F9
:1043900041E0B8018F2D0995CE0DD11D8F2D87706D
:1043A00021E030E001C0220F8A95EAF78C85822B4C
:1043B0008C87DF91CF911F910F91FF90EF9008951F
:1043C0006F927F928F929F92AF92BF92CF92DF9225
:1043D000EF92FF920F931F93CF93DF93CDB7DEB78A
:1043E00066970FB6F894DEBF0FBECDBF8C01E12CEF
:1043F000F12C8AE0A82EBE2CCE0101960E943838FE
:104400008E2C6801CE0CDF1CD60116969C90F8010C
:104410008785811101C09394892D8370F801A08153
:10442000B1818823C1F0ED91FC911197292D26953A
:1044300026950190F081E02D4B2DBD01CE010C960B
:104440000995FE013C96DE0111968A2D01900D9290
:104450008A95E1F71FC0F80180898823E9F0ED9182
:10446000FC91119760807180F80121894B2DBD016D
:10447000CE010C96F3010995FE013C96DE011196E2
:104480008A2D01900D928A95E1F7D80151969C9062
:10449000990C990C21E016C0969496949B86ED9108
:1044A000FC9111970280F381E02D9E012F5F3F4F19
:1044B000AE01455F5F4F6B2DCD010995282F9B8481
:1044C000990C990C6B2DC8012E8BFEDE2E892223B0
:1044D000D1F0D8011296ED91FC911397818190E073
:1044E00002C0959587958A94E2F780FF0AC08A8179
:1044F000811107C08981811112C003C06B2DC801D1
:104500001BDFF6019682FFEFEF1AFF0A86E0E8163E
:10451000F10409F070CFD8011F961C920EC0892DAE
:104520008370FE013196E80FF11DE80FF11D428105
:1045300053814330510511F7E4CF66960FB6F894D6
:10454000DEBF0FBECDBFDF91CF911F910F91FF90C6
:10455000EF90DF90CF90BF90AF909F908F907F9023
:104560006F9008952DCFCF93DF93FC01E60FF11DDF
:1045700026812370EC01AC81BD8112968C918695C9
:104580008695642F0E94A73D990F990F290F2683C6
:10459000DF91CF9108950F931F93CF93DF93EC0199
:1045A000062F10E0402F612FCE01DDDF1F5F163098
:1045B000C9F7DF91CF911F910F9108950F931F932A
:1045C000CF93DF938C01C0E0D0E06C2FC8017CDE7C
:1045D000F801EC0FFD1F16822196C630D105A9F710
:1045E00081E0F8018787DF91CF911F910F910895A6
:1045F0000F931F93CF93DF93EC018B018F8588235B
:1046000051F08E899F899B01281B390B253131057B
:1046100010F0CE01D3DF1D8B0C8BDF91CF911F915A
:104620000F910895FC0110828FEF81831282148212
:1046300013821682158283E090E09087878312862A
:10464000118688E790E094878387108A1786128AFC
:10465000118A0895FC01168A158A108E178A128E07
:10466000118E148E138E8281982F92959F70E90F70
:10467000F11DE90FF11D282F2F7081E090E002C09D
:10468000880F991F2A95E2F725893689822B932B6B
:10469000968B858B0895CF93DF93EC018A818617E3
:1046A00001F16A83962F92959F70FE01E90FF11D2B
:1046B000E90FF11D962F9F7021E030E002C0220F1C
:1046C000331F9A95E2F745895689242B352B368B73
:1046D000258BEB81FC810995EB89FC89DF91CF91DA
:1046E0000994DF91CF910895FC01DB0180818C93C7
:1046F000818111968C931197828112968C931297D7
:10470000858113968C931397878114968C931497B5
:10471000878515968C931597838516968C93169797
:10472000848517968C930895FC01DB018C9180831E
:1047300011968C911197818312968C911297828396
:1047400013968C9113978583168214968C911497E7
:104750008783108615968C9115978787108A1696F1
:104760002C91169730E03487238717969C9180E030
:10477000820F931F94878387CF016CCFFC01258123
:1047800090E081E002C0880F9F5F9217E0F30895E8
:104790002BEE31E0FC01318320830895FC0111866A
:1047A00008950F931F93CF93DF931F92CDB7DEB77A
:1047B0008C01DC01ED91FC910680F781E02D69838D
:1047C00009956981F801678381E081870F90DF9106
:1047D000CF911F910F9108952BEE31E0FC013183B1
:1047E00020834CC5FC018BEE91E091838083738321
:1047F000628355834483268317828FEF80871186D7
:1048000008951F93CF93DF93EC0110E02AC08A81B3
:104810009B81DC01ED91FC91AC81BD81A10FB11DAB
:104820000280F381E02D6C9109958823C9F0888579
:104830008117E1F08985E881F981882319F08F815A
:10484000811739F00480F581E02D612FCE010995A3
:1048500005C00680F781E02DCE010995188706C0B6
:104860001F5F8E81181798F28FEF8887DF91CF91A5
:104870001F910895FC012185222329F08781FB01E6
:10488000808381E0089580E00895FC0161871286AD
:104890000895FC0187819085618572850E94B33DF2
:1048A000CB010895FC01708B6787089521E0FC011E
:1048B000848182300CF420E0822F089527EF31E0CC
:1048C000FC01318320830895FC0174876387568738
:1048D000458708956F927F928F929F92BF92CF9259
:1048E000DF92EF92FF920F931F93CF93DF93EC0130
:1048F0008B01BC808FEFB81659F18D809E808B851F
:104900009C85880D991D8617970710F11B1434F5A7
:104910006F807884B301680D791D601B710B80E096
:1049200090E00E948E3C6B017C01B30180E090E03E
:104930000E948E3C20E030E040E05FE30E94443D76
:104940009B01AC01C701B6010E94403D181634F42A
:104950001E830D8318861F821C8224C0F801E8196B
:10496000F909FB83EA832F8138854B2D552747FDB5
:104970005095DA010E94FC3D6E0F7F1F811D911D35
:104980009A012F5F3F4F442737FD4095542F0E94D7
:10499000DA3D38872F8383E08B1514F0B394BC8203
:1049A0001E830D83EF85F889309771F0DF91CF91E9
:1049B0001F910F91FF90EF90DF90CF90BF909F904D
:1049C0008F907F906F900994DF91CF911F910F91FD
:1049D000FF90EF90DF90CF90BF909F908F907F904F
:1049E0006F90089527EF31E0FC013183208346C4A6
:1049F000FC0187EF91E0918380838FEF848316829F
:104A000015821086178280E190E09287818788EB7B
:104A10009BE09487838784E690E096878587108A59
:104A200017860895FC01118210821382128215826A
:104A300014821782168281E0808780E090E0DF0197
:104A4000A80FB91F19961C9219971F961C920196D0
:104A500086309105A1F708950F931F93FC01718390
:104A600060835383428335832483178306831F9196
:104A70000F9108950F931F93CF93DF93EC01E8817B
:104A8000F981E60FF11D1681012F069506958C819F
:104A90009D8174DE1370212F30E094E0099F200D7A
:104AA000311D1124220F331FEE81FF819481482F85
:104AB00050E0992311F0CA0102C080E090E0820F1B
:104AC000931FBA01660F771F0E94C73D649F802D18
:104AD0001124DF91CF911F910F9108952F923F9252
:104AE0004F925F926F927F928F929F92AF92BF92FE
:104AF000CF92DF92EF92FF920F931F93CF93DF93AA
:104B0000CDB7DEB72E970FB6F894DEBF0FBECDBF80
:104B10002C01362E242EDC0114968D919C91159734
:104B2000FC01208130E0062E02C0359527950A94BD
:104B3000E2F720FF03C022DE8B8702C0F1E0FB8793
:104B4000812C912C822D90E09D878C8763E0662ECE
:104B5000712C4CC02C853D85280D391D3595279528
:104B600035952795120D1370D20112966D917C9197
:104B70001397DB01ED91FC910190F081E02D432D25
:104B8000CE0101962E8709958A815E85882341F0A2
:104B90007C826B827E826D8278866F827A8669865D
:104BA000FE013196E10FF11DE10FF11D82E090E071
:104BB00093838283D20112968D919C911397DC018D
:104BC000ED91FC910480F581E02D1A82A980B12C31
:104BD000CB80DC80ED80FE800F81188529853A85A9
:104BE000452F632D0995BFEF8B1A9B0A182DEB8576
:104BF0008E1608F4AFCF2E960FB6F894DEBF0FBE18
:104C0000CDBFDF91CF911F910F91FF90EF90DF907B
:104C1000CF90BF90AF909F908F907F906F905F905C
:104C20004F903F902F900895CF92DF92EF92FF9296
:104C30000F931F93CF93DF938C01C0E0D0E0CC2E75
:104C4000D8011496ED91FC911597808190E00C2E7F
:104C500002C0959587950A94E2F780FF1CC0780101
:104C6000EC0EFD1EF70181858823A9F06C2FC80189
:104C700001DFD82ED7011F964C91841729F06C2F95
:104C8000C8012CDFF701D78642E050E06C2DD80137
:104C90008D919C9151DB2196C630D10581F6DF9133
:104CA000CF911F910F91FF90EF90DF90CF900895DB
:104CB0001F93CF93DF93EC01162FFC01E60FF11D3C
:104CC0008185882369F011864785CE0107DF42E0A0
:104CD00050E0612F88819981DF91CF911F912CCB7A
:104CE000DF91CF911F910895DF92EF92FF920F9382
:104CF0001F93CF93DF93EC01D62E062F10E07C019B
:104D0000E00EF11E81E0F7018187CE01B3DEF701ED
:104D10008787EC81FD81208130E00D2C02C0359524
:104D200027950A94E2F720FD04C06D2DCE01C0DF67
:104D300004C0482F6D2DCE01D1DE42E050E06D2D34
:104D400088819981F9DAC00FD11F8F8590E0DF91BA
:104D5000CF911F910F91FF90EF90DF900895FC018C
:104D600080E091E091838083128281E083830895C3
:104D7000FC01118210821382128214821682158223
:104D80001086178281E0818712860895EF920F9333
:104D9000FC0171836083538342832483E18602870D
:104DA0000F91EF90089521E030E002C0220F331FF1
:104DB0006A95E2F7FC01878190852823392381E0F9
:104DC000232B09F480E00895CF93DF93DC0117963D
:104DD000ED91FC911897442379F081E090E0062E44
:104DE00002C0880F991F0A94E2F78E2B9F2B18960A
:104DF0009C938E93179710C021E030E0062E02C0DE
:104E0000220F331F0A94E2F7209530952E233F237B
:104E100018963C932E9317971A968C911A9788237D
:104E2000D1F0CD91DC911197E881F9810190F08169
:104E3000E02D442319F04FEF50E002C040E050E075
:104E400012960D90BC91A02DA60FB11D6C91CE01B4
:104E5000DF91CF910994DF91CF910895EF92FF9266
:104E60000F931F93CF93DF93EC01F12C01E010E03F
:104E70006AC088819981DC011296ED91FC911397AB
:104E8000AA81BB81AF0DB11D0190F081E02D6C9125
:104E900002960995EE24E394019709F0E12C8985A7
:104EA000813081F4C8010F2C02C0880F991F0A9429
:104EB000E2F72D813E8182239323892B91F5E11026
:104EC0001EC031C081112DC0C8010F2C02C0880F37
:104ED000991F0A94E2F72D813E8182239323892B27
:104EE00001F1EE2061F098010F2C02C0220F331F58
:104EF0000A94E2F78D819E81822B932B21C0C801F9
:104F00000F2C02C0880F991F0A94E2F72F81388571
:104F10008223932341E0892B09F040E06F2DCE01DD
:104F200053DFE110E0CF98010F2C02C0220F331F96
:104F30000A94E2F7209530958D819E8182239323F8
:104F40009E838D83F3948C81F81608F492CFDF91C1
:104F5000CF911F910F91FF90EF900895FC018485F0
:104F60009585FC01E05CFF4F20813181FC01EE5B07
:104F7000FF4F80819181281B390B2F733327C90183
:104F80000895FC0184859585FC01E05CFF4F40811C
:104F90005181FC01EE5BFF4F2081318142175307A5
:104FA00041F00190F081E02DE80FF91F208130E001
:104FB00002C02FEF3FEFC9010895FC01848595855C
:104FC000FC01E05CFF4F40815181FC01EE5BFF4F33
:104FD000208131814217530781F0A081B181A80F50
:104FE000B91F8C91208131812F5F3F4F2F73332761
:104FF00031832083282F30E002C02FEF3FEFC9011B
:105000000895FC0181A1882329F0A489B5898C9198
:1050100086FFFBCF11A20895CF93DF93FC01268575
:105020003785D901A05CBF4F8D919C911197019656
:105030008F739927E901CE5BDF4F4881598184172F
:105040009507D9F30D90BC91A02DA20FB31F6C93BF
:10505000A685B785A05CBF4F11969C938E93A689B9
:10506000B7892C9181E090E0078C02C0880F991FCE
:105070000A94E2F7282B2C9381E081A30488F58918
:10508000E02D80818064808381E090E0DF91CF918A
:1050900008951F920F920FB60F9211242F933F93F2
:1050A0004F938F939F93EF93FF938091C00082FD66
:1050B0001CC04091C6008091180590911905019679
:1050C0008F73992720911A0530911B05821793073A
:1050D00071F0E0911805F0911905E852FB4F4083FB
:1050E000909319058093180502C08091C600FF9126
:1050F000EF919F918F914F913F912F910F900FBE04
:105100000F901F9018951F920F920FB60F921124B7
:105110002F933F938F939F93EF93FF932091D4040A
:105120003091D5048091D6049091D704281739077F
:1051300031F48091C1008F7D8093C10014C0E09153
:10514000D604F091D704EC56FB4F20818091D60411
:105150009091D70401968F7399279093D7048093E9
:10516000D6042093C600FF91EF919F918F913F91BC
:105170002F910F900FBE0F901F90189510927504ED
:105180001092740488EE93E0A0E0B0E0809376047F
:1051900090937704A0937804B09379048BE092E025
:1051A000909373048093720488ED94E090937F044D
:1051B00080937E0484E994E090938104809380043A
:1051C00085EC90E0909383048093820484EC90E0DB
:1051D000909385048093840480EC90E090938704FE
:1051E0008093860481EC90E09093890480938804F6
:1051F00082EC90E090938B0480938A0486EC90E09C
:1052000090938D0480938C0484E080938E0483E0DB
:1052100080938F0487E08093900485E080939104CD
:1052200081E0809392040895CF92DF92EF92FF92F3
:105230000F931F93CF93DF936C01EB017A01E60E7E
:10524000F71E00E010E00BC06991D601ED91FC91D2
:105250000190F081E02DC6010995080F191FCE15A8
:10526000DF0591F7C801DF91CF911F910F91FF905A
:10527000EF90DF90CF9008950C946C380C94073920
:1052800008951F920F920FB60F9211242F933F9300
:105290008F939F93AF93BF9380911C0590911D05B1
:1052A000A0911E05B0911F0530912405232F2D5F7D
:1052B0002D3720F40196A11DB11D05C0232F2A57BB
:1052C0000296A11DB11D2093240580931C05909387
:1052D0001D05A0931E05B0931F0580912005909198
:1052E0002105A0912205B09123050196A11DB11DB4
:1052F0008093200590932105A0932205B093230568
:10530000BF91AF919F918F913F912F910F900FBEC1
:105310000F901F9018950F931F938FB7F8940091DB
:105320001C0510911D0520911E0530911F058FBF92
:10533000B801C9011F910F910895789484B58260D6
:1053400084BD84B5816084BD85B5826085BD85B529
:10535000816085BDEEE6F0E0808181608083E1E8D8
:10536000F0E0108280818260808380818160808310
:10537000E0E8F0E0808181608083E1EBF0E0808113
:1053800084608083E0EBF0E0808181608083EAE7E5
:10539000F0E080818460808380818260808380816E
:1053A000816080838081806880831092C10008952D
:1053B000CF93DF93EC019C012A5F3F4F41E050E027
:1053C00060E070E08C819D810E949A338823A1F077
:1053D0004E895F89688D798D452B462B472B71F45B
:1053E0004E815F81688579854E8B5F8B688F798F61
:1053F00089818068898302C080E001C081E0DF91FB
:10540000CF910895BF92CF92DF92EF92FF920F93C8
:105410001F93CF93DF938C01FC0182899389A48928
:10542000B589803E9F4FAF41B10508F019C0C80152
:10543000BFDF8823A9F0D80116964D915D916D913B
:105440007C91199714968D919C9115970E94933297
:105450006B017C0145E00E944032EC01009719F499
:10546000C0E0D0E03AC080E092E0FE019C011192E1
:1054700021503040E1F7BB24B39410C0B701A6011E
:105480004B0D511D611D711D9E018091290590914B
:105490002A050E948A3B882319F3B394D8011496F5
:1054A000ED91FC9115978481B81640F390E0A0E04F
:1054B000B0E029E0880F991FAA1FBB1F2A95D1F7DA
:1054C000F8014289538964897589480F591F6A1FF9
:1054D0007B1F428B538B648B758BCE01DF91CF91F9
:1054E0001F910F91FF90EF90DF90CF90BF900895A4
:1054F000CF93DF93EC01462F6E857F85888999894C
:10550000BFD7009749F02B81AC0160E2269F400D88
:10551000511D11249A0102C020E030E0C901DF9141
:10552000CF910895CF93DF93FB012BE030E23193CD
:105530002150E9F7DC0130E0C7E01DC0CA3059F165
:1055400038E0CAE018C0E21731F1FC010196E4919D
:10555000E111F9CFC317F8F02132E8F02F37D8F472
:10556000FB01E30FF11D822F81568A3110F4D22FF7
:10557000D052D0833F5FCD012D91211109C0FA0196
:105580008083918381E0FB019081903261F403C0BC
:105590002F3219F4F4CF80E006C0D22F2E3271F2F0
:1055A00088E690E0D2CFDF91CF9108952F923F927D
:1055B0004F925F926F927F928F929F92AF92BF9223
:1055C000CF92DF92EF92FF920F931F93CF93DF93CF
:1055D000EC01FB016A018A81811103C02FEF3FEFCB
:1055E000C5C0898180FFFACF8EC06A01C81AD90A66
:1055F00076018F011E0126E0220E311C7EC04A85F5
:105600005B856C857D85DB01CA019170AA27BB276C
:105610005C018C819D81FC0154803A014B01A9E021
:105620009694879477946794AA95D1F72A8122302B
:1056300049F4658976898789908D660D771D881D67
:10564000991D28C05A945620A114B104C1F45110D8
:1056500016C0452B462B472B49F48E899F89A88D70
:10566000B98D8E839F83A887B98709C04E815F81DA
:1056700068857985910173D7882309F4AFCF4E816E
:105680005F81688579858C819D814DD7650D711D00
:10569000811D911DA114B10409F04DC0E114F2E087
:1056A000FF0608F448C040902C0550902D056090EE
:1056B0002E0570902F05641575058605970509F070
:1056C00049C039C0A80EB91EA201B501C8010E9487
:1056D000853C03C0412C32E0532E040D151D8A85F4
:1056E0009B85AC85BD85840D951DA11DB11D8A8747
:1056F0009B87AC87BD87E418F508E114F10409F035
:105700007ECF960133C04A895B896C897D898A8501
:105710009B85AC85BD854601A12CB12C8A019B01DE
:10572000081B190B2A0B3B0B80169106A206B30629
:1057300008F05BCF5DCF20E032E02A193B0927015A
:105740002E153F0508F4290140E09AD6009709F08C
:10575000B9CF44CF9801AB01BC018091290590914C
:105760002A050E94883A8111B5CF38CFC901DF914F
:10577000CF911F910F91FF90EF90DF90CF90BF904E
:10578000AF909F908F907F906F905F904F903F90E1
:105790002F900895CF93DF931F92CDB7DEB741E0EE
:1057A00050E0BE016F5F7F4F01DF019719F429813F
:1057B00030E002C02FEF3FEFC9010F90DF91CF9192
:1057C00008958F929F92AF92BF92CF92DF92EF9205
:1057D000FF920F931F93CF93DF93EC014A015B017C
:1057E0002A81222309F474C08A899B89AC89BD89E6
:1057F00084179507A607B70708F46AC06BC0811421
:105800009104A104B10449F41E821F8218861986EE
:105810001A861B861C861D8659C04A855B856C8549
:105820007D85EC81FD81218530E0275F3F4FDB01E5
:10583000CA010197A109B109022E04C0B695A79526
:10584000979587950A94D2F7CC24CA94DC2C7601DC
:10585000C80CD91CEA1CFB1C04C0F694E794D7942E
:10586000C7942A95D2F7C816D906EA06FB0620F097
:10587000452B462B472B49F48E899F89A88DB98DDE
:105880008E839F83A887B98715C0C81AD90AEA0AE8
:10589000FB0A10C04E815F816885798598018C81F3
:1058A0009D815DD691E0C91AD108E108F108811106
:1058B00004C014C08E010A5F1F4FC114D104E1045B
:1058C000F10441F78A869B86AC86BD8681E006C0DE
:1058D00080E004C0223009F092CFF4CFDF91CF9165
:1058E0001F910F91FF90EF90DF90CF90BF90AF90FE
:1058F0009F908F900895EF92FF920F931F93CF93F5
:10590000DF9300D000D0CDB7DEB78C01FC018689D3
:105910009789A08DB18D89839A83AB83BC83E12C59
:10592000F12C49815A816B817C819E012F5F3F4F11
:10593000D80114968D919C91159711D6882389F1E1
:10594000D8011496ED91FC9115978481E80EF11C15
:10595000E114B0E1FB0628F589819A81AB81BC8115
:105960002289203131F4883F9F4FA105B10530F4E1
:10597000D8CF883F9F4FAF4FBF4098F2A70160E05C
:1059800070E099E0440F551F661F771F9A95D1F775
:10599000D80152964D935D936D937C93559781E01A
:1059A00001C080E00F900F900F900F90DF91CF918A
:1059B0001F910F91FF90EF900895CF93DF93EC012B
:1059C000FB018A81882311F080E03DC07D836C83D8
:1059D00082898031F9F421C083E08A834589568920
:1059E0006789708D4E8B5F8B688F798FCE0183DFD7
:1059F000882351F381E089831E821F8218861986CD
:105A00001A861B861C861D861E861F86188A198A82
:105A10001B8219C08032C1F6DFCF82E08A831E8AE2
:105A20001F8A188E198E4389548960E070E025E042
:105A3000440F551F661F771F2A95D1F74A8B5B8B42
:105A40006C8B7D8BD7CFDF91CF9108950F931F93F0
:105A5000CF93DF93EC018A818823D1F1898187FF7D
:105A600032C061E0CE0144DD8C01009789F1FC0178
:105A70008081853E69F18A81823040F44A895B8960
:105A80006C897D89448F558F668F778F4E895F89AA
:105A9000688D798DF801538F428F758B648BE091FF
:105AA0002505F0912605309759F0B8016A5E7F4FC1
:105AB000C80148960995F801808D918D938B828B52
:105AC00089818F778983DF91CF911F910F9191C445
:105AD00081E0888380E0DF91CF911F910F9108953D
