:1000000094C00000C3C00000C1C00000BFC0000019
:10001000BDC00000BBC00000B9C0000062C6000047
:10002000B5C00000B3C00000B1C00000AFC0000008
:10003000ADC00000ABC00000A9C00000A7C0000018
:10004000A5C00000A3C000000C94660D0C94940C95
:100050009DC000009BC0000099C0000097C0000038
:1000600095C0000093C00000EA06E806E606EC062C
:10007000E206F206EE06F906E006F706E4062307B6
:1000800007097C09A209BD09160A4E0A890AB50AA0
:10009000EE0A290B090B1D0F5C0F420F390F6E0F73
:1000A0006E0F140F6E0F140F6E0F140F140F140F2A
:1000B0006E0F140F140F911A8F1A8D1A941A891A31
:1000C000941A941A851A871A821A8B1AA21AA41AD9
:1000D000A71AAA1AAC1AB21AB41AB71A9B1B9D1BFC
:1000E0009F1BA11BA31BA51BA71BAA1BC61BC81BD1
:1000F000CC1BCE1BD01BD21BD41BD61BD81BE51B85
:10010000E21BDA1BDE1BFA1EF81EF61EFC1EF21E98
:10011000001FFE1E051FF01E031FF41EA40614116F
:10012000111292122614DD16C01911241FBECFEF32
:10013000D8E0DEBFCDBF14BE88E10FB6F89480933F
:100140006000109260000FBE12E0A0E0B1E0ECE4AD
:10015000F5E402C005900D92A038B107D9F727E069
:10016000A0E8B2E001C01D92AB35B207E1F711E0A3
:10017000CAE2D1E004C02297FE010E94A91FCC313F
:10018000D107C9F70E94A0110C94A42239CF299855
:10019000219A2D982C982B98289A259A2498239A5E
:1001A000209A229A81E58CBD81E08DBD0895F89456
:1001B000289831E23A95F1F7000030E0542F4217C9
:1001C00008F4522F3517A8F4341728F4FC01E30F74
:1001D000F11D508101C050E05EBD0DB407FEFDCFA2
:1001E0005EB5321720F4FB01E30FF11D50833F5F32
:1001F000E5CF289A789408952EE044E1D8CF9091E5
:100200008002891301C08FEF80938002089580914E
:1002100080020895409180024F3FC9F04D3028F48C
:10022000FC01E40FF11D508101C050E02091BC029F
:100230004D3068F430E0FC01E40FF11D250F311D55
:100240002F3F310519F010F02FEF30E02083089593
:100250004598000000000895000000000000459A45
:100260000895000000000000000008955A9A349993
:1002700002C080E001C080E85A985A9A349980649C
:100280005A985A9A349980625A985A9A3499806145
:100290005A985A9A349988605A985A9A349984602C
:1002A0005A985A9A349982605A985A9A3499816025
:1002B0005A98089567FF02C05B9A01C05B985A9AEA
:1002C00066FF02C05B9A01C05B985A985A9A65FF14
:1002D00002C05B9A01C05B985A985A9A64FF02C0A8
:1002E0005B9A01C05B985A985A9A63FF02C05B9A66
:1002F00001C05B985A985A9A62FF02C05B9A01C08B
:100300005B985A985A9A61FF02C05B9A01C05B9849
:100310005A985A9A60FF02C05B9A01C05B985A983B
:100320005A9A5A980895FF920F931F93CF93DF9391
:10033000EC01F42E062F10E0211106C0FC01E00FA5
:10034000F11F8381841791F05C98CE01B3DF85E8BB
:100350008A95F1F700006F2DCE01ACDF5C9A82E444
:100360008A95F1F700C0C00FD11FFB82DF91CF91BA
:100370001F910F91FF900895683118F0685120E0A7
:10038000D2CF262F2695269526956770FC01E20F81
:10039000F11D21E030E0062E01C0220F0A94EAF799
:1003A0004F3F29F420958081282320830895808160
:1003B000822B808308953FEFFC01308321812360ED
:1003C0002183328321E040E06CE0ADCFCF92DF9219
:1003D000EF92FF920F931F93CF93DF9300D01F9262
:1003E000CDB7DEB78C01D62E79014A835B83798342
:1003F0002FDF63E0C8015EDF7981672FC8015ADF14
:100400006D2DC80157DF4A81C42E5B81D52EEC0CBF
:10041000FD1CCE14DF0431F0C80128DFF601819302
:100420006F01F7CF0F900F900F90DF91CF911F9139
:100430000F91FF90EF90DF90CF900ECFCF92DF9291
:10044000EF92FF920F931F93CF93DF9300D0CDB71E
:10045000DEB76C01162F072FF22E49835A83F8DE80
:1004600066E0C60127DFF8DEFCDEF2DE62E0C601F0
:1004700021DF602FC6011EDF612FC6011BDF0F9336
:100480001F931F92FF9285E091E09F938F930E94AC
:10049000C61F4981E42E0F900F900F900F900F9080
:1004A0000F90042F5A81152F802F8E198F1530F43D
:1004B000F80161918F01C601FDDEF6CF0F900F901C
:1004C000DF91CF911F910F91FF90EF90DF90CF9030
:1004D000C3CE0F931F93CF93DF931F92CDB7DEB799
:1004E0008C01B6DE65E0C801E5DEC801BFDE8983A8
:1004F000B3DEB7DE898181700F90DF91CF911F91BC
:100500000F910895EF92FF920F931F93CF93DF9374
:10051000EC018CAD9DAD892BA9F1CE01DADF8823EA
:1005200029F08DE191E00E94D71F2AC07E0180E46E
:10053000E80EF11CF70160817181862F8F7100E256
:10054000081B8CAD9DAD10E08017910708F48C015D
:100550004EAD5FAD202FCE0171DF8CAD9DAD801B08
:10056000910B9DAF8CAF8EAD9FAD800F911F9FAF54
:100570008EAFF70180819181800F911F91838083DD
:1005800081E001C080E0DF91CF911F910F91FF903A
:10059000EF900895DC01DC96ED91FC91DD97EF2B57
:1005A00059F0BFEFE1E1FAE7B150E040F040E1F788
:1005B00000C0000080E00895DC01DD963C932E939E
:1005C000DC97DF965C934E93DE97FC01E05CFF4F77
:1005D0007183608397DF81E00895262F2695269505
:1005E0002695820F911DFC01808990E0677002C002
:1005F000959587956A95E2F781700895EF92FF923D
:100600000F931F93CF93DF931F92CDB7DEB77C017B
:10061000FC01EA5BFF4F008111810115110509F40E
:1006200075C0FC0123898089282799F080E090E03B
:1006300030E0782FA901082E02C0559547950A94FD
:10064000E2F740FD50C001968830910591F770E0C7
:100650004AC0F70184899189892791F080FD28C0DB
:1006600081FD28C082FD28C083FD28C084FD28C0EC
:1006700085FD28C086FD28C087FFE9CF7FE033C015
:10068000F70185899289892709F440C080FD1EC041
:1006900081FD1EC082FD1EC083FD1EC084FD1EC0E4
:1006A00085FD1EC086FD1EC087FFD1CF77E11BC030
:1006B00078E019C079E017C07AE015C07BE013C07C
:1006C0007CE011C07DE00FC07EE00DC070E10BC08A
:1006D00071E109C072E107C073E105C074E103C0B4
:1006E00075E101C076E1672FC701798376DF7981F3
:1006F000813011F422E001C023E0F701EE5BFF4FEF
:1007000080819181672F722FF80109950F90DF91F9
:10071000CF911F910F91FF90EF900895FC01862FCC
:1007200090E02181673040F445E0880F991F4A9599
:10073000E1F7922F937008C00797880F991F880FD1
:10074000991F922F9370906E982B91830895CF9359
:10075000DF93EC018CA58A3010F48F5F03C08A30E0
:1007600019F48BE08CA703C08B3009F41CA66CA590
:10077000CE01D4DF81E08DABFE01EE5BFF4F8081C7
:1007800091819FAB8EABDF91CF910895662331F0BD
:100790002FEF3FEFFC0132AB21AB0895FC0112AA11
:1007A00011AA08951F93CF93DF93EC0110E021E08D
:1007B00040E0612FCE01B7DD1F5F1B30C1F7DF9135
:1007C000CF911F910895FC01A7A5B0A981E090E009
:1007D00002C0880F991F6A95E2F7442329F08A2BFB
:1007E0009B2B90AB87A708959C01209530952A23D9
:1007F0003B2330AB27A725A536A5282B392B36A7B9
:1008000025A70895860F911DFC0186890895860FFE
:10081000911DFC0181A10895CF93DF93C62FD42FA2
:10082000AC01460F511DDA0156962C912D1781F11E
:1008300021E030E0062E02C0220F331F0A94E2F7B7
:10084000DC019D96ED91FC919E97E22BF32B9E96F9
:10085000FC93EE939D97FA01D68BD196ED91FC9186
:10086000D297E223F323EF2B19F020E04D2F5BDD2D
:100870001F92DF931F92CF9382E291E09F938F9319
:100880000E94C61F0F900F900F900F900F900F9027
:10089000DF91CF910895FC0183A994A921E030E074
:1008A00002C0220F331F6A95E2F7442319F0282B68
:1008B000392B04C0209530952823392334AB23AB42
:1008C0000895FC018089838B8189848B8289858B43
:1008D000108A118A128A4398439A87E090E041E097
:1008E00050E0319B09C062899A01082E01C0220F95
:1008F0000A94EAF7622B628B228130E0082E02C054
:10090000359527950A94E2F720FF02C05B9A01C053
:100910005B98429A4298019720F787E090E041E087
:1009200050E0319B09C061899A01082E01C0220F55
:100930000A94EAF7622B618B218130E0082E02C015
:10094000359527950A94E2F720FF02C05B9A01C013
:100950005B98429A4298019720F787E090E041E047
:1009600050E0319B09C060899A01082E01C0220F16
:100970000A94EAF7622B608B208130E0082E02C0D7
:10098000359527950A94E2F720FF02C05B9A01C0D3
:100990005B98429A4298019720F74398439A85A919
:1009A000882389F0DF01AE5BBF4F8D919C9126A912
:1009B00037A9821B930B029730F015AA80917A0019
:1009C000806480937A000895FC0127E030E0828102
:1009D00090E0022E02C0959587950A94E2F780FF79
:1009E00002C05B9A01C05B98429A4298215031093B
:1009F00070F727E030E0818190E0022E02C09595EB
:100A000087950A94E2F780FF02C05B9A01C05B9869
:100A1000429A42982150310970F727E030E08081F6
:100A200090E0022E02C0959587950A94E2F780FF28
:100A300002C05B9A01C05B98429A429821503109EA
:100A400070F74398439A0895CF93DF93EC016EE0DB
:100A500065DECE01B9DF86E08A95F1F700C08AAD88
:100A6000880F8AAF309B02C081608AAFE8ADF9ADD4
:100A7000309731F08AAD813019F4DF91CF9109942C
:100A8000DF91CF910895EF92FF921F93CF93DF9361
:100A9000EC0180917A0084FFB7C08DA98111B4C0A8
:100AA00080917800109179007CA57B3011F41BAF08
:100AB000A2C0812F90E0FE01E70FF11D61A1861B0E
:100AC000910997FF03C091958195910921E030E04C
:100AD000072E02C0220F331F0A94E2F74FA558A930
:100AE00042235323452B49F1843008F47FC07E0113
:100AF00086E4E80EF11CD7018D919C91892B09F4B5
:100B000075C01F921F931F926F938BE391E09F9389
:100B10008F930E94C61F6CA5FE01EE5BFF4F808184
:100B20009181D701ED91FC9174E009950F900F90A0
:100B30000F900F900F900F9059C04BA95CA94223C2
:100B40005323452B09F052C04DA55EA542235323E4
:100B5000452BA1F19689961718F0191728F450C063
:100B6000911710F4863058F11F921F931F926F93C4
:100B70001F927F938BE491E09F938F930E94C61FF7
:100B80004CA581E090E0042E02C0880F991F0A94C2
:100B9000E2F7809590952DA53EA5282339233EA701
:100BA0002DA7FE01E40FF11D168BEDB7FEB73896A9
:100BB0000FB6F894FEBF0FBEEDBF01C0168B6CA53B
:100BC000E62FF0E081E090E0062E02C0880F991F2A
:100BD0000A94E2F729A93AA982239323892B31F0B9
:100BE000EC0FFD1F20E04689CE019DDB8CA5FE01A8
:100BF000E80FF11D11A3CE0127DFCE01A8DD04C04F
:100C0000691708F4AFCFB0CFDF91CF911F91FF905C
:100C1000EF9008950F931F93CF93DF93EC018A0118
:100C20003A9A3B9A539A39984298439A539A529ACD
:100C30003C983D9A459A549A5C9A559A80E48093E0
:100C40007C0080917C00806280937C0080917C009D
:100C5000866080937C0080E880937A0080917A009F
:100C6000876080937A00389882E08093B00080910A
:100C7000700082608093700084E08093B1009B01DB
:100C800040E050E064EB74EC84E090E00E948B1F45
:100C90002093B3001092B2007894FE01EA5BFF4FFC
:100CA00011830083CE0187DBCE0151DD8CA5882323
:100CB00049F0CE01E8DECE0104DECE019FDCCE019C
:100CC00021DCF4CF87EA91E60197F1F700C000003C
:100CD000DF91CF911F910F910895FC0171AF60AF2B
:100CE00008951F920F920FB60F9211242F933F93E6
:100CF0004F935F936F937F938F939F93AF93BF9324
:100D0000EF93FF9378948091C3029091C40201966F
:100D10009093C4028093C302E091C502F091C60291
:100D2000309709F00995FF91EF91BF91AF919F9195
:100D30008F917F916F915F914F913F912F910F9084
:100D40000FBE0F901F9018951092AD021092AF0237
:100D50001092AE021092B1021092B0028FEF9FEF8C
:100D60009093B3028093B2021092B5021092B40233
:100D70001092B6021092BA021092B9021092BE02FC
:100D80001092BD021092C0021092BF021092C202D5
:100D90001092C1021092C4021092C3021092C602B5
:100DA0001092C5021092C8021092C702089590E0F6
:100DB0008B309105D8F4FC01EC5CFF4F0C94A71F1D
:100DC00082E0089583E0089584E0089585E0089521
:100DD00086E0089587E0089588E00895662359F035
:100DE0008BE00895662349F08CE00895FFCF80E002
:100DF000089581E008958AE0089589E00895BF92FA
:100E0000CF92DF92EF92FF920F931F93CF93DF93D6
:100E100000D0CDB7DEB78FED93E00E94FB1C0E949F
:100E2000981D0E949A190E94F91D8091CD0290E0B0
:100E30008C30910508F0B9C4FC01E15CFF4F2091B2
:100E400001010C94A71F222399F081E691E00E94F2
:100E5000D71F0E94AF190E94211E0E94AF1960E0A7
:100E60000E945C1E0E94F11A0E94601B10920101F8
:100E70000E949119882349F00E94AF190E94211EF7
:100E80000E94AF1960E00E945C1E0E94A1190E949E
:100E9000D9190E94A11960E00E94451A0E949A196E
:100EA000882321F00E94BD190E946C1A8FED93E0F7
:100EB0000E94BE1C60E08FED93E00E94031D0E9423
:100EC000AF190E942B1D0E9462188A830E949719F5
:100ED000AE014F5F5F4F6A810E94D21A11E0682F06
:100EE000612789810E94721B8091000181115DC47C
:100EF0009091CA02923071F48091C9028E3019F437
:100F00001093CD0205C0893009F02FC49093CD0213
:100F1000109301018091CA02823031F48091C9029C
:100F2000883011F40E9475128091CA02833029F032
:100F30008091CA02823061F516C00AE112E0F12CFC
:100F4000F80181918F019091C902981307C08F2DEC
:100F50000E94C51A0E94F11A0E94601BF394F4E0EB
:100F6000FF12EECFE5CF0AE112E0F12CF8018191FA
:100F70008F019091C902981307C08F2D0E94BD1A4E
:100F80000E94F11A0E94601BF394F4E0FF12EECF6E
:100F90008091CA02823081F40EE112E0F12C32E637
:100FA000D32EF80181918F019091C902981751F0C9
:100FB000F39498E0F912F5CF8091CA02833009F0DA
:100FC0004CC03DC08F2D0E94F41AE82E911113C021
:100FD0000E94F61881E00E94241961E08E2D0E9483
:100FE00085190E94AF190E94211E0E94AF1960E06E
:100FF0000E945C1EDDCF0E94F0170E94C0180E9464
:10100000BA188111D5CF0E9479172DB73EB7225655
:1010100031090FB6F8943EBF0FBE2DBFADB7BEB7B6
:101020001196FC018D2D01900D928A95E1F70E9499
:10103000C11E0FB6F894DEBF0FBECDBFB9CF0EE113
:1010400012E0F12CF80181918F019091C90298175B
:1010500049F0F394F8E0FF12F5CF8091CA02823094
:10106000D9F40BC08F2D0E94F41A9111F2CF0E9477
:10107000191980E00E942419ECCF8091C9028430B4
:1010800059F460E08FEF0E9485198FEF0E94F618E7
:101090000E94AF190E94211E8091CA02833039F448
:1010A0008091C902843019F48FEF0E941919809140
:1010B000CA02823099F48091C9028B3079F40E947F
:1010C000AF19FC01158518700E94A119FC018585D6
:1010D000111102C0886001C0877F85878091CA0294
:1010E000823099F48091C9028F3079F40E94AF194F
:1010F000FC01158511700E94A119FC018585111153
:1011000002C0816001C08E7F85878091CA028230D3
:1011100099F48091C9028C3079F40E94AF19FC01D6
:10112000178510740E94A119FC018785111102C056
:10113000806401C08F7B87878091CA028230F9F476
:101140008091C9028D30D9F40E94AF19FC01158538
:1011500012700E94A119FC018585111102C08260E4
:1011600001C08D7F85870E94AF19FC01858581FFB5
:1011700006C08091DD0394E089278093DD03809190
:10118000CA02823051F58091C902853031F50E9442
:10119000BA18811104C081E00E94CF181EC080E0FF
:1011A0000E94CF180E9479172DB73EB722563109F9
:1011B0000FB6F8943EBF0FBE2DBFADB7BEB71196A8
:1011C00022E6FC0101900D922A95E1F70E94C11ED2
:1011D0000FB6F894DEBF0FBECDBF8091CA02823039
:1011E00009F0BFC28091C902873009F0BAC282E01B
:1011F0000E94CF1860E08FEF0E9485190E94F318BB
:101200000E94EF1D0E94251F0E94E61DAAC22223F4
:1012100069F08FE691E00E94D71F0E94771E0E941E
:10122000AF1961E00E945C1E109201010E94A11999
:1012300061E00E94451A0E949A1981110DC061E077
:101240008FED93E00E94031D0E94AF190E948C1B3A
:101250000E94AF190E945C1D80910001811144C061
:101260008091CA02833039F48091C9028E30A1F492
:101270001092CD0209C0823079F48091C902893080
:1012800039F488E08093CD0281E08093010104C0AD
:10129000883011F40E9475128091CA02843041F4A2
:1012A0006091C9026A830E94A1196A810E94781A1A
:1012B0008091CA02823021F081E08093000114C045
:1012C0000EE112E0F12CF80181918F019091C90299
:1012D000981305C00E94A1196F2D0E94951AF394CE
:1012E000F8E0FF12F0CFE8CF80910101882309F4E4
:1012F0005CC20E94881E59C2222331F080E891E02E
:101300000E94D71F109201018091000181114DC2EE
:101310008091CA02833031F48091C902893009F08A
:1013200020C291C1823009F01CC28091C90286306E
:1013300011F483E004C0843009F022C286E0809377
:10134000CD0283C1222351F08EE891E00E94D71F85
:101350000E9427190E94EA1D10920101809100014C
:10136000811123C28091CA02833009F0FAC18091B1
:10137000C902893009F008C266C1222369F08BE9ED
:1013800091E00E94D71F0E94991E0E94791760E089
:101390000E94F31B109201018091000181113EC057
:1013A0008091CA02833091F48091C902863071F431
:1013B0000E94F31811E081270E94C6180E94F318BA
:1013C0000E94EF1D1092CD02109301018091CA027C
:1013D000823031F48091C902883011F40E94751274
:1013E0008091CA028430B9F40E94BD18182F60E0C1
:1013F0008091C902DCDC612F0E946F15882359F0AF
:1014000061E08091C9020E94BB1E85E08093CD02FD
:1014100081E08093010181E08093000180910101CE
:10142000882309F4C2C10E94AA1EBFC1222331F041
:101430008AEA91E00E94D71F109201010E9491193F
:10144000882349F00E94AF190E94211E0E94AF1903
:1014500060E00E945C1E0E94A6160E940F1A8FED8B
:1014600093E00E94BE1C8091000181119EC1809179
:10147000CA02823031F48091C902883011F40E948E
:1014800075128091CA02833009F06BC18091C90244
:10149000863009F066C10E942015D5C0222369F06C
:1014A00083EC91E00E94D71F0E94991E0E94791739
:1014B00060E00E94F31B10920101809100018111F4
:1014C00074C18091CA02833069F48091C90284306A
:1014D00049F40E94A9160E94AA1E1092CD0281E032
:1014E000809301018091CA02843009F03AC160E022
:1014F0008091C9025CDC0E945A1560E08091C902AB
:101500000E94BB1E0E94791760E00E94F31B87E0D7
:1015100016CF222331F08CED91E00E94D71F10925C
:10152000010180910001811179CF8091CA0283303D
:1015300041F48091C902843009F06DCF1092CD0240
:1015400067CF843009F067CF60E08091C9022FDC5B
:101550000E945A1560E08091C9020E94BB1E0E9441
:10156000791760E00E94F31B56CF222369F080EFC9
:1015700091E00E94D71F0E94070160E00E94B91B02
:101580000E94331F109201018091000181111EC041
:101590008091CA02833049F48091C902893009F0F0
:1015A000F7C081E08093CD020CC0843061F460E02C
:1015B0008091C902FCDB0E94FF0089E08093CD028C
:1015C00081E08093010181E080930001809101011D
:1015D000882309F4EAC00E94441FE7C0222339F09F
:1015E0000E94070160E00E94B91B109201018091E6
:1015F00000018111DAC08091CA02833009F0B1C0C4
:101600008091C902893009F0C9C081E08093CD0280
:101610001DC0222351F08BE092E00E94D71F0E9450
:10162000A9130E94031E10920101809100018111F3
:10163000BCC08091CA02833009F071C08091C90298
:10164000893009F0AFC01092CD0281E08093010192
:1016500088C0222351F08FEF91E00E94D71F0E9493
:10166000A9130E94031E10920101809100018111B3
:101670009CC08091CA02833091F48091C902893064
:1016800071F40E94A613811102C081E001C080E0C4
:101690000E94E6131092CD0281E0809301018091B7
:1016A000CA02833091F48091C902883071F40E949B
:1016B000A613811102C081E001C080E00E94E61300
:1016C0001092CD0281E0809301018091CA028230A4
:1016D00009F047C09AE1E92E92E0F92E00E010E00F
:1016E000BB24B3942BE0D22ECC24C394F701819178
:1016F0007F019091C90298130CC08B2D002E01C060
:10170000880F0A94EAF70E94F513D092CD02C09296
:1017100001010F5F1F4F0430110541F722C08230D5
:1017200001F58AE1E82E82E0F82E00E010E0DD24E9
:10173000D394F70181917F019091C90298130CC055
:101740008D2D002E01C0880F0A94EAF70E94F51330
:101750000E94A9130E94031E0F5F1F4F0430110542
:1017600041F781E08093000120C0863009F0D2CBA0
:101770000E94BA188111CECB84E08093CD02C8CBF1
:10178000883079F78AE0DBCD863009F45CCFE9CF89
:101790008E3009F018CF1092CD0212CF8E3009F49E
:1017A00052CFDFCF8830E9F64ECF0F900F90DF9108
:1017B000CF911F910F91FF90EF90DF90CF90BF904E
:1017C0000895862F60E08F710C94851982E00C9447
:1017D000CF18CCD782E00E94CF1880E00C94CF18AD
:1017E000CF93C82FC3D782E00E94CF188C2F8F7160
:1017F0000E94B71880E0CF910C94CF181092A803E4
:101800001092A9031092AA031092850310928603E6
:101810001092870384E893E090938303809382037C
:101820001092CF021092CE021092D1021092D002EA
:101830001092D3021092D2021092D5021092D402CA
:101840001092D7021092D6021092D9021092D802AA
:101850001092DB021092DA021092DD021092DC028A
:101860001092DF021092DE021092E1021092E0026A
:101870001092E3021092E2021092E5021092E4024A
:101880001092E7021092E6021092E9021092E8022A
:101890001092EB021092EA021092ED021092EC020A
:1018A0001092EF021092EE021092F1021092F002EA
:1018B00008959B01AC0183E0220F331F441F551F85
:1018C0008A95D1F760E07DE281E391E00E94691F93
:1018D0002150310982E08093C0003093C5002093ED
:1018E000C40088EB8093C100789408958091AA0386
:1018F0008823B9F0E091A903F0E0E855FC4F83811B
:101900009091A9039F5F9093A9039091A9039032AE
:1019100011F41092A9039091AA0391509093AA03F5
:1019200001C080E090E008951F920F920FB60F92D1
:1019300011248F939F93EF93FF93809187038111DD
:1019400006C08091C1008F7D8093C1001EC0809130
:1019500087038823B9F0E0918603F0E0EB57FC4F52
:101960009381809186038F5F8093860380918603A5
:10197000803211F410928603809187038150809306
:10198000870301C090E09093C600FF91EF919F9173
:101990008F910F900FBE0F901F901895CF93DF93EC
:1019A000EEECF2E081EE9BE09383828386EE9BE097
:1019B000978F868F89EE9BE0938F828F80EF9BE0DD
:1019C000938B828B89E394E1918F808FC2EFD2E079
:1019D000188262E17AE780E090E06BDF81E080933B
:1019E000F5021092F4021092F3021092FC0210928F
:1019F000FB021092FA021092F902109281031092E7
:101A0000FE021092FD021092FF02109200038881E4
:101A10008170826081608883DF91CF910895FC019D
:101A200082818032A1F09081DB018C91DF01A90FCE
:101A3000B11D13968C9380818F5F8083808180326B
:101A400009F4108282818F5F828381E0089580E0B3
:101A50000895CF93DF931F92CDB7DEB790918703A0
:101A60009032E1F3F8948983BE016F5F7F4F85E880
:101A700093E0D5DF78948091C10080628093C100AB
:101A80008091C00080648093C00080E090E00F905F
:101A9000DF91CF9108951F93CF93DF93EC01162F21
:101AA0006D3F38F46A3F38F4663F29F0683F39F4F7
:101AB00002C06E3F20F060E070E0812FCADF163F69
:101AC00009F41882DF91CF911F9108951F920F9210
:101AD0000FB60F9211242F933F934F935F936F9301
:101AE0007F938F939F93AF93BF93EF93FF93CF9386
:101AF000DF931F92CDB7DEB78091C60089838091B6
:101B0000C00082FD06C0BE016F5F7F4F88EA93E090
:101B100086DF0F90DF91CF91FF91EF91BF91AF9151
:101B20009F918F917F916F915F914F913F912F91F5
:101B30000F900FBE0F901F901895DC01D0968C91DE
:101B4000D097813F09F4ACC0F0F4803B09F450C059
:101B500060F4803979F1803A09F467C0803809F07F
:101B6000CCC0ED91FC91119764C0803D09F46DC02B
:101B700020F4803C09F46EC00895803EF1F1803F6E
:101B800009F475C008958A3FF9F058F4833F09F4C9
:101B90009FC008F48AC0863F09F4A3C0883F79F04B
:101BA00008958C3FD9F0A8F08E3FE9F08F3F09F4FB
:101BB0009DC008951296ED91FC9113973AC05896E6
:101BC000ED91FC91599796C05A96ED91FC915B97D7
:101BD00091C05C96ED91FC915D978CC05E96ED9105
:101BE000FC915F9787C09096ED91FC91919782C090
:101BF0001696ED91FC9117971CC01C96ED91FC91E7
:101C00001D97309709F479C0D2966C91D2976F776F
:101C100020E8629FB0011124D1968C91D1978F77E3
:101C2000682B70529F968C9109941496ED91FC91BB
:101C30001597309709F461C0D2964C91D297D196FE
:101C40006C91D1979F968C9109941A96ED91FC9185
:101C50001B9704C01896ED91FC911997309709F4E1
:101C60004CC0D1966C91D1979F968C9109941E96F9
:101C7000ED91FC911F97309709F43FC0D2966C917B
:101C8000D29770E0762F6627D1968C91D197682BEA
:101C90006138710510F060E870E0CD01C3960994D9
:101CA0005096ED91FC91519717C05296ED91FC9191
:101CB0005397309711F1D2968C91D2978F7720E875
:101CC000829FC0011124D1962C912F77822B0994E9
:101CD0005496ED91FC915597309779F0D1968C916F
:101CE00009945696ED91FC91579704C09296ED9108
:101CF000FC919397309709F009940895982F9F7C51
:101D0000903851F0803D41F0803E31F091E0803CD0
:101D100009F090E0892F089581E0089587FF0CC0B5
:101D20009CE0980F923040F0893F31F08D3F21F0D8
:101D3000803F18F4807F089580E008950F931F93EB
:101D4000CF93DF93FC01C62FD22F0150003110F446
:101D500067FD02C016A225C0613ED8F4142F1F777C
:101D6000062B86A1801729F006A360E070E0802F83
:101D700070DE60E070E0812F6CDECF7EC03C89F0C9
:101D800060E070E08D2F8F77DF91CF911F910F91E1
:101D900060CE663F30F08696DF91CF911F910F9114
:101DA0007ACEDF91CF911F910F910895EF92FF921C
:101DB0000F931F93CF93DF93EC018CA180FF8EC014
:101DC000982F9E7F09F48AC068A990E8960F9136F3
:101DD000F0F40FA59FA121E0091711F0911120E067
:101DE000869590E08230910539F08330910541F07D
:101DF000019709F073C006C0222309F46FC002C026
:101E000021116CC02AA949A9CE0198DF67C0862F8D
:101E100090E0FC01E05FF109E031F10508F05EC0FF
:101E2000E55BFF4F0C94A71FCE018696DF91CF9103
:101E30001F910F91FF90EF902ECE8E010D5C1F4FE2
:101E40008AA990E0982F882729A9822B81389105AB
:101E500010F080E890E07C01E00EF11E0E151F05E9
:101E600009F43BC060E070E0F80181918F01F1DD81
:101E7000F5CF19A960E070E083EFEBDD60E070E082
:101E8000812F18C00AA9F0E80F9F8001112489A9A9
:101E9000082B60E070E082EFDCDD60E070E0802F16
:101EA0008F77D7DDC801880F892F881F990B9195EF
:101EB00060E070E08F7710C029A9277080E1289F2B
:101EC000900111241AA91F70122B60E070E081EFBD
:101ED000C0DD60E070E0812FBCDD1EA2DF91CF91FC
:101EE0001F910F91FF90EF900895EF92FF920F9343
:101EF0001F93CF93DF931F92CDB7DEB71091F502FA
:101F0000113108F089C18091AA03882309F484C1A2
:101F100080E090E0EBDC7C018091FB029091FC0280
:101F2000009709F0A2C0E092F6020091F302802F20
:101F3000F5DEE4DE882361F0E7FC0AC00093F602D8
:101F4000E092F70281E090E09093FC028093FB0224
:101F50000091F602802FE2DE813F09F44AC020F5AD
:101F6000803B09F449C050F4803909F445C0803AF7
:101F700009F442C0803809F0D3C03EC0803DC9F1A9
:101F800018F4803CB1F1CCC0803EB1F1803F09F043
:101F9000C7C020E830E03093FA022093F902109293
:101FA000F302809301032EC0883F79F030F4833F21
:101FB00001F110F1863F49F0B3C08A3F08F4B0C088
:101FC0008D3F18F08E3F08F4ABC08093FE02109254
:101FD000FD021092FF021092000381E080938103C2
:101FE0001092FC021092FB021092FA021092F90277
:101FF000EAC022E030E002C023E030E03093FA0291
:102000002093F9022091FB023091FC024091F902E9
:102010005091FA02BA016150710926173707F0F0A2
:102020008093FE02802F8F708F5F8093FD028091DE
:10203000F7028093FF024330510529F48091F802A2
:102040008093000302C0109200031092FC021092D1
:10205000FB021092FA021092F90225C02F5F3F4F47
:102060003093FC022093FB02D7C0E7FE40C09701EB
:1020700033272D3F310554F42A3F310564F4273FBF
:102080003105A9F0283F310591F505C02E5F3109D2
:102090002230310560F5E092FE021092FF021092AC
:1020A00000031092FD0281E0809381038CC0409177
:1020B0000103403FA9F59C012F5F3F4FFC01E25314
:1020C000FD4F57EF53AB4093FE022093FF02309336
:1020D00000031092FD0281E0809381031092FC02C4
:1020E0001092FB021092FA021092F90263C0209142
:1020F000F602FC01E253FD4F203F11F4E3AA01C0B8
:10210000E0A6E090F902F090FA029701215031091F
:102110008217930708F451C09091F602903F59F44A
:102120001092FC021092FB021092FA021092F90235
:102130001092F30271C0892F9983F0DD082F8093EC
:10214000FE02DCDD9981882331F0892F8F708F5F4B
:102150008093FD0202C01092FD028091F7028093ED
:10216000FF0223E0E216F10429F48091F802809343
:10217000000302C0109200031092FC021092FB02B6
:102180001092FA021092F90281E080938103003BE1
:1021900071F038F4003959F0003A49F0003851F440
:1021A00006C0003D21F0003E11F0003C19F4909370
:1021B000F30209C01092F30206C001969093FC024C
:1021C0008093FB0229C08091FE02803921F4809126
:1021D00000038823E9F08091FE02882371F0805883
:1021E000813640F48091F5029091FD02981711F02C
:1021F000811103C08EEC92E0A0DC612F8EEC92E0A6
:102200000F90DF91CF911F910F91FF90EF90CECD66
:1022100080E88093FE02DFCF0F90DF91CF911F9176
:102220000F91FF90EF900895E9CA209100012223B9
:1022300051F06093C9027093CA028093CB029093CD
:10224000CC021092000108951F93CF93DF93182FB3
:10225000EB018091EF03882321F01A3011F48DE017
:10226000F3DFE091ED03F091EE03BE01812F0995BC
:1022700080E090E0DF91CF911F91089562D77AD7E7
:1022800091E0811190E0892F0C94C21D862F60E0AF
:102290000C948519F8945D9825E32A95F1F70000D0
:1022A00028E030E061E0992787FD9095462F50E0C7
:1022B00048235923452B11F05D9A01C05D9845E3F1
:1022C0004A95F1F70000660F2150310921153105BB
:1022D00069F75D9A25E32A95F1F70000789408954F
:1022E000CF93DF93EC010E944305CE010E9461046D
:1022F000CE010E94FE02CE01DF91CF910C948202AA
:1023000020EF33E030935807209357074093EF03B3
:10231000442331F09093EE038093ED0384E291E146
:102320009093F9038093F8037093FB036093FA038F
:1023300082E08093F3031092FD031092FC03089552
:1023400045E151E160ED77E081E892E00E940A0604
:1023500081E892E00E94DB0181E892E00E94D203D2
:1023600060E081E892E00E94C60381E892E0B8DF75
:10237000559A5D9A41E060E070E08AE491E1C0DF47
:1023800086E292E00E94D71F0E94C70022D28EE30D
:1023900091E1BCD160E374E181E892E00E946D06B6
:1023A000FDDA96D787D586E491E18FD680E018D6FE
:1023B000E7D680E0F4D6C0E1D1E081E892E090DF9A
:1023C00094DD42D20E94FF06CAD7FC01ABECB3E019
:1023D0008C2F01900D928A95E1F7CFD6682F8BEC68
:1023E00093E0DFD38BEC93E00E940A019AD7882315
:1023F00029F08091DD038D278093DD03ADD190938B
:10240000DC038093DB0390D76FED73E08BEC93E0FC
:102410000E94FC008FE097E20197F1F700C00000F6
:10242000CCCF8FE78093D1038FEF8093D2030895B1
:1024300090930604809305040895CF93DF93EC01F5
:102440002091B30030E040E050E064EB74EC84E0B5
:1024500090E00E948B1F44275527ACE3B0E00E9418
:10246000BC1F9E0136952795620F731F811D911D1C
:102470009E0140E050E00E94691FC901DF91CF91A9
:1024800008959093FF038093FE0360910201262F2D
:102490002695820F911D70E00E94551F70930304D2
:1024A0006093020408951F93CF93DF93182F8CE25B
:1024B00091E0C3DFEC018AE090E0BFDFBC0128E2DD
:1024C000AE0189E094E04DD0109302011092060411
:1024D0001092050410921D0410921C048CE390E0ED
:1024E000ACDFDF91CF911F91CCCF6091C30270918F
:1024F000C40289E094E096D089E094E052D06091E3
:102500001504262F2695820F911D70E00E94551FFD
:10251000CB01009709F0B5CF08958091FE0390910B
:10252000FF03089589E094E00AD080E094E074C24B
:102530006091C3027091C40280E094E03DC2FC014E
:10254000108611861386128681E08487168615868A
:10255000108A1786118A828B148A138A168A158A22
:102560000895FC0176876587508B4787218B81E032
:10257000828B84870895FC0180858F5F843011F001
:10258000808701C010868085DF01A80FB11DA80FCC
:10259000B11D6D937C938185843010F48F5F8187AA
:1025A0000895CF92DF92EF92FF920F931F93CF93F4
:1025B000FC01C185A085C11107C0EA0FF11DEA0F1A
:1025C000F11D8081918126C0B0E000E010E098010B
:1025D000FC01EA0FF11DEA0FF11D60817181060F08
:1025E000171F211D311DA15008F4A3E0BF5FBC13CC
:1025F000EFCF8B2F869568017901C80ED11CE11CA5
:10260000F11CC701B6012B2F30E040E050E00E94E2
:10261000691FC901CF911F910F91FF90EF90DF903B
:10262000CF9008958F929F92AF92BF92EF92FF92B8
:102630000F931F93CF93DF93EC017B018A859B85DA
:102640008B01081B190B8985882361F14801A12C96
:10265000B12C8885FE01E80FF11DE80FF11D808186
:102660009181881A990AA108B108CE019ADFFC016C
:10267000C501B401B7FE07C090958095709561952E
:102680007F4F8F4F9F4F9F0146E0369527954A9584
:10269000E1F740E050E00E948B1F8989281778F00D
:1026A000198612C08A8981110EC08D859E850817F2
:1026B000190780F48F8598898017910758F4B8011D
:1026C000CE0159DF07C01A8AEB89FC89309711F0D7
:1026D000C7010995FB86EA86ED89FE89309759F096
:1026E000DF91CF911F910F91FF90EF90BF90AF902E
:1026F0009F908F900994DF91CF911F910F91FF9040
:10270000EF90BF90AF909F908F90089590932D047D
:1027100080932C040895CF93DF93C0912904D09126
:102720002A046091C3027091C40287E294E011D13F
:102730009E01281B390BC901DF91CF91089560914B
:10274000C3027091C40287E294E003C18091260421
:10275000089580912404089580912604813029F4FD
:102760008091290490912A040895D7CE87E294E0BD
:10277000EDC080ED97E09093230480932204809134
:10278000C3029091C4029093210480932004089581
:1027900080912604811107C089E294E149DE86E038
:1027A00080933104089580E090E042DE809125041A
:1027B00090912404811107C0892F880F890F880FF9
:1027C00080933104D6CF90933104089580932604EA
:1027D000DFCF88E168DE10922D0410922C0481E096
:1027E0008093240410922604D3CF882319F0809379
:1027F0002404CECF089540912604413021F58091E4
:102800002504811120C02091C3023091C40280911F
:10281000200490912104B901681B790B30932104A5
:10282000209320042091220430912304621773071F
:1028300038F4261B370B3093230420932204089589
:1028400040932504A5CF089573DED5CF87E294E0A9
:102850006EC06091C3027091C40287E294E027C009
:1028600080912604882321F0809125048111F1CFE5
:1028700008955D9A5D9880912604882351F0809197
:102880002504813021F41092250482DF01C071DF1C
:10289000E0CF0895FC0181E392E09183808313826D
:1028A00012821482168215820895089508950F9356
:1028B0001F93CF93DF93EC018B012F81211116C061
:1028C000ED81FE81309709F009958A85882311F002
:1028D00081508F8388859985009729F09801281B5E
:1028E000390B3B832A83198708871CC03A85888562
:1028F0009985081B190B632F70E0069FC001079F85
:10290000900D169F900D1124621B71090E94551F96
:102910007B836A8321502F83369581E0321708F438
:1029200080E08C83DF91CF911F910F910895CF9319
:10293000DF93EC01AFDF89E392E0998388831F8204
:10294000198618861A86DF91CF910895FC011782A7
:102950000895FC01808591859B01281B390BC901D5
:1029600008950F931F93CF93DF93EC019B01EA81AE
:10297000FB818F8198858B01081B190BCF0163E0C8
:1029800070E00E94551F0617170718F438872F8329
:1029900007C0CF0180959095820F931F98878F83F2
:1029A000E881F9810280F381E02DB901CE01DF9148
:1029B000CF911F910F9109940F931F93CF93DF93A2
:1029C000EC018B018F8198859B01281B390BC90174
:1029D0006A817B816217730760F40E94551F98011A
:1029E000281B390B38872F83ED81FE81309709F042
:1029F00009958F819885081B190B8A819B81969573
:102A0000879521E08017910708F020E02C83DF9163
:102A1000CF911F910F910895CF93DF93EC013ADF8F
:102A200081E492E09983888318861F82DF91CF9199
:102A3000089590935204809351041092380408959D
:102A400080913F048823A1F110923F0480913D04BE
:102A500030914004882369F080913C04E091510456
:102A6000F091520421E2329FE00DF11D1124808388
:102A70000895809151049091520421E2329F800D7B
:102A8000911D112420913B04FC01E20FF11D4181B5
:102A900050913E042F3111F02F5F01C020E0FC0166
:102AA000E20FF11D41832513F5CF20933B04D4CFD2
:102AB0008FEF0895E0915104F0915204309771F036
:102AC0009081981304C09FEF90831092380491A1D5
:102AD000981304C08FEF81A31092380408951F93B8
:102AE000CF93DF931F92CDB7DEB7182F20915104FB
:102AF00030915204232B11F480E022C080913F04D6
:102B00008111FACF812F6983D5DFE0915104F091D3
:102B10005204808169818F3F29F081A18F3F61F745
:102B200081E001C080E08093400460933E041092F5
:102B30003D0410933C041092380481E080933F04DC
:102B40000F90DF91CF911F91089520915104309102
:102B500052042115310521F190913F04992301F18F
:102B60009091400441E2949F200D311D1124482F83
:102B700050E0E0913C04ED3028F4F0E0EF5BFB4FD7
:102B8000908101C090E0F901E40FF51F91838093DB
:102B90003B0490913E04891303C081E080933D047F
:102BA00008952F923F924F925F926F927F928F92F1
:102BB0009F92AF92BF92CF92DF92EF92FF920F93CC
:102BC0001F93CF93DF93CDB7DEB72D970FB6F89451
:102BD000DEBF0FBECDBF9D878C8780915104909141
:102BE0005204892B09F499C080913704811195C052
:102BF00080913604811107C06B87A1DD5C01ACDDDB
:102C00002C016B8508C0A0903404B090350440902E
:102C100032045090330421E0260F6F3109F420E094
:102C2000C201969587957C0100E010E0E982FA8266
:102C30000B831C830091510410915204912CE62EB9
:102C4000F12CF886EF82E22EF12CFA86E9868824B0
:102C50008A9412012A183B08612C712CD8018C919E
:102C60008F3FD9F1EF81F885E00FF11F9181E98560
:102C7000FA85E00FF11F41818D3038F5EC84FD8439
:102C8000E80EF11CFE82ED829101A92FB0E00E94B6
:102C9000AD1F6B017C019501A42FB0E00E94AD1F18
:102CA000C60ED71EE81EF91E89819A81AB81BC81B0
:102CB000C80ED91EEA1EFB1EC701B601A301920170
:102CC0000E94691FAD81BE812C93EC85FD859685A0
:102CD000D8018C91981301C0868693940F5D1F4F85
:102CE000B2E09B12BBCF80913F048823B1F02091CA
:102CF0003C042D3058F4822F90E0FC01EF5BFB4F39
:102D00003081EC85FD85E80FF91F3083EC85FD856A
:102D10008685821302C08FEF86872D960FB6F894B2
:102D2000DEBF0FBECDBFDF91CF911F910F91FF90FE
:102D3000EF90DF90CF90BF90AF909F908F907F905B
:102D40006F905F904F903F902F90089581E494E0B2
:102D5000089580913804E0915104F091520481115A
:102D60000DC08081809339048FEF808391A190936F
:102D70003A0481A381E08093380408958091390456
:102D8000808380913A0481A310923804089580933F
:102D900037040895882371F0DFDC90933304809327
:102DA0003204CDDC909335048093340481E0809329
:102DB000360408951092360408958FE780934704EF
:102DC0008FEF809348040895CF93DF93EC01CE01F9
:102DD0000E9482028111FBCFCE010E946902811103
:102DE000FBCFDF91CF910895EF92FF920F931F9346
:102DF000CF93DF93CDB7DEB7C356D1090FB6F894A2
:102E0000DEBF0FBECDBF82E0A4968FAFA49721E0B6
:102E100030E0AE014D595F4F61E070E081E892E033
:102E20000E94CA0281E892E0CFDF8FEF89A3239648
:102E30008FAF2397FE013196CE0181967F012FEF50
:102E40002193E817F907E1F700E212E022E630E00B
:102E5000A701B80181E892E00E94CA0281E892E0ED
:102E6000B3DF0E591F4F00368EE0180779F7109226
:102E70005704109258041092590410925A0424E0F6
:102E800030E047E554E062E070E081E892E00E94C3
:102E9000CA0281E892E098DFCD59DF4F0FB6F8946F
:102EA000DEBF0FBECDBFDF91CF911F910F91FF907D
:102EB000EF900895CF93DF931F92CDB7DEB721E057
:102EC00030E0AE014F5F5F4F61E070E081E892E07B
:102ED0000E94E6018981823029F08F3F11F484DF5E
:102EE00001C0FFCF8FEF80935B040F90DF91CF91F4
:102EF00008958091200522E6829FC0011124845A02
:102F00009B4F08950F931F9341E050E0082E02C09D
:102F1000440F551F0A94E2F7662757FD6095762FF8
:102F200000915704109158042091590430915A048B
:102F30004023512362237323452B462B472B19F043
:102F400020E232E002C020E63EE0A90162E6869F70
:102F5000400D511D1124CA011F910F910895CF9268
:102F6000DF92EF92FF920F931F9341E050E0082E03
:102F700002C0440F551F0A94E2F7662757FD60957B
:102F8000762F0091530410915404209155043091F0
:102F90005604C0905704D0905804E0905904F09023
:102FA0005A040C251D252E253F254023512362233D
:102FB0007323452B462B472B19F420E232E002C045
:102FC00020E63EE0A90162E6869F400D511D1124D6
:102FD000CA011F910F91FF90EF90DF90CF9008955D
:102FE000BF92CF92DF92EF92FF920F931F93CF93F6
:102FF000DF93C82F80915B0410912005C81305C092
:1030000022E6129FC001112451C0BB24B3941B259A
:10301000109320058C2FA3DFBC01D2E6D19FA00125
:103020001124445A5B4F22E630E081E892E00E948E
:10303000E60181E090E00C2E02C0880F991F0A94EF
:10304000E2F76C01EE24D7FCE094FE2C00915304CF
:103050001091540420915504309156040C291D29D7
:103060002E293F29009353041093540420935504B0
:103070003093560480915B048F3F81F043DFBC01A5
:10308000409120054B25D49FA0011124445A5B4F49
:1030900022E630E081E892E00E94CA02C0935B041D
:1030A0008091200522E6829FC0011124845A9B4F03
:1030B000DF91CF911F910F91FF90EF90DF90CF9014
:1030C000BF90089580915B040895909327058093A5
:1030D0002605089590912405992379F0909125056E
:1030E000992359F0209128053091290521153105A2
:1030F00021F0F901E80FF11D608308958091280502
:1031000090912905892BE1F06091230580912A0592
:10311000E1DF80912A0519DDE0912605F091270570
:10312000309771F08091210581110AC080912A05A4
:10313000A0912805B0912905A80FB11D6C910994A3
:10314000089580910301811111C0809122058111A0
:103150000AC080912A058F3111F08F5F01C080E095
:1031600080932A0502C010922205C8CF089580934B
:103170002A05089580910301089580912A050895F4
:103180009093290580932805809653CC809324053D
:1031900080910301823011F4109224050895CF9399
:1031A000C82F8130A1F040F08230C9F480E0EEDF1A
:1031B00010922A0581E012C080910301823019F437
:1031C00081E08093220580E0E5DD80E007C081E0BA
:1031D000E1DD80E0DCDD80E0D9DF01C0D8DDC09337
:1031E0000301CF910895809124050895CF93C82FAE
:1031F000809124058823D9F081E080932505C09330
:10320000230589DA8436910548F480912A058F31A7
:1032100011F08F5F01C080E06C2F5CDF90DA8436A4
:10322000910528F46C2F80912A05CF9153CFCF912F
:10323000089590912405992331F0909123058913E5
:1032400002C010922505089580932105089520E07D
:1032500032E04BE255E060E270E081E892E00C94ED
:10326000CA02CF93DF931F92CDB7DEB781E0898387
:1032700021E030E0AE014F5F5F4F60E070E081E839
:1032800092E00E94CA0281E892E09EDD8BE295E026
:1032900020E1EBE2F7E0DC01322F01900D923A954C
:1032A000E1F7409637E08B32930799F7D0DF81E85A
:1032B00092E08ADD0F90DF91CF91089520E032E017
:1032C0004BE255E060E270E081E892E00C94E601A8
:1032D000CF93DF931F92CDB7DEB721E030E0AE0190
:1032E0004F5F5F4F60E070E081E892E00E94E6018E
:1032F0008981813029F08F3F11F4B3DF01C0FFCF06
:10330000DDDF0F90DF91CF91089590914B079813D7
:1033100002C0662329F080934B0781E0809304016B
:1033200008958091040108951092040108958091F8
:103330004B07089581E090914B079F3F09F080E093
:10334000089580914B078F3F39F020E1829FC001A3
:103350001124855D9A4F08958BE397E0089580913D
:103360004B078F3F39F020E1829FC0011124855D1A
:103370009A4F08958BE297E008958BE297E00895C5
:103380009FE7909341078FEF809342079093310717
:103390008093320780E090E03FE72FEFFC01E55D8E
:1033A000FA4F368327834096811542E09407B1F7A0
:1033B0000895CF93DF93EC0160E081E892E00E94F2
:1033C00002048F8361E081E892E00E9402048E8310
:1033D00062E081E892E00E9402048D8364E081E86B
:1033E00092E00E9402048B836AE081E892E00E94EE
:1033F00002048C8367E081E892E00E9402048983E2
:1034000068E081E892E00E9402048A8369E081E832
:1034100092E00E9402048883DF91CF910895CF93B8
:10342000DF93EC0160E081E892E00E9407048F8363
:1034300061E081E892E00E9407048E8362E081E807
:1034400092E00E9407048D8364E081E892E00E948C
:1034500007048B836AE081E892E00E9407048C8372
:1034600067E081E892E00E940704898368E081E8D0
:1034700092E00E9407048A8369E081E892E00E945A
:1034800007048883DF91CF9108951F93CF93DF9333
:10349000EC01162F63E081E892E00E940204888725
:1034A00066E081E892E0112351F00E9402048B87CC
:1034B00065E081E892E00E9402048C8709C00E94C6
:1034C00002048A8765E081E892E00E94020489870D
:1034D000DF91CF911F910895CF93DF93EC0160E0CE
:1034E00081E892E00E9402048F83DF91CF910895DA
:1034F000DC01462F50E04B305105B0F4455A5F4F88
:10350000FA0125C51E961C92089581E00BC082E049
:1035100009C083E007C084E005C085E003C086E001
:1035200001C087E01E968C930895DC01462F50E081
:103530004830510508F54A595F4FFA011F968C91A2
:103540001F9705C58C7F15C08C7F816012C08C7F52
:1035500082600FC083600DC083FD02C0886009C017
:10356000877F07C08F7C05C08F7C806102C08F7C05
:1035700080621F968C930895FFCF80934E0781E061
:1035800080934D0710924C07089590914E07891330
:1035900008C010924D0790914C07911102C0809382
:1035A0004F07089590914D07992361F080914E0740
:1035B000962F969596959695981311C06770FA0177
:1035C00060830BC090914F07282F2695269526954E
:1035D000291305C08770FA01808381E0089580E097
:1035E000089580914F07089591E090934C07909132
:1035F0004D07992319F020914E0702C020914F07E3
:1036000038E0239F800D11240895FF920F931F939C
:10361000CF93DF93162FF42E082FEC018C2F801BF5
:10362000811738F469914F2D81E892E00E94BC0126
:10363000F5CFDF91CF911F910F91FF9008958F9259
:103640009F92BF92CF92DF92EF92FF920F931F93C0
:10365000CF93DF931F92CDB7DEB78C01E62EF42E09
:10366000D22EC82E4C01B42E882D8C198E15D8F46C
:10367000EF2DF52FD801A80FB11D8E2F8B198D15A9
:1036800030F491918C919813F8CF4FEF01C042E341
:10369000F40161914F0120E081E892E059830E949A
:1036A00093015981E1CF0F90DF91CF911F910F913D
:1036B000FF90EF90DF90CF90BF909F908F900895F4
:1036C000CF93C82F40E064E080E692E09EDFEC2FCD
:1036D000F0E0E05AFD4F4FEF608181E892E0CF913A
:1036E0000C94BC01CF93DF93C82FD62F40E068E045
:1036F00084E692E08ADFD1110CC0EC2FF0E0EC59A7
:10370000FD4F4FEF608181E892E0DF91CF910C9403
:10371000BC01DF91CF910895CF93DF931F92CDB776
:10372000DEB7FC01868590E088309105A8F4FC01A5
:10373000E259FF4F0CC489E00BC087E009C088E064
:1037400007C084E005C08AE003C082E001C081E0D8
:10375000898303C0198201C0FFCF21E0AE014F5F12
:103760005F4F68E088E592E06ADF0F90DF91CF91CC
:103770000895CF93DF931F92CDB7DEB790E08D30E1
:10378000910528F5FC01EA58FF4FE1C389E001C02B
:1037900087E0898321E01CC088E0FBCF84E0F9CF7B
:1037A0008AE0F7CF82E0F5CF81E0F3CF1982F2CF44
:1037B00083E0EFCF662359F086E0EBCF662339F044
:1037C00085E0E7CF611103C0F7CF6623C9F320E09E
:1037D000AE014F5F5F4F6BE08DE492E030DF0F9002
:1037E000DF91CF9108958F929F92BF92CF92DF92F7
:1037F000EF92FF920F931F93CF93DF9300D0CDB73B
:10380000DEB740E050E020E0CC24C39436E075E021
:10381000B3E0DB2E18E0B12EBAE012E004E0E9E0FC
:10382000FE2EF7E0EF2EFC01E40FF51FA0A1A6305D
:1038300009F45BC0B8F4A230F1F128F4AA2359F1DD
:10384000A13089F17EC0E22FF0E0A430E1F108F070
:1038500043C088248394912C8C0E9D1EE80DF91D85
:10386000008370C0AA3009F456C068F4A83009F487
:1038700044C008F05AC0E1E0F0E0EC0FFD1FE20F99
:10388000F11D10825FC0AC3009F442C0F0F1AF3FCF
:1038900009F455C056C0E1E0F0E0EC0FFD1FE20F67
:1038A000F11DF0824FC0E1E0F0E0EC0FFD1FE20FF0
:1038B000F11DE08247C0E1E0F0E0EC0FFD1FE20FF8
:1038C000F11DB0823FC088248394912C8C0E9D1EE4
:1038D000E80DF91DB08336C088248394912C8C0E9A
:1038E0009D1EE80DF91D10832DC0E1E0F0E0EC0F06
:1038F000FD1FE20FF11DC08225C0E1E0F0E0EC0FFA
:10390000FD1FE20FF11DD0821DC06623C1F005C06E
:103910006623A9F00CC0611112C0E1E0F0E0EC0FE9
:10392000FD1FE20FF11D30830DC0611108C0E1E001
:10393000F0E0EC0FFD1FE20FF11D708303C021507A
:1039400001C0FFCF2F5F4F5D5F4F4234510509F03B
:103950006ACFAE014F5F5F4F6BE08DE492E06FDEA8
:103960000F900F90DF91CF911F910F91FF90EF90EB
:10397000DF90CF90BF909F908F900895CF93DF936B
:10398000EC0120E04F8160E081E892E00E94930129
:1039900020E04E8161E081E892E00E94930120E006
:1039A0004D8162E081E892E00E94930120E04B812A
:1039B00064E081E892E00E94930120E04C816AE09B
:1039C00081E892E00E94930120E0498167E081E86C
:1039D00092E00E94930120E04A8168E081E892E051
:1039E0000E94930120E0488169E081E892E0DF9144
:1039F000CF910C94930120E0FC0145856BE081E8B8
:103A000092E00C9493011F93CF93DF93EC01162F58
:103A100020E0488563E081E892E00E94930120E085
:103A2000112349F04B8566E081E892E00E94930102
:103A300020E04C8508C04A8566E081E892E00E945B
:103A4000930120E0498565E081E892E0DF91CF9124
:103A50001F910C949301CF93DF93EC018D8581FF2F
:103A600002C04FEF01C040E069E081E892E00E94AF
:103A7000BC018D8583FF02C04FEF01C040E068E0CC
:103A800081E892E00E94BC018F8586FF02C04FEF63
:103A900001C040E064E281E892E00E94BC018D85B3
:103AA00080FF02C04FEF01C040E064E081E892E097
:103AB000DF91CF910C94BC01CF93DF93EC0140E0F8
:103AC00068E084E692E0A1DDEF85E370F0E0EC5978
:103AD000FD4F4FEF608181E892E00E94BC018F852D
:103AE00083FF02C04FEF01C040E064E181E892E053
:103AF0000E94BC018F8590E0A4E095958795AA95DA
:103B0000E1F78370813031F040F0823071F44FEF93
:103B100067E105C04FEF66E102C04FEF65E181E864
:103B200092E0DF91CF910C94BC01DF91CF91089589
:103B30008091530790915407009719F14091C30267
:103B40005091C4022091510730915207BA01621B73
:103B5000730B50935207409351076817790738F455
:103B6000861B970B909354078093530708951092E8
:103B700054071092530740E067E081E892E00C940C
:103B8000BC01089590915007911116C08823A1F0AF
:103B90004FEF67E081E892E00E94BC0184E690E08C
:103BA00090935407809353078091C3029091C4026D
:103BB000909352078093510780915007833011F002
:103BC0008F5F01C080E080935007089583E0809369
:103BD000500708954FEF68E084E692E016CD882301
:103BE00011F04FEF01C040E066E081E892E00C94F4
:103BF000BC01882311F04FEF01C040E065E081E88F
:103C000092E00C94BC01CF93C82F40E064E080E6C2
:103C100092E0FBDC8FEF8C0F883088F4E82FF0E027
:103C2000EB5BFD4FE081EF3F51F0F0E0E05AFD4FDC
:103C30004FEF608181E892E0CF910C94BC01CF916D
:103C40000895CF93DF93EC014F8160E081E892E02B
:103C50000E940C044E8161E081E892E00E940C0415
:103C60004D8162E081E892E00E940C044B8164E0A7
:103C700081E892E00E940C044C816AE081E892E0C5
:103C80000E940C04498167E081E892E00E940C04E4
:103C90004A8168E081E892E00E940C04488169E072
:103CA00081E892E00E940C04488563E081E892E09C
:103CB000DF91CF910C940C04CF93DF93EC0166233A
:103CC00041F04B8566E081E892E00E940C044C854F
:103CD00007C04A8566E081E892E00E940C044985AD
:103CE00065E081E892E0DF91CF910C940C04CF93D2
:103CF000DF93C7E7D2E0699141E081E892E00E945A
:103D0000E30382E0CF37D807B1F7DF91CF91089571
:103D1000CF93DF93C7E7D2E0699140E081E892E07A
:103D20000E94E30382E0CF37D807B1F7DF91CF914C
:103D30000895CF93DF93CCE6D2E0699141E081E82A
:103D400092E00E94E30382E0C737D807B1F7DF9122
:103D5000CF910895CF93DF93CCE6D2E0699140E014
:103D600081E892E00E94E30382E0C737D807B1F709
:103D7000DF91CF910895462F682F81E892E00C944F
:103D80004B045F926F927F928F929F92AF92BF92FD
:103D9000CF92DF92EF92FF920F931F93CF93DF9317
:103DA000CDB7DEB78CE6A82E82E0B82E4E0184E7B0
:103DB000880E911CF50151905F0160E0852DDBDFDD
:103DC0008E010E5C1F4FC52CD12C3601F80180816D
:103DD000FBE06F167104B0F4F601ED57FF4FB7C06A
:103DE00092E014C093E012C094E010C095E00EC0C1
:103DF00096E00CC097E00AC098E008C09AE006C0C0
:103E000099E004C0FFCF90E001C091E0891303C0A6
:103E100061E0852DB0DF0F5D1F4F08151905B1F664
:103E200087E7A81682E0B80629F6DF91CF911F91A7
:103E30000F91FF90EF90DF90CF90BF90AF909F9049
:103E40008F907F906F905F900895CF93DF93CCE633
:103E5000D2E060E089918FDF82E0C737D807C9F7E9
:103E6000DF91CF910895CF93DF93CCE6D2E06991B3
:103E700041E081E892E00E94E30382E0C737D8077F
:103E8000B1F7DF91CF910895CF93DF93CCE6D2E0E5
:103E9000699140E081E892E00E94E30382E0C73745
:103EA000D807B1F7DF91CF910895AA1BBB1B51E151
:103EB00007C0AA1FBB1FA617B70710F0A61BB70B9A
:103EC000881F991F5A95A9F780959095BC01CD013F
:103ED0000895A1E21A2EAA1BBB1BFD010DC0AA1F4B
:103EE000BB1FEE1FFF1FA217B307E407F50720F063
:103EF000A21BB30BE40BF50B661F771F881F991FDE
:103F00001A9469F760957095809590959B01AC0126
:103F1000BD01CF010895052E97FB16F400940FD034
:103F200057FD05D0D6DF07FC02D046F408C05095F7
:103F30004095309521953F4F4F4F5F4F0895909595
:103F40008095709561957F4F8F4F9F4F0895EE0F2D
:103F5000FF1F0590F491E02D0994A29FB001B39F3B
:103F6000C001A39F700D811D1124911DB29F700D82
:103F7000811D1124911D0895F0DFA59F900DB49F20
:103F8000900DA49F800D911D11240895A0E0B0E034
:103F9000EBECFFE1B2C2FE01359661917191AF0188
:103FA00080915707909158072FD0E2E0C2C20F933B
:103FB0001F93CF93DF93E0915707F0915807238128
:103FC00021FF1BC0EC0100E010E0899160915707D0
:103FD00070915807DB011896ED91FC911997882391
:103FE00031F00995892B89F30FEF1FEFEECF8AE0AF
:103FF0000995892B11F4C80102C08FEF9FEFDF9163
:10400000CF911F910F910895ACE0B0E0E9E0F0E2AC
:1040100064C27C016B018A01FC01178216828381D4
:1040200081FFB0C1CE0101964C01F7019381F601E9
:1040300093FD859193FF81916F01882309F49EC1BF
:10404000853239F493FD859193FF81916F0185321B
:1040500021F4B70190E0B1D1E8CF512C312C20E010
:104060002032A0F48B3269F030F4803259F0833280
:1040700069F420612CC08D3239F0803339F421602D
:1040800026C02260246023C0286021C027FD27C0ED
:1040900030ED380F3A3078F426FF06C0FAE05F9E24
:1040A000300D1124532E13C08AE0389E300D112498
:1040B000332E20620CC08E3221F426FD5FC12064B5
:1040C00006C08C3611F4206802C0883641F4F6012F
:1040D00093FD859193FF81916F018111C1CF982F3D
:1040E0009F7D9554933028F40C5F1F4FFFE3F983B5
:1040F0000DC0833631F0833771F0833509F057C036
:1041000021C0F801808189830E5F1F4F44244394AE
:10411000512C540114C03801F2E06F0E711CF801EB
:10412000A080B18026FF03C0652D70E002C06FEF54
:104130007FEFC5012C8736D12C0183012C852F7789
:10414000222E16C03801F2E06F0E711CF801A0801B
:10415000B18026FF03C0652D70E002C06FEF7FEFD6
:10416000C5012C8714D12C012C852068222E8301B7
:1041700023FC19C0832D90E048165906A0F4B7011E
:1041800080E290E01AD13A94F5CFF50127FC8591B1
:1041900027FE81915F01B70190E00FD131103A9471
:1041A000F1E04F1A51084114510479F7DEC084360A
:1041B00011F0893631F5F80127FF07C06081718160
:1041C000828193810C5F1F4F08C0608171818827B5
:1041D00077FD8095982F0E5F1F4F2F76B22E97FF99
:1041E00009C090958095709561957F4F8F4F9F4F37
:1041F0002068B22E2AE030E0A40111D1A82EA81820
:1042000043C0853729F42F7EB22E2AE030E025C046
:10421000F22FF97FBF2E8F36C1F018F4883579F070
:10422000ADC0803719F0883721F0A8C02F2F20614A
:10423000B22EB4FE0DC08B2D8460B82E09C024FFB1
:104240000AC09F2F9660B92E06C028E030E005C056
:1042500020E130E002C020E132E0F801B7FE07C003
:1042600060817181828193810C5F1F4F06C06081E4
:10427000718180E090E00E5F1F4FA401D0D0A82E86
:10428000A818FB2DFF77BF2EB6FE0BC02B2D2E7F5F
:10429000A51450F4B4FE0AC0B2FC08C02B2D2E7E2B
:1042A00005C07A2C2B2D03C07A2C01C0752C24FF5D
:1042B0000DC0FE01EA0DF11D8081803311F4297ECD
:1042C00009C022FF06C07394739404C0822F8678BD
:1042D00009F0739423FD12C020FF06C05A2C7314FA
:1042E00018F4530C5718732C731460F4B70180E260
:1042F00090E02C8762D073942C85F6CF731410F461
:10430000371801C0312C24FF11C0B70180E390E0C1
:104310002C8753D02C8522FF16C021FF03C088E5CF
:1043200090E002C088E790E0B7010CC0822F867849
:1043300051F021FD02C080E201C08BE227FD8DE239
:10434000B70190E03AD0A51430F4B70180E390E0D3
:1043500034D05A94F8CFAA94F401EA0DF11D80816B
:10436000B70190E02AD0A110F6CF332009F45DCE3A
:10437000B70180E290E021D03A94F7CFF70186812F
:10438000978102C08FEF9FEF2C96E2E1C2C0FC0143
:104390000590615070400110D8F7809590958E0F70
:1043A0009F1F0895FC016150704001900110D8F7E3
:1043B000809590958E0F9F1F08950F931F93CF9315
:1043C000DF93182F092FEB018B8181FD03C08FEF45
:1043D0009FEF20C082FF10C04E815F812C813D8104
:1043E000421753077CF4E881F9819F012F5F3F4F0B
:1043F00039832883108306C0E885F985812F0995C4
:10440000892B29F72E813F812F5F3F4F3F832E83DA
:10441000812F902FDF91CF911F910F910895FA0175
:10442000AA27283051F1203181F1E8946F936E7FF3
:104430006E5F7F4F8F4F9F4FAF4FB1E03ED0B4E0E4
:104440003CD0670F781F891F9A1FA11D680F791F25
:104450008A1F911DA11D6A0F711D811D911DA11D36
:1044600020D009F468943F912AE0269F1124301946
:10447000305D3193DEF6CF010895462F4770405DE1
:104480004193B3E00FD0C9F7F6CF462F4F70405D90
:104490004A3318F0495D31FD4052419302D0A9F7EB
:1044A000EACFB4E0A6959795879577956795BA95E5
:1044B000C9F700976105710508959B01AC010A2EAB
:1044C00006945795479537952795BA95C9F7620F82
:1044D000731F841F951FA01D08952F923F924F9226
:1044E0005F926F927F928F929F92AF92BF92CF9284
:1044F000DF92EF92FF920F931F93CF93DF93CDB78D
:10450000DEB7CA1BDB0B0FB6F894DEBF0FBECDBF04
:1045100009942A88398848885F846E847D848C84D5
:104520009B84AA84B984C884DF80EE80FD800C81DE
:104530001B81AA81B981CE0FD11D0FB6F894DEBFC1
:0C4540000FBECDBFED010895F894FFCF31
:10454C00010101020157726974696E67202575209B
:10455C0042797465732061742025750A0042757365
:10456C007900467265657A65202575206174202571
:10457C00750A0025753A2025750A0025752D3E25EE
:10458C00752D3E73656C6563740A00556E667265B5
:10459C00657A65202575202825752D3E2575290AF7
:1045AC0000456E7465726564205354415254004545
:1045BC006E7465726564204C464F534849465400EE
:1045CC00456E746572656420534849465400456EC7
:1045DC007465726564205341564500456E7465726E
:1045EC006564205245434F524400456E74657265B4
:1045FC0064205245434F52444155544F4D41544908
:10460C004F4E00456E746572656420434C454152B3
:10461C004155544F4D414954494F4E00456E7465B8
:10462C0072656420434C45415253494E474C4500FA
:10463C00456E746572656420435644455354004579
:10464C006E746572656420434C4B00456E746572E4
:10465C00656420434C4B4449560003020100101181
:10466C00121314151617426F6F7465640000000066
:10467C000055145514000000005714561400000087
:10468C0000B114DC140001FF02FFFFFF030907084F
:10469C00040A000102030605090708040A000102C6
:1046AC000302010010111213141516170907080440
:1046BC000A000102030605090708040A00010200AA
:00000001FF
