:020000040000FA
:200000005EC000000C9479330C94A03380C000000C946B300C943B307AC000000C948E30E5
:2000200076C0000074C0000072C0000070C000006EC000000C94CC2A6AC0000068C00000DE
:200040000C94393464C000000C942A320C9457325EC000005CC000005AC0000058C00000DE
:2000600056C0000054C000000000000800020100000304070000000000000000010204082E
:200080001020408001020408102001020408102004040404040404040202020202020303C0
:2000A0000303030300000000250028002B0000000000240027002A001B20AF308532112441
:2000C0001FBECFEFD8E0DEBFCDBF12E0A0E0B1E0E4E4FCE602C005900D92A633B107D9F7A0
:2000E00027E0A6E3B2E001C01D92A130B207E1F710E0CFE5D0E004C02197FE010E94CF3597
:20010000CC35D107C9F70E942D340C94103678CFCF93DF93FC0183A190E070E06817790762
:20012000CCF424A135A1AC0141505109D901A40FB51FAC91280F391FE901A88326A137A1EB
:20014000D901A40FB51FAC91820F931FEC01A883CA01E4CFDF91CF9108950F93FC0102A773
:2001600075A364A357A346A331A720A711A21182108281E082A313A2148A12820F9108955C
:200180000F931F93CF93DF93FC0180E093A1891708F531E0380F232F90E043A12417C0F41C
:2001A00044A155A18A01080F191FD8016C91C22FD0E04C0F5D1FDA014C91461738F4D80122
:2001C0004C93A4A1B5A1AC0FBD1F6C932F5FE5CF832FDCCFDF91CF911F910F9108950F9311
:2001E0001F93CF93DF93FC0180E09181891708F531E0380F232F90E041812417C0F440A5BD
:2002000051A58A01080F191FD8016C91C22FD0E04C0F5D1FDA014C91461738F4D8014C93C7
:20022000A0A5B1A5AC0FBD1F6C932F5FE5CF832FDCCFDF91CF911F910F910895FC0161A330
:200240000895FC0183A10895FC0190E080E022A52817190691F08CF0A4A1B5A1A80FB91F2A
:200260001C92A6A1B7A1A80FB91F1C92A0A5B1A5A80FB91F1C920196EACF13A20895CF9318
:20028000DF93FC01EC01659682A190E0DF015996009729F019928D939D930197F9CFCF01CA
:2002A000DF91CF91D1CFFC01862F642F81111FC050E083A184171506F1F0ECF084A195A1F6
:2002C0009A012F5F3F4FDC01A20FB31F6C91840F951FDC016C9366A177A1DB01A20FB31F69
:2002E0008C91460F571FDA018C93A901E2CF813011F4CF010DCF0895CF93DF93FC0161117F
:2003000011C050E0818184171506F1F0ECF0A0A5B1A5A40FB51F11968C9111978C934F5F0C
:200320005F4FF0CF613081F4818190E050E04817590754F4A0A5B1A5A80FB91FED012197D1
:2003400028812C930197F3CFDF91CF910895FC01218130E090E080E0821793074CF4A0A537
:20036000B1A5A80FB91F4C91461719F00196F4CF8FEF0895CF93DF93EC018981882359F021
:20038000CE01E5DF482F8F3F31F060E0CE01B4DF89818150898381E029819AA1291708F459
:2003A00080E0DF91CF910895FC0123A130E090E080E0821793074CF4A4A1B5A1A80FB91F32
:2003C0004C91461719F00196F4CF8FEF0895ECDF982F81E09F3F09F480E00895CF93DF93C6
:2003E000EC01E2DFEEA1FFA1E80FF11D8081DF91CF910895E62FE695E695E695E80FF92F08
:20040000F11D962F977041E050E060E070E004C0440F551F661F771F9A95D2F740958381AA
:200420004823438308951F93CF93DF93EC01162FA1DF898190E0E8A5F9A5009741F0E80F52
:20044000F91FDF0111972C9120830197F4CF89819AA5891710F48F5F89831083DF91CF91F7
:200460001F910895EF92FF920F931F93CF93DF93EC01162F8BA1813071F480E09AA5891742
:2004800038F4E8A5F9A5E80FF11D10828F5FF6CF19821C8A1A82612FCE01C5DF89A18230FF
:2004A00009F057C02AA18BA1FE017596281780F4AF0190E08FEF622F70E029130BC090E082
:2004C0002917A9F03191311301C0892F9F5FF8CF8FEFF5CFDA010D91AD01ACA1BDA1A60F36
:2004E000B71F3C91031301C0892F9F5FE6CF8F3FD1F4FE017996DF0120E0921749F04D91D6
:200500005D918417150611F008F0842F2F5FF5CF20E0921741F0419151918417150609F4F8
:20052000822F2F5FF6CF891768F490E0FC01EE0FFF1FEC0FFD1F2FEF30E0328F218FC80FA6
:20054000D91F1D8BDF91CF911F910F91FF90EF900895CE0115DECE0142DE9AA1FE01799636
:20056000DF0180E0981721F01D921D928F5FFACF99A1913009F061C02BA1211116C0998163
:20058000981700F3292F30E0DE015596A90141505109692F621B6817A8F6E8A5F9A5E40FA2
:2005A000F51F20812D939A01F1CF2817E0F0422F50E08E010B5E1F4FEE24EA94F12CBA01ED
:2005C00061507109922F941B981708F0BBCFACA1BDA1A60FB71F9C91D8019D938D01E192E2
:2005E000F192AB01ECCF90E04FEF50E041935193692F9F5F2913FACF292F30E0ECA1FDA14D
:20060000E20FF31FDE01559640E052915D93542F4F5F6513FACF498150E0421B530BE8A566
:20062000F9A5E40FF51F2B5E3F4FC20FD31F229129939F5F8913FBCF85CF911183CF2BA154
:20064000211114C09981981708F47CCFDE01559630E020E0281708F075CFE8A5F9A5E20F13
:20066000F31F90819D932F5F3F4FF4CF4FEF50E02817B8F0AE014B5E5F4F30E020E06FEF7F
:2006800070E0281708F05ECFACA1BDA1A20FB31F9C91DA019D93AD01619371932F5F3F4F7E
:2006A000F0CF419351939F5F2913FBCF2CA1DE015596E22FFDA131913D933E2F321B3917DD
:2006C000D0F3292F30E0E8A5F9A5E20FF31F2B5E3F4FC20FD31F219129939F5F8913FBCF15
:2006E00031CFFC0132A1432F50E020E0321769F0818D928D4817590728F0009719F00197AA
:20070000928F818F2F5F3296F1CF0895CF93DF93EC0189A1813001F1823081F0811176C07C
:200720009AA1FE017596DF012FEF981709F43FC03D91361301C0282F8F5FF7CF2AA1FE011E
:20074000759690E08FEF291709F44EC03191361301C0892F9F5FF7CF9AA1DE015596FD010A
:2007600080E02FEF981731F03191361301C0282F8F5FF8CF9BA1692F70E0281760F49B0100
:200780002150310940F04CA15DA1420F531FFA0140814D93F5CFFB01EE0FFF1F7996EC0F4F
:2007A000FD1F981798F5119211929F5FFACF9BA1281768F430E020E0291748F4ACA1BDA1C6
:2007C000A20FB31F4C9141932F5F3F4FF5CFE92FF0E0EE0FFF1F7996EC0FFD1F9817B0F489
:2007E000119211929F5FFACF821780F490E0422F50E03BA1321788F0ECA1FDA1E40FF51FFF
:20080000319720818C0F9D1FFC01258B8BA1811101C01882DF91CF910895880F991FFE0197
:20082000E80FF91F528F418FCE015BDFEFCF1F93CF93DF93EC01162F8BA1882359F0CE018A
:20084000B3DD482F8F3F31F060E0CE012CDD8BA181508BA3612FCE0159DF81E02BA19AA160
:20086000291708F480E0DF91CF911F9108950F931F93CF93DF93EC01162F042FD8DF612FEB
:20088000CE01B8DD60E0CE0143DC8BA19AA5891710F48F5F8BA3ECA1FDA11083EEA1FFA1AE
:2008A0000083612FCE01DF91CF911F910F91DACDFC01E60FF11D658991CDFC01E60FF11D43
:2008C0008589089580917C0282FD10921901089580917C0282FF03C081E080931901089508
:2008E000CF93C62F1092600220911E0330E02F5F3F4F8217130661F489E293E0A2DC6C2FA1
:2009000089E293E094DF60E089E293E0CF91D5CFCF9108950C94FA350C940236DC01ED9165
:20092000FC910190F081E02D0994DC01ED91FC910190F081E02D0994EF92FF920F931F9384
:20094000CF93DF9360913C0489EC93E0E5DF02EF15E0CAECD3E0F80160810E5F1F4FCE0113
:20096000DBDF7801F2E0EF1AF108F7016181CE010196D2DFF701608171814AE050E08BE5EA
:2009800096E00E9473336AE271E08BE596E00E94F6322296C83EF3E0DF07E9F66AE271E059
:2009A0008BE596E0DF91CF911F910F91FF90EF900C94FA32EF92FF920F931F93CF93DF931D
:2009C00089EC93E0A7DF80933C0402EF15E0CAECD3E0FF24F394CE019DDFE82ECE01019696
:2009E00099DF6E2D0E942934F801819391938F01F09255064AE050E0BC018BE596E00E94A8
:200A000073336AE271E08BE596E00E94F6322296C83EF3E0DF07F9F66AE271E08BE596E0FA
:200A2000DF91CF911F910F91FF90EF900C94FA320F931F93CF93DF9304EE14E0C8EED3E045
:200A4000F80160810E5F1F4FCE0166DFF80132976181CE01019660DF2296C115F4E0DF073C
:200A600079F7DF91CF911F910F910895FF920F931F93CF93DF9304EE14E0C8EED3E0CE0172
:200A800049DFF82ECE01019645DF6F2D0E942934F801819391938F012296C115F4E0DF07DA
:200AA00071F7DF91CF911F910F91FF900895FF920F931F93CF93DF9309E711E0C8EED3E07F
:200AC000F8016081F1800E5F1F4FCE0125DF6F2DCE01019621DF2296C115F4E0DF0781F75B
:200AE000DF91CF911F910F91FF90C0CF88EB93E011DF80937C0288EB93E00CDF91E081117D
:200B000001C090E090937B028BEB93E003DF91E0811101C090E090937A028CEB93E0FADEA4
:200B20008093040184EC93E0F5DE80931E03089560917C0288EB93E0EFDE60917B0288EB13
:200B400093E0EADE60917A028BEB93E0E5DE609104018CEB93E0E0DE60911E0384EC93E0AE
:200B6000DBCE1F93CF93DF93D82FC62F142F81E08093600290916202992371F09091070364
:200B800091110AC0809361028FEF8D0F80931E0389E293E059DBCCDF80911E0390E001962F
:200BA000D817190631F589E293E04BDB811104C01092650210926402412F6C2F89E293E0AD
:200BC00056DE80917A0220917C028823B1F021FF0AC060E089E293E070DE482F61E08CEE51
:200BE00093E00E94572760E089E293E061DE80936302DF91CF911F9108958C2F6CE00E94C7
:200C00005E35392F81E090E0A0E0B0E004C0880F991FAA1FBB1F3A95D2F740916402509192
:200C20006502842B952B909365028093640221FF04C09093FE028093FD02D0E0C0E06C2FD7
:200C400089E293E0C4DB8111DC2FCF5FCF37B9F78D2F6CE00E945E358350990B909381043A
:200C600080938004C6CF909103039923B9F080915F02811105C0809104038F5F80930403D3
:200C800080910403981710F410920403E0910403F0E0E452FD4F80818093D2029091010309
:200CA000992379F180915F02811105C0809102038F5F8093020380910203981710F08111D2
:200CC00002C010920203E0910203F0E0EA59FD4F80818093810289E293E0B3DA811111C071
:200CE000E0918102F0E0EE0FFF1FEB5FFE4F808191819093FE028093FD021092810410926D
:200D000080040895CF93DF938EE08093FC02C091D20280918B02882349F0D0E06D2F8CEEF2
:200D200093E00E94BF29DF5FD830C1F78091D302882309F188E0C89FF0011124EE56FD4FA8
:200D40008091900290919102E80FF91F80918C0290918D029695879596958795808380913C
:200D60005F02882369F010925F0281E080932803DF91CF9108958091D2028F3F81F7F5CF10
:200D800080918E0290918F0287309105D4F4019690938F0280938E02E0911F0388E0E89F7B
:200DA000F0011124E75CFE4F80918E0290918F02E80FF91F808190E090939102809390024F
:200DC000D4CF10928F0210928E024DDFE5CF80917C0282FF06C080915F02882361F0109245
:200DE0005F0280915102909152020196909352028093510208956091040170E080915102FE
:200E0000909152020E946A35892B49F481E08093DB0280911901882321F374DFE2CF10924A
:200E2000DB02DFCFE0910101F0E0EF55FE4F608170E00E946A35892B41F481E08093DB02A7
:200E400080911901882319F05DCF1092DB0208950F931F93CF93DF9380915B0290915C0256
:200E6000A0915D02B0915E028093570290935802A0935902B0935A028CEE93E00E94982FD5
:200E800060935B0270935C0280935D0290935E026093530270935402809355029093560226
:200EA00000915702109158022091590230915A02601B710B820B930B60937602709377021B
:200EC000809378029093790220917F02309180024CE0429FE001439FD00D1124D0937E02AD
:200EE000C0937D022091030130E050E040E00E949135309316012093150180917C0282FDF2
:200F000002C0CE018FDF80917F029091800201968F3F910509F048F49093800280937F0234
:200F2000DF91CF911F910F9108951092800210927F02F6CF6EE08CEE93E00E94BF29882378
:200F400071F069E08CEE93E00E94BF29882339F06DE08CEE93E00E94BF29811179CF089561
:200F60006EE08CEE93E00E94BF29811110C08CEE93E00E94982F60934D0270934E0280934C
:200F80004F029093500281E080934C0261CF69E08CEE93E00E94BF29882349F36DE08CEE2B
:200FA00093E00E94BF29882311F3089581E080935F028093190110920403109202031092F4
:200FC00091021092900210928F0210928E024BCE109252021092510280917C0282FDE6CF1E
:200FE0000895CF92DF92EF92FF920F931F93CF93DF93262F862F6CE00E945E35492F0091B4
:20100000FD021091FE0290E080E030E0B801082E02C0769567950A94E2F760FD31E001961C
:201020008C30910599F7C80102C0969587954A95E2F780FD38C03323B1F130E0C22FD0E026
:20104000ECE0F0E0CE01830F911DBF010E947E35A80102C0569547958A95E2F740FD02C0A7
:201060003F5FF0CF40E0ECE0E20FF0E08CE0C82ED12CE42EF12CCF018E199F09B6010E9460
:201080007E35B80102C0769567958A95E2F760FD02C04F5FEECF431780F4CE19DF091C16CA
:2010A0001D065CF4241B822FDF91CF911F910F91FF90EF90DF90CF900895230FF4CF8617A2
:2010C00097074CF08417950724F081E0461757074CF480E007C048175907DCF381E06417FE
:2010E0007507BCF30895AF92BF92CF92DF92EF92FF920F931F93E091D20288E0E89FF00139
:201100001124EE56FD4F8091900290919102E80FF91F608184E0689FB00111246B3F710552
:2011200084F1072E000C880B990B20913B041F921F921F922F933CE0A32EB12CC12CD12C49
:20114000E12C14E0F12E00E010E02AEF30E040E050E00E94C73340E08091810242DF0F9016
:201160000F900F900F90482F60E08CEE93E01F910F91FF90EF90DF90CF90BF90AF900C9494
:20118000572760918C0270918D0290E080E01F921F922FE02F932FEF2F93A12CB12C6501CF
:2011A0001AEFE12EF12C00E010E020E030E0A9010E94C7330F900F900F900F90AB0160E06C
:2011C0008CEE93E01F910F91FF90EF90DF90CF90BF90AF900C94B321AF92BF92CF92DF9290
:2011E000EF92FF920F931F93CF93DF9380917A028823A1F189E293E024D8882379F18091EB
:201200007C0281FF2BC060E089E293E056DB482F61E08CEE93E00E9457271092830260E06A
:201220008CEE93E00E94CF204091D7025091D8024F5F5340B3E0440F551FBA95E1F761E0C8
:201240008CEE93E0DF91CF911F910F91FF90EF90DF90CF90BF90AF900C94C4208091D502AB
:201260009091D60292502091840230918502820F931F2091D30221115EC0209119012223EB
:2012800009F459C0E091D20228E0E29FF0011124EE56FD4F2091900230919102E20FF31F1A
:2012A000208144E0249F90011124820F931F97FD4EC0813024E0920714F080E094E09093B2
:2012C0008D0280938C0220918C0230918D02B90190E080E040918802442309F458C02B3F84
:2012E0003105C0F120913C041F921F921F922F93DCE0AD2EB12CC12CD12CE12C14E0F12EC3
:2013000000E010E02AEF30E040E050E00E94C73340E08091810265DE482F61E08CEE93E04C
:201320000E945727109283020F900F900F900F906091830275CF81154EEF940744F08130DD
:2013400022E0920714F080E092E09E5FB8CF90E080E0B5CF1F921F922FE02F932FEF2F9331
:20136000A12CB12C65011AEFE12EF12C00E010E020E030E0A9010E94C733AB0161E08CEE9B
:2013800093E00E94B32181E080938302CDCF2B3F3105A0F1A090F205B090F305D12CC12C55
:2013A0001F921F9220E12F931F92E12C14E0F12E00E010E02AEF30E040E050E00E94C73352
:2013C0004091D7025091D8025695479556954795460F571F61E08CEE93E00E94B321109209
:2013E00083020F900F900F900F90609183028CEE93E00E94CF2050E040E021CF1F921F9256
:20140000DFE0DF93CFEFCF93A12CB12C65011AEFE12EF12C00E010E020E030E0A9010E940A
:20142000C7332091D7023091D8023695279536952795620F731F811D911D0F900F900F9053
:201440000F9050E040E097FD41C060918C0270918D0290E080E01F921F92DF93CF9320E0F3
:2014600030E0A9010E94C7332091D7023091D8023695279536952795620F731F811D911D94
:201480000F900F900F900F90611570418105910534F560918C0270918D0290E080E01F92D4
:2014A0001F92DF93CF9320E030E0A9010E94C7334091D7025091D80256954795569547955E
:2014C000460F571F0F900F900F900F9061E08CEE93E00E94B32181E08093830286CF4FEF95
:2014E0005FE0F4CF1F93CF93DF936CE08CEE93E00E94CB2980918202882309F45EC1C0E099
:201500006C2F8CEE93E00E94BF29811115C1CF5FC830B1F7D0E0C0E06C2F8CEE93E00E9409
:20152000CB298823F1F041E06C2F8CEE93E00E94D6201092820281E080930703C093810270
:20154000FE01EE0FFF1FEB5FFE4F808191819093FE028093FD021092010310928104109223
:2015600080042196C830D105B9F66CE08CEE93E00E94CB29882369F0E0918102F0E0EE0F1F
:20158000FF1FEB5FFE4F8091640290916502918380836EE08CEE93E00E94CB29882319F0FB
:2015A00081E080933A026EE08CEE93E00E94BF2969E0882309F4CEC08CEE93E00E94CB29B4
:2015C0008823E9F0E0918102F0E0EE0FFF1FDF01AB5FBE4F8D919C911197880F991F94FDDE
:2015E000B5C08D939C93EB5FFE4F808191819F7E9183808381E08093820210923A026DE026
:201600008CEE93E00E94CB298823C1F0E0918102F0E0EE0FFF1FEB5FFE4F20813181C90158
:20162000969587959183808320FF92C098609183808381E08093820210923A026EE08CEE2E
:2016400093E00E94E8298823A1F180913A02882381F12091810230E0220F331FF901EB5FB2
:20166000FE4F408151816091D40281E090E0A0E0B0E0062E04C0880F991FAA1FBB1F0A945A
:20168000D2F7EA0102C0D695C7956A95E2F7C0FD8FC0842B952B918380832B5F3E4FF90192
:2016A000808191819093FE028093FD0281E080934B02C0E040E06C2F8CEE93E00E94D62041
:2016C000CF5FC830B9F78091820241E060918102882359F1C1E0D0E0E091D402F0E0E35D6D
:2016E000FE4F408150E00C2E02C0559547950A94E2F741706C2F8CEE93E00E94D6202196EB
:20170000C830D10549F7E0918102F0E0EE0FFF1FEB5FFE4F8091D4024081518102C056951E
:2017200047958A95E2F7417060E08CEE93E0DF91CF911F910C94D620D0E06D2F8CEE93E0A8
:201740000E94CB29DF5FD830C1F7E1CE816049CF977F6DCF8CEE93E00E94CB29882379F064
:2017600080918202882341F08091D4028F5F6CE00E945E359093D40281E0809382026DE064
:201780008CEE93E00E94CB29882309F457CF80918202882339F08091D402811107C08BE0E4
:2017A0008093D40281E08093820248CF8150F8CF80959095842395236ECFD0E0C0E01C2F28
:2017C0006C2F8CEE93E00E94CB298823E1F18091FF02811157C010920203109201031092C4
:2017E000000311E01093FF02E0910503F0E0EA59FD4FC08341E06C2F8CEE93E00E94D620F5
:201800008CEE93E00E948F2F609318037093190380931A0390931B0310928202109307030A
:20182000C0938102FE01EE0FFF1FEB5FFE4F808191819093FE028093FD0210920103109291
:201840008104109280042196C830D10509F0B7CF6EE08CEE93E00E94CB29882351F181E0BA
:201860008093820280930703609181028CEE93E00E94BF29882309F41CCF8CEE93E00E94A7
:201880008F2F17CF809100038F3018F48F5F8093000380910003E82FF0E0EA59FD4F1083A4
:2018A0008093010341E0612F8CEE93E00E94D620CACF69E08CEE93E00E94CB298111CFCF46
:2018C0006DE08CEE93E00E94CB298111C8CFCCCF0F931F938CEE93E00E94982F00915302E4
:2018E000109154022091550230915602AB01BC01401B510B620B730B809115019091160166
:20190000B0E0A0E0481759076A077B07C8F08CEE93E00E94982F6093530270935402809343
:2019200055029093560220917C0280917D0290917E0222FF08C0019690937E0280937D02C0
:201940001F910F91089520914C02211108C0019690937E0280937D021F910F9163CA409187
:201960007F02509180026CE0649F9001659F300D1124215031098217930710F7E8CFDC01B4
:20198000D2968C91D297813F09F4A4C048F5803B09F459C0B8F48039D1F1803A09F471C01B
:2019A000803809F0C1C0ED91FC911197309709F4BBC0D4964C91D497D3966C91D397D1961A
:2019C0008C910994803D09F461C020F4803C09F46AC00895803EE1F1803F09F469C00895CC
:2019E0008A3F09F158F4833F09F491C008F47BC0863F09F491C0883F79F008958C3FD9F01D
:201A0000B0F08E3FE1F08F3F09F48AC008951296ED91FC911397CACF5896ED91FC91309720
:201A200009F482C009945A96ED91FC91F8CF5C96ED91FC91F4CF5E96ED91FC91F0CF909664
:201A4000ED91FC91ECCF1696ED91FC911797AECF1C96ED91FC911D97309709F465C0D4961A
:201A60006C91D49720E8629FB001112460787F73D3968C91D3978F77682B7052D1968C9176
:201A800009941496ED91FC91159790CF1A96ED91FC911B97309709F447C0D3966C91D397E1
:201AA000D1968C9109941896ED91FC911997F2CF1E96ED91FC911F973097B1F1D3966D9196
:201AC0007C91D4976115710511F061E070E0CD01C59609945096ED91FC915197309721F198
:201AE000D3968C9109945296ED91FC9153973097D9F0D4968C91D49720E8829FC001112445
:201B000080789F73D3962C912F77822B09945496ED91FC915597E2CF5696ED91FC917FCFCE
:201B20009296ED91FC917BCF0895982F9F7E282F2F7C203839F0803E29F081E0903C19F017
:201B400080E0089581E0089587FF0CC09CE0980F923040F0982F9B7F993F21F0803F18F48E
:201B6000807F089580E008950F931F93CF938C01C62F6D3F98F46A3F20F4663F11F0683F52
:201B800079F4D801D7968D919C91DC01ED91FC910190F081E02D6C2F099502C06E3F88F729
:201BA000C63F11F4F80110A6CF911F910F910895EF92FF920F93CF93DF937C01C62FD22F24
:201BC0006FEF600F603110F4C7FD09C0D70198961C92DF91CF910F91FF90EF900895C13E48
:201BE00080F5042F0F776C2BFC0180A5861751F087A990AD60A7DC01ED91FC910190F081C2
:201C0000E02D0995F70187A990ADDC01ED91FC910190F081E02D602F0995CF7EC03CC9F28C
:201C2000F70187A990AD6D2F6F77DC01ED91FC910190F081E02DDF91CF910F91FF90EF9048
:201C40000994C63F30F26C2FDF91CF910F91FF90EF908ACF0F931F93CF93DF93EC018EA10A
:201C6000982F917080FF1DC0282F2E7FD1F06AA920E8260F2136E8F409A929A5021719F056
:201C800091E0211190E08695823049F0833071F0813039F42CA94BA9CE018ADF02C09111D4
:201CA000F9CFDF91CF911F910F9108959111F9CFF1CFE0E1E60FE031A0F7F0E0EE5EF94CB6
:201CC0000C94CF35CE01DF91CF911F910F914CCF0BA91CA90115110511F001E010E090E06F
:201CE00080E080179107F8F48FA998ADDC01ED91FC910190F081E02D6DA9099581E090E070
:201D0000F0CF1BA98FA998ADDC01ED91FC910190F081E02D63EF09951F77612F70E08FA92E
:201D200098AD0E94950418A6BCCF0CA9B0E80B9F800111248BA9082B8FA998ADDC01ED91EE
:201D4000FC910190F081E02D62EF0995B8016F7777278FA998AD0E948E04B801660F672F46
:201D6000661F770B71956F7777278FA998AD0E948E04D9CF6BA9B0E16B9FB001112460770D
:201D80001CA91F70162B8FA998ADDC01ED91FC910190F081E02D61EF09958FA998ADDC01F2
:201DA000ED91FC910190F081E02D612F0995BBCFCF92DF92FF920F931F93CF93DF93EC01D9
:201DC000F9A480E18F1550F410E0812FDF91CF911F910F91FF90DF90CF9008958FA998ADE6
:201DE000DC01ED91FC910084F185E02D0995892B59F38FA998ADDC01ED91FC910284F385F3
:201E0000E02D09958C018FA598A9009709F096C00AA7DFA08D2D98DE88DE882341F007FD89
:201E200006C0DAA60BA781E090E098AB8FA78AA58BDE813F09F45BC020F5803B39F048F4BB
:201E4000803921F0803A11F0803851F483E090E050C0803D09F44BC048F4803C09F447C05C
:201E600018AA1FA61EA61DA61FA2AECF803E71F3803FB1F721E030E03EA72DA71FA28DABCA
:201E80003AC0883F31F058F5833F89F1F8F2863F39F78AAB19AA1BAA1CAA81E08EAB18AA19
:201EA0001FA61EA61DA68AA9803929F48CA9811102C080E88AAB8AA9882309F4BAC080587A
:201EC000813630F489A599A9981711F08111B1C0CE0155DD11E06F2DCE01BCDE76CF8A3FFF
:201EE00008F4BECF8D3FA8F28E3F98F6B9CF82E090E09EA78DA78FA598A9CDA4DEA49601C6
:201F0000215031098217930708F48FC01AA5812F1BDE8AAB1F701F5F19AB8BA58BABB3E031
:201F2000CB16D10449F48CA58CAB18AA1FA61EA61DA681E08EABB7CF1CAAF7CF07FF19C0AD
:201F4000980133272D3F31057CF42A3F31053CF4273F310509F446C0283F310551F40AAB77
:201F60001BAA1CAA19AAE5CF2E5F310922303105B0F32AA5FE01E80FF91F203F09F048C030
:201F800005ABCDA4DEA49601215031098217930708F44BC00AA5003F09F462CF802FD4DDA6
:201FA000182F8AABC2DD8823A9F1802F8F708F5F89AB8BA58BAB83E0C816D10469F58CA5E6
:201FC0008CAB18AA1FA61EA61DA681E08EAB103B39F020F5103921F0103A11F01038B1F407
:201FE0000FA361CF2DA9203F09F03ACFFE01E80FF91F37EF35AB2AAB01969CAB8BAB19AA08
:2020000081E08EAB18AA1FA61EA61DA61FA24BCF02A7B7CF19AACDCF1CAAD3CF103D01F306
:20202000103EF1F2103C91F7DBCF019698AB8FA7CBCE10E050CFCF93C091190189E293E08E
:20204000CC2309F4EEC00E94210161E0811101C060E08CEE93E00E94BC28E091D202F0E0C6
:20206000E85FFC4F808190E00090900202C0959587950A94E2F74091180150E080FD02C063
:2020800050E040E061E08CEE93E00E94EA21E091D202F0E0E85FFC4F808190E000909002DB
:2020A00002C0959587950A94E2F780FD08C089E293E00E942101C1E0811101C0C0E06C2F8B
:2020C0008CEE93E00E94DD28E091D202F0E0E05FFC4F608170E00090900202C075956795B2
:2020E0000A94E2F761708CEE93E00E94B628E091D202F0E0E85FFC4F608170E00090900231
:2021000002C0759567950A94E2F761708CEE93E00E94C7286091DB028CEE93E00E94D228DA
:202120006CE08CEE93E00E94BF29811133C080918202882309F496C0E0918102F0E0EE0F03
:20214000FF1FEB5FFE4F8091D4026081718102C0769567958A95E2F761708CEE93E00E94EF
:20216000E82860E08CEE93E00E949221C1E0482F4C2760E08CEE93E00E94042962E08CEE8A
:2021800093E00E949221482F4C2761E08CEE93E00E9404296DE08CEE93E00E94CB29882315
:2021A00091F06EE08CEE93E00E94BF2981110BC069E08CEE93E00E94BF29811104C0809155
:2021C000070361E0811160E08CEE93E00E94F3286DE08CEE93E00E94BF29882309F45FC0AD
:2021E000C0E06C2F8CEE93E00E94BF29882309F452C0C0FD40C0EC2FE695F0E0EF55FE4FBF
:20220000608170E080917D0290917E020E946A3561E0892B09F460E08CEE93E00E94F3283F
:202220003AC00E94210161E0811101C060E08CEE93E00E94BC2889E293E00E94210161E0B6
:20224000811101C060E08CEE93E00E94DD2860E08CEE93E00E94C72860E08CEE93E00E94CA
:20226000B62858CF8091190161E0882309F475CF6091DB0272CFE091D202F0E0E05FFC4F53
:20228000808190E00090900202C0959587950A94E2F780FDB0CFCF5FC83009F0A2CF80918F
:2022A000FC02882309F43EC0809102018823D1F1E091D202F0E0E05FFC4F608170E0009099
:2022C000900202C0759567950A94E2F761708CEE93E00E94FE2860E08CEE93E00E941F2396
:2022E00090934F0680934E0682EB93E061DD8CEE93E00E941E228CEE93E00E942429809125
:202300002803882351F0109228038CEE93E00E941E228CEE93E00E941E228CEE93E0CF91EE
:202320000C94032A60E0D3CFDF92EF92FF920F931F93CF93DF9397E7899F80011124E801FE
:20234000C05CDF4F85E0E82E81E0F82E005B1F4F72DECE010E948A04D82ECE0101960E940B
:202360008A046D2D0E942934F701819391937F012296C017D10761F7DF91CF911F910F91A7
:20238000FF90EF90DF9008950F931F93CF93DF9305E011E097E7899FE0011124C05CDF4F1F
:2023A0004ADEF80160810E5F1F4FCE010E948C04F80132976181CE0101960E948C0422964B
:2023C000F1E005311F0761F7DF91CF911F910F9108952F923F924F925F926F927F928F9224
:2023E0009F92AF92BF92CF92DF92EF92FF920F931F93CF93DF9300D000D0CDB7DEB7782EAF
:2024000027E7829F50011124BC82AB82C5018F589F4F0E948A0480938102C50180599F4FAE
:202420000E948A0480930303C5018E589F4F0E948A0480930103C5018D589F4F0E948A04A9
:2024400080930101C5018C589F4F0E948A0430E020E090E0E0E0A82FB0E0C12CD12C760197
:20246000C394B701A601022E04C0440F551F661F771F0A94D2F78D01022E02C015950795A3
:202480000A94E2F700FF07C1E42B89010D5F1F4F5D0102C0B594A7940A95E2F7A0FEFFC012
:2024A000942B2F5F3F4F23303105D9F6E093170190931F03F0E0EF56FE4F8081809318018A
:2024C0008B819C818B589F4F0E948A04182F8B819C818A589F4F0E948A04612F0E942934D3
:2024E000909316018093150140910301489F9001499F300D1124C901B0E0A0E0809376026D
:2025000090937702A0937802B0937902AB80BC8028E0A20EB11C0B811C818DDD780158E084
:20252000D52EC7010E948A04F7012B813C81E21BF30BEE56FD4F8083DA9438E0E30EF11C2D
:20254000D110EFCF0F5F1F4F0A151B0531F70B811C81005B1F4F2CEDE22E22E0F22E36E640
:20256000C32E32E0D32E2B803C8080E6280E311C812C912C540183945EDDC8010E948A04FD
:20258000F70111927F01F60111926F0130E020E0482E512CF7013197D6011197B501A40179
:2025A000022E04C0440F551F661F771F0A94D2F76080C201022E02C0959587950A94E2F78C
:2025C00080FF70C0642A60826C90C90103969A838983C201098002C0959587950A94E2F789
:2025E0009A83898380FF62C046294C932F5F3F4F2330310599F60F5F1F4F0215130509F08B
:20260000BBCF80E1C82E83E0D82E98E0E92E93E0F92EEB81FC81E859FF4FFA83E9830BDDFE
:20262000C8010E948A04F60181936F01C80108960E948A04F70181937F010F5F1F4FA980FE
:20264000BA800A151B0559F780910303811104C08091DC028093D202872D66DE70921D0354
:20266000672D80EC93E00F900F900F900F90DF91CF911F910F91FF90EF90DF90CF90BF9020
:20268000AF909F908F907F906F905F904F903F902F900C948C04842F8095E823F6CE4095A7
:2026A0009423FFCE842F809568228DCF409564226C929CCF2F923F924F925F927F928F928E
:2026C0009F92AF92BF92CF92DF92EF92FF920F931F93CF93DF9300D000D0CDB7DEB7782ECC
:2026E000198241E069818CEE93E00E94D62029812F5F29832830A9F78CEE93E00E942429F7
:2027000027E7729E100111243C822B8260918102C1018F589F4F0E948C0460910303C101F4
:2027200080599F4F0E948C0460910103C1018E589F4F0E948C0460910101C1018D589F4F5B
:202740000E948C04E0911701F0E0A0911F03AA2EB12C30E020E060E0C12CD12C7601C394DE
:20276000122FD701C601022E04C0880F991FAA1FBB1F0A94D2F7AF01022E02C055954795C4
:202780000A94E2F740FFEAC0862BA9014D5F5F4F1601270104C0220C331C441C551C4A95F4
:2027A000D2F7A101250102C0559447941A95E2F7682F642B40FC03C0642F609568232F5FB4
:2027C0003F4F2330310561F68B819C818C589F4F0E948C04609115018B819C818B589F4F5D
:2027E0000E948C04609116018B819C818A589F4F0E948C04AB80BC8028E0A20EB11C0B81FC
:202800001C81780148E0D42EF7012B803C80E219F309EE56FD4F6081C7010E948C04DA9449
:2028200028E0E20EF11CD110EFCF0F5F1F4F0A151B0539F78CED92E09A83898326E6C22E99
:2028400022E0D22E8101005B1F4F710190E6E90EF11C812C912C54018394EDDBA981BA813C
:202860002D91BA83A98330E0F60141916F0150E070E090E080E0A82F14012501082E04C08C
:20288000220C331C441C551C0A94D2F7F901082E02C0F595E7950A94E2F7E0FF62C0722978
:2028A000FC0133961401250104C0220C331C441C551CEA95D2F7FA0102C0F595E795AA95BB
:2028C000E2F7E0FF52C0722901968330910599F6672FC8010E948C040F5F1F4F0E151F0570
:2028E00009F0BBCF80E1C82E83E0D82E98E0E92E93E0F92E8B819C8188599F4F9A8389834B
:202900009ADBD6016D916D01C8010E948C04F70161917F01C80108960E948C040F5F1F4F25
:2029200029803A800215130559F7872D2DDD0F900F900F900F90DF91CF911F910F91FF90CC
:20294000EF90DF90CF90BF90AF909F908F907F905F904F903F902F900C94980580958623E8
:2029600014CF622D609576239BCF20947221ACCFCF930E94570581E0809388021092D20257
:20298000109281021092030388EE93E0909316018093150110921F0384E0809317018093B8
:2029A0000101E2E9F2E080E8819387838787878B878F87A387A787AB92E0EA39F907A1F705
:2029C000ECEDF2E08CEF92E011928E179F07E1F7C0E08C2F6FDECF5FC830D9F710921D0339
:2029E00083E080937C0210927B0210927A0285E0809304018093010110921E030E94980512
:202A00000E9418050E949C0482E080931C0360911D0380EC93E00E948C0461E781EC93E0D7
:202A20000E948C0460E682EC93E00E948C0462E883EC93E0CF910C948C0481EC93E00E94CD
:202A40008A048137A9F482EC93E00E948A04803679F483EC93E00E948A04823849F480ECEA
:202A600093E00E948A0480931D03B3DC0C9476057FCFE3DF0E9436050C94DA04CF92DF9299
:202A8000EF92FF920F931F93CF93DF936EE08CEE93E00E94CB29882361F08CEE93E00E94A0
:202AA0008F2F6093430270934402809345029093460269E08CEE93E00E94CB29882361F04A
:202AC0008CEE93E00E948F2F60934702709348028093490290934A026DE08CEE93E00E9477
:202AE000CB29882361F08CEE93E00E948F2F60933F027093400280934102909342026CE017
:202B00008CEE93E00E94CB29882361F08CEE93E00E948F2F60933B0270933C0280933D0226
:202B200090933E0205ED12E0C0E06C2F8CEE93E00E9492216C2F882309F4ADC18CEE93E033
:202B40000E940621882309F491C16C2F8CEE93E00E946521CF5F0E5F1F4FC33031F78091CD
:202B60002803882351F0109228038CEE93E00E941E228CEE93E00E941E226CE08CEE93E09A
:202B80000E94BF298823A9F16BE08CEE93E00E94CB29882371F080917A02C1E08C27809398
:202BA0007A020E949805C0930703109281041092800440917A02C1E04C2760E08CEE93E022
:202BC0000E9404296AE08CEE93E00E94CB29882349F080917B028C2780937B020E94980565
:202BE000C093070340917B0261E08CEE93E00E9404296BE08CEE93E00E94CB29811110922B
:202C000082026BE08CEE93E00E94E829882349F080914B02882319F080911D03B5DB1092EC
:202C20004B026BE08CEE93E00E94BF296AE0882309F462C18CEE93E00E94BF29882329F035
:202C400080918202882309F42EC168E08CEE93E00E94BF29811145C10E94720A6EE08CEE0B
:202C600093E00E94E829882309F46BC080910703811167C08CEE93E00E948F2F0091430264
:202C8000109144022091450230914602601B710B820B930B643671058105910508F051C0F5
:202CA0008091200390912103A0912203B09123038093240390932503A0932603B093270390
:202CC0008CEE93E00E94982F60932003709321038093220390932303C0902403D0902503E1
:202CE000E0902603F09027038B019C010C191D092E093F09015A1F40210931090F3E104CD7
:202D000023403105F0F400914D0210914E0220914F0230915002C016D106E206F30628F4A6
:202D2000061717072807390760F010924C02C0925B02D0925C02E0925D02F0925E020E94E5
:202D4000280769E08CEE93E00E94E8298823F9F08091070381111BC08CEE93E00E948F2FF2
:202D600000914702109148022091490230914A02601B710B820B930B643671058105910537
:202D800030F4809119018111E5C50E94D60780912803882351F0109228038CEE93E00E94A5
:202DA0001E228CEE93E00E941E228091FC02882319F081508093FC026AE08CEE93E00E9486
:202DC000CB296AE08CEE93E00E94E82968E08CEE93E00E94BF296AE08CEE93E00E94E8296C
:202DE000882351F080910603882321F080910503809303031092060368E08CEE93E00E945D
:202E0000BF2968E08CEE93E00E94BF298111A5C51092D30268E08CEE93E00E94BF29811147
:202E2000CEC568E08CEE93E00E94CB29882339F06AE08CEE93E00E94BF298111C8C568E038
:202E40008CEE93E00E94BF298111E6C568E08CEE93E00E94E829882309F4FAC56AE08CEEAB
:202E600093E00E94BF298111DFC5F2C5D801CD90DC906C2F8CEE93E00E942D217C016C2F36
:202E80008CEE93E00E942221A601B7010E945F0881115BCE5FCE8CEE93E00E942221F80145
:202EA0009183808357CE81E080930703C0E040E06C2F8CEE93E00E94D6206C2F8CEE93E0F0
:202EC0000E94CB29882311F08C2F83DACF5FC83071F741E060911D038CEE93E00E94D62053
:202EE000BDCE809182028111B7CE80911D03E2DB81E080930703B2CE8CEE93E00E94BF2938
:202F0000882309F416C16DE08CEE93E00E94CB29882391F181E080930703E091D202F0E0A2
:202F2000CF0113E0880F991F1A95E1F7DC01AE56BD4F17963C91179727E016964C911697A6
:202F400017964C931797215011972111F6CF8E569D4FDC013C93DF01A05FBC4F9C91892FDC
:202F6000880F97FDB8C08C93E85FFC4F9081892F880F97FDB2C0808369E08CEE93E00E94BC
:202F8000CB29882389F181E080930703E091D202F0E0CF01D3E0880F991FDA95E1F7DC018F
:202FA000AE56BD4F3C9127E011964C9111974D932150D1F78E569D4FDC0117963C93DF01DF
:202FC000A05FBC4F2C91822F90E09595879520FD86C08C93E85FFC4F2081822F90E09595C3
:202FE000879520FD7EC08083D0E0C0E001E01C2F40E06C2F8CEE93E00E94D6206C2F8CEE86
:2030000093E00E94CB29882309F444C0809100018F3F31F190E0DC0163E0AA0FBB1F6A95D7
:20302000E1F7AE56BD4FFE0173E0EE0FFF1F7A95E1F7EE56FD4F28E03D9131932150E1F7E1
:20304000FC01E05FFC4F2081FE01E05FFC4F2083885F9C4FFC018081FE01E85FFC4F8083B8
:20306000109339028091060381113DC0109204031092030310920503009306031093DC02B1
:203080001093D20241E0612F8CEE93E00E94D620009307032196C830D10509F0A8CF6BE0A6
:2030A0008CEE93E00E94CB29882319F081E080930703C091FC02CC2371F1809190029091F7
:2030C00091026091D20270E068177907E9F46770772740E001CF816046CF81604CCF80682D
:2030E00078CF806880CF809105038F3118F48F5F8093050380910503E82FF0E0E452FD4FE2
:20310000108380930303BECF68E070E00E947E3541E0682FE1CE41E08091D2028C1340E05D
:203120006C2F8CEE93E00E94D620CF5FC83099F795CD68E08CEE93E00E94BF29882309F4F0
:20314000F5C0D0E0C0E0C12CD12C7601C3941C2F6C2F8CEE93E00E94CB29882381F1E091BB
:20316000D202F0E0E85FFC4F2081D701C6010C2E04C0880F991FAA1FBB1F0A94D2F7422F11
:2031800050E00C2E02C0559547950A94E2F740FD13C0822B808310923602E091D202F0E017
:2031A000E85FFC4F408150E00C2E02C0559547950A94E2F741700CC080958223EBCF809151
:2031C0003602882351F341E0809117018C1340E0612F8CEE93E0EAD72196C830D10509F003
:2031E000B6CF6DE08CEE93E00E94CB298823A9F081E08093070380911701873018F48F5FDE
:2032000080931701E0911701F0E0EF56FE4F80818093180181E08093360269E08CEE93E089
:203220000E94CB298823A9F081E08093070380911701882319F0815080931701E0911701D4
:20324000F0E0EF56FE4F80818093180181E0809336026CE08CEE93E00E94BF29882361F173
:2032600080910703811128C08CEE93E00E948F2F00913B0210913C0220913D0230913E02CE
:20328000601B710B820B930B693572408105910598F0109281041092800460E08CEE93E09E
:2032A0007ED761E08CEE93E00E94DD2D81110E949C0481E0809307036CE08CEE93E00E94B2
:2032C000E829882309F4CACC8CEE93E00E948F2F00913B0210913C0220913D0230913E02B4
:2032E000601B710B820B930B683572408105910508F0B4CC109281041092800460E08CEEC2
:2033000093E04DD768E08CEE93E00E94B1228CEE93E00E94A42961E08CEE93E00E94112F00
:20332000882309F49BCC0E949C0498CC6CE08CEE93E00E94BF29882309F499C08CEE93E027
:203340000E948F2F00913B0210913C0220913D0230913E02601B710B820B930B693E7340F3
:203360008105910518F181E080936202F12CE12CD1E01E2DCE2D6E2D8CEE93E00E94CB2911
:20338000882331F080911E03982F9770E91699F06C2F8CEE93E00E94CB298823C1F089E2F4
:2033A00093E00E942401C0931E030DC01092620210926102DBCF885F8F7080931E0389E258
:2033C00093E00E9424010E949805D093070380916202882351F080916102811106C041E0B9
:2033E0006C2F8CEE93E0E2D611C080911E03883090F141E06C2F8CEE93E0D8D680911E03C8
:203400008850990B40E08E159F0551F3FFEFEF1AFF0A28E0E216F10409F0ABCF69E08CEE5A
:2034200093E00E94CB29882361F080917C0282FD1CC0846080937C020E94980581E0809375
:20344000070360917C0262FB662760F98CEE93E00E94E82803CC40E06C2F8CEE93E0A6D61E
:2034600080911E038113D2CFBACF8B7FE3CF6EE08CEE93E00E94CB298111F0CB6EE08CEEBA
:2034800093E00E94BF29882309F474C180917C02C82FC470D0E082FF19C1C0E011E06C2F61
:2034A0008CEE93E00E94CB29882341F0FE01E756FE4F808180930401109307032196C830AF
:2034C000D10569F709E911E0C0E0D8018D918D0141E090910401981340E06C2F8CEE93E014
:2034E00065D6CF5FC83089F769E08CEE93E00E94CB29811107C16DE08CEE93E00E94CB29F5
:20350000882351F181E080930703609176027091770280917802909179026A5B7F4F8F4FC5
:203520009F4F609376027093770280937802909379022091030130E050E040E00E9491350E
:2035400030931601209315011092240310922503109226031092270369E08CEE93E00E94C6
:20356000BF29882309F457C08CEE93E00E948F2F00914702109148022091490230914A0289
:20358000601B710B820B930B693C71058105910508F441C08CEE93E00E948F2F24E130E073
:2035A00040E050E00E949135672B682B692B99F58091760290917702A0917802B091790282
:2035C0008E339105A105B10558F04E97A109B1098093760290937702A0937802B093790215
:2035E0002091030130E050E040E0609176027091770280917802909179020E949135309381
:20360000160120931501109224031092250310922603109227036DE08CEE93E00E94BF29DC
:20362000882309F41BCB8CEE93E00E948F2F00913F02109140022091410230914202601B86
:20364000710B820B930B693C71058105910508F405CB8CEE93E00E948F2F24E130E040E03E
:2036600050E00E949135672B682B692B99F48091760290917702A0917802B09179024E96FE
:20368000A11DB11D8093760290937702A0937802B09379022091030130E050E040E0609106
:2036A00076027091770280917802909179020E94913530931601209315011092240310927B
:2036C00025031092260310922703C8CA11E06D2F8CEE93E00E94CB29882321F0D093010168
:2036E00010930703DF5FD83091F741E0809101018C1340E06C2F8CEE93E058D5CF5FC83081
:20370000A1F7F2CE81E0809307038091760290917702A0917802B091790286369105A10551
:20372000B10560F086549109A109B1098093760290937702A0937802B09379022091030164
:2037400030E050E040E0609176027091770280917802909179020E9491353093160120930A
:20376000150110922403109225031092260310922703C1CE69E08CEE93E00E94BF2988230F
:20378000F1F0C0E0D1E06C2F8CEE93E00E94CB29882321F0C0931F03D0930703CF5FC83015
:2037A00091F7C0E041E080911F038C1340E06C2F8CEE93E0FBD4CF5FC830A1F74FCA6DE053
:2037C0008CEE93E00E94BF29882379F0C0E06C2F8CEE93E00E94BF29482F6C2F8CEE93E0AD
:2037E000E5D4CF5FC83099F739CA8091FC028E3009F460C08091FC02D0E0C0E0882309F466
:203800008BC04091900290919102842F68E070E00E947E35682FE091D202F0E0E05FFC4F70
:20382000208130E002C0359527954A95E2F740E020FF41E08CEE93E0B9D4D0E0C0E0C12CC0
:20384000D12C7601C3946C2F8CEE93E00E94CB29882359F1E091D202F0E0E05FFC4F20814A
:203860006C2FD701C6010C2E04C0880F991FAA1FBB1F0A94D2F7422F50E00C2E02C0559530
:2038800047950A94E2F740FD5EC0282B208340913802208130E002C0359527956A95E2F7A8
:2038A00020FF55C0842B809338022196C830D10551F6D4C9D0E0C0E0C12CD12C7601C39467
:2038C0006C2F8CEE93E00E94BF298823E9F0D701C6010C2E04C0880F991FAA1FBB1F0A9425
:2038E000D2F7E091D202F0E0E05FFC4F40812091380230E00C2E02C0359527950A94E2F7AB
:2039000020FF07C0842B80832196C830D105C1F671CF80958423F7CFE091D202F0E0E05FBD
:20392000FC4F408150E00C2E02C0559547950A94E2F741706C2F8CEE93E038D42196C8301E
:20394000D10551F77ACF382F309523239FCF80958423A9CF109219011ACA6AE08CEE93E015
:203960000E94BF29882309F453CA81E08093D302C091FC02CC23B1F0809190029091910279
:2039800068E070E00E947E352091D20240E02817190609F041E0682F8CEE93E007D410921C
:2039A000FC0238CA41E08091D2028C1340E06C2F8CEE93E0FBD3CF5FC830A1F72BCA6AE0EF
:2039C0008CEE93E00E94CB29882309F42ACA8091D302882309F433CA60E08CEE93E075D4C7
:2039E00062E08CEE93E071D4E091D20258E0E59FF0011124EE56FD4F809190029091910245
:203A0000E80FF91F80918C0290918D029695879596958795808313CA6AE08CEE93E00E9401
:203A2000E829882309F412CA1092D30260E08CEE93E05FD480E092E09093D6028093D50263
:203A400062E08CEE93E055D41092DA021092D902C0E0D1E06C2F8CEE93E00E94BF2981111E
:203A6000D0E0CF5FC031B1F7DD23B9F01092070310928B0210926202109282021092360245
:203A80008FEF809300018091FF02882331F080910003809301031092FF02DF91CF911F9168
:203AA0000F91FF90EF90DF90CF900895AF92BF92CF92DF92EF92FF920F931F93CF938CEE47
:203AC00093E00E9424298CEE93E00E94032A8CEE93E0B4D482EB93E00E94D80E6BE08CEE26
:203AE00093E00E94BF2961E0811109C06AE08CEE93E00E94BF29882309F4B6C060E08CEE94
:203B000093E0A0D3BC0190E080E01F921F921F921F9237E0A32EB12CC12CD12CEE24EA942F
:203B200013E0F12E00E010E020E030E0A9010E94C7338CEE93E04CD50F900F900F900F90C3
:203B40008CEE93E053D3482F60E08CEE93E00E9404298CEE93E00E94E02A482F61E08CEE14
:203B600093E00E9404298CEE93E00E941D29682F8CEE93E00E94E82860917A048CEE93E09C
:203B80000E94DD2862E08CEE93E05CD3AC01440F551F440F551F60E08CEE93E0E4D360E0C1
:203BA0008CEE93E04FD3AC01440F551F440F551F61E08CEE93E0D7D36EE08CEE93E00E9406
:203BC000BF29682F8CEE93E0EAD28CEE93E00E94982F28EC30E040E050E00E949135672BF9
:203BE000682B692B31F48091DB0291E089278093DB026091DB028CEE93E00E94BC28609148
:203C0000DB028CEE93E00E94C7286091DB028CEE93E00E94B6286091DB028CEE93E00E94B1
:203C2000D2286DE08CEE93E00E94CB2961E0811101C060E08CEE93E00E94F32869E08CEE79
:203C400093E00E94CB2961E0811101C060E08CEE93E0CF911F910F91FF90EF90DF90CF900E
:203C6000BF90AF900C94FE2868E08CEE93E00E94BF2962E0811143CF69E08CEE93E00E9473
:203C8000BF2964E0811109C06DE08CEE93E00E94BF29C0E0882381F063E08CEE93E0D2D249
:203CA000BC0190E080E01F921F921F9227E02F93A12CB12C650132CF80916002882349F033
:203CC00041E06C2F8CEE93E071D2CF5FC830A1F737CF6CE08CEE93E00E94BF298111F0CF20
:203CE0006C2F8CEE93E00E94BF29482FEACFCF9326E042E15AE760E070E08091E903909108
:203D0000EA030E94CA311092E2031092E1031092E0031092DF031092E8031092E40310924B
:203D2000E3031092E5031092E60383E08093D8031092D9031092DA031092DB0381EB95E0D9
:203D40009093B5038093B40380E794E09093B3038093B20387EE96E09093CB038093CA0386
:203D600088EE97E09093CD038093CC0382E694E09093D1038093D00388E694E09093CF03F1
:203D80008093CE0340EB57E06AE977E08CEE93E00E9427288CEE93E06CD560E08CEE93E0FA
:203DA000FED160E08CEE93E00E94F32860E08CEE93E00E94FE28C0E02FEF80E792E021504D
:203DC00080409040E1F700C000006C2F8CEE93E0C8D38CEE93E00E942429CF5FC43161F741
:203DE00069E08CEE93E00E94BF29882379F06DE08CEE93E00E94BF29882341F06EE08CEE87
:203E000093E00E94BF2981110E94B8140E9439156BE08CEE93E00E94BF29811156C089E2E0
:203E200093E00E943F0162E089E293E00E941E0142E361E08CEE93E00E945727C0E040E019
:203E40006C2F8CEE93E0B2D1CF5FC830C1F7C0E00E941B102FEF80E792E021508040904014
:203E6000E1F700C0000041E0C0FD40E061E08CEE93E09CD1CF5FC53159F780E092E09093A8
:203E8000D6028093D50242E361E08CEE93E00E9457270E941B100E941B108CEE93E03CD258
:203EA00061E08CEE93E011D2E0916602E0938102F0E0EE0FFF1FEB5FFE4F8081918190936A
:203EC000FE028093FD02CF91089568E08CEE93E00E94BF29882309F4A2CF8CEE93E00E946C
:203EE0006C2A0E941805109281041092800460E08CEE93E054D161E08CEE93E00E94DD2DF4
:203F000081110E949C04D2DDFECFCF930E94680C8091890290918A02019690938A02809337
:203F2000890280912803882341F0109228038CEE93E084D28CEE93E081D20E941B10E09150
:203F40008102F0E0EE0FFF1FEB5FFE4F80819181892B09F069C01092880263E08CEE93E017
:203F600071D120E032E0281B390BA091D902B091DA020E94D53520E032E040E050E00E948D
:203F8000B335209384023093850240938602509387020E94EC0880912803882341F010929F
:203FA00028038CEE93E04AD28CEE93E047D280917B02882309F43CC04091630280E2489F16
:203FC000A001112460E08CEE93E0CDD110924F0610924E068CE08093A00480912803882349
:203FE00041F0109228038CEE93E028D28CEE93E025D2C0917A04CC2371F0809137028111FD
:204000000AC0109291021092900210928F0210928E020E943306C09337020E943E1582EB3F
:2040200093E0CF910C94D80E81E08093880295CF0E947308CBCF0F93E2EBF3E08BE596E0E6
:2040400090AF87AB11821082138212821582148217821682118610861386128615861486B0
:2040600017861686118A108A138A128A158A148A178A168A118E108E138E128E158E148E58
:20408000178E168E11A210A213A212A215A214A20EE128E533E046E753E064E973E089E222
:2040A00093E00E94AD000F9108950895089581E008952D9A2D980895289A289808958823D6
:2040C00011F02B9A08952B9808950F931F93CF93DF93082F10E0611115C0D0E0C0E0C8016E
:2040E0000C2E02C0959587950A94E2F78170E7DFE0DF2196C830D10591F7DF91CF911F9104
:204100000F910895C7E0D0E0C8010C2E02C0959587950A94E2F78170D2DFCBDF2197A0F7EE
:20412000ECCF80E480937C00EAE7F0E080E880838081876080830895ECE7F0E09081907782
:2041400090839081982B908321E030E001C0220F8A95EAF720937E000895EAE7F0E08081F2
:2041600080648083089580917A00829581700895809178009091790008958EBD00000DB4BF
:2041800007FEFDCF8EB5089570E06E5A7F4F660F771F860F971FFC01518340830895579A10
:2041A000662311F05F9A08955F9808950F931F93DC01A853BF4F8C91E62FF0E0EC5EFD4F79
:2041C000908101E010E020E030E004C0000F111F221F331F9A95D2F7442329F0082B0C930D
:2041E0001F910F91089500950823F9CF89B182FB882780F991E0892708958B539F4FDC0104
:20420000ED91FC91309709F00994089570E0660F771F860F971FFC01E453FF4F8A529F4FA7
:2042200020813181FC0180819181281B390B37FF03C031952195310981E02B3031050CF4F3
:2042400080E0089570E06A597F4F660F771F860F971FFC0180819181089570E065597F4FA1
:20426000660F771F860F971FFC0180819181089570E0FB013B9623E0EE0FFF1F2A95E1F769
:20428000E80FF91F33E0660F771F3A95E1F7860F971FDC01A65ABF4F208131814D915C91F6
:2042A000240F351FFC01E45AFF4F40815181240F351F825A9F4FFC0180819181820F931FB7
:2042C00096958795969587950895262FFC01EE56FF4F41E050E060E070E004C0440F551F63
:2042E000661F771F2A95D2F740958081482340830895262FFC01EE56FF4F41E050E060E005
:2043000070E004C0440F551F661F771F2A95D2F79081942B908308958E569F4F2FEFFC01B2
:20432000208308958E569F4FFC01808190E002C0959587956A95E2F781700895FC011092F0
:204340006D0090916D00613039F4946090936D001092EB0366830895986090936D0081E021
:204360008093EB03F7CF623088F5411520E1520768F570E0660F771F9C01260F371FF901DD
:20438000E851FF4F51834083389780819181841B950B97FF03C091958195910944E0880FF4
:2043A000991F4A95E1F7F901E456FF4F608171810E946A35CB0154E0969587955A95E1F7EA
:2043C000EC5AFF4F892B19F0718360830895605F7F4FFACF262F30E0220F331F280F391F4B
:2043E000F901E456FF4F51834083D901A052BF4FE45BFF4F8D919C9160817181861B970BDC
:2044000097FF03C091958195910964E0880F991F6A95E1F7BA010E946A35CB01E4E096954C
:204420008795EA95E1F7F901E051FF4F892B19F0718360830895605F7F4FFACFCF92DF9237
:20444000EF92FF920F931F93CF93DF936C0121ECC20ED11CE601288130E0220F331F280F91
:20446000391FF901E052FF4F40815181D901A851BF4F6D917C9146175707E1F0DA01A61BC3
:20448000B70BB7FF03C0B195A195B1096417750708F050C020513F4FE90128813981D4E0AC
:2044A00036952795DA95E1F72A173B0708F43DC071836083008111817C01D2ECED0EF11C85
:2044C000F701408180E090E840FD02C090E080E0413039F44FEF5FE09A01201B310B8901C5
:2044E00090621F70082B192B10610E94B6308CB5837F8CBD2A98812F40DE802F3EDE2A9A20
:204500000E94E830E70188818F5F823040F58883E7018881F6018083DF91CF911F910F9105
:20452000FF90EF90DF90CF900895421B530B51834083C0CF4617570708F0BCCF20513F4FE4
:20454000E90128813981C4E036952795CA95E1F72A173B0708F0ACCF420F531FE8CF1882A2
:20456000D7CFCF92DF92EF92FF92CF93DF93E62FDC01A853BF4F8C91C4E1D2E02CE132E04F
:2045800041E050E060E070E099916A017B0104C0CC0CDD1CEE1CFF1C9A95D2F78C292C177F
:2045A0003D0791F7E770F0E0EC5EFD4F908104C0440F551F661F771F9A95D2F74095482383
:2045C0004C93DF91CF91FF90EF90DF90CF900895CF92DF92EF92FF920F931F93DC01A853A3
:2045E000BF4F9C91E4E1F2E04CE152E001E010E020E030E081916801790104C0CC0CDD1C1F
:20460000EE1CFF1C8A95D2F7C0949C214E175F0789F76770E62FF0E0EC5EFD4F808104C01A
:20462000000F111F221F331F8A95D2F7902B9C931F910F91FF90EF90DF90CF900895DF929C
:20464000EF92FF920F931F93CF93DF93EC01D62E64E00EDEFC01892B11F4E1E0F0E0ED2C9F
:20466000F12CCE0128E1D29E800D911D1124DC01A850BF4F0D911C9186509F4FDC018D9178
:204680009C919801281B390BC90166E070E00E946A35669570E0C801860F971F9801261BF3
:2046A000370BE217F30768F08E179F0708F09AC0C801880F991FBC016E1B7F0BFB0141E0CB
:2046C00004C040E08E179F0798F388E18E9DD0018F9DB00D1124AC0FBD1FA45FBE4F2D9138
:2046E0003C912F5F3F4FE217F30728F09801E017F10708F49F01FE0178E1D79EE00DF11DDA
:204700001124E850FF4F10E0819191918217930728F0808191818217930718F01F5F1B3058
:2047200099F75CE05E9DC0015F9D900D1124810F911DFC01E458FF4FEE0FFF1FEC0FFD1F2C
:204740000190F081E02D83589F4F880F991FC80FD91F88819981DF01A81BB90BCD0166E0C5
:2047600070E00E946A357727DF0180E02A173B0728F48F5FA61BB70B8730C1F72E1B3F0BB8
:20478000869FD001879FB00D1124F901EA1BFB0BF7FF03C0F195E195F1096A0F7B1F261B03
:2047A000370B37FF03C03195219531092E173F070CF48F5F90E0B6E01B9F800D911D11245F
:2047C0008D33910514F08CE390E0442319F0919581959109DF91CF911F910F91FF90EF902C
:2047E000DF90089540E090E080E0EACFCF93DF93623070F5411520E1520750F5262F30E0DF
:204800002C583F4F220F331F820F931FFC0151834083611114C0D0E0C0E0C42BD52BD06176
:204820000E94B6302A988CB5837F8CBD8D2FA5DC8C2FA3DC2A9ADF91CF910C94E8308FEF61
:204840009FE09C01241B350BA901C0E0D0EAE5CFDF91CF910895CF93DF93EC0150E040E087
:2048600060E0C4DF50E040E061E0CE01DF91CF91BDCF2F923F924F925F926F927F928F9202
:204880009F92AF92BF92CF92DF92EF92FF920F931F93CF93DF93EC01DEDF98EFC92E91E0B0
:2048A000D92E8E0104581E4F2AE0A22E22E0B22E3E012AE7621A2EEF720A7801180144247E
:2048C0004A943FE0532EF601819191916F01F701819391937F01F501819191915F01A201E2
:2048E000481B590B61E0CE0181DFF701529142914F0160E0CE017ADF8FE19EE40197F1F7A9
:2049000000C00000F40180819181199913C001968115F0E19F0750F4F40191838083F40161
:204920004081518160E0CE0161DFECCFF40111821082F5CF019791838083E614F70409F05F
:20494000C2CFFE01EC57FE4F30E020E0D8010E5F1F4F12968D919C9113974D915C91841B6C
:20496000950B280F391FE017F10781F7369527953695279580819181820F931FF301918335
:204980008083820F931FFE01E857FE4F918380833296820F931F91838083F101CE58DE4FC8
:2049A00080819181821B930B97FD1EC0811540E1940714F08FEF9FE092938293CE17DF07DF
:2049C00079F7DF91CF911F910F91FF90EF90DF90CF90BF90AF909F908F907F906F905F9092
:2049E0004F903F902F90089590E080E0E5CFCF93DF939C01E62FF0E0DF01AA0FBB1FA20FAF
:204A0000B31FA95BBF4F8D919C911197840F951F8D939C93D9018EE1689FA00DB11D112429
:204A2000A651BE4F9EE081E06D917D91640F751F6115710579F0ED012297798368839150BC
:204A400099F7E20FF31FE859FD4F91E09083DF91CF91089580E0F3CFCF93DF9370E0FC0102
:204A6000E60FF71FDF01AB54BF4F2C9130E02F5F3F4F5CE0529FD001539FB00D1124EC0186
:204A8000CC56DF4F0990D881C02D5C9F90015D9F300D1124605D7E4F660F771F680F791F49
:204AA000EB0188819981820F931F840F911D8A179B075CF0E15BFF4F20812A0F3B2F311DB8
:204AC0008217930724F00C97FBCF0C96F0CF8A1BDF91CF9108950F931F93CF93DF939C01EA
:204AE000C62F842F66E00E945E35D92FAC2FB0E090E0AC014F5F5F4FF901EA0FFB1FE85959
:204B0000FD4F60816623B9F16FE06A9FF0016B9FF00D1124DF01A80FB91FAC50BF4FAA0F7E
:204B2000BB1FA20FB31F0D911C91E40FF51FEC50FF4FEE0FFF1FE20FF31F80819181801B70
:204B4000910B66E070E00E946A35D69FA001D79F500D1124400F511F57FD24C0411580E116
:204B6000580714F04FEF5FE06C2FC901DF91CF911F910F91F8CBEFE0EA9FB001EB9F700DFD
:204B80001124FB01E80FF91FE854FF4FEE0FFF1FE20FF31F00811181FB01E40FF51FE854DB
:204BA000FF4FC7CF50E040E0DFCF2F923F924F925F926F927F928F929F92AF92BF92CF9258
:204BC000DF92EF92FF920F931F93CF93DF93CDB7DEB72C970FB6F894DEBF0FBECDBF2C01DA
:204BE00069874A87842F66E00E945E35392E2985822E912CA82FB0E0BD016F5F7F4FF20190
:204C0000E80DF91DE859FD4F2081222309F435C12FE0289DF001299DF00D1124AE0FBF1FCB
:204C2000AC50BF4FAA0FBB1FA40DB51D6D907C90E60FF71FEC50FF4FEE0FFF1FE40DF51D98
:204C4000808191818619970966E070E00E946A357C876B87880C991C840C951C34EA830EFD
:204C6000911CD4016D917C91161617060CF01CC1072E000C880B990BF201EC54FF4F2081EB
:204C8000EB85FC852E9F80012F9F100D1124012E000C220B330B3F932F931F930F93A12C5A
:204CA000B12C6501E12C10E2F12E00E010E020E030E0A9010E94C7330F900F900F900F90F1
:204CC000D4018D919C9197FF27C0F201EC54FF4F2081EB85FC852E9F50012F9FB00C112447
:204CE000B194A194B1080B2C000CCC08DD08BC01990F880B990B1F921F921F921F92E12C18
:204D0000F12C870120E030EE4FEF5FEF0E94C7330F900F900F900F90660D771D2B853C85B4
:204D2000329EA001339E500D11241B01240E351EC101032C000CAA0BBB0B8D839E83AF8323
:204D4000B887032E000C440B550B29833A834B835C836B847C84719461947108072C000C71
:204D6000880899088A856CE00E945E35492F50E0465E5E4F5C874B87DA016C9170E090E02C
:204D800080E0BC81BF93EB81EF933F932F9364015301E12CF12C8701EA9420E030E0A901FF
:204DA0000E94C7332D813E814F815885620F731F841F951F0F900F900F900F9050E040E017
:204DC00097FD40C0AB85BC856C9170E090E080E0BC81BF93EB81EF93FA81FF9329812F93BB
:204DE00020E030E0A9010E94C7332D813E814F815885620F731F841F951F0F900F900F900C
:204E00000F904FEF5FE06115704181059105D4F4AB85BC856C9170E090E080E0BC81BF934E
:204E2000EB81EF93FA81FF9329812F9320E030E0A9010E94C733A101460F571F0F900F900A
:204E40000F900F906985C2012C960FB6F894DEBF0FBECDBFDF91CF911F910F91FF90EF902C
:204E6000DF90CF90BF90AF909F908F907F906F905F904F903F902F9076CA4FE0489D900139
:204E8000499D300D1124F901EA0FFB1FE854FF4FEE0FFF1FE40DF51D60807180F901E60F45
:204EA000F71FE854FF4FC8CE70E060E009CFFF920F931F93CF93DF938C01F62EEC01C60F28
:204EC000D11DFE01E455FF4F4083C6DDC055DF4F8883482F6F2DC801DF91CF911F910F91AE
:204EE000FF9063CECF92DF92EF92FF920F931F93CF93DF93FC011482128281E085831382C1
:204F0000DB01CA010197A109B1098B3A9E4EA105B10508F069C02CEA3EEEA7E4B7E7828152
:204F2000C82F6901082E02C0D694C7940A94E2F7F12CE12C4C155D056E057F0570F46D0126
:204F4000082E02C0D694C7940A94E2F7F12CE12C4C155D056E057F0518F48F5F8283DFCF8C
:204F60008481282F30E0D901AA0FBB1FAE52BE4F0D911C910C2E02C0169507950A94E2F746
:204F80006801F12CE12C4C155D056E057F05A8F4220F331FD901AC52BE4F2D913C910C2EFB
:204FA00002C0369527950A94E2F76901F12CE12C4C155D056E057F0518F48F5F8483D0CF43
:204FC000D801A21BB30B9D0136952795021B130B30E020E0041715072607370718F08F5F75
:204FE0008483158281E001C080E0DF91CF911F910F91FF90EF90DF90CF900895CF93DF9324
:20500000FC01E257FE4FA4EBB1E030E020E0219331934D915D91EF01CA58DF4F59834883B2
:20502000235F3E4F233C4FE0340789F7FC01E759FD4F21E02083E951F24025E520838E59EB
:205040009D4FFC0111821082DF91CF910895CF92DF92EF92FF920F931F93CF93DF93EC01DC
:205060006B017A01CBDFFE01E15BFF4F84E58083EA59FF4F1082E556F10980838E010A5462
:205080001F4FF8011082E556F1098083EA59FF4F1082E556F1098083EA59FF4F1082F894D5
:2050A00056985E9A55985D9A3B98439852985A9821982998549A5C983D98459A53985B9AAC
:2050C000229A2A98579A5F98399A41983D96D182C082E054F109F182E082E0E7F0E08081BB
:2050E0008D7F808310821092B100E8E6F0E01082808184608083808182608083ECE6F0E01C
:2051000010828081886080836FEFCE0117D910926D006FEFCE0112D9EFE6F0E01082808195
:20512000816080831092800082E0809381007894239A259A209A2D982898FE01E759FD4F21
:2051400081E08083F80110820E949120C054DF4F188286E00E949C20DF91CF911F910F914D
:20516000FF90EF90DF90CF900C94AD20662311F05C9A08955C980895FC01E753FF4F9081A2
:20518000662319F09460908308959B7FFCCFFC01E753FF4F9081662319F09061908308952B
:2051A0009F7EFCCFFC01E753FF4F9081662319F09160908308959E7FFCCFFC01E753FF4FD1
:2051C0009081662319F09062908308959F7DFCCFFC01E753FF4F9081662319F09260908376
:2051E00008959D7FFCCFFC01E753FF4F9081662319F0986090830895977FFCCF662311F0F0
:20520000419A08954198089561110BC0FC01E753FF4F8081442319F08064808308958F7BDF
:20522000FCCF6130D9F7FC01E753FF4F8081442311F08068F2CF8F77F0CF86B183FB882782
:2052400080F991E0892708950F931F93CF93DF939C0186B1F901E257FF4F85FB882780F9F2
:2052600091E089278083BB9640815181D901A554BF4F4D935C93E901C457DF4F6881062F25
:2052800010E081E090E0A0E0B0E0062E04C0880F991FAA1FBB1F0A94D2F74E9947C0842B4F
:2052A000952B9183808340815181085F1F4F81E090E0A0E0B0E004C0880F991FAA1FBB1F18
:2052C0000A95D2F74D9939C0842B952B918380836F5F6770688381E090E0A0E0B0E004C0CC
:2052E000880F991FAA1FBB1F6A95D2F7C82FC095F901E853FF4FD08131968081E257F109D9
:2053000090819F5F9531F0F4908361E00E94652061E08D2F0E94652061E08C2F0E94652012
:20532000DF91CF911F910F910C945C20809590954823592351834083B6CF80959095842313
:205340009523C4CF1082E1CFCF93DF93EC01FC01E753FF4F61E080810E946520FE01E853D7
:20536000FF4F61E080810E946520C953DF4F61E088810E946520DF91CF910C945C208754F4
:205380009F4FFC018081918102C0969587956A95E2F781700895FC01E754FF4F20813181C7
:2053A000062E02C0369527950A94E2F720FF0EC085549F4FFC018081918102C0969587952C
:2053C0006A95E2F7F1E08F278170089580E00895FC01E754FF4F20813181062E02C0369549
:2053E00027950A94E2F720FD0CC085549F4FFC018081918102C0969587956A95E2F78170E8
:20540000089580E00895EF92FF920F931F93CF93DF93EC010E94B320882309F456C08E0109
:2054200000541F4FD801EC90F12CEE0CFF1CEC0EFD1EF701EA52FF4FBCECEB0EF11CD70106
:205440008D919C91918380830E94B820F70191838083D8012C91822F90E0DE01A80FB91F3C
:20546000A058BF4FEC91EF5FEC93E370AC01440F551F440F551FE40FF52FF11DBC96EE0FDA
:20548000FF1FEC0FFD1F8A599F4F880F991FC80FD91F88819981918380832F5F253090F447
:2054A000F8012083D801EC91F0E0E45EFD4F80810E949C20DF91CF911F910F91FF90EF900F
:2054C0000C94AD20D8011C92EDCFDF91CF911F910F91FF90EF900895CF92DF92FF920F934C
:2054E0001F93CF93DF93EC018C0108501F4F6C014AEFC41A4EEFD40AF801EC57FF4F4081FC
:20550000518160E0CE0172D98FE39CE90197F1F700C000008EE1F82ECE0175DFEFE9FFE0B9
:205520003197F1F700C00000FA94F110F5CF64E0CE010E943821F801819391938F01EC15D8
:20554000FD05D1F6DE01AE5FBE4FFE01EC5FFE4F2D913C9180819181281B390BC25FDE4F7F
:2055600081919191821B930B97FD13C0893E43E0940714F088EE93E091838083CE17DF0701
:2055800079F7DF91CF911F910F91FF90DF90CF90089590E080E0F0CF8F938FB78F939F9336
:2055A000EF93FF93ECEEF3E084AD95AD019695AF84AFFF91EF919F918F918FBF8F9118952E
:2055C00029B123FB222720F931E0232781579F4FFC012083822F0895CF92DF92EF92FF927E
:2055E000CF93DF93EC0160918400809185000E9429346C01F12CE12C6CAD7DAD90E080E036
:20560000CB01772766276C297D298E299F29DF91CF91FF90EF90DF90CF900895CF92DF92BE
:20562000EF92FF92CF93DF93EC0181E08EAF1B8A188E198E1A8E1B8ECE01CEDF6B017C0151
:2056400080E09B89911111C0811124C0CE01C4DFAB01BC014C195D096E097F0981E0413A5C
:2056600056486140710568F7EBCF9B89977091F0811110C0CE01B0DFAB01BC014C195D09BC
:205680006E097F0981E0413055436C40710568F780E0EBCF9B899770913091F0811110C037
:2056A000CE019ADFAB01BC014C195D096E097F0981E0413055436C40710560F780E0EACF73
:2056C0009B899770923091F0811110C0CE0184DFAB01BC014C195D096E097F0981E04130C3
:2056E00055436C40710560F780E0EACF9B899770933091F0811110C0CE016EDFAB01BC012A
:205700004C195D096E097F0981E0413055436C40710560F780E0EACF1EAE91E08927DF9166
:20572000CF91FF90EF90DF90CF9008951F93CF93DF93EC0161E00E949E21CE016FDF182F17
:205740006FEFCE010E949E2160E070E0CB01112321F06C897D898E899F89DF91CF911F9160
:2057600008952F923F924F925F926F927F928F929F92AF92BF92CF92DF92EF92FF920F93AC
:205780001F93CF93DF93CDB7DEB728970FB6F894DEBF0FBECDBF98878F83062F69017A0119
:2057A000BA01A9019FDB802F90E02F813885280F391FF901E859FD4F4081442309F46CC017
:2057C000FC01EC58FF4FEE0FFF1F2F813885E20FF31F408151815A83498349815A81602F3F
:2057E0008F81988503D8602F8F8198859FDF4B015C01C701B60128E730E040E050E00E942E
:205800009135712C10E0612C512C412C8C149D04AE04BF0409F4C8C0A90170E060E0D50173
:20582000C4018C199D09AE09BF09481759076A077B0708F0B9C063948C149D04AE04BF0409
:2058400030F481149104A104B10409F05DC0F4E04F0E511C111102C0739411E037E963127B
:205860005CC090E080E028960FB6F894DEBF0FBECDBFDF91CF911F910F91FF90EF90DF909A
:20588000CF90BF90AF909F908F907F906F905F904F903F902F900895AF81B88512964C91D4
:2058A00012972B543F4FF9012081642F621B770B9B016CE0629FA001639F500D112414963D
:2058C000EC911497E40FF52FF11D880F991F9D01280F391FD901DF968D919C916CE070E0C9
:2058E0000E946A35E69FA001E79F500DF69F500D1124295B3F4FD9018D919C91FA01E80F0E
:20590000F91FFA83E98369CF24E0421A5108112309F4A4CF739410E0A1CF48E0471508F40A
:2059200043C049815A81440D551D602F8F8198850E94F623662D67708F8198850E94B12279
:205940008F81988501DD602F8F819885EFDE4B015C0128E730E040E050E00E94913556CF0E
:20596000C701B6012CE231E040E050E00E9491352230310560F4C701B60120E930E040E03D
:2059800050E00E9491352230310508F46ACF89819A81840D951D67CF41E0441A5108112308
:2059A000C9F1339410E036C0C701B60128E532E040E050E00E9491352230310588F287E9B8
:2059C000282E312CDA01C901AA27BB278B839C83AD83BE838C149D04AE04BF04C1F2D501DF
:2059E000C4018C199D09AE09BF092B813C814D815E81281739074A075B0748F68C149D0451
:205A0000AE04BF0448F23FEF431A530A111102C0339411E02A94222009F423CF49815A81BF
:205A2000440D551D68E0631508F4B1CF602F8F8198850E94F623602F8F81988577DE4B0193
:205A40005C01C8CFCF93DC01C62F842F9D01260F311DF901E15BFF4F90819417F8F06CE0D6
:205A60000E945E35E92FF0E0EE0FFF1FAF014E525E4F2B543F4FF9019081890F9927991FC9
:205A8000FA012081318102C0369527958A95E2F750E040E06C2FCD01CF9163CE90E080E05D
:205AA000CF9108958F929F92AF92BF92CF92DF92EF92FF920F931F93CF93DF93EC01862E58
:205AC000C62ED12CF601EC58FF4FEE0FFF1FE80FF91FA080B1808EE18C9D80018D9D100D71
:205AE0001124DE01A00FB11FA851BE4FF601EE0FFF1FEC0FFD1FE95BFF4F208131812D933F
:205B00003C93780102511E4F0C0F1D1F75E0972E692DCE010E94B1228CE08915C0F5F8017A
:205B200082819381009709F03EC093940E5F1F4FFFE09F12EDCF8EE0E81A8EEFF80AFE0184
:205B4000EE0DFF1D24E080819181880F991F42815381841B950B929382932150A1F7A50109
:205B6000682DCE010E94F623CC0DDD1DC859DD4F81E08883DF91CF911F910F91FF90EF904C
:205B8000DF90CF90BF90AF909F908F900895492D440F490D440F682DCE0154DF009709F421
:205BA000BECFF80107C0880F991F20813181821B930B4E9695838483B8CF3F924F925F928E
:205BC0006F927F928F929F92AF92BF92CF92DF92EF92FF920F931F93CF93DF93EC01362E72
:205BE000A62EB12C8C010A0D1B1DF801E859FD4F10828EE18A9D60018B9DD00C1124CC0EF6
:205C0000DD1E460122E1821A2EEF920AD4014D915C91CE010E94F623632DCE0187DD2B01D1
:205C20003C017501EE0CFF1CDE01AE0DBF1DDF96F601EE50FE4F80819181F40120813181D4
:205C4000821B930B8D939C93B301A201CE014AD9D82E8823C1F1DD24D39441145104610497
:205C6000710409F4D12C8A81F801EB54FF4F8083E256F1099CE0899F802D11248083CE0197
:205C80008E0D9F1D9C01295B3F4F4EE14A9DF0014B9DF00D1124EC0FFD1FE251FE4FCF96E1
:205CA000DC018D919C916CE070E014D78C81869FA001879F500D112480819181841B950B58
:205CC000F90191838083A30192015695479537952795632DCE0145DD4C0162E0CE010E94AC
:205CE000B1228114910409F44CC0DE01AE0DBF1DDF968EE18A9DF0018B9DF00D1124EC0FD7
:205D0000FD1FE251FE4F80819181881A990A8D929C925E01AE0CBF1CF501FF9680819181B0
:205D2000C2978F39974078F1D12CEC0EFD1EF701E95BFF4F808191810197803D974008F02F
:205D40005DC0DD2009F45AC0F801E15BFF4F8CE380832FE3E20EF11CD7010D911C91C80122
:205D60006CE070E0B7D68081869F9001879F300D1124200F311F2F3F3F4050F58F5F808309
:205D8000F2CFD12CC6CFDD2079F2F801EB54FF4F108227E4A20EB11CD5018D919C911197DF
:205DA000969587958D939C932CEA3EEE40E050E0632DCE01D6DC4C0160E0CE010E94B122D9
:205DC0008114910409F4B0CFF50191828082ADCF81508083632DCE01DF91CF911F910F9143
:205DE000FF90EF90DF90CF90BF90AF909F908F907F906F905F904F903F9054CE80E0DF914E
:205E0000CF911F910F91FF90EF90DF90CF90BF90AF909F908F907F906F905F904F903F906F
:205E200008956F927F928F929F92AF92BF92CF92DF92EF92FF920F931F93CF93DF937C0146
:205E4000062FC62FD0E06C01CC0EDD1EF601E859FD4F6080662009F453C0EC5BF1407080C4
:205E6000CC0FDD1FCE0DDF1D5E0184EAA80EB11CF5018080918011821082F601E055FF4F7E
:205E80001081143240F0812F6CE018D61C5DF4EF8F9F100D1124412F602FC7010E946B253C
:205EA000C851DF4F0990D881C02D412F602FC701C9DD0097F9F0AC014C1B5D0B602FC701FC
:205EC0000E94F724F50191828082472D602FC7010E945727862DDF91CF911F910F91FF90AD
:205EE000EF90DF90CF90BF90AF909F908F907F906F900895F601E859FD4F1082612CE2CF7A
:205F0000DF91CF911F910F91FF90EF90DF90CF90BF90AF909F908F907F906F904ECE5CDB48
:205F20002CE096958795779567952A95D1F7089553DB24E096958795779567952A95D1F7DA
:205F400008950F931F93CF93CFB7F89460918400809185007ED4AC01809128049091290447
:205F6000B0E0A0E0DC019927882770E060E0842B952BA62BB72B8093F7039093F803A093B5
:205F8000F903B093FA034A9966C04091FB035091FC036091FD037091FE03481759076A07EA
:205FA0007B0708F050C08C019D01041B150B260B370BB901A8014093F3035093F403609381
:205FC000F5037093F603E091FF03EF5FE093FF03E77014E0E19FF0011124E85FFB4F408352
:205FE00051836283738310920404109205041092060410920704E8E0F4E040E050E0BA019D
:206000000191119121913191400F511F621F731F24E0E832F207A1F7409304045093050490
:20602000609306047093070423E076956795579547952A95D1F7409300045093010460934A
:206040000204709303048093FB039093FC03A093FD03B093FE03CFBFCF911F910F910895AB
:206060008CEE93E0ADDA882329F0E0917104F0917204099408951F920F920FB60F921124E4
:206080002F933F934F935F936F937F938F939F93AF93BF93EF93FF938091EB03882391F05D
:2060A000DFDFFF91EF91BF91AF919F918F917F916F915F914F913F912F910F900FBE0F90B7
:2060C0001F9018953EDFEDCF339904C08CEE93E00C94FD2008951F920F920FB60F921124C7
:2060E0002F933F934F935F936F937F938F939F93AF93BF93EF93FF93E7DFFF91EF91BF9102
:20610000AF919F918F917F916F915F914F913F912F910F900FBE0F901F9018951F921FB692
:206120001F9211248F939F93AF93BF93EF93FF93E4E7F4E080819181A281B3810196A11D1F
:20614000B11D80839183A283B383FF91EF91BF91AF919F918F911F901FBE1F9018958EEAAF
:2061600091E09093ED038093EC030895CF93CFB7F89480915A06811123C0EAE9F0E08491EA
:20618000E6E8F0E09491E82FF0E0EE0FFF1FE255FF4FA591B491EC91E92319F461E08AE0F9
:2061A00051D461E08AE012D48CB580618CBD8CB580648CBD61E08DE009D461E08BE006D43F
:2061C00080915A068F5F80935A06CFBFCF9108959FB7F89480915A06811107C08CB58F7B6B
:2061E0008CBD109259069FBF0895815080935A068111F9CFF3CFFC01818D228D90E0805CF4
:206200009F4F821B91098F7399270895FC01918D828D981731F0828DE80FF11D858D90E06A
:2062200008958FEF9FEF0895FC01918D828D981761F0A28DAE0FBF2FB11D5D968C91928D17
:206240009F5F9F73928F90E008958FEF9FEF0895FC01538D448D252F30E0842F90E0821B85
:20626000930B541710F0CF960895019708958CE792E3892B41F080E090E0892B21F03CD16F
:2062800081110C9400000895FC01A48DA80FB92FB11DA35ABF4F2C91848D90E001968F73B2
:2062A0009927848FA689B7892C93A089B1898C9180648C93938D848D981306C00288F389B2
:2062C000E02D80818F7D80830895CF93DF93EC01888D8823B1F0AA89BB89E889F9898C915B
:2062E00085FD03C0808186FD0CC00FB607FCF7CF8C9185FFF2CF808185FFEDCFCE01C4DF66
:20630000EACFDF91CF910895EF92FF920F931F93CF93DF93EC01F62E81E0888F9B8D8C8D53
:20632000981316C0E889F989808185FF11C0EE89FF896083E889F98980818064808381E075
:2063400090E0DF91CF911F910F91FF90EF9008950B8D10E00F5F1F4F0F731127E02E8C8DBD
:206360008E110BC00FB607FCFACFE889F989808185FFF5CFCE0188DFF2CFEB8DEC0FFD2F50
:20638000F11DE35AFF4FF0820B8FEA89FB8980818062D4CFCF92DF92EF92FF921F93CF93E3
:2063A000DF93EC016A017B01122FE889F98982E08083C11481EED806E104F10499F060E039
:2063C00079E08DE390E0A7019601ABD321503109410951095695479537952795211580E192
:2063E000380790F0E889F989108260E874E88EE190E0A701960195D32150310941095109E0
:206400005695479537952795EC85FD853083EE85FF852083188EEC89FD891083EA89FB89C2
:20642000808180618083EA89FB89808188608083EA89FB89808180688083EA89FB898081B9
:206440008F7D8083DF91CF911F91FF90EF90DF90CF9008952F932FB72F938F939F93EF93F4
:20646000FF93E0916B06F0916C068081E0917106F091720682FD19C09081809174068F5FF1
:206480008F7320917506821741F0E0917406F0E0E55AF94F958F80937406FF91EF919F91D1
:2064A0008F912F912FBF2F9118958081F6CF1F920F920FB60F9211242F933F934F935F9386
:2064C0006F937F938F939F93AF93BF93EF93FF938BE596E0D9DEFF91EF91BF91AF919F913F
:2064E0008F917F916F915F914F913F912F910F900FBE0F901F9018958BE596E07CDE9C01C8
:2065000081E0232B09F480E00895EBE5F6E01382128288EE93E0A0E0B0E084839583A683C2
:20652000B78385E292E09183808385EC90E09587848784EC90E09787868780EC90E0918B26
:20654000808B81EC90E0938B828B82EC90E0958B848B86EC90E0978B868B118E128E138E26
:20656000148E0895CF92DF92EF92FF920F931F93CF93DF937C016A0110E000E00C151D05D5
:2065800081F0EB01D701ED91FC910190F081E02D6991C7010995892B21F00F5F1F4FBE01EC
:2065A000EDCFC801DF91CF911F910F91FF90EF90DF90CF900895CF93DF93EC01DB01AB2B4A
:2065C00081F0FB0101900020E9F73197AF01461B570BE881F9810280F381E02DDF91CF91CC
:2065E000099490E080E0DF91CF910895E4CF63E372E0E1CF0F931F93CF93DF93D82FC92F9F
:20660000DADF8C018D2F9C2FF2DF800F911FDF91CF911F910F9108956F927F928F929F927C
:20662000AF92BF92CF92DF92EF92FF920F931F93CF93DF93CDB7DEB7A1970FB6F894DEBF7D
:206640000FBECDBF3C01142F052F962E872E19A2223008F42AE05E0181E2A80EB11CC22E6C
:20666000D12CF12CE12C612F702F892D982DA701960157D2812F902FA92DB82D122F032F44
:20668000942E852E6A300CF5605DF50162935F018C159D05AE05BF0530F7BF01C3018BDF13
:2066A000A1960FB6F894DEBF0FBECDBFDF91CF911F910F91FF90EF90DF90CF90BF90AF90D2
:2066C0009F908F907F906F900895695CDECFF901EF2B41F4DC01ED91FC910190F081E02D0F
:2066E000642F099499CF9A01AB0170E060E0EFCF08951F920F920FB60F9211242F933F934F
:206700004F935F936F937F938F939F93AF93BF93EF93FF93E0912601F09127010995FF9126
:20672000EF91BF91AF919F918F917F916F915F914F913F912F910F900FBE0F901F90189522
:206740001F920F920FB60F9211242F933F934F935F936F937F938F939F93AF93BF93EF9366
:20676000FF93E0912801F09129010995FF91EF91BF91AF919F918F917F916F915F914F91D4
:206780003F912F910F900FBE0F901F9018954F925F926F927F928F929F92AF92BF92CF92D9
:2067A000DF92EF92FF920F931F93CF93DF93CDB7DEB728970FB6F894DEBF0FBECDBF698323
:2067C0007A838B839C8329013A01ED82FE820F8318878A2C9B2C560129813A814B815C8128
:2067E00024193509460957098B8D9C8DAD8DBE8D7C018D01E818F9080A091B09C801B701E5
:206800004ED12D813E814F8158852419350946095709A9D1DA01C901880D991DAA1DBB1D0C
:20682000BC01CD0128960FB6F894DEBF0FBECDBFDF91CF911F910F91FF90EF90DF90CF90CC
:20684000BF90AF909F908F907F906F905F904F900895982F862F0895089553D0FDDF0E948C
:20686000771EC7E3D1E30E94851F2097E1F3FFDCFACF1F921FB61F9211242F933F938F938E
:206880009F93AF93BF938091F9069091FA06A091FB06B091FC063091F80623E0230F2D3734
:2068A00050F50196A11DB11D2093F8068093F9069093FA06A093FB06B093FC068091FD06FD
:2068C0009091FE06A091FF06B09100070196A11DB11D8093FD069093FE06A093FF06B0933A
:2068E0000007BF91AF919F918F913F912F911F901FBE1F90189526E8230F0296A11DB11DD5
:20690000D3CF789484B5826084BD84B5816084BD85B5826085BD85B5816085BDEEE6F0E0B3
