:020000040000FA
:200000005EC000000C949E340C94C53480C000000C9490310C9460317AC000000C94B33127
:2000200076C0000074C0000072C0000070C000006EC000000C94F12B6AC0000068C00000B8
:200040000C945E3564C000000C944F330C947C335EC000005CC000005AC0000058C000006C
:2000600056C0000054C000000000000800020100000304070000000000000000010204082E
:200080001020408001020408102001020408102004040404040404040202020202020303C0
:2000A0000303030300000000250028002B0000000000240027002A004021D431AA331124CF
:2000C0001FBECFEFD8E0DEBFCDBF12E0A0E0B1E0EEE8FEE602C005900D92A633B107D9F790
:2000E00027E0A6E3B2E001C01D92A730B207E1F710E0CFE5D0E004C02197FE010E94F4366B
:20010000CC35D107C9F70E9452350C94353778CFCF93DF93FC0183A190E070E06817790716
:20012000CCF424A135A1AC0141505109D901A40FB51FAC91280F391FE901A88326A137A1EB
:20014000D901A40FB51FAC91820F931FEC01A883CA01E4CFDF91CF9108950F93FC0102A773
:2001600075A364A357A346A331A720A711A21182108281E082A313A2148A12820F9108955C
:200180000F931F93CF93DF93FC0180E093A1891708F531E0380F232F90E043A12417C0F41C
:2001A00044A155A18A01080F191FD8016C91C22FD0E04C0F5D1FDA014C91461738F4D80122
:2001C0004C93A4A1B5A1AC0FBD1F6C932F5FE5CF832FDCCFDF91CF911F910F9108950F9311
:2001E0001F93CF93DF93FC0180E09181891708F531E0380F232F90E041812417C0F440A5BD
:2002000051A58A01080F191FD8016C91C22FD0E04C0F5D1FDA014C91461738F4D8014C93C7
:20022000A0A5B1A5AC0FBD1F6C932F5FE5CF832FDCCFDF91CF911F910F910895FC0161A330
:200240000895FC0183A10895FC0190E080E022A52817190691F08CF0A4A1B5A1A80FB91F2A
:200260001C92A6A1B7A1A80FB91F1C92A0A5B1A5A80FB91F1C920196EACF13A20895CF9318
:20028000DF93FC01EC01659682A190E0DF015996009729F019928D939D930197F9CFCF01CA
:2002A000DF91CF91D1CFFC01862F642F81111FC050E083A184171506F1F0ECF084A195A1F6
:2002C0009A012F5F3F4FDC01A20FB31F6C91840F951FDC016C9366A177A1DB01A20FB31F69
:2002E0008C91460F571FDA018C93A901E2CF813011F4CF010DCF0895CF93DF93FC0161117F
:2003000011C050E0818184171506F1F0ECF0A0A5B1A5A40FB51F11968C9111978C934F5F0C
:200320005F4FF0CF613081F4818190E050E04817590754F4A0A5B1A5A80FB91FED012197D1
:2003400028812C930197F3CFDF91CF910895FC01218130E090E080E0821793074CF4A0A537
:20036000B1A5A80FB91F4C91461719F00196F4CF8FEF0895CF93DF93EC018981882359F021
:20038000CE01E5DF482F8F3F31F060E0CE01B4DF89818150898381E029819AA1291708F459
:2003A00080E0DF91CF910895FC0123A130E090E080E0821793074CF4A4A1B5A1A80FB91F32
:2003C0004C91461719F00196F4CF8FEF0895ECDF982F81E09F3F09F480E00895CF93DF93C6
:2003E000EC01E2DFEEA1FFA1E80FF11D8081DF91CF910895E62FE695E695E695E80FF92F08
:20040000F11D962F977041E050E060E070E004C0440F551F661F771F9A95D2F740958381AA
:200420004823438308951F93CF93DF93EC01162FA1DF898190E0E8A5F9A5009741F0E80F52
:20044000F91FDF0111972C9120830197F4CF89819AA5891710F48F5F89831083DF91CF91F7
:200460001F910895EF92FF920F931F93CF93DF93EC01162F8BA1813071F480E09AA5891742
:2004800038F4E8A5F9A5E80FF11D10828F5FF6CF19821C8A1A82612FCE01C5DF89A18230FF
:2004A00009F057C02AA18BA1FE017596281780F4AF0190E08FEF622F70E029130BC090E082
:2004C0002917A9F03191311301C0892F9F5FF8CF8FEFF5CFDA010D91AD01ACA1BDA1A60F36
:2004E000B71F3C91031301C0892F9F5FE6CF8F3FD1F4FE017996DF0120E0921749F04D91D6
:200500005D918417150611F008F0842F2F5FF5CF20E0921741F0419151918417150609F4F8
:20052000822F2F5FF6CF891768F490E0FC01EE0FFF1FEC0FFD1F2FEF30E0328F218FC80FA6
:20054000D91F1D8BDF91CF911F910F91FF90EF900895CE0115DECE0142DE9AA1FE01799636
:20056000DF0180E0981721F01D921D928F5FFACF99A1913009F061C02BA1211116C0998163
:20058000981700F3292F30E0DE015596A90141505109692F621B6817A8F6E8A5F9A5E40FA2
:2005A000F51F20812D939A01F1CF2817E0F0422F50E08E010B5E1F4FEE24EA94F12CBA01ED
:2005C00061507109922F941B981708F0BBCFACA1BDA1A60FB71F9C91D8019D938D01E192E2
:2005E000F192AB01ECCF90E04FEF50E041935193692F9F5F2913FACF292F30E0ECA1FDA14D
:20060000E20FF31FDE01559640E052915D93542F4F5F6513FACF498150E0421B530BE8A566
:20062000F9A5E40FF51F2B5E3F4FC20FD31F229129939F5F8913FBCF85CF911183CF2BA154
:20064000211114C09981981708F47CCFDE01559630E020E0281708F075CFE8A5F9A5E20F13
:20066000F31F90819D932F5F3F4FF4CF4FEF50E02817B8F0AE014B5E5F4F30E020E06FEF7F
:2006800070E0281708F05ECFACA1BDA1A20FB31F9C91DA019D93AD01619371932F5F3F4F7E
:2006A000F0CF419351939F5F2913FBCF2CA1DE015596E22FFDA131913D933E2F321B3917DD
:2006C000D0F3292F30E0E8A5F9A5E20FF31F2B5E3F4FC20FD31F219129939F5F8913FBCF15
:2006E00031CFFC0132A1432F50E020E0321769F0818D928D4817590728F0009719F00197AA
:20070000928F818F2F5F3296F1CF0895CF93DF93EC0189A1813001F1823081F0811176C07C
:200720009AA1FE017596DF012FEF981709F43FC03D91361301C0282F8F5FF7CF2AA1FE011E
:20074000759690E08FEF291709F44EC03191361301C0892F9F5FF7CF9AA1DE015596FD010A
:2007600080E02FEF981731F03191361301C0282F8F5FF8CF9BA1692F70E0281760F49B0100
:200780002150310940F04CA15DA1420F531FFA0140814D93F5CFFB01EE0FFF1F7996EC0F4F
:2007A000FD1F981798F5119211929F5FFACF9BA1281768F430E020E0291748F4ACA1BDA1C6
:2007C000A20FB31F4C9141932F5F3F4FF5CFE92FF0E0EE0FFF1F7996EC0FFD1F9817B0F489
:2007E000119211929F5FFACF821780F490E0422F50E03BA1321788F0ECA1FDA1E40FF51FFF
:20080000319720818C0F9D1FFC01258B8BA1811101C01882DF91CF910895880F991FFE0197
:20082000E80FF91F528F418FCE015BDFEFCF1F93CF93DF93EC01162F8BA1882359F0CE018A
:20084000B3DD482F8F3F31F060E0CE012CDD8BA181508BA3612FCE0159DF81E02BA19AA160
:20086000291708F480E0DF91CF911F9108950F931F93CF93DF93EC01162F042FD8DF612FEB
:20088000CE01B8DD60E0CE0143DC8BA19AA5891710F48F5F8BA3ECA1FDA11083EEA1FFA1AE
:2008A0000083612FCE01DF91CF911F910F91DACDFC01E60FF11D658991CDFC01E60FF11D43
:2008C000858908958091810282FD1092190108958091810282FF05C081E0809319011092F7
:2008E00008030895CF93C62F109265022091240330E02F5F3F4F8217130661F48FE293E001
:20090000A0DC6C2F8FE293E092DF60E08FE293E0CF91D3CFCF9108950C941F370C94273754
:20092000DC01ED91FC910190F081E02D0994DC01ED91FC910190F081E02D0994EF92FF927D
:200940000F931F93CF93DF936091420489EC93E0E5DF08EF15E0CAECD3E0F80160810E5FF0
:200960001F4FCE01DBDF7801F2E0EF1AF108F7016181CE010196D2DFF701608171814AE04D
:2009800050E081E696E00E9498346AE271E081E696E00E941B342296C83EF3E0DF07E9F61B
:2009A0006AE271E081E696E0DF91CF911F910F91FF90EF900C941F34EF92FF920F931F9336
:2009C000CF93DF9389EC93E0A7DF8093420408EF15E0CAECD3E0FF24F394CE019DDFE82E1C
:2009E000CE01019699DF6E2D0E944E35F801819391938F01F0925B064AE050E0BC0181E637
:200A000096E00E9498346AE271E081E696E00E941B342296C83EF3E0DF07F9F66AE271E084
:200A200081E696E0DF91CF911F910F91FF90EF900C941F340F931F93CF93DF930AEE14E0A4
:200A4000C8EED3E0F80160810E5F1F4FCE0166DFF80132976181CE01019660DF2296C1158D
:200A6000F4E0DF0779F7DF91CF911F910F910895FF920F931F93CF93DF930AEE14E0C8EE34
:200A8000D3E0CE0149DFF82ECE01019645DF6F2D0E944E35F801819391938F012296C115EC
:200AA000F4E0DF0771F7DF91CF911F910F91FF900895FF920F931F93CF93DF9309E711E02E
:200AC000C8EED3E0F8016081F1800E5F1F4FCE0125DF6F2DCE01019621DF2296C115F4E050
:200AE000DF0781F7DF91CF911F910F91FF90C0CF88EB93E011DF8093810288EB93E00CDF1D
:200B000091E0811101C090E0909380028BEB93E003DF91E0811101C090E090937F028CEBE2
:200B200093E0FADE8093040184EC93E0F5DE8093240308956091810288EB93E0EFDE6091AD
:200B4000800288EB93E0EADE60917F028BEB93E0E5DE609104018CEB93E0E0DE6091240391
:200B600084EC93E0DBCE1F93CF93DF93D82FC62F142F81E08093650290916702992371F0A2
:200B800090910D0391110AC0809366028FEF8D0F809324038FE293E057DBCCDF80912403F0
:200BA00090E00196D817190631F58FE293E049DB811104C010926A0210926902412F6C2F76
:200BC0008FE293E054DE80917F02209181028823B1F021FF0AC060E08FE293E06EDE482F1C
:200BE00061E082EF93E00E947C2860E08FE293E05FDE80936802DF91CF911F9108958C2FD4
:200C00006CE00E948336392F81E090E0A0E0B0E004C0880F991FAA1FBB1F3A95D2F74091C5
:200C2000690250916A02842B952B90936A028093690221FF04C09093030380930203D0E0AB
:200C4000C0E06C2F8FE293E0C2DB8111DC2FCF5FCF37B9F78D2F6CE00E9483368350990B7D
:200C60009093870480938604C6CF909109039923B9F080916402811105C080910A038F5F28
:200C800080930A0380910A03981710F410920A03E0910A03F0E0EF51FD4F80818093D702ED
:200CA00090910603992379F180916402811105C0809107038F5F8093070380910703981726
:200CC00010F0811102C010920703E0910703F0E0E559FD4F8081809386028FE293E0B1DA34
:200CE000811111C0E0918602F0E0EE0FFF1FEB5FFE4F808191819093030380930203109220
:200D00008704109286040895CF93DF938EE080930103C091D70280919002882349F0D0E0C5
:200D20006D2F82EF93E00E94E42ADF5FD830C1F78091D802882309F448C0809164028823C8
:200D4000E9F01092640288E0C89FF0011124E956FD4F8091950290919602E80FF91F8091B1
:200D60009102909192029695879596958795808381E080932E03DF91CF91089580919302E2
:200D80009091940287309105D4F401969093940280939302E091250388E0E89FF0011124E1
:200DA000E75CFE4F8091930290919402E80FF91F808190E09093960280939502C4CF10922C
:200DC00094021092930251DFE5CF8091D7028F3F79F280916402882319F010926402C8CF75
:200DE000809193029091940287309105D4F401969093940280939302E091250388E0E89F01
:200E0000F0011124E75CFE4F8091930290919402E80FF91F808190E09093960280939502DA
:200E2000A7CF10929402109293021FDFE5CF8091810282FF06C080916402882361F010922B
:200E4000640280915602909157020196909357028093560208956091040170E0809156027F
:200E6000909157020E948F36892B49F481E08093E00280911901882321F346DFE2CF1092E8
:200E8000E002DFCFE0910101F0E0EF55FE4F608170E00E948F36892B41F481E08093E00217
:200EA00080911901882319F02FCF1092E00208950F931F93CF93DF93809160029091610215
:200EC000A0916202B091630280935C0290935D02A0935E02B0935F0282EF93E00E94BD303A
:200EE00060936002709361028093620290936302609358027093590280935A0290935B029E
:200F000000915C0210915D0220915E0230915F02601B710B820B930B60937B0270937C029C
:200F200080937D0290937E0220918402309185024CE0429FE001439FD00D1124D093830233
:200F4000C09382022091030130E050E040E00E94B63630931601209315018091810282FD61
:200F600002C0CE018FDF809184029091850201968F3F910509F048F49093850280938402C0
:200F8000DF91CF911F910F9108951092850210928402F6CF6EE082EF93E00E94E42A8823F1
:200FA00071F069E082EF93E00E94E42A882339F06DE082EF93E00E94E42A811179CF0895C7
:200FC0006EE082EF93E00E94E42A811110C082EF93E00E94BD3060935202709353028093A8
:200FE00054029093550281E08093510261CF69E082EF93E00E94E42A882349F36DE082EFA8
:2010000093E00E94E42A882311F3089581E08093640280931901809108038823A1F060E0C2
:2010200082EF93E00E949E2280E092E09093DB028093DA0262E082EF93E00E949E2210927F
:20104000DF021092DE021092080310920A03109207031092960210929502109294021092D8
:20106000930203CE10925702109256028091810282FDCCCF0895CF92DF92EF92FF920F9344
:201080001F93CF93DF93262F862F6CE00E948336492F009102031091030390E080E030E084
:2010A000B801082E02C0769567950A94E2F760FD31E001968C30910599F7C80102C0969564
:2010C00087954A95E2F780FD38C03323B1F130E0C22FD0E0ECE0F0E0CE01830F911DBF01B3
:2010E0000E94A336A80102C0569547958A95E2F740FD02C03F5FF0CF40E0ECE0E20FF0E042
:201100008CE0C82ED12CE42EF12CCF018E199F09B6010E94A336B80102C0769567958A954F
:20112000E2F760FD02C04F5FEECF431780F4CE19DF091C161D065CF4241B822FDF91CF914A
:201140001F910F91FF90EF90DF90CF900895230FF4CF861797074CF08417950724F081E0AE
:20116000461757074CF480E007C048175907DCF381E064177507BCF30895AF92BF92CF9228
:20118000DF92EF92FF920F931F93E091D70288E0E89FF0011124E956FD4F809195029091C5
:2011A0009602E80FF91F608184E0689FB00111246B3F710584F1072E000C880B990B209198
:2011C00041041F921F921F922F933CE0A32EB12CC12CD12CE12C14E0F12E00E010E02AEF38
:2011E00030E040E050E00E94EC3440E08091860242DF0F900F900F900F90482F60E082EF4F
:2012000093E01F910F91FF90EF90DF90CF90BF90AF900C947C28609191027091920290E0D4
:2012200080E01F921F922FE02F932FEF2F93A12CB12C65011AEFE12EF12C00E010E020E026
:2012400030E0A9010E94EC340F900F900F900F90AB0160E082EF93E01F910F91FF90EF9068
:20126000DF90CF90BF90AF900C94D822AF92BF92CF92DF92EF92FF920F931F93CF93DF93DA
:2012800080917F028823A9F18FE293E00E942101882379F18091810281FF2BC060E08FE20A
:2012A00093E00BDB482F61E082EF93E00E947C281092880260E082EF93E00E94F42140911B
:2012C000DC025091DD024F5F5340B3E0440F551FBA95E1F761E082EF93E0DF91CF911F9109
:2012E0000F91FF90EF90DF90CF90BF90AF900C94E9214091D8028091DA029091DB022091F3
:20130000890230918A02411104C050911901511107C050910803552309F45EC041115CC0CE
:201320009250820F931FE091D70228E0E29FF0011124E956FD4F2091950230919602E20F72
:20134000F31F208144E0249F90011124820F931F97FD51C0813024E0920714F080E094E01F
:2013600090939202809391022091910230919202B90190E080E040918D02442309F45BC00E
:201380002B3F3105D8F1209142041F921F921F922F93DCE0AD2EB12CC12CD12CE12C14E0B9
:2013A000F12E00E010E02AEF30E040E050E00E94EC3440E0809186025EDE482F61E082EFE5
:2013C00093E00E947C28109288020F900F900F900F90609188026FCF9250820F931F811538
:2013E0004EEF940744F0813022E0920714F080E092E09E5FB5CF90E080E0B2CF1F921F928B
:201400002FE02F932FEF2F93A12CB12C65011AEFE12EF12C00E010E020E030E0A9010E94AA
:20142000EC34AB0161E082EF93E00E94D82281E080938802CACF2B3F3105A0F1A090F8052A
:20144000B090F905D12CC12C1F921F9220E12F931F92E12C14E0F12E00E010E02AEF30E075
:2014600040E050E00E94EC344091DC025091DD025695479556954795460F571F61E082EFE0
:2014800093E00E94D822109288020F900F900F900F906091880282EF93E00E94F42150E04F
:2014A00040E018CF1F921F92DFE0DF93CFEFCF93A12CB12C65011AEFE12EF12C00E010E05D
:2014C00020E030E0A9010E94EC342091DC023091DD023695279536952795620F731F811DB2
:2014E000911D0F900F900F900F9050E040E097FD41C0609191027091920290E080E01F9243
:201500001F92DF93CF9320E030E0A9010E94EC342091DC023091DD0236952795369527958D
:20152000620F731F811D911D0F900F900F900F90611570418105910534F5609191027091EF
:20154000920290E080E01F921F92DF93CF9320E030E0A9010E94EC344091DC025091DD0206
:201560005695479556954795460F571F0F900F900F900F9061E082EF93E00E94D82281E074
:201580008093880286CF4FEF5FE0F4CF1F93CF93DF936CE082EF93E00E94F02A809187020D
:2015A000882309F45EC1C0E06C2F82EF93E00E94E42A811115C1CF5FC830B1F7D0E0C0E00F
:2015C0006C2F82EF93E00E94F02A8823F1F041E06C2F82EF93E00E94FB211092870281E05A
:2015E00080930D03C0938602FE01EE0FFF1FEB5FFE4F808191819093030380930203109246
:20160000060310928704109286042196C830D105B9F66CE082EF93E00E94F02A882369F044
:20162000E0918602F0E0EE0FFF1FEB5FFE4F8091690290916A02918380836EE082EF93E0DD
:201640000E94F02A882319F081E080933F026EE082EF93E00E94E42A69E0882309F4CEC004
:2016600082EF93E00E94F02A8823E9F0E0918602F0E0EE0FFF1FDF01AB5FBE4F8D919C9120
:201680001197880F991F94FDB5C08D939C93EB5FFE4F808191819F7E9183808381E08093AC
:2016A000870210923F026DE082EF93E00E94F02A8823C1F0E0918602F0E0EE0FFF1FEB5F47
:2016C000FE4F20813181C901969587959183808320FF92C098609183808381E080938702C5
:2016E00010923F026EE082EF93E00E940D2B8823A1F180913F02882381F12091860230E006
:20170000220F331FF901EB5FFE4F408151816091D90281E090E0A0E0B0E0062E04C0880FE6
:20172000991FAA1FBB1F0A94D2F7EA0102C0D695C7956A95E2F7C0FD8FC0842B952B91830C
:2017400080832B5F3E4FF90180819181909303038093020381E080935002C0E040E06C2F00
:2017600082EF93E00E94FB21CF5FC830B9F78091870241E060918602882359F1C1E0D0E077
:20178000E091D902F0E0E35DFE4F408150E00C2E02C0559547950A94E2F741706C2F82EFB9
:2017A00093E00E94FB212196C830D10549F7E0918602F0E0EE0FFF1FEB5FFE4F8091D902CC
:2017C0004081518102C0569547958A95E2F7417060E082EF93E0DF91CF911F910C94FB21E4
:2017E000D0E06D2F82EF93E00E94F02ADF5FD830C1F7E1CE816049CF977F6DCF82EF93E021
:201800000E94F02A882379F080918702882341F08091D9028F5F6CE00E9483369093D90203
:2018200081E0809387026DE082EF93E00E94F02A882309F457CF80918702882339F0809171
:20184000D902811107C08BE08093D90281E08093870248CF8150F8CF8095909584239523B6
:201860006ECFD0E0C0E01C2F6C2F82EF93E00E94F02A8823E1F180910403811157C0109275
:201880000703109206031092050311E010930403E0910B03F0E0E559FD4FC08341E06C2F76
:2018A00082EF93E00E94FB2182EF93E00E94B43060931E0370931F03809320039093210366
:2018C0001092870210930D03C0938602FE01EE0FFF1FEB5FFE4F808191819093030380934F
:2018E00002031092060310928704109286042196C830D10509F0B7CF6EE082EF93E00E9407
:20190000F02A882351F181E08093870280930D036091860282EF93E00E94E42A882309F4EB
:201920001CCF82EF93E00E94B43017CF809105038F3018F48F5F8093050380910503E82F4F
:20194000F0E0E559FD4F10838093060341E0612F82EF93E00E94FB21CACF69E082EF93E065
:201960000E94F02A8111CFCF6DE082EF93E00E94F02A8111C8CFCCCF0F931F9382EF93E092
:201980000E94BD30009158021091590220915A0230915B02AB01BC01401B510B620B730B9B
:2019A0008091150190911601B0E0A0E0481759076A077B07C8F082EF93E00E94BD306093E8
:2019C00058027093590280935A0290935B0220918102809182029091830222FF08C0019671
:2019E00090938302809382021F910F91089520915102211108C001969093830280938202E7
:201A00001F910F913FCA40918402509185026CE0649F9001659F300D112421503109821714
:201A2000930710F7E8CFDC01D2968C91D297813F09F4A4C048F5803B09F459C0B8F48039EF
:201A4000D1F1803A09F471C0803809F0C1C0ED91FC911197309709F4BBC0D4964C91D49706
:201A6000D3966C91D397D1968C910994803D09F461C020F4803C09F46AC00895803EE1F176
:201A8000803F09F469C008958A3F09F158F4833F09F491C008F47BC0863F09F491C0883F94
:201AA00079F008958C3FD9F0B0F08E3FE1F08F3F09F48AC008951296ED91FC911397CACFA6
:201AC0005896ED91FC91309709F482C009945A96ED91FC91F8CF5C96ED91FC91F4CF5E96F4
:201AE000ED91FC91F0CF9096ED91FC91ECCF1696ED91FC911797AECF1C96ED91FC911D97DD
:201B0000309709F465C0D4966C91D49720E8629FB001112460787F73D3968C91D3978F775B
:201B2000682B7052D1968C9109941496ED91FC91159790CF1A96ED91FC911B97309709F43E
:201B400047C0D3966C91D397D1968C9109941896ED91FC911997F2CF1E96ED91FC911F97EE
:201B60003097B1F1D3966D917C91D4976115710511F061E070E0CD01C59609945096ED9175
:201B8000FC915197309721F1D3968C9109945296ED91FC9153973097D9F0D4968C91D49775
:201BA00020E8829FC001112480789F73D3962C912F77822B09945496ED91FC915597E2CF54
:201BC0005696ED91FC917FCF9296ED91FC917BCF0895982F9F7E282F2F7C203839F0803E81
:201BE00029F081E0903C19F080E0089581E0089587FF0CC09CE0980F923040F0982F9B7F53
:201C0000993F21F0803F18F4807F089580E008950F931F93CF938C01C62F6D3F98F46A3F5E
:201C200020F4663F11F0683F79F4D801D7968D919C91DC01ED91FC910190F081E02D6C2FB3
:201C4000099502C06E3F88F7C63F11F4F80110A6CF911F910F910895EF92FF920F93CF93DC
:201C6000DF937C01C62FD22F6FEF600F603110F4C7FD09C0D70198961C92DF91CF910F916C
:201C8000FF90EF900895C13E80F5042F0F776C2BFC0180A5861751F087A990AD60A7DC0184
:201CA000ED91FC910190F081E02D0995F70187A990ADDC01ED91FC910190F081E02D602F81
:201CC0000995CF7EC03CC9F2F70187A990AD6D2F6F77DC01ED91FC910190F081E02DDF9114
:201CE000CF910F91FF90EF900994C63F30F26C2FDF91CF910F91FF90EF908ACF0F931F934C
:201D0000CF93DF93EC018EA1982F917080FF1DC0282F2E7FD1F06AA920E8260F2136E8F467
:201D200009A929A5021719F091E0211190E08695823049F0833071F0813039F42CA94BA92D
:201D4000CE018ADF02C09111F9CFDF91CF911F910F9108959111F9CFF1CFE0E1E60FE03171
:201D6000A0F7F0E0E95CF84C0C94F436CE01DF91CF911F910F914CCF0BA91CA901151105FA
:201D800011F001E010E090E080E080179107F8F48FA998ADDC01ED91FC910190F081E02D12
:201DA0006DA9099581E090E0F0CF1BA98FA998ADDC01ED91FC910190F081E02D63EF0995B7
:201DC0001F77612F70E08FA998AD0E94970418A6BCCF0CA9B0E80B9F800111248BA9082B76
:201DE0008FA998ADDC01ED91FC910190F081E02D62EF0995B8016F7777278FA998AD0E9424
:201E00009004B801660F672F661F770B71956F7777278FA998AD0E949004D9CF6BA9B0E1D9
:201E20006B9FB001112460771CA91F70162B8FA998ADDC01ED91FC910190F081E02D61EF82
:201E400009958FA998ADDC01ED91FC910190F081E02D612F0995BBCFCF92DF92FF920F93B3
:201E60001F93CF93DF93EC01F9A480E18F1550F410E0812FDF91CF911F910F91FF90DF904B
:201E8000CF9008958FA998ADDC01ED91FC910084F185E02D0995892B59F38FA998ADDC01E2
:201EA000ED91FC910284F385E02D09958C018FA598A9009709F096C00AA7DFA08D2D98DE26
:201EC00088DE882341F007FD06C0DAA60BA781E090E098AB8FA78AA58BDE813F09F45BC00A
:201EE00020F5803B39F048F4803921F0803A11F0803851F483E090E050C0803D09F44BC083
:201F000048F4803C09F447C018AA1FA61EA61DA61FA2AECF803E71F3803FB1F721E030E0DF
:201F20003EA72DA71FA28DAB3AC0883F31F058F5833F89F1F8F2863F39F78AAB19AA1BAAE8
:201F40001CAA81E08EAB18AA1FA61EA61DA68AA9803929F48CA9811102C080E88AAB8AA9B1
:201F6000882309F4BAC08058813630F489A599A9981711F08111B1C0CE0155DD11E06F2DDB
:201F8000CE01BCDE76CF8A3F08F4BECF8D3FA8F28E3F98F6B9CF82E090E09EA78DA78FA579
:201FA00098A9CDA4DEA49601215031098217930708F48FC01AA5812F1BDE8AAB1F701F5F83
:201FC00019AB8BA58BABB3E0CB16D10449F48CA58CAB18AA1FA61EA61DA681E08EABB7CFBB
:201FE0001CAAF7CF07FF19C0980133272D3F31057CF42A3F31053CF4273F310509F446C003
:20200000283F310551F40AAB1BAA1CAA19AAE5CF2E5F310922303105B0F32AA5FE01E80F70
:20202000F91F203F09F048C005ABCDA4DEA49601215031098217930708F44BC00AA5003F1B
:2020400009F462CF802FD4DD182F8AABC2DD8823A9F1802F8F708F5F89AB8BA58BAB83E0F9
:20206000C816D10469F58CA58CAB18AA1FA61EA61DA681E08EAB103B39F020F5103921F05C
:20208000103A11F01038B1F40FA361CF2DA9203F09F03ACFFE01E80FF91F37EF35AB2AAB06
:2020A00001969CAB8BAB19AA81E08EAB18AA1FA61EA61DA61FA24BCF02A7B7CF19AACDCF38
:2020C0001CAAD3CF103D01F3103EF1F2103C91F7DBCF019698AB8FA7CBCE10E050CFCF938E
:2020E000C09119018FE293E0CC2309F4EEC00E94210161E0811101C060E082EF93E00E94D9
:20210000E129E091D702F0E0E25FFC4F808190E00090950202C0959587950A94E2F7409127
:20212000180150E080FD02C050E040E061E082EF93E00E940F23E091D702F0E0E25FFC4F28
:20214000808190E00090950202C0959587950A94E2F780FD08C08FE293E00E942101C1E0DA
:20216000811101C0C0E06C2F82EF93E00E94022AE091D702F0E0EA5EFC4F608170E00090B1
:20218000950202C0759567950A94E2F7617082EF93E00E94DB29E091D702F0E0E25FFC4F68
:2021A000608170E00090950202C0759567950A94E2F7617082EF93E00E94EC296091E00249
:2021C00082EF93E00E94F7296CE082EF93E00E94E42A811133C080918702882309F496C05C
:2021E000E0918602F0E0EE0FFF1FEB5FFE4F8091D9026081718102C0769567958A95E2F7E4
:20220000617082EF93E00E940D2A60E082EF93E00E94B722C1E0482F4C2760E082EF93E0E2
:202220000E94292A62E082EF93E00E94B722482F4C2761E082EF93E00E94292A6DE082EF46
:2022400093E00E94F02A882391F06EE082EF93E00E94E42A81110BC069E082EF93E00E9415
:20226000E42A811104C080910D0361E0811160E082EF93E00E94182A6DE082EF93E00E942B
:20228000E42A882309F45FC0C0E06C2F82EF93E00E94E42A882309F452C0C0FD40C0EC2F08
:2022A000E695F0E0EF55FE4F608170E080918202909183020E948F3661E0892B09F460E03D
:2022C00082EF93E00E94182A3AC00E94210161E0811101C060E082EF93E00E94E1298FE2A3
:2022E00093E00E94210161E0811101C060E082EF93E00E94022A60E082EF93E00E94EC2946
:2023000060E082EF93E00E94DB2958CF8091190161E0882309F475CF6091E00272CFE091EF
:20232000D702F0E0EA5EFC4F808190E00090950202C0959587950A94E2F780FDB0CFCF5F20
:20234000C83009F0A2CF80910103882309F43EC0809102018823D1F1E091D702F0E0EA5E7D
:20236000FC4F608170E00090950202C0759567950A94E2F7617082EF93E00E94232A60E097
:2023800082EF93E00E944424909355068093540688EB93E061DD82EF93E00E94432382EFE3
:2023A00093E00E94492A80912E03882351F010922E0382EF93E00E94432382EF93E00E9422
:2023C000432382EF93E0CF910C94282B60E0D3CFDF92EF92FF920F931F93CF93DF9397E755
:2023E000899F80011124E801C05CDF4F85E0E82E81E0F82E005B1F4F72DECE010E948C04B0
:20240000D82ECE0101960E948C046D2D0E944E35F701819391937F012296C017D10761F7F0
:20242000DF91CF911F910F91FF90EF90DF9008950F931F93CF93DF9305E011E097E7899FBE
:20244000E0011124C05CDF4F4ADEF80160810E5F1F4FCE010E948E04F80132976181CE01C9
:2024600001960E948E042296F1E005311F0761F7DF91CF911F910F9108952F923F924F9224
:202480005F926F927F928F929F92AF92BF92CF92DF92EF92FF920F931F93CF93DF9300D079
:2024A00000D0CDB7DEB7782E27E7829F50011124BC82AB82C5018F589F4F0E948C0480938D
:2024C0008602C50180599F4F0E948C0480930903C5018E589F4F0E948C0480930603C501E8
:2024E0008D589F4F0E948C0480930101C5018C589F4F0E948C0430E020E090E0E0E0A82FE1
:20250000B0E0C12CD12C7601C394B701A601022E04C0440F551F661F771F0A94D2F78D0149
:20252000022E02C0159507950A94E2F700FF07C1E42B89010D5F1F4F5D0102C0B594A7940E
:202540000A95E2F7A0FEFFC0942B2F5F3F4F23303105D9F6E093170190932503F0E0EF5688
:20256000FE4F8081809318018B819C818B589F4F0E948C04182F8B819C818A589F4F0E94D3
:202580008C04612F0E944E35909316018093150140910301489F9001499F300D1124C90122
:2025A000B0E0A0E080937B0290937C02A0937D02B0937E02AB80BC8028E0A20EB11C0B81ED
:2025C0001C818DDD780158E0D52EC7010E948C04F7012B813C81E21BF30BE956FD4F80835C
:2025E000DA9438E0E30EF11CD110EFCF0F5F1F4F0A151B0531F70B811C81005B1F4F21EE74
:20260000E22E22E0F22E3BE6C32E32E0D32E2B803C8080E6280E311C812C912C540183943D
:202620005EDDC8010E948C04F70111927F01F60111926F0130E020E0482E512CF70131977C
:20264000D6011197B501A401022E04C0440F551F661F771F0A94D2F76080C201022E02C0CE
:20266000959587950A94E2F780FF70C0642A60826C90C90103969A838983C201098002C0E8
:20268000959587950A94E2F79A83898380FF62C046294C932F5F3F4F2330310599F60F5FC3
:2026A0001F4F0215130509F0BBCF86E1C82E83E0D82E9EE0E92E93E0F92EEB81FC81E859DB
:2026C000FF4FFA83E9830BDDC8010E948C04F60181936F01C80108960E948C04F7018193C0
:2026E0007F010F5F1F4FA980BA800A151B0559F780910903811104C08091E1028093D70239
:20270000872D66DE70922303672D80EC93E00F900F900F900F90DF91CF911F910F91FF90FB
:20272000EF90DF90CF90BF90AF909F908F907F906F905F904F903F902F900C948E04842F21
:202740008095E823F6CE40959423FFCE842F809568228DCF409564226C929CCF2F923F9238
:202760004F925F927F928F929F92AF92BF92CF92DF92EF92FF920F931F93CF93DF9300D0B6
:2027800000D0CDB7DEB7782E198241E0698182EF93E00E94FB2129812F5F29832830A9F786
:2027A00082EF93E00E94492A27E7729E100111243C822B8260918602C1018F589F4F0E949F
:2027C0008E0460910903C10180599F4F0E948E0460910603C1018E589F4F0E948E046091F8
:2027E0000101C1018D589F4F0E948E04E0911701F0E0A0912503AA2EB12C30E020E060E057
:20280000C12CD12C7601C394122FD701C601022E04C0880F991FAA1FBB1F0A94D2F7AF0123
:20282000022E02C0559547950A94E2F740FFEAC0862BA9014D5F5F4F1601270104C0220C9A
:20284000331C441C551C4A95D2F7A101250102C0559447941A95E2F7682F642B40FC03C0B5
:20286000642F609568232F5F3F4F2330310561F68B819C818C589F4F0E948E046091150113
:202880008B819C818B589F4F0E948E04609116018B819C818A589F4F0E948E04AB80BC806E
:2028A00028E0A20EB11C0B811C81780148E0D42EF7012B803C80E219F309E956FD4F608105
:2028C000C7010E948E04DA9428E0E20EF11CD110EFCF0F5F1F4F0A151B0539F781EE92E0BE
:2028E0009A8389832BE6C22E22E0D22E8101005B1F4F710190E6E90EF11C812C912C5401B6
:202900008394EDDBA981BA812D91BA83A98330E0F60141916F0150E070E090E080E0A82FDC
:2029200014012501082E04C0220C331C441C551C0A94D2F7F901082E02C0F595E7950A9417
:20294000E2F7E0FF62C07229FC0133961401250104C0220C331C441C551CEA95D2F7FA01AC
:2029600002C0F595E795AA95E2F7E0FF52C0722901968330910599F6672FC8010E948E04E9
:202980000F5F1F4F0E151F0509F0BBCF86E1C82E83E0D82E9EE0E92E93E0F92E8B819C8173
:2029A00088599F4F9A8389839ADBD6016D916D01C8010E948E04F70161917F01C801089699
:2029C0000E948E040F5F1F4F29803A800215130559F7872D2DDD0F900F900F900F90DF915B
:2029E000CF911F910F91FF90EF90DF90CF90BF90AF909F908F907F905F904F903F902F9004
:202A00000C949A058095862314CF622D609576239BCF20947221ACCFCF930E94590581E0CA
:202A200080938D021092D702109286021092090388EE93E09093160180931501109225038B
:202A400084E08093170180930101E7E9F2E080E8819387838787878B878F87A387A787ABEA
:202A600092E0EF39F907A1F7E1EEF2E081E093E011928E179F07E1F7C0E08C2F6FDECF5F13
:202A8000C830D9F71092230383E0809381021092800210927F0285E08093040180930101D4
:202AA000109224030E949A050E941A050E949E0482E0809322036091230380EC93E00E94D5
:202AC0008E0461E781EC93E00E948E0460E682EC93E00E948E0462E883EC93E0CF910C9481
:202AE0008E0481EC93E00E948C048137A9F482EC93E00E948C04803679F483EC93E00E9423
:202B00008C04823849F480EC93E00E948C0480932303B3DC0C9478057FCFE3DF0E94380549
:202B20000C94DC04BF92CF92DF92EF92FF920F931F93CF93DF936EE082EF93E00E94F02ACA
:202B4000882361F082EF93E00E94B430609348027093490280934A0290934B0269E082EFFB
:202B600093E00E94F02A882361F082EF93E00E94B43060934C0270934D0280934E029093A7
:202B80004F026DE082EF93E00E94F02A882361F082EF93E00E94B43060934402709345020E
:202BA00080934602909347026CE082EF93E00E94F02A882361F082EF93E00E94B430609309
:202BC00040027093410280934202909343020AED12E0C0E06C2F82EF93E00E94B7226C2F90
:202BE000882309F494C182EF93E00E942B22882309F478C16C2F82EF93E00E948A22CF5F29
:202C00000E5F1F4FC33031F780912E03882351F010922E0382EF93E00E94432382EF93E0ED
:202C20000E9443236CE082EF93E00E94E42A8823A9F16BE082EF93E00E94F02A882371F070
:202C400080917F02C1E08C2780937F020E949A05C0930D03109287041092860440917F02AB
:202C6000C1E04C2760E082EF93E00E94292A6AE082EF93E00E94F02A882349F080918002C6
:202C80008C27809380020E949A05C0930D034091800261E082EF93E00E94292A6BE082EF1F
:202CA00093E00E94F02A8111109287026BE082EF93E00E940D2B882349F08091500288232D
:202CC00019F080912303B4DB109250026BE082EF93E00E94E42A6AE0882309F449C182EFE5
:202CE00093E00E94E42A882329F080918702882309F415C168E082EF93E00E94E42A811167
:202D00002CC10E94C60A8091190181110AC06091950282EF93E00E94E42A8111D8C61092DF
:202D2000D8026EE082EF93E00E940D2B882309F46BC080910D03811167C082EF93E00E947A
:202D4000B430009148021091490220914A0230914B02601B710B820B930B64367105810505
:202D6000910508F051C08091260390912703A0912803B091290380932A0390932B03A093A2
:202D80002C03B0932D0382EF93E00E94BD3060932603709327038093280390932903C090F8
:202DA0002A03D0902B03E0902C03F0902D038B019C010C191D092E093F09015A1F40210932
:202DC00031090F3E104C23403105F0F400915202109153022091540230915502C016D106EC
:202DE000E206F30628F4061717072807390760F010925102C0926002D0926102E092620298
:202E0000F09263020E94580769E082EF93E00E940D2B8823F9F080910D0381111BC082EF30
:202E200093E00E94B43000914C0210914D0220914E0230914F02601B710B820B930B6436FB
:202E400071058105910530F48091190181114EC60E94060880912E03882351F010922E033A
:202E600082EF93E00E94432382EF93E00E94432380910103882319F08150809301036AE07F
:202E800082EF93E00E94F02A6AE082EF93E00E940D2B68E082EF93E00E94E42A6AE082EFF3
:202EA00093E00E940D2B882351F080910C03882321F080910B038093090310920C0368E0C6
:202EC00082EF93E00E94E42A68E082EF93E00E94E42A81110EC680911901811148C61092AF
:202EE000D80245C6D801CD90DC906C2F82EF93E00E9452227C016C2F82EF93E00E944722AF
:202F0000A601B7010E94A908811174CE78CE82EF93E00E944722F8019183808370CE81E047
:202F200080930D03C0E040E06C2F82EF93E00E94FB216C2F82EF93E00E94F02A882311F08A
:202F40008C2F9BDACF5FC83071F741E06091230382EF93E00E94FB21D6CE80918702811109
:202F6000D0CE80912303FADB81E080930D03CBCE82EF93E00E94E42A882309F416C16DE02A
:202F800082EF93E00E94F02A882391F181E080930D03E091D702F0E0CF0163E0880F991F64
:202FA0006A95E1F7DC01A956BD4F17963C91179727E016964C91169717964C931797215042
:202FC00011972111F6CF89569D4FDC013C93DF01AA5EBC4F9C91892F880F97FDB8C08C9341
:202FE000E25FFC4F9081892F880F97FDB2C0808369E082EF93E00E94F02A882389F181E06D
:2030000080930D03E091D702F0E0CF0153E0880F991F5A95E1F7DC01A956BD4F3C9127E09E
:2030200011964C9111974D932150D1F789569D4FDC0117963C93DF01AA5EBC4F2C91822FC6
:2030400090E09595879520FD86C08C93E25FFC4F2081822F90E09595879520FD7EC0808346
:20306000D0E0C0E001E01C2F40E06C2F82EF93E00E94FB216C2F82EF93E00E94F02A882391
:2030800009F444C0809100018F3F31F190E0DC0173E0AA0FBB1F7A95E1F7A956BD4FFE0109
:2030A00023E0EE0FFF1F2A95E1F7E956FD4F28E03D9131932150E1F7FC01EA5EFC4F2081BC
:2030C000FE01EA5EFC4F2083825F9C4FFC018081FE01E25FFC4F808310933E0280910C0360
:2030E00081113DC010920A031092090310920B0300930C031093E1021093D70241E0612FDF
:2031000082EF93E00E94FB2100930D032196C830D10509F0A8CF6BE082EF93E00E94F02A8A
:20312000882319F081E080930D03C0910103CC2371F180919502909196026091D70270E036
:2031400068177907E9F46770772740E001CF816046CF81604CCF806878CF806880CF8091C5
:203160000B038F3118F48F5F80930B0380910B03E82FF0E0EF51FD4F108380930903BECF95
:2031800068E070E00E94A33641E0682FE1CE41E08091D7028C1340E06C2F82EF93E00E94CA
:2031A000FB21CF5FC83099F7AECD68E082EF93E00E94E42A882309F4F8C0D0E0C0E0C12C49
:2031C000D12C7601C3941C2F6C2F82EF93E00E94F02A882381F1E091D702F0E0E25FFC4FDB
:2031E0002081D701C6010C2E04C0880F991FAA1FBB1F0A94D2F7422F50E00C2E02C05595B1
:2032000047950A94E2F740FD13C0822B808310923B02E091D702F0E0E25FFC4F408150E025
:203220000C2E02C0559547950A94E2F741700CC080958223EBCF80913B02882351F341E006
:20324000809117018C1340E0612F82EF93E00E94FB212196C830D10509F0B5CF6DE082EF94
:2032600093E00E94F02A8823A9F081E080930D0380911701873018F48F5F80931701E091E1
:203280001701F0E0EF56FE4F80818093180181E080933B0269E082EF93E00E94F02A882342
:2032A000A9F081E080930D0380911701882319F0815080931701E0911701F0E0EF56FE4F2D
:2032C00080818093180181E080933B026CE082EF93E00E94E42A882369F180910D03811178
:2032E00029C082EF93E00E94B43000914002109141022091420230914302601B710B820B45
:20330000930B6935724081059105A0F0109287041092860460E082EF93E00E94F42161E09E
:2033200082EF93E00E94022F81110E949E0481E080930D036CE082EF93E00E940D2B8823C7
:2033400009F4E1CC82EF93E00E94B43000914002109141022091420230914302601B710BB0
:20336000820B930B683572408105910508F0CBCC109287041092860460E082EF93E00E9409
:20338000F42168E082EF93E00E94D62382EF93E00E94C92A61E082EF93E00E943630882300
:2033A00009F4B1CC0E949E04AECC6CE082EF93E00E94E42A882309F497C082EF93E00E9470
:2033C000B43000914002109141022091420230914302601B710B820B930B693E7340810555
:2033E000910518F181E08093670210E000E0D1E0F02EC02F602F82EF93E00E94F02A8823E9
:2034000031F080912403982F9770091799F06C2F82EF93E00E94F02A8823C1F08FE293E061
:203420000E942401C09324030DC01092670210926602DBCF885F8F70809324038FE293E0BB
:203440000E9424010E949A05D0930D0380916702882351F080916602811106C041E06C2FFE
:2034600082EF93E0C8D711C080912403883080F141E06C2F82EF93E0BED780912403885052
:20348000990B40E00817190751F30F5F1F4F0830110509F0ADCF69E082EF93E00E94F02A5D
:2034A000882361F08091810282FD1CC08460809381020E949A0581E080930D03609181026E
:2034C00062FB662760F982EF93E00E940D2A1BCC40E06C2F82EF93E08ED780912403F812BF
:2034E000D4CFBCCF8B7FE3CF6EE082EF93E00E94F02A811108CC6EE082EF93E00E94E42AAC
:20350000882309F474C180918102C82FC470D0E082FF19C1C0E011E06C2F82EF93E00E9452
:20352000F02A882341F0FE01E756FE4F80818093040110930D032196C830D10569F709E969
:2035400011E0C0E0D8018D918D0141E090910401981340E06C2F82EF93E04DD7CF5FC8307A
:2035600089F769E082EF93E00E94F02A811107C16DE082EF93E00E94F02A882351F181E04D
:2035800080930D0360917B0270917C0280917D0290917E026A5B7F4F8F4F9F4F60937B021B
:2035A00070937C0280937D0290937E022091030130E050E040E00E94B63630931601209325
:2035C000150110922A0310922B0310922C0310922D0369E082EF93E00E94E42A882309F40E
:2035E00057C082EF93E00E94B43000914C0210914D0220914E0230914F02601B710B820BE4
:20360000930B693C71058105910508F441C082EF93E00E94B43024E130E040E050E00E9467
:20362000B636672B682B692B99F580917B0290917C02A0917D02B0917E028E339105A105BC
:20364000B10558F04E97A109B10980937B0290937C02A0937D02B0937E022091030130E0B8
:2036600050E040E060917B0270917C0280917D0290917E020E94B6363093160120931501AB
:2036800010922A0310922B0310922C0310922D036DE082EF93E00E94E42A882309F433CB61
:2036A00082EF93E00E94B43000914402109145022091460230914702601B710B820B930BBC
:2036C000693C71058105910508F41DCB82EF93E00E94B43024E130E040E050E00E94B63672
:2036E000672B682B692B99F480917B0290917C02A0917D02B0917E024E96A11DB11D809363
:203700007B0290937C02A0937D02B0937E022091030130E050E040E060917B0270917C0214
:2037200080917D0290917E020E94B636309316012093150110922A0310922B0310922C03B7
:2037400010922D03E0CA11E06D2F82EF93E00E94F02A882321F0D093010110930D03DF5FAE
:20376000D83091F741E0809101018C1340E06C2F82EF93E040D6CF5FC830A1F7F2CE81E052
:2037800080930D0380917B0290917C02A0917D02B0917E0286369105A105B10560F0865490
:2037A0009109A109B10980937B0290937C02A0937D02B0937E022091030130E050E040E050
:2037C00060917B0270917C0280917D0290917E020E94B636309316012093150110922A03CB
:2037E00010922B0310922C0310922D03C1CE69E082EF93E00E94E42A8823F1F0C0E0D1E00D
:203800006C2F82EF93E00E94F02A882321F0C0932503D0930D03CF5FC83091F7C0E041E054
:20382000809125038C1340E06C2F82EF93E0E3D5CF5FC830A1F767CA6DE082EF93E00E9497
:20384000E42A882379F0C0E06C2F82EF93E00E94E42A482F6C2F82EF93E0CDD5CF5FC830B9
:2038600099F751CA809101038E3009F47CC080910103D0E0C0E011E0882309F4A6C040915C
:20388000950290919602842F68E070E00E94A336682FE091D702F0E0EA5EFC4F208130E01D
:2038A00002C0359527954A95E2F740E020FF41E082EF93E0A0D5D0E0C0E0C12CD12C76019E
:2038C000C394BB24B39400E012E06C2F82EF93E00E94F02A882309F440C0809108038823EF
:2038E000A1F0D0939602C093950260E082EF93E025D61093DB020093DA0262E082EF93E01E
:203900001DD61092DF021092DE026091950282EF93E00E94E42A882309F4A6C060E082EFD4
:2039200093E025D6811119C0B092D802E091D70288E0E89FF0011124E956FD4F8091950200
:2039400090919602E80FF91F8091910290919202969587959695879580832196C830D10530
:2039600009F0B3CFD0C9D0E0C0E0C12CD12C7601C3946C2F82EF93E00E94E42A8823E9F078
:20398000D701C6010C2E04C0880F991FAA1FBB1F0A94D2F7E091D702F0E0EA5EFC4F4081C3
:2039A00020913D0230E00C2E02C0359527950A94E2F720FF07C0842B80832196C830D105F1
:2039C000C1F655CF80958423F7CF0C2F809108038823D1F1809195029091960240E06C2FAA
:2039E0008C179D0749F582EF93E00E94B430C0903602D0903702E0903802F09039026C19CD
:203A00007D098E099F096F3171058105910588F082EF93E00E94B430609336027093370266
:203A2000809338029093390280913A02812780933A0240913A02602F82EF93E0DCD42196B0
:203A4000C830D10511F637CFE091D702F0E0EA5EFC4F408150E06C2F0C2E02C05595479590
:203A60000A94E2F74170E8CFE091D702F0E0EA5EFC4F40815C2FD701C6010C2E04C0880F3A
:203A8000991FAA1FBB1F0A94D2F7242F30E00C2E02C0359527950A94E2F720FD11C0482BA7
:203AA000408340913D02208130E002C0359527955A95E2F720FF08C0842B80933D024DCF6E
:203AC000282F20954223ECCF80958423F6CF60E082EF93E04CD5811122C9809108038823B0
:203AE00009F41DC981E08093D8021BC910921901B1C96AE082EF93E00E94E42A882309F4F5
:203B0000EAC968E082EF93E00E94F02A882359F08091190181110EC08091080391E089274E
:203B20008093080307C06AE082EF93E00E94F02A8111EECF81E08093D802C0910103CC23D5
:203B400009F441C0809195029091960268E070E00E94A3362091D70240E02817190609F0F2
:203B600041E0682F82EF93E046D41092010368E082EF93E00E94E42A811132C068E082EFD0
:203B800093E00E94F02A882339F06AE082EF93E00E94E42A81112BC068E082EF93E00E94F9
:203BA000E42A811148C068E082EF93E00E940D2B882309F45CC06AE082EF93E00E94E42AB5
:203BC000811141C054C041E08091D7028C1340E06C2F82EF93E00FD4CF5FC830A1F7C7CFBE
:203BE0006AE082EF93E00E94F02A882339F28091D802882389F260E082EF93E08BD462E02F
:203C000082EF93E087D4E091D702B8E0EB9FF0011124E956FD4F8091950290919602E80FF0
:203C2000F91F809191029091920296958795969587958083B1CF6AE082EF93E00E940D2BFA
:203C4000882309F4B0CF1092D80260E082EF93E075D480E092E09093DB028093DA0262E051
:203C600082EF93E06BD41092DF021092DE02C0E0D1E06C2F82EF93E00E94E42A8111D0E05A
:203C8000CF5FC031B1F7DD23B9F010920D0310929002109267021092870210923B028FEF3B
:203CA0008093000180910403882331F0809105038093060310920403DF91CF911F910F910E
:203CC000FF90EF90DF90CF90BF900895AF92BF92CF92DF92EF92FF920F931F93CF9382EF7F
:203CE00093E00E94492A82EF93E00E94282B82EF93E0C9D488EB93E00E942C0F6BE082EF63
:203D000093E00E94E42A61E0811109C06AE082EF93E00E94E42A882309F4D3C060E082EF1A
:203D200093E0B5D3BC0190E080E01F921F921F921F9237E0A32EB12CC12CD12CEE24EA94F8
:203D400013E0F12E00E010E020E030E0A9010E94EC3482EF93E061D50F900F900F900F906F
:203D600068E082EF93E00E94E42A8823B1F06CE082EF93E00E94E42A882379F061E082EF75
:203D800093E00E94022F81110E949E04C8E082EF93E00E94492AC150D1F782EF93E04BD38B
:203DA000482F60E082EF93E00E94292A82EF93E00E94052C482F61E082EF93E00E94292A2B
:203DC00082EF93E00E94422A682F82EF93E00E940D2A6091800482EF93E00E94022A62E034
:203DE00082EF93E054D3AC01440F551F440F551F60E082EF93E0DCD360E082EF93E047D36C
:203E0000AC01440F551F440F551F61E082EF93E0CFD36EE082EF93E00E94E42A682F82EFB6
:203E200093E0E2D282EF93E00E94BD3028EC30E040E050E00E94B636672B682B692B31F408
:203E40008091E00291E089278093E0026091E00282EF93E00E94E1296091E00282EF93E03F
:203E60000E94EC296091E00282EF93E00E94DB296091E00282EF93E00E94F7296DE082EFF7
:203E800093E00E94F02A61E0811101C060E082EF93E00E94182A69E082EF93E00E94F02A6E
:203EA00061E0811101C060E082EF93E0CF911F910F91FF90EF90DF90CF90BF90AF900C9490
:203EC000232A68E082EF93E00E94E42A62E0811126CF69E082EF93E00E94E42A64E081113D
:203EE00009C06DE082EF93E00E94E42AC0E0882381F063E082EF93E0CAD2BC0190E080E00C
:203F00001F921F921F9227E02F93A12CB12C650115CF80916502882349F041E06C2F82EF48
:203F200093E069D2CF5FC830A1F71ACF6CE082EF93E00E94E42A8111F0CF6C2F82EF93E07C
:203F40000E94E42A482FEACFCF9326E042E15AE760E070E08091EF039091F0030E94EF324B
:203F60001092E8031092E7031092E6031092E5031092EE031092EA031092E9031092EB03D3
:203F80001092EC0383E08093DE031092DF031092E0031092E10383EB95E09093BB038093D3
:203FA000BA0382E794E09093B9038093B80387E197E09093D1038093D00382E398E09093FE
:203FC000D3038093D20382E694E09093D7038093D60388E694E09093D5038093D40340EE69
:203FE00057E06AEC77E082EF93E00E944C2982EF93E064D560E082EF93E0F6D160E082EF29
:2040000093E00E94182A60E082EF93E00E94232AC0E02FEF80E792E0215080409040E1F7C6
:2040200000C000006C2F82EF93E0C0D382EF93E00E94492ACF5FC43161F769E082EF93E00D
:204040000E94E42A882379F06DE082EF93E00E94E42A882341F06EE082EF93E00E94E42AFD
:2040600081110E940C150E948D156BE082EF93E00E94E42A811156C08FE293E00E943F015A
:2040800062E08FE293E00E941E0142E361E082EF93E00E947C28C0E040E06C2F82EF93E06A
:2040A000AAD1CF5FC830C1F7C0E00E946F102FEF80E792E0215080409040E1F700C0000056
:2040C00041E0C0FD40E061E082EF93E094D1CF5FC53159F780E092E09093DB028093DA0223
:2040E00042E361E082EF93E00E947C280E946F100E946F1082EF93E034D261E082EF93E0DF
:2041000009D2E0916B02E0938602F0E0EE0FFF1FEB5FFE4F80819181909303038093020315
:20412000CF91089568E082EF93E00E94E42A882309F4A2CF82EF93E00E94912B0E941A058A
:20414000109287041092860460E082EF93E04CD1BDDDFECFCF930E94BC0C80918E029091D0
:204160008F02019690938F0280938E0280912E03882341F010922E0382EF93E084D282EF24
:2041800093E081D20E946F10E0918602F0E0EE0FFF1FEB5FFE4F80819181892B09F069C0D4
:2041A00010928D0263E082EF93E071D120E032E0281B390BA091DE02B091DF020E94FA36C7
:2041C00020E032E040E050E00E94D8362093890230938A0240938B0250938C020E9436098E
:2041E00080912E03882341F010922E0382EF93E04AD282EF93E047D280918002882309F496
:204200003CC04091680280E2489FA001112460E082EF93E0CDD110925506109254068CE021
:204220008093A60480912E03882341F010922E0382EF93E028D282EF93E025D2C091800442
:20424000CC2371F080913C0281110AC0109296021092950210929402109293020E943506A4
:20426000C0933C020E94921588EB93E0CF910C942C0F81E080938D0295CF0E94BD08CBCFDB
:204280000F93E8EBF3E081E696E090AF87AB11821082138212821582148217821682118645
:2042A0001086138612861586148617861686118A108A138A128A158A148A178A168A118E3E
:2042C000108E138E128E158E148E178E168E11A210A213A212A215A214A20EE12EE533E021
:2042E0004CE753E06AE973E08FE293E00E94AD000F9108950895089581E008952D9A2D987E
:204300000895289A28980895882311F02B9A08952B9808950F931F93CF93DF93082F10E024
:20432000611115C0D0E0C0E0C8010C2E02C0959587950A94E2F78170E7DFE0DF2196C8303F
:20434000D10591F7DF91CF911F910F910895C7E0D0E0C8010C2E02C0959587950A94E2F769
:204360008170D2DFCBDF2197A0F7ECCF80E480937C00EAE7F0E080E88083808187608083FD
:204380000895ECE7F0E09081907790839081982B908321E030E001C0220F8A95EAF7209315
:2043A0007E000895EAE7F0E0808180648083089580917A00829581700895809178009091E2
:2043C000790008958EBD00000DB407FEFDCF8EB5089570E06E5A7F4F660F771F860F971FCE
:2043E000FC01518340830895579A662311F05F9A08955F9808950F931F93DC01A853BF4FAD
:204400008C91E62FF0E0EC5EFD4F908101E010E020E030E004C0000F111F221F331F9A954D
:20442000D2F7442329F0082B0C931F910F91089500950823F9CF89B182FB882780F991E09C
:20444000892708958B539F4FDC01ED91FC91309709F00994089570E0660F771F860F971FBB
:20446000FC01E453FF4F8A529F4F20813181FC0180819181281B390B37FF03C03195219591
:20448000310981E02B3031050CF480E0089570E06A597F4F660F771F860F971FFC018081BE
:2044A0009181089570E065597F4F660F771F860F971FFC0180819181089570E0FB013B9651
:2044C00023E0EE0FFF1F2A95E1F7E80FF91F33E0660F771F3A95E1F7860F971FDC01A65A2B
:2044E000BF4F208131814D915C91240F351FFC01E45AFF4F40815181240F351F825A9F4F9C
:20450000FC0180819181820F931F96958795969587950895262FFC01EE56FF4F41E050E0E8
:2045200060E070E004C0440F551F661F771F2A95D2F740958081482340830895262FFC01CA
:20454000EE56FF4F41E050E060E070E004C0440F551F661F771F2A95D2F79081942B9083D7
:2045600008958E569F4F2FEFFC01208308958E569F4FFC01808190E002C0959587956A952A
:20458000E2F781700895FC0110926D0090916D00613039F4946090936D001092F103668359
:2045A0000895986090936D0081E08093F103F7CF623088F5411520E1520768F570E0660FC7
:2045C000771F9C01260F371FF901E851FF4F51834083389780819181841B950B97FF03C08B
:2045E00091958195910944E0880F991F4A95E1F7F901E456FF4F608171810E948F36CB0133
:2046000054E0969587955A95E1F7EC5AFF4F892B19F0718360830895605F7F4FFACF262FE8
:2046200030E0220F331F280F391FF901E456FF4F51834083D901A052BF4FE45BFF4F8D91BA
:204640009C9160817181861B970B97FF03C091958195910964E0880F991F6A95E1F7BA01C3
:204660000E948F36CB01E4E096958795EA95E1F7F901E051FF4F892B19F0718360830895FB
:20468000605F7F4FFACFCF92DF92EF92FF920F931F93CF93DF936C0121ECC20ED11CE6019A
:2046A000288130E0220F331F280F391FF901E052FF4F40815181D901A851BF4F6D917C9136
:2046C00046175707E1F0DA01A61BB70BB7FF03C0B195A195B1096417750708F050C02051D1
:2046E0003F4FE90128813981D4E036952795DA95E1F72A173B0708F43DC071836083008189
:2047000011817C01D2ECED0EF11CF701408180E090E840FD02C090E080E0413039F44FEF88
:204720005FE09A01201B310B890190621F70082B192B10610E94DB318CB5837F8CBD2A9839
:20474000812F40DE802F3EDE2A9A0E940D32E70188818F5F823040F58883E7018881F60162
:204760008083DF91CF911F910F91FF90EF90DF90CF900895421B530B51834083C0CF46175F
:20478000570708F0BCCF20513F4FE90128813981C4E036952795CA95E1F72A173B0708F00F
:2047A000ACCF420F531FE8CF1882D7CFCF92DF92EF92FF92CF93DF93E62FDC01A853BF4F11
:2047C0008C91C4E1D2E02CE132E041E050E060E070E099916A017B0104C0CC0CDD1CEE1CB5
:2047E000FF1C9A95D2F78C292C173D0791F7E770F0E0EC5EFD4F908104C0440F551F661F04
:20480000771F9A95D2F7409548234C93DF91CF91FF90EF90DF90CF900895CF92DF92EF924F
:20482000FF920F931F93DC01A853BF4F9C91E4E1F2E04CE152E001E010E020E030E0819197
:204840006801790104C0CC0CDD1CEE1CFF1C8A95D2F7C0949C214E175F0789F76770E62F8B
:20486000F0E0EC5EFD4F808104C0000F111F221F331F8A95D2F7902B9C931F910F91FF908A
:20488000EF90DF90CF900895DF92EF92FF920F931F93CF93DF93EC01D62E64E00EDEFC0165
:2048A000892B11F4E1E0F0E0ED2CF12CCE0128E1D29E800D911D1124DC01A850BF4F0D913F
:2048C0001C9186509F4FDC018D919C919801281B390BC90166E070E00E948F36669570E00D
:2048E000C801860F971F9801261B370BE217F30768F08E179F0708F09AC0C801880F991F88
:20490000BC016E1B7F0BFB0141E004C040E08E179F0798F388E18E9DD0018F9DB00D11246D
:20492000AC0FBD1FA45FBE4F2D913C912F5F3F4FE217F30728F09801E017F10708F49F01FA
:20494000FE0178E1D79EE00DF11D1124E850FF4F10E0819191918217930728F08081918152
:204960008217930718F01F5F1B3099F75CE05E9DC0015F9D900D1124810F911DFC01E45866
:20498000FF4FEE0FFF1FEC0FFD1F0190F081E02D83589F4F880F991FC80FD91F888199817E
:2049A000DF01A81BB90BCD0166E070E00E948F367727DF0180E02A173B0728F48F5FA61B99
:2049C000B70B8730C1F72E1B3F0B869FD001879FB00D1124F901EA1BFB0BF7FF03C0F195C1
:2049E000E195F1096A0F7B1F261B370B37FF03C03195219531092E173F070CF48F5F90E019
:204A0000B6E01B9F800D911D11248D33910514F08CE390E0442319F0919581959109DF91E7
:204A2000CF911F910F91FF90EF90DF90089540E090E080E0EACFCF93DF93623070F54115E2
:204A400020E1520750F5262F30E02C583F4F220F331F820F931FFC0151834083611114C0A0
:204A6000D0E0C0E0C42BD52BD0610E94DB312A988CB5837F8CBD8D2FA5DC8C2FA3DC2A9A8F
:204A8000DF91CF910C940D328FEF9FE09C01241B350BA901C0E0D0EAE5CFDF91CF91089529
:204AA000CF93DF93EC0150E040E060E0C4DF50E040E061E0CE01DF91CF91BDCF2F923F92B4
:204AC0004F925F926F927F928F929F92AF92BF92CF92DF92EF92FF920F931F93CF93DF9302
:204AE000EC01DEDF98EFC92E91E0D92E8E0104581E4F2AE0A22E22E0B22E3E012AE7621A36
:204B00002EEF720A7801180144244A943FE0532EF601819191916F01F701819391937F0139
:204B2000F501819191915F01A201481B590B61E0CE0181DFF701529142914F0160E0CE0104
:204B40007ADF8FE19EE40197F1F700C00000F40180819181199913C001968115F0E19F0799
:204B600050F4F40191838083F4014081518160E0CE0161DFECCFF40111821082F5CF0197DD
:204B800091838083E614F70409F0C2CFFE01EC57FE4F30E020E0D8010E5F1F4F12968D9166
:204BA0009C9113974D915C91841B950B280F391FE017F10781F7369527953695279580810F
:204BC0009181820F931FF30191838083820F931FFE01E857FE4F918380833296820F931F85
:204BE00091838083F101CE58DE4F80819181821B930B97FD1EC0811540E1940714F08FEFC5
:204C00009FE092938293CE17DF0779F7DF91CF911F910F91FF90EF90DF90CF90BF90AF9016
:204C20009F908F907F906F905F904F903F902F90089590E080E0E5CFCF93DF939C01E62F15
:204C4000F0E0DF01AA0FBB1FA20FB31FA95BBF4F8D919C911197840F951F8D939C93D90119
:204C60008EE1689FA00DB11D1124A651BE4F9EE081E06D917D91640F751F6115710579F0C3
:204C8000ED01229779836883915099F7E20FF31FE859FD4F91E09083DF91CF91089580E034
:204CA000F3CFCF93DF9370E0FC01E60FF71FDF01AB54BF4F2C9130E02F5F3F4F5CE0529F03
:204CC000D001539FB00D1124EC01CC56DF4F0990D881C02D5C9F90015D9F300D1124605D4C
:204CE0007E4F660F771F680F791FEB0188819981820F931F840F911D8A179B075CF0E15B6F
:204D0000FF4F20812A0F3B2F311D8217930724F00C97FBCF0C96F0CF8A1BDF91CF9108958C
:204D20000F931F93CF93DF939C01C62F842F66E00E948336D92FAC2FB0E090E0AC014F5F27
:204D40005F4FF901EA0FFB1FE859FD4F60816623B9F16FE06A9FF0016B9FF00D1124DF0192
:204D6000A80FB91FAC50BF4FAA0FBB1FA20FB31F0D911C91E40FF51FEC50FF4FEE0FFF1F8D
:204D8000E20FF31F80819181801B910B66E070E00E948F36D69FA001D79F500D1124400F5C
:204DA000511F57FD24C0411580E1580714F04FEF5FE06C2FC901DF91CF911F910F91F8CB6C
:204DC000EFE0EA9FB001EB9F700D1124FB01E80FF91FE854FF4FEE0FFF1FE20FF31F00815A
:204DE0001181FB01E40FF51FE854FF4FC7CF50E040E0DFCF2F923F924F925F926F927F928A
:204E00008F929F92AF92BF92CF92DF92EF92FF920F931F93CF93DF93CDB7DEB72C970FB601
:204E2000F894DEBF0FBECDBF2C0169874A87842F66E00E948336392E2985822E912CA82F55
:204E4000B0E0BD016F5F7F4FF201E80DF91DE859FD4F2081222309F435C12FE0289DF0013F
:204E6000299DF00D1124AE0FBF1FAC50BF4FAA0FBB1FA40DB51D6D907C90E60FF71FEC502F
:204E8000FF4FEE0FFF1FE40DF51D808191818619970966E070E00E948F367C876B87880CCE
:204EA000991C840C951C34EA830E911CD4016D917C91161617060CF01CC1072E000C880BCA
:204EC000990BF201EC54FF4F2081EB85FC852E9F80012F9F100D1124012E000C220B330B07
:204EE0003F932F931F930F93A12CB12C6501E12C10E2F12E00E010E020E030E0A9010E9470
:204F0000EC340F900F900F900F90D4018D919C9197FF27C0F201EC54FF4F2081EB85FC8545
:204F20002E9F50012F9FB00C1124B194A194B1080B2C000CCC08DD08BC01990F880B990BC9
:204F40001F921F921F921F92E12CF12C870120E030EE4FEF5FEF0E94EC340F900F900F9092
:204F60000F90660D771D2B853C85329EA001339E500D11241B01240E351EC101032C000CA8
:204F8000AA0BBB0B8D839E83AF83B887032E000C440B550B29833A834B835C836B847C8403
:204FA000719461947108072C000C880899088A856CE00E948336492F50E0465E5E4F5C877C
:204FC0004B87DA016C9170E090E080E0BC81BF93EB81EF933F932F9364015301E12CF12C13
:204FE0008701EA9420E030E0A9010E94EC342D813E814F815885620F731F841F951F0F901C
:205000000F900F900F9050E040E097FD40C0AB85BC856C9170E090E080E0BC81BF93EB8146
:20502000EF93FA81FF9329812F9320E030E0A9010E94EC342D813E814F815885620F731FDC
:20504000841F951F0F900F900F900F904FEF5FE06115704181059105D4F4AB85BC856C9187
:2050600070E090E080E0BC81BF93EB81EF93FA81FF9329812F9320E030E0A9010E94EC349E
:20508000A101460F571F0F900F900F900F906985C2012C960FB6F894DEBF0FBECDBFDF91FD
:2050A000CF911F910F91FF90EF90DF90CF90BF90AF909F908F907F906F905F904F903F90DD
:2050C0002F9076CA4FE0489D9001499D300D1124F901EA0FFB1FE854FF4FEE0FFF1FE40D31
:2050E000F51D60807180F901E60FF71FE854FF4FC8CE70E060E009CFFF920F931F93CF93F9
:20510000DF938C01F62EEC01C60FD11DFE01E455FF4F4083C6DDC055DF4F8883482F6F2D6F
:20512000C801DF91CF911F910F91FF9063CECF92DF92EF92FF920F931F93CF93DF93FC01BD
:205140001482128281E085831382DB01CA010197A109B1098B3A9E4EA105B10508F069C056
:205160002CEA3EEEA7E4B7E78281C82F6901082E02C0D694C7940A94E2F7F12CE12C4C15A1
:205180005D056E057F0570F46D01082E02C0D694C7940A94E2F7F12CE12C4C155D056E0550
:2051A0007F0518F48F5F8283DFCF8481282F30E0D901AA0FBB1FAE52BE4F0D911C910C2E53
:2051C00002C0169507950A94E2F76801F12CE12C4C155D056E057F05A8F4220F331FD90109
:2051E000AC52BE4F2D913C910C2E02C0369527950A94E2F76901F12CE12C4C155D056E0555
:205200007F0518F48F5F8483D0CFD801A21BB30B9D0136952795021B130B30E020E004178B
:2052200015072607370718F08F5F8483158281E001C080E0DF91CF911F910F91FF90EF90A3
:20524000DF90CF900895CF93DF93FC01E257FE4FA4EBB1E030E020E0219331934D915D9118
:20526000EF01CA58DF4F59834883235F3E4F233C4FE0340789F7FC01E759FD4F21E02083C2
:20528000E951F24025E520838E599D4FFC0111821082DF91CF910895CF92DF92EF92FF92AF
:2052A0000F931F93CF93DF93EC016B017A01CBDFFE01E15BFF4F84E58083EA59FF4F108230
:2052C000E556F10980838E010A541F4FF8011082E556F1098083EA59FF4F1082E556F10920
:2052E0008083EA59FF4F1082F89456985E9A55985D9A3B98439852985A9821982998549A40
:205300005C983D98459A53985B9A229A2A98579A5F98399A41983D96D182C082E054F1095D
:20532000F182E082E0E7F0E080818D7F808310821092B100E8E6F0E01082808184608083F4
:20534000808182608083ECE6F0E010828081886080836FEFCE0117D910926D006FEFCE01EE
:2053600012D9EFE6F0E010828081816080831092800082E0809381007894239A259A209ACC
:205380002D982898FE01E759FD4F81E08083F80110820E94B621C054DF4F188286E00E94B1
:2053A000C121DF91CF911F910F91FF90EF90DF90CF900C94D221662311F05C9A08955C986B
:2053C0000895FC01E753FF4F9081662319F09460908308959B7FFCCFFC01E753FF4F9081E9
:2053E000662319F09061908308959F7EFCCFFC01E753FF4F9081662319F0916090830895C9
:205400009E7FFCCFFC01E753FF4F9081662319F09062908308959F7DFCCFFC01E753FF4F6E
:205420009081662319F09260908308959D7FFCCFFC01E753FF4F9081662319F0986090830D
:205440000895977FFCCF662311F0419A08954198089561110BC0FC01E753FF4F808144232C
:2054600019F08064808308958F7BFCCF6130D9F7FC01E753FF4F8081442311F08068F2CFD2
:205480008F77F0CF86B183FB882780F991E0892708950F931F93CF93DF939C0186B1F901B6
:2054A000E257FF4F85FB882780F991E089278083BB9640815181D901A554BF4F4D935C9305
:2054C000E901C457DF4F6881062F10E081E090E0A0E0B0E0062E04C0880F991FAA1FBB1FC0
:2054E0000A94D2F74E9947C0842B952B9183808340815181085F1F4F81E090E0A0E0B0E088
:2055000004C0880F991FAA1FBB1F0A95D2F74D9939C0842B952B918380836F5F6770688378
:2055200081E090E0A0E0B0E004C0880F991FAA1FBB1F6A95D2F7C82FC095F901E853FF4F3D
:20554000D08131968081E257F10990819F5F9531F0F4908361E00E948A2161E08D2F0E9406
:205560008A2161E08C2F0E948A21DF91CF911F910F910C94812180959095482359235183E0
:205580004083B6CF8095909584239523C4CF1082E1CFCF93DF93EC01FC01E753FF4F61E0CE
:2055A00080810E948A21FE01E853FF4F61E080810E948A21C953DF4F61E088810E948A21A5
:2055C000DF91CF910C94812187549F4FFC018081918102C0969587956A95E2F78170089571
:2055E000FC01E754FF4F20813181062E02C0369527950A94E2F720FF0EC085549F4FFC012D
:205600008081918102C0969587956A95E2F7F1E08F278170089580E00895FC01E754FF4FFE
:2056200020813181062E02C0369527950A94E2F720FD0CC085549F4FFC018081918102C0A1
:20564000969587956A95E2F78170089580E00895EF92FF920F931F93CF93DF93EC010E94D7
:20566000D821882309F456C08E0100541F4FD801EC90F12CEE0CFF1CEC0EFD1EF701EA5252
:20568000FF4FBCECEB0EF11CD7018D919C91918380830E94DD21F70191838083D8012C918F
:2056A000822F90E0DE01A80FB91FA058BF4FEC91EF5FEC93E370AC01440F551F440F551F7D
:2056C000E40FF52FF11DBC96EE0FFF1FEC0FFD1F8A599F4F880F991FC80FD91F888199810F
:2056E000918380832F5F253090F4F8012083D801EC91F0E0E45EFD4F80810E94C121DF91E7
:20570000CF911F910F91FF90EF900C94D221D8011C92EDCFDF91CF911F910F91FF90EF90C7
:205720000895CF92DF92FF920F931F93CF93DF93EC018C0108501F4F6C014AEFC41A4EEF40
:20574000D40AF801EC57FF4F4081518160E0CE0172D98FE39CE90197F1F700C000008EE14E
:20576000F82ECE0175DFEFE9FFE03197F1F700C00000FA94F110F5CF64E0CE010E945D2232
:20578000F801819391938F01EC15FD05D1F6DE01AE5FBE4FFE01EC5FFE4F2D913C91808162
:2057A0009181281B390BC25FDE4F81919191821B930B97FD13C0893E43E0940714F088EE2D
:2057C00093E091838083CE17DF0779F7DF91CF911F910F91FF90DF90CF90089590E080E01A
:2057E000F0CF8F938FB78F939F93EF93FF93E2EFF3E084AD95AD019695AF84AFFF91EF91E5
:205800009F918F918FBF8F91189529B123FB222720F931E0232781579F4FFC012083822F51
:205820000895CF92DF92EF92FF92CF93DF93EC0160918400809185000E944E356C01F12C6C
:20584000E12C6CAD7DAD90E080E0CB01772766276C297D298E299F29DF91CF91FF90EF9099
:20586000DF90CF900895CF92DF92EF92FF92CF93DF93EC0181E08EAF1B8A188E198E1A8EE0
:205880001B8ECE01CEDF6B017C0180E09B89911111C0811124C0CE01C4DFAB01BC014C194D
:2058A0005D096E097F0981E0413A56486140710568F7EBCF9B89977091F0811110C0CE01FC
:2058C000B0DFAB01BC014C195D096E097F0981E0413055436C40710568F780E0EBCF9B89DD
:2058E0009770913091F0811110C0CE019ADFAB01BC014C195D096E097F0981E04130554318
:205900006C40710560F780E0EACF9B899770923091F0811110C0CE0184DFAB01BC014C1925
:205920005D096E097F0981E0413055436C40710560F780E0EACF9B899770933091F0811105
:2059400010C0CE016EDFAB01BC014C195D096E097F0981E0413055436C40710560F780E0E5
:20596000EACF1EAE91E08927DF91CF91FF90EF90DF90CF9008951F93CF93DF93EC0161E084
:205980000E94C322CE016FDF182F6FEFCE010E94C32260E070E0CB01112321F06C897D89CC
:2059A0008E899F89DF91CF911F9108952F923F924F925F926F927F928F929F92AF92BF9231
:2059C000CF92DF92EF92FF920F931F93CF93DF93CDB7DEB728970FB6F894DEBF0FBECDBF9C
:2059E00098878F83062F69017A01BA01A9019FDB802F90E02F813885280F391FF901E85927
:205A0000FD4F4081442309F46CC0FC01EC58FF4FEE0FFF1F2F813885E20FF31F408151813C
:205A20005A83498349815A81602F8F81988503D8602F8F8198859FDF4B015C01C701B6011F
:205A400028E730E040E050E00E94B636712C10E0612C512C412C8C149D04AE04BF0409F492
:205A6000C8C0A90170E060E0D501C4018C199D09AE09BF09481759076A077B0708F0B9C0DC
:205A800063948C149D04AE04BF0430F481149104A104B10409F05DC0F4E04F0E511C1111DB
:205AA00002C0739411E037E963125CC090E080E028960FB6F894DEBF0FBECDBFDF91CF91D6
:205AC0001F910F91FF90EF90DF90CF90BF90AF909F908F907F906F905F904F903F902F9054
:205AE0000895AF81B88512964C9112972B543F4FF9012081642F621B770B9B016CE0629F4B
:205B0000A001639F500D11241496EC911497E40FF52FF11D880F991F9D01280F391FD90103
:205B2000DF968D919C916CE070E00E948F36E69FA001E79F500DF69F500D1124295B3F4F60
:205B4000D9018D919C91FA01E80FF91FFA83E98369CF24E0421A5108112309F4A4CF739491
:205B600010E0A1CF48E0471508F443C049815A81440D551D602F8F8198850E941B25662DA9
:205B800067708F8198850E94D6238F81988501DD602F8F819885EFDE4B015C0128E730E00A
:205BA00040E050E00E94B63656CFC701B6012CE231E040E050E00E94B6362230310560F48A
:205BC000C701B60120E930E040E050E00E94B6362230310508F46ACF89819A81840D951D2A
:205BE00067CF41E0441A51081123C9F1339410E036C0C701B60128E532E040E050E00E946C
:205C0000B6362230310588F287E9282E312CDA01C901AA27BB278B839C83AD83BE838C14DD
:205C20009D04AE04BF04C1F2D501C4018C199D09AE09BF092B813C814D815E8128173907A1
:205C40004A075B0748F68C149D04AE04BF0448F23FEF431A530A111102C0339411E02A9421
:205C6000222009F423CF49815A81440D551D68E0631508F4B1CF602F8F8198850E941B25B1
:205C8000602F8F81988577DE4B015C01C8CFCF93DC01C62F842F9D01260F311DF901E15B75
:205CA000FF4F90819417F8F06CE00E948336E92FF0E0EE0FFF1FAF014E525E4F2B543F4F3E
:205CC000F9019081890F9927991FFA012081318102C0369527958A95E2F750E040E06C2F2F
:205CE000CD01CF9163CE90E080E0CF9108958F929F92AF92BF92CF92DF92EF92FF920F930E
:205D00001F93CF93DF93EC01862EC62ED12CF601EC58FF4FEE0FFF1FE80FF91FA080B18067
:205D20008EE18C9D80018D9D100D1124DE01A00FB11FA851BE4FF601EE0FFF1FEC0FFD1F41
:205D4000E95BFF4F208131812D933C93780102511E4F0C0F1D1F75E0972E692DCE010E941E
:205D6000D6238CE08915C0F5F80182819381009709F03EC093940E5F1F4FFFE09F12EDCF7F
:205D80008EE0E81A8EEFF80AFE01EE0DFF1D24E080819181880F991F42815381841B950BC2
:205DA000929382932150A1F7A501682DCE010E941B25CC0DDD1DC859DD4F81E08883DF91B8
:205DC000CF911F910F91FF90EF90DF90CF90BF90AF909F908F900895492D440F490D440F4C
:205DE000682DCE0154DF009709F4BECFF80107C0880F991F20813181821B930B4E96958352
:205E00008483B8CF3F924F925F926F927F928F929F92AF92BF92CF92DF92EF92FF920F93D5
:205E20001F93CF93DF93EC01362EA62EB12C8C010A0D1B1DF801E859FD4F10828EE18A9D50
:205E400060018B9DD00C1124CC0EDD1E460122E1821A2EEF920AD4014D915C91CE010E9423
:205E60001B25632DCE0187DD2B013C017501EE0CFF1CDE01AE0DBF1DDF96F601EE50FE4FBE
:205E800080819181F40120813181821B930B8D939C93B301A201CE014AD9D82E8823C1F171
:205EA000DD24D394411451046104710409F4D12C8A81F801EB54FF4F8083E256F1099CE0BA
:205EC000899F802D11248083CE018E0D9F1D9C01295B3F4F4EE14A9DF0014B9DF00D1124BF
:205EE000EC0FFD1FE251FE4FCF96DC018D919C916CE070E014D78C81869FA001879F500DA1
:205F0000112480819181841B950BF90191838083A30192015695479537952795632DCE0104
:205F200045DD4C0162E0CE010E94D6238114910409F44CC0DE01AE0DBF1DDF968EE18A9D92
:205F4000F0018B9DF00D1124EC0FFD1FE251FE4F80819181881A990A8D929C925E01AE0CA1
:205F6000BF1CF501FF9680819181C2978F39974078F1D12CEC0EFD1EF701E95BFF4F8081AA
:205F800091810197803D974008F05DC0DD2009F45AC0F801E15BFF4F8CE380832FE3E20EA3
:205FA000F11CD7010D911C91C8016CE070E0B7D68081869F9001879F300D1124200F311FF1
:205FC0002F3F3F4050F58F5F8083F2CFD12CC6CFDD2079F2F801EB54FF4F108227E4A20E10
:205FE000B11CD5018D919C911197969587958D939C932CEA3EEE40E050E0632DCE01D6DCD2
:206000004C0160E0CE010E94D6238114910409F4B0CFF50191828082ADCF81508083632DF8
:20602000CE01DF91CF911F910F91FF90EF90DF90CF90BF90AF909F908F907F906F905F90BC
:206040004F903F9054CE80E0DF91CF911F910F91FF90EF90DF90CF90BF90AF909F908F9038
:206060007F906F905F904F903F9008956F927F928F929F92AF92BF92CF92DF92EF92FF92FE
:206080000F931F93CF93DF937C01062FC62FD0E06C01CC0EDD1EF601E859FD4F6080662055
:2060A00009F453C0EC5BF1407080CC0FDD1FCE0DDF1D5E0184EAA80EB11CF5018080918063
:2060C00011821082F601E055FF4F1081143240F0812F6CE018D61C5DF4EF8F9F100D112454
:2060E000412F602FC7010E949026C851DF4F0990D881C02D412F602FC701C9DD0097F9F06E
:20610000AC014C1B5D0B602FC7010E941C26F50191828082472D602FC7010E947C28862DF9
:20612000DF91CF911F910F91FF90EF90DF90CF90BF90AF909F908F907F906F900895F601E5
:20614000E859FD4F1082612CE2CFDF91CF911F910F91FF90EF90DF90CF90BF90AF909F9029
:206160008F907F906F904ECE5CDB2CE096958795779567952A95D1F7089553DB24E09695C3
:206180008795779567952A95D1F708950F931F93CF93CFB7F89460918400809185007ED492
:2061A000AC0180912E0490912F04B0E0A0E0DC019927882770E060E0842B952BA62BB72B8D
:2061C0008093FD039093FE03A093FF03B09300044A9966C04091010450910204609103044E
:2061E00070910404481759076A077B0708F050C08C019D01041B150B260B370BB901A8019C
:206200004093F9035093FA036093FB037093FC03E0910504EF5FE0930504E77014E0E19FCD
:20622000F0011124E25FFB4F408351836283738310920A0410920B0410920C0410920D0475
:20624000EEE0F4E040E050E0BA010191119121913191400F511F621F731F24E0EE32F207FA
:20626000A1F740930A0450930B0460930C0470930D0423E076956795579547952A95D1F743
:20628000409306045093070460930804709309048093010490930204A0930304B09304045E
:2062A000CFBFCF911F910F91089582EF93E0ADDA882329F0E0917704F091780409940895B1
:2062C0001F920F920FB60F9211242F933F934F935F936F937F938F939F93AF93BF93EF93EB
:2062E000FF938091F103882391F0DFDFFF91EF91BF91AF919F918F917F916F915F914F914D
:206300003F912F910F900FBE0F901F9018953EDFEDCF339904C082EF93E00C9422220895B8
:206320001F920F920FB60F9211242F933F934F935F936F937F938F939F93AF93BF93EF938A
:20634000FF93E7DFFF91EF91BF91AF919F918F917F916F915F914F913F912F910F900FBE19
:206360000F901F9018951F921FB61F9211248F939F93AF93BF93EF93FF93EAE7F4E0808114
:206380009181A281B3810196A11DB11D80839183A283B383FF91EF91BF91AF919F918F910F
:2063A0001F901FBE1F9018958EEA91E09093F3038093F2030895CF93CFB7F8948091600663
:2063C000811123C0EAE9F0E08491E6E8F0E09491E82FF0E0EE0FFF1FE255FF4FA591B491CB
:2063E000EC91E92319F461E08AE051D461E08AE012D48CB580618CBD8CB580648CBD61E08C
:206400008DE009D461E08BE006D4809160068F5F80936006CFBFCF9108959FB7F894809150
:206420006006811107C08CB58F7B8CBD10925F069FBF08958150809360068111F9CFF3CFA1
:20644000FC01818D228D90E0805C9F4F821B91098F7399270895FC01918D828D981731F0B8
:20646000828DE80FF11D858D90E008958FEF9FEF0895FC01918D828D981761F0A28DAE0F2A
:20648000BF2FB11D5D968C91928D9F5F9F73928F90E008958FEF9FEF0895FC01538D448D7C
:2064A000252F30E0842F90E0821B930B541710F0CF9608950197089581EA93E3892B41F0B2
:2064C00080E090E0892B21F03CD181110C9400000895FC01A48DA80FB92FB11DA35ABF4FA5
:2064E0002C91848D90E001968F739927848FA689B7892C93A089B1898C9180648C93938D21
:20650000848D981306C00288F389E02D80818F7D80830895CF93DF93EC01888D8823B1F017
:20652000AA89BB89E889F9898C9185FD03C0808186FD0CC00FB607FCF7CF8C9185FFF2CF4F
:20654000808185FFEDCFCE01C4DFEACFDF91CF910895EF92FF920F931F93CF93DF93EC013B
:20656000F62E81E0888F9B8D8C8D981316C0E889F989808185FF11C0EE89FF896083E88921
:20658000F98980818064808381E090E0DF91CF911F910F91FF90EF9008950B8D10E00F5FFF
:2065A0001F4F0F731127E02E8C8D8E110BC00FB607FCFACFE889F989808185FFF5CFCE0186
:2065C00088DFF2CFEB8DEC0FFD2FF11DE35AFF4FF0820B8FEA89FB8980818062D4CFCF9271
:2065E000DF92EF92FF921F93CF93DF93EC016A017B01122FE889F98982E08083C11481EEE1
:20660000D806E104F10499F060E079E08DE390E0A7019601ABD321503109410951095695C9
:20662000479537952795211580E1380790F0E889F989108260E874E88EE190E0A701960159
:2066400095D321503109410951095695479537952795EC85FD853083EE85FF852083188E4E
:20666000EC89FD891083EA89FB89808180618083EA89FB89808188608083EA89FB898081D5
:2066800080688083EA89FB8980818F7D8083DF91CF911F91FF90EF90DF90CF9008952F934D
:2066A0002FB72F938F939F93EF93FF93E0917106F09172068081E0917706F091780682FD7C
:2066C00019C0908180917A068F5F8F7320917B06821741F0E0917A06F0E0EF59F94F958FDE
:2066E00080937A06FF91EF919F918F912F912FBF2F9118958081F6CF1F920F920FB60F920E
:2067000011242F933F934F935F936F937F938F939F93AF93BF93EF93FF9381E696E0D9DE38
:20672000FF91EF91BF91AF919F918F917F916F915F914F913F912F910F900FBE0F901F903F
:20674000189581E696E07CDE9C0181E0232B09F480E00895E1E6F6E01382128288EE93E060
:20676000A0E0B0E084839583A683B78385E292E09183808385EC90E09587848784EC90E0AF
:206780009787868780EC90E0918B808B81EC90E0938B828B82EC90E0958B848B86EC90E0D4
:2067A000978B868B118E128E138E148E0895CF92DF92EF92FF920F931F93CF93DF937C01FE
:2067C0006A0110E000E00C151D0581F0EB01D701ED91FC910190F081E02D6991C70109958C
:2067E000892B21F00F5F1F4FBE01EDCFC801DF91CF911F910F91FF90EF90DF90CF9008951B
:20680000CF93DF93EC01DB01AB2B81F0FB0101900020E9F73197AF01461B570BE881F981E9
:206820000280F381E02DDF91CF91099490E080E0DF91CF910895E4CF63E372E0E1CF0F930E
:206840001F93CF93DF93D82FC92FDADF8C018D2F9C2FF2DF800F911FDF91CF911F910F91B6
:2068600008956F927F928F929F92AF92BF92CF92DF92EF92FF920F931F93CF93DF93CDB7F5
:20688000DEB7A1970FB6F894DEBF0FBECDBF3C01142F052F962E872E19A2223008F42AE0A4
:2068A0005E0181E2A80EB11CC22ED12CF12CE12C612F702F892D982DA701960157D2812FBA
:2068C000902FA92DB82D122F032F942E852E6A300CF5605DF50162935F018C159D05AE05BD
:2068E000BF0530F7BF01C3018BDFA1960FB6F894DEBF0FBECDBFDF91CF911F910F91FF9092
:20690000EF90DF90CF90BF90AF909F908F907F906F900895695CDECFF901EF2B41F4DC010B
