:020000040000FA
:200000005EC000000C940B340C94323480C000000C948D2F0C94632F7AC0000078C000009D
:2000200076C000000C94B02F72C0000070C000006EC000000C94152F6AC0000068C0000045
:200040000C94A83464C000000C9459330C9486335EC000005CC000005AC0000058C000000F
:2000600056C0000054C000000000000800020100000304070000000000000000010204082E
:200080001020408001020408102001020408102004040404040404040202020202020303C0
:2000A0000303030300000000250028002B0000000000240027002A000225D631B4331124FD
:2000C0001FBECFEFD8E0DEBFCDBF12E0A0E0B1E0E4E3FDE602C005900D92AA3EB107D9F791
:2000E00026E0AAEEB2E001C01D92A73CB207E1F710E0CFE5D0E004C02197FE010E943D3608
:20010000CC35D107C9F70E949C340C947E3678CF8091B203882329F081E08093480410924D
:20012000470408950C9468360C947036DC01ED91FC910190F081E02D0994DC01ED91FC91D7
:200140000190F081E02D0994861797074CF08417950724F081E0461757074CF480E007C0AE
:2001600048175907DCF381E064177507BCF308951092F0021092EF02E1E0F3E0A1EFB2E070
:2001800011921D9283E0E131F807D1F70895E82FE695E695E695F0E0EF5FFC4F208130E092
:2001A0008770A90102C0559547958A95E2F7CA0181700895CF931092F002C0E08C2FE7DFAE
:2001C000882339F08091F0028F5F8093F002C093EF02CF5FCF3791F7CF910895282F269546
:2001E0002695269530E0482F477081E090E0A0E0B0E004C0880F991FAA1FBB1F4A95D2F70C
:20020000F901EF50FD4F4081482B4083F901EF5FFC4F2081822B80831092EF02CBCF282FFA
:2002200026952695269530E0482F477081E090E0A0E0B0E004C0880F991FAA1FBB1F4A95D9
:20024000D2F78095F901EF50FD4F9081982390839091EE02911106C0F901EF5FFC4F90813F
:2002600089238083A7CF10922B038031F9F02091660430E02F5F3F4F82171306B9F46036B3
:2002800098F0677081E090E0A0E0B0E004C0880F991FAA1FBB1F6A95D2F780959091A903BE
:2002A00089238093A9030895862FB9CF0895E1EFF2E0A1E0B3E081918D9383E0E130F80701
:2002C000D1F778CF0F931F93CF93DF9302E715E0CDEED0E0F80160810E5F1F4FCE01019782
:2002E00023DFF80132976181CE011EDFC958DF4FC034F3E0DF0771F78FEB93E013DF682FB2
:2003000061608FEB93E0DF91CF911F910F910CCFFF920F931F93CF93DF9302E715E0CCEEE3
:20032000D0E0CE01FFDEF82ECE010196FBDE6F2D0E949834F801819391938F01C958DF4FE2
:20034000CF33F3E0DF0769F781EC94E0DF91CF911F910F91FF900C944E2A6091060561502D
:2003600089EC93E0E1DE8FEB93E0DCDE682F62608FEB93E0D9CEEF92FF920F931F93CF937A
:20038000DF9389EC93E0CEDE809306050BEF15E0CAECD3E0FF24F394CE01C4DEE82ECE01E1
:2003A0000196C0DE6E2D0E949834F801819391938F01F0921B062296C83EF3E0DF0761F7CC
:2003C000DF91CF911F910F91FF90EF9008950F931F93CF93DF9303EE15E0C8EED3E0F801E2
:2003E00060810E5F1F4FCE019FDEF80132976181CE01019699DE2296C115F4E0DF0779F7BC
:200400008FEB93E08FDE682F64608FEB93E0DF91CF911F910F9188CEFF920F931F93CF937D
:20042000DF9303EE15E0C8EED3E0CE017BDEF82ECE01019677DE6F2D0E949834F8018193DB
:2004400091938F012296C115F4E0DF0771F7DF91CF911F910F91FF900895FF920F931F9307
:20046000CF93DF9304E511E0C8EED3E0F8016081F1800E5F1F4FCE0157DE6F2DCE01019639
:2004800053DE2296C115F4E0DF0781F7C5DFE6E3F1E0A6E6B5E0819191918D939D9381E027
:2004A000E435F807C1F7DF91CF911F910F91FF9009CF8091500380930401089520914904CE
:2004C00080912A032223A9F0811105C090914A049F5F90934A0490914A04291710F4109276
:2004E0004A04E0914A04F0E0E25EFB4F908190930C0420914404222331F1811105C0909179
:2005000045049F5F9093450490914504291710F0911102C010924504E0914504F0E0EB5F5B
:20052000FE4FE081E093BC039091F00291110BC0F0E0EE0FFF1FE95EFE4F208131813093C6
:20054000410420934004811105C0809157038F5F809357039091570380915603981710F0AE
:2005600010925703E0915703F0E0E75AFC4F8081809367040895CF92DF92EF92FF920F93B6
:200580001F93CF93DF93282F6CE00E94CC35492F009140041091410490E080E030E0B801C3
:2005A000082E02C0769567950A94E2F760FD31E001968C30910599F7C80102C0969587950C
:2005C0004A95E2F780FD3FC03323E9F130E0C22FD0E0ECE0F0E0CE01830F911DBF010E94F9
:2005E000EC35A80102C0569547958A95E2F740FD02C03F5FF0CF40E0ECE0E20FF0E08CE03B
:20060000C82ED12CE42EF12CCF018E199F09B6010E94EC35B80102C0769567958A95E2F7A5
:2006200060FD02C04F5FEECF4317B8F4CE19DF091C161D0694F4241B8091060581508217B9
:2006400010F4340F231B822FDF91CF911F910F91FF90EF90DF90CF900895230FEDCF4F92FC
:200660005F926F927F92AF92BF92CF92DF92EF92FF920F931F9380914804882309F47DC06B
:20068000E0910C0428E0E29FF0011124E453FC4F8091CA039091CB03E80FF91F808134E0B7
:2006A000839FC0011124209129016091BA05211154C08B3F910508F468C02C01712C612C76
:2006C0008091060581501F921F921F928F938CE0A82EB12CC12CD12CE12C14E0F12E00E0EF
:2006E00010E02AEF30E040E050E0C301B2010E945934862F40DF8091060581501F921F92C8
:200700001F928F932AEF30E040E050E0C301B2010E945934862F2FDF2DB73EB7285F3F4F36
:200720000FB6F8943EBF0FBE2DBF813560F58091060581501F921F921F928F932AEF30E05C
:2007400040E050E0C301B2010E945934862F13DF0F900F900F900F90682F81EC94E01F9158
:200760000F91FF90EF90DF90CF90BF90AF907F906F905F904F900C94382C60E081EC94E06E
:200780000E94F12590CF80E5E7CF50E040E060E081EC94E01F910F91FF90EF90DF90CF908A
:2007A000BF90AF907F906F905F904F900C94AD264F925F926F927F92AF92BF92CF92DF9214
:2007C000EF92FF920F931F93CF93E091AA0340913E04E3FF58C0642F411101C066E070E0EA
:2007E00080916304909164040E94D83563707727615071097093B0056093AF0580910C042D
:2008000090E06091CA037091CB0320915503222389F0DC01A85ABB4F2C9130E0062E02C068
:20082000359527950A94E2F720FF11C020910101222369F0DC0103E0AA0FBB1F0A95E1F7B0
:20084000A453BC4FA60FB71F8C918093ED0280910F049091100492502091C0033091C103B8
:20086000820F931F20914604222351F181152EEF92070CF48FC0811552E095070CF488C06C
:200880008FEF91E085C08091B003811114C0209140043091410480912F0390913003281729
:2008A000390749F480913A0390913B039093B0058093AF05A3CF1092B0051092AF059ECFE3
:2008C00020910D04211104C020914804211105C020914704222309F452C02091ED0254E048
:2008E000259F90011124820F931F97FD53C0811524E0920714F08FEF93E09093C70380935C
:20090000C603411101C04CE0FE2FF074E0FF45C0242F30E08091630490916404B9010E949A
:20092000D8353595279582179307B8F189E080939205FF23E1F1E0912A01F0E0EE0FFF1FBA
:20094000E15FFB4F608171817695679576956795609581EC94E00E94832580917104809373
:200960007004CF911F910F91FF90EF90DF90CF90BF90AF907F906F905F904F9008958115DA
:200980005EEF95073CF0811522E092070CF078CF9E5FB3CF90E080E0B0CFFF2321F088E065
:2009A00080939205C8CF80914F048093920580914E049091C403992309F4ECC0882309F490
:2009C00045C08091B0038823C1F060E081EC94E00E948C26882389F08091480481110DC09D
:2009E00080914704811109C06091EF0281EC94E00E940F2C1092BF039ECF6091C603709114
:200A0000C70390E080E02091060521501F921F921F922F93A12CB12C6501EE24EA9413E0A7
:200A2000F12E00E010E020E030E0A9010E945934862FA1DD682F81EC94E00E940F2C1092B4
:200A4000BF030F900F900F900F9075CF8091C6039091C7038B3F910570F18091B003811138
:200A60001AC06091C6037091C70390E080E02091060521501F921F921F922F93A12CB12C9B
:200A80006501E12C14E0F12E00E010E02AEF30E040E050E0CBCF60E081EC94E00E948C2678
:200AA0008823F9F2809148048111DBCF809147048111D7CF99CF60911104709112047695E3
:200AC000679576956795680F791F90E080E01F921F921F92C5E4CF93A12CB12C65011AEFFD
:200AE000E12EFF24F39400E010E020E030E0A9010E9459340F900F900F900F9050E040E0B8
:200B000097FD42C0609111047091120476956795769567958091C6039091C703680F791F40
:200B200090E080E01F921F921F92CF9320E030E0A9010E9459340F900F900F900F9045E4E2
:200B400050E06634710581059105F4F4609111047091120476956795769567958091C6034C
:200B60009091C703680F791F90E080E01F921F921F92CF9320E030E0A9010E945934AB01A1
:200B80000F900F900F900F9061E081EC94E00E94AD2630CF4090C6035090C703882321F143
:200BA000712C612C80910605815090E0880F991F092E000CAA0BBB0BBF93AF939F938F93B9
:200BC000A12CB12C6501E12C14E0F12E00E010E020E030E0A901C301B2010E94593481EC48
:200BE00094E00E94212C2BCF5BEF45165104F0F0712C612C80910605815090E0880F991FE8
:200C0000092E000CAA0BBB0BBF93AF939F938F93A12CB12C6501EE24EA9413E0F12E00E09C
:200C200010E02AEF30E040E050E0D5CF60911104709112047695679576956795640D751D79
:200C400044CF0F931F93CF93DF938091AA0384FD0EC085FFF6C086FDF4C063E070E083FDC8
:200C600002C06EE170E081EC94E00E94E22661E08091F002811101C060E081EC94E00E942E
:200C8000202D6CE081EC94E00E94E42D6091510381110FC06AE081EC94E00E94E42D6091B2
:200CA0005503811106C061E08091F002811101C060E081EC94E00E94412D8091480490913E
:200CC0001B04992309F4D7C060912E016111D7C0882309F4E6C0E0910C04F0E0E85AFB4F51
:200CE000808190E00090CA0302C0959587950A94E2F780FD6091010181EC94E00E941A2D6D
:200D00008091480490911B04992309F4CCC0882309F4CEC0E0910C04F0E0E05BFB4F608104
:200D200070E00090CA0302C0759567950A94E2F7617081EC94E00E942B2D60911B0481EC9E
:200D400094E00E94362D6CE081EC94E00E94E42D81113AC06DE081EC94E00E94E42D81113B
:200D600033C08091BE03882309F4A4C0E091BC03F0E0EE0FFF1FE95EFE4F80910E046081EF
:200D8000718102C0769567958A95E2F7617081EC94E00E944C2D60E081EC94E00E948C265E
:200DA000C1E0482F4C2760E081EC94E00E94682D62E081EC94E00E948C26482F4C2761E0AE
:200DC00081EC94E00E94682D8091BD03882309F47AC080915103882309F475C061E081EC58
:200DE00094E00E94572D1092BD038091B203882309F49BC0809136039091370390936404FE
:200E0000809363048091AA03282F2470982F9670963009F08FC088E080933E0460913E04E4
:200E200070E080916304909164040E94D83560910001892B09F060E081EC94E00E94572DCC
:200E400080C0E0910C04F0E0E05BFB4F808190E00090CA0302C0959587950A94E2F780FFB0
:200E600007C08091480460912D0170E08111FBCE70E060E0F8CE8823A1F080912E01882307
:200E800081F0E0910C04F0E0E85AFB4F808190E00090CA0302C0959587950A94E2F780FD3A
:200EA00029CF60E029CF882319F080912F012FCF60E03FCF8091480461E0882309F467CF45
:200EC00060911B0464CF6DE081EC94E00E940D2E811102C060E083CF6EE081EC94E00E940D
:200EE000E42D8111F7CF69E081EC94E00E94E42D8111F0CF80914D048111ECCF81EC94E0CB
:200F00000E94562F00911D0310911E0320911F0330912003601B710B820B930B683B7B4000
:200F20008105910508F05FCF59CF8091B4039091B50364CF222309F186E080933E049111D7
:200F40006DCF80914E038823F9F0809148048823D9F0E0910C04F0E0E85AFB4F808190E040
:200F60000090CA0302C0959587950A94E2F76091010180FD1AC060E018C081FF02C084E08D
:200F8000DCCF10923E04DBCF80914704882399F3C0E0D0E06C2F81EC94E00E94F02D811168
:200FA000D82FCF5FC830B1F76D2F81EC94E00E94622D81EC94E00E94022920911C0430916E
:200FC0001D04820F931F90931A068093190610924E03DF91CF911F910F910895CF93DF93B4
:200FE00081E0809301018091AA0387FF05C08091120383FD1092010180912A03811103C095
:2010000083E080933F04C0910C048091C503811110C080910D04811116C080910C048F3F02
:2010200071F180912A03882309F4A8C010922A0326C0D0E06D2F81EC94E00E94E42DDF5F2D
:20104000D830C1F7E6CF80912A03882309F465C010922A0388E0C89FF0011124E453FC4FCA
:201060008091CA039091CB03E80FF91F8091C6039091C7039695879596958795808380912D
:2010800053038F5F80935303909154039111A7C0803410F01092530381E080934E0388DB4E
:2010A00081EC94E00E943E2781EC94E00E943E27C8DD8091AA0384FFA6C070E060E081EC17
:2010C00094E00E94E22640918F05509190058091AA0385FF88C044348DEF58070CF490C0EA
:2010E00044343DE0530714F043E45DE044545D4F61E081EC94E00E94AD2681EC94E00E943B
:201100003E2781EC94E00E943E2763E070E081EC94E0DF91CF910C94E2268091C803909199
:20112000C90387309105ECF401969093C9038093C8032091670438E0239FC0011124263010
:20114000B0F020911303E22FE695F0E084599E4FE80FF91F808190E09093CB038093CA03B1
:2011600079CF1092C9031092C803A8D9E2CF84599E4FE091C803F091C903EACF8091C80332
:201180009091C90387309105ECF401969093C9038093C8032091670438E0239FC0011124E5
:2011A0002630B0F020911303E22FE695F0E084599E4FE80FF91F808190E09093CB038093C8
:2011C000CA035DCF1092C9031092C80377D9E2CF84599E4FE091C803F091C903EACF89178E
:2011E00008F058CF59CF403388EF58074CF0403338E0530714F04FE258E04053584F78CF50
:2012000050E040E075CFDF91CF9108958091B303882351F081E08093B20380912A03882308
:20122000D9F010922A0304C08091B2038111F5CF8091360390913703A0913803B0913903A8
:201240000196A11DB11D8093360390933703A0933803B093390308952091160130E050E030
:2012600040E0609136037091370380913803909139030E94FF35672B682B692B49F481E013
:2012800080931B0480914804882391F2A7DED0CF10921B04CDCF21E0209300012091AA03FD
:2012A00027FF05C02091120322FD10920001E0910201F0E0E853FE4F208130E050E040E0EE
:2012C0000E94FF35672B682B692B41F481E080931B0480914804882319F080CE10921B0497
:2012E00008958F929F92AF92BF92CF92DF92EF92FF9281EC94E00E94572F4B015C018091C6
:20130000400390914103A0914203B0914303B501A401481B590B6A0B7B0B809127019091B1
:201320002801B0E0A0E0481759076A077B0708F18092400390924103A0924203B09243030F
:20134000C090B403D090B503E090B603F090B7038091B2038823F1F08FEFC81AD80AE80A85
:20136000F80AC092B403D092B503E092B603F092B70380923C0390923D03A0923E03B09279
:201380003F03FF90EF90DF90CF90BF90AF909F908F9008958091310381111DC080913C03B2
:2013A00090913D03A0913E03B0913F0388159905AA05BB0580F4C701B6016F5F7F4F8F4FC0
:2013C0009F4F6093B4037093B5038093B6039093B70361DFCECF2091B8033091B90340917A
:2013E000BA035091BB03ACE0B0E00E945E366150710981099109C616D706E806F90608F052
:20140000B8CFD9CF8F929F92AF92BF92CF92DF92EF92FF928091480390914903A0914A038E
:20142000B0914B038093440390934503A0934603B093470381EC94E00E94572F6093480308
:201440007093490380934A0390934B0360934003709341038093420390934303C090440397
:20146000D0904503E0904603F09047039B01AC012C193D094E095F0969017A01C092AC03C8
:20148000D092AD03E092AE03F092AF032091B8033091B9034091BA035091BB03ACE0B0E0B1
:2014A0000E945E364B015C018092B4039092B503A092B603B092B7032091150130E050E0BC
:2014C00040E0C701B6010E94FF3530932801209327018091B203811103C0C501B401DBDE81
:2014E0008091B8039091B903A091BA03B091BB030196A11DB11D8093B8039093B903A09353
:20150000BA03B093BB03FF90EF90DF90CF90BF90AF909F908F9008956EE081EC94E00E94E7
:20152000E42D811110C081EC94E00E94572F6093320370933303809334039093350381E0C8
:20154000809331035FCF69E081EC94E00E94E42D882349F36DE081EC94E00E94E42D8823C6
:2015600011F308956EE081EC94E00E94E42D882371F069E081EC94E00E94E42D882339F02B
:201580006DE081EC94E00E94E42D81113BCF0895DF92EF92FF920F931F93CF93DF9397E708
:2015A000899F80011124E801C05CDF4F87E1E82E81E0F82E005B1F4F44DBCE010E9492002A
:2015C000D82ECE0101960E9492006D2D0E949834F701819391937F012296C017D10761F7F4
:2015E000DF91CF911F910F91FF90EF90DF90089588EB93E00E94920091E0811101C090E063
:201600009093B30389EB93E00E94920091E0811101C090E09093B1038BEB93E00E949200AE
:20162000982F91709093B003869581708093510384EC93E00E949200809366040895609177
:20164000B30388EB93E00E9494006091B10389EB93E00E9494006091B0038091510381115B
:2016600062608BEB93E00E9494006091660484EC93E00C9494002F923F924F925F926F92B2
:201680007F928F929F92AF92BF92CF92DF92EF92FF920F931F93CF93DF9300D000D0CDB725
:2016A000DEB7782E27E7829F50011124BC82AB82C50180599F4F0E94920080934904C501E8
:2016C0008E589F4F0E94920080934404C5018D589F4F0E94920080930201E82FF0E0E054A9
:2016E000FE4F808180931601C5018C589F4F0E94920030E020E090E0E0E0A82FB0E0C12C12
:20170000D12C7601C394B701A601022E04C0440F551F661F771F0A94D2F78D01022E02C0E2
:20172000159507950A94E2F700FF3BC1E42B89010D5F1F4F5D0102C0B594A7940A95E2F762
:20174000A0FE33C1942B2F5F3F4F23303105D9F6E0932C0190936704F0E0E854FE4F80813C
:2017600080932D0188EC92E00E949200182F89EC92E00E949200612F0E9498349093280162
:201780008093270140911501489F9001499F300D1124C901B0E0A0E08093AC039093AD03E6
:2017A000A093AE03B093AF03AB80BC8028E0A20EB11C0B811C8145DA780158E0D52EC701A0
:2017C0000E949200F7012B813C81E21BF30BE453FC4F8083DA9438E0E30EF11CD110EFCFD1
:2017E0000F5F1F4F0A151B0531F70B811C81005B1F4F2EE1C22E24E0D22E35E0E32E31E07A
:20180000F32E2B803C8080E6280E311C812C912C5401839416DAC8010E949200F6011192FA
:201820006F01F70111927F0130E020E0482E512CD60111973197B501A401022E04C0440F31
:20184000551F661F771F0A94D2F76C90C201022E02C0959587950A94E2F780FFA9C0642AAE
:201860006C926080C90103969A838983C201098002C0959587950A94E2F79A83898380FF8B
:201880009BC0462940832F5F3F4F2330310599F60F5F1F4F0215130509F0BCCF80910501E1
:2018A0008093BC0388E5C82E84E0D82E90E5E92E94E0F92EEB81FC81E859FF4FFA83E98301
:2018C000C0D9C8010E949200F60181936F01C80108960E949200F70181937F010F5F1F4FF4
:2018E000A980BA80A016B10659F780914904811104C080911E0480930C04872D49DE8CEB6C
:2019000093E00E949200873809F05AC08AEB93E00E949200982F917090932E0181FB9927DC
:2019200090F990932F0182FB992790F99093310183FB992790F990934E0484FD49C0109248
:201940004F0490914F0485FF47C0926090934F0490914F0486FF42C0946090934F04881FC1
:201960008827881F8093290170926504672D80EC93E00F900F900F900F90DF91CF911F91FA
:201980000F91FF90EF90DF90CF90BF90AF909F908F907F906F905F904F903F902F900C94E5
:2019A0009400842F8095E823C2CE40959423CBCE842F8095682254CF40956422608263CF27
:2019C00088EE93E0909328018093270183E0A2CF91E090934F04B5CF9D7FB8CF9B7FBDCF0F
:2019E00060912E0180912F0181116260809131018111646080914E048111686080914F0478
:201A000080FD606181FD606282FD606480912901811160688AEB93E00E94940067E88CEB8C
:201A200093E00C949400CF93DF9360E081EC94E00E947326CFE0D4E080E092E09983888373
:201A400062E081EC94E00E9473261D821C82DF91CF9108951F93CF93DF93182FC62FD42FB9
:201A600081E080932B0390912D03992369F090914D04911109C080932C038FEF810F80931E
:201A800066040E94B800DBDD103151F4C452DD0BD0931D04C0931C04DF91CF911F91089532
:201AA0008091660490E0019618171906A9F7C03690F0C77081E090E0A0E0B0E004C0880FCD
:201AC000991FAA1FBB1FCA95D2F72091A903822B8093A903E1CF81E08093BD038091F002D3
:201AE000811104C01092300310922F038C2F0E94EE008C2F6CE00E94CC35292F81E090E0C9
:201B0000A0E0B0E004C0880F991FAA1FBB1F2A95D2F720912F0330913003822B932B909312
:201B2000300380932F039093410480934004D0932E038091B003882341F08091480481114B
:201B400004C0DF91CF911F916ECF8091EF026CE00E94CC358350990B90933B0380933A03EB
:201B60009BCF81E080932A038093480480934E031092530380914704882349F062E081ECB0
:201B800094E00E947326109214041092130460E081EC94E00E94732680E092E090931004BE
:201BA00080930F04109247041092460410924A0410924504109257031092C9031092C80374
:201BC000E091670488E0E89FF0011124E459FE4F808190E09093CB038093CA031092B803EB
:201BE0001092B9031092BA031092BB031092B4031092B5031092B6031092B70381EC94E07D
:201C00000E94572F609348037093490380934A0390934B0360934003709341038093420369
:201C20009093430383E080933F040C945E028091B303882319F081E08093B2031092360303
:201C40001092370310923803109239038091B203811187CF08951092480481E0809301013E
:201C600060E081EC94E00E947326E0910C0428E0E29FF0011124E453FC4F8091CA03909157
:201C8000CB03E80FF91F808124E0829FC00111249093100480930F0408958091B2038111F9
:201CA000DACF0895CF92DF92EF92FF920F931F9380910201482F50E02091B203222309F443
:201CC00093C0C0903603D0903703E0903803F0903903C701B6016150710981099109FA015E
:201CE000E054FE4F208130E050E040E00E94FF3569017A019A01860193E0369527951795DF
:201D000007959A95D1F7402FC601877099279093C9038093C803E091670458E0E59FF001ED
:201D20001124E459FE4FE80FF91F808190E09093CB038093CA03609144046623D1F0802F61
:201D400090E070E06F5F7F4F0E94EC35809345048B5F9E4FDC01EC91E093BC03F0E0EE0FD8
:201D6000FF1FE95EFE4F80819181909341048093400460914904662379F0802F90E070E040
:201D80006F5F7F4F0E94EC3580934A04825E9B4FFC01808180930C0460915603662361F074
:201DA000842F0E94CC3590935703E92FF0E0E75AFC4F8081809367042091540330E050E015
:201DC00040E0C701B6010E94FF356093530367597C4FDB018C918093AB031F910F91FF9021
:201DE000EF90DF90CF9008956091B4037091B5038091B6039091B703FA01E853FE4F72CF2F
:201E00001F93CF93DF938091BE03D0E0C0E0882309F450C16C2F81EC94E00E94F02D88237B
:201E2000D1F041E06C2F81EC94E00E948F251092BE0381E080934D04C093BC03FE01EE0FB8
:201E4000FF1FE95EFE4F808191819093410480934004109244042196C830D105D9F66CE074
:201E600081EC94E00E94F02D882369F0E091BC03F0E0EE0FFF1FE95EFE4F80912F039091AB
:201E80003003918380836EE081EC94E00E94F02D882319F081E0809311036EE081EC94E09F
:201EA0000E94E42D882309F451C069E081EC94E00E94F02D882309F1E091BC03F0E0EE0F2B
:201EC000FF1FDF01A95EBE4F8D919C911197880F991F94FDE4C08D939C93E95EFE4F808195
:201EE00091819F7E9183808321E02093BE031092110390934104809340046DE081EC94E084
:201F00000E94F02D882311F18091BC0390E0880F991FFC01E95EFE4F408151819A0136953C
:201F200027953183208340FFBCC038603183208321E02093BE0310921103895E9E4FEC01F8
:201F400088819981909341048093400469E081EC94E00E94F02D882379F08091BE03882325
:201F600041F080910E048F5F6CE00E94CC3590930E0481E08093BE036DE081EC94E00E94F6
:201F8000F02D882371F08091BE03882339F080910E04811188C08BE080930E0481E0809371
:201FA000BE036EE081EC94E00E940D2E8823A1F180911103882381F12091BC0330E0220F24
:201FC000331FF901E95EFE4F4081518160910E0481E090E0A0E0B0E0062E04C0880F991F63
:201FE000AA1FBB1F0A94D2F7EA0102C0D695C7956A95E2F7C0FD59C0842B952B918380832F
:20200000295E3E4FF90180819181909341048093400481E080932903C0E040E06C2F81EC78
:2020200094E00E948F25CF5FC830B9F78091BE0341E06091BC03882359F1C1E0D0E0E091A6
:202040000E04F0E0E455FE4F408150E00C2E02C0559547950A94E2F741706C2F81EC94E0C1
:202060000E948F252196C830D10549F7E091BC03F0E0EE0FFF1FE95EFE4F80910E044081B2
:20208000518102C0569547958A95E2F7417060E081EC94E0DF91CF911F910C948F25816066
:2020A0001ACF377F43CF815077CF8095909584239523A4CF1C2F6C2F81EC94E00E94F02DC6
:2020C0008823A1F180914204811142C010924504109244041092430411E010934204E091CF
:2020E0004B04F0E0EB5FFE4FC08341E06C2F81EC94E00E948F2581EC94E00E94562F7093E9
:202100006104609360041092BE0310934D04C093BC03FE01EE0FFF1FE95EFE4F80819181D9
:202120009093410480934004109244042196C830D10509F0BFCF6EE081EC94E00E94F02DFC
:202140008823E9F081E08093BE0380934D0464CF809143048F3018F48F5F809343048091B3
:202160004304E82FF0E0EB5FFE4F10838093440441E0612F81EC94E00E948F25D7CF69E0D5
:2021800081EC94E00E94F02D8111DCCF6DE081EC94E00E94F02D8111D5CF3ECFDC01D296ED
:2021A0008C91D297813F09F4A4C048F5803B09F459C0B8F48039D1F1803A09F471C08038A3
:2021C00009F0C1C0ED91FC911197309709F4BBC0D4964C91D497D3966C91D397D1968C918D
:2021E0000994803D09F461C020F4803C09F46AC00895803EE1F1803F09F469C008958A3FF8
:2022000009F158F4833F09F491C008F47BC0863F09F491C0883F79F008958C3FD9F0B0F01D
:202220008E3FE1F08F3F09F48AC008951296ED91FC911397CACF5896ED91FC91309709F49B
:2022400082C009945A96ED91FC91F8CF5C96ED91FC91F4CF5E96ED91FC91F0CF9096ED91BB
:20226000FC91ECCF1696ED91FC911797AECF1C96ED91FC911D97309709F465C0D4966C9173
:20228000D49720E8629FB001112460787F73D3968C91D3978F77682B7052D1968C910994AE
:2022A0001496ED91FC91159790CF1A96ED91FC911B97309709F447C0D3966C91D397D196EF
:2022C0008C9109941896ED91FC911997F2CF1E96ED91FC911F973097B1F1D3966D917C91C8
:2022E000D4976115710511F061E070E0CD01C59609945096ED91FC915197309721F1D39614
:202300008C9109945296ED91FC9153973097D9F0D4968C91D49720E8829FC001112480788D
:202320009F73D3962C912F77822B09945496ED91FC915597E2CF5696ED91FC917FCF929676
:20234000ED91FC917BCF0895982F9F7E282F2F7C203839F0803E29F081E0903C19F080E0B7
:20236000089581E0089587FF0CC09CE0980F923040F0982F9B7F993F21F0803F18F4807FC7
:20238000089580E008950F931F93CF938C01C62F6D3F98F46A3F20F4663F11F0683F79F4BC
:2023A000D801D7968D919C91DC01ED91FC910190F081E02D6C2F099502C06E3F88F7C63F69
:2023C00011F4F80110A6CF911F910F910895EF92FF920F93CF93DF937C01C62FD22F6FEFA3
:2023E000600F603110F4C7FD09C0D70198961C92DF91CF910F91FF90EF900895C13E80F509
:20240000042F0F776C2BFC0180A5861751F087A990AD60A7DC01ED91FC910190F081E02D01
:202420000995F70187A990ADDC01ED91FC910190F081E02D602F0995CF7EC03CC9F2F70179
:2024400087A990AD6D2F6F77DC01ED91FC910190F081E02DDF91CF910F91FF90EF9009947B
:20246000C63F30F26C2FDF91CF910F91FF90EF908ACF0F931F93CF93DF93EC018EA1982FB8
:20248000917080FF1DC0282F2E7FD1F06AA920E8260F2136E8F409A929A5021719F091E084
:2024A000211190E08695823049F0833071F0813039F42CA94BA9CE018ADF02C09111F9CF55
:2024C000DF91CF911F910F9108959111F9CFF1CFE0E1E60FE031A0F7F0E0E058F94C0C94CA
:2024E0003D36CE01DF91CF911F910F914CCF0BA91CA90115110511F001E010E090E080E018
:2025000080179107F8F48FA998ADDC01ED91FC910190F081E02D6DA9099581E090E0F0CFE8
:202520001BA98FA998ADDC01ED91FC910190F081E02D63EF09951F77612F70E08FA998AD80
:202540000E949D0018A6BCCF0CA9B0E80B9F800111248BA9082B8FA998ADDC01ED91FC917A
:202560000190F081E02D62EF0995B8016F7777278FA998AD0E949600B801660F672F661F22
:20258000770B71956F7777278FA998AD0E949600D9CF6BA9B0E16B9FB001112460771CA9A1
:2025A0001F70162B8FA998ADDC01ED91FC910190F081E02D61EF09958FA998ADDC01ED9111
:2025C000FC910190F081E02D612F0995BBCFCF92DF92FF920F931F93CF93DF93EC01F9A492
:2025E00080E18F1550F410E0812FDF91CF911F910F91FF90DF90CF9008958FA998ADDC017E
:20260000ED91FC910084F185E02D0995892B59F38FA998ADDC01ED91FC910284F385E02D9A
:2026200009958C018FA598A9009709F096C00AA7DFA08D2D98DE88DE882341F007FD06C0A8
:20264000DAA60BA781E090E098AB8FA78AA58BDE813F09F45BC020F5803B39F048F48039A0
:2026600021F0803A11F0803851F483E090E050C0803D09F44BC048F4803C09F447C018AA2B
:202680001FA61EA61DA61FA2AECF803E71F3803FB1F721E030E03EA72DA71FA28DAB3AC06A
:2026A000883F31F058F5833F89F1F8F2863F39F78AAB19AA1BAA1CAA81E08EAB18AA1FA626
:2026C0001EA61DA68AA9803929F48CA9811102C080E88AAB8AA9882309F4BAC08058813660
:2026E00030F489A599A9981711F08111B1C0CE0155DD11E06F2DCE01BCDE76CF8A3F08F492
:20270000BECF8D3FA8F28E3F98F6B9CF82E090E09EA78DA78FA598A9CDA4DEA49601215028
:2027200031098217930708F48FC01AA5812F1BDE8AAB1F701F5F19AB8BA58BABB3E0CB1699
:20274000D10449F48CA58CAB18AA1FA61EA61DA681E08EABB7CF1CAAF7CF07FF19C09801CD
:2027600033272D3F31057CF42A3F31053CF4273F310509F446C0283F310551F40AAB1BAA23
:202780001CAA19AAE5CF2E5F310922303105B0F32AA5FE01E80FF91F203F09F048C005AB1D
:2027A000CDA4DEA49601215031098217930708F44BC00AA5003F09F462CF802FD4DD182FE7
:2027C0008AABC2DD8823A9F1802F8F708F5F89AB8BA58BAB83E0C816D10469F58CA58CABCE
:2027E00018AA1FA61EA61DA681E08EAB103B39F020F5103921F0103A11F01038B1F40FA364
:2028000061CF2DA9203F09F03ACFFE01E80FF91F37EF35AB2AAB01969CAB8BAB19AA81E030
:202820008EAB18AA1FA61EA61DA61FA24BCF02A7B7CF19AACDCF1CAAD3CF103D01F3103EF1
:20284000F1F2103C91F7DBCF019698AB8FA7CBCE10E050CFCF930E9471090E94210682E7AF
:2028600094E0B5DE81EC94E00E94282EC091A105CC2321F180914F03811120C01092C9033D
:202880001092C8032091670438E0239FC00111242630C0F020911303E22FE695F0E08459D9
:2028A0009E4FE80FF91F808190E09093CB038093CA030E945E0281E080934E03C0934F036E
:2028C000CF91089584599E4FFC01EDCF0F931F93CF93DF9307E111E097E7899FE0011124BB
:2028E000C05CDF4F0E942106F80160810E5F1F4FCE010E949400F80132976181CE01019601
:202900000E949400A7DF2296F1E007321F0751F7DF91CF911F910F9108952F923F924F929B
:202920005F926F927F929F92AF92BF92CF92DF92EF92FF920F931F93CF93DF93CDB7DEB7AC
:2029400028970FB6F894DEBF0FBECDBF982E1092300146D8198241E0698181EC94E00E9491
:202960008F2529812F5F29832830A9F781EC94E00E94882D37E7939E100111246091BC034A
:20298000C1018F589F4F0E94940060914904C10180599F4F0E94940060914404C1018E588C
:2029A0009F4F0E94940060910201C1018D589F4F0E94940060912C01862F617081FD626050
:2029C00082FD6460C1018C589F4F0E94940042DF6091270188EC92E00E949400609128017A
:2029E00089EC92E00E949400510148E0A40EB11C8101780158E0D52EF701E219F309E45365
:202A0000FC4F6081C7010E94940024DFDA9458E0E50EF11CD110F0CF0F5F1F4F0A151B0528
:202A200041F72EE1A22E24E0B22E35E0C32E31E0D32E710180E5E80EF11C8101005A1F4F5F
:202A4000412C512C32014394D501ED915D01F0E0D6012D916D01422F50E058874F8360E06B
:202A600090E080E0A82FA3019201082E04C0220F331F441F551F0A94D2F729833A834B8386
:202A80005C83AF01082E02C0559547950A94E2F7722F762B40FD03C0798170957623AC01EB
:202AA0004D5F5F4F5A834983A3019201098004C0220F331F441F551F0A94D2F729833A8365
:202AC0004B835C834F81588502C055954795AA95E2F7622F672B40FD03C069816095672370
:202AE00001968330910509F0BDCFC7010E949400B1DE3FEFE31AF30A0E151F0509F0A4CF09
:202B000088E5C82E84E0D82E90E5E92E94E0F92EA10148595F4F5A834983D6016D916D01E4
:202B2000C8010E949400F70161917F01C80108960E9494008FDE0F5F1F4F29813A812017AA
:202B4000310759F7892DC2DE0E941F0B81E08093300128960FB6F894DEBF0FBECDBFDF91B1
:202B6000CF911F910F91FF90EF90DF90CF90BF90AF909F907F906F905F904F903F902F90A2
:202B80000895CF930E942D0281E08093C40310920C0497E09093BC031092490428EE33E007
:202BA00030932801209327011092670494E090932C019093020180932E0180932F01109230
:202BC000310110924E0410924F0410922901ECECF3E024ED33E080E8819387838787878B99
:202BE000878F87A387A787AB2E173F07A9F7C0E08C2F93DECF5FC830D9F71092650410929B
:202C0000B3031092B1031092B00385E08093020180E38093160110926604109251030E94A7
:202C20001F0B0E94E7010E94AD0182E0809362046091650480EC93E00E94940060E08FEB8C
:202C400093E00E94940061E781EC93E00E94940060E682EC93E00E94940062E883EC93E0E4
:202C6000CF910C94940081EC93E00E9492008137B1F482EC93E00E949200803681F483ECA0
:202C800093E00E949200823851F480EC93E00E949200809365040E943B0B0C94F80A71CF35
:202CA000E2DF0E940C020C94BB01CF93C62F2091660430E02F5F3F4F8217130609F08EC0B0
:202CC000611111C0483038F480916504841719F0842F0E943B0BCB3709F080C00E94B800BF
:202CE0001092EE027BC0613069F1623009F443C0633009F450C0C53009F45DC0C03109F4ED
:202D00006FC0C13109F473C0C23109F483C0C33109F487C0C43109F48CC0C034E1F650E0BE
:202D200086E0559547958A95E1F781E04115510509F480E08093EE02452B09F04FC0CF912B
:202D40000C945701E0912B01F0E0EE0FFF1FE15FFB4F88E0489FA0011124411584E058072B
:202D600014F04FEF53E05183408361E081EC94E00E947326B0CFE8E04E9FA001112441158A
:202D8000F4E05F0714F04FEF53E05093100440930F0460E0EBCF88E0489FA0011124411532
:202DA000E4E05E0714F04FEF53E0509314044093130462E0DBCF50E024E0559547952A95EB
:202DC000E1F74830510514F047E050E040932C0148545E4FFA01808180932D01CF9108956F
:202DE0004830E0F740930C0410924904F7CF4830A8F74093BC03E42FF0E0EE0FFF1FE95EFE
:202E0000FE4F80819181909341048093400410924404E4CF483010F740936704109256033E
:202E2000DDCF809130018823C9F280916504CF9174CD483098F640934F0440939205CECFF0
:202E4000CF92DF92EF92FF920F931F93CF93DF9380914804882309F476C180915403882317
:202E600009F471C1E0915303F0E0E759FC4F80818093AB038091AB039091A903892B8093EC
:202E8000AA036EE081EC94E00E94F02D882361F081EC94E00E94562F609321037093220354
:202EA000809323039093240369E081EC94E00E94F02D882361F081EC94E00E94562F6093AF
:202EC00025037093260380932703909328036DE081EC94E00E94F02D882361F081EC94E049
:202EE0000E94562F60931D0370931E0380931F03909320036CE081EC94E00E94F02D882362
:202F000061F081EC94E00E94562F6093190370931A0380931B0390931C038091EB028093A5
:202F2000EA0268E081EC94E00E94E42D882309F40DC16AE081EC94E00E94E42D811106C11C
:202F400081E08093EB029091EB028091EA02981751F061E081EC94E00E94732662E081EC09
:202F600094E00E94732668E081EC94E00E94E42D0FE014E0C0E0882309F409C16AE081EC1A
:202F800094E00E94E42D811102C16C2F81EC94E00E948C266C2F882309F4F1C081EC94E010
:202FA0000E94BF25882309F4D4C06C2F81EC94E00E945F26CF5F0E5F1F4FC33031F76CE03C
:202FC00081EC94E00E94E42D882309F442C06DE081EC94E00E94F02D882351F08091510375
:202FE000C1E08C27809351030E941F0BC0934D046BE081EC94E00E94F02D882351F08091BE
:20300000B003C1E08C278093B0030E941F0BC0934D044091B003C1E04C2760E081EC94E0BA
:203020000E94682D6AE081EC94E00E94F02D882349F08091B1038C278093B1030E941F0B80
:20304000C0934D044091B10361E081EC94E00E94682D6BE081EC94E00E94F02D81111092CF
:20306000BE036BE081EC94E00E940D2E882349F080912903882319F08091650427DC109292
:2030800029036BE081EC94E00E94E42D8111B5C06AE081EC94E00E94E42D8111FCC168E0A9
:2030A00081EC94E00E94E42D811126C36CE081EC94E00E94E42D811115C46EE081EC94E087
:2030C0000E94E42D8111A3C46DE081EC94E00E94E42D81112BC669E081EC94E00E94E42D03
:2030E000882309F4D4C669E081EC94E00E94F02D8111CDC6C0E0D1E06C2F81EC94E00E9411
:20310000F02D882371F0809158038111DCC7D0935803C0936704C0935903D0935603D0939B
:203120004D04CF5FC83041F7C0E041E0809167048C1340E06C2F81EC94E00E948F25CF5FE4
:20314000C83099F776C01092AB0394CE1092EB02FACED8011696CD90DC906C2F81EC94E0DE
:203160000E94E6257C016C2F81EC94E00E94DB25A601B7010E94A400811117CF1BCF81EC93
:2031800094E00E94F125F8019783868313CF6C2F81EC94E00E948C266C2F882331F181EC60
:2031A00094E00E94BF25882359F06C2F81EC94E00E945F26CF5F0E5F1F4FC33041F7FFCE7D
:2031C000D801CD90DC906C2F81EC94E00E94E6257C016C2F81EC94E00E94DB25A601B7012A
:2031E0000E94A4008111E1CFE5CF81EC94E00E94F125F80191838083DDCF6BE081EC94E012
:203200000E94F02D811144CF6AE081EC94E00E94E42D882329F08091BE03882309F400C16D
:2032200068E081EC94E00E94F02D811129C10E94000F6EE081EC94E00E940D2E882309F4C5
:2032400067C080914D04811163C081EC94E00E94562F009121031091220320912303309115
:203260002403601B710B820B930B683B7B408105910508F04DC08091680490916904A0914A
:203280006A04B0916B0480936C0490936D04A0936E04B0936F0481EC94E00E94572F8B0109
:2032A0009C01009368041093690420936A0430936B0440916C0450916D0460916E04709118
:2032C0006F048BE09EEF841B950B800F911F833B9F45F0F48091320390913303A09134037A
:2032E000B0913503481759076A077B0728F480179107A207B30760F01092310340934803B1
:203300005093490360934A0370934B030E94020A69E081EC94E00E940D2E882381F180910A
:203320004D0481112CC06DE081EC94E00E94E42D811125C081EC94E00E94562F00912503A5
:20334000109126032091270330912803601B710B820B930B683B7B408105910580F48091BB
:20336000480481112BC70E94B10D6091B4037091B5038091B6039091B7030E944B09809110
:203380003F04882319F0815080933F046DE081EC94E00E940D2E81111092520369E081ECC5
:2033A00094E00E940D2E8823E1F010925803809152038823B1F080915403811109C09091AD
:2033C0005303892F887F967009F0FBC68093540380915403803418F08FE38093540310920C
:2033E00052036AE081EC94E00E940D2E882351F080914C04882321F080914B0480934904A7
:2034000010924C0468E081EC94E00E94E42D8111DAC6809148048111EFC610920D04ECC6A3
:2034200081E080934D046EE081EC94E00E94F02D882321F08091650480930301C0E040E0CC
:203440006C2F81EC94E00E948F256C2F81EC94E00E94F02D882349F0809103018F3F11F097
:203460008C2F5BDA8C2F0E943B0BCF5FC83039F741E06091650481EC94E00E948F25D9CE0A
:203480008091BE038111D3CE8091650446DA81E080934D04CECE6AE081EC94E00E94F02D42
:2034A0008111FDCD6CE081EC94E00E94F02D882331F08091550391E08927809355036DE0B6
:2034C00081EC94E00E94F02D882391F181E080934D04E0910C04F0E0CF0173E0880F991F97
:2034E0007A95E1F7DC01A453BC4F17963C91179727E016964C91169717964C9317972150F6
:2035000011972111F6CF84539C4FDC013C93DF01A85ABB4F9C91892F880F97FDBEC08C9305
:20352000E05BFB4F9081892F880F97FDB8C0808369E081EC94E00E94F02D882389F181E028
:2035400080934D04E0910C04F0E0CF0163E0880F991F6A95E1F7DC01A453BC4F3C9127E0CA
:2035600011964C9111974D932150D1F784539C4FDC0117963C93DF01A85ABB4F2C91822F91
:2035800090E09595879520FD8CC08C93E05BFB4F2081822F90E09595879520FD84C08083FC
:2035A000D0E0C0E001E01C2F6C2F81EC94E00E94F02D882309F444C0809104018F3F31F1A2
:2035C00090E0DC0123E0AA0FBB1F2A95E1F7A453BC4FFE0133E0EE0FFF1F3A95E1F7E45364
:2035E000FC4F28E03D9131932150E1F7FC01E85AFB4F2081FE01E85AFB4F2083805B9B4F80
:20360000FC018081FE01E05BFB4F80831093500380914C04811149C010924A041092490454
:2036200010924B0400934C0410931E0410930C0441E0612F81EC94E00E948F2500934D0472
:203640002196C830D10509F0AECF6BE081EC94E00E94F02D882319F081E080934D046EE0BD
:2036600081EC94E00E94F02D882329F081E080934D040E94590280911B04882371F18091D6
:20368000CA039091CB0360910C0470E068177907E9F46770772740E0EECE816040CF81601F
:2036A00046CF806872CF80687ACF80914B048F3118F48F5F80934B0480914B04E82FF0E0D8
:2036C000E25EFB4F108380934904B2CF68E070E00E94EC3541E0682FCECEC0E041E080916B
:2036E0000C048C1340E06C2F81EC94E00E948F25CF5FC83099F79DCD68E081EC94E00E943E
:20370000F02D8111D3CC6CE081EC94E00E94E42D8823F9F0C0E06C2F81EC94E00E94F02D0C
:20372000882321F0C0934F04C093920541E0809192058C1340E06C2F81EC94E00E948F25E3
:20374000CF5FC83041F76CE081EC94E00E940D2E70CD6BE081EC94E00E94F02D882331F00D
:2037600080916504DAD881E080934D04D0E0C0E0C12CD12C7601C3941C2F6C2F81EC94E089
:203780000E94F02D882391F1E0910C04F0E0E05BFB4F2081D701C6010C2E04C0880F991FDA
:2037A000AA1FBB1F0A94D2F7422F50E00C2E02C0559547950A94E2F740FD15C0822B808363
:2037C00010924D0310924C03E0910C04F0E0E05BFB4F408150E00C2E02C0559547950A94DF
:2037E000E2F741700CC080958223E9CF80914D03882351F341E080912C018C1340E0612F03
:2038000081EC94E00E948F252196C830D10509F0B3CF6EE081EC94E00E94E42D81113CC001
:203820006DE081EC94E00E94F02D8823B9F081E080934D0480912C01873018F48F5F809380
:203840002C01E0912C01F0E0E854FE4F808180932D0181E080934D0310924C0369E081EC97
:2038600094E00E94F02D8823B9F081E080934D0480912C01882319F0815080932C01E09188
:203880002C01F0E0E854FE4F808180932D0181E080934D0310924C036CE081EC94E00E94DC
:2038A000E42D882309F44FCF80914D0481114BCF81EC94E00E94562F0091190310911A03B0
:2038C00020911B0330911C03601B710B820B930B613B76438105910508F435CF81E0809332
:2038E0004D0431CF81EC94E00E94562F0091190310911A0320911B0330911C03601B710B5E
:20390000820B930B61367D468105910520F080914D04882311F110922D0310922C0310E054
:2039200000E0D1E0F02EC02F602F81EC94E00E94F02D882331F080916604982F9770091785
:2039400081F06C2F81EC94E00E94F02D882399F00E94B800C09366040AC081E080932D0302
:20396000DECF885F8F70809366040E94B8000E941F0BD0934D0480912D03882359F0809117
:203980002C03811107C041E06C2F81EC94E00E948F2512C080916604883070F141E06C2F8A
:2039A00081EC94E00E948F25809166048850990B40E08017910741F30F5F1F4F083011052C
:2039C00009F0B0CF69E081EC94E00E94F02D882361F08091B303C1E08C278093B3030E9404
:2039E0001F0BC0934D041092B2036091B30381EC94E00E944C2D1DCC40E06C2F81EC94E07A
:203A00000E948F25809166048F11D6CFBCCF6EE081EC94E00E94F02DD0E0C0E011E0811144
:203A200053CB6C2F81EC94E00E94F02D882361F0C093020110934D04FE01E054FE4F808166
:203A4000809316010E94520E2196C830D10549F7C0E041E0809102018C1340E06C2F81ECD9
:203A600094E00E948F25CF5FC83099F769E081EC94E00E94F02D882309F444C081E08093BD
:203A80004D048091AC039091AD03A091AE03B091AF0386369105A105B105C8F0AC01BD019E
:203AA0004E5C5F4F6F4F7F4FC4E07695679557954795CA95D1F7841B950BA60BB70B8093C3
:203AC000AC039093AD03A093AE03B093AF032091150130E050E040E06091AC037091AD0313
:203AE0008091AE039091AF030E94FF35309328012093270110926C0410926D0410926E045B
:203B000010926F046DE081EC94E00E94F02D8823B9F181E080934D040091AC031091AD03F8
:203B20002091AE033091AF03C901B8016E5C7F4F8F4F9F4FA4E09695879577956795AA95B7
:203B4000D1F7600F711F821F931F6093AC037093AD038093AE039093AF032091150130E086
:203B600050E040E00E94FF35309328012093270110926C0410926D0410926E0410926F040A
:203B800069E081EC94E00E94E42D882309F466C081EC94E00E94562F0091250310912603EF
:203BA0002091270330912803601B710B820B930B613777418105910508F450C081EC94E0C3
:203BC0000E94562F24E130E040E050E00E94FF35672B682B692B09F041C08091AC039091EF
:203BE000AD03A091AE03B091AF038E339105A105B105C8F0AC01BD01425E5F4F6F4F7F4F90
:203C0000F5E07695679557954795FA95D1F7841B950BA60BB70B8093AC039093AD03A0932F
:203C2000AE03B093AF032091150130E050E040E06091AC037091AD038091AE039091AF03D1
:203C40000E94FF35309328012093270110926C0410926D0410926E0410926F046DE081ECBF
:203C600094E00E94E42D882309F4E3CA81EC94E00E94562F00911D0310911E0320911F037A
:203C800030912003601B710B820B930B613777418105910508F4CDCA81EC94E00E94562F17
:203CA00024E130E040E050E00E94FF35672B682B692B01F54091AC035091AD036091AE0367
:203CC0007091AF03DB01CA014E96A11DB11DE5E0B695A79597958795EA95D1F7840F951FF8
:203CE000A61FB71F8093AC039093AD03A093AE03B093AF032091150130E050E040E06091A3
:203D0000AC037091AD038091AE039091AF030E94FF35309328012093270110926C0410925D
:203D20006D0410926E0410926F0483CA6DE081EC94E00E94F02D8111CEC980914704811198
:203D4000CAC940912E0160E081EC94E00E94682D40912F0161E081EC94E00E94682D6AE0D4
:203D600081EC94E00E94F02D882331F080912E0191E0892780932E0168E081EC94E00E9469
:203D8000F02D882331F080912F0191E0892780932F01D0E0C0E0C12CD12C7601C3946C2FF2
:203DA00081EC94E00E94E42D882379F02091AA03D701C6010C2E04C0880F991FAA1FBB1F6E
:203DC0000A94D2F7822B8093AA032196C830D10531F780913F04882309F43CC14091CA03CB
:203DE0009091CB03842FBE010E94EC35682F2091AA0330E002C0359527954A95E2F740E07A
:203E000020FF41E081EC94E08AD669E081EC94E00E94F02D882319F081E080934D0469E076
:203E200081EC94E00E940D2E8823D9F080915203882309F426C180915403811109C0909177
:203E40005303892F887F967009F019C18093540380915403803418F08FE380935403109268
:203E6000520369E081EC94E00E94E42D882309F4E0C980915203882309F40DC1E09153031C
:203E8000F0E0E759FC4F8091AA038083D2C980913F04D0E0C0E011E0882309F41FC140917D
:203EA000CA039091CB03842F68E070E00E94EC35682FE0910C04F0E0E85AFB4F208130E013
:203EC00002C0359527954A95E2F740E020FF41E081EC94E024D680914704882309F48BC058
:203EE0006091CA0381EC94E00E94E42D882309F466C060E081EC94E00FD781111AC081E0CE
:203F000080934604E0910C0428E0E29FF0011124E453FC4F8091CA039091CB03E80FF91FB6
:203F20008091C6039091C7039695879596958795808369E081EC94E00E94F02D8823E1F0C6
:203F4000C091B905E0910C048091CA039091CB0338E0E39FF0011124E453FC4FE80FF91FB3
:203F600080818F5F80830E94D8038091B905C81749F381E080934D046DE081EC94E00E9453
:203F8000F02D8823E1F0C091B905E0910C048091CA039091CB0348E0E49FF0011124E45323
:203FA000FC4FE80FF91F8081815080830E94D8038091B905C81749F381E080934D046091B5
:203FC000CA0381EC94E00E940D2E8823A1F060E081EC94E088D680E092E09093100480937F
:203FE0000F0462E081EC94E07ED6109214041092130410924604D0E0C0E0C12CD12C760127
:20400000C39400E012E06C2F81EC94E00E94F02D8823D9F090914704992309F4AEC0C093E2
:20402000CA03D093CB0360E081EC94E05CD61093100400930F0462E081EC94E054D61092E3
:20404000140410921304109246042196C830D105D1F6EFC8D0E0C0E04091AA0350E06C2F07
:204060000C2E02C0559547950A94E2F7417081EC94E055D52196C830D10571F7C6CE885FE3
:20408000E5CE10925403E9E6F3E0119273E0E93AF707D9F7E6CEC0E0D1E06C2F81EC94E06A
:2040A0000E94F02D882331F0D09352038091C80380935303CF5FC83081F7809152038823C9
:2040C00009F4B7C8DBCE80915603E82FF0E0E75AFC4FC0838F5F8093560321C80C2F80910C
:2040E00047048823D1F18091CA039091CB0340E06C2F8C179D0749F581EC94E00E94562FF3
:20410000C0901403D0901503E0901603F09017036C197D098E099F09693E734081059105DD
:2041200088F081EC94E00E94562F609314037093150380931603909317038091180381279D
:204140008093180340911803602F81EC94E0E7D42196C830D10511F6BECEE0910C04F0E0B1
:20416000E85AFB4F408150E00C2E02C0559547950A94E2F741706C2FE8CFE0910C04F0E035
:20418000E85AFB4F2081B701A6010C2E04C0440F551F661F771F0A94D2F7CA01422F50E0E0
:2041A0000C2E02C0559547950A94E2F740FD03C0822B80834ACF80958223FBCF0E942B0E9E
:2041C000DEC8885F03C96AE081EC94E00E94E42D882309F41EC968E081EC94E00E94F02D31
:2041E0008823B1F18091480481113DC08091470491E089278093470468E081EC94E00E94E0
:20420000E42D811158C068E081EC94E00E94F02D882339F06AE081EC94E00E94E42D8111B7
:2042200052C068E081EC94E00E94E42D811159C068E081EC94E00E940D2E882309F46DC00A
:204240006AE081EC94E00E94E42D811152C065C06AE081EC94E00E94F02D8111C3CF809198
:204260004804882349F281E080930D04C0913F04C1110DC041E080910C048C1340E06C2FB8
:2042800081EC94E04CD4CF5FC830A1F7B5CF8091CA039091CB0368E070E00E94EC35209102
:2042A0000C0440E02817190609F041E0682F81EC94E035D4A1CF6AE081EC94E00E94F02D7B
:2042C000882309F4A0CF80910D04882309F4A9CF60E081EC94E0F3D462E081EC94E0EFD4B7
:2042E000A0CF6AE081EC94E00E940D2E882309F49FCF10920D0460E081EC94E0F4D480E035
:2043000092E09093100480930F0462E081EC94E0EAD41092140410921304C0E0D1E06C2F8E
:2043200081EC94E00E94E42D8111D0E0CF5FC031B1F7DD23D9F010924D041092C503109218
:204340002D031092BE0310924D0310924C038FEF809304018093030180914204882331F017
:20436000809143048093440410924204DF91CF911F910F91FF90EF90DF90CF900895CF93A7
:20438000DF9360E081EC94E0C3D38091FF049091000590931303809312030E942A14E09108
:2043A000BC03F0E0EE0FFF1FE95EFE4F80819181892B09F067C01092C40363E081EC94E04B
:2043C00010D4C0E0D2E0C81BD90BA0911304B09114049E010E94433620E032E040E050E023
:2043E0000E9421362093C0033093C1034093C2035093C303E0912B01F0E0EE0FFF1FE15FBE
:20440000FB4F4081518156954795569547952091190430911A04DE010E9458362BE0959540
:204420008795779567952A95D1F7640F751F6F3F710519F010F06FEF70E0609393050E94C2
:20444000D8030E942A148091B1038823F9F040912E0380E1489FA001112444525A4F60E0A9
:2044600081EC94E07AD40E942A1481EC94E006D581EC94E00E94882D0E942A14DF91CF9189
:204480000C94201781E08093C40397CF0E942F03EACFAF92BF92CF92DF92EF92FF920F93FF
:2044A0001F93CF93DF9381EC94E00E94882D8FE99FE00197F1F700C0000081EC94E00E9484
:2044C000282E81EC94E0DAD482E794E00E94E7126CE081EC94E00E94F02D882331F08FEB4D
:2044E00093E00E9492008093EC026BE081EC94E00E94E42D61E0811109C06AE081EC94E06E
:204500000E94E42D882309F4C3C060E081EC94E052D3BC0190E080E01F921F921F921F9226
:2045200037E0A32EB12CC12CD12CEE24EA9413E0F12E00E010E020E030E0A9010E94593471
:2045400081EC94E028D60F900F900F900F9068E081EC94E00E94E42D882329F06CE081ECA7
:2045600094E00E94E42D81EC94E0F9D2482F60E081EC94E00E94682D81EC94E00E94292FBE
:20458000482F61E081EC94E00E94682D81EC94E00E94812D682F81EC94E00E944C2D609196
:2045A000A10581EC94E00E94412D62E081EC94E002D3AC01440F551F440F551F60E081EC84
:2045C00094E0CBD360E081EC94E0F5D2AC01440F551F440F551F61E081EC94E0BED36EE0A5
:2045E00081EC94E00E94E42D682F81EC94E090D281EC94E00E94572F28EC30E040E050E0D0
:204600000E94FF35672B682B692B31F480911B0491E0892780931B0460911B0481EC94E072
:204620000E94202D60911B0481EC94E00E942B2D60911B0481EC94E00E941A2D60911B04B6
:2046400081EC94E00E94362D6DE081EC94E00E94F02D61E0811101C060E081EC94E00E9430
:20466000572D69E081EC94E00E94F02D61E0811101C060E081EC94E0DF91CF911F910F91F8
:20468000FF90EF90DF90CF90BF90AF900C94622D68E081EC94E00E94E42D62E0811136CFCC
:2046A00069E081EC94E00E94E42D64E081110AC06DE081EC94E00E94E42DD0E0C0E08823A1
:2046C00031F163E081EC94E076D2BC0190E080E01F921F921F9227E02F93A12CB12C6501D3
:2046E00024CF6CE081EC94E00E94E42D811115C06C2F81EC94E00E94E42D482F6C2F81ECD2
:2047000094E00DD22196C830D10509F420CF0C2F1C2F80912B03882321F341E0033050F4B9
:204720004091EC0250E00C2E02C0559547950A94E2F74170612FE3CFCF9326E042E15AE792
:2047400060E070E08091A9049091AA040E94F9321092A2041092A1041092A00410929F0455
:204760001092A8041092A4041092A3041092A5041092A60483E080939804109299041092CE
:204780009A0410929B048AE29DE0909375048093740483E391E0909373048093720486E0CA
:2047A00099E090938B0480938A0487E19EE090938D0480938C048DE49EE090939104809336
:2047C000900488E890E090938F0480938E0485E596E190937904809378044CE85AE062EB3F
:2047E0007AE081EC94E00E94C72C81EC94E00E94932C0E94880160E081EC94E089D160E0C1
:2048000081EC94E00E94572D60E081EC94E00E94622D0E945016C0E041E06C2F81EC94E0FA
:204820007ED1CF5FC830C1F7C0E081EC94E00E94882D8FE59AEE0197F1F700C0000041E016
:20484000C0FD40E060E081EC94E069D1CF5FC53161F76BE081EC94E00E94E42D8823A9F180
:2048600068E081EC94E00E94E42D882371F1F89481EC94E062D680917405909175052091D4
:20488000720530917305821B930B855691098F38914010F40E94620181EC94E00E94B62EB0
:2048A0008091E5059091E6052091E7053091E805821B930B459714F00E94E70160E081EC54
:2048C00094E026D17894E5DDFECF68E081EC94E00E94E42D81118FC080913101882331F006
:2048E00081E080932B0184E080932A016AE081EC94E00E94E42D882331F08091290191E020
:204900008927809329016BE081EC94E00E94E42D882331F080914E0491E0892780934E0416
:204920000E94F00C40914E0461E081EC94E0F7D04091290163E081EC94E0F1D040913101EA
:2049400065E081EC94E0EBD040E067E081EC94E0E6D0C0E08FE59AEE0197F1F700C000009C
:204960006C2F81EC94E0E4D381EC94E00E94882DCF5FC03279F769E081EC94E00E94E42D5F
:20498000882379F06DE081EC94E00E94E42D882341F06EE081EC94E00E94E42D81110E9430
:2049A000C1150E94B80062E381EC94E038D780E092E09093100480930F0462E381EC94E03D
:2049C0002ED70E9421060E94210681EC94E09ED161E081EC94E073D1E091BC03F0E0EE0F8D
:2049E000FF1FE95EFE4F808191819093410480934004CF9108958091310191E089278093BF
:204A000031016ACFE2E7F4E081E296E090AF87AB1182108213821282158214821782168298
:204A200011861086138612861586148617861686118A108A138A128A158A148A178A168ABE
:204A4000118E108E138E128E158E148E178E168E11A210A213A212A215A214A208950895D5
:204A6000089581E0089580E480937C00EAE7F0E080E880838081876080830895ECE7F0E071
:204A80009081907790839081982B908321E030E001C0220F8A95EAF720937E000895EAE762
:204AA000F0E0808180648083089580917A00829581700895809178009091790008958EBD66
:204AC00000000DB407FEFDCF8EB508950CB405FC0DC09EBD00000DB407FEFDCF9EB58EBD4B
:204AE00000000DB407FEFDCF8EB508958EBD00000DB407FEFDCF8EB59EBD00000DB407FE03
:204B0000FDCF9EB5089580539F4FFC0160830895579A662311F05F9A08955F9808950F9354
:204B20001F93DC01AC53BF4F8C91E62FF0E0E553FD4F908101E010E020E030E004C0000F8E
:204B4000111F221F331F9A95D2F7442329F0082B0C931F910F91089500950823F9CF89B199
:204B600082FB882780F991E0892708958A5F9E4FDC01ED91FC91309709F00994089570E0CA
:204B8000660F771F860F971FFC01E65FFE4F8C5E9E4F20813181FC0180819181281B390B6F
:204BA00037FF03C031952195310981E02B3031050CF480E0089570E06B577F4F660F771F6C
:204BC000860F971FFC0180819181089570E066577F4F660F771F860F971FFC01808191819C
:204BE0000895CF93DF93DC01E62FF0E0EF0144E0CC0FDD1F4A95E1F7C85BDF4FC80FD91FC0
:204C000028E090E080E049915991840F951F2150D1F733E0969587953A95E1F76330C0F034
:204C2000AF01440F551F4A0F5B1FEA01C65FDE4F288139814C5E5E4FEA0148815981B901EB
:204C4000641B750B1616170634F46031710544F4DF91CF910895421B530B40315105C4F3FF
:204C6000AF0184E0440F551F8A95E1F74A0F5B1FEA01C85BDF4F39832883229639832883CD
:204C8000229639832883229639832883359694E0EE0FFF1F9A95E1F7EA0FFB1F318320830B
:204CA000FA01EE5AFF4F318320833296318320834A5A5F4FFA0131832083C901C9CF262F92
:204CC000FC01E451FF4F41E050E060E070E004C0440F551F661F771F2A95D2F7409580816F
:204CE000482340830895262FFC01E451FF4F41E050E060E070E004C0440F551F661F771F8D
:204D00002A95D2F79081942B9083089584519F4F2FEFFC012083089584519F4FFC018081AC
:204D200090E002C0959587956A95E2F781700895FC0110926D0090916D00613039F4946049
:204D400090936D001092C00466830895986090936D0081E08093C004F7CF262F30E0220FBB
:204D6000331F280F391FF901E453FF4F51834083BC0168537F4FFB01E41BF50BAF01F7FF55
:204D800003C051954195510964E0440F551F6A95E1F78A509F4FFC0160817181CA010E9453
:204DA000D835CB01E4E096958795EA95E1F7F901E25EFE4F892B19F0718360830895605F41
:204DC0007F4FFACFCF93DF939C01FB01DC01AA50BF4F11967C936E93EC01C653DF4F9897D0
:204DE000888199814D915C91841B950B97FF03C091958195910964E0880F991F6A95E1F7ED
:204E0000BF010E94D835CB01A4E096958795AA95E1F7D901A05EBE4F892B51F16D937C938B
:204E2000D901A853BF4F8D919C91119714964D915C91841B950B97FF03C0919581959109B9
:204E400044E0880F991F4A95E1F7BF010E94D835CB0154E0969587955A95E1F7F901E25E71
:204E6000FE4F892B41F071836083DF91CF910895605F7F4FD3CF605F7F4FF5CF2F923F92AA
:204E80004F925F926F927F928F929F92AF92BF92CF92DF92EF92FF920F931F93CF93DF933E
:204EA000EC011C0126EC220E311CD1018C9190E0880F991F8C0F9D1FFC01E853FF4F20812D
:204EC0003181DC01A453BF4F4D915C9124173507D1F0B901641B750B77FF03C0719561954D
:204EE000710942175307F0F5825E9E4FDC018D919C9104E0969587950A95E1F786179707CE
:204F000060F151834083FE01EF52FF4F808132964F018830D9F58CE291E091838083C9536A
:204F2000DF4F88818F5F823008F000C188838881F1018083DF91CF911F910F91FF90EF90AA
:204F4000DF90CF90BF90AF909F908F907F906F905F904F903F902F900895281B390B318365
:204F60002083D1CF2417350770F6825E9E4FDC018D919C9114E0969587951A95E1F78617BD
:204F8000970708F0BECF280F391FE9CF873061F4FE01EE52FF4F808190E0959587950196C0
:204FA000D4018D939C93BBCF3E01BAEC6B0E711CF30120813181843018F4823009F08DC059
:204FC0002E01F2ED4F0E511CD2016C916F3708F074C05901D12CC12C70E090E080E0369528
:204FE00027952F5F3F4F89011F921F921F932F93E12CF12C87012FE730E040E050E00E94AF
:2050000059340F900F900F900F9030E020E097FD50C0F301208131815901D12CC12CD20175
:205020006C9170E090E080E0369527952F5F3F4F89011F921F921F932F93E12CF12C87019E
:205040002FE730E040E050E00E945934F301408151819A01205231096901F12CE12C0F90AA
:205060000F900F900F90C616D706E806F9060CF15A01D12CC12CD2014C90642D70E090E06B
:2050800080E09A01369527952F5F3F4F89011F921F921F932F93E12CF12C87012FE730E03A
:2050A00040E050E00E9459349B010F900F900F900F90F4013183208332CF215031098FEFE3
:2050C00090E0861B91099595879595958795281B390BD4012D933C9322CF813029F4369524
:2050E00027952F5F3F4FE5CF5901D12CC12CFE01EE52FF4F608170E090E080E0220F331FCF
:2051000029011F921F925F922F93E12CF12C8701EA9420E030E0A9010E945934D4016D9362
:205120007C930F900F900F900F90F9CE1882FFCEDC01AC53BF4F9C9195759C9362FF16C02F
:20514000E62FE095E370EE0FF0E0E553FD4F808141E050E060E070E004C0440F551F661F2F
:20516000771F8A95D2F7492B4C9308956370660FE62FF0E0E553FD4F808141E050E060E07E
:2051800070E004C0440F551F661F771F8A95D2F7942B9C930895CF92DF92EF92FF920F9320
:2051A0001F93DC01AC53BF4F9C91EBECF2E043ED52E001E010E020E030E081916801790145
:2051C00004C0CC0CDD1CEE1CFF1C8A95D2F7C0949C214E175F0789F76770E62FF0E0E553DD
:2051E000FD4F808104C0000F111F221F331F8A95D2F7902B9C931F910F91FF90EF90DF902D
:20520000CF900895EF92FF920F931F93CF93DF93EC0164E0E6DCFC01892B11F4E1E0F0E01E
:205220008E010E5D1E4FD801ED90FC90119712968D919C919701281B390BC90166E070E00B
:205240000E94D835669570E0C701860F971F9701261B370BE217F30768F08E179F0708F098
:20526000DFC0C701880F991FBC016E1B7F0BFB0141E004C040E08E179F0798F3DE01AA5CEC
:20528000BE4F2D913C912F5F3F4FE217F30728F09701EE15FF0508F49F01D801E0E08D915D
:2052A0009D918217930730F08D919C9111978217930718F0EF5FEB3091F78E2F90E0880F8A
:2052C000991F8C0F9D1FDC01AE5DBE4F0D911C918C5D9E4FDC018D919C91B801681B790BC1
:2052E000CB0166E070E00E94D8357727D80180E02A173B0728F48F5FA61BB70B8730C1F747
:20530000201B310B869F8001879F100D1124D901A01BB10BB7FF03C0B195A195B109600F89
:20532000711F261B370B37FF03C03195219531092A173B070CF48F5F90E076E0E79F800D61
:20534000911D11248D33910514F08CE390E0442319F0919581959109DE01AB52BF4FEC9184
:20536000EF5FE370EC93F0E0E559FF4FEE0FFF1FEC0FFD1F918380837E01AAEDEA0EF11C4D
:20538000DE01A852BF4FF701208131814D915C911197241B350B37FF03C03195219531093A
:2053A000BE016A527F4F4D915C911197FB0100811181401B510B57FF03C05195419551093C
:2053C000420F531FC452DF4F28813981F70100811181201B310B37FF03C031952195310932
:2053E000240F351F28303105A4F4FB01808191812D913C91820F931FD7012D913C91820F2F
:20540000931F28813981820F931F9595879595958795DF91CF911F910F91FF90EF900895DD
:2054200040E090E080E08ECFCF93DF936230E0F4411520E15207C0F4262F30E02A593F4F0B
:20544000220F331F820F931FFC015183408361110EC0D0E0C0E0C42BD52BD0612A988D2FC4
:205460002EDB8C2F2CDB2A9ADF91CF9108958FEF9FE09C01241B350BA901C0E0D0EAEBCF59
:20548000CF93DF93EC0150E040E060E0CDDF50E040E061E0CE01DF91CF91C6CFCF93DF9376
:2054A0009C012F543F4FFC01E754FF4F50E040E0D22FC32FD9012E5F3F4F12966D917C91CD
:2054C00013970D90BC91A02D6A1B7B0B460F571FE217F30779F75695479556954795208103
:2054E0003181240F351FFC01E554FF4F31832083240F351F3296318320833296240F351FA3
:2055000031832083ED2FFC2F89559F4F20813181241B350B37FD0EC0211560E1360714F095
:205520002FEF3FE0329322938E179F0779F7DF91CF91089530E020E0F5CF6F927F928F9285
:205540009F92AF92BF92CF92DF92EF92FF920F931F93CF93DF93EC0193DF8FEAE82E82E02C
:20556000F82E8E010F541F4F91ECC92E92E0D92E3E012BEB620E711CAA24AA942FE0B22E6B
:20558000F701819191917F01F801819391938F01F601819191916F01A501481B590B61E055
:2055A000CE0142DFF801529142914F0160E0CE013BDF8FE19EE40197F1F700C00000F401AC
:2055C00080819181199917C001968115F0E19F0770F4F40191838083F4014081518160E053
:2055E000CE0122DF8FE99FE00197F1F7E6CFF40111821082F1CF01979183808306151705EF
:2056000009F0BECFCE01DF91CF911F910F91FF90EF90DF90CF90BF90AF909F908F907F904E
:205620006F903CCFFC01E251FF4F408151817CE0749F9001759F300D1124E659FF4F40817B
:205640005181240F351F620F732F711D8B5B9F4FFC01808190E0681779071CF06C507109CD
:20566000FACF77FF03C0645F7F4FFBCF862F08952F923F924F925F926F927F928F929F92B3
:20568000AF92BF92CF92DF92EF92FF920F931F93CF93DF9300D000D00F92CDB7DEB74C01C5
:2056A000562F4B83262F30E0F901EE0FFF1FE550FE4F808191819A838983F901EE0FFF1F4A
:2056C000E750FE4F808191819D838C83140190ED290E311CF101608170E090E080E05C306F
:2056E00080F1220F331FF901EF51FE4F208131814C805D80421A530A1F921F925F924F9246
:20570000A12CB12C6501E12CF12C8701EA9420E030E0A9010E9459340F900F900F900F90E4
:205720002C813D812617370709F447C0A901461B570B4D3232E2530708F441C04CE252E2C6
:205740003EC02C813D81369527954C805D80421A530A1F921F925F924F92A12CB12C6501B3
:20576000E12CF12C8701EA9420E030E0A9010E9459340F900F900F900F9097FD4DC0F10101
:20578000608170E090E080E01F921F925F924F9220E030E0A9010E945934AB01BC012C81D5
:2057A0003D81C901B0E0A0E00F900F900F900F9084179507A607B7074CF541E050E08B8195
:2057C000882351F089819A81EC81FD818E1B9F0B96958795480F591F61E0C4010F900F9020
:2057E0000F900F900F90DF91CF911F910F91FF90EF90DF90CF90BF90AF909F908F907F90E5
:205800006F905F904F903F902F90A7CAF101608170E090E080E070CF70E060E081CFCF9348
:20582000DF93EC01FC01E850FF4F6083FBDEFE01E750FF4F808340E0682FCE01DF91CF91ED
:2058400017CF1F93CF93DF93EC01162F6695FC01E850FF4F6083E6DEFE01E750FF4F8083FE
:20586000412F4170682FCE01DF91CF911F9100CF1F93CF93DF939C01862F893410F08C50E1
:20588000FCCF66E00E94CC35192F90E0FC01EE0FFF1FE20FF31FEB55FF4FC081D181FC0163
:2058A0003196EE0FFF1FE20FF31FEB55FF4F808191818C1B9D0B66E070E00E94D835169F19
:2058C000A001179F500D11244C0F5D1F57FD0CC0411580E1580714F04FEF5FE060E0C90147
:2058E000DF91CF911F9139CA50E040E0F7CFABEDB1E0FC01E65CFE4F9C01285A3E4F4D91D0
:205900005D9141935193E217F307C9F7DC01A65ABE4F21E02C938B5B9F4F21E6DC012C930D
:20592000118210820895CF93DF93EC01F894E0E7F0E080818160808381E08093B100E8E6E9
:20594000F0E01082808184608083808182608083ECE6F0E010828081886080836FEFCE01CA
:20596000E7D910926D006FEFCE01E2D9EFE6F0E010828081816080831092800085E08093BA
:20598000810010926E007894DF91CF910895EF92FF920F931F93CF93DF93EC017B018A01CF
:2059A000FC01EC51FF4F10821182128213829FDFFE01EB5BFF4F85E58083EA54FF4F108275
:2059C00056985E9A55985D9A3B98439852985A9821982998549A5C983D98459A53985B9A83
:2059E000229A2A98579A5F98399A4198DE01AA5FBE4F1196FC92EE92A956B10911961C93DC
:205A00000E93209AA354BF4F81E08C9310822BD8CD5FDE4F188286E031D841D8CED48CB5B3
:205A2000837F8CBD82E0DF91CF911F910F91FF90EF90F5C4662311F05C9A08955C98089524
:205A4000FC01EB53FF4F9081662319F09460908308959B7FFCCFFC01EB53FF4F908166236E
:205A600019F09061908308959F7EFCCFFC01EB53FF4F9081662319F09160908308959E7FAA
:205A8000FCCFFC01EB53FF4F9081662319F09062908308959F7DFCCFFC01EB53FF4F9081EC
:205AA000662319F09260908308959D7FFCCFFC01EB53FF4F9081662319F0986090830895F7
:205AC000977FFCCF662311F0419A08954198089561110BC0FC01EB53FF4F8081442319F036
:205AE0008064808308958F7BFCCF6130D9F7FC01EB53FF4F8081442311F08068F2CF8F774B
:205B0000F0CF86B183FB882780F991E0892708950F931F93CF93FC01E450FF4F20813181A3
:205B2000DC01A250BF4F11963C932E939097CC910C2F10E041E050E060E070E00C2E04C0C3
:205B4000440F551F661F771F0A94D2F74E9930C0422B532B5183408320813181085F1F4F7B
:205B600041E050E060E070E004C0440F551F661F771F0A95D2F74D9922C0422B532B5183AF
:205B80004083CF5FC770CC938D539F4F41E050E060E070E004C0440F551F661F771FCA95CA
:205BA000D2F74095FC014083CF911F910F910895409550952423352331832083CDCF409519
:205BC000509542235323DBCF84509F4FFC018081918102C0969587956A95E2F7817008951A
:205BE000FC01E450FF4F20813181062E02C0369527950A94E2F720FF0EC082509F4FFC0135
:205C00008081918102C0969587956A95E2F7F1E08F278170089580E00895FC01E450FF4FFF
:205C200020813181062E02C0369527950A94E2F720FD0CC082509F4FFC018081918102C0A2
:205C4000969587956A95E2F78170089580E00895EF92FF920F931F93CF93DF938C0186B19C
:205C6000F801E052FF4F85FB882780F991E0892780830E945525882309F471C078013DEF45
:205C8000E31A3EEFF30AD701CC91D0E0CC0FDD1FC00FD11FFE01EC5EFE4FC65FDE4F888171
:205CA0009981918380830E945A2599838883F7012081822F90E0233080F0FC01EE0FFF1FD6
:205CC000E00FF11FE65FFE4F40815181433B524020F042EB52E051834083A801480F591F12
:205CE000FA01E856FF4F3081373098F1108248565F4FDA01EC91AC0133E0440F551F3A95F0
:205D0000E1F7E40FF52FF11DB496EE0FFF1FE00FF11F8B579F4F880F991F080F191FD801DB
:205D20008D919C91918380832F5F2530A8F4F7012083D701EC91F0E0ED52FD4F80810E9494
:205D40003E25DF91CF911F910F91FF90EF900C944F253F5F3083CBCFD7011C92EACFDF9104
:205D6000CF911F910F91FF90EF900895CF92DF92FF920F931F93CF93DF93EC018C010F5460
:205D80001F4F6C014FEBC40ED11CF801419151918F0160E0CE0148DB8FE39CE90197F1F749
:205DA00000C0000082E3F82ECE0152DFEFE9FFE03197F1F700C00000FA94F110F5CF64E0DA
:205DC000CE010E94F125F801E159FF4F918380830C151D05D1F6DE01A45DBE4FFE01E25D6F
:205DE000FE4F2D913C9180819181281B390BC85CDE4F81919191821B930B97FD13C0893E43
:205E000043E0940714F088EE93E091838083CE17DF0779F7DF91CF911F910F91FF90DF9067
:205E2000CF90089590E080E0F0CF8F938FB78F939F93EF93FF93E1ECF4E084AD95AD01965C
:205E400095AF84AFFF91EF919F918F918FBF8F91189529B123FB222720F931E023278F51BB
:205E60009F4FFC012083822F0895CF92DF92EF92FF92CF93DF93EC01609184008091850096
:205E800057D56C01F12CE12C6CAD7DAD90E080E0CB01772766276C297D298E299F29DF910B
:205EA000CF91FF90EF90DF90CF900895DECFDDCF81EC94E0CEDF882329F0E0915E05F09109
:205EC0005F05099408951F920F920FB60F9211242F933F934F935F936F937F938F939F9367
:205EE000AF93BF93EF93FF93E3DFFF91EF91BF91AF919F918F917F916F915F914F913F9198
:205F00002F910F900FBE0F901F901895339904C081EC94E00C94B62508951F920F920FB6BA
:205F20000F9211242F933F934F935F936F937F938F939F93AF93BF93EF93FF93E7DFFF91BD
:205F4000EF91BF91AF919F918F917F916F915F914F913F912F910F900FBE0F901F9018950A
:205F60001F920F920FB60F9211242F933F934F935F936F937F938F939F93AF93BF93CF936E
:205F8000DF93EF93FF9360918B0570918C0581E06D3D25E0720720F48091BE0491E08927D7
:205FA0008093BE042091B8043091B9043093B3042093B204E0919205C9018854944FE83095
:205FC00019F0CB01820F931F9093B9048093B8048091B8049091B9048217930760F4209117
:205FE000AF0431E023272093AF046D3D25E0720710F01092BE04AC0124E0569547952A956A
:20600000E1F75093AE044093AD04A091BA04B091BB04B093B504A093B404C0919405D0916E
:2060200095059D012C0F3D1F3093BB042093BA042A173B0730F4F091B004A1E0FA27F0939D
:20604000B0046C177D07A9F0D4E036952795DA95E1F73093AC042093AB042091BE042223DD
:2060600009F471C1EA3008F007C1F0E0E057F94C04C65093AC044093AB042091AF042093D5
:20608000B004EBCF2091AB043091AC04249FC001259F900D349F900D11249093AE0480934F
:2060A000AD04EAC08091AF04882341F08FEF9FE0841B950B9093AE048093AD048091930567
:2060C00090E095958795C4E0880F991FCA95E1F72091AD043091AE0482279327DECF8091EA
:2060E000AF04882341F08FEF9FE0841B950B9093AE048093AD048091AC04282F26952695AE
:20610000269530E040919305429FC001439F900D1124A4E0880F991FAA95E1F79093AC0438
:206120008093AB04D5CFF5E096958795FA95E1F72091AF042111B1CF2091B0042111ADCF4D
:20614000985FABCF8091AF04882341F08FEF9FE0841B950B9093AE048093AD048091B00494
:20616000882361F02091AB043091AC048FEF9FE0821B930B9093AC048093AB048091AD04C3
:206180009091AE042091AB043091AC04820F931F9695879582CF8091AF04882341F08FEF62
:2061A0009FE0841B950B9093AE048093AD048091B004882361F02091AB043091AC048FEF78
:2061C0009FE0821B930B9093AC048093AB048091AD049091AE042091AB043091AC04822B5D
:2061E000932B5BCF75E0969587957A95E1F72091AF04222381F09093AE048093AD04809170
:20620000AB049091AC04969587952091B0042111B1CF985FAFCF985FEECF8091AF04882308
:2062200041F08FEF9FE0841B950B9093AE048093AD042091AB043091AC0445E036952795DB
:206240004A95E1F740919305429FC001439F900D1124892F9927869501964091AD0450913B
:20626000AE04489F9001499F300D589F300D11243093AE042093AD0480911F06882389F033
:206280009FB7F89480911F06813009F059C08DB380931D062DB380911E06809582238DBB96
:2062A0009FBF80E58CBD81E08DBD8091AD049091AE04909300058093FF0420918B05309152
:2062C0008C05232B21F48091890590918A052A989F70906B0E9466252A9AFF91EF91DF913E
:2062E000CF91BF91AF919F918F917F916F915F914F913F912F910F900FBE0F901F90189587
:20630000FC0186E0F695E7958A95E1F7EE0FFF1FE854FB4F8081918124E0969587952A955E
:20632000E1F7609193054091AB045091AC04649F9001659F300D1124CFCE80E098E0ADCEF1
:2063400090931D06AECF8091BF0491E089278093BF048823F1F0809186050E945F25809150
:2063600085050E945F25809184050E945F25289A289880911F06882309F4AFCF9FB7F894ED
:2063800020911F0680911D06213071F48DBB9FBFA4CF8091890590918A059F702A98906113
:2063A0000E9466252A9AE5CF8FBF97CF85ED91E09093C2048093C1040895CF93CFB7F894CF
:2063C00080912006811123C0EAE9F0E08491E6E8F0E09491E82FF0E0EE0FFF1FE255FF4F0F
:2063E000A591B491EC91E92319F461E08AE098D361E08AE059D38CB580618CBD8CB580640F
:206400008CBD61E08DE050D361E08BE04DD3809120068F5F80932006CFBFCF9108952FB7C7
:20642000F89491E0882339F092E0813021F082E080931F0690E080911E06892B80931E062D
:2064400080911F06811103C081E080931F062FBF0895FC01918D228D892F90E0805C9F4FD1
:20646000821B91098F7399270895FC01918D828D981731F0828DE80FF11D858D90E0089559
:206480008FEF9FEF0895FC01918D828D981761F0A28DAE0FBF2FB11D5D968C91928D9F5F54
:2064A0009F73928F90E008958FEF9FEF0895FC01538D448D252F30E0842F90E0821B930B83
:2064C000541710F0CF960895019708958BEA93E3892B41F080E090E0892B21F03CD1811116
:2064E0000C9400000895FC01A48DA80FB92FB11DA35ABF4F2C91848D90E001968F73992722
:20650000848FA689B7892C93A089B1898C9180648C93938D848D981306C00288F389E02D02
:2065200080818F7D80830895CF93DF93EC01888D8823B1F0AA89BB89E889F9898C9185FD83
:2065400003C0808186FD0CC00FB607FCF7CF8C9185FFF2CF808185FFEDCFCE01C4DFEACFCC
:20656000DF91CF910895EF92FF920F931F93CF93DF93EC01F62E81E0888F9B8D8C8D9813FF
:2065800016C0E889F989808185FF11C0EE89FF896083E889F98980818064808381E090E04E
:2065A000DF91CF911F910F91FF90EF9008950B8D10E00F5F1F4F0F731127E02E8C8D8E112C
:2065C0000BC00FB607FCFACFE889F989808185FFF5CFCE0188DFF2CFEB8DEC0FFD2FF11D7F
:2065E000E35AFF4FF0820B8FEA89FB8980818062D4CFCF92DF92EF92FF921F93CF93DF931D
:20660000EC016A017B01122FE889F98982E08083C11481EED806E104F10499F060E079E0EF
:206620008DE390E0A7019601EAD221503109410951095695479537952795211580E138070B
:2066400090F0E889F989108260E874E88EE190E0A7019601D4D22150310941095109569593
:20666000479537952795EC85FD853083EE85FF852083188EEC89FD891083EA89FB8980814A
:2066800080618083EA89FB89808188608083EA89FB89808180688083EA89FB8980818F7D4C
:2066A0008083DF91CF911F91FF90EF90DF90CF9008952F932FB72F938F939F93EF93FF930C
:2066C000E0913106F09132068081E0913706F091380682FD19C0908180913A068F5F8F7341
:2066E00020913B06821741F0E0913A06F0E0EF5DF94F958F80933A06FF91EF919F918F91F2
:206700002F912FBF2F9118958081F6CF1F920F920FB60F9211242F933F934F935F936F9341
:206720007F938F939F93AF93BF93EF93FF9381E296E0D9DEFF91EF91BF91AF919F918F91CB
:206740007F916F915F914F913F912F910F900FBE0F901F90189581E296E07BDE21E0892B7B
:2067600009F420E0822F0895E1E2F6E01382128288EE93E0A0E0B0E084839583A683B78391
:206780008CED92E09183808385EC90E09587848784EC90E09787868780EC90E0918B808BE1
:2067A00081EC90E0938B828B82EC90E0958B848B86EC90E0978B868B118E128E138E148E2D
:2067C0000895CF92DF92EF92FF920F931F93CF93DF937C016A0110E000E00C151D0581F0A4
:2067E000EB01D701ED91FC910190F081E02D6991C7010995892B21F00F5F1F4FBE01EDCF3F
:20680000C801DF91CF911F910F91FF90EF90DF90CF90089508951F920F920FB60F9211248C
:206820002F933F934F935F936F937F938F939F93AF93BF93EF93FF93E0913201F091330187
:206840000995FF91EF91BF91AF919F918F917F916F915F914F913F912F910F900FBE0F902F
:206860001F9018951F920F920FB60F9211242F933F934F935F936F937F938F939F93AF93BD
:20688000BF93EF93FF93E0913401F09135010995FF91EF91BF91AF919F918F917F916F9197
:2068A0005F914F913F912F910F900FBE0F901F9018954F925F926F927F92AF92BF92CF923A
:2068C000DF92EF92FF920F931F93CF93DF93CDB7DEB729013A019B01AC012419350946097C
:2068E000570989899A89AB89BC89BC01CD016A197B098C099D0941D1A801970124193509EF
:20690000460957099ED1CA01B9016A0D7B1D8C1D9D1DDF91CF911F910F91FF90EF90DF90C5
