:020000040000FA
:200000005EC000000C9454320C947B3280C000000C94E32F0C94B32F7AC000000C940630CB
:2000200076C0000074C0000072C0000070C000006EC000000C94AF2A6AC0000068C00000FB
:200040000C94143364C000000C94A2310C94CF315EC000005CC000005AC0000058C0000016
:2000600056C0000054C000000000000800020100000304070000000000000000010204082E
:200080001020408001020408102001020408102004040404040404040202020202020303C0
:2000A0000303030300000000250028002B0000000000240027002A003C202730FD31112431
:2000C0001FBECFEFD8E0DEBFCDBF11E0A0E0B1E0EAE7FAE602C005900D92AA3FB107D9F78A
:2000E00026E0AAEFB1E001C01D92A43CB207E1F710E0CFE5D0E004C02197FE010E94AA34A0
:20010000CC35D107C9F70E9408330C94EB3478CFCF93DF93FC0183A190E070E068177907AF
:20012000CCF424A135A1AC0141505109D901A40FB51FAC91280F391FE901A88326A137A1EB
:20014000D901A40FB51FAC91820F931FEC01A883CA01E4CFDF91CF9108950F93FC0102A773
:2001600075A364A357A346A331A720A711A21182108281E082A313A2148A12820F9108955C
:200180000F931F93CF93DF93FC0180E093A1891708F531E0380F232F90E043A12417C0F41C
:2001A00044A155A18A01080F191FD8016C91C22FD0E04C0F5D1FDA014C91461738F4D80122
:2001C0004C93A4A1B5A1AC0FBD1F6C932F5FE5CF832FDCCFDF91CF911F910F9108950F9311
:2001E0001F93CF93DF93FC0180E09181891708F531E0380F232F90E041812417C0F440A5BD
:2002000051A58A01080F191FD8016C91C22FD0E04C0F5D1FDA014C91461738F4D8014C93C7
:20022000A0A5B1A5AC0FBD1F6C932F5FE5CF832FDCCFDF91CF911F910F910895FC0161A330
:200240000895FC0183A10895FC0190E080E022A52817190691F08CF0A4A1B5A1A80FB91F2A
:200260001C92A6A1B7A1A80FB91F1C92A0A5B1A5A80FB91F1C920196EACF13A20895CF9318
:20028000DF93FC01EC01659682A190E0DF015996009729F019928D939D930197F9CFCF01CA
:2002A000DF91CF91D1CFFC01862F642F81111FC050E083A184171506F1F0ECF084A195A1F6
:2002C0009A012F5F3F4FDC01A20FB31F6C91840F951FDC016C9366A177A1DB01A20FB31F69
:2002E0008C91460F571FDA018C93A901E2CF813011F4CF010DCF0895CF93DF93FC0161117F
:2003000011C050E0818184171506F1F0ECF0A0A5B1A5A40FB51F11968C9111978C934F5F0C
:200320005F4FF0CF613081F4818190E050E04817590754F4A0A5B1A5A80FB91FED012197D1
:2003400028812C930197F3CFDF91CF910895FC01218130E090E080E0821793074CF4A0A537
:20036000B1A5A80FB91F4C91461719F00196F4CF8FEF0895CF93DF93EC018981882359F021
:20038000CE01E5DF482F8F3F31F060E0CE01B4DF89818150898381E029819AA1291708F459
:2003A00080E0DF91CF910895FC0123A130E090E080E0821793074CF4A4A1B5A1A80FB91F32
:2003C0004C91461719F00196F4CF8FEF0895ECDF982F81E09F3F09F480E00895CF93DF93C6
:2003E000EC01E2DFEEA1FFA1E80FF11D8081DF91CF910895E62FE695E695E695E80FF92F08
:20040000F11D962F977041E050E060E070E004C0440F551F661F771F9A95D2F740958381AA
:200420004823438308951F93CF93DF93EC01162FA1DF898190E0E8A5F9A5009741F0E80F52
:20044000F91FDF0111972C9120830197F4CF89819AA5891710F48F5F89831083DF91CF91F7
:200460001F910895EF92FF920F931F93CF93DF93EC01162F8BA1813071F480E09AA5891742
:2004800038F4E8A5F9A5E80FF11D10828F5FF6CF19821C8A1A82612FCE01C5DF89A18230FF
:2004A00009F057C02AA18BA1FE017596281780F4AF0190E08FEF622F70E029130BC090E082
:2004C0002917A9F03191311301C0892F9F5FF8CF8FEFF5CFDA010D91AD01ACA1BDA1A60F36
:2004E000B71F3C91031301C0892F9F5FE6CF8F3FD1F4FE017996DF0120E0921749F04D91D6
:200500005D918417150611F008F0842F2F5FF5CF20E0921741F0419151918417150609F4F8
:20052000822F2F5FF6CF891768F490E0FC01EE0FFF1FEC0FFD1F2FEF30E0328F218FC80FA6
:20054000D91F1D8BDF91CF911F910F91FF90EF900895CE0115DECE0142DE9AA1FE01799636
:20056000DF0180E0981721F01D921D928F5FFACF99A1913009F061C02BA1211116C0998163
:20058000981700F3292F30E0DE015596A90141505109692F621B6817A8F6E8A5F9A5E40FA2
:2005A000F51F20812D939A01F1CF2817E0F0422F50E08E010B5E1F4FEE24EA94F12CBA01ED
:2005C00061507109922F941B981708F0BBCFACA1BDA1A60FB71F9C91D8019D938D01E192E2
:2005E000F192AB01ECCF90E04FEF50E041935193692F9F5F2913FACF292F30E0ECA1FDA14D
:20060000E20FF31FDE01559640E052915D93542F4F5F6513FACF498150E0421B530BE8A566
:20062000F9A5E40FF51F2B5E3F4FC20FD31F229129939F5F8913FBCF85CF911183CF2BA154
:20064000211114C09981981708F47CCFDE01559630E020E0281708F075CFE8A5F9A5E20F13
:20066000F31F90819D932F5F3F4FF4CF4FEF50E02817B8F0AE014B5E5F4F30E020E06FEF7F
:2006800070E0281708F05ECFACA1BDA1A20FB31F9C91DA019D93AD01619371932F5F3F4F7E
:2006A000F0CF419351939F5F2913FBCF2CA1DE015596E22FFDA131913D933E2F321B3917DD
:2006C000D0F3292F30E0E8A5F9A5E20FF31F2B5E3F4FC20FD31F219129939F5F8913FBCF15
:2006E00031CFFC0132A1432F50E020E0321769F0818D928D4817590728F0009719F00197AA
:20070000928F818F2F5F3296F1CF0895CF93DF93EC0189A1813001F1823081F0811176C07C
:200720009AA1FE017596DF012FEF981709F43FC03D91361301C0282F8F5FF7CF2AA1FE011E
:20074000759690E08FEF291709F44EC03191361301C0892F9F5FF7CF9AA1DE015596FD010A
:2007600080E02FEF981731F03191361301C0282F8F5FF8CF9BA1692F70E0281760F49B0100
:200780002150310940F04CA15DA1420F531FFA0140814D93F5CFFB01EE0FFF1F7996EC0F4F
:2007A000FD1F981798F5119211929F5FFACF9BA1281768F430E020E0291748F4ACA1BDA1C6
:2007C000A20FB31F4C9141932F5F3F4FF5CFE92FF0E0EE0FFF1F7996EC0FFD1F9817B0F489
:2007E000119211929F5FFACF821780F490E0422F50E03BA1321788F0ECA1FDA1E40FF51FFF
:20080000319720818C0F9D1FFC01258B8BA1811101C01882DF91CF910895880F991FFE0197
:20082000E80FF91F528F418FCE015BDFEFCF1F93CF93DF93EC01162F8BA1882359F0CE018A
:20084000B3DD482F8F3F31F060E0CE012CDD8BA181508BA3612FCE0159DF81E02BA19AA160
:20086000291708F480E0DF91CF911F9108950F931F93CF93DF93EC01162F042FD8DF612FEB
:20088000CE01B8DD60E0CE0143DC8BA19AA5891710F48F5F8BA3ECA1FDA11083EEA1FFA1AE
:2008A0000083612FCE01DF91CF911F910F91DACDFC01E60FF11D658991CDFC01E60FF11D43
:2008C000858908958091440282FD1092190108958091440282FF03C081E080931901089578
:2008E000CF93C62F109228022091E20230E02F5F3F4F8217130661F48DEE92E0A2DC6C2F07
:200900008DEE92E094DF60E08DEE92E0CF91D5CFCF9108950C94D5340C94DD34DC01ED9194
:20092000FC910190F081E02D0994DC01ED91FC910190F081E02D09940F931F93CF93DF93C2
:2009400005EB15E0CAECD3E0F80160810E5F1F4FCE01E2DFF80132976181CE010196DCDF3F
:200960002296C83EF3E0DF0779F7DF91CF911F910F910895EF92FF920F931F93CF93DF9399
:2009800085EBE82E85E0F82ECAECD3E001E0CE01C1DF182FCE010196BDDF612F0E940433DB
:2009A000F701819391937F01009318062296C83EF3E0DF0761F7DF91CF911F910F91FF9058
:2009C000EF9008950F931F93CF93DF9307EA14E0C8EED3E0F80160810E5F1F4FCE019CDF86
:2009E000F80132976181CE01019696DF2296C115F4E0DF0779F7DF91CF911F910F91089503
:200A0000EF92FF921F93CF93DF9387EAE82E84E0F82EC8EED3E0CE017DDF182FCE010196EC
:200A200079DF612F0E940433F701819391937F012296C115F4E0DF0771F7DF91CF911F9115
:200A4000FF90EF90089588EB93E064DF8093440288EB93E05FDF91E0811101C090E09093EE
:200A600043028BEB93E056DF91E0811101C090E0909342028CEB93E04DDF8093040184ECDA
:200A800093E048DF8093E20208956091440288EB93E042DF6091430288EB93E03DDF6091C1
:200AA00042028BEB93E038DF609104018CEB93E033DF6091E20284EC93E02ECF1F93CF9337
:200AC000DF93D82FC62F142F81E08093280290912A02992371F09091CB0291110AC08093F0
:200AE00029028FEF8D0F8093E2028DEE92E0ACDBCCDF2091E20230E02F5F3F4FD2171306D8
:200B000031F58DEE92E09DDB811104C010922D0210922C02412F6C2F8DEE92E0A8DE8091C4
:200B20004202209144028823B1F021FF0AC060E08DEE92E0C2DE482F61E080EB93E00E943F
:200B4000022760E08DEE92E0B3DE80932B02DF91CF911F9108958C2F6CE00E943934392FD3
:200B600081E090E0A0E0B0E004C0880F991FAA1FBB1F3A95D2F740912C0250912D02842B88
:200B8000952B90932D0280932C0221FF04C09093C2028093C102D0E0C0E06C2F8DEE92E089
:200BA00016DC8111DC2FCF5FCF37B9F78D2F6CE00E9439348350990B9093400480933F0477
:200BC000C6CF9091C7029923B9F080912702811105C08091C8028F5F8093C8028091C8021F
:200BE000981710F41092C802E091C802F0E0E056FD4F8081809396029091C502992379F18F
:200C000080912702811105C08091C6028F5F8093C6028091C602981710F0811102C0109223
:200C2000C602E091C602F0E0E25DFD4F8081809345028DEE92E005DB811111C0E091450215
:200C4000F0E0EE0FFF1FEB5FFE4F808191819093C2028093C1021092400410923F040895DA
:200C6000CF93DF938EE08093C002C091960280914F02882349F0D0E06D2F80EB93E00E9462
:200C80006B29DF5FD830C1F780919702882309F188E0C89FF0011124EA5AFD4F8091540287
:200CA00090915502E80FF91F80915002909151029695879596958795808380912702882360
:200CC00069F01092270281E08093EC02DF91CF910895809196028F3F81F7F5CF8091520209
:200CE0009091530287309105D4F401969093530280935202E091E30288E0E89FF001112488
:200D0000EA5CFE4F8091520290915302E80FF91F808190E09093550280935402D4CF1092BD
:200D20005302109252024DDFE5CF8091440282FF06C080912702882361F0109227028091D8
:200D40001502909116020196909316028093150208956091040170E0809115029091160203
:200D60000E944534892B49F481E080939F0280911901882321F374DFE2CF10929F02DFCF73
:200D8000E0910101F0E0EA57FE4F608170E00E944534892B41F481E080939F02809119010D
:200DA000882319F05DCF10929F0208950F931F93CF93DF9300D000D000D0CDB7DEB78091B1
:200DC000230290912402A0912502B091260280931F0290932002A0932102B093220280EB45
:200DE00093E00E94C729462F572FBC014093230250932402609325027093260240931B0200
:200E000050931C0260931D0270931E0280911F0290912002A0912102B09122028A019B0147
:200E2000081B190B2A0B3B0B09831A832B833C8300933E0210933F022093400230934102A8
:200E40008091190290911A022CE0289F8001299F100D11241093180200931702209103019D
:200E600030E050E040E069817A818B819C810E946C3430931601209315018091440282FD49
:200E800002C0C8017DDF8091190290911A0201968F3F910509F078F490931A028093190235
:200EA00026960FB6F894DEBF0FBECDBFDF91CF911F910F91089510921A0210921902F0CF38
:200EC0006EE080EB93E00E946B29882371F069E080EB93E00E946B29882339F06DE080EBBB
:200EE00093E00E946B29811161CF08956EE080EB93E00E946B29811110C080EB93E00E94A6
:200F0000C7296093110270931202809313029093140281E08093100249CF69E080EB93E09E
:200F20000E946B29882349F36DE080EB93E00E946B29882311F3089581E080932702809337
:200F400019011092C8021092C6021092550210925402109253021092520233CE1092160208
:200F6000109215028091440282FDE6CF0895CF92DF92EF92FF920F931F93CF93DF93262F2F
:200F8000862F6CE00E943934492F0091C1021091C20290E080E030E0B801082E02C0769574
:200FA00067950A94E2F760FD31E001968C30910599F7C80102C0969587954A95E2F780FDD0
:200FC00038C03323B1F130E0C22FD0E0ECE0F0E0CE01830F911DBF010E945934A80102C06B
:200FE000569547958A95E2F740FD02C03F5FF0CF40E0ECE0E20FF0E08CE0C82ED12CE42EB8
:20100000F12CCF018E199F09B6010E945934B80102C0769567958A95E2F760FD02C04F5F67
:20102000EECF431780F4CE19DF091C161D065CF4241B822FDF91CF911F910F91FF90EF9093
:20104000DF90CF900895230FF4CF861797074CF08417950724F081E0461757074CF480E0B2
:2010600007C048175907DCF381E064177507BCF30895AF92BF92CF92DF92EF92FF920F935F
:201080001F93CF93DF9300D000D0CDB7DEB7E091960228E0E29FF0011124EA5AFD4F8091B8
:2010A000540290915502E80FF91F808134E0839FC00111248B3F91050CF43EC09C01990F83
:2010C000440B550B29833A834B835C838091FE031F921F921F928F939CE0A92EB12CC12CE7
:2010E000D12CE12C14E0F12E00E010E02AEF30E040E050E069817A818B819C810E94A23206
:2011000040E08091450233DF482F0F900F900F900F9060E080EB93E00F900F900F900F90B8
:20112000DF91CF911F910F91FF90EF90DF90CF90BF90AF900C940227809150029091510285
:201140009C0150E040E029833A834B835C831F921F928FE08F938FEF8F93A12CB12C6501E9
:201160001AEFE12EF12C00E010E020E030E0A90169817A818B819C810E94A2320F900F90EE
:201180000F900F90AB0160E080EB93E00F900F900F900F90DF91CF911F910F91FF90EF909D
:2011A000DF90CF90BF90AF900C949B21AF92BF92CF92DF92EF92FF920F931F93CF93DF93D9
:2011C00000D000D0CDB7DEB7809142028823B1F18DEE92E036D8882389F18091440281FFBD
:2011E0002DC060E08DEE92E068DB482F61E080EB93E00E9402271092470260E080EB93E028
:201200000E94C12040919B0250919C0273E0440F551F7A95E1F761E080EB93E00F900F9000
:201220000F900F90DF91CF911F910F91FF90EF90DF90CF90BF90AF900C94B62080919902C4
:2012400090919A0292502091480230914902820F931F20919702211166C0209119012223F3
:2012600009F461C0E091960228E0E29FF0011124EA5AFD4F2091540230915502E20FF31FE6
:20128000208144E0249F90011124820F931F97FD56C0813054E0950714F080E094E0909397
:2012A00051028093500280915002909151029C0150E040E029833A834B835C8320914C029D
:2012C000222309F460C08B3F9105E0F18091FF031F921F921F928F93FCE0AF2EB12CC12CB0
:2012E000D12CE12C14E0F12E00E010E02AEF30E040E050E069817A818B819C810E94A23204
:2013000040E08091450233DE482F61E080EB93E00E940227109247020F900F900F900F907C
:20132000609147026BCF81152EEF920744F0813032E0930714F080E092E09E5FB0CF90E09A
:2013400080E0ADCF1F921F928FE08F938FEF8F93A12CB12C65011AEFE12EF12C00E010E009
:2013600020E030E0A90169817A818B819C810E94A232AB0161E080EB93E00E949B2181E0A5
:2013800080934702C9CF8B3F9105C8F1A090B505B090B605D12CC12C1F921F9280E18F938C
:2013A0001F92E12C14E0F12E00E010E02AEF30E040E050E069817A818B819C810E94A2328F
:2013C0008B0140919B0250919C025695479556954795400F511F61E080EB93E00E949B21CA
:2013E000109247020F900F900F900F906091470280EB93E00E94C12050E040E00CCF1F920F
:201400001F923FE03F934FEF4F93A12CB12C65011AEFE12EF12C00E010E020E030E0A9013B
:2014200069817A818B819C810E94A23269837A838B839C8380919B0290919C02969587955E
:201440009695879529813A814B815C81280F391F411D511DDA01C9010F900F900F900F90BB
:2014600050E040E0B7FD64C080915002909151029C0150E040E029833A834B835C831F92B9
:201480001F923FE03F934FEF4F9320E030E0A90169817A818B819C810E94A23269837A8363
:2014A0008B839C8380919B0290919C02969587959695879529813A814B815C81280F391F67
:2014C000411D511DDA01C9010F900F900F900F904FEF5FE081159041A105B1054CF580918D
:2014E0005002909151029C0150E040E029833A834B835C831F921F923FE03F934FEF4F93B0
:2015000020E030E0A90169817A818B819C810E94A2328B0140919B0250919C02569547954D
:2015200056954795400F511F0F900F900F900F9061E080EB93E00E949B2181E0809347026F
:2015400055CF1F93CF93DF936CE080EB93E00E947729882309F430C180914602882309F4DB
:201560001BC1C0E06C2F80EB93E00E946B2981118DC1CF5FC830B1F7D0E0C0E06C2F80EB3C
:2015800093E00E9477298823F1F041E06C2F80EB93E00E94C8201092460281E08093CB02BB
:2015A000C0934502FE01EE0FFF1FEB5FFE4F808191819093C2028093C1021092C502109205
:2015C000400410923F042196C830D105B9F66CE080EB93E00E947729882369F0E091450286
:2015E000F0E0EE0FFF1FEB5FFE4F80912C0290912D02918380836EE080EB93E00E94772955
:20160000882319F081E08093FE016EE080EB93E00E946B2969E0882309F446C180EB93E06B
:201620000E9477298823E9F0E0914502F0E0EE0FFF1FDF01AB5FBE4F8D919C911197880FC0
:20164000991F94FD2DC18D939C93EB5FFE4F808191819F7E9183808381E0809346021092C8
:20166000FE016DE080EB93E00E9477298823B1F0E0914502F0E0EE0FFF1FEB5FFE4F2081D7
:201680003181C9019695879520FF0CC198609183808381E0809346021092FE016EE080EB76
:2016A00093E00E9495298823A1F18091FE01882381F12091450230E0220F331FF901EB5F1E
:2016C000FE4F408151816091980281E090E0A0E0B0E0062E04C0880F991FAA1FBB1F0A9436
:2016E000D2F7EA0102C0D695C7956A95E2F7C0FD09C1842B952B918380832B5F3E4FF901B7
:20170000808191819093C2028093C10281E080930F02C0E040E06C2F80EB93E00E94C820B1
:20172000CF5FC830B9F78091460241E060914502882359F1C1E0D0E0E0919802F0E0E65DBD
:20174000FE4F408150E00C2E02C0559547950A94E2F741706C2F80EB93E00E94C8202196A7
:20176000C830D10549F7E0914502F0E0EE0FFF1FEB5FFE4F809198024081518102C0569536
:2017800047958A95E2F7417060E080EB93E0DF91CF911F910C94C8201092400410923F04D3
:2017A00060E080EB93E00E94C12061E080EB93E00E94002E8111C0D880914602D0E0C0E0C6
:2017C0008111CFCE1C2F6C2F80EB93E00E9477298823E1F18091C302811199C01092C6022C
:2017E0001092C5021092C40211E01093C302E091C902F0E0E25DFD4FC08341E06C2F80EBBE
:2018000093E00E94C82080EB93E00E94B1296093DC027093DD028093DE029093DF02109225
:2018200046021093CB02C0934502FE01EE0FFF1FEB5FFE4F808191819093C2028093C102D5
:201840001092C5021092400410923F042196C830D10509F0B7CF6EE080EB93E00E947729E2
:20186000882309F46BC081E0809346028093CB026091450280EB93E00E946B29882309F405
:2018800048CF80EB93E00E94B12943CFD0E06D2F80EB93E00E947729DF5FD830C1F769CE24
:2018A0008160D1CE977FF3CE80EB93E00E947729882379F080914602882341F080919802BD
:2018C0008F5F6CE00E9439349093980281E0809346026DE080EB93E00E947729882309F431
:2018E000DDCE80914602882339F080919802811107C08BE08093980281E080934602CECE9C
:201900008150F8CF8095909584239523F4CE8091C4028F3018F48F5F8093C4028091C40294
:20192000E82FF0E0E25DFD4F10838093C50241E0612F80EB93E00E94C82088CF69E080EBA4
:2019400093E00E94772981118ECF6DE080EB93E00E947729811187CF8BCFCF93DF9300D090
:2019600000D0CDB7DEB780EB93E00E94C72969837A838B839C8380911B0290911C02A0915A
:201980001D02B0911E0249815A816B817C81481B590B6A0B7B0B8091150190911601B0E088
:2019A000A0E0481759076A077B07C8F080EB93E00E94C72960931B0270931C0280931D026A
:2019C00090931E0220914402809117029091180222FF0CC0019690931802809317020F90DC
:2019E0000F900F900F90DF91CF9108952091100221110CC0019690931802809317020F903D
:201A00000F900F900F90DF91CF91BAC94091190250911A026CE0649F9001659F300D112457
:201A20002150310982179307D0F6E4CFDC01D296EC91D297E03E60F4E03B09F444C088F41A
:201A4000E03929F1E03A09F45CC0E03889F00895E05EE03208F0A8C0F0E0E351FB4C0C9457
:201A6000AA34E03C09F45FC0E03D09F44FC00895ED91FC911197309709F496C0D4964C9176
:201A8000D497D3966C91D397D1968C9109941296ED91FC911397EFCF5896ED91FC9130970F
:201AA00009F482C009945A96ED91FC91F8CF5C96ED91FC91F4CF5E96ED91FC91F0CF9096E4
:201AC000ED91FC91ECCF1696ED91FC911797D3CF1C96ED91FC911D97309709F465C0D49675
:201AE0006C91D49720E8629FB001112460787F73D3968C91D3978F77682B7052D1968C91F6
:201B000009941496ED91FC911597B5CF1A96ED91FC911B97309709F447C0D3966C91D3973B
:201B2000D1968C9109941896ED91FC911997F2CF1E96ED91FC911F973097B1F1D3966D9115
:201B40007C91D4976115710511F061E070E0CD01C59609945096ED91FC915197309721F117
:201B6000D3968C9109945296ED91FC9153973097D9F0D4968C91D49720E8829FC0011124C4
:201B800080789F73D3962C912F77822B09945496ED91FC915597E2CF5696ED91FC917FCF4E
:201BA0009296ED91FC917BCF0895982F9F7E282F2F7C203839F0803E29F081E0903C19F097
:201BC00080E0089581E0089587FF0CC09CE0980F923040F0982F9B7F993F21F0803F18F40E
:201BE000807F089580E008950F931F93CF938C01C62F6D3F50F46A3F50F4663F41F0683FBA
:201C000031F0CF911F910F9108956E3FD0F3D801D7968D919C91DC01ED91FC910190F0816B
:201C2000E02D6C2F0995C63F61F7F80110A6E9CFEF92FF920F93CF93DF937C01C62FD22F9F
:201C40006FEF600F603110F4C7FD09C0D70198961C92DF91CF910F91FF90EF900895C13EC7
:201C600080F5042F0F776C2BFC0180A5861751F087A990AD60A7DC01ED91FC910190F08141
:201C8000E02D0995F70187A990ADDC01ED91FC910190F081E02D602F0995CF7EC03CC9F20C
:201CA000F70187A990AD6D2F6F77DC01ED91FC910190F081E02DDF91CF910F91FF90EF90C8
:201CC0000994C63F30F26C2FDF91CF910F91FF90EF908ACF0F931F93CF93DF93EC018EA18A
:201CE000982F917080FF1DC0282F2E7FD1F06AA920E8260F2136E8F409A929A5021719F0D6
:201D000091E0211190E08695823049F0833071F0813039F42CA94BA9CE018ADF02C0911153
:201D2000F9CFDF91CF911F910F9108959111F9CFF1CFE0E1E60FE031A0F7F0E0E35FFA4C3E
:201D40000C94AA34CE01DF91CF911F910F914CCF0BA91CA90115110511F001E010E090E014
:201D600080E080179107F8F48FA998ADDC01ED91FC910190F081E02D6DA9099581E090E0EF
:201D8000F0CF1BA98FA998ADDC01ED91FC910190F081E02D63EF09951F77612F70E08FA9AE
:201DA00098AD0E94950418A6BCCF0CA9B0E80B9F800111248BA9082B8FA998ADDC01ED916E
:201DC000FC910190F081E02D62EF0995B8016F7777278FA998AD0E948E04B801660F672FC6
:201DE000661F770B71956F7777278FA998AD0E948E04D9CF6BA9B0E16B9FB001112460778D
:201E00001CA91F70162B8FA998ADDC01ED91FC910190F081E02D61EF09958FA998ADDC0171
:201E2000ED91FC910190F081E02D612F0995BBCFCF92DF92FF920F931F93CF93DF93EC0158
:201E4000F9A480E18F1550F410E0812FDF91CF911F910F91FF90DF90CF9008958FA998AD65
:201E6000DC01ED91FC910084F185E02D0995892B59F38FA998ADDC01ED91FC910284F38572
:201E8000E02D09958C018FA598A9009709F088C00AA7DFA08D2D98DE88DE882341F007FD17
:201EA00006C0DAA60BA781E090E098AB8FA71AA5812F8ADE803E88F4803B09F464C0B0F44F
:201EC000803A09F460C08F7E803809F45CC018AA1FA61EA61DA61FA2B7CFE0E2E80FE0322D
:201EE000B0F7F0E0E35EFA4C0C94AA348F7E803C71F782E090E09EA78DA78FA598A9CDA404
:201F0000DEA49601215031098217930708F4C4C0812F5ADE8AAB1F701F5F19AB8BA58BABF6
:201F2000B3E0CB16D104D1F58CA58CAB18AA1FA61EA61DA681E08EAB0AC08AAB19AA1BAAFB
:201F40001CAA81E08EAB18AA1FA61EA61DA68AA9803929F48CA9811102C080E88AAB8AA9B1
:201F6000882309F49DC08058813630F489A599A9981711F0811194C0CE0158DD11E06F2D12
:201F8000CE01A8DE62CF83E090E0B5CF81E090E09EA78DA71FA280EF8DABAFCF1CAAC6CFD9
:201FA00007FF0DC098013327083F09F448C0293F31050CF03DC0273F310509F44BC02AA505
:201FC000FE01E80FF91F203F09F05AC005ABCDA4DEA49601215031098217930708F45CC051
:201FE0000AA5003F09F473CF802FEEDD182F8AABDCDD882309F446C0802F8F708F5F89AB87
:202000008BA58BAB83E0C816D104F1F58CA58CAB18AA1FA61EA61DA681E08EAB103B31F0E2
:20202000A8F5103A19F01F7E103841F50FA38FCF2D3F31054CF4293F310509F4C0CF0AABC4
:202040001BAA1CAA19AA76CF2E5F310922303105B0F3B5CF2DA9203F09F039CFFE01E80F4B
:20206000F91F37EF35AB2AAB01969CAB8BAB19AA81E08EAB18AA1FA61EA61DA61FA267CFF7
:2020800002A7A5CF19AABCCF1CAAC2CF103E71F21F7E103C99F7CACF019698AB8FA7D4CE09
:2020A00010E06DCFCF93C09119018DEE92E0CC2309F409C10E94210161E0811101C060E0EC
:2020C00080EB93E00E945228E0919602F0E0E453FD4F808190E00090540202C0959587954B
:2020E0000A94E2F74091180150E080FD02C050E040E061E080EB93E00E94D721E0919602FE
:20210000F0E0E453FD4F808190E00090540202C0959587950A94E2F780FD08C08DEE92E064
:202120000E942101C1E0811101C0C0E06C2F80EB93E00E947328E0919602F0E0EC52FD4F2E
:20214000608170E00090540202C0759567950A94E2F7617080EB93E00E944C28E09196025B
:20216000F0E0E453FD4F608170E00090540202C0759567950A94E2F7617080EB93E00E9465
:202180005D2860919F0280EB93E00E9468286CE080EB93E00E946B29811133C080914602DA
:2021A000882309F4B1C0E0914502F0E0EE0FFF1FEB5FFE4F809198026081718102C0769581
:2021C00067958A95E2F7617080EB93E00E947E2860E080EB93E00E947A21C1E0482F4C272E
:2021E00060E080EB93E00E949A2862E080EB93E00E947A21482F4C2761E080EB93E00E9455
:202200009A286DE080EB93E00E947729882391F06EE080EB93E00E946B2981110BC069E05B
:2022200080EB93E00E946B29811104C08091CB0261E0811160E080EB93E00E948928809101
:20224000C002882309F469C080910201882309F464C0E0919602F0E0EC52FD4F608170E077
:202260000090540202C0759567950A94E2F7617080EB93E00E94942860E080EB93E00E946C
:202280002523909312068093110686E793E0D0DD80EB93E00E94152280EB93E00E94B928EC
:2022A0008091EC02882351F01092EC0280EB93E00E94152280EB93E00E94152280EB93E057
:2022C000CF910C94E5290E94210161E0811101C060E080EB93E00E9452288DEE92E00E94CF
:2022E000210161E0811101C060E080EB93E00E94732860E080EB93E00E945D2860E080EBDD
:2023000093E00E944C283DCF8091190161E0882309F45ACF60919F0257CF60E0A9CFCF921A
:20232000DF92FF920F931F93CF93DF9397E7899FE00111248E01005C1F4F85E0C82E81E0A2
:20234000D82EC05BDF4FAEDEC8010E948A04F82EC80101960E948A046F2D0E940433F60187
:20236000819391936F010E5F1F4F0C171D0759F7DF91CF911F910F91FF90DF90CF90089529
:202380000F931F93CF93DF9305E011E097E7899FE0011124C05CDF4F85DEF80160810E5F8F
:2023A0001F4FCE010E948C04F80132976181CE0101960E948C042296F1E005311F0761F735
:2023C000DF91CF911F910F9108952F923F924F925F926F927F928F929F92AF92BF92CF9285
:2023E000DF92EF92FF920F931F93CF93DF9300D000D0CDB7DEB7782E27E7829F500111241E
:20240000BC82AB82C5018F589F4F0E948A0480934502C50180599F4F0E948A048093C70293
:20242000C5018E589F4F0E948A048093C502C5018D589F4F0E948A0480930101C5018C5870
:202440009F4F0E948A0430E020E090E0E0E0A82FB0E0C12CD12C7601C394B701A601022E70
:2024600004C0440F551F661F771F0A94D2F78D01022E02C0159507950A94E2F700FF07C14B
:20248000E42B89010D5F1F4F5D0102C0B594A7940A95E2F7A0FEFFC0942B2F5F3F4F233022
:2024A0003105D9F6E09317019093E302F0E0EA58FE4F8081809318018B819C818B589F4FFE
:2024C0000E948A04182F8B819C818A589F4F0E948A04612F0E9404339C0190931601809309
:2024E000150140910301429FC001439F900D1124B0E0A0E080933E0290933F02A09340025F
:20250000B0934102AB80BC8028E0A20EB11C0B811C81C8DD780158E0D52EC7010E948A04CF
:20252000F7012B813C81E21BF30BEA5AFD4F8083DA9438E0E30EF11CD110EFCF0F5F1F4FAD
:202540000A151B0531F70B811C81005B1F4F20EAE22E22E0F22E3EE2C32E32E0D32E2B8017
:202560003C8080E6280E311C812C912C5401839499DDC8010E948A04F70111927F01F6015F
:2025800011926F0130E020E0482E512CF7013197D60111976080B501A401022E04C0440F64
:2025A000551F661F771F0A94D2F7C201022E02C0959587950A94E2F780FF70C0642A608294
:2025C0006C90C90103969A838983C201098002C0959587950A94E2F79A83898380FF62C0DE
:2025E00046294C932F5F3F4F2330310599F60F5F1F4F0215130509F0BBCF84EDC82E82E002
:20260000D82E9CECE92E92E0F92EEB81FC81E859FF4FFA83E98346DDC8010E948A04F60108
:2026200081936F01C80108960E948A04F70181937F010F5F1F4FA980BA800A151B0559F725
:202640008091C702811104C08091A00280939602872D65DE7092E102672D80EC93E00F90FE
:202660000F900F900F90DF91CF911F910F91FF90EF90DF90CF90BF90AF909F908F907F9096
:202680006F905F904F903F902F900C948C04842F8095E823F6CE40959423FFCE842F8095F7
:2026A00068228DCF409564226C929CCF2F923F924F925F927F928F929F92AF92BF92CF92B6
:2026C000DF92EF92FF920F931F93CF93DF9300D000D0CDB7DEB7782E198241E0698180EBDF
:2026E00093E00E94C82029812F5F29832830A9F780EB93E00E94B92827E7729E100111243C
:202700003C822B8260914502C1018F589F4F0E948C046091C702C10180599F4F0E948C04D8
:202720006091C502C1018E589F4F0E948C0460910101C1018D589F4F0E948C04E0911701D6
:20274000F0E0A091E302AA2EB12C30E020E060E0C12CD12C7601C394122FD701C601022EC6
:2027600004C0880F991FAA1FBB1F0A94D2F7AF01022E02C0559547950A94E2F740FFEBC073
:20278000862BA9014D5F5F4F1601270104C0220C331C441C551C4A95D2F7A101250102C001
:2027A000559447941A95E2F7682F642B40FC03C0642F609568232F5F3F4F2330310561F699
:2027C0008B819C818C589F4F0E948C04609115018B819C818B589F4F0E948C046091160191
:2027E0008B819C818A589F4F0E948C04AB80BC8028E0A20EB11C0B811C81780148E0D42EF6
:20280000F7012B803C80E219F309EA5AFD4F6081C7010E948C04DA9428E0E20EF11CD110A3
:20282000EFCF0F5F1F4F0A151B0539F780EA92E09A8389832EE2C22E22E0D22E8101005BAB
:202840001F4F710190E6E90EF11C812C912C5401839428DCA981BA818D91BA83A98390E0E8
:20286000F60141916F0150E070E030E020E0A22F14012501022E04C0220C331C441C551C41
:202880000A94D2F7FC01022E02C0F595E7950A94E2F7E0FF63C07229F901339614012501CA
:2028A00004C0220C331C441C551CEA95D2F7FA0102C0F595E795AA95E2F7E0FF53C0722956
:2028C0002F5F3F4F2330310591F6672FC8010E948C040F5F1F4F0E151F0509F0BACF84ED25
:2028E000C82E82E0D82E9CECE92E92E0F92E8B819C8188599F4F9A838983D4DBD6016D919D
:202900006D01C8010E948C04F70161917F01C80108960E948C040F5F1F4F29803A800215F5
:20292000130559F7872D2CDD0F900F900F900F90DF91CF911F910F91FF90EF90DF90CF90FA
:20294000BF90AF909F908F907F905F904F903F902F900C9445058095862313CF622D609522
:2029600076239ACF20947221ABCFCF9381E080934C0210929602109245021092C70288EE6C
:2029800093E090931601809315011092E30284E08093170180930101E6E5F2E080E881931D
:2029A00087838787878B878F87A387A787AB92E0EE35F907A1F7E0EAF2E080EC92E0119203
:2029C0008E179F07E1F7C0E08C2F70DECF5FC830D9F71092E10283E080934402109243020D
:2029E0001092420285E080930401809301011092E2020E94450582E08093E0026091E102C2
:202A000080EC93E00E948C0461E781EC93E00E948C046BE582EC93E00E948C0462E883EC2F
:202A200093E0CF910C948C0481EC93E00E948A048137A9F482EC93E00E948A048B3579F4F0
:202A400083EC93E00E948A04823849F480EC93E00E948A048093E102B8DC0C94230585CFB8
:202A6000CF92DF92EF92FF920F931F93CF93DF9300D000D00F92CDB7DEB709E912E0198271
:202A8000698180EB93E00E947A216981882309F415C280EB93E00E94F920882309F4F7C1CF
:202AA000698180EB93E00E944E21F981FF5FF9830E5F1F4FF33021F78091EC02882351F0E8
:202AC0001092EC0280EB93E00E94152280EB93E00E9415226CE080EB93E00E946B298823ED
:202AE000C1F16BE080EB93E00E947729882379F08091420221E08227809342020E94450563
:202B000031E03093CB021092400410923F044091420251E0452760E080EB93E00E949A2815
:202B20006AE080EB93E00E947729882359F08091430291E08927809343020E944505A1E0FB
:202B4000A093CB024091430261E080EB93E00E949A286BE080EB93E00E947729811110923D
:202B600046026BE080EB93E00E949529882349F080910F02882319F08091E10201DC109257
:202B80000F026BE080EB93E00E946B296AE0882309F4C7C180EB93E00E946B29882329F073
:202BA00080914602882309F491C168E080EB93E00E946B298111AAC10E94A10A6EE080EB63
:202BC00093E00E947729882361F080EB93E00E94B1296093070270930802809309029093A0
:202BE0000A0269E080EB93E00E947729882361F080EB93E00E94B12960930B0270930C02F9
:202C000080930D0290930E026DE080EB93E00E947729882361F080EB93E00E94B1296093A9
:202C200003027093040280930502909306026CE080EB93E00E947729882361F080EB93E0FB
:202C40000E94B1296093FF017093000280930102909302026EE080EB93E00E94952988238C
:202C600009F477C08091CB02811173C080EB93E00E94B12969837A838B839C8380910702F3
:202C800090910802A0910902B0910A0229813A814B815C81281B390B4A0B5B0BDA01C9018B
:202CA0004997A105B10508F054C08091E4029091E502A091E602B091E7028093E80290936A
:202CC000E902A093EA02B093EB0280EB93E00E94C729462F572FBC014093E4025093E5020F
:202CE0006093E6027093E7028091E8029091E902A091EA02B091EB028A019B01081B190B4D
:202D00002A0B3B0B095E13402109310907361F4B21053105F0F40091110210911202209129
:202D200013023091140280179107A207B30728F4041715072607370760F010921002809340
:202D4000230290932402A0932502B09326020E94D60669E080EB93E00E949529882341F15E
:202D60008091CB02811124C080EB93E00E94B12969837A838B839C8380910B0290910C0242
:202D8000A0910D02B0910E0229813A814B815C81281B390B4A0B5B0BDA01C9014997A10527
:202DA000B10530F4809119018111CBC50E949C078091EC02882351F01092EC0280EB93E04E
:202DC0000E94152280EB93E00E9415228091C002882319F081508093C0026AE080EB93E00E
:202DE0000E9477296AE080EB93E00E94952968E080EB93E00E946B296AE080EB93E00E94E3
:202E00009529882351F08091CA02882321F08091C9028093C7021092CA0268E080EB93E023
:202E20000E946B2968E080EB93E00E946B2981118BC51092970268E080EB93E00E946B2987
:202E40008111B8C568E080EB93E00E947729882339F06AE080EB93E00E946B298111B2C5C0
:202E600068E080EB93E00E946B298111D0C568E080EB93E00E949529882309F4E4C56AE0AE
:202E800080EB93E00E946B298111C9C5DCC5D801CD90DC90698180EB93E00E942021F82EEA
:202EA0009D83698180EB93E00E941521A6016F2D7D810E9425088111F3CDF7CD80EB93E04E
:202EC0000E941521F80191838083EFCD81E08093CB02198240E0698180EB93E00E94C82000
:202EE000698180EB93E00E947729882311F089816CDAB981BF5FB983B83061F741E06091E6
:202F0000E10280EB93E00E94C82058CE80914602811152CE8091E102C9DB81E08093CB025C
:202F20004DCE80EB93E00E946B29882309F41AC16DE080EB93E00E947729882361F181E014
:202F40008093CB0280919602282F30E0E8E08E9FC0011124FC01EA5AFD4F578147E0668123
:202F60006783415031974111FACF8A5A9D4FDC015C93F901EC52FD4F9081892F880F97FDDF
:202F8000C0C08083F901E453FD4F9081892F880F97FDB9C0808369E080EB93E00E94772958
:202FA000882381F181E08093CB0280919602E82FF0E0B8E08B9FC0011124DC01AA5ABD4F7E
:202FC0003C9127E011964C9111974D932150D1F78A5A9D4FDC0117963C93DF01AC52BD4FC5
:202FE0002C91822F90E09595879520FD8EC08C93E453FD4F2081822F90E09595879520FD7B
:2030000086C080831A82198201E0198140E0612F80EB93E00E94C820698180EB93E00E9433
:203020007729882309F446C0E0910001EF3F41F18E2F90E0B8E0EB9FF0011124EA5AFD4F6B
:20304000A981BA8163E0AA0FBB1F6A95E1F7AA5ABD4F28E031913D932150E1F7FC01EC5230
:20306000FD4F2081E981FA81EC52FD4F208384539D4FFC018081E981FA81E453FD4F808325
:203080001093FD018091CA02811143C01092C8021092C7021092C9020093CA021093A00235
:2030A0001093960241E0612F80EB93E00E94C8200093CB0229813A812F5F3F4F3A83298372
:2030C0002830310509F0A1CF6BE080EB93E00E947729882319F081E08093CB023091C00216
:2030E0003983332371F180915402909155026091960270E068177907E9F46770772740E033
:2031000000CF81603ECF816045CF806870CF806878CF8091C9028F3118F48F5F8093C90233
:203120008091C902E82FF0E0E056FD4F10838093C702B8CF68E070E00E94593441E0682FD5
:20314000E0CE41E0809196025981851340E0698180EB93E00E94C82089818F5F8983883057
:2031600081F72CCD6CE080EB93E00E946B29882309F4A5C080EB93E00E94B12969837A832E
:203180008B839C838091FF0190910002A0910102B091020229813A814B815C81281B390BC0
:2031A0004A0B5B0BDA01C901893C9105A105B10518F181E080932A021A82198211E009819D
:2031C000F02E602F80EB93E00E947729882331F08091E202982F9770091799F06F2D80EBE3
:2031E00093E00E9477298823C1F08DEE92E00E942401F092E2020DC010922A02109229023C
:20320000DBCF885F8F708093E2028DEE92E00E9424010E9445051093CB0280912A0288232F
:2032200031F080912902811102C041E013C08091E2028830A0F041E06F2D80EB93E0A8D792
:203240008091E2028850990B49815A818417950779F440E06F2D80EB93E09AD709C040E0C0
:203260006F2D80EB93E094D78091E2028017E9F289819A8101969A838983089709F09FCF17
:2032800069E080EB93E00E947729882361F08091440282FD12C08460809344020E944505F8
:2032A00081E08093CB026091440262FB662760F980EB93E00E947E2881CC8B7FEDCF6EE0CC
:2032C00080EB93E00E947729811178CC6EE080EB93E00E946B29882309F4A4C18091440232
:2032E000982F9470998382FF40C11A82198211E0698180EB93E00E947729882349F0E981E5
:20330000FA81E258FE4F8081809304011093CB02A981BA811196BA83A983189749F70EE7C9
:2033200011E01982F80181918F0141E090910401981340E0698180EB93E02AD7F981FF5FB3
:20334000F983F83079F769E080EB93E00E94772981112EC16DE080EB93E00E947729882357
:20336000A1F181E08093CB0280913E0290913F02A0914002B09141029C01AD012A5B3F4F72
:203380004F4F5F4F29833A834B835C8320933E0230933F02409340025093410220910301E4
:2033A00030E050E040E069817A818B819C810E946C3430931601209315011092E80210928C
:2033C000E9021092EA021092EB0269E080EB93E00E946B29882309F462C080EB93E00E943E
:2033E000B12969837A838B839C8380910B0290910C02A0910D02B0910E0229813A814B81CE
:203400005C81281B390B4A0B5B0BDA01C901C397A105B10508F443C080EB93E00E94B129D9
:2034200024E130E040E050E00E946C34672B682B692BA9F580913E0290913F02A091400268
:20344000B09141028E339105A105B10558F04E97A109B10980933E0290933F02A093400278
:20346000B09341022091030130E050E040E080913E0290913F02A0914002B0914102BC014A
:20348000CD010E946C3430931601209315011092E8021092E9021092EA021092EB026DE0F6
:2034A00080EB93E00E946B29882309F487CB80EB93E00E94B12969837A838B839C8380917D
:2034C000030290910402A0910502B091060229813A814B815C81281B390B4A0B5B0BDA0114
:2034E000C901C397A105B10508F468CB80EB93E00E94B12924E130E040E050E00E946C341C
:20350000672B682B692B99F480913E0290913F02A0914002B09141024E96A11DB11D809338
:203520003E0290933F02A0934002B09341022091030130E050E040E080913E0290913F0224
:20354000A0914002B0914102BC01CD010E946C3430931601209315011092E8021092E902EB
:203560001092EA021092EB0229CB1D8211E06D8180EB93E00E947729882329F02D81209377
:2035800001011093CB023D813F5F3D83383079F741E0809101015981851340E0698180EBAA
:2035A00093E0F6D589818F5F8983883089F7CBCE81E08093CB0280913E0290913F02A091D3
:2035C0004002B091410286369105A105B10560F086549109A109B10980933E0290933F0298
:2035E000A0934002B09341022091030130E050E040E080913E0290913F02A0914002B09154
:203600004102BC01CD010E946C3430931601209315011092E8021092E9021092EA021092AE
:20362000EB0298CE68E080EB93E00E946B29882309F48DC01A821982C12CD12C7601C394F7
:203640001981612F80EB93E00E947729882381F1E0919602F0E0E453FD4F2081D701C60167
:20366000012E04C0880F991FAA1FBB1F0A94D2F7422F50E0098002C0559547950A94E2F7D5
:2036800040FD13C0822B80831092FA01E0919602F0E0E453FD4F408150E0098002C055954B
:2036A00047950A94E2F741700CC080958223EBCF8091FA01882351F341E0809117018113ED
:2036C00040E0612F80EB93E063D5A981BA811196BA83A983189709F0B3CF6DE080EB93E05A
:2036E0000E9477298823A9F081E08093CB0280911701873018F48F5F80931701E091170175
:20370000F0E0EA58FE4F80818093180181E08093FA0169E080EB93E00E947729882309F49D
:203720004DCA81E08093CB0280911701882319F0815080931701E0911701F0E0EA58FE4F70
:2037400080818093180181E08093FA0137CA69E080EB93E00E946B29882321F1198269812D
:2037600080EB93E00E947729882331F0B981B093E302E1E0E093CB02F981FF5FF983F8307E
:2037800071F7198241E08091E3022981821340E0698180EB93E0FCD439813F5F398338309C
:2037A00089F70CCA6DE080EB93E00E946B29882361F01982698180EB93E00E9477294981E7
:2037C0004F5F49834830B1F7F9C98091C0028E3001F18091C002811151C01A821982E091EC
:2037E0009602F0E0EC52FD4F408150E0098002C0559547950A94E2F74170698180EB93E0E5
:20380000C7D4A981BA811196BA83A983189739F751C01A821982C12CD12C7601C3946981CF
:2038200080EB93E00E946B298823E9F0E0919602F0E0EC52FD4F4081D701C601098004C0E0
:20384000880F991FAA1FBB1F0A94D2F72091FC0130E0098002C0359527950A94E2F720FFEA
:203860000AC0842B808389819A8101969A8389830897A9F6AECF80958423F4CF4091540286
:2038800090915502842F68E070E00E945934682FE0919602F0E0EC52FD4F208130E002C0C9
:2038A000359527954A95E2F740E020FF41E080EB93E06ED41A821982C12CD12C7601C3945B
:2038C000698180EB93E00E947729882359F1E0919602F0E0EC52FD4F20816981D701C6015C
:2038E000062E04C0880F991FAA1FBB1F0A94D2F7422F50E0062E02C0559547950A94E2F7A3
:2039000040FD18C0282B20834091FC01208130E002C0359527956A95E2F720FF0FC0842B60
:203920008093FC01E981FA813196FA83E983389739F644C9382F30952323E5CF80958423F5
:20394000EFCF1092190134CA6AE080EB93E00E946B29882309F46DCA81E0809397023091E4
:20396000C00239833323B1F0809154029091550268E070E00E9459342091960240E0281784
:20398000190609F041E0682F80EB93E001D41092C00251CA41E0809196025981851340E0C9
:2039A000698180EB93E0F4D389818F5F8983883089F741CA6AE080EB93E00E94772988231C
:2039C00009F440CA80919702882309F449CA60E080EB93E063D462E080EB93E05FD4E09162
:2039E000960298E0E99FF0011124EA5AFD4F8091540290915502E80FF91F80915002909107
:203A000051029695879596958795808329CA6AE080EB93E00E949529882309F428CA10920B
:203A2000970260E080EB93E04DD480E092E090939A028093990262E080EB93E043D4109296
:203A40009E0210929D021982A1E0AD83698180EB93E00E946B2981111D82B981BF5FB98376
:203A6000B031A1F7ED81EE23B9F01092CB0210924F0210922A02109246021092FA018FEF70
:203A8000809300018091C302882331F08091C4028093C5021092C3020F900F900F900F90DC
:203AA0000F90DF91CF911F910F91FF90EF90DF90CF900895AF92BF92CF92DF92EF92FF9258
:203AC0000F931F93CF93DF9300D000D0CDB7DEB780EB93E00E94B92880EB93E00E94E52916
:203AE00080EB93E0A2D486E793E00E94180F6BE080EB93E00E946B2961E0811109C06AE084
:203B000080EB93E00E946B29882309F4C7C060E080EB93E08AD39C0150E040E029833A8391
:203B20004B835C831F921F921F921F9237E0A32EB12CC12CD12CEE24EA9413E0F12E00E0E3
:203B400010E020E030E0A90169817A818B819C810E94A23280EB93E03FD50F900F900F9068
:203B60000F9080EB93E034D3482F60E080EB93E00E949A2880EB93E00E94BF2A482F61E0A7
:203B800080EB93E00E949A2880EB93E00E94B228682F80EB93E00E947E286091390480EB33
:203BA00093E00E94732862E080EB93E03ED3AC01440F551F440F551F60E080EB93E0BBD33D
:203BC00060E080EB93E031D3AC01440F551F440F551F61E080EB93E0AED36EE080EB93E0BC
:203BE0000E946B29682F80EB93E0CBD280EB93E00E94C72928EC30E040E050E00E946C3457
:203C000069837A838B839C83672B682B692B31F480919F0291E0892780939F0260919F0297
:203C200080EB93E00E94522860919F0280EB93E00E945D2860919F0280EB93E00E944C286D
:203C400060919F0280EB93E00E9468286DE080EB93E00E94772961E0811101C060E080EB16
:203C600093E00E94892869E080EB93E00E94772961E0811101C060E080EB93E00F900F9025
:203C80000F900F90DF91CF911F910F91FF90EF90DF90CF90BF90AF900C94942868E080EB4D
:203CA00093E00E946B2962E0811132CF69E080EB93E00E946B2964E0811108C06DE080EBD3
:203CC00093E00E946B298823A1F063E080EB93E0ACD29C0150E040E029833A834B835C835D
:203CE0001F921F921F9287E08F93A12CB12C650122CF198280912802882359F041E0698152
:203D000080EB93E045D239813F5F3983383091F728CF6CE080EB93E00E946B298111EECF04
:203D2000698180EB93E00E946B29482FE8CFCF9326E042E15AE760E070E08091AD03909119
:203D4000AE030E9442311092A6031092A5031092A4031092A3031092AC031092A803109237
:203D6000A7031092A9031092AA0383E080939C0310929D0310929E0310929F038EE595E036
:203D8000909379038093780380E794E0909377038093760385E996E090938F0380938E03B5
:203DA0008EEA97E0909391038093900382E694E0909395038093940388E694E090939303DB
:203DC0008093920346E757E060E677E080EB93E00E94B92780EB93E059D560E080EB93E0B0
:203DE000D0D160E080EB93E00E94892860E080EB93E00E949428C0E02FEF80E792E021502D
:203E000080409040E1F700C000006C2F80EB93E0ACD380EB93E00E94B928CF5FC43161F7A6
:203E20006BE080EB93E00E946B29882379F068E080EB93E00E946B29882341F080EB93E0F9
:203E40000E944F2A0E94E20435DEFECF69E080EB93E00E946B29882379F06DE080EB93E043
:203E60000E946B29882341F06EE080EB93E00E946B2981110E94B5140E9400050E9414155F
:203E80008DEE92E00E943F0162E08DEE92E00E941E010E94BA0442E361E080EB93E0B2D736
:203EA000C0E040E06C2F80EB93E072D1CF5FC830C1F7C0E00E9452102FEF80E792E021509C
:203EC00080409040E1F700C0000041E0C0FD40E061E080EB93E05CD1CF5FC53159F780E09C
:203EE00092E090939A028093990242E361E080EB93E088D70E9452100E94521080EB93E05A
:203F0000F3D161E080EB93E0C9D1E0912E02E0934502F0E0EE0FFF1FEB5FFE4F8081918134
:203F20009093C2028093C102CF910895CF93DF9300D000D0CDB7DEB70E94AD0C80914D027F
:203F400090914E02019690934E0280934D028091EC02882341F01092EC0280EB93E065D204
:203F600080EB93E062D20E945210E0914502F0E0EE0FFF1FEB5FFE4F80819181892B09F031
:203F800074C010924C0263E080EB93E04ED120E032E0281B390BA0919D02B0919E020E94D1
:203FA000B03469837A838B839C8320E032E040E050E00E948E342093480230934902409363
:203FC0004A0250934B020E94D6088091EC02882341F01092EC0280EB93E027D280EB93E0C5
:203FE00024D280914302882309F443C040912B0280E2489FA001112460E080EB93E09BD123
:2040000010921206109211068CE080935F048091EC02882341F01092EC0280EB93E005D22B
:2040200080EB93E002D2809139048983882371F08091FB0181110AC010925502109254020E
:2040400010925302109252020E94E10589818093FB010E94301586E793E00F900F900F902E
:204060000F90DF91CF910C94180F81E080934C028ACF0E943908C4CF0F93E6E7F3E08EE1C8
:2040800096E090AF87AB118210821382128215821482178216821186108613861286158694
:2040A000148617861686118A108A138A128A158A148A178A168A118E108E138E128E158E20
:2040C000148E178E168E11A210A213A212A215A214A20EE12CE133E04AE353E068E573E0AB
:2040E0008DEE92E00E94AD000F9108950895089581E008952D9A2D980895882311F02B9A75
:2041000008952B98089580E480937C00EAE7F0E080E880838081876080830895ECE7F0E078
:204120009081907790839081982B908321E030E001C0220F8A95EAF720937E000895EAE7CB
:20414000F0E0808180648083089580917A00829581700895809178009091790008958EBDCF
:2041600000000DB407FEFDCF8EB50895E62FF0E0EE0FFF1FE80FF91FE156FF4F51834083A2
:204180000895579A662311F05F9A08955F9808950F931F93FC01E953FF4F8081A62FB0E09C
:2041A000A552BE4F9C9101E010E020E030E004C0000F111F221F331F9A95D2F7442329F0DF
:2041C000082B00831F910F91089500950823F9CF89B182FB882780F991E089270895FC011A
:2041E000EC53FF4F0190F081E02D309709F00994089570E0660F771F860F971FFC01E5534E
:20420000FF4F8B529F4F20813181FC0180819181281B390B37FF03C031952195310981E08B
:204220002B3031050CF480E00895E62FF0E0EE0FFF1FE80FF91FE553FF4F808191810895AB
:20424000E62FF0E0EE0FFF1FE80FF91FEB52FF4F80819181089528E0629FB0011124860F90
:20426000971FDC01A95ABF4FFC01E75AFF4F2D913C9140815181240F351F3296408151810E
:20428000240F351F835A9F4FFC0180819181820F931F96958795969587950895262FFC01FC
:2042A000E357FF4F41E050E060E070E004C0440F551F661F771F2A95D2F740958081482326
:2042C00040830895FC01E357FF4F81E090E0A0E0B0E004C0880F991FAA1FBB1F6A95D2F79A
:2042E0002081822B80830895FC01E357FF4F8FEF8083089583579F4FFC01808190E002C035
:20430000959587956A95E2F781700895FC0110926D0080916D00613039F4846080936D0045
:204320001092AF0366830895886080936D0081E08093AF03F7CF9C016230A8F5411580E1CC
:20434000580788F570E0660F771FC901860F971FDC01A951BF4F4D935C9381529F4FDC01BF
:204360008D919C91841B950B97FF03C091958195910944E0880F991F4A95E1F7260F371FCF
:20438000F901E956FF4F608171810E944534CB0154E0969587955A95E1F7E85AFF4F892B56
:2043A00019F0718360830895605F7F4FFACFCF93DF93FC01752F262F30E0220F331F820F3C
:2043C000931FDC01A956BF4F4C9311965C931197EC01C152DF4FA05BBF4F888199810D902D
:2043E000BC91A02D8A1B9B0B97FF03C091958195910954E0880F991F5A95E1F7642F0E94AA
:204400004534CB01A4E096958795AA95E1F7E20FF31FE151FF4F892B29F071836083DF91DE
:20442000CF910895605F7F4FF8CFEF92FF920F931F93CF93DF937C018C0100541F4FF8012C
:20444000808190E0880F991FB701680F791FFB01E152FF4F4081518169517F4FFB01608160
:2044600071814617570711F1DA01A61BB70BB7FF03C0B195A195B1096417750708F058C079
:20448000F701E80FF91FEF01C151DF4F0990D881C02D34E0D695C7953A95E1F7E152FF4F03
:2044A000CA17DB0708F43FC0718360838E0D9F1DFC01E152FF4FC081D181F1ECEF0EF11C18
:2044C000F701208180E090E820FD02C090E080E0213039F42FEF3FE0A9014C1B5D0BEA019D
:2044E0009062DF70C82BD92BD0610E942E308CB5837F8CBD2A988D2F32DE8C2F30DE2A9AAC
:204500000E946030F70180818F5F823060F58083F7018081F8018083DF91CF911F910F9163
:20452000FF90EF9008954C1B5D0B51834083BECF4617570708F0BACFF701E80FF91FEF01AA
:20454000C151DF4F0990D881C02D24E0D695C7952A95E1F7E152FF4FCA17DB0708F0A4CF2B
:204560004C0F5D1FE2CF1082D3CFCF92DF92EF92FF92CF93DF93E62FDC01A953BF4F8C91AE
:20458000CBEDD1E023EE31E041E050E060E070E099916A017B0104C0CC0CDD1CEE1CFF1CE4
:2045A0009A95D2F78C292C173D0791F7E770F0E0E552FE4F908104C0440F551F661F771FDD
:2045C0009A95D2F7409548234C93DF91CF91FF90EF90DF90CF900895EF92FF920F931F9315
:2045E000CF93DF93E62FDC01A953BF4F9C91CBEDD1E083EEE82E81E0F82E41E050E060E0B6
:2046000070E089918A019B0104C0000F111F221F331F8A95D2F700959023EC16FD0689F7BE
:20462000E770F0E0E552FE4F808104C0440F551F661F771F8A95D2F7942B9C93DF91CF9182
:204640001F910F91FF90EF900895DF92EF92FF920F931F93CF93DF93EC01D62E64E0FBDDA7
:20466000FC01892B11F4E1E0F0E00D2D10E0CE0128E1D29E800D911D1124DC01A950BF4F2D
:20468000ED90FC9087509F4FDC018D919C919701281B390BC90166E070E00E94453466958F
:2046A00070E09701260F371FC701861B970BE817F90780F040E090E080E02E173F0708F09A
:2046C0008EC0C701880F991FBC016E1B7F0BFB0141E004C040E02E173F0798F388E1809F06
:2046E000D001819FB00D1124AC0FBD1FA55FBE4F2D913C912F5F3F4FE217F30728F09701E5
:20470000EE15FF0508F49F01DE0178E1D79EA00DB11D1124A950BF4FE0E08D919D918217ED
:20472000930730F08D919C9111978217930718F0EF5FEB3091F76E2F70E05CE0509FC001C7
:20474000519F900D1124DC01A60FB71FAA0FBB1FAC0FBD1FA950BF4F0D911C916F5F7F4F17
:20476000860F971F880F991FC80FD91FC950DF4F88819981D801A81BB90BCD0166E070E0A2
:204780000E9445347727D80180E02A173B0728F48F5FA61BB70B8730C1F7201B310B869F0C
:2047A000E001879FD00D1124D901AC1BBD0BB7FF03C0B195A195B1096C0F7D1F261B370B2E
:2047C00037FF03C03195219531092A173B070CF48F5F90E0B6E0EB9F800D911D11248D33F9
:2047E000910514F08CE390E0442319F0919581959109DF91CF911F910F91FF90EF90DF905D
:204800000895CF93DF939C01CA01623060F5811540E1940740F5E62FF0E0EE0FFF1FE20F60
:20482000F31FE951FF4F91838083D0E0C0E0662341F02FEF3FE0A901481B590BCA01C0E0A4
:20484000D0EAC82BD92BD0610E942E302A988CB5837F8CBD8D2F83DC8C2F81DC2A9ADF91C1
:20486000CF910C946030DF91CF910895CF93DF93D82FC92F50E040E060E0C3DF50E040E0E6
:2048800061E08D2F9C2FDF91CF91BBCF2F923F924F925F926F927F928F929F92AF92BF929C
:2048A000CF92DF92EF92FF920F931F93CF93DF93EC01DCDF9FEBC92E91E0D92E8E0105585F
:2048C0001E4F21EDA22E21E0B22E3E012BE7621A2EEF720A7801180144244A943FE0532ECE
:2048E000F601819191916F01F701819391937F01F501819191915F01A201481B590B61E038
:20490000CE017FDFF701529142914F0160E0CE0178DF8FE19EE40197F1F700C00000F401DF
:2049200080819181199913C001968115F0E19F0750F4F40191838083F4014081518160E023
:20494000CE015FDFECCFF40111821082F5CF019791838083E614F70409F0C2CFFE01ED5740
:20496000FE4F30E020E0D8010E5F1F4F12968D919C9113974D915C91841B950B280F391FF0
:20498000E017F10781F7369527953695279580819181820F931FF30191838083820F931FFE
:2049A000FE01E957FE4F918380833296820F931F91838083F101CF58DE4F80819181821B3C
:2049C000930B97FD1EC0811540E1940714F08FEF9FE092938293CE17DF0779F7DF91CF912F
:2049E0001F910F91FF90EF90DF90CF90BF90AF909F908F907F906F905F904F903F902F9045
:204A0000089590E080E0E5CFCF93DF939C01E62FF0E0BC016E0F7F1FDB01A055BF4F8C914B
:204A200090E001965CE0589FD001599FB00D1124E901C157DF4F0990D881C02D5C9FC001B6
:204A40005D9F900D1124EE0FFF1FE20FF31FE15AFD4F20813181820F931F840F911D8A176B
:204A60009B0764F0625B7F4FFB0120812A0F3B2F311D8217930724F00C97FBCF0C96EFCF13
:204A80008A1BDF91CF9108952F923F924F925F926F927F928F929F92AF92BF92CF92DF92D8
:204AA000EF92FF920F931F93CF93DF93CDB7DEB762970FB6F894DEBF0FBECDBF2C01262EE2
:204AC000342E842F66E00E9439349983822C912CA82FB0E0BD016F5F7F4FF201E80DF91D26
:204AE000E959FD4F2081222309F471C12FE0289DF001299DF00D1124AE0FBF1FAA0FBB1F28
:204B0000A40DB51DA951BE4F6D907C90E60FF71FEE0FFF1FE40DF51DE951FE4F808191813F
:204B20008619970966E070E00E9445347E836D83880C991CF201E80DF91DE156FF4F8081C7
:204B4000918150E040E0181619068CF59C01990F440B550B29873A874B875C87F201E155E2
:204B6000FF4F20814D815E81249FC001259F900D1124092E000CAA0BBB0BBF93AF939F93FB
:204B80008F93A12CB12C6501E12C10E2F12E00E010E020E030E0A90169857A858B859C851D
:204BA0000E94A232AB010F900F900F900F90840C951CF401E156FF4F8081918197FF30C003
:204BC000F201E155FF4F2081AD81BE812A9F50012B9FB00C1124B194A194B1080B2C000C05
:204BE000CC08DD089C01990F440B550B29873A874B875C871F921F921F921F92E12CF12CF4
:204C0000870120E030EE4FEF5FEF69857A858B859C850E94A232AB010F900F900F900F90A6
:204C2000640E751EA9818D819E81A89FA001A99F500D1124F301E40FF51FFA87E9879F01CA
:204C4000032E000C440B550B2D873E874F87588B092E000CAA0BBB0B89839A83AB83BC83E2
:204C60006D807E80719461947108072C000C88089908832D6CE00E943934A92FB0E0A65EEF
:204C8000BE4FBA8BA98B8C91282F30E050E040E02D833E834F8358873C813F934B814F935B
:204CA0005A815F9389818F9364015301E12CF12C8701EA9420E030E0A9016D817E818F815B
:204CC00098850E94A2329B01AC018D859E85AF85B889820F931FA41FB51F0F900F900F9097
:204CE0000F9050E040E0B7FD57C0A989BA898C91282F30E050E040E02D833E834F8358878F
:204D00003C813F934B814F935A815F9389818F9320E030E0A9016D817E818F8198850E94E7
:204D2000A2329B01AC018D859E85AF85B889820F931FA41FB51F0F900F900F900F904FEF18
:204D40005FE081159041A105B10534F5A989BA898C91282F30E050E040E02D873E874F8790
:204D6000588B3C813F934B814F935A815F9389818F9320E030E0A9016D857E858F85988936
:204D80000E94A232462F572FA985BA854A0F5B1F0F900F900F900F90622DC20162960FB6D7
:204DA000F894DEBF0FBECDBFDF91CF911F910F91FF90EF90DF90CF90BF90AF909F908F9099
:204DC0007F906F905F904F903F902F90B4CA4FE0489D9001499D300D1124F901EA0FFB1FE1
:204DE000EE0FFF1FE40DF51DE159FE4F60807180F901E60FF71FEE0FFF1FE40DF51DE159E0
:204E0000FE4F8CCEEF92FF921F93CF93DF93EC01162F7C01E60EF11CF701E955FF4F40835C
:204E2000F3DD482FF701E555FF4F8083612FCE01DF91CF911F91FF90EF9026CECF92DF92F5
:204E4000EF92FF920F931F93CF93DF93FC01CA01DB011482128221E0258313824150510921
:204E6000610971094B3A5E4E6105710508F069C04CEA5EEE67E477E72281022F6A01022E86
:204E800002C0D694C7940A94E2F7F12CE12C8C159D05AE05BF0570F46B01022E02C0D69404
:204EA000C7940A94E2F7F12CE12C8C159D05AE05BF0518F42F5F2283DFCF2481622F70E0C9
:204EC000EB01CC0FDD1FC756DE4F48815981002E02C0569547950A94E2F76A01F12CE12C5F
:204EE0008C159D05AE05BF05A8F4660F771FEB01C556DE4F68817981002E02C07695679543
:204F00000A94E2F76B01F12CE12C8C159D05AE05BF0518F42F5F2483D0CFEA01C61BD70B3C
:204F2000BE0176956795461B570B70E060E0481759076A077B0718F02F5F2483158281E071
:204F400001C080E0DF91CF911F910F91FF90EF90DF90CF900895FC01E357FE4F30E020E003
:204F600021933193235F3E4F233C8FE03807C1F70895CF92DF92EF92FF920F931F93CF93AE
:204F8000DF93EC016B017A01E6DFFE01E25BFF4F84E58083EE59FF4F1082E156F1098083B5
:204FA0008E010F541F4FF8011082E156F1098083EE59FF4F1082E156F1098083EE59FF4FE2
:204FC0001082F89456985E9A55985D9A3B98439852985A9821982998549A5C983D98459A4F
:204FE00053985B9A229A2A98579A5F98399A41987196C082D182E054F109E082F18210927E
:20500000B000E0E7F0E080818260808387E08093B1008FEF8093B3001092B200E8E6F0E002
:205020001082808184608083808182608083ECE6F0E010828081886080836FEFCE0166D984
:2050400010926D006FEFCE0161D9EFE6F0E010828081816080831092800082E080938100A6
:205060007894239A259A209A2D982898FE01E859FD4F81E08083F801108245D8C154DF4F8E
:20508000188286E04BD8DF91CF911F910F91FF90EF90DF90CF9053C8662311F05C9A0895B9
:2050A0005C980895FC01E853FF4F9081662319F09460908308959B7FFCCFFC01E853FF4F27
:2050C0009081662319F09061908308959F7EFCCFFC01E853FF4F9081662319F09160908377
:2050E00008959E7FFCCFFC01E853FF4F9081662319F09062908308959F7DFCCFFC01E85341
:20510000FF4F9081662319F09260908308959D7FFCCFFC01E853FF4F9081662319F09860F4
:2051200090830895977FFCCF662311F0419A089541980895FC0161110AC0E853FF4F8081A3
:20514000442319F08064808308958F7BFCCF6130D9F7E853FF4F8081442311F08068F3CF89
:205160008F77F1CF86B183FB882780F991E089270895CF92DF92EF92FF920F931F93CF9334
:20518000DF939C0186B1F901E757FF4F85FB882780F991E089278083BF9640815181D901B5
:2051A000A654BF4F4D935C93E901C957DF4F6881062F10E081E090E0A0E0B0E0062E04C0F9
:2051C000880F991FAA1FBB1F0A94D2F74E9975C0842B952B9183808340815181085F1F4F6C
:2051E00081E090E0A0E0B0E004C0880F991FAA1FBB1F0A95D2F74D9967C0842B952B918320
:2052000080836F5F6770688381E090E0A0E0B0E004C0880F991FAA1FBB1F6A95D2F7082F65
:205220000095F901E953FF4FE0803196C080E257F10980818F5F853108F04BC08083C7E069
:20524000D0E0D12CC6010C2E02C0959587950A94E2F781700E947D200E947A20219790F776
:20526000C7E0D0E0F12CC7010C2E02C0959587950A94E2F781700E947D200E947A20219715
:2052800090F7C7E0D0E010E0C8010C2E02C0959587950A94E2F781700E947D200E947A2052
:2052A000219790F7289A2898DF91CF911F910F91FF90EF90DF90CF900895809590954823EF
:2052C00059235183408388CF809590958423952396CF1082B4CF88549F4FFC018081918177
:2052E00002C0969587956A95E2F7817008959C01FC01E854FF4F80819181062E02C09695E7
:2053000087950A94E2F780FF0EC026543F4FF9018081918102C0969587956A95E2F78095A2
:2053200090958170089580E008959C01FC01E854FF4F80819181062E02C0969587950A94AB
:20534000E2F780FD0CC026543F4FF9018081918102C0969587956A95E2F78170089580E047
:205360000895CF93DF9300D000D0CDB7DEB7FC01EC54FF4F80819181A281B381BC01CD0183
:205380000F900F900F900F90DF91CF910895CF93DF9300D000D0CDB7DEB72091B200FC0137
:2053A000EC54FF4F80819181A281B381BA2FA92F982F8827AC01422BCD01BA010F900F90DD
:2053C0000F900F90DF91CF910895EF92FF920F931F93CF93DF93EC010E94A520882309F4EC
:2053E00057C08E0101541F4FD801EC90F12CEE0CFF1CEC0EFD1EF701EB52FF4FBBECEB0E85
:20540000F11CD7018D919C91918380830E94AA20F70191838083D8018C91282F30E0DE018E
:20542000A20FB31FA158BF4FEC91EF5FEC93E370A901440F551F440F551FE40FF52FF11DE8
:20544000EE0FFF1FEC0FFD1FE95AFF4F220F331FC20FD31FC553DF4F288139813183208343
:205460008F5F853090F4F8018083D801EC91F0E0ED51FE4F80810E948E20DF91CF911F9187
:205480000F91FF90EF900C949F20D8011C92EDCFDF91CF911F910F91FF90EF900895CF9290
:2054A000DF92FF920F931F93CF93DF93EC018C0109501F4F6C014BEFC41A4EEFD40AF801E8
:2054C000EC57FF4F4081518160E0CE019AD98FE39CE90197F1F700C000008EE1F82ECE018B
:2054E00074DFEFE9FFE03197F1F700C00000FA94F110F5CF64E0CE010E942B21F8018193D1
:2055000091938F01EC15FD05D1F6DE01AF5FBE4FFE01ED5FFE4F2D913C9180819181281B9A
:20552000390BC35FDE4F81919191821B930B97FD13C0893E43E0940714F088EE93E091837C
:205540008083CE17DF0779F7DF91CF911F910F91FF90DF90CF90089590E080E0F0CF8F9342
:205560008FB78F93EF93FF93E0EBF3E084AD8F5F84AFFF91EF918F918FBF8F911895FC0177
:2055800099B193FB992790F981E08927E657FF4F80830895CF93DF9300D000D0CDB7DEB721
:2055A00089839A8360918400809185000E940433B0E0A0E0E981FA8124ADAC01BD01622B20
:2055C000CB01BA010F900F900F900F90DF91CF910895CF92DF92EF92FF92CF93DF9300D0D3
:2055E00000D000D0CDB7DEB78D839E8381E0ED81FE8185AF138A108E118E128E138ECF0154
:20560000C9DF6B017C0180E0ED81FE819389911115C081112EC0CF01BDDF69837A838B8336
:205620009C83AB01BC014C195D096E097F0981E0413A56486140710538F7E5CFED81FE81B7
:2056400093899770B1F0811114C0CF01A3DF69837A838B839C83AB01BC014C195D096E090D
:205660007F0981E0413055436C40710538F780E0E5CFED81FE81938997709130B1F08111CF
:2056800014C0CF0187DF69837A838B839C83AB01BC014C195D096E097F0981E0413055434D
:2056A0006C40710530F780E0E4CFED81FE81938997709230B1F0811114C0CF016BDF6983AF
:2056C0007A838B839C83AB01BC014C195D096E097F0981E0413055436C40710530F780E05A
:2056E000E4CFED81FE81938997709330B1F0811114C0CF014FDF69837A838B839C83AB015D
:20570000BC014C195D096E097F0981E0413055436C40710530F780E0E4CFED81FE8115AE8C
:2057200091E0892726960FB6F894DEBF0FBECDBFDF91CF91FF90EF90DF90CF9008951F934A
:20574000CF93DF9300D000D0CDB7DEB789839A8361E089819A810E94862189819A8139DFA7
:20576000182F6FEF89819A810E9486211123C1F0A981BA8154968D919D910D90BC91A02DDF
:2057800089839A83AB83BC8369817A818B819C810F900F900F900F90DF91CF911F910895CC
:2057A00019821A821B821C82EFCF2F923F924F925F926F927F928F929F92AF92BF92CF92FE
:2057C000DF92EF92FF920F931F93CF93DF93CDB7DEB72A970FB6F894DEBF0FBECDBF8D83ED
:2057E0009E83962E29833A834B835C8349815A816B817C818D819E8121DBE92DF0E08D8103
:205800009E818E0F9F1FDC01A959BD4F2C91EE0FFF1F222309F482C02D813E81E20FF31F57
:20582000E951FF4FA080B180A501692D8D819E810E940124692D8D819E8181DF6B017C0153
:2058400069817A818B819C8128E730E040E050E00E946C3497E9292E312C812C10E000E0D8
:2058600048E7442E512C612C712C89819A81AB81BC81C816D906EA06FB0609F4BFC0C9015E
:20588000B0E0A0E08F839887A987BA87D701C60129813A814B815C81821B930BA40BB50BFF
:2058A0002F81388549855A85281739074A075B0708F0A4C089819A81AB81BC81C816D906F5
:2058C000EA06FB0630F4C114D104E104F10409F054C00C5F1F4F811003C03394882483946B
:2058E0002A94211052C090E080E02A960FB6F894DEBF0FBECDBFDF91CF911F910F91FF9021
:20590000EF90DF90CF90BF90AF909F908F907F906F905F904F903F902F9008954D815E81AA
:20592000E40FF51FDA0112962C9180559F4FDC018C91422F481B550BCA012CE0289FA001F0
:20594000299F500D1124AD81BE8114962C91240F352F311D86AD97AD6CE070E096D7269FEF
:205960005001279FB00C369FB00C1124EA5BFF4F80819181A80EB91E57CF0450110988201F
:2059800009F4AECF3394812CABCF98E09315B0F1A501400F511F692D8D819E810E940124EF
:2059A000692D8D819E81CBDE6B017C01A301920193D75BCF69817A818B819C812CE231E09A
:2059C00040E050E089D72230310568F469817A818B819C8120E930E040E050E07DD7223016
:2059E000310508F480CFC501800F911F7ECF015011098820B1F13394812C33C069817A81D3
:205A00008B819C8128E532E040E050E065D72230310580F287E9282E312C29013A016624A6
:205A2000772429813A814B815C81C216D306E406F506C9F2D701C601821B930BA40BB50B23
:205A4000481659066A067B0670F6C216D306E406F50668F20F5F1F4F811003C0339488249F
:205A600083942A94222009F43ECFA501400F511F38E0331508F4B7CF692D8D819E810E9459
:205A80000124692D8D819E815ADE6B017C01C9CFCF93DC01C62F842F9D01260F311DF90163
:205AA000E25BFF4F90819417F0F06CE0E2D6E92FF0E0EE0FFF1FAF0147565E4F20553F4FBB
:205AC000F9019081890F9927991FFA012081318102C0369527958A95E2F750E040E06C2F31
:205AE000CD01CF9162CE90E080E0CF9108958F929F92AF92BF92CF92DF92EF92FF920F9311
:205B00001F93CF93DF93EC01862EE62EF12CF701EE0FFF1FE80FF91FE951FF4FC080D180F2
:205B20008EE18E9D80018F9D100D1124FE01E00FF11FE951FE4FD7019396AA0FBB1FAC0FF8
:205B4000BD1F2D913C9131832083580103511E4F0C0F1D1F75E0972E692DCE010E94B5221E
:205B60008CE08915B0F5F80182819381009709F03EC093940E5F1F4FFFE09F12EDCFF50194
:205B8000EF50FE4FEC0FFD1F24E080819181880F991F42815381841B950B9293829321507B
:205BA000A1F7A601682DCE010E940124CE0DDF1DC959DD4F81E08883DF91CF911F910F91CA
:205BC000FF90EF90DF90CF90BF90AF909F908F900895492D440F490D440F682DCE0158DF63
:205BE000009709F4C0CFF80195838483C2CF880F991F20813181821B930B95838483B9CF55
:205C00002F923F924F925F926F927F929F92AF92BF92CF92DF92EF92FF920F931F93CF93B1
:205C2000DF93EC01962EA62EB12C8C010A0D1B1DF801E959FD4F10828EE18A9D60018B9D7C
:205C4000D00C1124CC0EDD1E160129E8221A2EEF320AD1014D915C91CE010E940124692DD8
:205C6000CE016DDD2B013C017501EE0CFF1CEC0EFD1EF601E558FE4F80819181F1012081DB
:205C80003181821B930BD701DF969C938E93DE97B301A201CE01D2D8382EF701EA5BFF4F44
:205CA0006F01882391F133243394411451046104710409F4312C8A81F801E055FF4F8083C1
:205CC000EE55F1099CE0899F802D112480838EE18A9DF0018B9DF00D1124EC0FFD1FE958C5
:205CE000FE4FD701DE968D919C916CE070E0CDD58C81869F9001879F300D11248081918114
:205D0000821B930BF60191838083A30192015695479537952795692DCE0147DD3C0162E0AC
:205D2000CE010E94B5226114710409F441C08EE18A9DF0018B9DF00D1124EC0FFD1FE958FA
:205D4000FE4F80819181681A790AD701DF967C926E92DE97F70186AD97ADC2978F399740A7
:205D600048F1312CD6018D919C910197803D974008F058C0332009F455C0F801E25BFF4F46
:205D80008CE38083D701DE960D911C91C8016CE070E07BD58081869F9001879F300D1124F6
:205DA000200F311F2F3F3F4038F58F5F8083F2CF312CD0CF3320A9F2F801E055FF4F1082A0
:205DC000D6018D919C911197969587958D939C932CEA3EEE40E050E0692DCE01E6DC5C014D
:205DE00060E0CE010E94B522A114B10409F4B9CFF601B182A082B6CF81508083692DCE0122
:205E0000DF91CF911F910F91FF90EF90DF90CF90BF90AF909F907F906F905F904F903F901E
:205E20002F9065CE80E0DF91CF911F910F91FF90EF90DF90CF90BF90AF909F907F906F9049
:205E40005F904F903F902F9008950F931F93CF93CFB7F8946091840080918500D5D320911D
:205E6000EC03B0E0A22F8093BB039093BC03A093BD03B093BE034A9966C04091BF035091AB
:205E8000C0036091C1037091C203481759076A077B0708F050C08C019D01041B150B260B6F
:205EA000370BB901A8014093B7035093B8036093B9037093BA03E091C303EF5FE093C303E5
:205EC000E77014E0E19FF0011124E453FC4F40835183628373831092C8031092C903109260
:205EE000CA031092CB03ECECF3E040E050E0BA010191119121913191400F511F621F731F35
:205F000023E0EC3EF207A1F74093C8035093C9036093CA037093CB0323E0769567955795EF
:205F200047952A95D1F74093C4035093C5036093C6037093C7038093BF039093C003A09342
:205F4000C103B093C203CFBFCF911F910F91089580EB93E014DB882329F0E0913404F091DF
:205F60003504099408951F920F920FB60F9211242F933F934F935F936F937F938F939F93F1
:205F8000AF93BF93EF93FF938091AF03882391F0DFDFFF91EF91BF91AF919F918F917F91AC
:205FA0006F915F914F913F912F910F900FBE0F901F9018954ADFEDCF339904C080EB93E0C7
:205FC0000C94EF2008951F920F920FB60F9211242F933F934F935F936F937F938F939F93B8
:205FE000AF93BF93EF93FF93E7DFFF91EF91BF91AF919F918F917F916F915F914F913F9193
:206000002F910F900FBE0F901F9018951F921FB61F9211248F939F93AF93BF93EF93FF93F1
:20602000E4E6F4E080819181A281B3810196A11DB11D80839183A283B383FF91EF91BF9163
:20604000AF919F918F911F901FBE1F90189583E991E09093B1038093B0030895CF93CFB7C9
:20606000F89480911D06811123C0EAE9F0E08491E6E8F0E09491E82FF0E0EE0FFF1FE25537
:20608000FF4FA591B491EC91E92319F461E08AE0B4D361E08AE075D38CB580618CBD8CB5D0
:2060A00080648CBD61E08DE06CD361E08BE069D380911D068F5F80931D06CFBFCF910895FB
:2060C0009FB7F89480911D06811107C08CB58F7B8CBD10921C069FBF0895815080931D06F7
:2060E0008111F9CFF3CFFC01818D228D90E0805C9F4F821B91098F7399270895FC01918DDF
:20610000828D981731F0828DE80FF11D858D90E008958FEF9FEF0895FC01918D828D9817EB
:2061200061F0A28DAE0FBF2FB11D5D968C91928D9F5F9F73928F90E008958FEF9FEF089550
:20614000FC01538D448D252F30E0842F90E0821B930B541710F0CF9608950197089584EFBA
:2061600091E3892B41F080E090E0892B21F03CD181110C9400000895FC01A48DA80FB92F88
:20618000B11DA35ABF4F2C91848D90E001968F739927848FA689B7892C93A089B1898C91CE
:2061A00080648C93938D848D981306C00288F389E02D80818F7D80830895CF93DF93EC01B9
:2061C000888D8823B1F0AA89BB89E889F9898C9185FD03C0808186FD0CC00FB607FCF7CFB4
:2061E0008C9185FFF2CF808185FFEDCFCE01C4DFEACFDF91CF910895EF92FF920F931F93FE
:20620000CF93DF93EC01F62E81E0888F9B8D8C8D981316C0E889F989808185FF11C0EE899F
:20622000FF896083E889F98980818064808381E090E0DF91CF911F910F91FF90EF9008957C
:206240000B8D10E00F5F1F4F0F731127E02E8C8D8E110BC00FB607FCFACFE889F98980810A
:2062600085FFF5CFCE0188DFF2CFEB8DEC0FFD2FF11DE35AFF4FF0820B8FEA89FB898081A3
:206280008062D4CFCF92DF92EF92FF921F93CF93DF93EC016A017B01122FE889F98982E0A5
:2062A0008083C11481EED806E104F10499F060E079E08DE390E0A70196010ED32150310912
:2062C000410951095695479537952795211580E1380790F0E889F989108260E874E88EE1DD
:2062E00090E0A7019601F8D221503109410951095695479537952795EC85FD853083EE856E
:20630000FF852083188EEC89FD891083EA89FB89808180618083EA89FB8980818860808363
:20632000EA89FB89808180688083EA89FB8980818F7D8083DF91CF911F91FF90EF90DF9076
:20634000CF9008952F932FB72F938F939F93EF93FF93E0912E06F0912F068081E091340668
:20636000F091350682FD19C09081809137068F5F8F7320913806821741F0E0913706F0E083
:20638000E25EF94F958F80933706FF91EF919F918F912F912FBF2F9118958081F6CF1F920F
:2063A0000F920FB60F9211242F933F934F935F936F937F938F939F93AF93BF93EF93FF9329
:2063C0008EE196E0D9DEFF91EF91BF91AF919F918F917F916F915F914F913F912F910F9022
:2063E0000FBE0F901F9018958EE196E07CDE9C0181E0232B09F480E00895EEE1F6E0138216
:20640000128288EE93E0A0E0B0E084839583A683B7838CEE91E09183808385EC90E095876E
:20642000848784EC90E09787868780EC90E0918B808B81EC90E0938B828B82EC90E0958B3D
:20644000848B86EC90E0978B868B118E128E138E148E0895CF92DF92EF92FF920F931F93C1
:20646000CF93DF937C016A0110E000E00C151D0581F0EB01D701ED91FC910190F081E02DFE
:206480006991C7010995892B21F00F5F1F4FBE01EDCFC801DF91CF911F910F91FF90EF9089
:2064A000DF90CF90089508951F920F920FB60F9211242F933F934F935F936F937F938F9349
:2064C0009F93AF93BF93EF93FF93E0912601F09127010995FF91EF91BF91AF919F918F9113
:2064E0007F916F915F914F913F912F910F900FBE0F901F9018951F920F920FB60F921124D8
:206500002F933F934F935F936F937F938F939F93AF93BF93EF93FF93E0912801F0912901BE
:206520000995FF91EF91BF91AF919F918F917F916F915F914F913F912F910F900FBE0F9052
:206540001F9018954F925F926F927F928F929F92AF92BF92CF92DF92EF92FF920F931F93DF
:20656000CF93DF93CDB7DEB728970FB6F894DEBF0FBECDBF69837A838B839C8329013A01AD
:20658000ED82FE820F8318878A2C9B2C560129813A814B815C8124193509460957098B8DB7
:2065A0009C8DAD8DBE8D7C018D01E818F9080A091B09C801B7014ED12D813E814F81588530
:2065C0002419350946095709A9D1DA01C901880D991DAA1DBB1DBC01CD0128960FB6F894EE
:2065E000DEBF0FBECDBFDF91CF911F910F91FF90EF90DF90CF90BF90AF909F908F907F90BE
:206600006F905F904F900895982F862F0895089553D0FDDF0E94971ECFEAD0E30E94961F41
:206620002097E1F39CDDFACF1F921FB61F9211242F933F938F939F93AF93BF938091BC06D2
:206640009091BD06A091BE06B091BF063091BB0623E0230F2D3750F50196A11DB11D209325
:20666000BB068093BC069093BD06A093BE06B093BF068091C0069091C106A091C206B091A6
:20668000C3060196A11DB11D8093C0069093C106A093C206B093C306BF91AF919F918F9164
:2066A0003F912F911F901FBE1F90189526E8230F0296A11DB11DD3CF789484B5826084BDF4
:2066C00084B5816084BD85B5826085BD85B5816085BDEEE6F0E0808181608083E1E8F0E082
:2066E0001082808182608083808181608083E0E8F0E0808181608083E1EBF0E0808184603F
:206700008083E0EBF0E0808181608083EAE7F0E080818460808380818260808380818160A5
:2067200080838081806880831092C1000895843099F038F48230C1F0833041F0813081F098
:2067400008958730A1F08830C1F00895809180008F77809380000895809180008F7DF9CF22
:2067600084B58F7784BD089584B58F7DFBCF8091B0008F778093B00008958091B0008F7DF9
:20678000F9CFCF93DF9390E0FC01E458FF4F249180579F4FFC0184918823C9F090E0880F6F
:2067A000991FFC01E255FF4FA591B491FC01EC55FF4FC591D49161110DC09FB7F8948C919F
:2067C000209582238C938881282328839FBFDF91CF910895623051F49FB7F8943C91822F3F
:2067E000809583238C93E8812E2BEFCF8FB7F894EC912E2B2C938FBFEACF1F93CF93DF934B
:20680000162F282F30E0F901E859FF4F8491F901E458FF4FD491F901E057FF4FC491CC2382
:2068200099F0811184DFEC2FF0E0EE0FFF1FEC55FF4FA591B4918FB7F894EC91111108C091
:20684000D095DE23DC938FBFDF91CF911F910895DE2BF8CFDB018F939F939DD0BF91AF91FB
:20686000A29F800D911DA39F900DB29F900D11240895991B79E004C0991F961708F0961B1E
:20688000881F7A95C9F780950895AA1BBB1B51E107C0AA1FBB1FA617B70710F0A61BB70B9B
:2068A000881F991F5A95A9F780959095BC01CD01089597FB072E16F4009406D077FD08D001
:2068C000E4DF07FC05D03EF4909581959F4F0895709561957F4F0895A1E21A2EAA1BBB1B59
:2068E000FD010DC0AA1FBB1FEE1FFF1FA217B307E407F50720F0A21BB30BE40BF50B661FA6
:20690000771F881F991F1A9469F760957095809590959B01AC01BD01CF010895052E97FB07
