:020000040000FA
:2000000036C000000C94990B0C94C00B58C0000056C0000054C0000052C0000050C00000D7
:200020004EC000004CC000004AC0000048C0000046C000000C94350842C0000040C00000AF
:200040000C94380C3CC000000C94A9090C94DB0936C0000034C0000032C0000030C000001E
:200060002EC000002CC00000DF06090A830A11241FBECFEFD8E0DEBFCDBF11E0A0E0B1E06E
:20008000E2E8FAE102C005900D92AA37B107D9F723E0AAE7B1E001C01D92A13AB207E1F75B
:2000A00010E0CEE6D0E004C02297FE010E94160DC836D107C9F70E942D0C0C943F0DA0CFDF
:2000C0000F93FC0102A775A364A357A346A331A720A711A21182108281E082A313A2148A86
:2000E00012820F9108950C94290D0C94310D0F9385EF92E09093CD028093CC0210929602E6
:2001000010929502109298021092970210929A021092990210929C0210929B0210929E02F3
:2001200010929D021092A00210929F021092A2021092A1021092A4021092A3021092A60293
:200140001092A5021092A8021092A7021092AA021092A9021092AC021092AB021092AE0233
:200160001092AD021092B0021092AF021092B2021092B1021092B4021092B3021092B602D3
:200180001092B5021092B8021092B7021092BA021092B90204E12DE132E045E452E06DE6E1
:2001A00072E08FEB91E08CDF21E332E049E552E061E872E08EEE91E083DF0F910895609109
:2001C000B10180E090E091DF6091B20181E090E08CDF6091B30182E090E087DF6091B401CA
:2001E00083E090E082DF6091B50184E090E07DDF6091B60185E090E078DF6091AF0186E019
:2002000090E073DF6091B00187E090E06EDF6091BD0188E090E069DF6091BE0189E090E0FE
:2002200064DF6091BB018AE090E05FDF6091BC018BE090E05ADF609117018CE090E055DFDB
:20024000609118018DE090E050DF609119018EE090E04BDF60911A018FE090E046CF84E60B
:2002600090E041DF803229F485E690E03CDF893259F11092B1011092B2011092B301109283
:20028000B40181E08093B5018093B6011092AF011092B0011092BD011092BE018FEF8093BE
:2002A000BB018093BC0180931701809318018093190180931A0183DF60E284E690E015DF8E
:2002C00069E285E690E011CF80E090E00CDF8093B10181E090E007DF8093B20182E090E049
:2002E00002DF91E0811101C090E09093B30183E090E0F9DE91E0811101C090E09093B4015C
:2003000084E090E0F0DE8093B50185E090E0EBDE8093B60186E090E0E6DE8093AF0187E046
:2003200090E0E1DE8093B00188E090E0DCDE8093BD0189E090E0D7DE8093BE018AE090E02D
:20034000D2DE8093BB018BE090E0CDDE8093BC018CE090E0C8DE809317018DE090E0C3DE9D
:20036000809318018EE090E0BEDE809319018FE090E0B9DE80931A01089526E040E056E904
:2003800060E070E085EF92E084D761E271E085EF92E00E94E20A63DF82ED92E040C50F93BA
:2003A0001F9382ED92E058D600917D0110917E0120917F0130918001601B710B820B930BB8
:2003C0006734710581059105F8F082ED92E044D660937D0170937E0180937F0190938001E3
:2003E00080917C018F5F80937C018F3F31F490917A0121E0922790937A0190917A019111CC
:2004000001C0809580937B0180910E018F3F49F440919A0160E082ED92E068D540919B0115
:2004200053C0811153C08091B901882351F040917B01409561E082ED92E058D540917B018F
:2004400099C08091B101811103C010928D0130C080918D01882349F182ED92E0FDD5009143
:20046000890110918A0120918B0130918C01601B710B820B930B009196011091970120E0B8
:2004800030E0061717072807390790F482ED92E0E3D56093890170938A0180938B019093B8
:2004A0008C0180918D01815001C08FEF80938D0140918D0160E082ED92E018D5E091B501CB
:2004C000F0E0E65FFE4F408161E055C0813009F057C08091BA01882351F040917B0161E09C
:2004E00082ED92E003D540917B01409543C08091B201811103C010928D0130C080918D0146
:20050000882349F182ED92E0A7D50091890110918A0120918B0130918C01601B710B820B43
:20052000930B009198011091990120E030E0061717072807390790F482ED92E08DD5609344
:20054000890170938A0180938B0190938C0180918D01815001C08FEF80938D0140918D0185
:2005600061E082ED92E0C2D4E091B601F0E0E65FFE4F408160E082ED92E01F910F91B6C48D
:200580001F910F9108950F931F9382ED92E064D50091AB011091AC012091AD013091AE01A6
:2005A000601B710B820B930B623071058105910508F4C0C182ED92E0B4D482ED92E04CD50D
:2005C0006093AB017093AC018093AD019093AE018091EF02882321F08091F202811128C1FB
:2005E0008091F002882321F08091F102811137C18091F102882359F082ED92E02DD56093E0
:2006000081017093820180938301909384018091F202882359F082ED92E01ED5609385014D
:200620007093860180938701909388018091F102882309F441C08091A60181113DC082ED86
:2006400092E00AD500919E0110919F012091A0013091A101601B710B820B930B61157044D7
:2006600081059105F0F46091B1016F5F63706093B101E62FF0E0EE0FFF1FE15FFE4F808103
:20068000918190939701809396014AE050E085EF92E00E94920B67E271E085EF92E092D77B
:2006A0008EDD82ED92E0D8D460939E0170939F018093A0019093A1018091F202882309F4E7
:2006C00041C08091A60181113DC082ED92E0C4D40091A2011091A3012091A4013091A50123
:2006E000601B710B820B930B6115704481059105F0F46091B2016F5F63706093B201E62FAE
:20070000F0E0EE0FFF1FE15FFE4F8081918190939901809398014AE050E085EF92E00E9403
:20072000920B60E371E085EF92E04CD748DD82ED92E092D46093A2017093A3018093A4011E
:200740009093A5018091F302882341F08091A601811104C080910E01811198C08091F402CF
:20076000882349F08091A601811105C080910E01813009F0A0C08091EF02882309F4B0C042
:2007800082ED92E069D400918101109182012091830130918401601B710B820B930B6130D6
:2007A00070448105910508F49BC010920E018091EF028823A9F082ED92E04ED40091810105
:2007C000109182012091830130918401601B710B820B930B6130784E8340910508F09EC052
:2007E0008091F0028823A9F082ED92E035D400918501109186012091870130918801601B8B
:20080000710B820B930B6130784E8340910508F08BC08091EF0281118DC08091F0028111C8
:2008200089C01092A6011092BA011092B90182C08091B5018F5F83708093B50181E0809346
:20084000A601BDDC4AE050E06091B50185EF92E069D769E371E085EF92E0B4D6C1CE809184
:20086000B6018F5F83708093B60181E08093A601A6DC4AE050E06091B60185EF92E052D768
:2008800060E471E085EF92E09DD6B2CE8091B30191E089278093B30192DC6091B30170E0DA
:2008A0004AE050E085EF92E031D767E471E085EF92E088D653CF8091B40191E089278093F4
:2008C000B4017DDC6091B40170E04AE050E085EF92E01CD76DE471E085EF92E073D64BCFF6
:2008E0008091F0028823B1F082ED92E0B5D300918501109186012091870130918801601B03
:20090000710B820B930B613070448105910510F081E001C08FEF80930E0149CF81E0809381
:20092000B9011092B7015CCF81E08093BA011092B8016FCF1F910F9108952F923F924F9250
:200940005F926F927F928F929F92AF92BF92CF92DF92EF92FF920F931F93CF93DF93CDB720
:20096000DEB72C970FB6F894DEBF0FBECDBF8091A9018093A7018091AA018093A8018091D9
:20098000E9029091EA0296958795969587958093A9018091EB029091EC0296958795969595
:2009A00087958093AA01E5EB6E2EE1E07E2EFCE98F2EF1E09F2EAAE94A2EA1E05A2E83EBC2
:2009C00091E09E838D83EEE8F1E0FA83E98386E991E09C838B83E9EAF1E0FC87EB8787EBCD
:2009E00091E098878F83E1EBF1E0FA87E987212C33243A94F3018081833009F04DC0EB8537
:200A0000FC85608170E080E090E01F921F921F923F92A12CB12C6501E12CF12C8701EA9430
:200A2000F39420E030E0A901D2D60F900F900F900F9097FD2BC0EB85FC85608170E080E050
:200A400090E01F921F921F923F9220E030E0A901BED60F900F900F900F906F3F71058105CE
:200A6000910509F0ACF4EB85FC85608170E080E090E01F921F921F923F9220E030E0A901B7
:200A8000A6D60F900F900F900F9003C060E001C06FEFEB85FC856083F3018081823009F0C8
:200AA0004CC0EB85FC85608170E080E090E01F921F921F923F92A12CB12C6501E12CF12C1A
:200AC0008701EA9420E030E0A90181D60F900F900F900F9097FD2BC0EB85FC85608170E0E2
:200AE00080E090E01F921F921F923F9220E030E0A9016DD60F900F900F900F906F3F7105A5
:200B00008105910509F0ACF4EB85FC85608170E080E090E01F921F921F923F9220E030E03A
:200B2000A90155D60F900F900F900F9003C060E001C06FEFEB85FC856083F30180818130C8
:200B400009F04DC0EB85FC85608170E080E090E01F921F921F923F92A12CB12C650110E8B1
:200B6000E12EF12C00E010E020E030E0A9012FD60F900F900F900F9097FD2BC0EB85FC85CE
:200B8000608170E080E090E01F921F921F923F9220E030E0A9011BD60F900F900F900F9049
:200BA0006F3F71058105910509F0ACF4EB85FC85608170E080E090E01F921F921F923F9286
:200BC00020E030E0A90103D60F900F900F900F9003C060E001C06FEFEB85FC856083F3011C
:200BE000808181114DC0EB85FC85608170E080E090E01F921F921F923F92A12CB12C65016F
:200C000018E2E12EF12C00E010E020E030E0A901DED50F900F900F900F9097FD2BC0EB8506
:200C2000FC85608170E080E090E01F921F921F923F9220E030E0A901CAD50F900F900F9018
:200C40000F906F3F71058105910509F0ACF4EB85FC85608170E080E090E01F921F921F9217
:200C60003F9220E030E0A901B2D50F900F900F900F9003C060E001C06FEFEB85FC856083F0
:200C8000EF81F8858191F887EF83EB85FC859081890F8083E985FA859191FA87E987F401D2
:200CA000992369F19081981708F48083F4018081882331F182ED92E0CFD1E981FA810081B5
:200CC000118122813381601B710B820B930BEB81FC8120813181890120E030E006171707F8
:200CE0002807390768F482ED92E0B6D1E981FA816083718382839383F40180818150808320
:200D0000ED81FE818191FE83ED8381110DC0F3018081F401811105C08081F0E8F81B8F2F99
:200D200005C08081809502C0F4018081F20180832394FFEF6F1A7F0A8FEF881A980A9FEF23
:200D4000491A590AE981FA813496FA83E9838B819C8102969C838B83EB85FC853196FC870C
:200D6000EB87F2E02F1246CE2C960FB6F894DEBF0FBECDBFDF91CF911F910F91FF90EF90A3
:200D8000DF90CF90BF90AF909F908F907F906F905F904F903F902F90089582ED92E0EED003
:200DA000F2DBCBDD40919A0160E082ED92E0AFD040919B0161E082ED92E0A9D0F0CA97C990
:200DC00080E480937C00EAE7F0E080E880838081876080830895ECE7F0E0908190779083BE
:200DE0009081982B908321E030E0082E01C0220F0A94EAF720937E000895EAE7F0E08081E4
:200E000080648083089580917A00829581700895809178002091790090E0922B0895CF933F
:200E2000DF93EC013A98429A3B98439A389840983D984598569A5E98229A2A98559A5D9853
:200E4000219A29988FE787BD88BDEFE6F0E080818160808384B58F7B84BD84B5806884BDA7
:200E600084B58F7E84BD84B5806284BD84B5816084BD84B5826084BD85B5877F85BD85B51C
:200E80008B7F85BD85B58D7F85BD85B5816085BDE0E8F0E080818F7B80838081806880838F
:200EA00080818F7E808380818062808380818160808380818D7F8083E1E8F0E080818860C4
:200EC000808380818F7E808380818B7F808380818D7F8083808181608083789471DF188205
:200EE00080911B0178DFDF91CF9187CF50E08FEF90E0841B950B611105C090938B008093F3
:200F00008A00089590938900809388000895611103C0409547BD0895613011F4409548BDAB
:200F20000895FC01258D238F368D348F96B141E092FB992790F99427958F86B183FB8827AC
:200F400080F98427868F211102C0492F01C040E0478F311102C0482F01C040E040A32223B1
:200F600019F021E0292701C020E021A3332319F091E0982701C090E092A308950F931F93AC
:200F8000CF93DF93EC013FDF882309F460C0088110E03EDFF801EE0FFF1FEC0FFD1F9283D4
:200FA00081834881842F90E0FE01E80FF91F25812F5F25832370FC01EE0FFF1FEE0FFF1F91
:200FC000E20FF11DEE0FFF1FEC0FFD1FDC01AA0FBB1FAC0FBD1F11962D913C911297308747
:200FE0002783FC0173E0EE0FFF1F7A95E1F7EC0FFD1F57962D913C91589781859285280F23
:20100000391F87819085280F391F83859485280F391F85859685280F391F36952795369516
:20102000279558963C932E93579781E0840F823010F4888301C01882E881F0E0E55EFE4FAF
:201040008081C9DEDF91CF911F910F91D6CEDF91CF911F910F9108956091CE027091CF02D4
:201060008091D0029091D10208951F920F920FB60F9211248F939F93AF93BF938091CE0246
:201080009091CF02A091D002B091D1020196A11DB11D8093CE029093CF02A093D002B09305
:2010A000D102BF91AF919F918F910F900FBE0F901F901895FC01818D228D90E0805C9F4F22
:2010C000821B91098F7399270895FC01918D828D981731F0828DE80FF11D858D90E008954D
:2010E0008FEF9FEF0895FC01918D828D981761F0828DDF01A80FB11D5D968C91928D9F5F7C
:201100009F73928F90E008958FEF9FEF0895FC01538D448D252F30E0842F90E0821B930B76
:20112000541710F0CF9608950197089580E09AE0892B41F080E090E0892B21F061D18111F5
:201140000C9400000895FC01848DDF01A80FB11DA35ABF4F2C91848D90E001968F7399273D
:20116000848FA689B7892C93A089B1898C9180648C93938D848D981306C00288F389E02DF6
:2011800080818F7D80830895CF93DF93EC01888D8823C1F0EA89FB89808185FD05C0A88900
:2011A000B9898C9186FD0EC00FB607FCF5CF808185FFF2CFA889B9898C9185FFEDCFCE010E
:2011C000C2DFE8CFDF91CF910895CF92DF92FF920F931F93CF93DF931F92CDB7DEB76C0188
:2011E00081E0D60158968C9358975B969C915B975C968C915C97981307C05096ED91FC9146
:201200005197808185FD2DC0F601038D10E00F5F1F4F0F731127F02EF601848DF81210C069
:201220000FB607FCF9CFD6015096ED91FC915197808185FFF1CFC601698385DF6981ECCF6D
:20124000838DE80FF11DE35AFF4F6083D6015B960C935B975296ED91FC91539780818062F2
:201260000CC0D6015696ED91FC91579760835096ED91FC91519780818064808381E090E071
:201280000F90DF91CF911F910F91FF90DF90CF900895BF92CF92DF92EF92FF92CF93DF938C
:2012A000EC016A017B01B22EE889F98982E08083411581EE58076105710599F060E079E000
:2012C0008DE390E0A701960167D321503109410951095695479537952795211580E1380741
:2012E00090F0E889F989108260E874E88EE190E0A701960151D321503109410951095695C9
:20130000479537952795EC85FD853083EE85FF852083188EEC89FD89B082EA89FB8980815E
:2013200080618083EA89FB89808188608083EA89FB89808180688083EA89FB8980818F7DFF
:201340008083DF91CF91FF90EF90DF90CF90BF9008951F920F920FB60F9211242F938F9321
:201360009F93EF93FF93E0910503F09106038081E0910B03F0910C0382FD12C090818091A1
:201380000E038F5F8F7320910F03821751F0E0910E03F0E0EB50FD4F958F80930E0301C0CD
:2013A0008081FF91EF919F918F912F910F900FBE0F901F9018951F920F920FB60F921124B8
:2013C0002F933F934F935F936F937F938F939F93AF93BF93EF93FF9385EF92E0B4DEFF918D
:2013E000EF91BF91AF919F918F917F916F915F914F913F912F910F900FBE0F901F901895B6
:2014000085EF92E057DE21E0892B09F420E0822F08951092F8021092F70288EE93E0A0E011
:20142000B0E08093F9029093FA02A093FB02B093FC0287E591E09093F6028093F50285EC0B
:2014400090E0909302038093010384EC90E0909304038093030380EC90E09093060380939F
:20146000050381EC90E0909308038093070382EC90E090930A038093090386EC90E090930A
:201480000C0380930B0310920E0310920F0310921003109211030895AF92BF92CF92DF9249
:2014A000EF92FF920F931F93CF93DF936C017B01C0E0D0E000E010E0F601EC0FFD1F4AE0B1
:2014C00050E06281C7012ED15C016EE2C70170D08A0D9B1D080F191F2196C330D10561F707
:2014E0004AE050E0F6016581C7011CD1800F911FDF91CF911F910F91FF90EF90DF90CF90C5
:20150000BF90AF90089589E691E0909393038093920310929403109295031092960310920F
:2015200097030895CF92DF92EF92FF920F931F93CF93DF937C016A01EB0100E010E00C15A3
:201540001D0571F06991D701ED91FC910190F081E02DC7010995892B19F00F5F1F4FEFCF5F
:20156000C801DF91CF911F910F91FF90EF90DF90CF900895DC01ED91FC910190F081E02D12
:20158000642F09946115710581F0DB010D900020E9F7AD0141505109461B570BDC01ED918E
:2015A000FC910280F381E02D099480E090E00895DC01ED91FC910190F081E02D09946BE6AC
:2015C00071E0E0CF0F931F93CF93DF93EC01DADF8C01CE01F4DF800F911FDF91CF911F914F
:2015E0000F9108958F929F92AF92BF92DF92EF92FF920F931F93CF93DF93CDB7DEB7A197CE
:201600000FB6F894DEBF0FBECDBF7C01F42FD52ECB0119A2223008F42AE08E010F5D1F4F98
:20162000822E912CA12CB12C6F2F7D2DA5019401B3D1F22FD32ECA01015011096A3014F492
:20164000E0E301C0E7E3E60FD801EC93232B242B252B51F7B801C70195DFA1960FB6F8943D
:20166000DEBF0FBECDBFDF91CF911F910F91FF90EF90DF90BF90AF909F908F900895CF92FD
:20168000DF92EF92FF920F931F93CF93DF93EC016A017B012115310579F4E881F98101907E
:2016A000F081E02D642FDF91CF911F910F91FF90EF90DF90CF9009942A303105D9F477FFAD
:2016C00018C06DE275DF8C0144275527BA014C195D096E097F092AE0CE0184DF800F911F1B
:2016E000DF91CF911F910F91FF90EF90DF90CF9008952AE0B701A601CE01DF91CF911F9199
:201700000F91FF90EF90DF90CF906CCF9A01AB01662757FD6095762FB2CF2115310509F466
:2017200029CF60CF9A01462F50E060E070E0F5CF08951F920F920FB60F9211242F933F93D0
:201740004F935F936F937F938F939F93AF93BF93EF93FF93E0911D01F0911E010995FF9148
:20176000EF91BF91AF919F918F917F916F915F914F913F912F910F900FBE0F901F90189532
:201780001F920F920FB60F9211242F933F934F935F936F937F938F939F93AF93BF93EF9376
:2017A000FF93E0911F01F09120010995FF91EF91BF91AF919F918F917F916F915F914F91F6
:2017C0003F912F910F900FBE0F901F9018954F925F926F927F92AF92BF92CF92DF92EF9249
:2017E000FF920F931F93CF93DF93CDB7DEB729013A01621B730B840B950B29893A894B893F
:201800005C892A193B094C095D09298B3A8B4B8B5C8B9B01AC0169897A898B899C89ADD077
:20182000E418F50806091709A8019701D7D02A0D3B1D4C1D5D1DCA01B901DF91CF911F9121
:201840000F91FF90EF90DF90CF90BF90AF907F906F905F904F900895089554D0FDDF0E94C6
:20186000BD01C6E9D8E099DA2097E9F35FDCFBCF1F920F920FB60F9211242F933F938F9395
:201880009F93AF93BF938091990390919A03A0919B03B0919C033091980323E0230F2D3773
:2018A00020F40196A11DB11D05C026E8230F0296A11DB11D209398038093990390939A030B
:2018C000A0939B03B0939C0380919D0390919E03A0919F03B091A0030196A11DB11D8093F5
:2018E0009D0390939E03A0939F03B093A003BF91AF919F918F913F912F910F900FBE0F904E
:201900001F901895789484B5826084BD84B5816084BD85B5826085BD85B5816085BDEEE619
:20192000F0E0808181608083E1E8F0E01082808182608083808181608083E0E8F0E0808163
:2019400081608083E1EBF0E0808184608083E0EBF0E0808181608083EAE7F0E08081846019
:2019600080838081826080838081816080838081806880831092C1000895DB018F939F937D
:2019800049D0BF91AF91A29F800D911DA39F900DB29F900D11240895A1E21A2EAA1BBB1B1D
:2019A000FD010DC0AA1FBB1FEE1FFF1FA217B307E407F50720F0A21BB30BE40BF50B661F35
:2019C000771F881F991F1A9469F760957095809590959B01AC01BD01CF010895052E97FB97
:2019E00016F400940FD057FD05D0D6DF07FC02D046F408C050954095309521953F4F4F4F54
:201A00005F4F089590958095709561957F4F8F4F9F4F08950FD0A59F900DB49F900DA49F1C
:201A2000800D911D11240895EE0FFF1F0590F491E02D0994A29FB001B39FC001A39F700DF6
:201A4000811D1124911DB29F700D811D1124911D0895F999FECF92BD81BDF89A992780B5A6
:201A60000895262FF999FECF1FBA92BD81BD20BD0FB6F894FA9AF99A0FBE01960895F894CD
:201A8000FFCF0000A103200001000000FF641900FF00000A004600C800FFFFFFFF00059887
:201AA0000B980B73746172740020646F75626C65300020646F75626C653100206761696EF4
:201AC0003000206761696E310020696E76300020696E76310000000000E508920A8708C4CF
:1C1AE000085A0873086508000000004C0A0D0A006E616E00696E66006F76660066
:2078000034C0000060C000005EC000005CC000005AC0000058C0000056C0000054C00000BE
:2078200052C0000050C000004EC000004CC000004AC0000048C0000046C0000044C00000F0
:2078400042C0000040C000003EC000003CC000003AC0000038C0000036C0000034C0000050
:2078600032C0000030C00000EF3D11241FBECFEFD8E0DEBFCDBF14BE88E10FB6F8948093AA
:207880006000109260000FBE11E0A0E0B1E0E6E2FDE702C005900D92A032B107D9F721E0BA
:2078A000A0E2B1E001C01D92A03BB207E1F718E7CAE6D8E703C02297FE012FD2C836D10719
:2078C000D1F730D12EC29CCFFC01E357FF4F1082329610823697108231961082329621E092
:2078E0002083319710820895089508950895089508C29C01629FC001639F900D1124F999EB
:20790000FECF07B600FCFDCF23E0FC0120935700E89507B600FCFDCF742FDA0141E02A2F11
:20792000271B261798F45C91FC01E20FF11D11962C91119730E0322F2227250F311D090101
:2079400040935700E89511241296E9CF25E0FC0120935700E8950895FF920F931F93CF937E
:20796000DF938B014238E9F4FB01C081D0E0DC2FCC278181C82BFC2EF29490EFF9226F2DEC
:2079800080E09BD16F2D609581E097D1A8014E5F5F4F60E8CE01DF91CF911F910F91FF90F7
:2079A000A8CFDF91CF911F910F91FF9008950F931F93CF93DF93EC01FC01E357FF4F808169
:2079C0008130C1F018F0823029F1A7C0CE0181579F4FDC012C91A22FB0E0A050BF4F3C91AF
:2079E000631332C02F5FDC012C93233009F095C081E00EC0643041F018F4623029F024C0C5
:207A00006C3011F06F3001F5C257DF4F688382E0808383C0673FB1F4FE01E557FF4F808185
:207A200081114CC0DE01A657BF4F8C9181110CC081E0808311978C91882309F43FC08150A2
:207A40008C933CC067FF0BC0E881F9810190F081E02DCE01DF91CF911F910F910994FE015D
:207A6000E557FF4F8081811158C0DE01A757BF4F2C91253809F451C08E0104571F4FF8016D
:207A80003081822F90E0332331F0C80FD91F6295607F6A830EC06F708C0F9D1FFC01428147
:207AA000642B6283C657DF4F8881862788832F5F2C9381E08327D8018C932FC0DE01A7572A
:207AC000BF4F4C918081882331F1BE016E5F7F4FFE01E257FF4F8081E881F981843089F0FC
:207AE00038F4823009F0B0CF0480F581E02D10C08C3059F08F3009F0A7CF0084F185E02D1F
:207B000007C00280F381E02D03C00680F781E02DCE01099599CF40E0D8CFDF91CF911F91B1
:207B20000F91089576D080E0DED0811105C081E0DAD0882309F451C0C0E0D0E06C2FCF3FA0
:207B4000D10509F028F4609580E0B7D06C2F05C06F5F80E0B2D06C2F619581E0AED08FE16E
:207B60009EE40197F1F700C000002196C11592E0D90721F760E880E0A0D060E881E09DD01E
:207B80008091C00082608093C0001092C5008FE38093C4008091C10088618093C100E091AF
:207BA0002001F09121010190F081E02D80E291E009958091C00087FFFCCF6091C60080E246
:207BC00091E0F5DEA7D08091C00087FFFCCF6091C60080E291E0EBDEF6CF0C940000CF93AE
:207BE000DF93C0E2D1E087E091E0998388831092A9011092AA0181E08093AC011092AB01B9
:207C0000CE0162DE85E191E099838883DF91CF9108953A98429A3B98439A569A5E98229AEA
:207C20002A98559A5D98219A29988FE787BD88BD84B58F7B84BD84B5806884BD84B58F7EF7
:207C400084BD84B5806284BD84B5816084BD84B5826084BD85B5877F85BD85B58B7F85BDC8
:207C600085B58D7F85BD85B5816085BDE0E8F0E080818F7B808380818068808380818F7E7F
:207C8000808380818062808380818160808380818D7F8083E1E8F0E0808188608083808180
:207CA0008F7E808380818B7F808380818D7F808380818160808378940895811109C08FEF2F
:207CC00090E0861B910990938B0080938A000895813041F48FEF90E0861B91099093890056
:207CE000809388000895811105C086B182FB882780F904C086B183FB882780F991E0892757
:207D0000089510928B0010928A00109289001092880008950895EE0FFF1F0590F491E02D9C
:207D20000994F894FFCFF07B5300000000643C743C753C763C773C00000000643C783CAC28
:067D40003C763C773C009C
:04000005000078007F
:00000001FF
