:1000000061C0000084C0000082C0000080C0000009
:100010007EC000007CC000007AC0000078C00000F4
:1000200076C0000074C0000072C0000070C0000004
:100030006EC000006CC000006AC0000068C0000014
:10004000A7C3000064C00000ABC20000E3C2000010
:100050005EC000005CC000005AC0000058C0000034
:1000600056C0000054C0000000000007000201005C
:100070000003040600000000000000000102040864
:100080001020408001020408102001020408102002
:10009000040404040404040402020202020203032E
:1000A00003030303000000002300260029000000D2
:1000B0000000250028002B0000000000240027007D
:1000C0002A00450311241FBECFEFD8E0DEBFCDBF0D
:1000D00011E0A0E0B1E0E6EFFBE002C005900D9278
:1000E000AA32B107D9F721E0AAE2B1E001C01D921E
:1000F000AC3EB207E1F710E0C4ECD0E003C02297B9
:10010000FE0173D5C23CD107D1F7A6D154C578CF33
:10011000CF93DF938CE027D5892B09F03EC08091E7
:10012000080109D4909305018093040180910B018B
:1001300002D490930701809306014091040162E28A
:1001400070E088E391E08ED14091050163E270E0B8
:1001500088E391E087D14091060164E270E088E392
:1001600091E080D14091070165E270E088E391E081
:1001700079D1C8E0D0E061E08DE0BFD468EC70E0F8
:1001800080E090E079D360E08DE0B7D468EC70E077
:1001900080E090E071D3219771F7DF91CF910895BE
:1001A000CF936DE270E088E391E05AD18D3009F091
:1001B00037C06EE270E088E391E052D1813981F579
:1001C0006FE270E088E391E04BD18D3649F562E053
:1001D0008CE05BD461E08DE058D462E270E088E3AB
:1001E00091E03ED1C82F63E270E088E391E038D11E
:1001F0006C2FC9D2909305018093040164E270E0F2
:1002000088E391E02DD1C82F65E270E088E391E0AA
:1002100027D16C2FB8D290930701809306012FC08D
:100220004DE06DE270E088E391E01CD141E96EE2BF
:1002300070E088E391E016D14DE66FE270E088E36C
:1002400091E010D14091040162E270E088E391E016
:1002500009D14091050163E270E088E391E002D1A9
:100260004091060164E270E088E391E0FBD04091A8
:10027000070165E270E088E391E0F4D0A8CFCF9168
:1002800008950F931F93CF93DF938ADFC4E1D1E0EA
:1002900000E111E061E08991F8D361E0F80181911A
:1002A0008F01F3D3F1E0C831DF07A1F761E080915E
:1002B0000E01EBD361E080910F01DF91CF911F918F
:1002C0000F91E3C3EF92FF920F931F93CF93DF93AE
:1002D000E82EF42EC82FD0E0CC0FDD1FFE01EC5E1F
:1002E000FE4F6623B9F061E0808107D48E010F5F75
:1002F0001F4FF801EC5EFE4F60E08081FED3C05FCF
:10030000DE4F61E08881F9D3F801E05FFE4F60E0E5
:10031000808116C060E08081F0D38E010F5F1F4F97
:10032000D801AC5EBE4F61E08C91E7D3C05FDE4F79
:1003300060E08881E2D3D801A05FBE4F61E08C917C
:10034000DCD3EE2DF0E0E25FFE4F6F2D70E0808198
:10035000DF91CF911F910F91FF90EF900DC3CF933D
:10036000DF93682F70E093E0899FF0011124EF0183
:10037000CC0FDD1FC45DDE4FDB01AA0FBB1FAC5FDE
:10038000BE4F288139814D915C91241B350BDF01D3
:10039000AA0FBB1FA25DBE4F4D915C91240F351F6C
:1003A0003296213092E03907E4F0A9015250559578
:1003B0004795EE0FFF1FE45DFE4F2081318136959A
:1003C000279536952795420F531F4F3F510519F03A
:1003D00010F04FEF50E0FB01E65DFE4F408361E01F
:1003E0001DC040E052E0421B530B55954795EE0F60
:1003F000FF1FE45DFE4F20813181369527953695AC
:100400002795420F531F4F3F510519F010F04FEF42
:1004100050E0FB01E65DFE4F408360E0DF91CF914D
:1004200051CF0F931F93CF93DF93C8E0D1E00CE23D
:1004300011E0899180D2F801819391938F01F1E0CD
:10044000CE30DF07B1F780E08ADF81E088DFDF911F
:10045000CF911F910F915CCE33D213DFE2DFFECF3D
:10046000CB01ABC3CB01642FB0C3FC018485958560
:10047000FC01E05CFF4F20813181FC01EE5BFF4F0E
:1004800080819181281B390B2F733327C90108956F
:10049000FC0184859585FC01E05CFF4F4081518122
:1004A000FC01EE5BFF4F208131814217530741F081
:1004B0000190F081E02DE80FF91F208130E002C0AB
:1004C0002FEF3FEFC9010895FC0184859585FC015C
:1004D000E05CFF4F40815181FC01EE5BFF4F2081CA
:1004E00031814217530781F0A081B181A80FB91F54
:1004F0008C91208131812F5F3F4F2F7333273183C0
:100500002083282F30E002C02FEF3FEFC90108956C
:10051000FC0181A1882329F0A489B5898C9186FFEB
:10052000FBCF11A20895CF93DF93FC012685378579
:10053000D901A05CBF4F8D919C91119701968F734B
:100540009927E901CE5BDF4F4881598184179507D0
:10055000D9F30D90BC91A02DA20FB31F6C93A6856B
:10056000B785A05CBF4F11969C938E93A689B789DF
:100570002C9181E090E0078C02C0880F991F0A94AB
:10058000E2F7282B2C9381E081A30488F589E02DE4
:1005900080818064808381E090E0DF91CF91089535
:1005A0001F920F920FB60F9211242F933F934F93E8
:1005B0008F939F93EF93FF938091C00082FD1CC0A7
:1005C0004091C6008091DF019091E00101968F7308
:1005D00099272091E1013091E2018217930771F090
:1005E000E091DF01F091E001E156FE4F40839093EE
:1005F000E0018093DF0102C08091C600FF91EF917E
:100600009F918F914F913F912F910F900FBE0F901F
:100610001F9018951F920F920FB60F9211242F93CF
:100620003F938F939F93EF93FF9320919B01309182
:100630009C0180919D0190919E012817390731F40A
:100640008091C1008F7D8093C10014C0E0919D0115
:10065000F0919E01E55AFE4F208180919D0190917D
:100660009E0101968F73992790939E0180939D011F
:100670002093C600FF91EF919F918F913F912F9111
:100680000F900FBE0F901F90189510923C01109282
:100690003B0188EE93E0A0E0B0E080933D019093B1
:1006A0003E01A0933F01B09340018DE191E0909312
:1006B0003A01809339018FE991E09093460180934C
:1006C00045018BE591E0909348018093470185ECCB
:1006D00090E090934A018093490184EC90E09093DC
:1006E0004C0180934B0180EC90E090934E018093FD
:1006F0004D0181EC90E09093500180934F0182EC8A
:1007000090E0909352018093510186EC90E0909399
:1007100054018093530184E08093550183E08093DA
:10072000560187E08093570185E08093580181E06E
:10073000809359010895CF92DF92EF92FF920F9329
:100740001F93CF93DF936C01EB017A01E60EF71E46
:1007500000E010E00BC06991D601ED91FC91019091
:10076000F081E02DC6010995080F191FCE15DF0590
:1007700091F7C801DF91CF911F910F91FF90EF90FA
:10078000DF90CF900895382F20E0262BC9010895DF
:100790001F920F920FB60F9211242F933F938F93B6
:1007A0009F93AF93BF938091E3019091E401A09157
:1007B000E501B091E6013091EB01232F2D5F2D373C
:1007C00020F40196A11DB11D05C0232F2A570296C2
:1007D000A11DB11D2093EB018093E3019093E401EF
:1007E000A093E501B093E6018091E7019091E801C3
:1007F000A091E901B091EA010196A11DB11D80937C
:10080000E7019093E801A093E901B093EA01BF9159
:10081000AF919F918F913F912F910F900FBE0F90AD
:100820001F9018950F931F939FB7F8940091E701BD
:100830001091E8012091E9013091EA0186B5A89B69
:1008400006C08F3F21F00F5F1F4F2F4F3F4F9FBFBD
:10085000322F212F102F0027080F111D211D311DB0
:1008600042E0000F111F221F331F4A95D1F7B80134
:10087000C9011F910F910895CF92DF92EF92FF92DD
:10088000CF93DF936B017C01CDDFEB010DC0CADF9D
:100890006C1B7D0B683E734038F081E0C81AD108AC
:1008A000E108F108C851DC4FC114D104E104F1049E
:1008B00071F7DF91CF91FF90EF90DF90CF90089587
:1008C000789484B5826084BD84B5816084BD85B52B
:1008D000826085BD85B5816085BDEEE6F0E08081F2
:1008E00081608083E1E8F0E0108280818260808313
:1008F000808181608083E0E8F0E080818160808396
:10090000E1EBF0E0808184608083E0EBF0E08081C7
:1009100081608083EAE7F0E0808184608083808169
:100920008260808380818160808380818068808311
:100930001092C10008958E3008F08E50877020917B
:10094000180140E4249F90011124822B80937C00A5
:1009500080917A00806480937A0080917A0086FD8D
:10096000FCCF2091780030917900932F80E0AC018A
:10097000422B9A01C90108951F93CF93DF93182F3B
:10098000EB0161E082D0209711F460E004C0CF3F1A
:10099000D10531F461E0812FDF91CF911F91ADC07E
:1009A000E12FF0E0E859FF4FE491E330B9F028F48B
:1009B000E13051F0E230B1F50CC0E63019F1E7302A
:1009C00049F1E43079F514C084B5806884BDC7BDB1
:1009D0002EC084B5806284BDC8BD29C080918000CE
:1009E000806880938000D0938900C09388001FC0E6
:1009F00080918000806280938000D0938B00C093B0
:100A00008A0015C08091B00080688093B000C093C8
:100A1000B3000DC08091B00080628093B000C0939D
:100A2000B40005C0C038D1050CF0B4CFAECFDF9113
:100A3000CF911F910895833069F028F48130A1F09F
:100A4000823011F514C08630B1F08730C1F08430A7
:100A5000D9F404C0809180008F7703C0809180001A
:100A60008F7D80938000089584B58F7702C084B510
:100A70008F7D84BD08958091B0008F7703C08091F1
:100A8000B0008F7D8093B0000895CF93DF9390E006
:100A9000FC01E458FF4F4491FC01E057FF4F849163
:100AA000882341F190E0880F991FFC01E854FF4F23
:100AB00025913491D90182559F4FFC0185919491E4
:100AC000C82FD92F9FB7F8948C91611106C040951B
:100AD00084238C938881842308C0623041F4242FBE
:100AE000209582238C938881842B888302C0842B59
:100AF0008C939FBFDF91CF9108950F931F93CF9356
:100B0000DF931F92CDB7DEB7282F30E0F901E85907
:100B1000FF4F8491F901E458FF4F1491F901E05718
:100B2000FF4F04910023C9F0882319F0698383DF04
:100B30006981E02FF0E0EE0FFF1FE255FF4F859136
:100B40009491DC019FB7F8948C91611103C01095CA
:100B5000812301C0812B8C939FBF0F90DF91CF9198
:100B60001F910F910895CF93DF93282F30E0F90163
:100B7000E859FF4F8491F901E458FF4FD491F901EE
:100B8000E057FF4FC491CC2381F0811154DFEC2F4B
:100B9000F0E0EE0FFF1FEC55FF4F85919491DC01C3
:100BA0008C918D2321E030E011F420E030E0C90188
:100BB000DF91CF910895F8941CC0F999FECF92BDB2
:100BC00081BDF89A992780B50895262FF999FECF0F
:100BD0001FBA92BD81BD20BD0FB6F894FA9AF99A5A
:100BE0000FBE01960895EE0FFF1F0590F491E02DC2
:060BF0000994F894FFCF08
:100BF60001000000000200020002030104050A0BC6
:100C06000302050406070809010000000093029B81
:0A0C16000335026402480288020060
:00000001FF
